{
  "_format": "hh-sol-artifact-1",
  "contractName": "EFC",
  "sourceName": "contracts/tokens/EFC.sol",
  "abi": [
    {
      "inputs": [
        {
          "internalType": "uint256",
          "name": "_capArchitect",
          "type": "uint256"
        },
        {
          "internalType": "uint256",
          "name": "_capConnector",
          "type": "uint256"
        },
        {
          "internalType": "uint256",
          "name": "_capPerConnectorCanMint",
          "type": "uint256"
        },
        {
          "internalType": "contract IRewardFarmCallback",
          "name": "_rewardFarmCallback",
          "type": "address"
        },
        {
          "internalType": "contract IFeeDistributorCallback",
          "name": "_feeDistributorCallback",
          "type": "address"
        }
      ],
      "stateMutability": "nonpayable",
      "type": "constructor"
    },
    {
      "inputs": [
        {
          "internalType": "address",
          "name": "owner",
          "type": "address"
        }
      ],
      "name": "CallerIsNotOwner",
      "type": "error"
    },
    {
      "inputs": [
        {
          "internalType": "uint256",
          "name": "cap",
          "type": "uint256"
        }
      ],
      "name": "CapExceeded",
      "type": "error"
    },
    {
      "inputs": [
        {
          "internalType": "uint256",
          "name": "capArchitect",
          "type": "uint256"
        },
        {
          "internalType": "uint256",
          "name": "capConnector",
          "type": "uint256"
        }
      ],
      "name": "CapTooLarge",
      "type": "error"
    },
    {
      "inputs": [
        {
          "internalType": "string",
          "name": "code",
          "type": "string"
        }
      ],
      "name": "CodeAlreadyRegistered",
      "type": "error"
    },
    {
      "inputs": [
        {
          "internalType": "string",
          "name": "code",
          "type": "string"
        }
      ],
      "name": "CodeNotRegistered",
      "type": "error"
    },
    {
      "inputs": [],
      "name": "Forbidden",
      "type": "error"
    },
    {
      "inputs": [],
      "name": "InvalidCode",
      "type": "error"
    },
    {
      "inputs": [],
      "name": "InvalidShortString",
      "type": "error"
    },
    {
      "inputs": [
        {
          "internalType": "uint256",
          "name": "tokenId",
          "type": "uint256"
        }
      ],
      "name": "NotConnectorToken",
      "type": "error"
    },
    {
      "inputs": [
        {
          "internalType": "uint256",
          "name": "tokenId",
          "type": "uint256"
        }
      ],
      "name": "NotMemberToken",
      "type": "error"
    },
    {
      "inputs": [],
      "name": "ReentrancyGuardReentrantCall",
      "type": "error"
    },
    {
      "inputs": [
        {
          "internalType": "string",
          "name": "str",
          "type": "string"
        }
      ],
      "name": "StringTooLong",
      "type": "error"
    },
    {
      "anonymous": false,
      "inputs": [
        {
          "indexed": true,
          "internalType": "address",
          "name": "owner",
          "type": "address"
        },
        {
          "indexed": true,
          "internalType": "address",
          "name": "approved",
          "type": "address"
        },
        {
          "indexed": true,
          "internalType": "uint256",
          "name": "tokenId",
          "type": "uint256"
        }
      ],
      "name": "Approval",
      "type": "event"
    },
    {
      "anonymous": false,
      "inputs": [
        {
          "indexed": true,
          "internalType": "address",
          "name": "owner",
          "type": "address"
        },
        {
          "indexed": true,
          "internalType": "address",
          "name": "operator",
          "type": "address"
        },
        {
          "indexed": false,
          "internalType": "bool",
          "name": "approved",
          "type": "bool"
        }
      ],
      "name": "ApprovalForAll",
      "type": "event"
    },
    {
      "anonymous": false,
      "inputs": [
        {
          "indexed": true,
          "internalType": "address",
          "name": "previousGov",
          "type": "address"
        },
        {
          "indexed": true,
          "internalType": "address",
          "name": "newGov",
          "type": "address"
        }
      ],
      "name": "ChangeGovStarted",
      "type": "event"
    },
    {
      "anonymous": false,
      "inputs": [
        {
          "indexed": true,
          "internalType": "address",
          "name": "referee",
          "type": "address"
        },
        {
          "indexed": false,
          "internalType": "string",
          "name": "code",
          "type": "string"
        },
        {
          "indexed": false,
          "internalType": "uint256",
          "name": "tokenIdBefore",
          "type": "uint256"
        },
        {
          "indexed": false,
          "internalType": "uint256",
          "name": "tokenIdAfter",
          "type": "uint256"
        }
      ],
      "name": "CodeBound",
      "type": "event"
    },
    {
      "anonymous": false,
      "inputs": [
        {
          "indexed": true,
          "internalType": "address",
          "name": "referrer",
          "type": "address"
        },
        {
          "indexed": true,
          "internalType": "uint256",
          "name": "tokenId",
          "type": "uint256"
        },
        {
          "indexed": false,
          "internalType": "string",
          "name": "code",
          "type": "string"
        }
      ],
      "name": "CodeRegistered",
      "type": "event"
    },
    {
      "anonymous": false,
      "inputs": [
        {
          "indexed": true,
          "internalType": "address",
          "name": "delegator",
          "type": "address"
        },
        {
          "indexed": true,
          "internalType": "address",
          "name": "fromDelegate",
          "type": "address"
        },
        {
          "indexed": true,
          "internalType": "address",
          "name": "toDelegate",
          "type": "address"
        }
      ],
      "name": "DelegateChanged",
      "type": "event"
    },
    {
      "anonymous": false,
      "inputs": [
        {
          "indexed": true,
          "internalType": "address",
          "name": "delegate",
          "type": "address"
        },
        {
          "indexed": false,
          "internalType": "uint256",
          "name": "previousBalance",
          "type": "uint256"
        },
        {
          "indexed": false,
          "internalType": "uint256",
          "name": "newBalance",
          "type": "uint256"
        }
      ],
      "name": "DelegateVotesChanged",
      "type": "event"
    },
    {
      "anonymous": false,
      "inputs": [],
      "name": "EIP712DomainChanged",
      "type": "event"
    },
    {
      "anonymous": false,
      "inputs": [
        {
          "indexed": true,
          "internalType": "address",
          "name": "previousGov",
          "type": "address"
        },
        {
          "indexed": true,
          "internalType": "address",
          "name": "newGov",
          "type": "address"
        }
      ],
      "name": "GovChanged",
      "type": "event"
    },
    {
      "anonymous": false,
      "inputs": [
        {
          "indexed": true,
          "internalType": "address",
          "name": "from",
          "type": "address"
        },
        {
          "indexed": true,
          "internalType": "address",
          "name": "to",
          "type": "address"
        },
        {
          "indexed": true,
          "internalType": "uint256",
          "name": "tokenId",
          "type": "uint256"
        }
      ],
      "name": "Transfer",
      "type": "event"
    },
    {
      "inputs": [],
      "name": "CLOCK_MODE",
      "outputs": [
        {
          "internalType": "string",
          "name": "",
          "type": "string"
        }
      ],
      "stateMutability": "view",
      "type": "function"
    },
    {
      "inputs": [],
      "name": "DOMAIN_SEPARATOR",
      "outputs": [
        {
          "internalType": "bytes32",
          "name": "",
          "type": "bytes32"
        }
      ],
      "stateMutability": "view",
      "type": "function"
    },
    {
      "inputs": [],
      "name": "acceptGov",
      "outputs": [],
      "stateMutability": "nonpayable",
      "type": "function"
    },
    {
      "inputs": [
        {
          "internalType": "address",
          "name": "to",
          "type": "address"
        },
        {
          "internalType": "uint256",
          "name": "tokenId",
          "type": "uint256"
        }
      ],
      "name": "approve",
      "outputs": [],
      "stateMutability": "nonpayable",
      "type": "function"
    },
    {
      "inputs": [],
      "name": "architectMinted",
      "outputs": [
        {
          "internalType": "uint256",
          "name": "",
          "type": "uint256"
        }
      ],
      "stateMutability": "view",
      "type": "function"
    },
    {
      "inputs": [
        {
          "internalType": "address",
          "name": "owner",
          "type": "address"
        }
      ],
      "name": "balanceOf",
      "outputs": [
        {
          "internalType": "uint256",
          "name": "",
          "type": "uint256"
        }
      ],
      "stateMutability": "view",
      "type": "function"
    },
    {
      "inputs": [],
      "name": "baseURI",
      "outputs": [
        {
          "internalType": "string",
          "name": "",
          "type": "string"
        }
      ],
      "stateMutability": "view",
      "type": "function"
    },
    {
      "inputs": [
        {
          "internalType": "address[]",
          "name": "_to",
          "type": "address[]"
        }
      ],
      "name": "batchMintArchitect",
      "outputs": [],
      "stateMutability": "nonpayable",
      "type": "function"
    },
    {
      "inputs": [
        {
          "internalType": "address[]",
          "name": "_to",
          "type": "address[]"
        }
      ],
      "name": "batchMintConnector",
      "outputs": [],
      "stateMutability": "nonpayable",
      "type": "function"
    },
    {
      "inputs": [
        {
          "internalType": "uint256",
          "name": "_connectorTokenId",
          "type": "uint256"
        },
        {
          "internalType": "address[]",
          "name": "_to",
          "type": "address[]"
        }
      ],
      "name": "batchMintMember",
      "outputs": [],
      "stateMutability": "nonpayable",
      "type": "function"
    },
    {
      "inputs": [
        {
          "internalType": "string",
          "name": "_code",
          "type": "string"
        }
      ],
      "name": "bindCode",
      "outputs": [],
      "stateMutability": "nonpayable",
      "type": "function"
    },
    {
      "inputs": [
        {
          "internalType": "address",
          "name": "_newGov",
          "type": "address"
        }
      ],
      "name": "changeGov",
      "outputs": [],
      "stateMutability": "nonpayable",
      "type": "function"
    },
    {
      "inputs": [],
      "name": "clock",
      "outputs": [
        {
          "internalType": "uint48",
          "name": "",
          "type": "uint48"
        }
      ],
      "stateMutability": "view",
      "type": "function"
    },
    {
      "inputs": [
        {
          "internalType": "string",
          "name": "",
          "type": "string"
        }
      ],
      "name": "codeTokens",
      "outputs": [
        {
          "internalType": "uint256",
          "name": "",
          "type": "uint256"
        }
      ],
      "stateMutability": "view",
      "type": "function"
    },
    {
      "inputs": [],
      "name": "connectorMinted",
      "outputs": [
        {
          "internalType": "uint256",
          "name": "",
          "type": "uint256"
        }
      ],
      "stateMutability": "view",
      "type": "function"
    },
    {
      "inputs": [
        {
          "internalType": "address",
          "name": "delegatee",
          "type": "address"
        }
      ],
      "name": "delegate",
      "outputs": [],
      "stateMutability": "nonpayable",
      "type": "function"
    },
    {
      "inputs": [
        {
          "internalType": "address",
          "name": "delegatee",
          "type": "address"
        },
        {
          "internalType": "uint256",
          "name": "nonce",
          "type": "uint256"
        },
        {
          "internalType": "uint256",
          "name": "expiry",
          "type": "uint256"
        },
        {
          "internalType": "uint8",
          "name": "v",
          "type": "uint8"
        },
        {
          "internalType": "bytes32",
          "name": "r",
          "type": "bytes32"
        },
        {
          "internalType": "bytes32",
          "name": "s",
          "type": "bytes32"
        }
      ],
      "name": "delegateBySig",
      "outputs": [],
      "stateMutability": "nonpayable",
      "type": "function"
    },
    {
      "inputs": [
        {
          "internalType": "address",
          "name": "account",
          "type": "address"
        }
      ],
      "name": "delegates",
      "outputs": [
        {
          "internalType": "address",
          "name": "",
          "type": "address"
        }
      ],
      "stateMutability": "view",
      "type": "function"
    },
    {
      "inputs": [],
      "name": "eip712Domain",
      "outputs": [
        {
          "internalType": "bytes1",
          "name": "fields",
          "type": "bytes1"
        },
        {
          "internalType": "string",
          "name": "name",
          "type": "string"
        },
        {
          "internalType": "string",
          "name": "version",
          "type": "string"
        },
        {
          "internalType": "uint256",
          "name": "chainId",
          "type": "uint256"
        },
        {
          "internalType": "address",
          "name": "verifyingContract",
          "type": "address"
        },
        {
          "internalType": "bytes32",
          "name": "salt",
          "type": "bytes32"
        },
        {
          "internalType": "uint256[]",
          "name": "extensions",
          "type": "uint256[]"
        }
      ],
      "stateMutability": "view",
      "type": "function"
    },
    {
      "inputs": [],
      "name": "feeDistributorCallback",
      "outputs": [
        {
          "internalType": "contract IFeeDistributorCallback",
          "name": "",
          "type": "address"
        }
      ],
      "stateMutability": "view",
      "type": "function"
    },
    {
      "inputs": [
        {
          "internalType": "uint256",
          "name": "tokenId",
          "type": "uint256"
        }
      ],
      "name": "getApproved",
      "outputs": [
        {
          "internalType": "address",
          "name": "",
          "type": "address"
        }
      ],
      "stateMutability": "view",
      "type": "function"
    },
    {
      "inputs": [
        {
          "internalType": "uint256",
          "name": "timepoint",
          "type": "uint256"
        }
      ],
      "name": "getPastTotalSupply",
      "outputs": [
        {
          "internalType": "uint256",
          "name": "",
          "type": "uint256"
        }
      ],
      "stateMutability": "view",
      "type": "function"
    },
    {
      "inputs": [
        {
          "internalType": "address",
          "name": "account",
          "type": "address"
        },
        {
          "internalType": "uint256",
          "name": "timepoint",
          "type": "uint256"
        }
      ],
      "name": "getPastVotes",
      "outputs": [
        {
          "internalType": "uint256",
          "name": "",
          "type": "uint256"
        }
      ],
      "stateMutability": "view",
      "type": "function"
    },
    {
      "inputs": [
        {
          "internalType": "address",
          "name": "account",
          "type": "address"
        }
      ],
      "name": "getVotes",
      "outputs": [
        {
          "internalType": "uint256",
          "name": "",
          "type": "uint256"
        }
      ],
      "stateMutability": "view",
      "type": "function"
    },
    {
      "inputs": [],
      "name": "gov",
      "outputs": [
        {
          "internalType": "address",
          "name": "",
          "type": "address"
        }
      ],
      "stateMutability": "view",
      "type": "function"
    },
    {
      "inputs": [
        {
          "internalType": "address",
          "name": "owner",
          "type": "address"
        },
        {
          "internalType": "address",
          "name": "operator",
          "type": "address"
        }
      ],
      "name": "isApprovedForAll",
      "outputs": [
        {
          "internalType": "bool",
          "name": "",
          "type": "bool"
        }
      ],
      "stateMutability": "view",
      "type": "function"
    },
    {
      "inputs": [
        {
          "internalType": "uint256",
          "name": "",
          "type": "uint256"
        }
      ],
      "name": "memberMintedCounter",
      "outputs": [
        {
          "internalType": "uint256",
          "name": "",
          "type": "uint256"
        }
      ],
      "stateMutability": "view",
      "type": "function"
    },
    {
      "inputs": [],
      "name": "name",
      "outputs": [
        {
          "internalType": "string",
          "name": "",
          "type": "string"
        }
      ],
      "stateMutability": "view",
      "type": "function"
    },
    {
      "inputs": [
        {
          "internalType": "address",
          "name": "owner",
          "type": "address"
        }
      ],
      "name": "nonces",
      "outputs": [
        {
          "internalType": "uint256",
          "name": "",
          "type": "uint256"
        }
      ],
      "stateMutability": "view",
      "type": "function"
    },
    {
      "inputs": [
        {
          "internalType": "uint256",
          "name": "tokenId",
          "type": "uint256"
        }
      ],
      "name": "ownerOf",
      "outputs": [
        {
          "internalType": "address",
          "name": "",
          "type": "address"
        }
      ],
      "stateMutability": "view",
      "type": "function"
    },
    {
      "inputs": [],
      "name": "pendingGov",
      "outputs": [
        {
          "internalType": "address",
          "name": "",
          "type": "address"
        }
      ],
      "stateMutability": "view",
      "type": "function"
    },
    {
      "inputs": [
        {
          "internalType": "address",
          "name": "",
          "type": "address"
        }
      ],
      "name": "refereeTokens",
      "outputs": [
        {
          "internalType": "uint256",
          "name": "",
          "type": "uint256"
        }
      ],
      "stateMutability": "view",
      "type": "function"
    },
    {
      "inputs": [
        {
          "internalType": "address",
          "name": "referee",
          "type": "address"
        }
      ],
      "name": "referrerTokens",
      "outputs": [
        {
          "internalType": "uint256",
          "name": "_memberTokenId",
          "type": "uint256"
        },
        {
          "internalType": "uint256",
          "name": "_connectorTokenId",
          "type": "uint256"
        }
      ],
      "stateMutability": "view",
      "type": "function"
    },
    {
      "inputs": [
        {
          "internalType": "uint256",
          "name": "_tokenId",
          "type": "uint256"
        },
        {
          "internalType": "string",
          "name": "_code",
          "type": "string"
        }
      ],
      "name": "registerCode",
      "outputs": [],
      "stateMutability": "nonpayable",
      "type": "function"
    },
    {
      "inputs": [],
      "name": "rewardFarmCallback",
      "outputs": [
        {
          "internalType": "contract IRewardFarmCallback",
          "name": "",
          "type": "address"
        }
      ],
      "stateMutability": "view",
      "type": "function"
    },
    {
      "inputs": [
        {
          "internalType": "address",
          "name": "from",
          "type": "address"
        },
        {
          "internalType": "address",
          "name": "to",
          "type": "address"
        },
        {
          "internalType": "uint256",
          "name": "tokenId",
          "type": "uint256"
        }
      ],
      "name": "safeTransferFrom",
      "outputs": [],
      "stateMutability": "nonpayable",
      "type": "function"
    },
    {
      "inputs": [
        {
          "internalType": "address",
          "name": "from",
          "type": "address"
        },
        {
          "internalType": "address",
          "name": "to",
          "type": "address"
        },
        {
          "internalType": "uint256",
          "name": "tokenId",
          "type": "uint256"
        },
        {
          "internalType": "bytes",
          "name": "data",
          "type": "bytes"
        }
      ],
      "name": "safeTransferFrom",
      "outputs": [],
      "stateMutability": "nonpayable",
      "type": "function"
    },
    {
      "inputs": [
        {
          "internalType": "address",
          "name": "operator",
          "type": "address"
        },
        {
          "internalType": "bool",
          "name": "approved",
          "type": "bool"
        }
      ],
      "name": "setApprovalForAll",
      "outputs": [],
      "stateMutability": "nonpayable",
      "type": "function"
    },
    {
      "inputs": [
        {
          "internalType": "string",
          "name": "_URI",
          "type": "string"
        }
      ],
      "name": "setBaseURI",
      "outputs": [],
      "stateMutability": "nonpayable",
      "type": "function"
    },
    {
      "inputs": [
        {
          "internalType": "bytes4",
          "name": "interfaceId",
          "type": "bytes4"
        }
      ],
      "name": "supportsInterface",
      "outputs": [
        {
          "internalType": "bool",
          "name": "",
          "type": "bool"
        }
      ],
      "stateMutability": "view",
      "type": "function"
    },
    {
      "inputs": [],
      "name": "symbol",
      "outputs": [
        {
          "internalType": "string",
          "name": "",
          "type": "string"
        }
      ],
      "stateMutability": "view",
      "type": "function"
    },
    {
      "inputs": [
        {
          "internalType": "uint256",
          "name": "tokenId",
          "type": "uint256"
        }
      ],
      "name": "tokenURI",
      "outputs": [
        {
          "internalType": "string",
          "name": "",
          "type": "string"
        }
      ],
      "stateMutability": "view",
      "type": "function"
    },
    {
      "inputs": [
        {
          "internalType": "address",
          "name": "from",
          "type": "address"
        },
        {
          "internalType": "address",
          "name": "to",
          "type": "address"
        },
        {
          "internalType": "uint256",
          "name": "tokenId",
          "type": "uint256"
        }
      ],
      "name": "transferFrom",
      "outputs": [],
      "stateMutability": "nonpayable",
      "type": "function"
    }
  ],
  "bytecode": "0x610200346200060757601f6200579a38819003918201601f19168301916001600160401b03831184841017620003ef5780849260a094604052833981010312620006075780516020820151604083015160608401519293919290916001600160a01b0382168203620006075760800151916001600160a01b038316830362000607576040516200008f816200060c565b600381526245464360e81b602082015260405190620000ae826200060c565b60038252620312e360ec1b6020830152604051620000cc816200060c565b601681527f4571756174696f6e20466f756e6465727320436c75620000000000000000000060208201526040519062000105826200060c565b600382526245464360e81b60208301528051906001600160401b038211620003ef5760005490600182811c92168015620005fc575b6020831014620004f35781601f8493116200059c575b50602090601f8311600114620005205760009262000514575b50508160011b916000199060031b1c1916176000555b8051906001600160401b038211620003ef5760015490600182811c9216801562000509575b6020831014620004f35781601f8493116200048f575b50602090601f8311600114620004115760009262000405575b50508160011b916000199060031b1c1916176001555b620001f48162000628565b610120526200020382620007ef565b6101405260208151910120908160e0526020815191012080610100524660a0526040519060208201927f8b73c3c69bb8fe3d512ecc4cf759cc79239f7b179b0ffacaa9a75d522b39400f8452604083015260608201524660808201523060a082015260a0815260c081019181831060018060401b03841117620003ef576040839052815190206080523060c052600d8054336001600160a01b0319821681179092556001600160a01b03167f3d1e4c3a68fed9f4f8315582b7297cf8fa264bc8e6704287603ba8c72bf05ac2600080a36001600f558660010180600111620003d9576103e8809111908115620003c1575b50620003a55750506101a09081526101809384526101609485526101e09283526101c091825260405193614db29586620009a8873960805186613f30015260a05186613feb015260c05186613f01015260e05186613f7f01526101005186613fa5015261012051866119510152610140518661197b015251856117610152518461049b0152518381816149770152614b430152518281816113080152611c6f01525181818161162c01526117930152f35b630e3c2e1f60e41b825260c4810187905260e401859052604490fd5b9050868101809111620003d9576127101038620002f4565b634e487b7160e01b600052601160045260246000fd5b634e487b7160e01b600052604160045260246000fd5b015190503880620001d3565b6001600090815293506000805160206200577a83398151915291905b601f198416851062000473576001945083601f1981161062000459575b505050811b01600155620001e9565b015160001960f88460031b161c191690553880806200044a565b818101518355602094850194600190930192909101906200042d565b60016000529091506000805160206200577a833981519152601f840160051c81019160208510620004e8575b90601f859493920160051c01905b818110620004d85750620001ba565b60008155849350600101620004c9565b9091508190620004bb565b634e487b7160e01b600052602260045260246000fd5b91607f1691620001a4565b01519050388062000169565b600080805293506000805160206200575a83398151915291905b601f198416851062000580576001945083601f1981161062000566575b505050811b016000556200017f565b015160001960f88460031b161c1916905538808062000557565b818101518355602094850194600190930192909101906200053a565b600080529091506000805160206200575a833981519152601f840160051c810160208510620005f4575b90849392915b601f830160051c82018110620005e457505062000150565b60008155859450600101620005cc565b5080620005c6565b91607f16916200013a565b600080fd5b604081019081106001600160401b03821117620003ef57604052565b805160209081811015620006c55750601f8251116200066457808251920151908083106200065557501790565b82600019910360031b1b161790565b90604051809263305a27a960e01b82528060048301528251908160248401526000935b828510620006ab575050604492506000838284010152601f80199101168101030190fd5b848101820151868601604401529381019385935062000687565b906001600160401b038211620003ef57600654926001938481811c91168015620007e4575b83821014620004f357601f8111620007aa575b5081601f84116001146200073e575092829391839260009462000732575b50501b916000199060031b1c19161760065560ff90565b0151925038806200071b565b919083601f198116600660005284600020946000905b888383106200078f575050501062000775575b505050811b0160065560ff90565b015160001960f88460031b161c1916905538808062000767565b85870151885590960195948501948793509081019062000754565b600660005284601f84600020920160051c820191601f860160051c015b828110620007d7575050620006fd565b60008155018590620007c7565b90607f1690620006ea565b8051602090818110156200087d5750601f8251116200081c57808251920151908083106200065557501790565b90604051809263305a27a960e01b82528060048301528251908160248401526000935b82851062000863575050604492506000838284010152601f80199101168101030190fd5b84810182015186860160440152938101938593506200083f565b906001600160401b038211620003ef57600754926001938481811c911680156200099c575b83821014620004f357601f811162000962575b5081601f8411600114620008f65750928293918392600094620008ea575b50501b916000199060031b1c19161760075560ff90565b015192503880620008d3565b919083601f198116600760005284600020946000905b888383106200094757505050106200092d575b505050811b0160075560ff90565b015160001960f88460031b161c191690553880806200091f565b8587015188559096019594850194879350908101906200090c565b600760005284601f84600020920160051c820191601f860160051c015b8281106200098f575050620008b5565b600081550185906200097f565b90607f1690620008a256fe6080604052600436101561001257600080fd5b60003560e01c806301ffc9a7146102c757806303e98e27146102c257806306fdde03146102bd578063081812fc146102b8578063093b1218146102b3578063095ea7b3146102ae5780630f2aec3a146102a957806312d43a51146102a45780631e54b2ee1461029f57806323b872dd1461029a5780632524081014610295578063274b0bea146102905780633644e5151461028b5780633a46b1a81461028657806342842e0e146102815780634bf5d7e91461027c57806355f804b314610277578063587cde1e146102725780635c19a95c1461026d5780635fca0cf0146102685780636352211e146102635780636c0360eb1461025e57806370a0823114610259578063771caa20146102545780637bc6729b1461024f5780637cf0263a1461024a5780637ecebe001461024557806384b0196e146102405780638e539e8c1461023b57806391ddadf4146102365780639210350d1461023157806393ec64991461022c57806395d89b41146102275780639ab24eb014610222578063a22cb4651461021d578063a962ef1e14610218578063b88d4fde14610213578063b9b848cc1461020e578063c3cda52014610209578063c87b56dd14610204578063e985e9c5146101ff578063e9dab583146101fa5763ef498a6d146101f557600080fd5b612877565b61280e565b61276c565b612513565b61236c565b612322565b61229c565b6121eb565b612086565b611ff8565b611f32565b611d74565b611bbe565b611b74565b611a4b565b611918565b6118af565b611728565b611650565b6115e1565b6114e4565b611487565b61132c565b6112bd565b611279565b61120e565b6110be565b610f5e565b610f36565b610df7565b610db6565b610d1f565b610b59565b610b30565b610a5c565b610a0a565b6108d9565b610767565b61070d565b6106b3565b61059a565b610469565b6102fb565b7fffffffff000000000000000000000000000000000000000000000000000000008116036102f657565b600080fd5b346102f65760207ffffffffffffffffffffffffffffffffffffffffffffffffffffffffffffffffc3601126102f65760207fffffffff00000000000000000000000000000000000000000000000000000000600435610359816102cc565b167f80ac58cd0000000000000000000000000000000000000000000000000000000081149081156103c1575b8115610397575b506040519015158152f35b7f01ffc9a7000000000000000000000000000000000000000000000000000000009150143861038c565b7f5b5e139f0000000000000000000000000000000000000000000000000000000081149150610385565b9181601f840112156102f65782359167ffffffffffffffff83116102f6576020808501948460051b0101116102f657565b60207ffffffffffffffffffffffffffffffffffffffffffffffffffffffffffffffffc8201126102f6576004359067ffffffffffffffff82116102f657610465916004016103eb565b9091565b346102f6576104773661041c565b61047f614562565b610487614916565b601354918183018084116104df57806013557f00000000000000000000000000000000000000000000000000000000000000008091116104e457506103e89283018093116104df576104d892614ad0565b6001600f55005b612c38565b602490604051907f73a6d13b0000000000000000000000000000000000000000000000000000000082526004820152fd5b60009103126102f657565b60005b8381106105335750506000910152565b8181015183820152602001610523565b907fffffffffffffffffffffffffffffffffffffffffffffffffffffffffffffffe0601f60209361057f81518092818752878088019101610520565b0116010190565b906020610597928181520190610543565b90565b346102f6576000807ffffffffffffffffffffffffffffffffffffffffffffffffffffffffffffffffc3601126106b0576040518180546105d981611368565b9081845260209260019182811690816000146106705750600114610618575b6106148561060881890382610c47565b60405191829182610586565b0390f35b8080949650527f290decd9548b62a8d60345a988386fc84ba6bc95484008f6362f93160ef3e5635b82841061065d5750505081610614936106089282010193386105f8565b8054858501870152928501928101610640565b7fffffffffffffffffffffffffffffffffffffffffffffffffffffffffffffff001686860152505050151560051b820101915061060881610614386105f8565b80fd5b346102f65760207ffffffffffffffffffffffffffffffffffffffffffffffffffffffffffffffffc3601126102f65760206106ef600435612d86565b73ffffffffffffffffffffffffffffffffffffffff60405191168152f35b346102f65760007ffffffffffffffffffffffffffffffffffffffffffffffffffffffffffffffffc3601126102f6576020601354604051908152f35b73ffffffffffffffffffffffffffffffffffffffff8116036102f657565b346102f65760407ffffffffffffffffffffffffffffffffffffffffffffffffffffffffffffffffc3601126102f6576004356107a281610749565b6024356107ae81612ccc565b9173ffffffffffffffffffffffffffffffffffffffff8084168091831614610855576107ed936107e89133149081156107ef575b50612cfb565b61325e565b005b61084f915061084890610823339173ffffffffffffffffffffffffffffffffffffffff166000526005602052604060002090565b9073ffffffffffffffffffffffffffffffffffffffff16600052602052604060002090565b5460ff1690565b386107e2565b60846040517f08c379a000000000000000000000000000000000000000000000000000000000815260206004820152602160248201527f4552433732313a20617070726f76616c20746f2063757272656e74206f776e6560448201527f72000000000000000000000000000000000000000000000000000000000000006064820152fd5b346102f65760407ffffffffffffffffffffffffffffffffffffffffffffffffffffffffffffffffc3601126102f65760043560243567ffffffffffffffff81116102f65761092b9036906004016103eb565b906103e8831015806109ff575b156109ce5761096261094984612ccc565b73ffffffffffffffffffffffffffffffffffffffff1690565b3303610971576107ed92614951565b6109ca61097d84612ccc565b6040517fd4ed9a1700000000000000000000000000000000000000000000000000000000815273ffffffffffffffffffffffffffffffffffffffff90911660048201529081906024820190565b0390fd5b602483604051907f049435eb0000000000000000000000000000000000000000000000000000000082526004820152fd5b506127108310610938565b346102f65760007ffffffffffffffffffffffffffffffffffffffffffffffffffffffffffffffffc3601126102f657602073ffffffffffffffffffffffffffffffffffffffff600d5416604051908152f35b346102f65760207ffffffffffffffffffffffffffffffffffffffffffffffffffffffffffffffffc3601126102f657600435610a9781610749565b73ffffffffffffffffffffffffffffffffffffffff1660009081526011602052604081205480610ad55750805b604080519182526020820192909252f35b9050610ae081614b1c565b90610ac4565b7ffffffffffffffffffffffffffffffffffffffffffffffffffffffffffffffffc60609101126102f657600435610b1c81610749565b90602435610b2981610749565b9060443590565b346102f6576107ed610b4136610ae6565b91610b54610b4f8433612f1b565b612ddd565b613041565b346102f65760007ffffffffffffffffffffffffffffffffffffffffffffffffffffffffffffffffc3601126102f657602073ffffffffffffffffffffffffffffffffffffffff600e5416604051908152f35b7f4e487b7100000000000000000000000000000000000000000000000000000000600052604160045260246000fd5b67ffffffffffffffff8111610bee57604052565b610bab565b6040810190811067ffffffffffffffff821117610bee57604052565b6020810190811067ffffffffffffffff821117610bee57604052565b60c0810190811067ffffffffffffffff821117610bee57604052565b90601f7fffffffffffffffffffffffffffffffffffffffffffffffffffffffffffffffe0910116810190811067ffffffffffffffff821117610bee57604052565b60405190610c9582610bf3565b565b67ffffffffffffffff8111610bee57601f017fffffffffffffffffffffffffffffffffffffffffffffffffffffffffffffffe01660200190565b929192610cdd82610c97565b91610ceb6040519384610c47565b8294818452818301116102f6578281602093846000960137010152565b90610d1b60209282815194859201610520565b0190565b346102f65760207ffffffffffffffffffffffffffffffffffffffffffffffffffffffffffffffffc3601126102f65760043567ffffffffffffffff81116102f657366023820112156102f657610d9a6020610d87610614933690602481600401359101610cd1565b8160405193828580945193849201610520565b8101601081520301902054604051918291829190602083019252565b346102f65760007ffffffffffffffffffffffffffffffffffffffffffffffffffffffffffffffffc3601126102f6576020610def613eea565b604051908152f35b346102f65760407ffffffffffffffffffffffffffffffffffffffffffffffffffffffffffffffffc3601126102f657600435610e3281610749565b60243590610e5165ffffffffffff610e4943614436565b1683106128b3565b73ffffffffffffffffffffffffffffffffffffffff6000911681526009602052610e7e60408220926144cd565b91805482938160058111610ee3575b5090602094610e9c9284613b82565b80610eca5750505b7bffffffffffffffffffffffffffffffffffffffffffffffffffffffff60405191168152f35b91610ed6849293613595565b928152200154811c610ea4565b94610eed86614237565b86039586116104df57602095610e9c9385875263ffffffff80838a8a2001541690851610600014610f245750915b91925094610e8d565b929150610f30906135d0565b90610f1b565b346102f6576107ed610f4736610ae6565b9060405192610f5584610c0f565b60008452612e68565b346102f65760007ffffffffffffffffffffffffffffffffffffffffffffffffffffffffffffffffc3601126102f6574365ffffffffffff610f9e43614436565b1603610fe957610614604051610fb381610bf3565b601d81527f6d6f64653d626c6f636b6e756d6265722666726f6d3d64656661756c74000000602082015260405191829182610586565b60646040517f08c379a000000000000000000000000000000000000000000000000000000000815260206004820152601860248201527f566f7465733a2062726f6b656e20636c6f636b206d6f646500000000000000006044820152fd5b9181601f840112156102f65782359167ffffffffffffffff83116102f657602083818601950101116102f657565b60207ffffffffffffffffffffffffffffffffffffffffffffffffffffffffffffffffc8201126102f6576004359067ffffffffffffffff82116102f65761046591600401611047565b346102f6576110cc36611075565b6110d4614562565b67ffffffffffffffff8111610bee576110f7816110f2601554611368565b614583565b6000601f821160011461115457819061114493600092611149575b50507fffffffffffffffffffffffffffffffffffffffffffffffffffffffffffffffff8260011b9260031b1c19161790565b601555005b013590503880611112565b60156000527fffffffffffffffffffffffffffffffffffffffffffffffffffffffffffffffe08216927f55f448fdea98c4d29eb340757ef0a66cd03dbb9538908a6a81d96026b71ec47591805b8581106111f6575083600195106111be575b505050811b01601555005b7fffffffffffffffffffffffffffffffffffffffffffffffffffffffffffffffff60f88560031b161c199101351690553880806111b3565b909260206001819286860135815501940191016111a1565b346102f65760207ffffffffffffffffffffffffffffffffffffffffffffffffffffffffffffffffc3601126102f657602060043561124b81610749565b73ffffffffffffffffffffffffffffffffffffffff8091166000526008825260406000205416604051908152f35b346102f65760207ffffffffffffffffffffffffffffffffffffffffffffffffffffffffffffffffc3601126102f6576107ed6004356112b781610749565b3361297d565b346102f65760007ffffffffffffffffffffffffffffffffffffffffffffffffffffffffffffffffc3601126102f657602060405173ffffffffffffffffffffffffffffffffffffffff7f0000000000000000000000000000000000000000000000000000000000000000168152f35b346102f65760207ffffffffffffffffffffffffffffffffffffffffffffffffffffffffffffffffc3601126102f65760206106ef600435612ccc565b90600182811c921680156113b1575b602083101461138257565b7f4e487b7100000000000000000000000000000000000000000000000000000000600052602260045260246000fd5b91607f1691611377565b601554600092916113cb82611368565b90818152602092600190818116908160001461144c57506001146113f0575b50505050565b929394509060156000527f55f448fdea98c4d29eb340757ef0a66cd03dbb9538908a6a81d96026b71ec47592846000945b8386106114385750505050010190388080806113ea565b805485870183015294019385908201611421565b7fffffffffffffffffffffffffffffffffffffffffffffffffffffffffffffff001685840152505090151560051b01019150388080806113ea565b346102f65760007ffffffffffffffffffffffffffffffffffffffffffffffffffffffffffffffffc3601126102f6576106146040516114d0816114c9816113bb565b0382610c47565b604051918291602083526020830190610543565b346102f65760207ffffffffffffffffffffffffffffffffffffffffffffffffffffffffffffffffc3601126102f65773ffffffffffffffffffffffffffffffffffffffff60043561153481610749565b16801561155d576000526003602052610614604060002054604051918291829190602083019252565b60846040517f08c379a000000000000000000000000000000000000000000000000000000000815260206004820152602960248201527f4552433732313a2061646472657373207a65726f206973206e6f74206120766160448201527f6c6964206f776e657200000000000000000000000000000000000000000000006064820152fd5b346102f65760007ffffffffffffffffffffffffffffffffffffffffffffffffffffffffffffffffc3601126102f657602060405173ffffffffffffffffffffffffffffffffffffffff7f0000000000000000000000000000000000000000000000000000000000000000168152f35b346102f6576000807ffffffffffffffffffffffffffffffffffffffffffffffffffffffffffffffffc3601126106b057600e5473ffffffffffffffffffffffffffffffffffffffff80821633036116fe577fffffffffffffffffffffffff0000000000000000000000000000000000000000809216600e55600d54913390831617600d553391167f3d1e4c3a68fed9f4f8315582b7297cf8fa264bc8e6704287603ba8c72bf05ac28380a380f35b60046040517fee90c468000000000000000000000000000000000000000000000000000000008152fd5b346102f6576117363661041c565b9061173f614562565b611747614916565b60125461175c61175784836135ee565b601255565b6012547f000000000000000000000000000000000000000000000000000000000000000080911161187c5750611791906135c2565b7f000000000000000000000000000000000000000000000000000000000000000073ffffffffffffffffffffffffffffffffffffffff169060005b8481106117dd576107ed6001600f55565b6117e781836135ee565b90611804826117ff6117fa848a8a614621565b614631565b61463b565b833b156102f6576040517f54f80bb1000000000000000000000000000000000000000000000000000000008152600481019290925260008260248183885af1918215611877576118599261185e575b506145f4565b6117cc565b8061186b61187192610bda565b80610515565b38611853565b613384565b6040517f73a6d13b0000000000000000000000000000000000000000000000000000000081526004810191909152602490fd5b346102f65760207ffffffffffffffffffffffffffffffffffffffffffffffffffffffffffffffffc3601126102f65773ffffffffffffffffffffffffffffffffffffffff6004356118ff81610749565b16600052600b6020526020604060002054604051908152f35b346102f6576000807ffffffffffffffffffffffffffffffffffffffffffffffffffffffffffffffffc3601126106b0576119ef906119757f0000000000000000000000000000000000000000000000000000000000000000614052565b9061199f7f000000000000000000000000000000000000000000000000000000000000000061417f565b90604051916119ad83610c0f565b8183526119fd6020916040519687967f0f00000000000000000000000000000000000000000000000000000000000000885260e08589015260e0880190610543565b908682036040880152610543565b904660608601523060808601528260a086015284820360c08601528080855193848152019401925b828110611a3457505050500390f35b835185528695509381019392810192600101611a25565b346102f65760207ffffffffffffffffffffffffffffffffffffffffffffffffffffffffffffffffc3601126102f657611aa0600435611a9b65ffffffffffff611a9343614436565b1682106128b3565b6144cd565b600a54906000829160058411611b09575b611abb9350613b09565b600081611ad057505060405160008152602090f35b600a611add602093613595565b91527fc65a7bb8d6351c1cf70c95a316cc6a92839c986682d98bc35f958f4883f9d2a80154811c610ea4565b9192611b1481614237565b81039081116104df57611abb93600a835263ffffffff80837fc65a7bb8d6351c1cf70c95a316cc6a92839c986682d98bc35f958f4883f9d2a801541690851610600014611b62575091611ab1565b929150611b6e906135d0565b90611ab1565b346102f65760007ffffffffffffffffffffffffffffffffffffffffffffffffffffffffffffffffc3601126102f6576020611bae43614436565b65ffffffffffff60405191168152f35b346102f657611bcc36611075565b611bd68183614a43565b54918215611d3f577fb05472b1e3f617044d7ebc0ba7b093eef318f044ff7680d935db83d7ee98b087611c293373ffffffffffffffffffffffffffffffffffffffff166000526011602052604060002090565b54809385611c573373ffffffffffffffffffffffffffffffffffffffff166000526011602052604060002090565b55611c6a86604051938493339785614aac565b0390a27f000000000000000000000000000000000000000000000000000000000000000073ffffffffffffffffffffffffffffffffffffffff169181611d30576000925b611cb782614b1c565b93813b156102f6576040517f24675390000000000000000000000000000000000000000000000000000000008152336004820152602481019490945260448401526064830191909152608482019290925290600090829060a490829084905af1801561187757611d2357005b8061186b6107ed92610bda565b611d3982614b1c565b92611cae565b6109ca6040519283927f06e3fbd100000000000000000000000000000000000000000000000000000000845260048401614a9b565b346102f6576040807ffffffffffffffffffffffffffffffffffffffffffffffffffffffffffffffffc3601126102f657600480359060243567ffffffffffffffff81116102f657611dc89036908301611047565b90936127108410611efd578115611ed557611de284612ccc565b9273ffffffffffffffffffffffffffffffffffffffff841693338503611e895750611e0d8387614a43565b54611e5557509084611e507f52b2e683ce1064b57a865568a3849f571a603dec12750fc74f69d6dee5171a319386611e458585614a43565b555192839283614a9b565b0390a3005b6109ca838793519384937f7f7d0ec30000000000000000000000000000000000000000000000000000000085528401614a9b565b91517fd4ed9a1700000000000000000000000000000000000000000000000000000000815273ffffffffffffffffffffffffffffffffffffffff90921690820190815281906020010390fd5b9050517f6606a462000000000000000000000000000000000000000000000000000000008152fd5b517f61b3217d000000000000000000000000000000000000000000000000000000008152918201928352509081906020010390fd5b346102f6576000807ffffffffffffffffffffffffffffffffffffffffffffffffffffffffffffffffc3601126106b05760405181600190815491611f7583611368565b9182855260209382811690816000146106705750600114611fa0576106148561060881890382610c47565b9294508083527fb10e2d527612073b26eecdfd717e6a320cf44b4afac2b0732d9fcbe2b7fa0cf65b828410611fe55750505081610614936106089282010193386105f8565b8054858501870152928501928101611fc8565b346102f65760207ffffffffffffffffffffffffffffffffffffffffffffffffffffffffffffffffc3601126102f65773ffffffffffffffffffffffffffffffffffffffff60043561204881610749565b16600052600960205260207bffffffffffffffffffffffffffffffffffffffffffffffffffffffff61207d6040600020613663565b16604051908152f35b346102f65760407ffffffffffffffffffffffffffffffffffffffffffffffffffffffffffffffffc3601126102f6576004356120c181610749565b60243580151581036102f65773ffffffffffffffffffffffffffffffffffffffff82169182331461218d57816121276121579233600052600560205260406000209073ffffffffffffffffffffffffffffffffffffffff16600052602052604060002090565b9060ff7fffffffffffffffffffffffffffffffffffffffffffffffffffffffffffffff0083541691151516179055565b604051901515815233907f17307eab39ab6107e8899845ad3d59bd9653f200f220920489ca2b5937696c31908060208101611e50565b60646040517f08c379a000000000000000000000000000000000000000000000000000000000815260206004820152601960248201527f4552433732313a20617070726f766520746f2063616c6c6572000000000000006044820152fd5b346102f65760207ffffffffffffffffffffffffffffffffffffffffffffffffffffffffffffffffc3601126102f65760043561222681610749565b61222e614562565b73ffffffffffffffffffffffffffffffffffffffff80911690817fffffffffffffffffffffffff0000000000000000000000000000000000000000600e541617600e55600d54167fb9911e2099e372c216862258dc462bb65da46a2c854536c8b1acae619d0d62ed600080a3005b346102f65760807ffffffffffffffffffffffffffffffffffffffffffffffffffffffffffffffffc3601126102f6576004356122d781610749565b6024356122e381610749565b6064359167ffffffffffffffff83116102f657366023840112156102f6576123186107ed933690602481600401359101610cd1565b9160443591612e68565b346102f65760207ffffffffffffffffffffffffffffffffffffffffffffffffffffffffffffffffc3601126102f65760043560005260146020526020604060002054604051908152f35b346102f65760c07ffffffffffffffffffffffffffffffffffffffffffffffffffffffffffffffffc3601126102f6576004356123a781610749565b6064359060243560443560ff841684036102f6578042116124b5576124766124b0916107ed956040519061245e826124326020820195898b8860609194939273ffffffffffffffffffffffffffffffffffffffff60808301967fe48329057bfd03d55e49b547132e39cffd9c1820ad7b9d4c5307691425d15adf845216602083015260408201520152565b037fffffffffffffffffffffffffffffffffffffffffffffffffffffffffffffffe08101845283610c47565b61247160a4359360843593519020614011565b613c82565b916124aa8373ffffffffffffffffffffffffffffffffffffffff16600052600b602052604060002090815491600183019055565b14612918565b61297d565b60646040517f08c379a000000000000000000000000000000000000000000000000000000000815260206004820152601860248201527f566f7465733a207369676e6174757265206578706972656400000000000000006044820152fd5b346102f65760207ffffffffffffffffffffffffffffffffffffffffffffffffffffffffffffffffc3601126102f65760043561257a61257582600052600260205273ffffffffffffffffffffffffffffffffffffffff60406000205416151590565b612c67565b60405161258a816114c9816113bb565b8051600090156127525750600091807a184f03e93ff9f4daa797ed6e38ed64bf6a1f0100000000000000008181811015612744575b50506d04ee2d6d415b85acef810000000080831015612735575b50662386f26fc1000080831015612726575b506305f5e10080831015612717575b5061271080831015612708575b5060648210156126f8575b600a809210156126ee575b60019081602161262e828801613bfa565b96870101905b61268d575b5050505061060861265b91612661610614946040519485936020850190610d08565b90610d08565b037fffffffffffffffffffffffffffffffffffffffffffffffffffffffffffffffe08101835282610c47565b7fffffffffffffffffffffffffffffffffffffffffffffffffffffffffffffffff849101917f30313233343536373839616263646566000000000000000000000000000000008282061a8353049182156126e957919082612634565b612639565b926001019261261d565b9290606460029104910192612612565b60049194920491019238612607565b600891949204910192386125fa565b601091949204910192386125eb565b602091949204910192386125d9565b6040955004915038806125bf565b6040516106149350915061276582610c0f565b8152610608565b346102f65760407ffffffffffffffffffffffffffffffffffffffffffffffffffffffffffffffffc3601126102f657602060ff6128026004356127ae81610749565b73ffffffffffffffffffffffffffffffffffffffff602435916127d083610749565b166000526005845260406000209073ffffffffffffffffffffffffffffffffffffffff16600052602052604060002090565b54166040519015158152f35b346102f65760207ffffffffffffffffffffffffffffffffffffffffffffffffffffffffffffffffc3601126102f65773ffffffffffffffffffffffffffffffffffffffff60043561285e81610749565b1660005260116020526020604060002054604051908152f35b346102f65760007ffffffffffffffffffffffffffffffffffffffffffffffffffffffffffffffffc3601126102f6576020601254604051908152f35b156128ba57565b60646040517f08c379a000000000000000000000000000000000000000000000000000000000815260206004820152601460248201527f566f7465733a20667574757265206c6f6f6b75700000000000000000000000006044820152fd5b1561291f57565b60646040517f08c379a000000000000000000000000000000000000000000000000000000000815260206004820152601460248201527f566f7465733a20696e76616c6964206e6f6e63650000000000000000000000006044820152fd5b9080610c959273ffffffffffffffffffffffffffffffffffffffff809116908160005260086020526040600020906129f5818354169586939073ffffffffffffffffffffffffffffffffffffffff167fffffffffffffffffffffffff0000000000000000000000000000000000000000825416179055565b8316917f3134e8a2e6d97e929a7e54011ea5485d7d196dd5f0ba4d4ef95803e8e3fc257f600080a4600c602052604060002054915b919073ffffffffffffffffffffffffffffffffffffffff92838216938116908482141580612bde575b612a5f575b5050505050565b81612b0a575b505082612a74575b8080612a58565b7fdec2bacdd2f05b59de34da9b523dff8be42e5e38e818c82fdb0bae774387a72491612acc612ac6612ad29373ffffffffffffffffffffffffffffffffffffffff166000526009602052604060002090565b91614389565b90612be7565b604080517bffffffffffffffffffffffffffffffffffffffffffffffffffffffff9384168152919092166020820152a2388080612a6d565b612b349073ffffffffffffffffffffffffffffffffffffffff166000526009602052604060002090565b612b3d84614389565b612b5665ffffffffffff612b5043614436565b166144cd565b7bffffffffffffffffffffffffffffffffffffffffffffffffffffffff918280612b7f86613663565b1691169003928284116104df577fdec2bacdd2f05b59de34da9b523dff8be42e5e38e818c82fdb0bae774387a72493612bd492612bbb926139f9565b6040805192851683529316602082015291829190820190565b0390a23880612a65565b50831515612a53565b90612bfb65ffffffffffff612b5043614436565b7bffffffffffffffffffffffffffffffffffffffffffffffffffffffff918280612c2486613663565b16911601918211612c3857610465926139f9565b7f4e487b7100000000000000000000000000000000000000000000000000000000600052601160045260246000fd5b15612c6e57565b60646040517f08c379a000000000000000000000000000000000000000000000000000000000815260206004820152601860248201527f4552433732313a20696e76616c696420746f6b656e20494400000000000000006044820152fd5b600052600260205273ffffffffffffffffffffffffffffffffffffffff60406000205416610597811515612c67565b15612d0257565b60846040517f08c379a000000000000000000000000000000000000000000000000000000000815260206004820152603d60248201527f4552433732313a20617070726f76652063616c6c6572206973206e6f7420746f60448201527f6b656e206f776e6572206f7220617070726f76656420666f7220616c6c0000006064820152fd5b612db661257582600052600260205273ffffffffffffffffffffffffffffffffffffffff60406000205416151590565b600052600460205273ffffffffffffffffffffffffffffffffffffffff6040600020541690565b15612de457565b60846040517f08c379a000000000000000000000000000000000000000000000000000000000815260206004820152602d60248201527f4552433732313a2063616c6c6572206973206e6f7420746f6b656e206f776e6560448201527f72206f7220617070726f766564000000000000000000000000000000000000006064820152fd5b91610c959391612e8f93612e7f610b4f8433612f1b565b612e8a838383613041565b61352b565b15612e9657565b6040517f08c379a000000000000000000000000000000000000000000000000000000000815260206004820152603260248201527f4552433732313a207472616e7366657220746f206e6f6e20455243373231526560448201527f63656976657220696d706c656d656e74657200000000000000000000000000006064820152608490fd5b73ffffffffffffffffffffffffffffffffffffffff80612f3a84612ccc565b169281831692848414948515612f70575b50508315612f5a575b50505090565b612f6691929350612d86565b1614388080612f54565b60ff92955090612fac91600052600560205260406000209073ffffffffffffffffffffffffffffffffffffffff16600052602052604060002090565b5416923880612f4b565b15612fbd57565b60846040517f08c379a000000000000000000000000000000000000000000000000000000000815260206004820152602560248201527f4552433732313a207472616e736665722066726f6d20696e636f72726563742060448201527f6f776e65720000000000000000000000000000000000000000000000000000006064820152fd5b90613074929161305083612ccc565b73ffffffffffffffffffffffffffffffffffffffff82811695909182168614612fb6565b82169384156131db57610c959481613099869361309361094986612ccc565b14612fb6565b6130d86130b0846000526004602052604060002090565b7fffffffffffffffffffffffff00000000000000000000000000000000000000008154169055565b6131028473ffffffffffffffffffffffffffffffffffffffff166000526003602052604060002090565b7fffffffffffffffffffffffffffffffffffffffffffffffffffffffffffffffff81540190556131528573ffffffffffffffffffffffffffffffffffffffff166000526003602052604060002090565b600181540190556131b185613171856000526002602052604060002090565b9073ffffffffffffffffffffffffffffffffffffffff167fffffffffffffffffffffffff0000000000000000000000000000000000000000825416179055565b7fddf252ad1be2c89b69c2b068fc378daa952ba7f163c4a11628f55a4df523b3ef600080a4614b70565b60846040517f08c379a0000000000000000000000000000000000000000000000000000000008152602060048201526024808201527f4552433732313a207472616e7366657220746f20746865207a65726f2061646460448201527f72657373000000000000000000000000000000000000000000000000000000006064820152fd5b8160005260046020526132b08160406000209073ffffffffffffffffffffffffffffffffffffffff167fffffffffffffffffffffffff0000000000000000000000000000000000000000825416179055565b73ffffffffffffffffffffffffffffffffffffffff806132cf84612ccc565b169116907f8c5be1e5ebec7d5bd14f71427d1e84f3dd0314c0f7b2291e5b200ac8c7c3b925600080a4565b908160209103126102f65751610597816102cc565b610597939273ffffffffffffffffffffffffffffffffffffffff6080931682526000602083015260408201528160608201520190610543565b9092610597949360809373ffffffffffffffffffffffffffffffffffffffff809216845216602083015260408201528160608201520190610543565b6040513d6000823e3d90fd5b3d156133bb573d906133a182610c97565b916133af6040519384610c47565b82523d6000602084013e565b606090565b909190803b156135235761342060209173ffffffffffffffffffffffffffffffffffffffff9360006040519586809581947f150b7a02000000000000000000000000000000000000000000000000000000009a8b8452336004850161330f565b0393165af1600091816134f3575b506134cd5761343b613390565b805190816134c8576040517f08c379a000000000000000000000000000000000000000000000000000000000815260206004820152603260248201527f4552433732313a207472616e7366657220746f206e6f6e20455243373231526560448201527f63656976657220696d706c656d656e74657200000000000000000000000000006064820152608490fd5b602001fd5b7fffffffff00000000000000000000000000000000000000000000000000000000161490565b61351591925060203d811161351c575b61350d8183610c47565b8101906132fa565b903861342e565b503d613503565b505050600190565b92909190823b1561358c5761342092602092600073ffffffffffffffffffffffffffffffffffffffff6040518097819682957f150b7a02000000000000000000000000000000000000000000000000000000009b8c85523360048601613348565b50505050600190565b907fffffffffffffffffffffffffffffffffffffffffffffffffffffffffffffffff82019182116104df57565b60010190816001116104df57565b90600182018092116104df57565b906127109182018092116104df57565b919082018092116104df57565b600a546000908061360d575050600090565b807fffffffffffffffffffffffffffffffffffffffffffffffffffffffffffffffff8101116104df57600a7fc65a7bb8d6351c1cf70c95a316cc6a92839c986682d98bc35f958f4883f9d2a79252015460201c90565b80546000918161367557505050600090565b7fffffffffffffffffffffffffffffffffffffffffffffffffffffffffffffffff9282848101116104df5760209181522001015460201c90565b7f4e487b7100000000000000000000000000000000000000000000000000000000600052603260045260246000fd5b600a549068010000000000000000821015610bee576001820180600a5582101561376557600a600052805160209182015190911b7fffffffffffffffffffffffffffffffffffffffffffffffffffffffff000000001663ffffffff91909116177fc65a7bb8d6351c1cf70c95a316cc6a92839c986682d98bc35f958f4883f9d2a890910155565b6136af565b90815468010000000000000000811015610bee576001810180845581101561376557600092835260209283902082519284015190931b7fffffffffffffffffffffffffffffffffffffffffffffffffffffffff000000001663ffffffff9290921691909117910155565b906040516040810181811067ffffffffffffffff821117610bee57604052602081935463ffffffff81168352811c910152565b1561380e57565b60646040517f08c379a000000000000000000000000000000000000000000000000000000000815260206004820152601b60248201527f436865636b706f696e743a2064656372656173696e67206b65797300000000006044820152fd5b600a5491929180156139ba5761396b9181856138be6138b961388f602096613595565b600a6000527fc65a7bb8d6351c1cf70c95a316cc6a92839c986682d98bc35f958f4883f9d2a80190565b6137d4565b926138cd845163ffffffff1690565b6138e463ffffffff91828416928391161115613807565b6138fe6138f5865163ffffffff1690565b63ffffffff1690565b0361396f575061391361388f61394893613595565b9063ffffffff7fffffffffffffffffffffffffffffffffffffffffffffffffffffffff0000000083549260201b169116179055565b01517bffffffffffffffffffffffffffffffffffffffffffffffffffffffff1690565b9190565b90506139b5915061398d613981610c88565b63ffffffff9092168252565b7bffffffffffffffffffffffffffffffffffffffffffffffffffffffff8716818501526136de565b613948565b506139f3906139ca613981610c88565b7bffffffffffffffffffffffffffffffffffffffffffffffffffffffff841660208201526136de565b60009190565b90929192838254801515600014613acf57926020929184613a2f6138b9613a2261396b98613595565b8560005260206000200190565b93613a3e855163ffffffff1690565b613a5563ffffffff91828416928391161115613807565b613a666138f5875163ffffffff1690565b03613a89575061394892613a7c61391392613595565b9060005260206000200190565b9150506139b591613aa7613a9b610c88565b63ffffffff9093168352565b7bffffffffffffffffffffffffffffffffffffffffffffffffffffffff88168286015261376a565b50506139f391613ae0613a9b610c88565b7bffffffffffffffffffffffffffffffffffffffffffffffffffffffff8516602083015261376a565b905b828110613b1757505090565b90918082169080831860011c82018092116104df57600a60005263ffffffff80837fc65a7bb8d6351c1cf70c95a316cc6a92839c986682d98bc35f958f4883f9d2a801541690851610600014613b705750915b90613b0b565b929150613b7c906135d0565b90613b6a565b91905b838210613b925750505090565b9091928083169080841860011c82018092116104df5760008581526020902082015463ffffffff9081169084161015613bcf5750925b9190613b85565b939250613bdb906135d0565b91613bc8565b60405190613bee82610bf3565b60208083523683820137565b90613c0482610c97565b613c116040519182610c47565b8281527fffffffffffffffffffffffffffffffffffffffffffffffffffffffffffffffe0613c3f8294610c97565b0190602036910137565b8115613c53570490565b7f4e487b7100000000000000000000000000000000000000000000000000000000600052601260045260246000fd5b916105979391613c9193613e5b565b919091613cd2565b60051115613ca357565b7f4e487b7100000000000000000000000000000000000000000000000000000000600052602160045260246000fd5b613cdb81613c99565b80613ce35750565b613cec81613c99565b60018103613d53576040517f08c379a000000000000000000000000000000000000000000000000000000000815260206004820152601860248201527f45434453413a20696e76616c6964207369676e617475726500000000000000006044820152606490fd5b613d5c81613c99565b60028103613dc3576040517f08c379a000000000000000000000000000000000000000000000000000000000815260206004820152601f60248201527f45434453413a20696e76616c6964207369676e6174757265206c656e677468006044820152606490fd5b80613dcf600392613c99565b14613dd657565b6040517f08c379a000000000000000000000000000000000000000000000000000000000815260206004820152602260248201527f45434453413a20696e76616c6964207369676e6174757265202773272076616c60448201527f75650000000000000000000000000000000000000000000000000000000000006064820152608490fd5b9291907f7fffffffffffffffffffffffffffffff5d576e7357a4501ddfe92f46681b20a08311613ede5791608094939160ff602094604051948552168484015260408301526060820152600093849182805260015afa1561187757815173ffffffffffffffffffffffffffffffffffffffff811615613ed8579190565b50600190565b50505050600090600390565b73ffffffffffffffffffffffffffffffffffffffff7f000000000000000000000000000000000000000000000000000000000000000016301480613fe8575b15613f52577f000000000000000000000000000000000000000000000000000000000000000090565b60405160208101907f8b73c3c69bb8fe3d512ecc4cf759cc79239f7b179b0ffacaa9a75d522b39400f82527f000000000000000000000000000000000000000000000000000000000000000060408201527f000000000000000000000000000000000000000000000000000000000000000060608201524660808201523060a082015260a08152613fe281610c2b565b51902090565b507f00000000000000000000000000000000000000000000000000000000000000004614613f29565b60429061401c613eea565b90604051917f19010000000000000000000000000000000000000000000000000000000000008352600283015260228201522090565b60ff81146140a45760ff811690601f821161407a5761406f613be1565b918252602082015290565b60046040517fb3512b0c000000000000000000000000000000000000000000000000000000008152fd5b506040516006548160006140b783611368565b80835260209360019081811690811561414057506001146140e1575b505061059792500382610c47565b9093915060066000527ff652222313e28459528d920b65115c16c04f3efc82aaedc97be59f3f377c0d3f936000915b818310614128575050610597935082010138806140d3565b85548784018501529485019486945091830191614110565b90506105979593507fffffffffffffffffffffffffffffffffffffffffffffffffffffffffffffff0091501682840152151560051b82010138806140d3565b60ff811461419c5760ff811690601f821161407a5761406f613be1565b506040516007548160006141af83611368565b80835260209360019081811690811561414057506001146141d857505061059792500382610c47565b9093915060076000527fa66cc928b5edb82af9bd49922954155ab7b0942694bea4ce44661d9a8736c688936000915b81831061421f575050610597935082010138806140d3565b85548784018501529485019486945091830191614207565b8015614371578061430a6143036142f96142ef6142e56142db6142d16142c760016105979a6000908b60801c80614365575b508060401c80614358575b508060201c8061434b575b508060101c8061433e575b508060081c80614331575b508060041c80614324575b508060021c80614317575b50821c614310575b811c1b6142c0818b613c49565b0160011c90565b6142c0818a613c49565b6142c08189613c49565b6142c08188613c49565b6142c08187613c49565b6142c08186613c49565b6142c08185613c49565b8092613c49565b90614377565b81016142b3565b60029150910190386142ab565b60049150910190386142a0565b6008915091019038614295565b601091509101903861428a565b602091509101903861427f565b6040915091019038614274565b91505060809038614269565b50600090565b9080821015614384575090565b905090565b7bffffffffffffffffffffffffffffffffffffffffffffffffffffffff908181116143b2571690565b60846040517f08c379a000000000000000000000000000000000000000000000000000000000815260206004820152602760248201527f53616665436173743a2076616c756520646f65736e27742066697420696e203260448201527f32342062697473000000000000000000000000000000000000000000000000006064820152fd5b65ffffffffffff90818111614449571690565b60846040517f08c379a000000000000000000000000000000000000000000000000000000000815260206004820152602660248201527f53616665436173743a2076616c756520646f65736e27742066697420696e203460448201527f38206269747300000000000000000000000000000000000000000000000000006064820152fd5b63ffffffff908181116144de571690565b60846040517f08c379a000000000000000000000000000000000000000000000000000000000815260206004820152602660248201527f53616665436173743a2076616c756520646f65736e27742066697420696e203360448201527f32206269747300000000000000000000000000000000000000000000000000006064820152fd5b73ffffffffffffffffffffffffffffffffffffffff600d541633036116fe57565b601f811161458f575050565b600090601582527f55f448fdea98c4d29eb340757ef0a66cd03dbb9538908a6a81d96026b71ec475906020601f850160051c830194106145ea575b601f0160051c01915b8281106145df57505050565b8181556001016145d3565b90925082906145ca565b7fffffffffffffffffffffffffffffffffffffffffffffffffffffffffffffffff81146104df5760010190565b91908110156137655760051b0190565b3561059781610749565b9060405161464881610c0f565b60009182825273ffffffffffffffffffffffffffffffffffffffff93848116948515614853576146a461469e84600052600260205273ffffffffffffffffffffffffffffffffffffffff60406000205416151590565b156148b1565b6146d461469e84600052600260205273ffffffffffffffffffffffffffffffffffffffff60406000205416151590565b6146fe8273ffffffffffffffffffffffffffffffffffffffff166000526003602052604060002090565b6001815401905561471d82613171856000526002602052604060002090565b8286867fddf252ad1be2c89b69c2b068fc378daa952ba7f163c4a11628f55a4df523b3ef8180a482151580614848575b156148405760ff60015b166147828373ffffffffffffffffffffffffffffffffffffffff16600052600c602052604060002090565b548181018091116104df576147b78473ffffffffffffffffffffffffffffffffffffffff16600052600c602052604060002090565b556147c181614389565b966147d565ffffffffffff612b5043614436565b927bffffffffffffffffffffffffffffffffffffffffffffffffffffffff9889806147fe6135fb565b169116019889116104df576040612e8f9861481f610c959b61483b9761386c565b5050808052600860205282828220541693815220541690612a2a565b6133c0565b60ff85614757565b506103e8831061474d565b60646040517f08c379a000000000000000000000000000000000000000000000000000000000815260206004820152602060248201527f4552433732313a206d696e7420746f20746865207a65726f20616464726573736044820152fd5b156148b857565b60646040517f08c379a000000000000000000000000000000000000000000000000000000000815260206004820152601c60248201527f4552433732313a20746f6b656e20616c7265616479206d696e746564000000006044820152fd5b6002600f5414614927576002600f55565b60046040517f3ee5aeb5000000000000000000000000000000000000000000000000000000008152fd5b9161495a614916565b82600052601460205260406000205490808201918281116104df577f0000000000000000000000000000000000000000000000000000000000000000809311614a12577ffffffffffffffffffffffffffffffffffffffffffffffffffffffffffffffc1885018581116104df578381029381850414901517156104df576149ef82614a0a956149f4846149ef6149f9986135de565b6135ee565b614ad0565b916000526014602052604060002090565b556001600f55565b602483604051907f73a6d13b0000000000000000000000000000000000000000000000000000000082526004820152fd5b6020908260405193849283378101601081520301902090565b601f82602094937fffffffffffffffffffffffffffffffffffffffffffffffffffffffffffffffe0938186528686013760008582860101520116010190565b916020610597938181520191614a5c565b90614ac69060409396959496606084526060840191614a5c565b9460208201520152565b90929160005b818110614ae4575050509050565b614aef818387614621565b3590614afa82610749565b808401918285116104df57614b1792614b129161463b565b6145f4565b614ad6565b614b69907fffffffffffffffffffffffffffffffffffffffffffffffffffffffffffffd8f07f00000000000000000000000000000000000000000000000000000000000000009101613c49565b6103e80190565b918015159081614c54575b5060009015614c4c575060ff60015b169073ffffffffffffffffffffffffffffffffffffffff928381169384614c1c575b610c959450821615614c6057614bec83614be68473ffffffffffffffffffffffffffffffffffffffff16600052600c602052604060002090565b546135ee565b614c168373ffffffffffffffffffffffffffffffffffffffff16600052600c602052604060002090565b55614c60565b84600052600c6020526040600020548481039081116104df57610c9595600052600c602052604060002055614bac565b60ff90614b8a565b6103e891501038614b7b565b73ffffffffffffffffffffffffffffffffffffffff908116929181908415614d18575b16908115614cb1575b610c959360005260086020528060406000205416916000526040600020541690612a2a565b614cba83614389565b93614cce65ffffffffffff612b5043614436565b7bffffffffffffffffffffffffffffffffffffffffffffffffffffffff958680614cf66135fb565b16911690039586116104df57610c9595614d0f9161386c565b50509350614c8c565b9050614d2383614389565b90614d3765ffffffffffff612b5043614436565b7bffffffffffffffffffffffffffffffffffffffffffffffffffffffff928380614d5f6135fb565b169116019283116104df578392614d759161386c565b5050614c8356fea26469706673582212205a774924f2ab3c18c0e77a2bbcfaf89e331b48a1bdeee309bd4dd6ec04169fed64736f6c63430008150033290decd9548b62a8d60345a988386fc84ba6bc95484008f6362f93160ef3e563b10e2d527612073b26eecdfd717e6a320cf44b4afac2b0732d9fcbe2b7fa0cf6",
  "linkReferences": {},
  "deployedLinkReferences": {}
}