{
  "_format": "hh-sol-artifact-1",
  "contractName": "ExecutorAssistant",
  "sourceName": "contracts/misc/ExecutorAssistant.sol",
  "abi": [
    {
      "inputs": [
        {
          "internalType": "contract IPositionRouterState",
          "name": "_positionRouter",
          "type": "address"
        }
      ],
      "stateMutability": "nonpayable",
      "type": "constructor"
    },
    {
      "inputs": [
        {
          "internalType": "uint128",
          "name": "_max",
          "type": "uint128"
        }
      ],
      "name": "calculateNextMulticall",
      "outputs": [
        {
          "internalType": "contract IPool[]",
          "name": "pools",
          "type": "address[]"
        },
        {
          "components": [
            {
              "internalType": "uint128",
              "name": "index",
              "type": "uint128"
            },
            {
              "internalType": "uint128",
              "name": "indexNext",
              "type": "uint128"
            },
            {
              "internalType": "uint128",
              "name": "indexEnd",
              "type": "uint128"
            }
          ],
          "internalType": "struct ExecutorAssistant.IndexPerOperation[7]",
          "name": "indexPerOperations",
          "type": "tuple[7]"
        }
      ],
      "stateMutability": "view",
      "type": "function"
    },
    {
      "inputs": [],
      "name": "positionRouter",
      "outputs": [
        {
          "internalType": "contract IPositionRouterState",
          "name": "",
          "type": "address"
        }
      ],
      "stateMutability": "view",
      "type": "function"
    }
  ],
  "bytecode": "0x60a03461007057601f611d8138819003918201601f19168301916001600160401b038311848410176100755780849260209460405283398101031261007057516001600160a01b038116810361007057608052604051611cf5908161008c823960805181818160c301526114620152f35b600080fd5b634e487b7160e01b600052604160045260246000fdfe60406080815260048036101561001457600080fd5b60009160e0908335821c806361ef161f1461141c5763b6e256d31461003857600080fd5b34611418576020807ffffffffffffffffffffffffffffffffffffffffffffffffffffffffffffffffc360112611414578335946100748661148e565b61007c61162c565b956100a66100a161008c836116b4565b6fffffffffffffffffffffffffffffffff1690565b6116f5565b94829688519473ffffffffffffffffffffffffffffffffffffffff7f000000000000000000000000000000000000000000000000000000000000000016928751967f25d1bcee00000000000000000000000000000000000000000000000000000000885282888581885afa9788156109445787986113f5575b508851977f46b3ef1f00000000000000000000000000000000000000000000000000000000895283898681895afa9889156109445788996113d2575b506101959061017f8584019a8b906fffffffffffffffffffffffffffffffff169052565b6fffffffffffffffffffffffffffffffff168252565b80516fffffffffffffffffffffffffffffffff16976101c761008c82516fffffffffffffffffffffffffffffffff1690565b986fffffffffffffffffffffffffffffffff998a82160361126e575b505050818b015188517f468ebcb000000000000000000000000000000000000000000000000000000000815283818681895afa908115610944578891611251575b508951907f4c3facf3000000000000000000000000000000000000000000000000000000008252848287818a5afa91821561094457899261122e575b5061029a906102848685019384906fffffffffffffffffffffffffffffffff169052565b6fffffffffffffffffffffffffffffffff168352565b81516fffffffffffffffffffffffffffffffff166102cb61008c83516fffffffffffffffffffffffffffffffff1690565b8a8216036110ca575b505050878b015188517f948f9f7500000000000000000000000000000000000000000000000000000000815283818681895afa9081156109445788916110ad575b508951907f8abb40ae000000000000000000000000000000000000000000000000000000008252848287818a5afa91821561094457899261108a575b50610375906102848685019384906fffffffffffffffffffffffffffffffff169052565b81516fffffffffffffffffffffffffffffffff166103a661008c83516fffffffffffffffffffffffffffffffff1690565b8a821603610f24575b50505060608b015188517f753363bc00000000000000000000000000000000000000000000000000000000815283818681895afa908115610944578891610f07575b508951907f5c845f80000000000000000000000000000000000000000000000000000000008252848287818a5afa918215610944578992610ee4575b50610451906102848685019384906fffffffffffffffffffffffffffffffff169052565b81516fffffffffffffffffffffffffffffffff1661048261008c83516fffffffffffffffffffffffffffffffff1690565b8a821603610d61575b50505060808b01519088517f376fa02e00000000000000000000000000000000000000000000000000000000815283818681895afa908115610944578891610d44575b508951907f868e45b7000000000000000000000000000000000000000000000000000000008252848287818a5afa918215610944578992610d21575b506105449061052e8686019384906fffffffffffffffffffffffffffffffff169052565b6fffffffffffffffffffffffffffffffff168452565b82516fffffffffffffffffffffffffffffffff1661057561008c83516fffffffffffffffffffffffffffffffff1690565b8a821603610b8e575b5050505060a08a015187517f5d585edc00000000000000000000000000000000000000000000000000000000815282818581885afa908115610944578791610b71575b508851907fbb11d2d000000000000000000000000000000000000000000000000000000000825283828681895afa918215610944578892610b4e575b50610621906102848585019384906fffffffffffffffffffffffffffffffff169052565b81516fffffffffffffffffffffffffffffffff1661065261008c83516fffffffffffffffffffffffffffffffff1690565b898216036109bd575b50505060c08a01519387517f27d95c5800000000000000000000000000000000000000000000000000000000815282818581885afa9081156109445787916109a0575b508851927fe59e4d7000000000000000000000000000000000000000000000000000000000845280848681895afa938415610944578894610967575b50906106fe6107149288019485906fffffffffffffffffffffffffffffffff169052565b6fffffffffffffffffffffffffffffffff168652565b84516fffffffffffffffffffffffffffffffff1661074561008c84516fffffffffffffffffffffffffffffffff1690565b88821603610772575b8b8a61076e8b61075f8f8451611ca0565b835103835251928392836114ad565b0390f35b6107e19288806107a96107929b9e999c9a9d9b6107b19661008c96611775565b93516fffffffffffffffffffffffffffffffff1690565b169116611cad565b6fffffffffffffffffffffffffffffffff16858801908152965b516fffffffffffffffffffffffffffffffff1690565b6107fe61008c88516fffffffffffffffffffffffffffffffff1690565b89821610156109495784517fdef66c4e00000000000000000000000000000000000000000000000000000000815261014090818180610858868883019190916fffffffffffffffffffffffffffffffff6020820193169052565b0381885afa908115610944576107fe93888d9360019361008c968f92610917575b50506108b561089c825173ffffffffffffffffffffffffffffffffffffffff1690565b73ffffffffffffffffffffffffffffffffffffffff1690565b6108c6575b505001169150506107e1565b01516109109073ffffffffffffffffffffffffffffffffffffffff166108f56108ee8b61187c565b9a8d6118a9565b9073ffffffffffffffffffffffffffffffffffffffff169052565b88386108ba565b6109369250803d1061093d575b61092e81836115a9565b810190611be9565b3880610879565b503d610924565b611769565b50505090925061075f91945061076e9350939238808080808061074e565b8194506109906106fe9161071494933d8811610999575b61098881836115a9565b810190611751565b949192506106da565b503d61097e565b6109b79150833d85116109995761098881836115a9565b3861069e565b61008c6109fc928a809e9996959c9a9d9b6107a9610792896109de97611775565b6fffffffffffffffffffffffffffffffff16878a01908152986107cb565b610a1961008c8a516fffffffffffffffffffffffffffffffff1690565b8b82161015610b3d578651907f26624a4100000000000000000000000000000000000000000000000000000000825261012091828180610a74858a83019190916fffffffffffffffffffffffffffffffff6020820193169052565b03818a5afa928315610944578d938b928b928f92610b10575b5050610ab061089c825173ffffffffffffffffffffffffffffffffffffffff1690565b610ac1575b505050600101166109fc565b92610b03610a1995939a6108f5610af360019561008c98015173ffffffffffffffffffffffffffffffffffffffff1690565b91610afd8161187c565b9d6118a9565b928b9294508a9150610ab5565b610b2f9250803d10610b36575b610b2781836115a9565b810190611b44565b3880610a8d565b503d610b1d565b50909398959794965038808061065b565b610621919250610b6a90853d87116109995761098881836115a9565b91906105fd565b610b889150833d85116109995761098881836115a9565b386105c1565b61008c610bcf928b9f96949c9a9e99959d9b806107a961079289610bb197611775565b6fffffffffffffffffffffffffffffffff16888c019081529a6107cb565b610bec61008c8c516fffffffffffffffffffffffffffffffff1690565b8d82161015610d0d578751907f729e73da0000000000000000000000000000000000000000000000000000000082528a8280610c43848a83019190916fffffffffffffffffffffffffffffffff6020820193169052565b03818a5afa801561094457898f93918f928e8e9492610ce0575b5050610c8061089c825173ffffffffffffffffffffffffffffffffffffffff1690565b610c91575b50505060010116610bcf565b92610cd3610bec95939b6108f5610cc360019561008c98015173ffffffffffffffffffffffffffffffffffffffff1690565b91610ccd8161187c565b9e6118a9565b928c9294508b9150610c85565b610cff9250803d10610d06575b610cf781836115a9565b810190611ab9565b388e610c5d565b503d610ced565b50919a96985093989496503880808061057e565b610544919250610d3d90863d88116109995761098881836115a9565b919061050a565b610d5b9150843d86116109995761098881836115a9565b386104ce565b61008c610da1928b9e999695949c9a9d9b806107a96107928a610d8397611775565b6fffffffffffffffffffffffffffffffff16888b01908152996107cb565b610dbe61008c8b516fffffffffffffffffffffffffffffffff1690565b8c82161015610ed2578751907fc2b37ccb00000000000000000000000000000000000000000000000000000000825260c091828180610e18858b83019190916fffffffffffffffffffffffffffffffff6020820193169052565b03818b5afa928315610944578e938c928f928d9392610ea5575b5050610e5561089c825173ffffffffffffffffffffffffffffffffffffffff1690565b610e66575b50505060010116610da1565b92610e98610dbe95939b6108f5610cc360019561008c98015173ffffffffffffffffffffffffffffffffffffffff1690565b928c9294508b9150610e5a565b610ec49250803d10610ecb575b610ebc81836115a9565b810190611a2d565b3880610e32565b503d610eb2565b5090919499969895975038808061048b565b610451919250610f0090863d88116109995761098881836115a9565b919061042d565b610f1e9150843d86116109995761098881836115a9565b386103f1565b61008c610f46928b9e999695949c9a9d9b806107a96107928a610d8397611775565b610f6361008c8b516fffffffffffffffffffffffffffffffff1690565b8c82161015611078578751907fe97ec8ad00000000000000000000000000000000000000000000000000000000825261010091828180610fbe858b83019190916fffffffffffffffffffffffffffffffff6020820193169052565b03818b5afa928315610944578e938c928f928d939261104b575b5050610ffb61089c825173ffffffffffffffffffffffffffffffffffffffff1690565b61100c575b50505060010116610f46565b9261103e610f6395939b6108f5610cc360019561008c98015173ffffffffffffffffffffffffffffffffffffffff1690565b928c9294508b9150611000565b61106a9250803d10611071575b61106281836115a9565b810190611984565b3880610fd8565b503d611058565b509091949996989597503880806103af565b6103759192506110a690863d88116109995761098881836115a9565b9190610351565b6110c49150843d86116109995761098881836115a9565b38610315565b61008c6110ee928b9f96949d9b8a969d9b9f9a6107a96107928392610bb197611775565b61110b61008c8c516fffffffffffffffffffffffffffffffff1690565b8d8216101561121c578751907f5dfff2340000000000000000000000000000000000000000000000000000000082528a8280611162848a83019190916fffffffffffffffffffffffffffffffff6020820193169052565b03818a5afa801561094457898f93918f928e8e94926111ef575b505061119f61089c825173ffffffffffffffffffffffffffffffffffffffff1690565b6111b0575b505050600101166110ee565b926111e261110b95939b6108f5610cc360019561008c98015173ffffffffffffffffffffffffffffffffffffffff1690565b928c9294508b91506111a4565b61120e9250803d10611215575b61120681836115a9565b8101906118ec565b388e61117c565b503d6111fc565b50919a969850939894963880806102d4565b61029a91925061124a90863d88116109995761098881836115a9565b9190610260565b6112689150843d86116109995761098881836115a9565b38610224565b61008c611292928b9f96949d9b8a969d9b9f9a6107a96107928392610bb197611775565b6112af61008c8c516fffffffffffffffffffffffffffffffff1690565b8d821610156113c0578751907fd3d615bc0000000000000000000000000000000000000000000000000000000082528a8280611306848a83019190916fffffffffffffffffffffffffffffffff6020820193169052565b03818a5afa801561094457898f93918f928e8e9492611393575b505061134361089c825173ffffffffffffffffffffffffffffffffffffffff1690565b611354575b50505060010116611292565b926113866112af95939b6108f5610cc360019561008c98015173ffffffffffffffffffffffffffffffffffffffff1690565b928c9294508b9150611348565b6113b29250803d106113b9575b6113aa81836115a9565b8101906117f0565b388e611320565b503d6113a0565b50919a969850939894963880806101e3565b6101959199506113ee90853d87116109995761098881836115a9565b989061015b565b61140d919850833d85116109995761098881836115a9565b963861011f565b8480fd5b8380fd5b843461148b57807ffffffffffffffffffffffffffffffffffffffffffffffffffffffffffffffffc36011261148b5773ffffffffffffffffffffffffffffffffffffffff7f00000000000000000000000000000000000000000000000000000000000000001660805260206080f35b80fd5b6fffffffffffffffffffffffffffffffff8116036114a857565b600080fd5b9291906102c09081850191855280518092526102e08501602092838093019060005b81811061152d5750505094016000905b600782106114ed5750505050565b82606060019286516fffffffffffffffffffffffffffffffff808251168352808583015116858401526040809201511690820152019401910190926114df565b825173ffffffffffffffffffffffffffffffffffffffff168452859493840193909201916001016114cf565b7f4e487b7100000000000000000000000000000000000000000000000000000000600052604160045260246000fd5b60e0810190811067ffffffffffffffff8211176115a457604052565b611559565b90601f7fffffffffffffffffffffffffffffffffffffffffffffffffffffffffffffffe0910116810190811067ffffffffffffffff8211176115a457604052565b60405190610120820182811067ffffffffffffffff8211176115a457604052565b60405190610140820182811067ffffffffffffffff8211176115a457604052565b60409081519161163b83611588565b600083815b60e0811061164e5750505050565b835190606082019180831067ffffffffffffffff8411176115a4576020928652848152848382015284868201528184015201611640565b7f4e487b7100000000000000000000000000000000000000000000000000000000600052601160045260246000fd5b906fffffffffffffffffffffffffffffffff8092166007029182169182036116d857565b611685565b67ffffffffffffffff81116115a45760051b60200190565b906116ff826116dd565b61170c60405191826115a9565b8281527fffffffffffffffffffffffffffffffffffffffffffffffffffffffffffffffe061173a82946116dd565b0190602036910137565b519061174f8261148e565b565b908160209103126114a857516117668161148e565b90565b6040513d6000823e3d90fd5b9190916fffffffffffffffffffffffffffffffff808094169116019182116116d857565b73ffffffffffffffffffffffffffffffffffffffff8116036114a857565b519061174f82611799565b51906bffffffffffffffffffffffff821682036114a857565b519067ffffffffffffffff821682036114a857565b908160e09103126114a85760c06040519161180a83611588565b805161181581611799565b8352611823602082016117c2565b6020840152604081015161183681611799565b6040840152611847606082016117db565b6060840152608081015161185a8161148e565b608084015260a081015161186d8161148e565b60a0840152015160c082015290565b7fffffffffffffffffffffffffffffffffffffffffffffffffffffffffffffffff81146116d85760010190565b80518210156118bd5760209160051b010190565b7f4e487b7100000000000000000000000000000000000000000000000000000000600052603260045260246000fd5b908160e09103126114a85761196e60c06040519261190984611588565b805161191481611799565b8452611922602082016117c2565b6020850152604081015161193581611799565b6040850152611946606082016117c2565b60608501526080810151608085015260a081015161196381611799565b60a0850152016117db565b60c082015290565b519081600f0b82036114a857565b809161010092839103126114a8576040519182019082821067ffffffffffffffff8311176115a45760e0916040526119bb816117b7565b83526119c9602082016117c2565b60208401526119da604082016117b7565b60408401526119eb606082016117c2565b60608401526119fc60808201611976565b6080840152611a0d60a082016117db565b60a0840152611a1e60c082016117b7565b60c0840152015160e082015290565b908160c09103126114a8576040519060c082019082821067ffffffffffffffff8311176115a45760a0916040528051611a6581611799565b8352611a73602082016117c2565b60208401526040810151611a8681611799565b6040840152611a97606082016117db565b60608401526080810151611aaa8161148e565b6080840152015160a082015290565b908160e09103126114a85760c060405191611ad383611588565b8051611ade81611799565b8352611aec602082016117c2565b60208401526040810151611aff81611799565b6040840152611b10606082016117db565b60608401526080810151611b238161148e565b608084015260a081015161186d81611799565b519060ff821682036114a857565b90816101209103126114a857611b586115ea565b90611b62816117b7565b8252611b70602082016117c2565b6020830152611b81604082016117b7565b6040830152611b9260608201611744565b6060830152611ba360808201611744565b6080830152611bb460a082016117b7565b60a0830152611bc560c082016117db565b60c0830152611bd660e08201611b36565b60e0830152610100809101519082015290565b90816101409103126114a857611bfd61160b565b90611c07816117b7565b8252611c15602082016117c2565b6020830152611c26604082016117b7565b6040830152611c3760608201611744565b6060830152611c4860808201611744565b6080830152611c5960a082016117b7565b60a0830152611c6a60c082016117db565b60c0830152611c7b60e08201611b36565b60e0830152610100611c8e8183016117b7565b90830152610120809101519082015290565b919082039182116116d857565b9080821015611cba575090565b90509056fea2646970667358221220431d60546df7e284ba9f9284af08d12bb7946b6f008d2eaebd9c8bf67a7c1b3164736f6c63430008150033",
  "linkReferences": {},
  "deployedLinkReferences": {}
}