{
  "_format": "hh-sol-artifact-1",
  "contractName": "ERC20Test",
  "sourceName": "contracts/test/ERC20Test.sol",
  "abi": [
    {
      "inputs": [
        {
          "internalType": "string",
          "name": "_name",
          "type": "string"
        },
        {
          "internalType": "string",
          "name": "_symbol",
          "type": "string"
        },
        {
          "internalType": "uint8",
          "name": "_decimals",
          "type": "uint8"
        },
        {
          "internalType": "uint256",
          "name": "_initialSupply",
          "type": "uint256"
        }
      ],
      "stateMutability": "nonpayable",
      "type": "constructor"
    },
    {
      "inputs": [],
      "name": "InvalidShortString",
      "type": "error"
    },
    {
      "inputs": [
        {
          "internalType": "string",
          "name": "str",
          "type": "string"
        }
      ],
      "name": "StringTooLong",
      "type": "error"
    },
    {
      "anonymous": false,
      "inputs": [
        {
          "indexed": true,
          "internalType": "address",
          "name": "owner",
          "type": "address"
        },
        {
          "indexed": true,
          "internalType": "address",
          "name": "spender",
          "type": "address"
        },
        {
          "indexed": false,
          "internalType": "uint256",
          "name": "value",
          "type": "uint256"
        }
      ],
      "name": "Approval",
      "type": "event"
    },
    {
      "anonymous": false,
      "inputs": [
        {
          "indexed": true,
          "internalType": "address",
          "name": "delegator",
          "type": "address"
        },
        {
          "indexed": true,
          "internalType": "address",
          "name": "fromDelegate",
          "type": "address"
        },
        {
          "indexed": true,
          "internalType": "address",
          "name": "toDelegate",
          "type": "address"
        }
      ],
      "name": "DelegateChanged",
      "type": "event"
    },
    {
      "anonymous": false,
      "inputs": [
        {
          "indexed": true,
          "internalType": "address",
          "name": "delegate",
          "type": "address"
        },
        {
          "indexed": false,
          "internalType": "uint256",
          "name": "previousBalance",
          "type": "uint256"
        },
        {
          "indexed": false,
          "internalType": "uint256",
          "name": "newBalance",
          "type": "uint256"
        }
      ],
      "name": "DelegateVotesChanged",
      "type": "event"
    },
    {
      "anonymous": false,
      "inputs": [],
      "name": "EIP712DomainChanged",
      "type": "event"
    },
    {
      "anonymous": false,
      "inputs": [
        {
          "indexed": true,
          "internalType": "address",
          "name": "from",
          "type": "address"
        },
        {
          "indexed": true,
          "internalType": "address",
          "name": "to",
          "type": "address"
        },
        {
          "indexed": false,
          "internalType": "uint256",
          "name": "value",
          "type": "uint256"
        }
      ],
      "name": "Transfer",
      "type": "event"
    },
    {
      "inputs": [],
      "name": "CLOCK_MODE",
      "outputs": [
        {
          "internalType": "string",
          "name": "",
          "type": "string"
        }
      ],
      "stateMutability": "view",
      "type": "function"
    },
    {
      "inputs": [],
      "name": "DOMAIN_SEPARATOR",
      "outputs": [
        {
          "internalType": "bytes32",
          "name": "",
          "type": "bytes32"
        }
      ],
      "stateMutability": "view",
      "type": "function"
    },
    {
      "inputs": [
        {
          "internalType": "address",
          "name": "owner",
          "type": "address"
        },
        {
          "internalType": "address",
          "name": "spender",
          "type": "address"
        }
      ],
      "name": "allowance",
      "outputs": [
        {
          "internalType": "uint256",
          "name": "",
          "type": "uint256"
        }
      ],
      "stateMutability": "view",
      "type": "function"
    },
    {
      "inputs": [
        {
          "internalType": "address",
          "name": "spender",
          "type": "address"
        },
        {
          "internalType": "uint256",
          "name": "amount",
          "type": "uint256"
        }
      ],
      "name": "approve",
      "outputs": [
        {
          "internalType": "bool",
          "name": "",
          "type": "bool"
        }
      ],
      "stateMutability": "nonpayable",
      "type": "function"
    },
    {
      "inputs": [
        {
          "internalType": "address",
          "name": "account",
          "type": "address"
        }
      ],
      "name": "balanceOf",
      "outputs": [
        {
          "internalType": "uint256",
          "name": "",
          "type": "uint256"
        }
      ],
      "stateMutability": "view",
      "type": "function"
    },
    {
      "inputs": [
        {
          "internalType": "address",
          "name": "account",
          "type": "address"
        },
        {
          "internalType": "uint32",
          "name": "pos",
          "type": "uint32"
        }
      ],
      "name": "checkpoints",
      "outputs": [
        {
          "components": [
            {
              "internalType": "uint32",
              "name": "fromBlock",
              "type": "uint32"
            },
            {
              "internalType": "uint224",
              "name": "votes",
              "type": "uint224"
            }
          ],
          "internalType": "struct ERC20Votes.Checkpoint",
          "name": "",
          "type": "tuple"
        }
      ],
      "stateMutability": "view",
      "type": "function"
    },
    {
      "inputs": [],
      "name": "clock",
      "outputs": [
        {
          "internalType": "uint48",
          "name": "",
          "type": "uint48"
        }
      ],
      "stateMutability": "view",
      "type": "function"
    },
    {
      "inputs": [],
      "name": "decimals",
      "outputs": [
        {
          "internalType": "uint8",
          "name": "",
          "type": "uint8"
        }
      ],
      "stateMutability": "view",
      "type": "function"
    },
    {
      "inputs": [
        {
          "internalType": "address",
          "name": "spender",
          "type": "address"
        },
        {
          "internalType": "uint256",
          "name": "subtractedValue",
          "type": "uint256"
        }
      ],
      "name": "decreaseAllowance",
      "outputs": [
        {
          "internalType": "bool",
          "name": "",
          "type": "bool"
        }
      ],
      "stateMutability": "nonpayable",
      "type": "function"
    },
    {
      "inputs": [
        {
          "internalType": "address",
          "name": "delegatee",
          "type": "address"
        }
      ],
      "name": "delegate",
      "outputs": [],
      "stateMutability": "nonpayable",
      "type": "function"
    },
    {
      "inputs": [
        {
          "internalType": "address",
          "name": "delegatee",
          "type": "address"
        },
        {
          "internalType": "uint256",
          "name": "nonce",
          "type": "uint256"
        },
        {
          "internalType": "uint256",
          "name": "expiry",
          "type": "uint256"
        },
        {
          "internalType": "uint8",
          "name": "v",
          "type": "uint8"
        },
        {
          "internalType": "bytes32",
          "name": "r",
          "type": "bytes32"
        },
        {
          "internalType": "bytes32",
          "name": "s",
          "type": "bytes32"
        }
      ],
      "name": "delegateBySig",
      "outputs": [],
      "stateMutability": "nonpayable",
      "type": "function"
    },
    {
      "inputs": [
        {
          "internalType": "address",
          "name": "account",
          "type": "address"
        }
      ],
      "name": "delegates",
      "outputs": [
        {
          "internalType": "address",
          "name": "",
          "type": "address"
        }
      ],
      "stateMutability": "view",
      "type": "function"
    },
    {
      "inputs": [],
      "name": "eip712Domain",
      "outputs": [
        {
          "internalType": "bytes1",
          "name": "fields",
          "type": "bytes1"
        },
        {
          "internalType": "string",
          "name": "name",
          "type": "string"
        },
        {
          "internalType": "string",
          "name": "version",
          "type": "string"
        },
        {
          "internalType": "uint256",
          "name": "chainId",
          "type": "uint256"
        },
        {
          "internalType": "address",
          "name": "verifyingContract",
          "type": "address"
        },
        {
          "internalType": "bytes32",
          "name": "salt",
          "type": "bytes32"
        },
        {
          "internalType": "uint256[]",
          "name": "extensions",
          "type": "uint256[]"
        }
      ],
      "stateMutability": "view",
      "type": "function"
    },
    {
      "inputs": [
        {
          "internalType": "uint256",
          "name": "timepoint",
          "type": "uint256"
        }
      ],
      "name": "getPastTotalSupply",
      "outputs": [
        {
          "internalType": "uint256",
          "name": "",
          "type": "uint256"
        }
      ],
      "stateMutability": "view",
      "type": "function"
    },
    {
      "inputs": [
        {
          "internalType": "address",
          "name": "account",
          "type": "address"
        },
        {
          "internalType": "uint256",
          "name": "timepoint",
          "type": "uint256"
        }
      ],
      "name": "getPastVotes",
      "outputs": [
        {
          "internalType": "uint256",
          "name": "",
          "type": "uint256"
        }
      ],
      "stateMutability": "view",
      "type": "function"
    },
    {
      "inputs": [
        {
          "internalType": "address",
          "name": "account",
          "type": "address"
        }
      ],
      "name": "getVotes",
      "outputs": [
        {
          "internalType": "uint256",
          "name": "",
          "type": "uint256"
        }
      ],
      "stateMutability": "view",
      "type": "function"
    },
    {
      "inputs": [
        {
          "internalType": "address",
          "name": "spender",
          "type": "address"
        },
        {
          "internalType": "uint256",
          "name": "addedValue",
          "type": "uint256"
        }
      ],
      "name": "increaseAllowance",
      "outputs": [
        {
          "internalType": "bool",
          "name": "",
          "type": "bool"
        }
      ],
      "stateMutability": "nonpayable",
      "type": "function"
    },
    {
      "inputs": [
        {
          "internalType": "address",
          "name": "_account",
          "type": "address"
        },
        {
          "internalType": "uint256",
          "name": "_amount",
          "type": "uint256"
        }
      ],
      "name": "mint",
      "outputs": [],
      "stateMutability": "nonpayable",
      "type": "function"
    },
    {
      "inputs": [],
      "name": "name",
      "outputs": [
        {
          "internalType": "string",
          "name": "",
          "type": "string"
        }
      ],
      "stateMutability": "view",
      "type": "function"
    },
    {
      "inputs": [
        {
          "internalType": "address",
          "name": "owner",
          "type": "address"
        }
      ],
      "name": "nonces",
      "outputs": [
        {
          "internalType": "uint256",
          "name": "",
          "type": "uint256"
        }
      ],
      "stateMutability": "view",
      "type": "function"
    },
    {
      "inputs": [
        {
          "internalType": "address",
          "name": "account",
          "type": "address"
        }
      ],
      "name": "numCheckpoints",
      "outputs": [
        {
          "internalType": "uint32",
          "name": "",
          "type": "uint32"
        }
      ],
      "stateMutability": "view",
      "type": "function"
    },
    {
      "inputs": [
        {
          "internalType": "address",
          "name": "owner",
          "type": "address"
        },
        {
          "internalType": "address",
          "name": "spender",
          "type": "address"
        },
        {
          "internalType": "uint256",
          "name": "value",
          "type": "uint256"
        },
        {
          "internalType": "uint256",
          "name": "deadline",
          "type": "uint256"
        },
        {
          "internalType": "uint8",
          "name": "v",
          "type": "uint8"
        },
        {
          "internalType": "bytes32",
          "name": "r",
          "type": "bytes32"
        },
        {
          "internalType": "bytes32",
          "name": "s",
          "type": "bytes32"
        }
      ],
      "name": "permit",
      "outputs": [],
      "stateMutability": "nonpayable",
      "type": "function"
    },
    {
      "inputs": [],
      "name": "symbol",
      "outputs": [
        {
          "internalType": "string",
          "name": "",
          "type": "string"
        }
      ],
      "stateMutability": "view",
      "type": "function"
    },
    {
      "inputs": [],
      "name": "totalSupply",
      "outputs": [
        {
          "internalType": "uint256",
          "name": "",
          "type": "uint256"
        }
      ],
      "stateMutability": "view",
      "type": "function"
    },
    {
      "inputs": [
        {
          "internalType": "address",
          "name": "to",
          "type": "address"
        },
        {
          "internalType": "uint256",
          "name": "amount",
          "type": "uint256"
        }
      ],
      "name": "transfer",
      "outputs": [
        {
          "internalType": "bool",
          "name": "",
          "type": "bool"
        }
      ],
      "stateMutability": "nonpayable",
      "type": "function"
    },
    {
      "inputs": [
        {
          "internalType": "address",
          "name": "from",
          "type": "address"
        },
        {
          "internalType": "address",
          "name": "to",
          "type": "address"
        },
        {
          "internalType": "uint256",
          "name": "amount",
          "type": "uint256"
        }
      ],
      "name": "transferFrom",
      "outputs": [
        {
          "internalType": "bool",
          "name": "",
          "type": "bool"
        }
      ],
      "stateMutability": "nonpayable",
      "type": "function"
    },
    {
      "stateMutability": "payable",
      "type": "receive"
    }
  ],
  "bytecode": "0x6101608060405234620000dc576200410b9081380380926200002182620000f7565b823960808282019212620000dc5780516001600160401b039290838111620000dc57816200005191840162000175565b9261018051908111620000dc576200006a920162000175565b906101a05160ff81168103620000dc576200008a926101c05192620001db565b604051612ff49081620010f78239608051816127f7015260a051816128b2015260c051816127c8015260e051816128460152610100518161286c01526101205181610c8f01526101405181610cb90152f35b600080fd5b634e487b7160e01b600052604160045260246000fd5b601f01601f1916610160908101906001600160401b038211908210176200011d57604052565b620000e1565b604081019081106001600160401b038211176200011d57604052565b604051906200014e8262000123565b565b60005b838110620001645750506000910152565b818101518382015260200162000153565b81601f82011215620000dc5780516001600160401b03928382116200011d5760405193601f8301601f19908116603f01168501908111858210176200011d5760405281845260208284010111620000dc57620001d8916020808501910162000150565b90565b9392919093604051620001ee8162000123565b6001808252603160f81b6020808401918252845190989194926001600160401b0382116200011d576200022e82620002286003546200037b565b620003b8565b8990601f8311600114620002e25750620002cf969594939262000274836200014e9b9c946200027d94600091620002d6575b508160011b916000199060031b1c19161790565b6003556200051c565b620002888262000617565b61012052620002978362000722565b61014052815191012060e052519020610100524660a052620002b86200089c565b6080523060c05260ff1660ff19600c541617600c55565b336200096e565b90508601513862000260565b60036000529190601f198216907fc2575a0e9e593c00f959f8c92f12db2869c3395a3b0502d05e2516446f71f85b9160005b81811062000365575092620002cf9998979695926200014e9c9d9592826200027d96106200034b575b5050811b016003556200051c565b87015160001960f88460031b161c1916905538806200033d565b87830151845592850192918d01918d0162000314565b90600182811c92168015620003ad575b60208310146200039757565b634e487b7160e01b600052602260045260246000fd5b91607f16916200038b565b601f8111620003c5575050565b6000906003825260208220906020601f850160051c8301941062000406575b601f0160051c01915b828110620003fa57505050565b818155600101620003ed565b9092508290620003e4565b601f81116200041e575050565b6000906004825260208220906020601f850160051c830194106200045f575b601f0160051c01915b8281106200045357505050565b81815560010162000446565b90925082906200043d565b601f811162000477575050565b6000906005825260208220906020601f850160051c83019410620004b8575b601f0160051c01915b828110620004ac57505050565b8181556001016200049f565b909250829062000496565b601f8111620004d0575050565b6000906006825260208220906020601f850160051c8301941062000511575b601f0160051c01915b8281106200050557505050565b818155600101620004f8565b9092508290620004ef565b80519091906001600160401b0381116200011d576200054881620005426004546200037b565b62000411565b602080601f83116001146200058f575081906200057e939460009262000583575b50508160011b916000199060031b1c19161790565b600455565b01519050388062000569565b6004600052601f198316949091907f8a35acfbc15ff81a39ae7d344fd709f28e8600b4aa8c65c6b64bfe7fe36bd19b926000905b878210620005fe575050836001959610620005e4575b505050811b01600455565b015160001960f88460031b161c19169055388080620005d9565b80600185968294968601518155019501930190620005c3565b90815160208082106000146200063557505090620001d8906200082d565b6001600160401b0382116200011d576200065c82620006566005546200037b565b6200046a565b80601f831160011462000697575081906200068f9394600092620005835750508160011b916000199060031b1c19161790565b60055560ff90565b6005600052601f198316949091907f036b6384b5eca791c62761152d0c79bb0604c104a5fb6f4eb0703f3154bb3db0926000905b87821062000709575050836001959610620006ef575b505050811b0160055560ff90565b015160001960f88460031b161c19169055388080620006e1565b80600185968294968601518155019501930190620006cb565b90815160208082106000146200074057505090620001d8906200082d565b6001600160401b0382116200011d576200076782620007616006546200037b565b620004c3565b80601f8311600114620007a2575081906200079a9394600092620005835750508160011b916000199060031b1c19161790565b60065560ff90565b6006600052601f198316949091907ff652222313e28459528d920b65115c16c04f3efc82aaedc97be59f3f377c0d3f926000905b87821062000814575050836001959610620007fa575b505050811b0160065560ff90565b015160001960f88460031b161c19169055388080620007ec565b80600185968294968601518155019501930190620007d6565b601f8151116200085b5760208151910151602082106200084b571790565b6000198260200360031b1b161790565b6044604051809263305a27a960e01b8252602060048301526200088e815180928160248601526020868601910162000150565b601f01601f19168101030190fd5b60e051610100516040519060208201927f8b73c3c69bb8fe3d512ecc4cf759cc79239f7b179b0ffacaa9a75d522b39400f8452604083015260608201524660808201523060a082015260a0815260c0810181811060018060401b038211176200011d5760405251902090565b156200091057565b60405162461bcd60e51b815260206004820152603060248201527f4552433230566f7465733a20746f74616c20737570706c79207269736b73206f60448201526f766572666c6f77696e6720766f74657360801b6064820152608490fd5b906001600160a01b038216801562000a185760025482810180911162000a125762000a0e93620009f092620009a38593600255565b6001600160a01b038216600090815260208181526040808320805487019055518581527fddf252ad1be2c89b69c2b068fc378daa952ba7f163c4a11628f55a4df523b3ef9190a362000fcc565b60025462000a08906001600160e01b03101562000908565b62000b7d565b5050565b62000a5d565b60405162461bcd60e51b815260206004820152601f60248201527f45524332303a206d696e7420746f20746865207a65726f2061646472657373006044820152606490fd5b634e487b7160e01b600052601160045260246000fd5b604080519192919081016001600160401b038111828210176200011d57604052602081935463ffffffff81168352811c910152565b600b5490680100000000000000008210156200011d576001820180600b5582101562000b1657600b600052805160209182015190911b63ffffffff191663ffffffff91909116177f0175b7a638427703f0dbe7bb9bbf987a2551717b34e79f33b5b1008d1fa01db990910155565b634e487b7160e01b600052603260045260246000fd5b908154680100000000000000008110156200011d576001810180845581101562000b1657600092835260209283902082519284015190931b63ffffffff191663ffffffff9290921691909117910155565b600b549091811591821562000cc55762000b966200013f565b60008152600060208201525b602081015162000bcf9062000bc7906001600160e01b03165b6001600160e01b031690565b9586620010da565b9315908162000c9e575b501562000c36576200014e9062000c1f62000bf48562000e94565b600b600052917f0175b7a638427703f0dbe7bb9bbf987a2551717b34e79f33b5b1008d1fa01db80190565b9063ffffffff82549181199060201b169116179055565b506200014e62000c5f62000c5962000c4e4362000efe565b65ffffffffffff1690565b62000f66565b62000c9862000c6e8562000e94565b62000c8862000c7c6200013f565b63ffffffff9094168452565b6001600160e01b03166020830152565b62000aa8565b5163ffffffff16905063ffffffff62000cbb62000c4e4362000efe565b9116143862000bd9565b600b60005262000cfd7f0175b7a638427703f0dbe7bb9bbf987a2551717b34e79f33b5b1008d1fa01db8820162000a73565b62000a73565b62000ba2565b90918154918215928360001462000e075762000d1e6200013f565b60008152600060208201525b602081015162000d509062000d48906001600160e01b031662000bbb565b9687620010e8565b9415908162000de0575b501562000d875762000c1f6200014e9262000d758662000e94565b92600019019060005260206000200190565b506200014e9062000da062000c5962000c4e4362000efe565b9062000dda62000db08662000e94565b62000dca62000dbe6200013f565b63ffffffff9095168552565b6001600160e01b03166020840152565b62000b2c565b5163ffffffff16905063ffffffff62000dfd62000c4e4362000efe565b9116143862000d5a565b62000e2162000cf760001983018460005260206000200190565b62000d2a565b90918154918215928360001462000e745762000e426200013f565b60008152600060208201525b602081015162000d509062000e6c906001600160e01b031662000bbb565b9687620010da565b62000e8e62000cf760001983018460005260206000200190565b62000e4e565b6001600160e01b039081811162000ea9571690565b60405162461bcd60e51b815260206004820152602760248201527f53616665436173743a2076616c756520646f65736e27742066697420696e20326044820152663234206269747360c81b6064820152608490fd5b65ffffffffffff9081811162000f12571690565b60405162461bcd60e51b815260206004820152602660248201527f53616665436173743a2076616c756520646f65736e27742066697420696e203460448201526538206269747360d01b6064820152608490fd5b63ffffffff9081811162000f78571690565b60405162461bcd60e51b815260206004820152602660248201527f53616665436173743a2076616c756520646f65736e27742066697420696e203360448201526532206269747360d01b6064820152608490fd5b60096020527fec8156718a8372b1db44bb411437d0870f3e3790d4a08526d024ce1b0b668f6b546001600160a01b039182166000908152604081205483169392909116908184141580620010d0575b62001027575b50505050565b8290826200108f575b5050508162001042575b808062001021565b6001600160a01b0382166000908152600a60205260409020600080516020620040eb83398151915291620010769162000e27565b60408051928352602083019190915290a238806200103a565b600080516020620040eb8339815191529160408285620010b69452600a6020522062000d03565b60408051928352602083019190915290a238818162001030565b508215156200101b565b90810180911162000a125790565b90810390811162000a12579056fe6080604052600436101561001b575b361561001957600080fd5b005b60003560e01c806306fdde03146101bb578063095ea7b3146101b657806318160ddd146101b157806323b872dd146101ac578063313ce567146101a75780633644e515146101a2578063395093511461019d5780633a46b1a81461019857806340c10f19146101935780634bf5d7e91461018e578063587cde1e146101895780635c19a95c146101845780636fcfff451461017f57806370a082311461017a5780637ecebe001461017557806384b0196e146101705780638e539e8c1461016b57806391ddadf41461016657806395d89b41146101615780639ab24eb01461015c578063a457c2d714610157578063a9059cbb14610152578063c3cda5201461014d578063d505accf14610148578063dd62ed3e146101435763f1127ed80361000e57611602565b61156d565b6113ca565b61122b565b6111c7565b6110bc565b611011565b610f4a565b610f00565b610d89565b610c56565b610bf1565b610b8c565b610b19565b610ad9565b610a73565b61098a565b610824565b610677565b6105ed565b6105ac565b61056d565b610423565b6103e7565b610398565b610232565b919082519283825260005b84811061020a5750507fffffffffffffffffffffffffffffffffffffffffffffffffffffffffffffffe0601f8460006020809697860101520116010190565b6020818301810151848301820152016101cb565b90602061022f9281815201906101c0565b90565b3461034d576000807ffffffffffffffffffffffffffffffffffffffffffffffffffffffffffffffffc36011261034a5760405181600354610272816116c4565b90818452602092600191828116908160001461030a57506001146102b1575b6102ad856102a18189038261179f565b6040519182918261021e565b0390f35b929450600383527fc2575a0e9e593c00f959f8c92f12db2869c3395a3b0502d05e2516446f71f85b5b8284106102f757505050816102ad936102a1928201019338610291565b80548585018701529285019281016102da565b7fffffffffffffffffffffffffffffffffffffffffffffffffffffffffffffff001686860152505050151560051b82010191506102a1816102ad38610291565b80fd5b600080fd5b6004359073ffffffffffffffffffffffffffffffffffffffff8216820361034d57565b6024359073ffffffffffffffffffffffffffffffffffffffff8216820361034d57565b3461034d5760407ffffffffffffffffffffffffffffffffffffffffffffffffffffffffffffffffc36011261034d576103dc6103d2610352565b6024359033611abe565b602060405160018152f35b3461034d5760007ffffffffffffffffffffffffffffffffffffffffffffffffffffffffffffffffc36011261034d576020600254604051908152f35b3461034d5760607ffffffffffffffffffffffffffffffffffffffffffffffffffffffffffffffffc36011261034d5761045a610352565b610462610375565b6044359073ffffffffffffffffffffffffffffffffffffffff831660005260016020526104b33360406000209073ffffffffffffffffffffffffffffffffffffffff16600052602052604060002090565b54927fffffffffffffffffffffffffffffffffffffffffffffffffffffffffffffffff84036104f3575b6104e79350611940565b60405160018152602090f35b82841061050f5761050a836104e795033383611abe565b6104dd565b60646040517f08c379a000000000000000000000000000000000000000000000000000000000815260206004820152601d60248201527f45524332303a20696e73756666696369656e7420616c6c6f77616e63650000006044820152fd5b3461034d5760007ffffffffffffffffffffffffffffffffffffffffffffffffffffffffffffffffc36011261034d57602060ff600c5416604051908152f35b3461034d5760007ffffffffffffffffffffffffffffffffffffffffffffffffffffffffffffffffc36011261034d5760206105e56127b1565b604051908152f35b3461034d5760407ffffffffffffffffffffffffffffffffffffffffffffffffffffffffffffffffc36011261034d57610624610352565b33600052600160205261065b8160406000209073ffffffffffffffffffffffffffffffffffffffff16600052602052604060002090565b546024358101809111610672576103dc9133611abe565b6117e0565b3461034d5760407ffffffffffffffffffffffffffffffffffffffffffffffffffffffffffffffffc36011261034d576106ae610352565b73ffffffffffffffffffffffffffffffffffffffff602435916106e265ffffffffffff6106da43612d54565b168410611d58565b16600052600a6020526040600020805491600083600581116107d3575b50905b8382106107825750508161073d575050602060005b7bffffffffffffffffffffffffffffffffffffffffffffffffffffffff60405191168152f35b61077661077d917fffffffffffffffffffffffffffffffffffffffffffffffffffffffffffffffff602094019060005260206000200190565b5460201c90565b610717565b909261078e8185612b40565b908263ffffffff6107b36107a9858860005260206000200190565b5463ffffffff1690565b1611156107c35750925b90610702565b93506107ce9061180f565b6107bd565b806107e36107e992969396612b55565b90611dbd565b908263ffffffff6108046107a9858860005260206000200190565b1611156108145750925b386106ff565b935061081f9061180f565b61080e565b3461034d5760407ffffffffffffffffffffffffffffffffffffffffffffffffffffffffffffffffc36011261034d5761085b610352565b60243573ffffffffffffffffffffffffffffffffffffffff821691821561092c57816108fd91610019946108996108948460025461181d565b600255565b6108c38273ffffffffffffffffffffffffffffffffffffffff166000526000602052604060002090565b8054840190556040518381526000907fddf252ad1be2c89b69c2b068fc378daa952ba7f163c4a11628f55a4df523b3ef90602090a3612e80565b6109277bffffffffffffffffffffffffffffffffffffffffffffffffffffffff6002541115612f19565b6122b4565b60646040517f08c379a000000000000000000000000000000000000000000000000000000000815260206004820152601f60248201527f45524332303a206d696e7420746f20746865207a65726f2061646472657373006044820152fd5b3461034d5760007ffffffffffffffffffffffffffffffffffffffffffffffffffffffffffffffffc36011261034d574365ffffffffffff6109ca43612d54565b1603610a15576102ad6040516109df81611746565b601d81527f6d6f64653d626c6f636b6e756d6265722666726f6d3d64656661756c7400000060208201526040519182918261021e565b60646040517f08c379a000000000000000000000000000000000000000000000000000000000815260206004820152601d60248201527f4552433230566f7465733a2062726f6b656e20636c6f636b206d6f64650000006044820152fd5b3461034d5760207ffffffffffffffffffffffffffffffffffffffffffffffffffffffffffffffffc36011261034d57602073ffffffffffffffffffffffffffffffffffffffff80610ac2610352565b166000526009825260406000205416604051908152f35b3461034d5760207ffffffffffffffffffffffffffffffffffffffffffffffffffffffffffffffffc36011261034d57610019610b13610352565b33611e2f565b3461034d5760207ffffffffffffffffffffffffffffffffffffffffffffffffffffffffffffffffc36011261034d5773ffffffffffffffffffffffffffffffffffffffff610b65610352565b16600052600a6020526020610b7e604060002054612deb565b63ffffffff60405191168152f35b3461034d5760207ffffffffffffffffffffffffffffffffffffffffffffffffffffffffffffffffc36011261034d5773ffffffffffffffffffffffffffffffffffffffff610bd8610352565b1660005260006020526020604060002054604051908152f35b3461034d5760207ffffffffffffffffffffffffffffffffffffffffffffffffffffffffffffffffc36011261034d5773ffffffffffffffffffffffffffffffffffffffff610c3d610352565b1660005260076020526020604060002054604051908152f35b3461034d576000807ffffffffffffffffffffffffffffffffffffffffffffffffffffffffffffffffc36011261034a57610d2d90610cb37f0000000000000000000000000000000000000000000000000000000000000000612919565b90610cdd7f0000000000000000000000000000000000000000000000000000000000000000612a4a565b9060405191610ceb83611767565b818352610d3b6020916040519687967f0f00000000000000000000000000000000000000000000000000000000000000885260e08589015260e08801906101c0565b9086820360408801526101c0565b904660608601523060808601528260a086015284820360c08601528080855193848152019401925b828110610d7257505050500390f35b835185528695509381019392810192600101610d63565b3461034d5760207ffffffffffffffffffffffffffffffffffffffffffffffffffffffffffffffffc36011261034d57600435610dd665ffffffffffff610dce43612d54565b168210611d58565b600b549060008260058111610e99575b50905b828210610e36578280610e03575060405160008152602090f35b600b60005260209061077d907f0175b7a638427703f0dbe7bb9bbf987a2551717b34e79f33b5b1008d1fa01db801610776565b9091610e428184612b40565b600b600052908263ffffffff610e797f0175b7a638427703f0dbe7bb9bbf987a2551717b34e79f33b5b1008d1fa01db985016107a9565b161115610e895750915b90610de9565b9250610e949061180f565b610e83565b806107e3610ea992959395612b55565b600b600052908263ffffffff610ee07f0175b7a638427703f0dbe7bb9bbf987a2551717b34e79f33b5b1008d1fa01db985016107a9565b161115610ef05750915b38610de6565b9250610efb9061180f565b610eea565b3461034d5760007ffffffffffffffffffffffffffffffffffffffffffffffffffffffffffffffffc36011261034d576020610f3a43612d54565b65ffffffffffff60405191168152f35b3461034d576000807ffffffffffffffffffffffffffffffffffffffffffffffffffffffffffffffffc36011261034a5760405181600454610f8a816116c4565b90818452602092600191828116908160001461030a5750600114610fb8576102ad856102a18189038261179f565b929450600483527f8a35acfbc15ff81a39ae7d344fd709f28e8600b4aa8c65c6b64bfe7fe36bd19b5b828410610ffe57505050816102ad936102a1928201019338610291565b8054858501870152928501928101610fe1565b3461034d5760207ffffffffffffffffffffffffffffffffffffffffffffffffffffffffffffffffc36011261034d5773ffffffffffffffffffffffffffffffffffffffff61105d610352565b16600052600a60205260406000208054801560001461108457505060405160008152602090f35b6020917fffffffffffffffffffffffffffffffffffffffffffffffffffffffffffffffff6110b3920190611cef565b5054811c610717565b3461034d5760407ffffffffffffffffffffffffffffffffffffffffffffffffffffffffffffffffc36011261034d576110f3610352565b6024359033600052600160205261112e8160406000209073ffffffffffffffffffffffffffffffffffffffff16600052602052604060002090565b5491808310611143576104e792039033611abe565b60846040517f08c379a000000000000000000000000000000000000000000000000000000000815260206004820152602560248201527f45524332303a2064656372656173656420616c6c6f77616e63652062656c6f7760448201527f207a65726f0000000000000000000000000000000000000000000000000000006064820152fd5b3461034d5760407ffffffffffffffffffffffffffffffffffffffffffffffffffffffffffffffffc36011261034d576103dc611201610352565b6024359033611940565b6064359060ff8216820361034d57565b6084359060ff8216820361034d57565b3461034d5760c07ffffffffffffffffffffffffffffffffffffffffffffffffffffffffffffffffc36011261034d57611262610352565b6044359060243561127161120b565b9280421161136c5761132d611367916100199560405190611315826112e96020820195898b8860609194939273ffffffffffffffffffffffffffffffffffffffff60808301967fe48329057bfd03d55e49b547132e39cffd9c1820ad7b9d4c5307691425d15adf845216602083015260408201520152565b037fffffffffffffffffffffffffffffffffffffffffffffffffffffffffffffffe0810184528361179f565b61132860a43593608435935190206128d8565b61253c565b916113618373ffffffffffffffffffffffffffffffffffffffff166000526007602052604060002090815491600183019055565b14611dca565b611e2f565b60646040517f08c379a000000000000000000000000000000000000000000000000000000000815260206004820152601d60248201527f4552433230566f7465733a207369676e617475726520657870697265640000006044820152fd5b3461034d5760e07ffffffffffffffffffffffffffffffffffffffffffffffffffffffffffffffffc36011261034d57611401610352565b611409610375565b604435906064359261141961121b565b9380421161150f576114ea61150a916112e9610019976114d76114658773ffffffffffffffffffffffffffffffffffffffff166000526007602052604060002090815491600183019055565b9360405193849160208301968c8c8c8a91959493909260a09360c08401977f6e71edae12b1b97f4d1f60370fef10105fa2faae0126114a169c64845d6126c9855273ffffffffffffffffffffffffffffffffffffffff8092166020860152166040840152606083015260808201520152565b61132860c4359360a435935190206128d8565b73ffffffffffffffffffffffffffffffffffffffff808416911614611c7d565b611abe565b60646040517f08c379a000000000000000000000000000000000000000000000000000000000815260206004820152601d60248201527f45524332305065726d69743a206578706972656420646561646c696e650000006044820152fd5b3461034d5760407ffffffffffffffffffffffffffffffffffffffffffffffffffffffffffffffffc36011261034d5760206115f96115a9610352565b73ffffffffffffffffffffffffffffffffffffffff6115c6610375565b91166000526001835260406000209073ffffffffffffffffffffffffffffffffffffffff16600052602052604060002090565b54604051908152f35b3461034d5760407ffffffffffffffffffffffffffffffffffffffffffffffffffffffffffffffffc36011261034d57611639610352565b63ffffffff602435818116810361034d5760206116b26116ac7bffffffffffffffffffffffffffffffffffffffffffffffffffffffff9373ffffffffffffffffffffffffffffffffffffffff6040976000868a5161169681611746565b828152015216600052600a845286600020611cef565b50611d36565b84519381511684520151166020820152f35b90600182811c9216801561170d575b60208310146116de57565b7f4e487b7100000000000000000000000000000000000000000000000000000000600052602260045260246000fd5b91607f16916116d3565b7f4e487b7100000000000000000000000000000000000000000000000000000000600052604160045260246000fd5b6040810190811067ffffffffffffffff82111761176257604052565b611717565b6020810190811067ffffffffffffffff82111761176257604052565b60c0810190811067ffffffffffffffff82111761176257604052565b90601f7fffffffffffffffffffffffffffffffffffffffffffffffffffffffffffffffe0910116810190811067ffffffffffffffff82111761176257604052565b7f4e487b7100000000000000000000000000000000000000000000000000000000600052601160045260246000fd5b906001820180921161067257565b9190820180921161067257565b1561183157565b60846040517f08c379a000000000000000000000000000000000000000000000000000000000815260206004820152602360248201527f45524332303a207472616e7366657220746f20746865207a65726f206164647260448201527f65737300000000000000000000000000000000000000000000000000000000006064820152fd5b156118bc57565b60846040517f08c379a000000000000000000000000000000000000000000000000000000000815260206004820152602660248201527f45524332303a207472616e7366657220616d6f756e742065786365656473206260448201527f616c616e636500000000000000000000000000000000000000000000000000006064820152fd5b919073ffffffffffffffffffffffffffffffffffffffff928381168015611a3a57611a389483169061197382151561182a565b8461199e8473ffffffffffffffffffffffffffffffffffffffff166000526000602052604060002090565b546119ab828210156118b5565b036119d68473ffffffffffffffffffffffffffffffffffffffff166000526000602052604060002090565b55611a018473ffffffffffffffffffffffffffffffffffffffff166000526000602052604060002090565b8054860190556040518581527fddf252ad1be2c89b69c2b068fc378daa952ba7f163c4a11628f55a4df523b3ef90602090a3612ed8565b565b60846040517f08c379a000000000000000000000000000000000000000000000000000000000815260206004820152602560248201527f45524332303a207472616e736665722066726f6d20746865207a65726f20616460448201527f64726573730000000000000000000000000000000000000000000000000000006064820152fd5b9073ffffffffffffffffffffffffffffffffffffffff91828116928315611bfa578216938415611b765780611b607f8c5be1e5ebec7d5bd14f71427d1e84f3dd0314c0f7b2291e5b200ac8c7c3b92594611b3b611b719573ffffffffffffffffffffffffffffffffffffffff166000526001602052604060002090565b9073ffffffffffffffffffffffffffffffffffffffff16600052602052604060002090565b556040519081529081906020820190565b0390a3565b60846040517f08c379a000000000000000000000000000000000000000000000000000000000815260206004820152602260248201527f45524332303a20617070726f766520746f20746865207a65726f20616464726560448201527f73730000000000000000000000000000000000000000000000000000000000006064820152fd5b60846040517f08c379a0000000000000000000000000000000000000000000000000000000008152602060048201526024808201527f45524332303a20617070726f76652066726f6d20746865207a65726f2061646460448201527f72657373000000000000000000000000000000000000000000000000000000006064820152fd5b15611c8457565b60646040517f08c379a000000000000000000000000000000000000000000000000000000000815260206004820152601e60248201527f45524332305065726d69743a20696e76616c6964207369676e617475726500006044820152fd5b60405190611a3882611746565b8054821015611d075760005260206000200190600090565b7f4e487b7100000000000000000000000000000000000000000000000000000000600052603260045260246000fd5b90604051611d4381611746565b602081935463ffffffff81168352811c910152565b15611d5f57565b60646040517f08c379a000000000000000000000000000000000000000000000000000000000815260206004820152601960248201527f4552433230566f7465733a20667574757265206c6f6f6b7570000000000000006044820152fd5b9190820391821161067257565b15611dd157565b60646040517f08c379a000000000000000000000000000000000000000000000000000000000815260206004820152601960248201527f4552433230566f7465733a20696e76616c6964206e6f6e6365000000000000006044820152fd5b611a389173ffffffffffffffffffffffffffffffffffffffff8092166000928184526009602052806040852054168092856020527f3134e8a2e6d97e929a7e54011ea5485d7d196dd5f0ba4d4ef95803e8e3fc257f60408720549660096020526040812094871694857fffffffffffffffffffffffff000000000000000000000000000000000000000082541617905580a45b919073ffffffffffffffffffffffffffffffffffffffff80821693168381141580612191575b611ef3575b50505050565b80611f73575b5082611f06575b80611eed565b7fdec2bacdd2f05b59de34da9b523dff8be42e5e38e818c82fdb0bae774387a72491611f55611f5a9273ffffffffffffffffffffffffffffffffffffffff16600052600a602052604060002090565b612430565b60408051928352602083019190915290a2388080611f00565b80600052600a6020527fdec2bacdd2f05b59de34da9b523dff8be42e5e38e818c82fdb0bae774387a724604060002080548015918260001461215057611fb7611ce2565b6000815260006020820152915b612011611ff060208501517bffffffffffffffffffffffffffffffffffffffffffffffffffffffff1690565b7bffffffffffffffffffffffffffffffffffffffffffffffffffffffff1690565b9261201c8985612fa4565b9415908161212d575b50156120b65761206b6120a0927fffffffffffffffffffffffffffffffffffffffffffffffffffffffffffffffff61205c87612ca7565b93019060005260206000200190565b9063ffffffff7fffffffffffffffffffffffffffffffffffffffffffffffffffffffff0000000083549260201b169116179055565b604080519182526020820192909252a238611ef9565b50612128906120da6120d56120ca43612d54565b65ffffffffffff1690565b612deb565b906121236120e786612ca7565b6120fe6120f2611ce2565b63ffffffff9095168552565b7bffffffffffffffffffffffffffffffffffffffffffffffffffffffff166020840152565b612221565b6120a0565b5163ffffffff16905063ffffffff6121476120ca43612d54565b91161438612025565b61218b6121867fffffffffffffffffffffffffffffffffffffffffffffffffffffffffffffffff84018360005260206000200190565b611d36565b91611fc4565b50821515611ee8565b600b549068010000000000000000821015611762576001820180600b55821015611d0757600b600052805160209182015190911b7fffffffffffffffffffffffffffffffffffffffffffffffffffffffff000000001663ffffffff91909116177f0175b7a638427703f0dbe7bb9bbf987a2551717b34e79f33b5b1008d1fa01db990910155565b8054680100000000000000008110156117625761224391600182018155611cef565b61228557815160209283015190921b7fffffffffffffffffffffffffffffffffffffffffffffffffffffffff000000001663ffffffff92909216919091179055565b7f4e487b7100000000000000000000000000000000000000000000000000000000600052600060045260246000fd5b600b54909181159182156123fb576122ca611ce2565b60008152600060208201525b61230c612305611ff060208401517bffffffffffffffffffffffffffffffffffffffffffffffffffffffff1690565b9586612fb1565b931590816123d8575b501561237857611a389061206b7fffffffffffffffffffffffffffffffffffffffffffffffffffffffffffffffff61234c86612ca7565b9201600b6000527f0175b7a638427703f0dbe7bb9bbf987a2551717b34e79f33b5b1008d1fa01db90190565b50611a3861238b6120d56120ca43612d54565b6123d361239785612ca7565b6123ae6123a2611ce2565b63ffffffff9094168452565b7bffffffffffffffffffffffffffffffffffffffffffffffffffffffff166020830152565b61219a565b5163ffffffff16905063ffffffff6123f26120ca43612d54565b91161438612315565b600b60005261242b7f0175b7a638427703f0dbe7bb9bbf987a2551717b34e79f33b5b1008d1fa01db88201611d36565b6122d6565b90918154918215928360001461250157612448611ce2565b60008152600060208201525b61248a612483611ff060208401517bffffffffffffffffffffffffffffffffffffffffffffffffffffffff1690565b9687612fb1565b941590816124de575b50156124ca5761206b611a38927fffffffffffffffffffffffffffffffffffffffffffffffffffffffffffffffff61205c87612ca7565b50611a38906120da6120d56120ca43612d54565b5163ffffffff16905063ffffffff6124f86120ca43612d54565b91161438612493565b6125376121867fffffffffffffffffffffffffffffffffffffffffffffffffffffffffffffffff83018460005260206000200190565b612454565b9161022f939161254b93612715565b91909161258c565b6005111561255d57565b7f4e487b7100000000000000000000000000000000000000000000000000000000600052602160045260246000fd5b61259581612553565b8061259d5750565b6125a681612553565b6001810361260d576040517f08c379a000000000000000000000000000000000000000000000000000000000815260206004820152601860248201527f45434453413a20696e76616c6964207369676e617475726500000000000000006044820152606490fd5b61261681612553565b6002810361267d576040517f08c379a000000000000000000000000000000000000000000000000000000000815260206004820152601f60248201527f45434453413a20696e76616c6964207369676e6174757265206c656e677468006044820152606490fd5b80612689600392612553565b1461269057565b6040517f08c379a000000000000000000000000000000000000000000000000000000000815260206004820152602260248201527f45434453413a20696e76616c6964207369676e6174757265202773272076616c60448201527f75650000000000000000000000000000000000000000000000000000000000006064820152608490fd5b9291907f7fffffffffffffffffffffffffffffff5d576e7357a4501ddfe92f46681b20a083116127a55791608094939160ff602094604051948552168484015260408301526060820152600093849182805260015afa1561279857815173ffffffffffffffffffffffffffffffffffffffff811615612792579190565b50600190565b50604051903d90823e3d90fd5b50505050600090600390565b73ffffffffffffffffffffffffffffffffffffffff7f0000000000000000000000000000000000000000000000000000000000000000163014806128af575b15612819577f000000000000000000000000000000000000000000000000000000000000000090565b60405160208101907f8b73c3c69bb8fe3d512ecc4cf759cc79239f7b179b0ffacaa9a75d522b39400f82527f000000000000000000000000000000000000000000000000000000000000000060408201527f000000000000000000000000000000000000000000000000000000000000000060608201524660808201523060a082015260a081526128a981611783565b51902090565b507f000000000000000000000000000000000000000000000000000000000000000046146127f0565b6042906128e36127b1565b90604051917f19010000000000000000000000000000000000000000000000000000000000008352600283015260228201522090565b60ff811461296f5760ff811690601f8211612945576040519161293b83611746565b8252602082015290565b60046040517fb3512b0c000000000000000000000000000000000000000000000000000000008152fd5b50604051600554816000612982836116c4565b808352602093600190818116908115612a0b57506001146129ac575b505061022f9250038261179f565b9093915060056000527f036b6384b5eca791c62761152d0c79bb0604c104a5fb6f4eb0703f3154bb3db0936000915b8183106129f357505061022f9350820101388061299e565b855487840185015294850194869450918301916129db565b905061022f9593507fffffffffffffffffffffffffffffffffffffffffffffffffffffffffffffff0091501682840152151560051b820101388061299e565b60ff8114612a6c5760ff811690601f8211612945576040519161293b83611746565b50604051600654816000612a7f836116c4565b808352602093600190818116908115612a0b5750600114612aa857505061022f9250038261179f565b9093915060066000527ff652222313e28459528d920b65115c16c04f3efc82aaedc97be59f3f377c0d3f936000915b818310612aef57505061022f9350820101388061299e565b85548784018501529485019486945091830191612ad7565b8115612b11570490565b7f4e487b7100000000000000000000000000000000000000000000000000000000600052601260045260246000fd5b90808216911860011c81018091116106725790565b8015612c8f5780612c28612c21612c17612c0d612c03612bf9612bef612be5600161022f9a6000908b60801c80612c83575b508060401c80612c76575b508060201c80612c69575b508060101c80612c5c575b508060081c80612c4f575b508060041c80612c42575b508060021c80612c35575b50821c612c2e575b811c1b612bde818b612b07565b0160011c90565b612bde818a612b07565b612bde8189612b07565b612bde8188612b07565b612bde8187612b07565b612bde8186612b07565b612bde8185612b07565b8092612b07565b90612c95565b8101612bd1565b6002915091019038612bc9565b6004915091019038612bbe565b6008915091019038612bb3565b6010915091019038612ba8565b6020915091019038612b9d565b6040915091019038612b92565b91505060809038612b87565b50600090565b9080821015612ca2575090565b905090565b7bffffffffffffffffffffffffffffffffffffffffffffffffffffffff90818111612cd0571690565b60846040517f08c379a000000000000000000000000000000000000000000000000000000000815260206004820152602760248201527f53616665436173743a2076616c756520646f65736e27742066697420696e203260448201527f32342062697473000000000000000000000000000000000000000000000000006064820152fd5b65ffffffffffff90818111612d67571690565b60846040517f08c379a000000000000000000000000000000000000000000000000000000000815260206004820152602660248201527f53616665436173743a2076616c756520646f65736e27742066697420696e203460448201527f38206269747300000000000000000000000000000000000000000000000000006064820152fd5b63ffffffff90818111612dfc571690565b60846040517f08c379a000000000000000000000000000000000000000000000000000000000815260206004820152602660248201527f53616665436173743a2076616c756520646f65736e27742066697420696e203360448201527f32206269747300000000000000000000000000000000000000000000000000006064820152fd5b60096020527fec8156718a8372b1db44bb411437d0870f3e3790d4a08526d024ce1b0b668f6b5473ffffffffffffffffffffffffffffffffffffffff91821660009081526040902054611a3893929081169116611ec2565b90611a38929173ffffffffffffffffffffffffffffffffffffffff809116600052600960205280806040600020541692166000526040600020541690611ec2565b15612f2057565b60846040517f08c379a000000000000000000000000000000000000000000000000000000000815260206004820152603060248201527f4552433230566f7465733a20746f74616c20737570706c79207269736b73206f60448201527f766572666c6f77696e6720766f746573000000000000000000000000000000006064820152fd5b9081039081116106725790565b908101809111610672579056fea26469706673582212208f82e90c99f374afb7fbfb974d3d1e8b6789615727103574429cdd1e2589951164736f6c63430008150033dec2bacdd2f05b59de34da9b523dff8be42e5e38e818c82fdb0bae774387a724",
  "linkReferences": {},
  "deployedLinkReferences": {}
}