{
  "_format": "hh-sol-artifact-1",
  "contractName": "OrderBookAssistant",
  "sourceName": "contracts/plugins/OrderBookAssistant.sol",
  "abi": [
    {
      "inputs": [
        {
          "internalType": "contract OrderBook",
          "name": "_orderBook",
          "type": "address"
        }
      ],
      "stateMutability": "nonpayable",
      "type": "constructor"
    },
    {
      "inputs": [],
      "name": "Forbidden",
      "type": "error"
    },
    {
      "inputs": [
        {
          "internalType": "uint256[]",
          "name": "_orderIndexes",
          "type": "uint256[]"
        }
      ],
      "name": "cancelDecreaseOrderBatch",
      "outputs": [],
      "stateMutability": "nonpayable",
      "type": "function"
    },
    {
      "inputs": [
        {
          "internalType": "uint256[]",
          "name": "_orderIndexes",
          "type": "uint256[]"
        }
      ],
      "name": "cancelIncreaseOrderBatch",
      "outputs": [],
      "stateMutability": "nonpayable",
      "type": "function"
    },
    {
      "inputs": [
        {
          "internalType": "bytes[]",
          "name": "data",
          "type": "bytes[]"
        }
      ],
      "name": "multicall",
      "outputs": [
        {
          "internalType": "bytes[]",
          "name": "results",
          "type": "bytes[]"
        }
      ],
      "stateMutability": "nonpayable",
      "type": "function"
    },
    {
      "inputs": [],
      "name": "orderBook",
      "outputs": [
        {
          "internalType": "contract OrderBook",
          "name": "",
          "type": "address"
        }
      ],
      "stateMutability": "view",
      "type": "function"
    }
  ],
  "bytecode": "0x60a03461007757601f610ba838819003918201601f19168301916001600160401b0383118484101761007c5780849260209460405283398101031261007757516001600160a01b038116810361007757608052604051610b159081610093823960805181818160be0152818161030d01526107e50152f35b600080fd5b634e487b7160e01b600052604160045260246000fdfe608060409080825260048036101561001657600080fd5b60009260e0928435841c908163776af5ba1461079b57508063ac9650d814610482578063b9fe4a1f146102a05763e287c55b1461005257600080fd5b3461029c57602091827ffffffffffffffffffffffffffffffffffffffffffffffffffffffffffffffffc36011261029857803567ffffffffffffffff8111610294576100a19036908301610809565b9490869173ffffffffffffffffffffffffffffffffffffffff91827f000000000000000000000000000000000000000000000000000000000000000016935b8881106100eb578980f35b8060051b82013587517fe9a6783c00000000000000000000000000000000000000000000000000000000815281888201526101409081816024818b5afa918d8315610289579088939291926101e6575b50501633036101be578a863b156101bb5788517f8ec4ad8b00000000000000000000000000000000000000000000000000000000815288810192835233602084015291829081906040010381838a5af180156101b15790600192916101a2575b50016100e0565b6101ab9061089d565b3861019b565b88513d8d823e3d90fd5b80fd5b8688517fee90c468000000000000000000000000000000000000000000000000000000008152fd5b8193508092503d8311610282575b6101fe81836108e0565b8101031261027e57896102766101008361022361021b8b96610a86565b948201610a86565b5061022f8d8201610aa7565b5061023c60608201610ab5565b5061024960808201610ab5565b5061025660a08201610a86565b5061026360c08201610ad2565b5061026f898201610a86565b5001610a86565b50388061013b565b8b80fd5b503d6101f4565b8b51903d90823e3d90fd5b8580fd5b8480fd5b8380fd5b503461029c57602091827ffffffffffffffffffffffffffffffffffffffffffffffffffffffffffffffffc36011261029857803567ffffffffffffffff8111610294576102f09036908301610809565b9490869173ffffffffffffffffffffffffffffffffffffffff91827f000000000000000000000000000000000000000000000000000000000000000016935b88811061033a578980f35b8060051b82013587517fb65202bc00000000000000000000000000000000000000000000000000000000815281888201526101209081816024818b5afa918d831561028957908893929192610400575b50501633036101be578a863b156101bb5788517f7bae8c5a00000000000000000000000000000000000000000000000000000000815288810192835233602084015291829081906040010381838a5af180156101b15790600192916103f1575b500161032f565b6103fa9061089d565b386103ea565b8193508092503d831161047b575b61041881836108e0565b8101031261027e5789610473868361043361021b8b96610a86565b5061043f8d8201610aa7565b5061044c60608201610ab5565b5061045960808201610ab5565b5061046660a08201610a86565b5061026f60c08201610ad2565b50388061038a565b503d61040e565b5083823461079757602091827ffffffffffffffffffffffffffffffffffffffffffffffffffffffffffffffffc3601126101bb5767ffffffffffffffff918035838111610793576104d69036908301610809565b9190936104e283610921565b946104ef885196876108e0565b8386527fffffffffffffffffffffffffffffffffffffffffffffffffffffffffffffffe061051c85610921565b0187865b82811061078357505050845b8481106105af57505050505083519280840190808552835180925280868601968360051b870101940192955b8287106105655785850386f35b90919293828061059f837fffffffffffffffffffffffffffffffffffffffffffffffffffffffffffffffc08a60019603018652885161083f565b9601920196019592919092610558565b8060051b8201357fffffffffffffffffffffffffffffffffffffffffffffffffffffffffffffffe18336030181121561077f578201803584811161077b578982019080360382136107775761060381610939565b916106108d5193846108e0565b8183528b8301938c83369201011161077357818a928d928637830101528a519160609182840184811088821117610747578a8e936106cf9695938f7f416464726573733a206c6f772d6c6576656c2064656c65676174652063616c6c9084958852602789528801527f206661696c656400000000000000000000000000000000000000000000000000868801525190305af4903d1561074057503d6106c06106b782610939565b935193846108e0565b82523d8a8d84013e5b306109b6565b6106d98289610973565b526106e48188610973565b507fffffffffffffffffffffffffffffffffffffffffffffffffffffffffffffffff81146107145760010161052c565b6024866011867f4e487b7100000000000000000000000000000000000000000000000000000000835252fd5b91506106c9565b60248b60418b7f4e487b7100000000000000000000000000000000000000000000000000000000835252fd5b8980fd5b8880fd5b8780fd5b8680fd5b606082828b010152018890610520565b8280fd5b5080fd5b85903461079757817ffffffffffffffffffffffffffffffffffffffffffffffffffffffffffffffffc3601126107975760209073ffffffffffffffffffffffffffffffffffffffff7f0000000000000000000000000000000000000000000000000000000000000000168152f35b9181601f8401121561083a5782359167ffffffffffffffff831161083a576020808501948460051b01011161083a57565b600080fd5b919082519283825260005b8481106108895750507fffffffffffffffffffffffffffffffffffffffffffffffffffffffffffffffe0601f8460006020809697860101520116010190565b60208183018101518483018201520161084a565b67ffffffffffffffff81116108b157604052565b7f4e487b7100000000000000000000000000000000000000000000000000000000600052604160045260246000fd5b90601f7fffffffffffffffffffffffffffffffffffffffffffffffffffffffffffffffe0910116810190811067ffffffffffffffff8211176108b157604052565b67ffffffffffffffff81116108b15760051b60200190565b67ffffffffffffffff81116108b157601f017fffffffffffffffffffffffffffffffffffffffffffffffffffffffffffffffe01660200190565b80518210156109875760209160051b010190565b7f4e487b7100000000000000000000000000000000000000000000000000000000600052603260045260246000fd5b91929015610a3157508151156109ca575090565b3b156109d35790565b60646040517f08c379a000000000000000000000000000000000000000000000000000000000815260206004820152601d60248201527f416464726573733a2063616c6c20746f206e6f6e2d636f6e74726163740000006044820152fd5b825190915015610a445750805190602001fd5b610a82906040519182917f08c379a000000000000000000000000000000000000000000000000000000000835260206004840152602483019061083f565b0390fd5b519073ffffffffffffffffffffffffffffffffffffffff8216820361083a57565b519060ff8216820361083a57565b51906fffffffffffffffffffffffffffffffff8216820361083a57565b5190811515820361083a5756fea264697066735822122034db08d26e9a7d3611739da3085f2d0f57beb0845ae1d0d1ef7da2b3163d894664736f6c63430008150033",
  "linkReferences": {},
  "deployedLinkReferences": {}
}