{"contracts/plugins/PositionRouter.sol":{"PositionRouter":{"abi":[{"inputs":[{"internalType":"contract IERC20","name":"_usd","type":"address"},{"internalType":"contract Router","name":"_router","type":"address"},{"internalType":"uint256","name":"_minExecutionFee","type":"uint256"}],"stateMutability":"nonpayable","type":"constructor"},{"inputs":[{"internalType":"uint256","name":"expiredAt","type":"uint256"}],"name":"Expired","type":"error"},{"inputs":[],"name":"Forbidden","type":"error"},{"inputs":[{"internalType":"uint256","name":"available","type":"uint256"},{"internalType":"uint256","name":"required","type":"uint256"}],"name":"InsufficientExecutionFee","type":"error"},{"inputs":[{"internalType":"Side","name":"side","type":"uint8"}],"name":"InvalidSide","type":"error"},{"inputs":[{"internalType":"uint160","name":"tradePriceX96","type":"uint160"},{"internalType":"uint160","name":"acceptableTradePriceX96","type":"uint160"}],"name":"InvalidTradePrice","type":"error"},{"inputs":[],"name":"ReentrancyGuardReentrantCall","type":"error"},{"inputs":[{"internalType":"uint8","name":"bits","type":"uint8"},{"internalType":"uint256","name":"value","type":"uint256"}],"name":"SafeCastOverflowedUintDowncast","type":"error"},{"inputs":[{"internalType":"address","name":"token","type":"address"}],"name":"SafeERC20FailedOperation","type":"error"},{"inputs":[{"internalType":"uint256","name":"earliest","type":"uint256"}],"name":"TooEarly","type":"error"},{"anonymous":false,"inputs":[{"indexed":true,"internalType":"uint128","name":"index","type":"uint128"},{"indexed":false,"internalType":"address payable","name":"executionFeeReceiver","type":"address"}],"name":"AdjustLiquidityPositionMarginCancelled","type":"event"},{"anonymous":false,"inputs":[{"indexed":true,"internalType":"address","name":"account","type":"address"},{"indexed":true,"internalType":"contract IPool","name":"pool","type":"address"},{"indexed":false,"internalType":"uint96","name":"positionID","type":"uint96"},{"indexed":false,"internalType":"int128","name":"marginDelta","type":"int128"},{"indexed":false,"internalType":"address","name":"receiver","type":"address"},{"indexed":false,"internalType":"uint256","name":"executionFee","type":"uint256"},{"indexed":true,"internalType":"uint128","name":"index","type":"uint128"}],"name":"AdjustLiquidityPositionMarginCreated","type":"event"},{"anonymous":false,"inputs":[{"indexed":true,"internalType":"uint128","name":"index","type":"uint128"},{"indexed":false,"internalType":"address payable","name":"executionFeeReceiver","type":"address"}],"name":"AdjustLiquidityPositionMarginExecuted","type":"event"},{"anonymous":false,"inputs":[{"indexed":true,"internalType":"address","name":"previousGov","type":"address"},{"indexed":true,"internalType":"address","name":"newGov","type":"address"}],"name":"ChangeGovStarted","type":"event"},{"anonymous":false,"inputs":[{"indexed":true,"internalType":"uint128","name":"index","type":"uint128"},{"indexed":false,"internalType":"address payable","name":"executionFeeReceiver","type":"address"}],"name":"CloseLiquidityPositionCancelled","type":"event"},{"anonymous":false,"inputs":[{"indexed":true,"internalType":"address","name":"account","type":"address"},{"indexed":true,"internalType":"contract IPool","name":"pool","type":"address"},{"indexed":false,"internalType":"uint96","name":"positionID","type":"uint96"},{"indexed":false,"internalType":"address","name":"receiver","type":"address"},{"indexed":false,"internalType":"uint256","name":"executionFee","type":"uint256"},{"indexed":true,"internalType":"uint128","name":"index","type":"uint128"}],"name":"CloseLiquidityPositionCreated","type":"event"},{"anonymous":false,"inputs":[{"indexed":true,"internalType":"uint128","name":"index","type":"uint128"},{"indexed":false,"internalType":"address payable","name":"executionFeeReceiver","type":"address"}],"name":"CloseLiquidityPositionExecuted","type":"event"},{"anonymous":false,"inputs":[{"indexed":true,"internalType":"uint128","name":"index","type":"uint128"},{"indexed":false,"internalType":"address payable","name":"executionFeeReceiver","type":"address"}],"name":"DecreasePositionCancelled","type":"event"},{"anonymous":false,"inputs":[{"indexed":true,"internalType":"address","name":"account","type":"address"},{"indexed":true,"internalType":"contract IPool","name":"pool","type":"address"},{"indexed":false,"internalType":"Side","name":"side","type":"uint8"},{"indexed":false,"internalType":"uint128","name":"marginDelta","type":"uint128"},{"indexed":false,"internalType":"uint128","name":"sizeDelta","type":"uint128"},{"indexed":false,"internalType":"uint160","name":"acceptableTradePriceX96","type":"uint160"},{"indexed":false,"internalType":"address","name":"receiver","type":"address"},{"indexed":false,"internalType":"uint256","name":"executionFee","type":"uint256"},{"indexed":true,"internalType":"uint128","name":"index","type":"uint128"}],"name":"DecreasePositionCreated","type":"event"},{"anonymous":false,"inputs":[{"indexed":true,"internalType":"uint128","name":"index","type":"uint128"},{"indexed":false,"internalType":"address payable","name":"executionFeeReceiver","type":"address"}],"name":"DecreasePositionExecuted","type":"event"},{"anonymous":false,"inputs":[{"indexed":true,"internalType":"uint128","name":"index","type":"uint128"},{"indexed":false,"internalType":"address payable","name":"executionFeeReceiver","type":"address"}],"name":"DecreaseRiskBufferFundPositionCancelled","type":"event"},{"anonymous":false,"inputs":[{"indexed":true,"internalType":"address","name":"account","type":"address"},{"indexed":true,"internalType":"contract IPool","name":"pool","type":"address"},{"indexed":false,"internalType":"uint128","name":"liquidityDelta","type":"uint128"},{"indexed":false,"internalType":"address","name":"receiver","type":"address"},{"indexed":false,"internalType":"uint256","name":"executionFee","type":"uint256"},{"indexed":true,"internalType":"uint128","name":"index","type":"uint128"}],"name":"DecreaseRiskBufferFundPositionCreated","type":"event"},{"anonymous":false,"inputs":[{"indexed":true,"internalType":"uint128","name":"index","type":"uint128"},{"indexed":false,"internalType":"address payable","name":"executionFeeReceiver","type":"address"}],"name":"DecreaseRiskBufferFundPositionExecuted","type":"event"},{"anonymous":false,"inputs":[{"indexed":false,"internalType":"uint32","name":"minBlockDelayExecutor","type":"uint32"},{"indexed":false,"internalType":"uint32","name":"minTimeDelayPublic","type":"uint32"},{"indexed":false,"internalType":"uint32","name":"maxTimeDelay","type":"uint32"}],"name":"DelayValuesUpdated","type":"event"},{"anonymous":false,"inputs":[{"indexed":true,"internalType":"address","name":"previousGov","type":"address"},{"indexed":true,"internalType":"address","name":"newGov","type":"address"}],"name":"GovChanged","type":"event"},{"anonymous":false,"inputs":[{"indexed":true,"internalType":"uint128","name":"index","type":"uint128"},{"indexed":false,"internalType":"address payable","name":"executionFeeReceiver","type":"address"}],"name":"IncreasePositionCancelled","type":"event"},{"anonymous":false,"inputs":[{"indexed":true,"internalType":"address","name":"account","type":"address"},{"indexed":true,"internalType":"contract IPool","name":"pool","type":"address"},{"indexed":false,"internalType":"Side","name":"side","type":"uint8"},{"indexed":false,"internalType":"uint128","name":"marginDelta","type":"uint128"},{"indexed":false,"internalType":"uint128","name":"sizeDelta","type":"uint128"},{"indexed":false,"internalType":"uint160","name":"acceptableTradePriceX96","type":"uint160"},{"indexed":false,"internalType":"uint256","name":"executionFee","type":"uint256"},{"indexed":true,"internalType":"uint128","name":"index","type":"uint128"}],"name":"IncreasePositionCreated","type":"event"},{"anonymous":false,"inputs":[{"indexed":true,"internalType":"uint128","name":"index","type":"uint128"},{"indexed":false,"internalType":"address payable","name":"executionFeeReceiver","type":"address"}],"name":"IncreasePositionExecuted","type":"event"},{"anonymous":false,"inputs":[{"indexed":true,"internalType":"uint128","name":"index","type":"uint128"},{"indexed":false,"internalType":"address payable","name":"executionFeeReceiver","type":"address"}],"name":"IncreaseRiskBufferFundPositionCancelled","type":"event"},{"anonymous":false,"inputs":[{"indexed":true,"internalType":"address","name":"account","type":"address"},{"indexed":true,"internalType":"contract IPool","name":"pool","type":"address"},{"indexed":false,"internalType":"uint128","name":"liquidityDelta","type":"uint128"},{"indexed":false,"internalType":"uint256","name":"executionFee","type":"uint256"},{"indexed":true,"internalType":"uint128","name":"index","type":"uint128"}],"name":"IncreaseRiskBufferFundPositionCreated","type":"event"},{"anonymous":false,"inputs":[{"indexed":true,"internalType":"uint128","name":"index","type":"uint128"},{"indexed":false,"internalType":"address payable","name":"executionFeeReceiver","type":"address"}],"name":"IncreaseRiskBufferFundPositionExecuted","type":"event"},{"anonymous":false,"inputs":[{"indexed":false,"internalType":"uint256","name":"minExecutionFee","type":"uint256"}],"name":"MinExecutionFeeUpdated","type":"event"},{"anonymous":false,"inputs":[{"indexed":true,"internalType":"uint128","name":"index","type":"uint128"},{"indexed":false,"internalType":"address payable","name":"executionFeeReceiver","type":"address"}],"name":"OpenLiquidityPositionCancelled","type":"event"},{"anonymous":false,"inputs":[{"indexed":true,"internalType":"address","name":"account","type":"address"},{"indexed":true,"internalType":"contract IPool","name":"pool","type":"address"},{"indexed":false,"internalType":"uint128","name":"margin","type":"uint128"},{"indexed":false,"internalType":"uint256","name":"liquidity","type":"uint256"},{"indexed":false,"internalType":"uint256","name":"executionFee","type":"uint256"},{"indexed":true,"internalType":"uint128","name":"index","type":"uint128"}],"name":"OpenLiquidityPositionCreated","type":"event"},{"anonymous":false,"inputs":[{"indexed":true,"internalType":"uint128","name":"index","type":"uint128"},{"indexed":false,"internalType":"address payable","name":"executionFeeReceiver","type":"address"}],"name":"OpenLiquidityPositionExecuted","type":"event"},{"anonymous":false,"inputs":[{"indexed":true,"internalType":"address","name":"account","type":"address"},{"indexed":false,"internalType":"bool","name":"active","type":"bool"}],"name":"PositionExecutorUpdated","type":"event"},{"inputs":[],"name":"acceptGov","outputs":[],"stateMutability":"nonpayable","type":"function"},{"inputs":[],"name":"adjustLiquidityPositionMarginIndex","outputs":[{"internalType":"uint128","name":"","type":"uint128"}],"stateMutability":"view","type":"function"},{"inputs":[],"name":"adjustLiquidityPositionMarginIndexNext","outputs":[{"internalType":"uint128","name":"","type":"uint128"}],"stateMutability":"view","type":"function"},{"inputs":[{"internalType":"uint128","name":"","type":"uint128"}],"name":"adjustLiquidityPositionMarginRequests","outputs":[{"internalType":"address","name":"account","type":"address"},{"internalType":"uint96","name":"positionID","type":"uint96"},{"internalType":"contract IPool","name":"pool","type":"address"},{"internalType":"uint96","name":"blockNumber","type":"uint96"},{"internalType":"int128","name":"marginDelta","type":"int128"},{"internalType":"uint64","name":"blockTime","type":"uint64"},{"internalType":"address","name":"receiver","type":"address"},{"internalType":"uint256","name":"executionFee","type":"uint256"}],"stateMutability":"view","type":"function"},{"inputs":[{"internalType":"uint128","name":"_index","type":"uint128"},{"internalType":"address payable","name":"_executionFeeReceiver","type":"address"}],"name":"cancelAdjustLiquidityPositionMargin","outputs":[{"internalType":"bool","name":"","type":"bool"}],"stateMutability":"nonpayable","type":"function"},{"inputs":[{"internalType":"uint128","name":"_index","type":"uint128"},{"internalType":"address payable","name":"_executionFeeReceiver","type":"address"}],"name":"cancelCloseLiquidityPosition","outputs":[{"internalType":"bool","name":"","type":"bool"}],"stateMutability":"nonpayable","type":"function"},{"inputs":[{"internalType":"uint128","name":"_index","type":"uint128"},{"internalType":"address payable","name":"_executionFeeReceiver","type":"address"}],"name":"cancelDecreasePosition","outputs":[{"internalType":"bool","name":"","type":"bool"}],"stateMutability":"nonpayable","type":"function"},{"inputs":[{"internalType":"uint128","name":"_index","type":"uint128"},{"internalType":"address payable","name":"_executionFeeReceiver","type":"address"}],"name":"cancelDecreaseRiskBufferFundPosition","outputs":[{"internalType":"bool","name":"","type":"bool"}],"stateMutability":"nonpayable","type":"function"},{"inputs":[{"internalType":"uint128","name":"_index","type":"uint128"},{"internalType":"address payable","name":"_executionFeeReceiver","type":"address"}],"name":"cancelIncreasePosition","outputs":[{"internalType":"bool","name":"","type":"bool"}],"stateMutability":"nonpayable","type":"function"},{"inputs":[{"internalType":"uint128","name":"_index","type":"uint128"},{"internalType":"address payable","name":"_executionFeeReceiver","type":"address"}],"name":"cancelIncreaseRiskBufferFundPosition","outputs":[{"internalType":"bool","name":"","type":"bool"}],"stateMutability":"nonpayable","type":"function"},{"inputs":[{"internalType":"uint128","name":"_index","type":"uint128"},{"internalType":"address payable","name":"_executionFeeReceiver","type":"address"}],"name":"cancelOpenLiquidityPosition","outputs":[{"internalType":"bool","name":"","type":"bool"}],"stateMutability":"nonpayable","type":"function"},{"inputs":[{"internalType":"address","name":"_newGov","type":"address"}],"name":"changeGov","outputs":[],"stateMutability":"nonpayable","type":"function"},{"inputs":[],"name":"closeLiquidityPositionIndex","outputs":[{"internalType":"uint128","name":"","type":"uint128"}],"stateMutability":"view","type":"function"},{"inputs":[],"name":"closeLiquidityPositionIndexNext","outputs":[{"internalType":"uint128","name":"","type":"uint128"}],"stateMutability":"view","type":"function"},{"inputs":[{"internalType":"uint128","name":"","type":"uint128"}],"name":"closeLiquidityPositionRequests","outputs":[{"internalType":"address","name":"account","type":"address"},{"internalType":"uint96","name":"positionID","type":"uint96"},{"internalType":"contract IPool","name":"pool","type":"address"},{"internalType":"uint96","name":"blockNumber","type":"uint96"},{"internalType":"uint256","name":"executionFee","type":"uint256"},{"internalType":"address","name":"receiver","type":"address"},{"internalType":"uint64","name":"blockTime","type":"uint64"}],"stateMutability":"view","type":"function"},{"inputs":[{"internalType":"contract IPool","name":"_pool","type":"address"},{"internalType":"uint96","name":"_positionID","type":"uint96"},{"internalType":"int128","name":"_marginDelta","type":"int128"},{"internalType":"address","name":"_receiver","type":"address"}],"name":"createAdjustLiquidityPositionMargin","outputs":[{"internalType":"uint128","name":"index","type":"uint128"}],"stateMutability":"payable","type":"function"},{"inputs":[{"internalType":"contract IPool","name":"_pool","type":"address"},{"internalType":"uint96","name":"_positionID","type":"uint96"},{"internalType":"address","name":"_receiver","type":"address"}],"name":"createCloseLiquidityPosition","outputs":[{"internalType":"uint128","name":"index","type":"uint128"}],"stateMutability":"payable","type":"function"},{"inputs":[{"internalType":"contract IPool","name":"_pool","type":"address"},{"internalType":"Side","name":"_side","type":"uint8"},{"internalType":"uint128","name":"_marginDelta","type":"uint128"},{"internalType":"uint128","name":"_sizeDelta","type":"uint128"},{"internalType":"uint160","name":"_acceptableTradePriceX96","type":"uint160"},{"internalType":"address","name":"_receiver","type":"address"}],"name":"createDecreasePosition","outputs":[{"internalType":"uint128","name":"index","type":"uint128"}],"stateMutability":"payable","type":"function"},{"inputs":[{"internalType":"contract IPool","name":"_pool","type":"address"},{"internalType":"uint128","name":"_liquidityDelta","type":"uint128"},{"internalType":"address","name":"_receiver","type":"address"}],"name":"createDecreaseRiskBufferFundPosition","outputs":[{"internalType":"uint128","name":"index","type":"uint128"}],"stateMutability":"payable","type":"function"},{"inputs":[{"internalType":"contract IPool","name":"_pool","type":"address"},{"internalType":"Side","name":"_side","type":"uint8"},{"internalType":"uint128","name":"_marginDelta","type":"uint128"},{"internalType":"uint128","name":"_sizeDelta","type":"uint128"},{"internalType":"uint160","name":"_acceptableTradePriceX96","type":"uint160"}],"name":"createIncreasePosition","outputs":[{"internalType":"uint128","name":"index","type":"uint128"}],"stateMutability":"payable","type":"function"},{"inputs":[{"internalType":"contract IPool","name":"_pool","type":"address"},{"internalType":"uint128","name":"_liquidityDelta","type":"uint128"}],"name":"createIncreaseRiskBufferFundPosition","outputs":[{"internalType":"uint128","name":"index","type":"uint128"}],"stateMutability":"payable","type":"function"},{"inputs":[{"internalType":"contract IPool","name":"_pool","type":"address"},{"internalType":"uint128","name":"_margin","type":"uint128"},{"internalType":"uint128","name":"_liquidity","type":"uint128"}],"name":"createOpenLiquidityPosition","outputs":[{"internalType":"uint128","name":"index","type":"uint128"}],"stateMutability":"payable","type":"function"},{"inputs":[],"name":"decreasePositionIndex","outputs":[{"internalType":"uint128","name":"","type":"uint128"}],"stateMutability":"view","type":"function"},{"inputs":[],"name":"decreasePositionIndexNext","outputs":[{"internalType":"uint128","name":"","type":"uint128"}],"stateMutability":"view","type":"function"},{"inputs":[{"internalType":"uint128","name":"","type":"uint128"}],"name":"decreasePositionRequests","outputs":[{"internalType":"address","name":"account","type":"address"},{"internalType":"uint96","name":"blockNumber","type":"uint96"},{"internalType":"contract IPool","name":"pool","type":"address"},{"internalType":"uint128","name":"marginDelta","type":"uint128"},{"internalType":"uint128","name":"sizeDelta","type":"uint128"},{"internalType":"uint160","name":"acceptableTradePriceX96","type":"uint160"},{"internalType":"uint64","name":"blockTime","type":"uint64"},{"internalType":"Side","name":"side","type":"uint8"},{"internalType":"address","name":"receiver","type":"address"},{"internalType":"uint256","name":"executionFee","type":"uint256"}],"stateMutability":"view","type":"function"},{"inputs":[],"name":"decreaseRiskBufferFundPositionIndex","outputs":[{"internalType":"uint128","name":"","type":"uint128"}],"stateMutability":"view","type":"function"},{"inputs":[],"name":"decreaseRiskBufferFundPositionIndexNext","outputs":[{"internalType":"uint128","name":"","type":"uint128"}],"stateMutability":"view","type":"function"},{"inputs":[{"internalType":"uint128","name":"","type":"uint128"}],"name":"decreaseRiskBufferFundPositionRequests","outputs":[{"internalType":"address","name":"account","type":"address"},{"internalType":"uint96","name":"blockNumber","type":"uint96"},{"internalType":"contract IPool","name":"pool","type":"address"},{"internalType":"uint64","name":"blockTime","type":"uint64"},{"internalType":"uint128","name":"liquidityDelta","type":"uint128"},{"internalType":"address","name":"receiver","type":"address"},{"internalType":"uint256","name":"executionFee","type":"uint256"}],"stateMutability":"view","type":"function"},{"inputs":[{"internalType":"uint128","name":"_index","type":"uint128"},{"internalType":"address payable","name":"_executionFeeReceiver","type":"address"}],"name":"executeAdjustLiquidityPositionMargin","outputs":[{"internalType":"bool","name":"","type":"bool"}],"stateMutability":"nonpayable","type":"function"},{"inputs":[{"internalType":"uint128","name":"_endIndex","type":"uint128"},{"internalType":"address payable","name":"_executionFeeReceiver","type":"address"}],"name":"executeAdjustLiquidityPositionMargins","outputs":[],"stateMutability":"nonpayable","type":"function"},{"inputs":[{"internalType":"uint128","name":"_index","type":"uint128"},{"internalType":"address payable","name":"_executionFeeReceiver","type":"address"}],"name":"executeCloseLiquidityPosition","outputs":[{"internalType":"bool","name":"","type":"bool"}],"stateMutability":"nonpayable","type":"function"},{"inputs":[{"internalType":"uint128","name":"_endIndex","type":"uint128"},{"internalType":"address payable","name":"_executionFeeReceiver","type":"address"}],"name":"executeCloseLiquidityPositions","outputs":[],"stateMutability":"nonpayable","type":"function"},{"inputs":[{"internalType":"uint128","name":"_index","type":"uint128"},{"internalType":"address payable","name":"_executionFeeReceiver","type":"address"}],"name":"executeDecreasePosition","outputs":[{"internalType":"bool","name":"","type":"bool"}],"stateMutability":"nonpayable","type":"function"},{"inputs":[{"internalType":"uint128","name":"_endIndex","type":"uint128"},{"internalType":"address payable","name":"_executionFeeReceiver","type":"address"}],"name":"executeDecreasePositions","outputs":[],"stateMutability":"nonpayable","type":"function"},{"inputs":[{"internalType":"uint128","name":"_index","type":"uint128"},{"internalType":"address payable","name":"_executionFeeReceiver","type":"address"}],"name":"executeDecreaseRiskBufferFundPosition","outputs":[{"internalType":"bool","name":"","type":"bool"}],"stateMutability":"nonpayable","type":"function"},{"inputs":[{"internalType":"uint128","name":"_endIndex","type":"uint128"},{"internalType":"address payable","name":"_executionFeeReceiver","type":"address"}],"name":"executeDecreaseRiskBufferFundPositions","outputs":[],"stateMutability":"nonpayable","type":"function"},{"inputs":[{"internalType":"uint128","name":"_index","type":"uint128"},{"internalType":"address payable","name":"_executionFeeReceiver","type":"address"}],"name":"executeIncreasePosition","outputs":[{"internalType":"bool","name":"","type":"bool"}],"stateMutability":"nonpayable","type":"function"},{"inputs":[{"internalType":"uint128","name":"_endIndex","type":"uint128"},{"internalType":"address payable","name":"_executionFeeReceiver","type":"address"}],"name":"executeIncreasePositions","outputs":[],"stateMutability":"nonpayable","type":"function"},{"inputs":[{"internalType":"uint128","name":"_index","type":"uint128"},{"internalType":"address payable","name":"_executionFeeReceiver","type":"address"}],"name":"executeIncreaseRiskBufferFundPosition","outputs":[{"internalType":"bool","name":"","type":"bool"}],"stateMutability":"nonpayable","type":"function"},{"inputs":[{"internalType":"uint128","name":"_endIndex","type":"uint128"},{"internalType":"address payable","name":"_executionFeeReceiver","type":"address"}],"name":"executeIncreaseRiskBufferFundPositions","outputs":[],"stateMutability":"nonpayable","type":"function"},{"inputs":[{"internalType":"uint128","name":"_index","type":"uint128"},{"internalType":"address payable","name":"_executionFeeReceiver","type":"address"}],"name":"executeOpenLiquidityPosition","outputs":[{"internalType":"bool","name":"","type":"bool"}],"stateMutability":"nonpayable","type":"function"},{"inputs":[{"internalType":"uint128","name":"_endIndex","type":"uint128"},{"internalType":"address payable","name":"_executionFeeReceiver","type":"address"}],"name":"executeOpenLiquidityPositions","outputs":[],"stateMutability":"nonpayable","type":"function"},{"inputs":[],"name":"executionGasLimit","outputs":[{"internalType":"uint160","name":"","type":"uint160"}],"stateMutability":"view","type":"function"},{"inputs":[],"name":"gov","outputs":[{"internalType":"address","name":"","type":"address"}],"stateMutability":"view","type":"function"},{"inputs":[],"name":"increasePositionIndex","outputs":[{"internalType":"uint128","name":"","type":"uint128"}],"stateMutability":"view","type":"function"},{"inputs":[],"name":"increasePositionIndexNext","outputs":[{"internalType":"uint128","name":"","type":"uint128"}],"stateMutability":"view","type":"function"},{"inputs":[{"internalType":"uint128","name":"","type":"uint128"}],"name":"increasePositionRequests","outputs":[{"internalType":"address","name":"account","type":"address"},{"internalType":"uint96","name":"blockNumber","type":"uint96"},{"internalType":"contract IPool","name":"pool","type":"address"},{"internalType":"uint128","name":"marginDelta","type":"uint128"},{"internalType":"uint128","name":"sizeDelta","type":"uint128"},{"internalType":"uint160","name":"acceptableTradePriceX96","type":"uint160"},{"internalType":"uint64","name":"blockTime","type":"uint64"},{"internalType":"Side","name":"side","type":"uint8"},{"internalType":"uint256","name":"executionFee","type":"uint256"}],"stateMutability":"view","type":"function"},{"inputs":[],"name":"increaseRiskBufferFundPositionIndex","outputs":[{"internalType":"uint128","name":"","type":"uint128"}],"stateMutability":"view","type":"function"},{"inputs":[],"name":"increaseRiskBufferFundPositionIndexNext","outputs":[{"internalType":"uint128","name":"","type":"uint128"}],"stateMutability":"view","type":"function"},{"inputs":[{"internalType":"uint128","name":"","type":"uint128"}],"name":"increaseRiskBufferFundPositionRequests","outputs":[{"internalType":"address","name":"account","type":"address"},{"internalType":"uint96","name":"blockNumber","type":"uint96"},{"internalType":"contract IPool","name":"pool","type":"address"},{"internalType":"uint64","name":"blockTime","type":"uint64"},{"internalType":"uint128","name":"liquidityDelta","type":"uint128"},{"internalType":"uint256","name":"executionFee","type":"uint256"}],"stateMutability":"view","type":"function"},{"inputs":[],"name":"maxTimeDelay","outputs":[{"internalType":"uint32","name":"","type":"uint32"}],"stateMutability":"view","type":"function"},{"inputs":[],"name":"minBlockDelayExecutor","outputs":[{"internalType":"uint32","name":"","type":"uint32"}],"stateMutability":"view","type":"function"},{"inputs":[],"name":"minExecutionFee","outputs":[{"internalType":"uint256","name":"","type":"uint256"}],"stateMutability":"view","type":"function"},{"inputs":[],"name":"minTimeDelayPublic","outputs":[{"internalType":"uint32","name":"","type":"uint32"}],"stateMutability":"view","type":"function"},{"inputs":[],"name":"openLiquidityPositionIndex","outputs":[{"internalType":"uint128","name":"","type":"uint128"}],"stateMutability":"view","type":"function"},{"inputs":[],"name":"openLiquidityPositionIndexNext","outputs":[{"internalType":"uint128","name":"","type":"uint128"}],"stateMutability":"view","type":"function"},{"inputs":[{"internalType":"uint128","name":"","type":"uint128"}],"name":"openLiquidityPositionRequests","outputs":[{"internalType":"address","name":"account","type":"address"},{"internalType":"uint96","name":"blockNumber","type":"uint96"},{"internalType":"contract IPool","name":"pool","type":"address"},{"internalType":"uint64","name":"blockTime","type":"uint64"},{"internalType":"uint128","name":"margin","type":"uint128"},{"internalType":"uint128","name":"liquidity","type":"uint128"},{"internalType":"uint256","name":"executionFee","type":"uint256"}],"stateMutability":"view","type":"function"},{"inputs":[],"name":"pendingGov","outputs":[{"internalType":"address","name":"","type":"address"}],"stateMutability":"view","type":"function"},{"inputs":[{"internalType":"address","name":"","type":"address"}],"name":"positionExecutors","outputs":[{"internalType":"bool","name":"","type":"bool"}],"stateMutability":"view","type":"function"},{"inputs":[],"name":"router","outputs":[{"internalType":"contract Router","name":"","type":"address"}],"stateMutability":"view","type":"function"},{"inputs":[{"internalType":"uint32","name":"_minBlockDelayExecutor","type":"uint32"},{"internalType":"uint32","name":"_minTimeDelayPublic","type":"uint32"},{"internalType":"uint32","name":"_maxTimeDelay","type":"uint32"}],"name":"updateDelayValues","outputs":[],"stateMutability":"nonpayable","type":"function"},{"inputs":[{"internalType":"uint160","name":"_executionGasLimit","type":"uint160"}],"name":"updateExecutionGasLimit","outputs":[],"stateMutability":"nonpayable","type":"function"},{"inputs":[{"internalType":"uint256","name":"_minExecutionFee","type":"uint256"}],"name":"updateMinExecutionFee","outputs":[],"stateMutability":"nonpayable","type":"function"},{"inputs":[{"internalType":"address","name":"_account","type":"address"},{"internalType":"bool","name":"_active","type":"bool"}],"name":"updatePositionExecutor","outputs":[],"stateMutability":"nonpayable","type":"function"},{"inputs":[],"name":"usd","outputs":[{"internalType":"contract IERC20","name":"","type":"address"}],"stateMutability":"view","type":"function"}],"evm":{"bytecode":{"linkReferences":{},"object":"60c034620001c157601f62005ae638819003918201601f19168301916001600160401b03831184841017620001c657808492606094604052833981010312620001c1578051906001600160a01b038083168303620001c1576020820151928184168403620001c1577face0e51322d77a7556ae0cf8f6528fdd3385e33d2951dc3c9cab391eb76b948c9360406020940151916000543360018060a01b0319821617600055604051943391167f3d1e4c3a68fed9f4f8315582b7297cf8fa264bc8e6704287603ba8c72bf05ac2600080a360016002556e0f424000000708000000b40000000063ffffffff600454161760045560805260a052806003558152a16040516159099081620001dd823960805181818161078e01528181610c420152818161192901528181612217015281816129b101528181613b9f015281816140b50152818161468b015281816148be0152818161499b01528181614add0152818161506001526152ca015260a0518181816103070152818161073f015281816118da015281816121c8015281816129620152818161412f0152818161442e0152818161478901528181614b0401528181614e00015281816151d201526155b60152f35b600080fd5b634e487b7160e01b600052604160045260246000fdfe6080604052600436101561001257600080fd5b6000803560e01c806301d6b3491461374c57806304cd5387146136eb57806312d43a51146136c5578063206c30e8146133a5578063252408101461337e57806325d1bcee1461334e57806326624a411461329b57806327d95c581461326b5780632aafab32146132495780632c8889db14613227578063376fa02e146131f757806339cb1f3e146131d65780633a2a80c7146131b05780633c0c36981461318e5780633d5b47991461316c578063468ebcb01461313c57806346b3ef1f1461311b5780634c3facf3146130fa5780635567c2f71461302b57806356609eea14612d6a5780635c845f8014612d495780635d585edc14612d195780635dfff23414612c8357806362d253451461292657806363ae2103146129085780636c5255011461272d5780636f707c7514612552578063729e73da146124b5578063753363bc14612485578063784050e1146122aa57806379a552a114611e605780637b5402c614611c855780637bc6729b14611c05578063808e70821461189457806383011cb6146116b9578063868e45b714611698578063890143c5146114bd5780638abb40ae1461149c578063948f9f751461146c578063a11da3841461144a578063a8c4aec814611428578063a962ef1e146113a6578063b5d6bca714611382578063b6ee0c3a14611345578063b79aac7914611323578063bb11d2d014611302578063c2b37ccb14611272578063c42acadc14611250578063c44fa0fb1461122e578063cb0269c914611207578063cb7ad97114610dea578063cfd8b2e114610d4c578063d307f03f14610cfe578063d3d615bc14610c66578063d63a6ccd14610c22578063d6e9dcb414610c00578063de8b110914610bde578063def66c4e14610b1d578063e001ddf514610afb578063e03d62ae14610910578063e54386ea146108df578063e59e4d70146108be578063e7b5bd44146103d3578063e97ec8ad1461032e5763f887ea40146102e857600080fd5b3461032b578060031936011261032b5760206040516001600160a01b037f0000000000000000000000000000000000000000000000000000000000000000168152f35b80fd5b503461032b57602060031936011261032b576040610100916fffffffffffffffffffffffffffffffff61035f61376e565b168152600a602052208054906001600160a01b039067ffffffffffffffff60018201546002830154906004856003860154169401549460405196818116885260a01c60208801528116604087015260a01c606086015280600f0b608086015260801c1660a084015260c083015260e0820152f35b50608060031936011261032b576103e8613829565b906103f1613855565b916044359283600f0b84036108ba57606435936001600160a01b03851685036108b55761041c613a0d565b60035480341061087e57506040517f5186d6d20000000000000000000000000000000000000000000000000000000081526bffffffffffffffffffffffff831660048201526020816024816001600160a01b0388165afa90811561081657859161084f575b506001600160a01b0333911603610825578381600f0b13610735575b6020946001600160a01b0391600b54957fffffffffffffffffffffffffffffffff000000000000000000000000000000006104da8860801c6139bd565b60801b166fffffffffffffffffffffffffffffffff881617600b55600461050043613a46565b9167ffffffffffffffff61051342613a97565b6bffffffffffffffffffffffff6040519561052d8761395f565b338752818b168e880152898c16604088015216606086015285600f0b60808601521660a084015285851660c0840152604060e08401913483528a60801c8152600a8c522092868151167fffffffffffffffffffffffff000000000000000000000000000000000000000090818654161785556105ed6bffffffffffffffffffffffff8d8401511686906001600160a01b037fffffffffffffffffffffffff000000000000000000000000000000000000000083549260a01b169116179055565b61064c6001860189604085015116838254161781556bffffffffffffffffffffffff6060850151166001600160a01b037fffffffffffffffffffffffff000000000000000000000000000000000000000083549260a01b169116179055565b60028501608083015181547fffffffffffffffff0000000000000000000000000000000000000000000000006fffffffffffffffffffffffffffffffff77ffffffffffffffff0000000000000000000000000000000060a088015160801b1693169116171790558760c0600387019301511690825416179055519101556bffffffffffffffffffffffff60405194168452600f0b868401521660408201523460608201526001600160a01b038360801c9216907f916ef0e1bd2557e79df64e10a4594cd724ba26ad81374bcc80dc648b36a98a0e60803392a460016002556040519060801c8152f35b6001600160a01b037f000000000000000000000000000000000000000000000000000000000000000016803b15610821576040517f1b8278780000000000000000000000000000000000000000000000000000000081527f00000000000000000000000000000000000000000000000000000000000000006001600160a01b031660048201523360248201523060448201526fffffffffffffffffffffffffffffffff831660648201529085908290608490829084905af18015610816576107fe575b5061049d565b61080885916138f5565b61081257386107f8565b8380fd5b6040513d87823e3d90fd5b8480fd5b60046040517fee90c468000000000000000000000000000000000000000000000000000000008152fd5b610871915060203d602011610877575b610869818361397c565b810190614234565b38610481565b503d61085f565b604490604051907f5dac504d0000000000000000000000000000000000000000000000000000000082523460048301526024820152fd5b600080fd5b8280fd5b503461032b578060031936011261032b57602060135460801c604051908152f35b503461032b5760206109016108f3366137ea565b906108fc613a0d565b615463565b60016002556040519015158152f35b503461032b5761091f366137ea565b3383526020906005825260ff60408520541615610825576011546fffffffffffffffffffffffffffffffff938482169391859182169060801c80821015610af157509291925b16915b8483818616106109a4575b50505050167fffffffffffffffffffffffffffffffff00000000000000000000000000000000601154161760115580f35b6040517f01d6b3490000000000000000000000000000000000000000000000000000000081526fffffffffffffffffffffffffffffffff861660048201526001600160a01b0384166024820152939492939192909183816044818b305af1889181610ad2575b50610ac557506040517fe001ddf50000000000000000000000000000000000000000000000000000000081526fffffffffffffffffffffffffffffffff821660048201526001600160a01b038516602482015283816044818b305af1889181610a96575b50610a83575b506001905b0116929190610968565b15610a8e5738610a74565b935080610973565b610ab7919250853d8711610abe575b610aaf818361397c565b810190613e54565b9038610a6e565b503d610aa5565b15610a8e57600190610a79565b610aea919250853d8711610abe57610aaf818361397c565b9038610a0a565b9050929192610965565b503461032b576020610901610b0f366137ea565b90610b18613a0d565b614f15565b503461032b57602060031936011261032b576101409060406fffffffffffffffffffffffffffffffff9182610b5061376e565b1681526012602052209081549160ff6001600160a01b03928360018401541693600284015460038501549260058360048801541696015496604051988481168a5260a01c60208a015260408901528116606088015260801c6080870152811660a086015267ffffffffffffffff8160a01c1660c086015260e01c1660e0840152610100830152610120820152f35b503461032b576020610901610bf2366137ea565b90610bfb613a0d565b614544565b503461032b576020610901610c14366137ea565b90610c1d613a0d565b61531d565b503461032b578060031936011261032b5760206040516001600160a01b037f0000000000000000000000000000000000000000000000000000000000000000168152f35b503461032b57602060031936011261032b5760e09060406fffffffffffffffffffffffffffffffff9182610c9861376e565b168152600660205220908154916001600160a01b039167ffffffffffffffff6001830154600360028501549401549460405196818116885260a01c60208801528116604087015260a01c1660608501528116608084015260801c60a083015260c0820152f35b503461032b57602060031936011261032b577face0e51322d77a7556ae0cf8f6528fdd3385e33d2951dc3c9cab391eb76b948c6020600435610d3e613896565b80600355604051908152a180f35b503461032b57604060031936011261032b57610d66613829565b602435908115158092036108ba5760206001600160a01b037f3707af22b3aeb6f4e368f52e62c4e9ab2addbadf6f9de7d9d1d24bc0b8456d8292610da8613896565b169283855260058252604085207fffffffffffffffffffffffffffffffffffffffffffffffffffffffffffffff0081541660ff8316179055604051908152a280f35b5060c060031936011261032b57610dff613829565b610e07613886565b610e0f6137ac565b610e176137cb565b610e1f61383f565b9060a435926001600160a01b03841684036108b557610e3c613a0d565b610e4585615882565b60035480341061087e5750601354968760801c610e61906139bd565b60801b7fffffffffffffffffffffffffffffffff00000000000000000000000000000000166fffffffffffffffffffffffffffffffff89161760135543610ea790613a46565b90610eb142613a97565b60405192610ebe84613942565b3384526bffffffffffffffffffffffff1660208401526001600160a01b03891660408401526fffffffffffffffffffffffffffffffff841660608401526fffffffffffffffffffffffffffffffff851660808401526001600160a01b03861660a084015267ffffffffffffffff1660c083015260ff871660e08301526001600160a01b038616610100830152346101208301528860801c81526012602052604090209080516001600160a01b031682547fffffffffffffffffffffffff00000000000000000000000000000000000000001617825560208101516bffffffffffffffffffffffff16610fe39083906001600160a01b037fffffffffffffffffffffffff000000000000000000000000000000000000000083549260a01b169116179055565b60408101516001830180547fffffffffffffffffffffffff0000000000000000000000000000000000000000166001600160a01b039092169190911790556060810151608080830151901b7fffffffffffffffffffffffffffffffff00000000000000000000000000000000166fffffffffffffffffffffffffffffffff90911617600283015560a08181015160038401805460c08501517fffffffff000000000000000000000000000000000000000000000000000000009091166001600160a01b03909316929092179190921b7bffffffffffffffff00000000000000000000000000000000000000001617815560e08281015182547fffffff00ffffffffffffffffffffffffffffffffffffffffffffffffffffffff16911b7cff0000000000000000000000000000000000000000000000000000000016179055600482016101008201516001600160a01b031681547fffffffffffffffffffffffff000000000000000000000000000000000000000016179055610120015190600501556040519460ff1685526fffffffffffffffffffffffffffffffff1660208501526fffffffffffffffffffffffffffffffff1660408401526001600160a01b031660608301526001600160a01b031660808201523460a08201528260801c916001600160a01b031690339060c07fc3b24b550f7c128d6dbe186c52965186650e2513fb12c7d32cdc996a5dde95be91a460016002556040519060801c8152602090f35b503461032b578060031936011261032b57602063ffffffff60045460401c16604051908152f35b503461032b576020610901611242366137ea565b9061124b613a0d565b614c2b565b503461032b576020610901611264366137ea565b9061126d613a0d565b6148e9565b503461032b57602060031936011261032b5760c09060406fffffffffffffffffffffffffffffffff91826112a461376e565b168152600c602052209081549167ffffffffffffffff6001600160a01b039260036001840154916002850154169301549360405195818116875260a01c60208701528116604086015260a01c166060840152608083015260a0820152f35b503461032b578060031936011261032b57602060115460801c604051908152f35b503461032b576020610901611337366137ea565b90611340613a0d565b6146b8565b503461032b57602060031936011261032b5760ff60406020926001600160a01b0361136e613829565b168152600584522054166040519015158152f35b503461032b578060031936011261032b57602063ffffffff60045416604051908152f35b503461032b57602060031936011261032b576113c0613829565b6113c8613896565b6001600160a01b0380911690817fffffffffffffffffffffffff000000000000000000000000000000000000000060015416176001558254167fb9911e2099e372c216862258dc462bb65da46a2c854536c8b1acae619d0d62ed8380a380f35b503461032b57602061090161143c366137ea565b90611445613a0d565b613ae4565b503461032b57602061090161145e366137ea565b90611467613a0d565b613fec565b503461032b578060031936011261032b5760206fffffffffffffffffffffffffffffffff600b5416604051908152f35b503461032b578060031936011261032b576020600b5460801c604051908152f35b503461032b576114cc366137ea565b3383526020906005825260ff60408520541615610825576013546fffffffffffffffffffffffffffffffff938482169391859182169060801c8082101561168e57509291925b16915b848381861610611551575b50505050167fffffffffffffffffffffffffffffffff00000000000000000000000000000000601354161760135580f35b6040517fe54386ea0000000000000000000000000000000000000000000000000000000081526fffffffffffffffffffffffffffffffff861660048201526001600160a01b0384166024820152939492939192909183816044818b305af188918161166f575b5061166257506040517fd6e9dcb40000000000000000000000000000000000000000000000000000000081526fffffffffffffffffffffffffffffffff821660048201526001600160a01b038516602482015283816044818b305af1889181611643575b50611630575b506001905b0116929190611515565b1561163b5738611621565b935080611520565b61165b919250853d8711610abe57610aaf818361397c565b903861161b565b1561163b57600190611626565b611687919250853d8711610abe57610aaf818361397c565b90386115b7565b9050929192611512565b503461032b578060031936011261032b576020600f5460801c604051908152f35b503461032b576116c8366137ea565b3383526020906005825260ff60408520541615610825576007546fffffffffffffffffffffffffffffffff938482169391859182169060801c8082101561188a57509291925b16915b84838186161061174d575b50505050167fffffffffffffffffffffffffffffffff00000000000000000000000000000000600754161760075580f35b6040517fa11da3840000000000000000000000000000000000000000000000000000000081526fffffffffffffffffffffffffffffffff861660048201526001600160a01b0384166024820152939492939192909183816044818b305af188918161186b575b5061185e57506040517fa8c4aec80000000000000000000000000000000000000000000000000000000081526fffffffffffffffffffffffffffffffff821660048201526001600160a01b038516602482015283816044818b305af188918161183f575b5061182c575b506001905b0116929190611711565b15611837573861181d565b93508061171c565b611857919250853d8711610abe57610aaf818361397c565b9038611817565b1561183757600190611822565b611883919250853d8711610abe57610aaf818361397c565b90386117b3565b905092919261170e565b50606060031936011261032b576118a9613829565b906118b261378d565b916118bb6137ac565b6118c3613a0d565b60035480341061087e57506001600160a01b0392837f000000000000000000000000000000000000000000000000000000000000000016803b15611c01576040517f1b8278780000000000000000000000000000000000000000000000000000000081527f00000000000000000000000000000000000000000000000000000000000000006001600160a01b031660048201523360248201523060448201526fffffffffffffffffffffffffffffffff871660648201529082908290608490829084905af18015611bf657908291611be2575b5050600754938460801c809681967fffffffffffffffffffffffffffffffff0000000000000000000000000000000095866119d0856139bd565b60801b166fffffffffffffffffffffffffffffffff80931617600755436119f690613a46565b96611a0042613a97565b9860405199611a0e8b6138aa565b338b5260208b01996bffffffffffffffffffffffff8091168b528860408d0193169b8c845289606082019267ffffffffffffffff809516845288608084019a169d8e8b528960a0850199169d8e8a5260c085019c8d34905281526006602052604090209c8d9451167fffffffffffffffffffffffff000000000000000000000000000000000000000080955416178d555116611add908c906001600160a01b037fffffffffffffffffffffffff000000000000000000000000000000000000000083549260a01b169116179055565b60018b01945116908454161783555116611b3e91907fffffffff0000000000000000ffffffffffffffffffffffffffffffffffffffff7bffffffffffffffff000000000000000000000000000000000000000083549260a01b169116179055565b8260028701945116908454161783555116611b9491906fffffffffffffffffffffffffffffffff7fffffffffffffffffffffffffffffffff0000000000000000000000000000000083549260801b169116179055565b5190600301556040519182526020820152346040820152339060607f3f0d7d4e5289d6595bd81a0ac4e0bea43569a6e945dd25935ef0af28fcc6508791a46001600255604051908152602090f35b611beb906138f5565b61032b578038611996565b6040513d84823e3d90fd5b5080fd5b503461032b578060031936011261032b576001546001600160a01b038082163303610825577fffffffffffffffffffffffff0000000000000000000000000000000000000000809216600155825491339083161783553391167f3d1e4c3a68fed9f4f8315582b7297cf8fa264bc8e6704287603ba8c72bf05ac28380a380f35b503461032b57611c94366137ea565b3383526020906005825260ff6040852054161561082557600b546fffffffffffffffffffffffffffffffff938482169391859182169060801c80821015611e5657509291925b16915b848381861610611d19575b50505050167fffffffffffffffffffffffffffffffff00000000000000000000000000000000600b541617600b5580f35b6040517fb79aac790000000000000000000000000000000000000000000000000000000081526fffffffffffffffffffffffffffffffff861660048201526001600160a01b0384166024820152939492939192909183816044818b305af1889181611e37575b50611e2a57506040517fde8b11090000000000000000000000000000000000000000000000000000000081526fffffffffffffffffffffffffffffffff821660048201526001600160a01b038516602482015283816044818b305af1889181611e0b575b50611df8575b506001905b0116929190611cdd565b15611e035738611de9565b935080611ce8565b611e23919250853d8711610abe57610aaf818361397c565b9038611de3565b15611e0357600190611dee565b611e4f919250853d8711610abe57610aaf818361397c565b9038611d7f565b9050929192611cda565b5060a060031936011261032b57611e75613829565b90611e7e613886565b91611e876137ac565b92611e906137cb565b611e9861383f565b94611ea1613a0d565b611eaa83615882565b60035480341061087e57506fffffffffffffffffffffffffffffffff81166121be575b946fffffffffffffffffffffffffffffffff6001600160a01b039281602098601154987fffffffffffffffffffffffffffffffff00000000000000000000000000000000611f1d8b60801c6139bd565b60801b16838b161760115560046101006040611f3843613a46565b9367ffffffffffffffff8d8c611f4d42613a97565b916bffffffffffffffffffffffff865199611f678b613925565b338b521660208a015216848801528888166060880152888a1660808801528c8c1660a08801521660c086015260ff8c1660e086015234838601528d60801c815260108f5220926121548a8251167fffffffffffffffffffffffff000000000000000000000000000000000000000090818754161786558f6bffffffffffffffffffffffff61202c918501511687906001600160a01b037fffffffffffffffffffffffff000000000000000000000000000000000000000083549260a01b169116179055565b6040830151600187018054918e1691831691909117905560608301516080808501517fffffffffffffffffffffffffffffffff00000000000000000000000000000000908b1690911b169089166fffffffffffffffffffffffffffffffff1617600287015560038601908c60a0850151169082541617815561210467ffffffffffffffff60c08501511682907fffffffff0000000000000000ffffffffffffffffffffffffffffffffffffffff7bffffffffffffffff000000000000000000000000000000000000000083549260a01b169116179055565b60e08381015182547fffffff00ffffffffffffffffffffffffffffffffffffffffffffffffffffffff16911b7cff0000000000000000000000000000000000000000000000000000000016179055565b015191015560ff6040519716875216888601521660408401521660608201523460808201526001600160a01b038360801c9216907ff1c23ffbea54cf4f9e6902a912bcd3b70986a892b14121e001b907e328c2f3f560a03392a460016002556040519060801c8152f35b6001600160a01b037f000000000000000000000000000000000000000000000000000000000000000016803b156122a6576040517f1b8278780000000000000000000000000000000000000000000000000000000081527f00000000000000000000000000000000000000000000000000000000000000006001600160a01b031660048201523360248201523060448201526fffffffffffffffffffffffffffffffff831660648201529086908290608490829084905af1801561229b57612287575b50611ecd565b61229186916138f5565b6108215738612281565b6040513d88823e3d90fd5b8580fd5b503461032b576122b9366137ea565b3383526020906005825260ff60408520541615610825576009546fffffffffffffffffffffffffffffffff938482169391859182169060801c8082101561247b57509291925b16915b84838186161061233e575b50505050167fffffffffffffffffffffffffffffffff00000000000000000000000000000000600954161760095580f35b6040517f3d5b47990000000000000000000000000000000000000000000000000000000081526fffffffffffffffffffffffffffffffff861660048201526001600160a01b0384166024820152939492939192909183816044818b305af188918161245c575b5061244f57506040517f3c0c36980000000000000000000000000000000000000000000000000000000081526fffffffffffffffffffffffffffffffff821660048201526001600160a01b038516602482015283816044818b305af1889181612430575b5061241d575b506001905b0116929190612302565b15612428573861240e565b93508061230d565b612448919250853d8711610abe57610aaf818361397c565b9038612408565b1561242857600190612413565b612474919250853d8711610abe57610aaf818361397c565b90386123a4565b90509291926122ff565b503461032b578060031936011261032b5760206fffffffffffffffffffffffffffffffff600d5416604051908152f35b503461032b57602060031936011261032b5760e09060406fffffffffffffffffffffffffffffffff91826124e761376e565b168152600e60205220908154916001600160a01b039167ffffffffffffffff600183015491600284015416916004856003860154169401549460405196818116885260a01c60208801528116604087015260a01c166060850152608084015260a083015260c0820152f35b503461032b57612561366137ea565b3383526020906005825260ff6040852054161561082557600d546fffffffffffffffffffffffffffffffff938482169391859182169060801c8082101561272357509291925b16915b8483818616106125e6575b50505050167fffffffffffffffffffffffffffffffff00000000000000000000000000000000600d541617600d5580f35b6040517f2aafab320000000000000000000000000000000000000000000000000000000081526fffffffffffffffffffffffffffffffff861660048201526001600160a01b0384166024820152939492939192909183816044818b305af1889181612704575b506126f757506040517fc42acadc0000000000000000000000000000000000000000000000000000000081526fffffffffffffffffffffffffffffffff821660048201526001600160a01b038516602482015283816044818b305af18891816126d8575b506126c5575b506001905b01169291906125aa565b156126d057386126b6565b9350806125b5565b6126f0919250853d8711610abe57610aaf818361397c565b90386126b0565b156126d0576001906126bb565b61271c919250853d8711610abe57610aaf818361397c565b903861264c565b90509291926125a7565b503461032b5761273c366137ea565b3383526020906005825260ff6040852054161561082557600f546fffffffffffffffffffffffffffffffff938482169391859182169060801c808210156128fe57509291925b16915b8483818616106127c1575b50505050167fffffffffffffffffffffffffffffffff00000000000000000000000000000000600f541617600f5580f35b6040517f2c8889db0000000000000000000000000000000000000000000000000000000081526fffffffffffffffffffffffffffffffff861660048201526001600160a01b0384166024820152939492939192909183816044818b305af18891816128df575b506128d257506040517fc44fa0fb0000000000000000000000000000000000000000000000000000000081526fffffffffffffffffffffffffffffffff821660048201526001600160a01b038516602482015283816044818b305af18891816128b3575b506128a0575b506001905b0116929190612785565b156128ab5738612891565b935080612790565b6128cb919250853d8711610abe57610aaf818361397c565b903861288b565b156128ab57600190612896565b6128f7919250853d8711610abe57610aaf818361397c565b9038612827565b9050929192612782565b503461032b578060031936011261032b576020600354604051908152f35b50604060031936011261032b5761293b613829565b9061294461378d565b9061294d613a0d565b60035480341061087e57506001600160a01b037f000000000000000000000000000000000000000000000000000000000000000016803b15611c01576040517f1b8278780000000000000000000000000000000000000000000000000000000081527f00000000000000000000000000000000000000000000000000000000000000006001600160a01b031660048201523360248201523060448201526fffffffffffffffffffffffffffffffff841660648201529082908290608490829084905af18015611bf657612c74575b5090600d54928360801c612a2e906139bd565b60801b7fffffffffffffffffffffffffffffffff00000000000000000000000000000000166fffffffffffffffffffffffffffffffff851617600d5543612a7490613a46565b92612a7e42613a97565b9260405192612a8c84613909565b33845260208401956bffffffffffffffffffffffff16865260408401906001600160a01b0316948582526060850167ffffffffffffffff809216815260808601936fffffffffffffffffffffffffffffffff169788855260a08701953487528a60801c8152600c6020526040902096516001600160a01b0316907fffffffffffffffffffffffff00000000000000000000000000000000000000009182895416178855516bffffffffffffffffffffffff16612b7b9088906001600160a01b037fffffffffffffffffffffffff000000000000000000000000000000000000000083549260a01b169116179055565b6001870193516001600160a01b0316908454161783555116612be491907fffffffff0000000000000000ffffffffffffffffffffffffffffffffffffffff7bffffffffffffffff000000000000000000000000000000000000000083549260a01b169116179055565b6002830190516fffffffffffffffffffffffffffffffff1681547fffffffffffffffffffffffffffffffff00000000000000000000000000000000161790555190600301556040519182523460208301528260801c91339060407fe797134446a7d08ec8e9c6a521f312297be6d1e7aa9cd97d8248df8b39461ff991a460016002556040519060801c8152602090f35b612c7d906138f5565b38612a1b565b503461032b57602060031936011261032b57604060e0916fffffffffffffffffffffffffffffffff612cb361376e565b16815260086020522067ffffffffffffffff8154916001600160a01b03600182015491600360028201549101549260405195838116875260a01c6020870152828116604087015260a01c60608601526080850152811660a084015260a01c1660c0820152f35b503461032b578060031936011261032b5760206fffffffffffffffffffffffffffffffff60115416604051908152f35b503461032b578060031936011261032b576020600d5460801c604051908152f35b50606060031936011261032b57612d7f613829565b90612d8861378d565b91612d91613870565b92612d9a613a0d565b60035480341061087e57506001600160a01b03602094600f54947fffffffffffffffffffffffffffffffff00000000000000000000000000000000612de18760801c6139bd565b60801b166fffffffffffffffffffffffffffffffff871617600f556004612e0743613a46565b9167ffffffffffffffff612e1a42613a97565b6bffffffffffffffffffffffff60405195612e34876138aa565b338752168b86015286891660408601521660608401526fffffffffffffffffffffffffffffffff8616608084015284841660a0840152604060c08401913483528960801c8152600e8b522092858151167fffffffffffffffffffffffff00000000000000000000000000000000000000009081865416178555612efb6bffffffffffffffffffffffff8c8401511686906001600160a01b037fffffffffffffffffffffffff000000000000000000000000000000000000000083549260a01b169116179055565b612f6b60018601886040850151168382541617815567ffffffffffffffff6060850151167fffffffff0000000000000000ffffffffffffffffffffffffffffffffffffffff7bffffffffffffffff000000000000000000000000000000000000000083549260a01b169116179055565b600285016fffffffffffffffffffffffffffffffff6080840151167fffffffffffffffffffffffffffffffff000000000000000000000000000000008254161790558660a0600387019301511690825416179055519101556fffffffffffffffffffffffffffffffff6040519316835216848201523460408201526001600160a01b038360801c9216907fdca15e0f2ee5869292721e579712bf963ac29068ef58ba773767dc9f5b065eee60603392a460016002556040519060801c8152f35b503461032b57606060031936011261032b5760043563ffffffff908181168091036108ba576024359082821680830361082157604435938416908185036122a6577f5059425a16aa50b8d42ba1b984287f78e50743f3674c64736be81d875723294d94606094613099613896565b67ffffffff00000000857fffffffffffffffffffffffffffffffffffffffff0000000000000000000000006bffffffff00000000000000006004549560401b169416179160201b16171760045560405192835260208301526040820152a180f35b503461032b578060031936011261032b57602060095460801c604051908152f35b503461032b578060031936011261032b57602060075460801c604051908152f35b503461032b578060031936011261032b5760206fffffffffffffffffffffffffffffffff60095416604051908152f35b503461032b576020610901613180366137ea565b90613189613a0d565b61437e565b503461032b5760206109016131a2366137ea565b906131ab613a0d565b614253565b503461032b578060031936011261032b57602060045463ffffffff60405191831c168152f35b503461032b578060031936011261032b57602060045460601c604051908152f35b503461032b578060031936011261032b5760206fffffffffffffffffffffffffffffffff600f5416604051908152f35b503461032b57602061090161323b366137ea565b90613244613a0d565b614d49565b503461032b57602061090161325d366137ea565b90613266613a0d565b614a2a565b503461032b578060031936011261032b5760206fffffffffffffffffffffffffffffffff60135416604051908152f35b503461032b57602060031936011261032b576101209060406fffffffffffffffffffffffffffffffff91826132ce61376e565b1681526010602052209060ff8254926001600160a01b038060018301541693600283015490600460038501549401549560405197848116895260a01c602089015260408801528116606087015260801c6080860152811660a085015267ffffffffffffffff8160a01c1660c085015260e01c1660e0830152610100820152f35b503461032b578060031936011261032b5760206fffffffffffffffffffffffffffffffff60075416604051908152f35b503461032b578060031936011261032b5760206001600160a01b0360015416604051908152f35b50606060031936011261032b576133ba613829565b6133c2613855565b6133ca613870565b916133d3613a0d565b60035480341061087e57506001600160a01b03166bffffffffffffffffffffffff604051927f5186d6d20000000000000000000000000000000000000000000000000000000084521691826004820152602081602481855afa9081156108165785916136a6575b506001600160a01b03339116036108255760209361365b600954947fffffffffffffffffffffffffffffffff000000000000000000000000000000006134828760801c6139bd565b60801b166fffffffffffffffffffffffffffffffff87161760095567ffffffffffffffff60c06134b143613a46565b60406134bc42613a97565b966bffffffffffffffffffffffff8251936134d6856138aa565b3385528b8e8601528a84860152166060840152346080840152846001600160a01b0360a0850197169889885216848401528a60801c815260088c52206001600160a01b03600381845116927fffffffffffffffffffffffff000000000000000000000000000000000000000093848254161781556135986bffffffffffffffffffffffff8f8701511682906001600160a01b037fffffffffffffffffffffffff000000000000000000000000000000000000000083549260a01b169116179055565b6135f76001820184604088015116868254161781556bffffffffffffffffffffffff6060880151166001600160a01b037fffffffffffffffffffffffff000000000000000000000000000000000000000083549260a01b169116179055565b6080850151600282015501955116908554161784550151167fffffffff0000000000000000ffffffffffffffffffffffffffffffffffffffff7bffffffffffffffff000000000000000000000000000000000000000083549260a01b169116179055565b604051928352848301523460408301528260801c917f7e48316a69792b38be0be5bad34f9658a0ad6590e8a91fbadbea78f125f4a51160603392a460016002556040519060801c8152f35b6136bf915060203d60201161087757610869818361397c565b3861343a565b503461032b578060031936011261032b576001600160a01b036020915416604051908152f35b503461032b57602060031936011261032b57613705613829565b61370d613896565b6bffffffffffffffffffffffff7fffffffffffffffffffffffffffffffffffffffff0000000000000000000000006004549260601b1691161760045580f35b503461032b576020610901613760366137ea565b90613769613a0d565b61508c565b600435906fffffffffffffffffffffffffffffffff821682036108b557565b602435906fffffffffffffffffffffffffffffffff821682036108b557565b604435906fffffffffffffffffffffffffffffffff821682036108b557565b606435906fffffffffffffffffffffffffffffffff821682036108b557565b60031960409101126108b5576004356fffffffffffffffffffffffffffffffff811681036108b557906024356001600160a01b03811681036108b55790565b600435906001600160a01b03821682036108b557565b608435906001600160a01b03821682036108b557565b602435906bffffffffffffffffffffffff821682036108b557565b604435906001600160a01b03821682036108b557565b6024359060ff821682036108b557565b6001600160a01b0360005416330361082557565b60e0810190811067ffffffffffffffff8211176138c657604052565b7f4e487b7100000000000000000000000000000000000000000000000000000000600052604160045260246000fd5b67ffffffffffffffff81116138c657604052565b60c0810190811067ffffffffffffffff8211176138c657604052565b610120810190811067ffffffffffffffff8211176138c657604052565b610140810190811067ffffffffffffffff8211176138c657604052565b610100810190811067ffffffffffffffff8211176138c657604052565b90601f7fffffffffffffffffffffffffffffffffffffffffffffffffffffffffffffffe0910116810190811067ffffffffffffffff8211176138c657604052565b6fffffffffffffffffffffffffffffffff8091169081146139de5760010190565b7f4e487b7100000000000000000000000000000000000000000000000000000000600052601160045260246000fd5b6002805414613a1c5760028055565b60046040517f3ee5aeb5000000000000000000000000000000000000000000000000000000008152fd5b6bffffffffffffffffffffffff90818111613a5f571690565b604490604051907f6dfcc650000000000000000000000000000000000000000000000000000000008252606060048301526024820152fd5b67ffffffffffffffff90818111613aac571690565b604490604051907f6dfcc650000000000000000000000000000000000000000000000000000000008252604060048301526024820152fd5b91906fffffffffffffffffffffffffffffffff809316906000908282526020916006835260409586822090875191613b1b836138aa565b8054916001600160a01b03938484169384825260a01c93848983015267ffffffffffffffff60018501548d8882169085015260a01c1680606084015260036002860154956080850196868116885260801c60a086015201549560c084019687528215613d255790613b8c929161573e565b15613d1857519151613bc39291169084167f0000000000000000000000000000000000000000000000000000000000000000613d37565b5192834710613cbb578280809381931695865af1613bdf613e6c565b5015613c385794613c2e8187867ffee2248811c172bcc1d3d747a65993c75eb11b228c85f537b1118c39432d642f97989952600686522060036000918281558260018201558260028201550155565b51908152a2600190565b6084838751907f08c379a00000000000000000000000000000000000000000000000000000000082526004820152603a60248201527f416464726573733a20756e61626c6520746f2073656e642076616c75652c207260448201527f6563697069656e74206d617920686176652072657665727465640000000000006064820152fd5b6064858951907f08c379a00000000000000000000000000000000000000000000000000000000082526004820152601d60248201527f416464726573733a20696e73756666696369656e742062616c616e63650000006044820152fd5b5093985050505050505050565b5060019c505050505050505050505050565b919060405160208101927fa9059cbb0000000000000000000000000000000000000000000000000000000084526001600160a01b038093166024830152604482015260448152608081019167ffffffffffffffff94828410868511176138c657169360c08201908111838210176138c657604052601e82527f416464726573733a206c6f772d6c6576656c2063616c6c206661696c6564000060a082015251613df292600091829182875af1613deb613e6c565b9084613eca565b8051908115159182613e39575b5050613e085750565b602490604051907f5274afe70000000000000000000000000000000000000000000000000000000082526004820152fd5b613e4c9250602080918301019101613e54565b153880613dff565b908160209103126108b5575180151581036108b55790565b3d15613ec5573d9067ffffffffffffffff82116138c65760405191613eb960207fffffffffffffffffffffffffffffffffffffffffffffffffffffffffffffffe0601f840116018461397c565b82523d6000602084013e565b606090565b91929015613f455750815115613ede575090565b3b15613ee75790565b60646040517f08c379a000000000000000000000000000000000000000000000000000000000815260206004820152601d60248201527f416464726573733a2063616c6c20746f206e6f6e2d636f6e74726163740000006044820152fd5b825190915015613f585750805190602001fd5b604051907f08c379a000000000000000000000000000000000000000000000000000000000825281602080600483015282519283602484015260005b848110613fd5575050507fffffffffffffffffffffffffffffffffffffffffffffffffffffffffffffffe0601f836000604480968601015201168101030190fd5b818101830151868201604401528593508201613f94565b91906fffffffffffffffffffffffffffffffff809316906000908282526020916006835260409586822090875191614023836138aa565b8054906001600160a01b03938483169283825260a01c93848983015260018301549067ffffffffffffffff8d840192888116845260a01c169485606085015260028501549560036080860196848916885260a087019860801c895201549760c086019889528215614220579061409992916156de565b15614211579187828e8c96956140d98b608497511682895116907f0000000000000000000000000000000000000000000000000000000000000000613d37565b808b8060045460601c955116965116975116985116905197889687957ff5d01c530000000000000000000000000000000000000000000000000000000087526004870152602486015260448501526064840152887f00000000000000000000000000000000000000000000000000000000000000001690f18015614207576141c8575b505192834710613cbb578280809381931695865af1614179613e6c565b5015613c385794613c2e8187867f198f63e1d1ed3e5166e09d668c94add9f1f6392d6a78a1b901dc892c53e808a597989952600686522060036000918281558260018201558260028201550155565b8581813d8311614200575b6141dd818361397c565b8101031261081257516bffffffffffffffffffffffff8116036108ba573861415c565b503d6141d3565b89513d86823e3d90fd5b50959a50505050505050505050565b5060019e5050505050505050505050505050565b908160209103126108b557516001600160a01b03811681036108b55790565b6fffffffffffffffffffffffffffffffff909291921660009281845260209060088252604094858120865190614288826138aa565b805460c06001600160a01b03938483169283825260a01c8882015260018401548581168c83015260a01c9081606082015267ffffffffffffffff600360028701549660808401978852015487811660a084015260a01c169283910152821561436f57906142f5929161573e565b15614365575192834710613cbb578280809381931695865af1614316613e6c565b5015613c385794613c2e8187867fa565d62c821b741407824bd7b75f4c08c3e499f3450d57f78927253e6513968a97989952600886522060036000918281558260018201558260028201550155565b5090955050505050565b50600199505050505050505050565b91906fffffffffffffffffffffffffffffffff6000931690818452602090600882526040948581208651906143b2826138aa565b80546001600160a01b0392838216918282528782019060a01c815260018401549260c08c840194878116865260a01c80606086015260036002880154976080870198895201549467ffffffffffffffff60a08201968a8116885260a01c1692839101528215613d25579061442692916156de565b15613d1857847f000000000000000000000000000000000000000000000000000000000000000016856bffffffffffffffffffffffff8160045460601c96511693511693511693813b156145405791876064928195948f5197889687957fc67f1a35000000000000000000000000000000000000000000000000000000008752600487015260248601526044850152f180156142075761452d575b505192834710613cbb578280809381931695865af16144de613e6c565b5015613c385794613c2e8187867f7e9b6633e18cfc37f865e76f44e6d92a23b2137b1935ffac0ec36c7d682a3ef997989952600886522060036000918281558260018201558260028201550155565b614539909391936138f5565b91386144c1565b8780fd5b91906fffffffffffffffffffffffffffffffff80931690600090828252602091600a835260409586822090875161457a8161395f565b8254916001600160a01b03938484169384845260a01c8884015260018101548581168c85015260a01c93846060850152600282015491600467ffffffffffffffff608087019480600f0b865260801c16918260a08801528860038201541660c088015201549560e086019687528215613d2557906145f8929161573e565b15613d18575190848683600f0b13614680575b505050505192834710613cbb578280809381931695865af161462b613e6c565b5015613c385794613c2e8187867fabe7a1c3664ecca5b621221e58bb3929ed234ae77cef4f7af0ed4c14243539ed97989952600a86522060046000918281558260018201558260028201558260038201550155565b6146af9351169116907f0000000000000000000000000000000000000000000000000000000000000000613d37565b3880808461460b565b919060006fffffffffffffffffffffffffffffffff80941691828252602091600a83526040958682208751906146ed8261395f565b8054926001600160a01b0393848116918285528885019160a01c82526001840154908c860191878116835260a01c9384606088015260028601549467ffffffffffffffff608089019680600f0b885260801c16908160a08a015260e060048b60038b0154169960c08c019a8b52015499019889528215614220579061477292916156de565b156142115783518881600f0b136148b1575b5050857f00000000000000000000000000000000000000000000000000000000000000001690866bffffffffffffffffffffffff8160045460601c9351169451169451600f0b955116823b156148ad57608492899594928f9287935198899788967fae39e59c0000000000000000000000000000000000000000000000000000000088526004880152602487015260448601526064850152f180156142075761489a575b505192834710613cbb578280809381931695865af1614845613e6c565b5015613c385794613c2e8187867fc6beebe7cb845fe82f56b83c4dcbdf0e872b01b4fcadf341cec2e6d6c3b2920497989952600a86522060046000918281558260018201558260028201558260038201550155565b6148a6909391936138f5565b9138614828565b8880fd5b6148e291888451169116907f0000000000000000000000000000000000000000000000000000000000000000613d37565b3880614784565b91906fffffffffffffffffffffffffffffffff80931690600090828252602091600c83526040958682209087519161492083613909565b8054916001600160a01b03938484169384825260a01c93848983015267ffffffffffffffff60018501548d8882169085015260a01c16806060840152600384600287015416956080850196875201549560a084019687528215613d255790614988929161573e565b15613d18575191516149bf9291169084167f0000000000000000000000000000000000000000000000000000000000000000613d37565b5192834710613cbb578280809381931695865af16149db613e6c565b5015613c385794613c2e8187867f8ad3c4b0a5fd9052f2a4d44fe5bf4a51281f3c7dac6854f562ef60c714b22d7197989952600c86522060036000918281558260018201558260028201550155565b919060006fffffffffffffffffffffffffffffffff80941691828252602091600c835260409586822090875191614a6083613909565b8054906001600160a01b03938483169283825260a01c93848983015260018301549367ffffffffffffffff8d840195888116875260a01c16806060850152600383600287015416956080860196875201549660a085019788528215614c185790614aca92916156de565b15614c0a57614b018685511682855116907f0000000000000000000000000000000000000000000000000000000000000000613d37565b857f00000000000000000000000000000000000000000000000000000000000000001690868060045460601c96511693511693511693813b156145405791876064928195948f5197889687957f8c96742e000000000000000000000000000000000000000000000000000000008752600487015260248601526044850152f1801561420757614bf7575b505192834710613cbb578280809381931695865af1614ba8613e6c565b5015613c385794613c2e8187867fba50fd05e76c1c6a567282181df6b166e9d3a16b581f4b374b5f4c755da09a3297989952600c86522060036000918281558260018201558260028201550155565b614c03909391936138f5565b9138614b8b565b509499505050505050505050565b5060019d50505050505050505050505050565b91906fffffffffffffffffffffffffffffffff80931690600090828252602091600e835260409586822090875190614c62826138aa565b8254908960c060046001600160a01b039667ffffffffffffffff8887169687895260a01c94858d8a01526001830154908a8216908a015260a01c169485606089015260028201541660808801528760038201541660a088015201549401938452821561436f5790614cd3929161573e565b15614365575192834710613cbb578280809381931695865af1614cf4613e6c565b5015613c385794613c2e8187867fd757be4001f228cd845b2085f43bb971a0b40a38fb5303a1d5d5d8bcaddacb1e97989952600e86522060046000918281558260018201558260028201558260038201550155565b919060006fffffffffffffffffffffffffffffffff80941691828252602091600e835260409586822090875191614d7f836138aa565b80546001600160a01b03938482169182825260a01c938489830152600184015467ffffffffffffffff8d840191888116835260a01c16938460608501528260028701541694608085019586526004896003890154169760a0870198895201549760c0860198895282156142205790614df792916156de565b156142115786807f00000000000000000000000000000000000000000000000000000000000000001692818060045460601c945116955116955116955116823b156148ad57608492899594928f9287935198899788967f10e8667b0000000000000000000000000000000000000000000000000000000088526004880152602487015260448601526064850152f1801561420757614f02575b505192834710613cbb578280809381931695865af1614ead613e6c565b5015613c385794613c2e8187867f8de768f9b33756dbbacb995d1363ac577be55e47b6e92dca7125572177d19b9897989952600e86522060046000918281558260018201558260028201558260038201550155565b614f0e909391936138f5565b9138614e90565b91906fffffffffffffffffffffffffffffffff8093169060009082825260209160108352604095868220908751614f4b81613925565b8254916001600160a01b03938484169384845260a01c938489850152856001830154168c8501526002820154916060850192848116845260801c6080860152600460038201549188831660a088015260ff67ffffffffffffffff8460a01c16938460c08a015260e01c1660e088015201549561010086019687528215613d255790614fd6929161573e565b15613d185751168381615058575b5050505192834710613cbb578280809381931695865af1615003613e6c565b5015613c385794613c2e8187867f1d2411b4fc976d9755a4d5545721e601627259840a9bd777bc54f32a715e943797989952601086522060046000918281558260018201558260028201558260038201550155565b6150849251167f0000000000000000000000000000000000000000000000000000000000000000613d37565b388083614fe4565b91906fffffffffffffffffffffffffffffffff80931690600090828252602091601083526040958682209087516150c281613925565b8254906001600160a01b03938483169283835260a01c93848984015285600183015416928c810193845260028301549360608201948381168652608083019060801c815260038501549660a08401958a89168752600467ffffffffffffffff8a60a01c16918260c088015260ff60e088019b60e01c168b5201549961010086019a8b528215615306579061515692916156de565b156152f55791898f9260a49386958f978d908b5116806152c1575b508060045460601c945116955116968060ff8d51169b51169151169151998a9788967f2a5a2cca000000000000000000000000000000000000000000000000000000008852600488015260248701526044860152606485015260848401528a7f00000000000000000000000000000000000000000000000000000000000000001690f19182156152b7579085918793615298575b5051169081615283575b5050505192834710613cbb578280809381931695865af161522e613e6c565b5015613c385794613c2e8187867fd823544a6dbeaf74c21aebad1e3a3100667ffaa00ed597cade81b8752f8d885197989952601086522060046000918281558260018201558260028201558260038201550155565b60ff6152909351166157e5565b38808061520f565b6152b0919350893d8b1161087757610869818361397c565b9138615205565b8b513d88823e3d90fd5b6152ee918551167f0000000000000000000000000000000000000000000000000000000000000000613d37565b8c38615171565b50979c505050505050505050505050565b505050505050505050505050505050509050600190565b91906fffffffffffffffffffffffffffffffff809316906000908282526020916012835260409586822087519061535382613942565b8054906001600160a01b03938483169283855260a01c908189860152856001840154168c8601526002830154908116606086015260801c6080850152610120600560038401549387851660a088015260ff67ffffffffffffffff8660a01c16958660c08a015260e01c1660e08801528760048201541661010088015201549401938452821561436f57906153e7929161573e565b15614365575192834710613cbb578280809381931695865af1615408613e6c565b5015613c385794613c2e8187867f372e16d70372816ee6c454150cba924501c25eef247ab095e5122c2ff94b829e97989952601286522060056000918281558260018201558260028201558260038201558260048201550155565b91906fffffffffffffffffffffffffffffffff80931690600090828252602091601283526040958682209087519061549a82613942565b8254926001600160a01b03938481169081855260a01c938489820152856001840154168c820190815260028401549360608301948681168652608084019060801c815260038201549660a08501958a8916875267ffffffffffffffff8960a01c168060c088015260ff60e088019a60e01c168a5260058c60048701541695610100890196875201549a61012088019b8c5282156156c6579061553c92916156de565b156156b4578f93889460c4948f97948d8f958060ff838060045460601c9951169a51169b51169d511692511692511692519a8b9889977ff86786f10000000000000000000000000000000000000000000000000000000089526004890152602488015260448701526064860152608485015260a48401528a7f00000000000000000000000000000000000000000000000000000000000000001690f19182156152b7579085918793615695575b505116908161566d575b5050505192834710613cbb578280809381931695865af1615612613e6c565b5015613c385794613c2e8187867fae2f4e8d71ebd4f16a1f64c53cbc445aafae176f0052a2de3b2772bc70e71a7397989952601286522060056000918281558260018201558260028201558260038201558260048201550155565b600160ff6156869451161460001461568e5760026157e5565b3880806155f3565b60016157e5565b6156ad919350893d8b1161087757610869818361397c565b91386155e9565b50989d50505050505050505050505050565b50505050505050505050505050505050509050600190565b92919063ffffffff60045460401c168101938482116139de574285111561570d5761570a93945061573e565b90565b602485604051907ff80dbaea0000000000000000000000000000000000000000000000000000000082526004820152fd5b91909130331480156157cd575b6157b257506001600160a01b031633036108255763ffffffff60045460201c1681018091116139de574281116157815750600190565b602490604051907f2a35a3240000000000000000000000000000000000000000000000000000000082526004820152fd5b91505063ffffffff6004541681018091116139de5743101590565b5033600052600560205260ff6040600020541661574b565b60ff1660018114908161586c575b8115615846575b50615803575050565b60449250604051917f740579100000000000000000000000000000000000000000000000000000000083526001600160a01b038092166004840152166024820152fd5b600291501480615857575b386157fa565b506001600160a01b0380831690821610615851565b6001600160a01b038481169084161191506157f3565b60ff166001811415806158c8575b6158975750565b602490604051907f7006e8950000000000000000000000000000000000000000000000000000000082526004820152fd5b50600281141561589056fea26469706673582212209620fb81d6ad10a7742fd8be9a106f15957b1b3b1305a6e94b05b282beb9468b64736f6c63430008150033","opcodes":"PUSH1 0xC0 CALLVALUE PUSH3 0x1C1 JUMPI PUSH1 0x1F PUSH3 0x5AE6 CODESIZE DUP2 SWAP1 SUB SWAP2 DUP3 ADD PUSH1 0x1F NOT AND DUP4 ADD SWAP2 PUSH1 0x1 PUSH1 0x1 PUSH1 0x40 SHL SUB DUP4 GT DUP5 DUP5 LT OR PUSH3 0x1C6 JUMPI DUP1 DUP5 SWAP3 PUSH1 0x60 SWAP5 PUSH1 0x40 MSTORE DUP4 CODECOPY DUP2 ADD SUB SLT PUSH3 0x1C1 JUMPI DUP1 MLOAD SWAP1 PUSH1 0x1 PUSH1 0x1 PUSH1 0xA0 SHL SUB DUP1 DUP4 AND DUP4 SUB PUSH3 0x1C1 JUMPI PUSH1 0x20 DUP3 ADD MLOAD SWAP3 DUP2 DUP5 AND DUP5 SUB PUSH3 0x1C1 JUMPI PUSH32 0xACE0E51322D77A7556AE0CF8F6528FDD3385E33D2951DC3C9CAB391EB76B948C SWAP4 PUSH1 0x40 PUSH1 0x20 SWAP5 ADD MLOAD SWAP2 PUSH1 0x0 SLOAD CALLER PUSH1 0x1 DUP1 PUSH1 0xA0 SHL SUB NOT DUP3 AND OR PUSH1 0x0 SSTORE PUSH1 0x40 MLOAD SWAP5 CALLER SWAP2 AND PUSH32 0x3D1E4C3A68FED9F4F8315582B7297CF8FA264BC8E6704287603BA8C72BF05AC2 PUSH1 0x0 DUP1 LOG3 PUSH1 0x1 PUSH1 0x2 SSTORE PUSH15 0xF424000000708000000B400000000 PUSH4 0xFFFFFFFF PUSH1 0x4 SLOAD AND OR PUSH1 0x4 SSTORE PUSH1 0x80 MSTORE PUSH1 0xA0 MSTORE DUP1 PUSH1 0x3 SSTORE DUP2 MSTORE LOG1 PUSH1 0x40 MLOAD PUSH2 0x5909 SWAP1 DUP2 PUSH3 0x1DD DUP3 CODECOPY PUSH1 0x80 MLOAD DUP2 DUP2 DUP2 PUSH2 0x78E ADD MSTORE DUP2 DUP2 PUSH2 0xC42 ADD MSTORE DUP2 DUP2 PUSH2 0x1929 ADD MSTORE DUP2 DUP2 PUSH2 0x2217 ADD MSTORE DUP2 DUP2 PUSH2 0x29B1 ADD MSTORE DUP2 DUP2 PUSH2 0x3B9F ADD MSTORE DUP2 DUP2 PUSH2 0x40B5 ADD MSTORE DUP2 DUP2 PUSH2 0x468B ADD MSTORE DUP2 DUP2 PUSH2 0x48BE ADD MSTORE DUP2 DUP2 PUSH2 0x499B ADD MSTORE DUP2 DUP2 PUSH2 0x4ADD ADD MSTORE DUP2 DUP2 PUSH2 0x5060 ADD MSTORE PUSH2 0x52CA ADD MSTORE PUSH1 0xA0 MLOAD DUP2 DUP2 DUP2 PUSH2 0x307 ADD MSTORE DUP2 DUP2 PUSH2 0x73F ADD MSTORE DUP2 DUP2 PUSH2 0x18DA ADD MSTORE DUP2 DUP2 PUSH2 0x21C8 ADD MSTORE DUP2 DUP2 PUSH2 0x2962 ADD MSTORE DUP2 DUP2 PUSH2 0x412F ADD MSTORE DUP2 DUP2 PUSH2 0x442E ADD MSTORE DUP2 DUP2 PUSH2 0x4789 ADD MSTORE DUP2 DUP2 PUSH2 0x4B04 ADD MSTORE DUP2 DUP2 PUSH2 0x4E00 ADD MSTORE DUP2 DUP2 PUSH2 0x51D2 ADD MSTORE PUSH2 0x55B6 ADD MSTORE RETURN JUMPDEST PUSH1 0x0 DUP1 REVERT JUMPDEST PUSH4 0x4E487B71 PUSH1 0xE0 SHL PUSH1 0x0 MSTORE PUSH1 0x41 PUSH1 0x4 MSTORE PUSH1 0x24 PUSH1 0x0 REVERT INVALID PUSH1 0x80 PUSH1 0x40 MSTORE PUSH1 0x4 CALLDATASIZE LT ISZERO PUSH2 0x12 JUMPI PUSH1 0x0 DUP1 REVERT JUMPDEST PUSH1 0x0 DUP1 CALLDATALOAD PUSH1 0xE0 SHR DUP1 PUSH4 0x1D6B349 EQ PUSH2 0x374C JUMPI DUP1 PUSH4 0x4CD5387 EQ PUSH2 0x36EB JUMPI DUP1 PUSH4 0x12D43A51 EQ PUSH2 0x36C5 JUMPI DUP1 PUSH4 0x206C30E8 EQ PUSH2 0x33A5 JUMPI DUP1 PUSH4 0x25240810 EQ PUSH2 0x337E JUMPI DUP1 PUSH4 0x25D1BCEE EQ PUSH2 0x334E JUMPI DUP1 PUSH4 0x26624A41 EQ PUSH2 0x329B JUMPI DUP1 PUSH4 0x27D95C58 EQ PUSH2 0x326B JUMPI DUP1 PUSH4 0x2AAFAB32 EQ PUSH2 0x3249 JUMPI DUP1 PUSH4 0x2C8889DB EQ PUSH2 0x3227 JUMPI DUP1 PUSH4 0x376FA02E EQ PUSH2 0x31F7 JUMPI DUP1 PUSH4 0x39CB1F3E EQ PUSH2 0x31D6 JUMPI DUP1 PUSH4 0x3A2A80C7 EQ PUSH2 0x31B0 JUMPI DUP1 PUSH4 0x3C0C3698 EQ PUSH2 0x318E JUMPI DUP1 PUSH4 0x3D5B4799 EQ PUSH2 0x316C JUMPI DUP1 PUSH4 0x468EBCB0 EQ PUSH2 0x313C JUMPI DUP1 PUSH4 0x46B3EF1F EQ PUSH2 0x311B JUMPI DUP1 PUSH4 0x4C3FACF3 EQ PUSH2 0x30FA JUMPI DUP1 PUSH4 0x5567C2F7 EQ PUSH2 0x302B JUMPI DUP1 PUSH4 0x56609EEA EQ PUSH2 0x2D6A JUMPI DUP1 PUSH4 0x5C845F80 EQ PUSH2 0x2D49 JUMPI DUP1 PUSH4 0x5D585EDC EQ PUSH2 0x2D19 JUMPI DUP1 PUSH4 0x5DFFF234 EQ PUSH2 0x2C83 JUMPI DUP1 PUSH4 0x62D25345 EQ PUSH2 0x2926 JUMPI DUP1 PUSH4 0x63AE2103 EQ PUSH2 0x2908 JUMPI DUP1 PUSH4 0x6C525501 EQ PUSH2 0x272D JUMPI DUP1 PUSH4 0x6F707C75 EQ PUSH2 0x2552 JUMPI DUP1 PUSH4 0x729E73DA EQ PUSH2 0x24B5 JUMPI DUP1 PUSH4 0x753363BC EQ PUSH2 0x2485 JUMPI DUP1 PUSH4 0x784050E1 EQ PUSH2 0x22AA JUMPI DUP1 PUSH4 0x79A552A1 EQ PUSH2 0x1E60 JUMPI DUP1 PUSH4 0x7B5402C6 EQ PUSH2 0x1C85 JUMPI DUP1 PUSH4 0x7BC6729B EQ PUSH2 0x1C05 JUMPI DUP1 PUSH4 0x808E7082 EQ PUSH2 0x1894 JUMPI DUP1 PUSH4 0x83011CB6 EQ PUSH2 0x16B9 JUMPI DUP1 PUSH4 0x868E45B7 EQ PUSH2 0x1698 JUMPI DUP1 PUSH4 0x890143C5 EQ PUSH2 0x14BD JUMPI DUP1 PUSH4 0x8ABB40AE EQ PUSH2 0x149C JUMPI DUP1 PUSH4 0x948F9F75 EQ PUSH2 0x146C JUMPI DUP1 PUSH4 0xA11DA384 EQ PUSH2 0x144A JUMPI DUP1 PUSH4 0xA8C4AEC8 EQ PUSH2 0x1428 JUMPI DUP1 PUSH4 0xA962EF1E EQ PUSH2 0x13A6 JUMPI DUP1 PUSH4 0xB5D6BCA7 EQ PUSH2 0x1382 JUMPI DUP1 PUSH4 0xB6EE0C3A EQ PUSH2 0x1345 JUMPI DUP1 PUSH4 0xB79AAC79 EQ PUSH2 0x1323 JUMPI DUP1 PUSH4 0xBB11D2D0 EQ PUSH2 0x1302 JUMPI DUP1 PUSH4 0xC2B37CCB EQ PUSH2 0x1272 JUMPI DUP1 PUSH4 0xC42ACADC EQ PUSH2 0x1250 JUMPI DUP1 PUSH4 0xC44FA0FB EQ PUSH2 0x122E JUMPI DUP1 PUSH4 0xCB0269C9 EQ PUSH2 0x1207 JUMPI DUP1 PUSH4 0xCB7AD971 EQ PUSH2 0xDEA JUMPI DUP1 PUSH4 0xCFD8B2E1 EQ PUSH2 0xD4C JUMPI DUP1 PUSH4 0xD307F03F EQ PUSH2 0xCFE JUMPI DUP1 PUSH4 0xD3D615BC EQ PUSH2 0xC66 JUMPI DUP1 PUSH4 0xD63A6CCD EQ PUSH2 0xC22 JUMPI DUP1 PUSH4 0xD6E9DCB4 EQ PUSH2 0xC00 JUMPI DUP1 PUSH4 0xDE8B1109 EQ PUSH2 0xBDE JUMPI DUP1 PUSH4 0xDEF66C4E EQ PUSH2 0xB1D JUMPI DUP1 PUSH4 0xE001DDF5 EQ PUSH2 0xAFB JUMPI DUP1 PUSH4 0xE03D62AE EQ PUSH2 0x910 JUMPI DUP1 PUSH4 0xE54386EA EQ PUSH2 0x8DF JUMPI DUP1 PUSH4 0xE59E4D70 EQ PUSH2 0x8BE JUMPI DUP1 PUSH4 0xE7B5BD44 EQ PUSH2 0x3D3 JUMPI DUP1 PUSH4 0xE97EC8AD EQ PUSH2 0x32E JUMPI PUSH4 0xF887EA40 EQ PUSH2 0x2E8 JUMPI PUSH1 0x0 DUP1 REVERT JUMPDEST CALLVALUE PUSH2 0x32B JUMPI DUP1 PUSH1 0x3 NOT CALLDATASIZE ADD SLT PUSH2 0x32B JUMPI PUSH1 0x20 PUSH1 0x40 MLOAD PUSH1 0x1 PUSH1 0x1 PUSH1 0xA0 SHL SUB PUSH32 0x0 AND DUP2 MSTORE RETURN JUMPDEST DUP1 REVERT JUMPDEST POP CALLVALUE PUSH2 0x32B JUMPI PUSH1 0x20 PUSH1 0x3 NOT CALLDATASIZE ADD SLT PUSH2 0x32B JUMPI PUSH1 0x40 PUSH2 0x100 SWAP2 PUSH16 0xFFFFFFFFFFFFFFFFFFFFFFFFFFFFFFFF PUSH2 0x35F PUSH2 0x376E JUMP JUMPDEST AND DUP2 MSTORE PUSH1 0xA PUSH1 0x20 MSTORE KECCAK256 DUP1 SLOAD SWAP1 PUSH1 0x1 PUSH1 0x1 PUSH1 0xA0 SHL SUB SWAP1 PUSH8 0xFFFFFFFFFFFFFFFF PUSH1 0x1 DUP3 ADD SLOAD PUSH1 0x2 DUP4 ADD SLOAD SWAP1 PUSH1 0x4 DUP6 PUSH1 0x3 DUP7 ADD SLOAD AND SWAP5 ADD SLOAD SWAP5 PUSH1 0x40 MLOAD SWAP7 DUP2 DUP2 AND DUP9 MSTORE PUSH1 0xA0 SHR PUSH1 0x20 DUP9 ADD MSTORE DUP2 AND PUSH1 0x40 DUP8 ADD MSTORE PUSH1 0xA0 SHR PUSH1 0x60 DUP7 ADD MSTORE DUP1 PUSH1 0xF SIGNEXTEND PUSH1 0x80 DUP7 ADD MSTORE PUSH1 0x80 SHR AND PUSH1 0xA0 DUP5 ADD MSTORE PUSH1 0xC0 DUP4 ADD MSTORE PUSH1 0xE0 DUP3 ADD MSTORE RETURN JUMPDEST POP PUSH1 0x80 PUSH1 0x3 NOT CALLDATASIZE ADD SLT PUSH2 0x32B JUMPI PUSH2 0x3E8 PUSH2 0x3829 JUMP JUMPDEST SWAP1 PUSH2 0x3F1 PUSH2 0x3855 JUMP JUMPDEST SWAP2 PUSH1 0x44 CALLDATALOAD SWAP3 DUP4 PUSH1 0xF SIGNEXTEND DUP5 SUB PUSH2 0x8BA JUMPI PUSH1 0x64 CALLDATALOAD SWAP4 PUSH1 0x1 PUSH1 0x1 PUSH1 0xA0 SHL SUB DUP6 AND DUP6 SUB PUSH2 0x8B5 JUMPI PUSH2 0x41C PUSH2 0x3A0D JUMP JUMPDEST PUSH1 0x3 SLOAD DUP1 CALLVALUE LT PUSH2 0x87E JUMPI POP PUSH1 0x40 MLOAD PUSH32 0x5186D6D200000000000000000000000000000000000000000000000000000000 DUP2 MSTORE PUSH12 0xFFFFFFFFFFFFFFFFFFFFFFFF DUP4 AND PUSH1 0x4 DUP3 ADD MSTORE PUSH1 0x20 DUP2 PUSH1 0x24 DUP2 PUSH1 0x1 PUSH1 0x1 PUSH1 0xA0 SHL SUB DUP9 AND GAS STATICCALL SWAP1 DUP2 ISZERO PUSH2 0x816 JUMPI DUP6 SWAP2 PUSH2 0x84F JUMPI JUMPDEST POP PUSH1 0x1 PUSH1 0x1 PUSH1 0xA0 SHL SUB CALLER SWAP2 AND SUB PUSH2 0x825 JUMPI DUP4 DUP2 PUSH1 0xF SIGNEXTEND SGT PUSH2 0x735 JUMPI JUMPDEST PUSH1 0x20 SWAP5 PUSH1 0x1 PUSH1 0x1 PUSH1 0xA0 SHL SUB SWAP2 PUSH1 0xB SLOAD SWAP6 PUSH32 0xFFFFFFFFFFFFFFFFFFFFFFFFFFFFFFFF00000000000000000000000000000000 PUSH2 0x4DA DUP9 PUSH1 0x80 SHR PUSH2 0x39BD JUMP JUMPDEST PUSH1 0x80 SHL AND PUSH16 0xFFFFFFFFFFFFFFFFFFFFFFFFFFFFFFFF DUP9 AND OR PUSH1 0xB SSTORE PUSH1 0x4 PUSH2 0x500 NUMBER PUSH2 0x3A46 JUMP JUMPDEST SWAP2 PUSH8 0xFFFFFFFFFFFFFFFF PUSH2 0x513 TIMESTAMP PUSH2 0x3A97 JUMP JUMPDEST PUSH12 0xFFFFFFFFFFFFFFFFFFFFFFFF PUSH1 0x40 MLOAD SWAP6 PUSH2 0x52D DUP8 PUSH2 0x395F JUMP JUMPDEST CALLER DUP8 MSTORE DUP2 DUP12 AND DUP15 DUP9 ADD MSTORE DUP10 DUP13 AND PUSH1 0x40 DUP9 ADD MSTORE AND PUSH1 0x60 DUP7 ADD MSTORE DUP6 PUSH1 0xF SIGNEXTEND PUSH1 0x80 DUP7 ADD MSTORE AND PUSH1 0xA0 DUP5 ADD MSTORE DUP6 DUP6 AND PUSH1 0xC0 DUP5 ADD MSTORE PUSH1 0x40 PUSH1 0xE0 DUP5 ADD SWAP2 CALLVALUE DUP4 MSTORE DUP11 PUSH1 0x80 SHR DUP2 MSTORE PUSH1 0xA DUP13 MSTORE KECCAK256 SWAP3 DUP7 DUP2 MLOAD AND PUSH32 0xFFFFFFFFFFFFFFFFFFFFFFFF0000000000000000000000000000000000000000 SWAP1 DUP2 DUP7 SLOAD AND OR DUP6 SSTORE PUSH2 0x5ED PUSH12 0xFFFFFFFFFFFFFFFFFFFFFFFF DUP14 DUP5 ADD MLOAD AND DUP7 SWAP1 PUSH1 0x1 PUSH1 0x1 PUSH1 0xA0 SHL SUB PUSH32 0xFFFFFFFFFFFFFFFFFFFFFFFF0000000000000000000000000000000000000000 DUP4 SLOAD SWAP3 PUSH1 0xA0 SHL AND SWAP2 AND OR SWAP1 SSTORE JUMP JUMPDEST PUSH2 0x64C PUSH1 0x1 DUP7 ADD DUP10 PUSH1 0x40 DUP6 ADD MLOAD AND DUP4 DUP3 SLOAD AND OR DUP2 SSTORE PUSH12 0xFFFFFFFFFFFFFFFFFFFFFFFF PUSH1 0x60 DUP6 ADD MLOAD AND PUSH1 0x1 PUSH1 0x1 PUSH1 0xA0 SHL SUB PUSH32 0xFFFFFFFFFFFFFFFFFFFFFFFF0000000000000000000000000000000000000000 DUP4 SLOAD SWAP3 PUSH1 0xA0 SHL AND SWAP2 AND OR SWAP1 SSTORE JUMP JUMPDEST PUSH1 0x2 DUP6 ADD PUSH1 0x80 DUP4 ADD MLOAD DUP2 SLOAD PUSH32 0xFFFFFFFFFFFFFFFF000000000000000000000000000000000000000000000000 PUSH16 0xFFFFFFFFFFFFFFFFFFFFFFFFFFFFFFFF PUSH24 0xFFFFFFFFFFFFFFFF00000000000000000000000000000000 PUSH1 0xA0 DUP9 ADD MLOAD PUSH1 0x80 SHL AND SWAP4 AND SWAP2 AND OR OR SWAP1 SSTORE DUP8 PUSH1 0xC0 PUSH1 0x3 DUP8 ADD SWAP4 ADD MLOAD AND SWAP1 DUP3 SLOAD AND OR SWAP1 SSTORE MLOAD SWAP2 ADD SSTORE PUSH12 0xFFFFFFFFFFFFFFFFFFFFFFFF PUSH1 0x40 MLOAD SWAP5 AND DUP5 MSTORE PUSH1 0xF SIGNEXTEND DUP7 DUP5 ADD MSTORE AND PUSH1 0x40 DUP3 ADD MSTORE CALLVALUE PUSH1 0x60 DUP3 ADD MSTORE PUSH1 0x1 PUSH1 0x1 PUSH1 0xA0 SHL SUB DUP4 PUSH1 0x80 SHR SWAP3 AND SWAP1 PUSH32 0x916EF0E1BD2557E79DF64E10A4594CD724BA26AD81374BCC80DC648B36A98A0E PUSH1 0x80 CALLER SWAP3 LOG4 PUSH1 0x1 PUSH1 0x2 SSTORE PUSH1 0x40 MLOAD SWAP1 PUSH1 0x80 SHR DUP2 MSTORE RETURN JUMPDEST PUSH1 0x1 PUSH1 0x1 PUSH1 0xA0 SHL SUB PUSH32 0x0 AND DUP1 EXTCODESIZE ISZERO PUSH2 0x821 JUMPI PUSH1 0x40 MLOAD PUSH32 0x1B82787800000000000000000000000000000000000000000000000000000000 DUP2 MSTORE PUSH32 0x0 PUSH1 0x1 PUSH1 0x1 PUSH1 0xA0 SHL SUB AND PUSH1 0x4 DUP3 ADD MSTORE CALLER PUSH1 0x24 DUP3 ADD MSTORE ADDRESS PUSH1 0x44 DUP3 ADD MSTORE PUSH16 0xFFFFFFFFFFFFFFFFFFFFFFFFFFFFFFFF DUP4 AND PUSH1 0x64 DUP3 ADD MSTORE SWAP1 DUP6 SWAP1 DUP3 SWAP1 PUSH1 0x84 SWAP1 DUP3 SWAP1 DUP5 SWAP1 GAS CALL DUP1 ISZERO PUSH2 0x816 JUMPI PUSH2 0x7FE JUMPI JUMPDEST POP PUSH2 0x49D JUMP JUMPDEST PUSH2 0x808 DUP6 SWAP2 PUSH2 0x38F5 JUMP JUMPDEST PUSH2 0x812 JUMPI CODESIZE PUSH2 0x7F8 JUMP JUMPDEST DUP4 DUP1 REVERT JUMPDEST PUSH1 0x40 MLOAD RETURNDATASIZE DUP8 DUP3 RETURNDATACOPY RETURNDATASIZE SWAP1 REVERT JUMPDEST DUP5 DUP1 REVERT JUMPDEST PUSH1 0x4 PUSH1 0x40 MLOAD PUSH32 0xEE90C46800000000000000000000000000000000000000000000000000000000 DUP2 MSTORE REVERT JUMPDEST PUSH2 0x871 SWAP2 POP PUSH1 0x20 RETURNDATASIZE PUSH1 0x20 GT PUSH2 0x877 JUMPI JUMPDEST PUSH2 0x869 DUP2 DUP4 PUSH2 0x397C JUMP JUMPDEST DUP2 ADD SWAP1 PUSH2 0x4234 JUMP JUMPDEST CODESIZE PUSH2 0x481 JUMP JUMPDEST POP RETURNDATASIZE PUSH2 0x85F JUMP JUMPDEST PUSH1 0x44 SWAP1 PUSH1 0x40 MLOAD SWAP1 PUSH32 0x5DAC504D00000000000000000000000000000000000000000000000000000000 DUP3 MSTORE CALLVALUE PUSH1 0x4 DUP4 ADD MSTORE PUSH1 0x24 DUP3 ADD MSTORE REVERT JUMPDEST PUSH1 0x0 DUP1 REVERT JUMPDEST DUP3 DUP1 REVERT JUMPDEST POP CALLVALUE PUSH2 0x32B JUMPI DUP1 PUSH1 0x3 NOT CALLDATASIZE ADD SLT PUSH2 0x32B JUMPI PUSH1 0x20 PUSH1 0x13 SLOAD PUSH1 0x80 SHR PUSH1 0x40 MLOAD SWAP1 DUP2 MSTORE RETURN JUMPDEST POP CALLVALUE PUSH2 0x32B JUMPI PUSH1 0x20 PUSH2 0x901 PUSH2 0x8F3 CALLDATASIZE PUSH2 0x37EA JUMP JUMPDEST SWAP1 PUSH2 0x8FC PUSH2 0x3A0D JUMP JUMPDEST PUSH2 0x5463 JUMP JUMPDEST PUSH1 0x1 PUSH1 0x2 SSTORE PUSH1 0x40 MLOAD SWAP1 ISZERO ISZERO DUP2 MSTORE RETURN JUMPDEST POP CALLVALUE PUSH2 0x32B JUMPI PUSH2 0x91F CALLDATASIZE PUSH2 0x37EA JUMP JUMPDEST CALLER DUP4 MSTORE PUSH1 0x20 SWAP1 PUSH1 0x5 DUP3 MSTORE PUSH1 0xFF PUSH1 0x40 DUP6 KECCAK256 SLOAD AND ISZERO PUSH2 0x825 JUMPI PUSH1 0x11 SLOAD PUSH16 0xFFFFFFFFFFFFFFFFFFFFFFFFFFFFFFFF SWAP4 DUP5 DUP3 AND SWAP4 SWAP2 DUP6 SWAP2 DUP3 AND SWAP1 PUSH1 0x80 SHR DUP1 DUP3 LT ISZERO PUSH2 0xAF1 JUMPI POP SWAP3 SWAP2 SWAP3 JUMPDEST AND SWAP2 JUMPDEST DUP5 DUP4 DUP2 DUP7 AND LT PUSH2 0x9A4 JUMPI JUMPDEST POP POP POP POP AND PUSH32 0xFFFFFFFFFFFFFFFFFFFFFFFFFFFFFFFF00000000000000000000000000000000 PUSH1 0x11 SLOAD AND OR PUSH1 0x11 SSTORE DUP1 RETURN JUMPDEST PUSH1 0x40 MLOAD PUSH32 0x1D6B34900000000000000000000000000000000000000000000000000000000 DUP2 MSTORE PUSH16 0xFFFFFFFFFFFFFFFFFFFFFFFFFFFFFFFF DUP7 AND PUSH1 0x4 DUP3 ADD MSTORE PUSH1 0x1 PUSH1 0x1 PUSH1 0xA0 SHL SUB DUP5 AND PUSH1 0x24 DUP3 ADD MSTORE SWAP4 SWAP5 SWAP3 SWAP4 SWAP2 SWAP3 SWAP1 SWAP2 DUP4 DUP2 PUSH1 0x44 DUP2 DUP12 ADDRESS GAS CALL DUP9 SWAP2 DUP2 PUSH2 0xAD2 JUMPI JUMPDEST POP PUSH2 0xAC5 JUMPI POP PUSH1 0x40 MLOAD PUSH32 0xE001DDF500000000000000000000000000000000000000000000000000000000 DUP2 MSTORE PUSH16 0xFFFFFFFFFFFFFFFFFFFFFFFFFFFFFFFF DUP3 AND PUSH1 0x4 DUP3 ADD MSTORE PUSH1 0x1 PUSH1 0x1 PUSH1 0xA0 SHL SUB DUP6 AND PUSH1 0x24 DUP3 ADD MSTORE DUP4 DUP2 PUSH1 0x44 DUP2 DUP12 ADDRESS GAS CALL DUP9 SWAP2 DUP2 PUSH2 0xA96 JUMPI JUMPDEST POP PUSH2 0xA83 JUMPI JUMPDEST POP PUSH1 0x1 SWAP1 JUMPDEST ADD AND SWAP3 SWAP2 SWAP1 PUSH2 0x968 JUMP JUMPDEST ISZERO PUSH2 0xA8E JUMPI CODESIZE PUSH2 0xA74 JUMP JUMPDEST SWAP4 POP DUP1 PUSH2 0x973 JUMP JUMPDEST PUSH2 0xAB7 SWAP2 SWAP3 POP DUP6 RETURNDATASIZE DUP8 GT PUSH2 0xABE JUMPI JUMPDEST PUSH2 0xAAF DUP2 DUP4 PUSH2 0x397C JUMP JUMPDEST DUP2 ADD SWAP1 PUSH2 0x3E54 JUMP JUMPDEST SWAP1 CODESIZE PUSH2 0xA6E JUMP JUMPDEST POP RETURNDATASIZE PUSH2 0xAA5 JUMP JUMPDEST ISZERO PUSH2 0xA8E JUMPI PUSH1 0x1 SWAP1 PUSH2 0xA79 JUMP JUMPDEST PUSH2 0xAEA SWAP2 SWAP3 POP DUP6 RETURNDATASIZE DUP8 GT PUSH2 0xABE JUMPI PUSH2 0xAAF DUP2 DUP4 PUSH2 0x397C JUMP JUMPDEST SWAP1 CODESIZE PUSH2 0xA0A JUMP JUMPDEST SWAP1 POP SWAP3 SWAP2 SWAP3 PUSH2 0x965 JUMP JUMPDEST POP CALLVALUE PUSH2 0x32B JUMPI PUSH1 0x20 PUSH2 0x901 PUSH2 0xB0F CALLDATASIZE PUSH2 0x37EA JUMP JUMPDEST SWAP1 PUSH2 0xB18 PUSH2 0x3A0D JUMP JUMPDEST PUSH2 0x4F15 JUMP JUMPDEST POP CALLVALUE PUSH2 0x32B JUMPI PUSH1 0x20 PUSH1 0x3 NOT CALLDATASIZE ADD SLT PUSH2 0x32B JUMPI PUSH2 0x140 SWAP1 PUSH1 0x40 PUSH16 0xFFFFFFFFFFFFFFFFFFFFFFFFFFFFFFFF SWAP2 DUP3 PUSH2 0xB50 PUSH2 0x376E JUMP JUMPDEST AND DUP2 MSTORE PUSH1 0x12 PUSH1 0x20 MSTORE KECCAK256 SWAP1 DUP2 SLOAD SWAP2 PUSH1 0xFF PUSH1 0x1 PUSH1 0x1 PUSH1 0xA0 SHL SUB SWAP3 DUP4 PUSH1 0x1 DUP5 ADD SLOAD AND SWAP4 PUSH1 0x2 DUP5 ADD SLOAD PUSH1 0x3 DUP6 ADD SLOAD SWAP3 PUSH1 0x5 DUP4 PUSH1 0x4 DUP9 ADD SLOAD AND SWAP7 ADD SLOAD SWAP7 PUSH1 0x40 MLOAD SWAP9 DUP5 DUP2 AND DUP11 MSTORE PUSH1 0xA0 SHR PUSH1 0x20 DUP11 ADD MSTORE PUSH1 0x40 DUP10 ADD MSTORE DUP2 AND PUSH1 0x60 DUP9 ADD MSTORE PUSH1 0x80 SHR PUSH1 0x80 DUP8 ADD MSTORE DUP2 AND PUSH1 0xA0 DUP7 ADD MSTORE PUSH8 0xFFFFFFFFFFFFFFFF DUP2 PUSH1 0xA0 SHR AND PUSH1 0xC0 DUP7 ADD MSTORE PUSH1 0xE0 SHR AND PUSH1 0xE0 DUP5 ADD MSTORE PUSH2 0x100 DUP4 ADD MSTORE PUSH2 0x120 DUP3 ADD MSTORE RETURN JUMPDEST POP CALLVALUE PUSH2 0x32B JUMPI PUSH1 0x20 PUSH2 0x901 PUSH2 0xBF2 CALLDATASIZE PUSH2 0x37EA JUMP JUMPDEST SWAP1 PUSH2 0xBFB PUSH2 0x3A0D JUMP JUMPDEST PUSH2 0x4544 JUMP JUMPDEST POP CALLVALUE PUSH2 0x32B JUMPI PUSH1 0x20 PUSH2 0x901 PUSH2 0xC14 CALLDATASIZE PUSH2 0x37EA JUMP JUMPDEST SWAP1 PUSH2 0xC1D PUSH2 0x3A0D JUMP JUMPDEST PUSH2 0x531D JUMP JUMPDEST POP CALLVALUE PUSH2 0x32B JUMPI DUP1 PUSH1 0x3 NOT CALLDATASIZE ADD SLT PUSH2 0x32B JUMPI PUSH1 0x20 PUSH1 0x40 MLOAD PUSH1 0x1 PUSH1 0x1 PUSH1 0xA0 SHL SUB PUSH32 0x0 AND DUP2 MSTORE RETURN JUMPDEST POP CALLVALUE PUSH2 0x32B JUMPI PUSH1 0x20 PUSH1 0x3 NOT CALLDATASIZE ADD SLT PUSH2 0x32B JUMPI PUSH1 0xE0 SWAP1 PUSH1 0x40 PUSH16 0xFFFFFFFFFFFFFFFFFFFFFFFFFFFFFFFF SWAP2 DUP3 PUSH2 0xC98 PUSH2 0x376E JUMP JUMPDEST AND DUP2 MSTORE PUSH1 0x6 PUSH1 0x20 MSTORE KECCAK256 SWAP1 DUP2 SLOAD SWAP2 PUSH1 0x1 PUSH1 0x1 PUSH1 0xA0 SHL SUB SWAP2 PUSH8 0xFFFFFFFFFFFFFFFF PUSH1 0x1 DUP4 ADD SLOAD PUSH1 0x3 PUSH1 0x2 DUP6 ADD SLOAD SWAP5 ADD SLOAD SWAP5 PUSH1 0x40 MLOAD SWAP7 DUP2 DUP2 AND DUP9 MSTORE PUSH1 0xA0 SHR PUSH1 0x20 DUP9 ADD MSTORE DUP2 AND PUSH1 0x40 DUP8 ADD MSTORE PUSH1 0xA0 SHR AND PUSH1 0x60 DUP6 ADD MSTORE DUP2 AND PUSH1 0x80 DUP5 ADD MSTORE PUSH1 0x80 SHR PUSH1 0xA0 DUP4 ADD MSTORE PUSH1 0xC0 DUP3 ADD MSTORE RETURN JUMPDEST POP CALLVALUE PUSH2 0x32B JUMPI PUSH1 0x20 PUSH1 0x3 NOT CALLDATASIZE ADD SLT PUSH2 0x32B JUMPI PUSH32 0xACE0E51322D77A7556AE0CF8F6528FDD3385E33D2951DC3C9CAB391EB76B948C PUSH1 0x20 PUSH1 0x4 CALLDATALOAD PUSH2 0xD3E PUSH2 0x3896 JUMP JUMPDEST DUP1 PUSH1 0x3 SSTORE PUSH1 0x40 MLOAD SWAP1 DUP2 MSTORE LOG1 DUP1 RETURN JUMPDEST POP CALLVALUE PUSH2 0x32B JUMPI PUSH1 0x40 PUSH1 0x3 NOT CALLDATASIZE ADD SLT PUSH2 0x32B JUMPI PUSH2 0xD66 PUSH2 0x3829 JUMP JUMPDEST PUSH1 0x24 CALLDATALOAD SWAP1 DUP2 ISZERO ISZERO DUP1 SWAP3 SUB PUSH2 0x8BA JUMPI PUSH1 0x20 PUSH1 0x1 PUSH1 0x1 PUSH1 0xA0 SHL SUB PUSH32 0x3707AF22B3AEB6F4E368F52E62C4E9AB2ADDBADF6F9DE7D9D1D24BC0B8456D82 SWAP3 PUSH2 0xDA8 PUSH2 0x3896 JUMP JUMPDEST AND SWAP3 DUP4 DUP6 MSTORE PUSH1 0x5 DUP3 MSTORE PUSH1 0x40 DUP6 KECCAK256 PUSH32 0xFFFFFFFFFFFFFFFFFFFFFFFFFFFFFFFFFFFFFFFFFFFFFFFFFFFFFFFFFFFFFF00 DUP2 SLOAD AND PUSH1 0xFF DUP4 AND OR SWAP1 SSTORE PUSH1 0x40 MLOAD SWAP1 DUP2 MSTORE LOG2 DUP1 RETURN JUMPDEST POP PUSH1 0xC0 PUSH1 0x3 NOT CALLDATASIZE ADD SLT PUSH2 0x32B JUMPI PUSH2 0xDFF PUSH2 0x3829 JUMP JUMPDEST PUSH2 0xE07 PUSH2 0x3886 JUMP JUMPDEST PUSH2 0xE0F PUSH2 0x37AC JUMP JUMPDEST PUSH2 0xE17 PUSH2 0x37CB JUMP JUMPDEST PUSH2 0xE1F PUSH2 0x383F JUMP JUMPDEST SWAP1 PUSH1 0xA4 CALLDATALOAD SWAP3 PUSH1 0x1 PUSH1 0x1 PUSH1 0xA0 SHL SUB DUP5 AND DUP5 SUB PUSH2 0x8B5 JUMPI PUSH2 0xE3C PUSH2 0x3A0D JUMP JUMPDEST PUSH2 0xE45 DUP6 PUSH2 0x5882 JUMP JUMPDEST PUSH1 0x3 SLOAD DUP1 CALLVALUE LT PUSH2 0x87E JUMPI POP PUSH1 0x13 SLOAD SWAP7 DUP8 PUSH1 0x80 SHR PUSH2 0xE61 SWAP1 PUSH2 0x39BD JUMP JUMPDEST PUSH1 0x80 SHL PUSH32 0xFFFFFFFFFFFFFFFFFFFFFFFFFFFFFFFF00000000000000000000000000000000 AND PUSH16 0xFFFFFFFFFFFFFFFFFFFFFFFFFFFFFFFF DUP10 AND OR PUSH1 0x13 SSTORE NUMBER PUSH2 0xEA7 SWAP1 PUSH2 0x3A46 JUMP JUMPDEST SWAP1 PUSH2 0xEB1 TIMESTAMP PUSH2 0x3A97 JUMP JUMPDEST PUSH1 0x40 MLOAD SWAP3 PUSH2 0xEBE DUP5 PUSH2 0x3942 JUMP JUMPDEST CALLER DUP5 MSTORE PUSH12 0xFFFFFFFFFFFFFFFFFFFFFFFF AND PUSH1 0x20 DUP5 ADD MSTORE PUSH1 0x1 PUSH1 0x1 PUSH1 0xA0 SHL SUB DUP10 AND PUSH1 0x40 DUP5 ADD MSTORE PUSH16 0xFFFFFFFFFFFFFFFFFFFFFFFFFFFFFFFF DUP5 AND PUSH1 0x60 DUP5 ADD MSTORE PUSH16 0xFFFFFFFFFFFFFFFFFFFFFFFFFFFFFFFF DUP6 AND PUSH1 0x80 DUP5 ADD MSTORE PUSH1 0x1 PUSH1 0x1 PUSH1 0xA0 SHL SUB DUP7 AND PUSH1 0xA0 DUP5 ADD MSTORE PUSH8 0xFFFFFFFFFFFFFFFF AND PUSH1 0xC0 DUP4 ADD MSTORE PUSH1 0xFF DUP8 AND PUSH1 0xE0 DUP4 ADD MSTORE PUSH1 0x1 PUSH1 0x1 PUSH1 0xA0 SHL SUB DUP7 AND PUSH2 0x100 DUP4 ADD MSTORE CALLVALUE PUSH2 0x120 DUP4 ADD MSTORE DUP9 PUSH1 0x80 SHR DUP2 MSTORE PUSH1 0x12 PUSH1 0x20 MSTORE PUSH1 0x40 SWAP1 KECCAK256 SWAP1 DUP1 MLOAD PUSH1 0x1 PUSH1 0x1 PUSH1 0xA0 SHL SUB AND DUP3 SLOAD PUSH32 0xFFFFFFFFFFFFFFFFFFFFFFFF0000000000000000000000000000000000000000 AND OR DUP3 SSTORE PUSH1 0x20 DUP2 ADD MLOAD PUSH12 0xFFFFFFFFFFFFFFFFFFFFFFFF AND PUSH2 0xFE3 SWAP1 DUP4 SWAP1 PUSH1 0x1 PUSH1 0x1 PUSH1 0xA0 SHL SUB PUSH32 0xFFFFFFFFFFFFFFFFFFFFFFFF0000000000000000000000000000000000000000 DUP4 SLOAD SWAP3 PUSH1 0xA0 SHL AND SWAP2 AND OR SWAP1 SSTORE JUMP JUMPDEST PUSH1 0x40 DUP2 ADD MLOAD PUSH1 0x1 DUP4 ADD DUP1 SLOAD PUSH32 0xFFFFFFFFFFFFFFFFFFFFFFFF0000000000000000000000000000000000000000 AND PUSH1 0x1 PUSH1 0x1 PUSH1 0xA0 SHL SUB SWAP1 SWAP3 AND SWAP2 SWAP1 SWAP2 OR SWAP1 SSTORE PUSH1 0x60 DUP2 ADD MLOAD PUSH1 0x80 DUP1 DUP4 ADD MLOAD SWAP1 SHL PUSH32 0xFFFFFFFFFFFFFFFFFFFFFFFFFFFFFFFF00000000000000000000000000000000 AND PUSH16 0xFFFFFFFFFFFFFFFFFFFFFFFFFFFFFFFF SWAP1 SWAP2 AND OR PUSH1 0x2 DUP4 ADD SSTORE PUSH1 0xA0 DUP2 DUP2 ADD MLOAD PUSH1 0x3 DUP5 ADD DUP1 SLOAD PUSH1 0xC0 DUP6 ADD MLOAD PUSH32 0xFFFFFFFF00000000000000000000000000000000000000000000000000000000 SWAP1 SWAP2 AND PUSH1 0x1 PUSH1 0x1 PUSH1 0xA0 SHL SUB SWAP1 SWAP4 AND SWAP3 SWAP1 SWAP3 OR SWAP2 SWAP1 SWAP3 SHL PUSH28 0xFFFFFFFFFFFFFFFF0000000000000000000000000000000000000000 AND OR DUP2 SSTORE PUSH1 0xE0 DUP3 DUP2 ADD MLOAD DUP3 SLOAD PUSH32 0xFFFFFF00FFFFFFFFFFFFFFFFFFFFFFFFFFFFFFFFFFFFFFFFFFFFFFFFFFFFFFFF AND SWAP2 SHL PUSH29 0xFF00000000000000000000000000000000000000000000000000000000 AND OR SWAP1 SSTORE PUSH1 0x4 DUP3 ADD PUSH2 0x100 DUP3 ADD MLOAD PUSH1 0x1 PUSH1 0x1 PUSH1 0xA0 SHL SUB AND DUP2 SLOAD PUSH32 0xFFFFFFFFFFFFFFFFFFFFFFFF0000000000000000000000000000000000000000 AND OR SWAP1 SSTORE PUSH2 0x120 ADD MLOAD SWAP1 PUSH1 0x5 ADD SSTORE PUSH1 0x40 MLOAD SWAP5 PUSH1 0xFF AND DUP6 MSTORE PUSH16 0xFFFFFFFFFFFFFFFFFFFFFFFFFFFFFFFF AND PUSH1 0x20 DUP6 ADD MSTORE PUSH16 0xFFFFFFFFFFFFFFFFFFFFFFFFFFFFFFFF AND PUSH1 0x40 DUP5 ADD MSTORE PUSH1 0x1 PUSH1 0x1 PUSH1 0xA0 SHL SUB AND PUSH1 0x60 DUP4 ADD MSTORE PUSH1 0x1 PUSH1 0x1 PUSH1 0xA0 SHL SUB AND PUSH1 0x80 DUP3 ADD MSTORE CALLVALUE PUSH1 0xA0 DUP3 ADD MSTORE DUP3 PUSH1 0x80 SHR SWAP2 PUSH1 0x1 PUSH1 0x1 PUSH1 0xA0 SHL SUB AND SWAP1 CALLER SWAP1 PUSH1 0xC0 PUSH32 0xC3B24B550F7C128D6DBE186C52965186650E2513FB12C7D32CDC996A5DDE95BE SWAP2 LOG4 PUSH1 0x1 PUSH1 0x2 SSTORE PUSH1 0x40 MLOAD SWAP1 PUSH1 0x80 SHR DUP2 MSTORE PUSH1 0x20 SWAP1 RETURN JUMPDEST POP CALLVALUE PUSH2 0x32B JUMPI DUP1 PUSH1 0x3 NOT CALLDATASIZE ADD SLT PUSH2 0x32B JUMPI PUSH1 0x20 PUSH4 0xFFFFFFFF PUSH1 0x4 SLOAD PUSH1 0x40 SHR AND PUSH1 0x40 MLOAD SWAP1 DUP2 MSTORE RETURN JUMPDEST POP CALLVALUE PUSH2 0x32B JUMPI PUSH1 0x20 PUSH2 0x901 PUSH2 0x1242 CALLDATASIZE PUSH2 0x37EA JUMP JUMPDEST SWAP1 PUSH2 0x124B PUSH2 0x3A0D JUMP JUMPDEST PUSH2 0x4C2B JUMP JUMPDEST POP CALLVALUE PUSH2 0x32B JUMPI PUSH1 0x20 PUSH2 0x901 PUSH2 0x1264 CALLDATASIZE PUSH2 0x37EA JUMP JUMPDEST SWAP1 PUSH2 0x126D PUSH2 0x3A0D JUMP JUMPDEST PUSH2 0x48E9 JUMP JUMPDEST POP CALLVALUE PUSH2 0x32B JUMPI PUSH1 0x20 PUSH1 0x3 NOT CALLDATASIZE ADD SLT PUSH2 0x32B JUMPI PUSH1 0xC0 SWAP1 PUSH1 0x40 PUSH16 0xFFFFFFFFFFFFFFFFFFFFFFFFFFFFFFFF SWAP2 DUP3 PUSH2 0x12A4 PUSH2 0x376E JUMP JUMPDEST AND DUP2 MSTORE PUSH1 0xC PUSH1 0x20 MSTORE KECCAK256 SWAP1 DUP2 SLOAD SWAP2 PUSH8 0xFFFFFFFFFFFFFFFF PUSH1 0x1 PUSH1 0x1 PUSH1 0xA0 SHL SUB SWAP3 PUSH1 0x3 PUSH1 0x1 DUP5 ADD SLOAD SWAP2 PUSH1 0x2 DUP6 ADD SLOAD AND SWAP4 ADD SLOAD SWAP4 PUSH1 0x40 MLOAD SWAP6 DUP2 DUP2 AND DUP8 MSTORE PUSH1 0xA0 SHR PUSH1 0x20 DUP8 ADD MSTORE DUP2 AND PUSH1 0x40 DUP7 ADD MSTORE PUSH1 0xA0 SHR AND PUSH1 0x60 DUP5 ADD MSTORE PUSH1 0x80 DUP4 ADD MSTORE PUSH1 0xA0 DUP3 ADD MSTORE RETURN JUMPDEST POP CALLVALUE PUSH2 0x32B JUMPI DUP1 PUSH1 0x3 NOT CALLDATASIZE ADD SLT PUSH2 0x32B JUMPI PUSH1 0x20 PUSH1 0x11 SLOAD PUSH1 0x80 SHR PUSH1 0x40 MLOAD SWAP1 DUP2 MSTORE RETURN JUMPDEST POP CALLVALUE PUSH2 0x32B JUMPI PUSH1 0x20 PUSH2 0x901 PUSH2 0x1337 CALLDATASIZE PUSH2 0x37EA JUMP JUMPDEST SWAP1 PUSH2 0x1340 PUSH2 0x3A0D JUMP JUMPDEST PUSH2 0x46B8 JUMP JUMPDEST POP CALLVALUE PUSH2 0x32B JUMPI PUSH1 0x20 PUSH1 0x3 NOT CALLDATASIZE ADD SLT PUSH2 0x32B JUMPI PUSH1 0xFF PUSH1 0x40 PUSH1 0x20 SWAP3 PUSH1 0x1 PUSH1 0x1 PUSH1 0xA0 SHL SUB PUSH2 0x136E PUSH2 0x3829 JUMP JUMPDEST AND DUP2 MSTORE PUSH1 0x5 DUP5 MSTORE KECCAK256 SLOAD AND PUSH1 0x40 MLOAD SWAP1 ISZERO ISZERO DUP2 MSTORE RETURN JUMPDEST POP CALLVALUE PUSH2 0x32B JUMPI DUP1 PUSH1 0x3 NOT CALLDATASIZE ADD SLT PUSH2 0x32B JUMPI PUSH1 0x20 PUSH4 0xFFFFFFFF PUSH1 0x4 SLOAD AND PUSH1 0x40 MLOAD SWAP1 DUP2 MSTORE RETURN JUMPDEST POP CALLVALUE PUSH2 0x32B JUMPI PUSH1 0x20 PUSH1 0x3 NOT CALLDATASIZE ADD SLT PUSH2 0x32B JUMPI PUSH2 0x13C0 PUSH2 0x3829 JUMP JUMPDEST PUSH2 0x13C8 PUSH2 0x3896 JUMP JUMPDEST PUSH1 0x1 PUSH1 0x1 PUSH1 0xA0 SHL SUB DUP1 SWAP2 AND SWAP1 DUP2 PUSH32 0xFFFFFFFFFFFFFFFFFFFFFFFF0000000000000000000000000000000000000000 PUSH1 0x1 SLOAD AND OR PUSH1 0x1 SSTORE DUP3 SLOAD AND PUSH32 0xB9911E2099E372C216862258DC462BB65DA46A2C854536C8B1ACAE619D0D62ED DUP4 DUP1 LOG3 DUP1 RETURN JUMPDEST POP CALLVALUE PUSH2 0x32B JUMPI PUSH1 0x20 PUSH2 0x901 PUSH2 0x143C CALLDATASIZE PUSH2 0x37EA JUMP JUMPDEST SWAP1 PUSH2 0x1445 PUSH2 0x3A0D JUMP JUMPDEST PUSH2 0x3AE4 JUMP JUMPDEST POP CALLVALUE PUSH2 0x32B JUMPI PUSH1 0x20 PUSH2 0x901 PUSH2 0x145E CALLDATASIZE PUSH2 0x37EA JUMP JUMPDEST SWAP1 PUSH2 0x1467 PUSH2 0x3A0D JUMP JUMPDEST PUSH2 0x3FEC JUMP JUMPDEST POP CALLVALUE PUSH2 0x32B JUMPI DUP1 PUSH1 0x3 NOT CALLDATASIZE ADD SLT PUSH2 0x32B JUMPI PUSH1 0x20 PUSH16 0xFFFFFFFFFFFFFFFFFFFFFFFFFFFFFFFF PUSH1 0xB SLOAD AND PUSH1 0x40 MLOAD SWAP1 DUP2 MSTORE RETURN JUMPDEST POP CALLVALUE PUSH2 0x32B JUMPI DUP1 PUSH1 0x3 NOT CALLDATASIZE ADD SLT PUSH2 0x32B JUMPI PUSH1 0x20 PUSH1 0xB SLOAD PUSH1 0x80 SHR PUSH1 0x40 MLOAD SWAP1 DUP2 MSTORE RETURN JUMPDEST POP CALLVALUE PUSH2 0x32B JUMPI PUSH2 0x14CC CALLDATASIZE PUSH2 0x37EA JUMP JUMPDEST CALLER DUP4 MSTORE PUSH1 0x20 SWAP1 PUSH1 0x5 DUP3 MSTORE PUSH1 0xFF PUSH1 0x40 DUP6 KECCAK256 SLOAD AND ISZERO PUSH2 0x825 JUMPI PUSH1 0x13 SLOAD PUSH16 0xFFFFFFFFFFFFFFFFFFFFFFFFFFFFFFFF SWAP4 DUP5 DUP3 AND SWAP4 SWAP2 DUP6 SWAP2 DUP3 AND SWAP1 PUSH1 0x80 SHR DUP1 DUP3 LT ISZERO PUSH2 0x168E JUMPI POP SWAP3 SWAP2 SWAP3 JUMPDEST AND SWAP2 JUMPDEST DUP5 DUP4 DUP2 DUP7 AND LT PUSH2 0x1551 JUMPI JUMPDEST POP POP POP POP AND PUSH32 0xFFFFFFFFFFFFFFFFFFFFFFFFFFFFFFFF00000000000000000000000000000000 PUSH1 0x13 SLOAD AND OR PUSH1 0x13 SSTORE DUP1 RETURN JUMPDEST PUSH1 0x40 MLOAD PUSH32 0xE54386EA00000000000000000000000000000000000000000000000000000000 DUP2 MSTORE PUSH16 0xFFFFFFFFFFFFFFFFFFFFFFFFFFFFFFFF DUP7 AND PUSH1 0x4 DUP3 ADD MSTORE PUSH1 0x1 PUSH1 0x1 PUSH1 0xA0 SHL SUB DUP5 AND PUSH1 0x24 DUP3 ADD MSTORE SWAP4 SWAP5 SWAP3 SWAP4 SWAP2 SWAP3 SWAP1 SWAP2 DUP4 DUP2 PUSH1 0x44 DUP2 DUP12 ADDRESS GAS CALL DUP9 SWAP2 DUP2 PUSH2 0x166F JUMPI JUMPDEST POP PUSH2 0x1662 JUMPI POP PUSH1 0x40 MLOAD PUSH32 0xD6E9DCB400000000000000000000000000000000000000000000000000000000 DUP2 MSTORE PUSH16 0xFFFFFFFFFFFFFFFFFFFFFFFFFFFFFFFF DUP3 AND PUSH1 0x4 DUP3 ADD MSTORE PUSH1 0x1 PUSH1 0x1 PUSH1 0xA0 SHL SUB DUP6 AND PUSH1 0x24 DUP3 ADD MSTORE DUP4 DUP2 PUSH1 0x44 DUP2 DUP12 ADDRESS GAS CALL DUP9 SWAP2 DUP2 PUSH2 0x1643 JUMPI JUMPDEST POP PUSH2 0x1630 JUMPI JUMPDEST POP PUSH1 0x1 SWAP1 JUMPDEST ADD AND SWAP3 SWAP2 SWAP1 PUSH2 0x1515 JUMP JUMPDEST ISZERO PUSH2 0x163B JUMPI CODESIZE PUSH2 0x1621 JUMP JUMPDEST SWAP4 POP DUP1 PUSH2 0x1520 JUMP JUMPDEST PUSH2 0x165B SWAP2 SWAP3 POP DUP6 RETURNDATASIZE DUP8 GT PUSH2 0xABE JUMPI PUSH2 0xAAF DUP2 DUP4 PUSH2 0x397C JUMP JUMPDEST SWAP1 CODESIZE PUSH2 0x161B JUMP JUMPDEST ISZERO PUSH2 0x163B JUMPI PUSH1 0x1 SWAP1 PUSH2 0x1626 JUMP JUMPDEST PUSH2 0x1687 SWAP2 SWAP3 POP DUP6 RETURNDATASIZE DUP8 GT PUSH2 0xABE JUMPI PUSH2 0xAAF DUP2 DUP4 PUSH2 0x397C JUMP JUMPDEST SWAP1 CODESIZE PUSH2 0x15B7 JUMP JUMPDEST SWAP1 POP SWAP3 SWAP2 SWAP3 PUSH2 0x1512 JUMP JUMPDEST POP CALLVALUE PUSH2 0x32B JUMPI DUP1 PUSH1 0x3 NOT CALLDATASIZE ADD SLT PUSH2 0x32B JUMPI PUSH1 0x20 PUSH1 0xF SLOAD PUSH1 0x80 SHR PUSH1 0x40 MLOAD SWAP1 DUP2 MSTORE RETURN JUMPDEST POP CALLVALUE PUSH2 0x32B JUMPI PUSH2 0x16C8 CALLDATASIZE PUSH2 0x37EA JUMP JUMPDEST CALLER DUP4 MSTORE PUSH1 0x20 SWAP1 PUSH1 0x5 DUP3 MSTORE PUSH1 0xFF PUSH1 0x40 DUP6 KECCAK256 SLOAD AND ISZERO PUSH2 0x825 JUMPI PUSH1 0x7 SLOAD PUSH16 0xFFFFFFFFFFFFFFFFFFFFFFFFFFFFFFFF SWAP4 DUP5 DUP3 AND SWAP4 SWAP2 DUP6 SWAP2 DUP3 AND SWAP1 PUSH1 0x80 SHR DUP1 DUP3 LT ISZERO PUSH2 0x188A JUMPI POP SWAP3 SWAP2 SWAP3 JUMPDEST AND SWAP2 JUMPDEST DUP5 DUP4 DUP2 DUP7 AND LT PUSH2 0x174D JUMPI JUMPDEST POP POP POP POP AND PUSH32 0xFFFFFFFFFFFFFFFFFFFFFFFFFFFFFFFF00000000000000000000000000000000 PUSH1 0x7 SLOAD AND OR PUSH1 0x7 SSTORE DUP1 RETURN JUMPDEST PUSH1 0x40 MLOAD PUSH32 0xA11DA38400000000000000000000000000000000000000000000000000000000 DUP2 MSTORE PUSH16 0xFFFFFFFFFFFFFFFFFFFFFFFFFFFFFFFF DUP7 AND PUSH1 0x4 DUP3 ADD MSTORE PUSH1 0x1 PUSH1 0x1 PUSH1 0xA0 SHL SUB DUP5 AND PUSH1 0x24 DUP3 ADD MSTORE SWAP4 SWAP5 SWAP3 SWAP4 SWAP2 SWAP3 SWAP1 SWAP2 DUP4 DUP2 PUSH1 0x44 DUP2 DUP12 ADDRESS GAS CALL DUP9 SWAP2 DUP2 PUSH2 0x186B JUMPI JUMPDEST POP PUSH2 0x185E JUMPI POP PUSH1 0x40 MLOAD PUSH32 0xA8C4AEC800000000000000000000000000000000000000000000000000000000 DUP2 MSTORE PUSH16 0xFFFFFFFFFFFFFFFFFFFFFFFFFFFFFFFF DUP3 AND PUSH1 0x4 DUP3 ADD MSTORE PUSH1 0x1 PUSH1 0x1 PUSH1 0xA0 SHL SUB DUP6 AND PUSH1 0x24 DUP3 ADD MSTORE DUP4 DUP2 PUSH1 0x44 DUP2 DUP12 ADDRESS GAS CALL DUP9 SWAP2 DUP2 PUSH2 0x183F JUMPI JUMPDEST POP PUSH2 0x182C JUMPI JUMPDEST POP PUSH1 0x1 SWAP1 JUMPDEST ADD AND SWAP3 SWAP2 SWAP1 PUSH2 0x1711 JUMP JUMPDEST ISZERO PUSH2 0x1837 JUMPI CODESIZE PUSH2 0x181D JUMP JUMPDEST SWAP4 POP DUP1 PUSH2 0x171C JUMP JUMPDEST PUSH2 0x1857 SWAP2 SWAP3 POP DUP6 RETURNDATASIZE DUP8 GT PUSH2 0xABE JUMPI PUSH2 0xAAF DUP2 DUP4 PUSH2 0x397C JUMP JUMPDEST SWAP1 CODESIZE PUSH2 0x1817 JUMP JUMPDEST ISZERO PUSH2 0x1837 JUMPI PUSH1 0x1 SWAP1 PUSH2 0x1822 JUMP JUMPDEST PUSH2 0x1883 SWAP2 SWAP3 POP DUP6 RETURNDATASIZE DUP8 GT PUSH2 0xABE JUMPI PUSH2 0xAAF DUP2 DUP4 PUSH2 0x397C JUMP JUMPDEST SWAP1 CODESIZE PUSH2 0x17B3 JUMP JUMPDEST SWAP1 POP SWAP3 SWAP2 SWAP3 PUSH2 0x170E JUMP JUMPDEST POP PUSH1 0x60 PUSH1 0x3 NOT CALLDATASIZE ADD SLT PUSH2 0x32B JUMPI PUSH2 0x18A9 PUSH2 0x3829 JUMP JUMPDEST SWAP1 PUSH2 0x18B2 PUSH2 0x378D JUMP JUMPDEST SWAP2 PUSH2 0x18BB PUSH2 0x37AC JUMP JUMPDEST PUSH2 0x18C3 PUSH2 0x3A0D JUMP JUMPDEST PUSH1 0x3 SLOAD DUP1 CALLVALUE LT PUSH2 0x87E JUMPI POP PUSH1 0x1 PUSH1 0x1 PUSH1 0xA0 SHL SUB SWAP3 DUP4 PUSH32 0x0 AND DUP1 EXTCODESIZE ISZERO PUSH2 0x1C01 JUMPI PUSH1 0x40 MLOAD PUSH32 0x1B82787800000000000000000000000000000000000000000000000000000000 DUP2 MSTORE PUSH32 0x0 PUSH1 0x1 PUSH1 0x1 PUSH1 0xA0 SHL SUB AND PUSH1 0x4 DUP3 ADD MSTORE CALLER PUSH1 0x24 DUP3 ADD MSTORE ADDRESS PUSH1 0x44 DUP3 ADD MSTORE PUSH16 0xFFFFFFFFFFFFFFFFFFFFFFFFFFFFFFFF DUP8 AND PUSH1 0x64 DUP3 ADD MSTORE SWAP1 DUP3 SWAP1 DUP3 SWAP1 PUSH1 0x84 SWAP1 DUP3 SWAP1 DUP5 SWAP1 GAS CALL DUP1 ISZERO PUSH2 0x1BF6 JUMPI SWAP1 DUP3 SWAP2 PUSH2 0x1BE2 JUMPI JUMPDEST POP POP PUSH1 0x7 SLOAD SWAP4 DUP5 PUSH1 0x80 SHR DUP1 SWAP7 DUP2 SWAP7 PUSH32 0xFFFFFFFFFFFFFFFFFFFFFFFFFFFFFFFF00000000000000000000000000000000 SWAP6 DUP7 PUSH2 0x19D0 DUP6 PUSH2 0x39BD JUMP JUMPDEST PUSH1 0x80 SHL AND PUSH16 0xFFFFFFFFFFFFFFFFFFFFFFFFFFFFFFFF DUP1 SWAP4 AND OR PUSH1 0x7 SSTORE NUMBER PUSH2 0x19F6 SWAP1 PUSH2 0x3A46 JUMP JUMPDEST SWAP7 PUSH2 0x1A00 TIMESTAMP PUSH2 0x3A97 JUMP JUMPDEST SWAP9 PUSH1 0x40 MLOAD SWAP10 PUSH2 0x1A0E DUP12 PUSH2 0x38AA JUMP JUMPDEST CALLER DUP12 MSTORE PUSH1 0x20 DUP12 ADD SWAP10 PUSH12 0xFFFFFFFFFFFFFFFFFFFFFFFF DUP1 SWAP2 AND DUP12 MSTORE DUP9 PUSH1 0x40 DUP14 ADD SWAP4 AND SWAP12 DUP13 DUP5 MSTORE DUP10 PUSH1 0x60 DUP3 ADD SWAP3 PUSH8 0xFFFFFFFFFFFFFFFF DUP1 SWAP6 AND DUP5 MSTORE DUP9 PUSH1 0x80 DUP5 ADD SWAP11 AND SWAP14 DUP15 DUP12 MSTORE DUP10 PUSH1 0xA0 DUP6 ADD SWAP10 AND SWAP14 DUP15 DUP11 MSTORE PUSH1 0xC0 DUP6 ADD SWAP13 DUP14 CALLVALUE SWAP1 MSTORE DUP2 MSTORE PUSH1 0x6 PUSH1 0x20 MSTORE PUSH1 0x40 SWAP1 KECCAK256 SWAP13 DUP14 SWAP5 MLOAD AND PUSH32 0xFFFFFFFFFFFFFFFFFFFFFFFF0000000000000000000000000000000000000000 DUP1 SWAP6 SLOAD AND OR DUP14 SSTORE MLOAD AND PUSH2 0x1ADD SWAP1 DUP13 SWAP1 PUSH1 0x1 PUSH1 0x1 PUSH1 0xA0 SHL SUB PUSH32 0xFFFFFFFFFFFFFFFFFFFFFFFF0000000000000000000000000000000000000000 DUP4 SLOAD SWAP3 PUSH1 0xA0 SHL AND SWAP2 AND OR SWAP1 SSTORE JUMP JUMPDEST PUSH1 0x1 DUP12 ADD SWAP5 MLOAD AND SWAP1 DUP5 SLOAD AND OR DUP4 SSTORE MLOAD AND PUSH2 0x1B3E SWAP2 SWAP1 PUSH32 0xFFFFFFFF0000000000000000FFFFFFFFFFFFFFFFFFFFFFFFFFFFFFFFFFFFFFFF PUSH28 0xFFFFFFFFFFFFFFFF0000000000000000000000000000000000000000 DUP4 SLOAD SWAP3 PUSH1 0xA0 SHL AND SWAP2 AND OR SWAP1 SSTORE JUMP JUMPDEST DUP3 PUSH1 0x2 DUP8 ADD SWAP5 MLOAD AND SWAP1 DUP5 SLOAD AND OR DUP4 SSTORE MLOAD AND PUSH2 0x1B94 SWAP2 SWAP1 PUSH16 0xFFFFFFFFFFFFFFFFFFFFFFFFFFFFFFFF PUSH32 0xFFFFFFFFFFFFFFFFFFFFFFFFFFFFFFFF00000000000000000000000000000000 DUP4 SLOAD SWAP3 PUSH1 0x80 SHL AND SWAP2 AND OR SWAP1 SSTORE JUMP JUMPDEST MLOAD SWAP1 PUSH1 0x3 ADD SSTORE PUSH1 0x40 MLOAD SWAP2 DUP3 MSTORE PUSH1 0x20 DUP3 ADD MSTORE CALLVALUE PUSH1 0x40 DUP3 ADD MSTORE CALLER SWAP1 PUSH1 0x60 PUSH32 0x3F0D7D4E5289D6595BD81A0AC4E0BEA43569A6E945DD25935EF0AF28FCC65087 SWAP2 LOG4 PUSH1 0x1 PUSH1 0x2 SSTORE PUSH1 0x40 MLOAD SWAP1 DUP2 MSTORE PUSH1 0x20 SWAP1 RETURN JUMPDEST PUSH2 0x1BEB SWAP1 PUSH2 0x38F5 JUMP JUMPDEST PUSH2 0x32B JUMPI DUP1 CODESIZE PUSH2 0x1996 JUMP JUMPDEST PUSH1 0x40 MLOAD RETURNDATASIZE DUP5 DUP3 RETURNDATACOPY RETURNDATASIZE SWAP1 REVERT JUMPDEST POP DUP1 REVERT JUMPDEST POP CALLVALUE PUSH2 0x32B JUMPI DUP1 PUSH1 0x3 NOT CALLDATASIZE ADD SLT PUSH2 0x32B JUMPI PUSH1 0x1 SLOAD PUSH1 0x1 PUSH1 0x1 PUSH1 0xA0 SHL SUB DUP1 DUP3 AND CALLER SUB PUSH2 0x825 JUMPI PUSH32 0xFFFFFFFFFFFFFFFFFFFFFFFF0000000000000000000000000000000000000000 DUP1 SWAP3 AND PUSH1 0x1 SSTORE DUP3 SLOAD SWAP2 CALLER SWAP1 DUP4 AND OR DUP4 SSTORE CALLER SWAP2 AND PUSH32 0x3D1E4C3A68FED9F4F8315582B7297CF8FA264BC8E6704287603BA8C72BF05AC2 DUP4 DUP1 LOG3 DUP1 RETURN JUMPDEST POP CALLVALUE PUSH2 0x32B JUMPI PUSH2 0x1C94 CALLDATASIZE PUSH2 0x37EA JUMP JUMPDEST CALLER DUP4 MSTORE PUSH1 0x20 SWAP1 PUSH1 0x5 DUP3 MSTORE PUSH1 0xFF PUSH1 0x40 DUP6 KECCAK256 SLOAD AND ISZERO PUSH2 0x825 JUMPI PUSH1 0xB SLOAD PUSH16 0xFFFFFFFFFFFFFFFFFFFFFFFFFFFFFFFF SWAP4 DUP5 DUP3 AND SWAP4 SWAP2 DUP6 SWAP2 DUP3 AND SWAP1 PUSH1 0x80 SHR DUP1 DUP3 LT ISZERO PUSH2 0x1E56 JUMPI POP SWAP3 SWAP2 SWAP3 JUMPDEST AND SWAP2 JUMPDEST DUP5 DUP4 DUP2 DUP7 AND LT PUSH2 0x1D19 JUMPI JUMPDEST POP POP POP POP AND PUSH32 0xFFFFFFFFFFFFFFFFFFFFFFFFFFFFFFFF00000000000000000000000000000000 PUSH1 0xB SLOAD AND OR PUSH1 0xB SSTORE DUP1 RETURN JUMPDEST PUSH1 0x40 MLOAD PUSH32 0xB79AAC7900000000000000000000000000000000000000000000000000000000 DUP2 MSTORE PUSH16 0xFFFFFFFFFFFFFFFFFFFFFFFFFFFFFFFF DUP7 AND PUSH1 0x4 DUP3 ADD MSTORE PUSH1 0x1 PUSH1 0x1 PUSH1 0xA0 SHL SUB DUP5 AND PUSH1 0x24 DUP3 ADD MSTORE SWAP4 SWAP5 SWAP3 SWAP4 SWAP2 SWAP3 SWAP1 SWAP2 DUP4 DUP2 PUSH1 0x44 DUP2 DUP12 ADDRESS GAS CALL DUP9 SWAP2 DUP2 PUSH2 0x1E37 JUMPI JUMPDEST POP PUSH2 0x1E2A JUMPI POP PUSH1 0x40 MLOAD PUSH32 0xDE8B110900000000000000000000000000000000000000000000000000000000 DUP2 MSTORE PUSH16 0xFFFFFFFFFFFFFFFFFFFFFFFFFFFFFFFF DUP3 AND PUSH1 0x4 DUP3 ADD MSTORE PUSH1 0x1 PUSH1 0x1 PUSH1 0xA0 SHL SUB DUP6 AND PUSH1 0x24 DUP3 ADD MSTORE DUP4 DUP2 PUSH1 0x44 DUP2 DUP12 ADDRESS GAS CALL DUP9 SWAP2 DUP2 PUSH2 0x1E0B JUMPI JUMPDEST POP PUSH2 0x1DF8 JUMPI JUMPDEST POP PUSH1 0x1 SWAP1 JUMPDEST ADD AND SWAP3 SWAP2 SWAP1 PUSH2 0x1CDD JUMP JUMPDEST ISZERO PUSH2 0x1E03 JUMPI CODESIZE PUSH2 0x1DE9 JUMP JUMPDEST SWAP4 POP DUP1 PUSH2 0x1CE8 JUMP JUMPDEST PUSH2 0x1E23 SWAP2 SWAP3 POP DUP6 RETURNDATASIZE DUP8 GT PUSH2 0xABE JUMPI PUSH2 0xAAF DUP2 DUP4 PUSH2 0x397C JUMP JUMPDEST SWAP1 CODESIZE PUSH2 0x1DE3 JUMP JUMPDEST ISZERO PUSH2 0x1E03 JUMPI PUSH1 0x1 SWAP1 PUSH2 0x1DEE JUMP JUMPDEST PUSH2 0x1E4F SWAP2 SWAP3 POP DUP6 RETURNDATASIZE DUP8 GT PUSH2 0xABE JUMPI PUSH2 0xAAF DUP2 DUP4 PUSH2 0x397C JUMP JUMPDEST SWAP1 CODESIZE PUSH2 0x1D7F JUMP JUMPDEST SWAP1 POP SWAP3 SWAP2 SWAP3 PUSH2 0x1CDA JUMP JUMPDEST POP PUSH1 0xA0 PUSH1 0x3 NOT CALLDATASIZE ADD SLT PUSH2 0x32B JUMPI PUSH2 0x1E75 PUSH2 0x3829 JUMP JUMPDEST SWAP1 PUSH2 0x1E7E PUSH2 0x3886 JUMP JUMPDEST SWAP2 PUSH2 0x1E87 PUSH2 0x37AC JUMP JUMPDEST SWAP3 PUSH2 0x1E90 PUSH2 0x37CB JUMP JUMPDEST PUSH2 0x1E98 PUSH2 0x383F JUMP JUMPDEST SWAP5 PUSH2 0x1EA1 PUSH2 0x3A0D JUMP JUMPDEST PUSH2 0x1EAA DUP4 PUSH2 0x5882 JUMP JUMPDEST PUSH1 0x3 SLOAD DUP1 CALLVALUE LT PUSH2 0x87E JUMPI POP PUSH16 0xFFFFFFFFFFFFFFFFFFFFFFFFFFFFFFFF DUP2 AND PUSH2 0x21BE JUMPI JUMPDEST SWAP5 PUSH16 0xFFFFFFFFFFFFFFFFFFFFFFFFFFFFFFFF PUSH1 0x1 PUSH1 0x1 PUSH1 0xA0 SHL SUB SWAP3 DUP2 PUSH1 0x20 SWAP9 PUSH1 0x11 SLOAD SWAP9 PUSH32 0xFFFFFFFFFFFFFFFFFFFFFFFFFFFFFFFF00000000000000000000000000000000 PUSH2 0x1F1D DUP12 PUSH1 0x80 SHR PUSH2 0x39BD JUMP JUMPDEST PUSH1 0x80 SHL AND DUP4 DUP12 AND OR PUSH1 0x11 SSTORE PUSH1 0x4 PUSH2 0x100 PUSH1 0x40 PUSH2 0x1F38 NUMBER PUSH2 0x3A46 JUMP JUMPDEST SWAP4 PUSH8 0xFFFFFFFFFFFFFFFF DUP14 DUP13 PUSH2 0x1F4D TIMESTAMP PUSH2 0x3A97 JUMP JUMPDEST SWAP2 PUSH12 0xFFFFFFFFFFFFFFFFFFFFFFFF DUP7 MLOAD SWAP10 PUSH2 0x1F67 DUP12 PUSH2 0x3925 JUMP JUMPDEST CALLER DUP12 MSTORE AND PUSH1 0x20 DUP11 ADD MSTORE AND DUP5 DUP9 ADD MSTORE DUP9 DUP9 AND PUSH1 0x60 DUP9 ADD MSTORE DUP9 DUP11 AND PUSH1 0x80 DUP9 ADD MSTORE DUP13 DUP13 AND PUSH1 0xA0 DUP9 ADD MSTORE AND PUSH1 0xC0 DUP7 ADD MSTORE PUSH1 0xFF DUP13 AND PUSH1 0xE0 DUP7 ADD MSTORE CALLVALUE DUP4 DUP7 ADD MSTORE DUP14 PUSH1 0x80 SHR DUP2 MSTORE PUSH1 0x10 DUP16 MSTORE KECCAK256 SWAP3 PUSH2 0x2154 DUP11 DUP3 MLOAD AND PUSH32 0xFFFFFFFFFFFFFFFFFFFFFFFF0000000000000000000000000000000000000000 SWAP1 DUP2 DUP8 SLOAD AND OR DUP7 SSTORE DUP16 PUSH12 0xFFFFFFFFFFFFFFFFFFFFFFFF PUSH2 0x202C SWAP2 DUP6 ADD MLOAD AND DUP8 SWAP1 PUSH1 0x1 PUSH1 0x1 PUSH1 0xA0 SHL SUB PUSH32 0xFFFFFFFFFFFFFFFFFFFFFFFF0000000000000000000000000000000000000000 DUP4 SLOAD SWAP3 PUSH1 0xA0 SHL AND SWAP2 AND OR SWAP1 SSTORE JUMP JUMPDEST PUSH1 0x40 DUP4 ADD MLOAD PUSH1 0x1 DUP8 ADD DUP1 SLOAD SWAP2 DUP15 AND SWAP2 DUP4 AND SWAP2 SWAP1 SWAP2 OR SWAP1 SSTORE PUSH1 0x60 DUP4 ADD MLOAD PUSH1 0x80 DUP1 DUP6 ADD MLOAD PUSH32 0xFFFFFFFFFFFFFFFFFFFFFFFFFFFFFFFF00000000000000000000000000000000 SWAP1 DUP12 AND SWAP1 SWAP2 SHL AND SWAP1 DUP10 AND PUSH16 0xFFFFFFFFFFFFFFFFFFFFFFFFFFFFFFFF AND OR PUSH1 0x2 DUP8 ADD SSTORE PUSH1 0x3 DUP7 ADD SWAP1 DUP13 PUSH1 0xA0 DUP6 ADD MLOAD AND SWAP1 DUP3 SLOAD AND OR DUP2 SSTORE PUSH2 0x2104 PUSH8 0xFFFFFFFFFFFFFFFF PUSH1 0xC0 DUP6 ADD MLOAD AND DUP3 SWAP1 PUSH32 0xFFFFFFFF0000000000000000FFFFFFFFFFFFFFFFFFFFFFFFFFFFFFFFFFFFFFFF PUSH28 0xFFFFFFFFFFFFFFFF0000000000000000000000000000000000000000 DUP4 SLOAD SWAP3 PUSH1 0xA0 SHL AND SWAP2 AND OR SWAP1 SSTORE JUMP JUMPDEST PUSH1 0xE0 DUP4 DUP2 ADD MLOAD DUP3 SLOAD PUSH32 0xFFFFFF00FFFFFFFFFFFFFFFFFFFFFFFFFFFFFFFFFFFFFFFFFFFFFFFFFFFFFFFF AND SWAP2 SHL PUSH29 0xFF00000000000000000000000000000000000000000000000000000000 AND OR SWAP1 SSTORE JUMP JUMPDEST ADD MLOAD SWAP2 ADD SSTORE PUSH1 0xFF PUSH1 0x40 MLOAD SWAP8 AND DUP8 MSTORE AND DUP9 DUP7 ADD MSTORE AND PUSH1 0x40 DUP5 ADD MSTORE AND PUSH1 0x60 DUP3 ADD MSTORE CALLVALUE PUSH1 0x80 DUP3 ADD MSTORE PUSH1 0x1 PUSH1 0x1 PUSH1 0xA0 SHL SUB DUP4 PUSH1 0x80 SHR SWAP3 AND SWAP1 PUSH32 0xF1C23FFBEA54CF4F9E6902A912BCD3B70986A892B14121E001B907E328C2F3F5 PUSH1 0xA0 CALLER SWAP3 LOG4 PUSH1 0x1 PUSH1 0x2 SSTORE PUSH1 0x40 MLOAD SWAP1 PUSH1 0x80 SHR DUP2 MSTORE RETURN JUMPDEST PUSH1 0x1 PUSH1 0x1 PUSH1 0xA0 SHL SUB PUSH32 0x0 AND DUP1 EXTCODESIZE ISZERO PUSH2 0x22A6 JUMPI PUSH1 0x40 MLOAD PUSH32 0x1B82787800000000000000000000000000000000000000000000000000000000 DUP2 MSTORE PUSH32 0x0 PUSH1 0x1 PUSH1 0x1 PUSH1 0xA0 SHL SUB AND PUSH1 0x4 DUP3 ADD MSTORE CALLER PUSH1 0x24 DUP3 ADD MSTORE ADDRESS PUSH1 0x44 DUP3 ADD MSTORE PUSH16 0xFFFFFFFFFFFFFFFFFFFFFFFFFFFFFFFF DUP4 AND PUSH1 0x64 DUP3 ADD MSTORE SWAP1 DUP7 SWAP1 DUP3 SWAP1 PUSH1 0x84 SWAP1 DUP3 SWAP1 DUP5 SWAP1 GAS CALL DUP1 ISZERO PUSH2 0x229B JUMPI PUSH2 0x2287 JUMPI JUMPDEST POP PUSH2 0x1ECD JUMP JUMPDEST PUSH2 0x2291 DUP7 SWAP2 PUSH2 0x38F5 JUMP JUMPDEST PUSH2 0x821 JUMPI CODESIZE PUSH2 0x2281 JUMP JUMPDEST PUSH1 0x40 MLOAD RETURNDATASIZE DUP9 DUP3 RETURNDATACOPY RETURNDATASIZE SWAP1 REVERT JUMPDEST DUP6 DUP1 REVERT JUMPDEST POP CALLVALUE PUSH2 0x32B JUMPI PUSH2 0x22B9 CALLDATASIZE PUSH2 0x37EA JUMP JUMPDEST CALLER DUP4 MSTORE PUSH1 0x20 SWAP1 PUSH1 0x5 DUP3 MSTORE PUSH1 0xFF PUSH1 0x40 DUP6 KECCAK256 SLOAD AND ISZERO PUSH2 0x825 JUMPI PUSH1 0x9 SLOAD PUSH16 0xFFFFFFFFFFFFFFFFFFFFFFFFFFFFFFFF SWAP4 DUP5 DUP3 AND SWAP4 SWAP2 DUP6 SWAP2 DUP3 AND SWAP1 PUSH1 0x80 SHR DUP1 DUP3 LT ISZERO PUSH2 0x247B JUMPI POP SWAP3 SWAP2 SWAP3 JUMPDEST AND SWAP2 JUMPDEST DUP5 DUP4 DUP2 DUP7 AND LT PUSH2 0x233E JUMPI JUMPDEST POP POP POP POP AND PUSH32 0xFFFFFFFFFFFFFFFFFFFFFFFFFFFFFFFF00000000000000000000000000000000 PUSH1 0x9 SLOAD AND OR PUSH1 0x9 SSTORE DUP1 RETURN JUMPDEST PUSH1 0x40 MLOAD PUSH32 0x3D5B479900000000000000000000000000000000000000000000000000000000 DUP2 MSTORE PUSH16 0xFFFFFFFFFFFFFFFFFFFFFFFFFFFFFFFF DUP7 AND PUSH1 0x4 DUP3 ADD MSTORE PUSH1 0x1 PUSH1 0x1 PUSH1 0xA0 SHL SUB DUP5 AND PUSH1 0x24 DUP3 ADD MSTORE SWAP4 SWAP5 SWAP3 SWAP4 SWAP2 SWAP3 SWAP1 SWAP2 DUP4 DUP2 PUSH1 0x44 DUP2 DUP12 ADDRESS GAS CALL DUP9 SWAP2 DUP2 PUSH2 0x245C JUMPI JUMPDEST POP PUSH2 0x244F JUMPI POP PUSH1 0x40 MLOAD PUSH32 0x3C0C369800000000000000000000000000000000000000000000000000000000 DUP2 MSTORE PUSH16 0xFFFFFFFFFFFFFFFFFFFFFFFFFFFFFFFF DUP3 AND PUSH1 0x4 DUP3 ADD MSTORE PUSH1 0x1 PUSH1 0x1 PUSH1 0xA0 SHL SUB DUP6 AND PUSH1 0x24 DUP3 ADD MSTORE DUP4 DUP2 PUSH1 0x44 DUP2 DUP12 ADDRESS GAS CALL DUP9 SWAP2 DUP2 PUSH2 0x2430 JUMPI JUMPDEST POP PUSH2 0x241D JUMPI JUMPDEST POP PUSH1 0x1 SWAP1 JUMPDEST ADD AND SWAP3 SWAP2 SWAP1 PUSH2 0x2302 JUMP JUMPDEST ISZERO PUSH2 0x2428 JUMPI CODESIZE PUSH2 0x240E JUMP JUMPDEST SWAP4 POP DUP1 PUSH2 0x230D JUMP JUMPDEST PUSH2 0x2448 SWAP2 SWAP3 POP DUP6 RETURNDATASIZE DUP8 GT PUSH2 0xABE JUMPI PUSH2 0xAAF DUP2 DUP4 PUSH2 0x397C JUMP JUMPDEST SWAP1 CODESIZE PUSH2 0x2408 JUMP JUMPDEST ISZERO PUSH2 0x2428 JUMPI PUSH1 0x1 SWAP1 PUSH2 0x2413 JUMP JUMPDEST PUSH2 0x2474 SWAP2 SWAP3 POP DUP6 RETURNDATASIZE DUP8 GT PUSH2 0xABE JUMPI PUSH2 0xAAF DUP2 DUP4 PUSH2 0x397C JUMP JUMPDEST SWAP1 CODESIZE PUSH2 0x23A4 JUMP JUMPDEST SWAP1 POP SWAP3 SWAP2 SWAP3 PUSH2 0x22FF JUMP JUMPDEST POP CALLVALUE PUSH2 0x32B JUMPI DUP1 PUSH1 0x3 NOT CALLDATASIZE ADD SLT PUSH2 0x32B JUMPI PUSH1 0x20 PUSH16 0xFFFFFFFFFFFFFFFFFFFFFFFFFFFFFFFF PUSH1 0xD SLOAD AND PUSH1 0x40 MLOAD SWAP1 DUP2 MSTORE RETURN JUMPDEST POP CALLVALUE PUSH2 0x32B JUMPI PUSH1 0x20 PUSH1 0x3 NOT CALLDATASIZE ADD SLT PUSH2 0x32B JUMPI PUSH1 0xE0 SWAP1 PUSH1 0x40 PUSH16 0xFFFFFFFFFFFFFFFFFFFFFFFFFFFFFFFF SWAP2 DUP3 PUSH2 0x24E7 PUSH2 0x376E JUMP JUMPDEST AND DUP2 MSTORE PUSH1 0xE PUSH1 0x20 MSTORE KECCAK256 SWAP1 DUP2 SLOAD SWAP2 PUSH1 0x1 PUSH1 0x1 PUSH1 0xA0 SHL SUB SWAP2 PUSH8 0xFFFFFFFFFFFFFFFF PUSH1 0x1 DUP4 ADD SLOAD SWAP2 PUSH1 0x2 DUP5 ADD SLOAD AND SWAP2 PUSH1 0x4 DUP6 PUSH1 0x3 DUP7 ADD SLOAD AND SWAP5 ADD SLOAD SWAP5 PUSH1 0x40 MLOAD SWAP7 DUP2 DUP2 AND DUP9 MSTORE PUSH1 0xA0 SHR PUSH1 0x20 DUP9 ADD MSTORE DUP2 AND PUSH1 0x40 DUP8 ADD MSTORE PUSH1 0xA0 SHR AND PUSH1 0x60 DUP6 ADD MSTORE PUSH1 0x80 DUP5 ADD MSTORE PUSH1 0xA0 DUP4 ADD MSTORE PUSH1 0xC0 DUP3 ADD MSTORE RETURN JUMPDEST POP CALLVALUE PUSH2 0x32B JUMPI PUSH2 0x2561 CALLDATASIZE PUSH2 0x37EA JUMP JUMPDEST CALLER DUP4 MSTORE PUSH1 0x20 SWAP1 PUSH1 0x5 DUP3 MSTORE PUSH1 0xFF PUSH1 0x40 DUP6 KECCAK256 SLOAD AND ISZERO PUSH2 0x825 JUMPI PUSH1 0xD SLOAD PUSH16 0xFFFFFFFFFFFFFFFFFFFFFFFFFFFFFFFF SWAP4 DUP5 DUP3 AND SWAP4 SWAP2 DUP6 SWAP2 DUP3 AND SWAP1 PUSH1 0x80 SHR DUP1 DUP3 LT ISZERO PUSH2 0x2723 JUMPI POP SWAP3 SWAP2 SWAP3 JUMPDEST AND SWAP2 JUMPDEST DUP5 DUP4 DUP2 DUP7 AND LT PUSH2 0x25E6 JUMPI JUMPDEST POP POP POP POP AND PUSH32 0xFFFFFFFFFFFFFFFFFFFFFFFFFFFFFFFF00000000000000000000000000000000 PUSH1 0xD SLOAD AND OR PUSH1 0xD SSTORE DUP1 RETURN JUMPDEST PUSH1 0x40 MLOAD PUSH32 0x2AAFAB3200000000000000000000000000000000000000000000000000000000 DUP2 MSTORE PUSH16 0xFFFFFFFFFFFFFFFFFFFFFFFFFFFFFFFF DUP7 AND PUSH1 0x4 DUP3 ADD MSTORE PUSH1 0x1 PUSH1 0x1 PUSH1 0xA0 SHL SUB DUP5 AND PUSH1 0x24 DUP3 ADD MSTORE SWAP4 SWAP5 SWAP3 SWAP4 SWAP2 SWAP3 SWAP1 SWAP2 DUP4 DUP2 PUSH1 0x44 DUP2 DUP12 ADDRESS GAS CALL DUP9 SWAP2 DUP2 PUSH2 0x2704 JUMPI JUMPDEST POP PUSH2 0x26F7 JUMPI POP PUSH1 0x40 MLOAD PUSH32 0xC42ACADC00000000000000000000000000000000000000000000000000000000 DUP2 MSTORE PUSH16 0xFFFFFFFFFFFFFFFFFFFFFFFFFFFFFFFF DUP3 AND PUSH1 0x4 DUP3 ADD MSTORE PUSH1 0x1 PUSH1 0x1 PUSH1 0xA0 SHL SUB DUP6 AND PUSH1 0x24 DUP3 ADD MSTORE DUP4 DUP2 PUSH1 0x44 DUP2 DUP12 ADDRESS GAS CALL DUP9 SWAP2 DUP2 PUSH2 0x26D8 JUMPI JUMPDEST POP PUSH2 0x26C5 JUMPI JUMPDEST POP PUSH1 0x1 SWAP1 JUMPDEST ADD AND SWAP3 SWAP2 SWAP1 PUSH2 0x25AA JUMP JUMPDEST ISZERO PUSH2 0x26D0 JUMPI CODESIZE PUSH2 0x26B6 JUMP JUMPDEST SWAP4 POP DUP1 PUSH2 0x25B5 JUMP JUMPDEST PUSH2 0x26F0 SWAP2 SWAP3 POP DUP6 RETURNDATASIZE DUP8 GT PUSH2 0xABE JUMPI PUSH2 0xAAF DUP2 DUP4 PUSH2 0x397C JUMP JUMPDEST SWAP1 CODESIZE PUSH2 0x26B0 JUMP JUMPDEST ISZERO PUSH2 0x26D0 JUMPI PUSH1 0x1 SWAP1 PUSH2 0x26BB JUMP JUMPDEST PUSH2 0x271C SWAP2 SWAP3 POP DUP6 RETURNDATASIZE DUP8 GT PUSH2 0xABE JUMPI PUSH2 0xAAF DUP2 DUP4 PUSH2 0x397C JUMP JUMPDEST SWAP1 CODESIZE PUSH2 0x264C JUMP JUMPDEST SWAP1 POP SWAP3 SWAP2 SWAP3 PUSH2 0x25A7 JUMP JUMPDEST POP CALLVALUE PUSH2 0x32B JUMPI PUSH2 0x273C CALLDATASIZE PUSH2 0x37EA JUMP JUMPDEST CALLER DUP4 MSTORE PUSH1 0x20 SWAP1 PUSH1 0x5 DUP3 MSTORE PUSH1 0xFF PUSH1 0x40 DUP6 KECCAK256 SLOAD AND ISZERO PUSH2 0x825 JUMPI PUSH1 0xF SLOAD PUSH16 0xFFFFFFFFFFFFFFFFFFFFFFFFFFFFFFFF SWAP4 DUP5 DUP3 AND SWAP4 SWAP2 DUP6 SWAP2 DUP3 AND SWAP1 PUSH1 0x80 SHR DUP1 DUP3 LT ISZERO PUSH2 0x28FE JUMPI POP SWAP3 SWAP2 SWAP3 JUMPDEST AND SWAP2 JUMPDEST DUP5 DUP4 DUP2 DUP7 AND LT PUSH2 0x27C1 JUMPI JUMPDEST POP POP POP POP AND PUSH32 0xFFFFFFFFFFFFFFFFFFFFFFFFFFFFFFFF00000000000000000000000000000000 PUSH1 0xF SLOAD AND OR PUSH1 0xF SSTORE DUP1 RETURN JUMPDEST PUSH1 0x40 MLOAD PUSH32 0x2C8889DB00000000000000000000000000000000000000000000000000000000 DUP2 MSTORE PUSH16 0xFFFFFFFFFFFFFFFFFFFFFFFFFFFFFFFF DUP7 AND PUSH1 0x4 DUP3 ADD MSTORE PUSH1 0x1 PUSH1 0x1 PUSH1 0xA0 SHL SUB DUP5 AND PUSH1 0x24 DUP3 ADD MSTORE SWAP4 SWAP5 SWAP3 SWAP4 SWAP2 SWAP3 SWAP1 SWAP2 DUP4 DUP2 PUSH1 0x44 DUP2 DUP12 ADDRESS GAS CALL DUP9 SWAP2 DUP2 PUSH2 0x28DF JUMPI JUMPDEST POP PUSH2 0x28D2 JUMPI POP PUSH1 0x40 MLOAD PUSH32 0xC44FA0FB00000000000000000000000000000000000000000000000000000000 DUP2 MSTORE PUSH16 0xFFFFFFFFFFFFFFFFFFFFFFFFFFFFFFFF DUP3 AND PUSH1 0x4 DUP3 ADD MSTORE PUSH1 0x1 PUSH1 0x1 PUSH1 0xA0 SHL SUB DUP6 AND PUSH1 0x24 DUP3 ADD MSTORE DUP4 DUP2 PUSH1 0x44 DUP2 DUP12 ADDRESS GAS CALL DUP9 SWAP2 DUP2 PUSH2 0x28B3 JUMPI JUMPDEST POP PUSH2 0x28A0 JUMPI JUMPDEST POP PUSH1 0x1 SWAP1 JUMPDEST ADD AND SWAP3 SWAP2 SWAP1 PUSH2 0x2785 JUMP JUMPDEST ISZERO PUSH2 0x28AB JUMPI CODESIZE PUSH2 0x2891 JUMP JUMPDEST SWAP4 POP DUP1 PUSH2 0x2790 JUMP JUMPDEST PUSH2 0x28CB SWAP2 SWAP3 POP DUP6 RETURNDATASIZE DUP8 GT PUSH2 0xABE JUMPI PUSH2 0xAAF DUP2 DUP4 PUSH2 0x397C JUMP JUMPDEST SWAP1 CODESIZE PUSH2 0x288B JUMP JUMPDEST ISZERO PUSH2 0x28AB JUMPI PUSH1 0x1 SWAP1 PUSH2 0x2896 JUMP JUMPDEST PUSH2 0x28F7 SWAP2 SWAP3 POP DUP6 RETURNDATASIZE DUP8 GT PUSH2 0xABE JUMPI PUSH2 0xAAF DUP2 DUP4 PUSH2 0x397C JUMP JUMPDEST SWAP1 CODESIZE PUSH2 0x2827 JUMP JUMPDEST SWAP1 POP SWAP3 SWAP2 SWAP3 PUSH2 0x2782 JUMP JUMPDEST POP CALLVALUE PUSH2 0x32B JUMPI DUP1 PUSH1 0x3 NOT CALLDATASIZE ADD SLT PUSH2 0x32B JUMPI PUSH1 0x20 PUSH1 0x3 SLOAD PUSH1 0x40 MLOAD SWAP1 DUP2 MSTORE RETURN JUMPDEST POP PUSH1 0x40 PUSH1 0x3 NOT CALLDATASIZE ADD SLT PUSH2 0x32B JUMPI PUSH2 0x293B PUSH2 0x3829 JUMP JUMPDEST SWAP1 PUSH2 0x2944 PUSH2 0x378D JUMP JUMPDEST SWAP1 PUSH2 0x294D PUSH2 0x3A0D JUMP JUMPDEST PUSH1 0x3 SLOAD DUP1 CALLVALUE LT PUSH2 0x87E JUMPI POP PUSH1 0x1 PUSH1 0x1 PUSH1 0xA0 SHL SUB PUSH32 0x0 AND DUP1 EXTCODESIZE ISZERO PUSH2 0x1C01 JUMPI PUSH1 0x40 MLOAD PUSH32 0x1B82787800000000000000000000000000000000000000000000000000000000 DUP2 MSTORE PUSH32 0x0 PUSH1 0x1 PUSH1 0x1 PUSH1 0xA0 SHL SUB AND PUSH1 0x4 DUP3 ADD MSTORE CALLER PUSH1 0x24 DUP3 ADD MSTORE ADDRESS PUSH1 0x44 DUP3 ADD MSTORE PUSH16 0xFFFFFFFFFFFFFFFFFFFFFFFFFFFFFFFF DUP5 AND PUSH1 0x64 DUP3 ADD MSTORE SWAP1 DUP3 SWAP1 DUP3 SWAP1 PUSH1 0x84 SWAP1 DUP3 SWAP1 DUP5 SWAP1 GAS CALL DUP1 ISZERO PUSH2 0x1BF6 JUMPI PUSH2 0x2C74 JUMPI JUMPDEST POP SWAP1 PUSH1 0xD SLOAD SWAP3 DUP4 PUSH1 0x80 SHR PUSH2 0x2A2E SWAP1 PUSH2 0x39BD JUMP JUMPDEST PUSH1 0x80 SHL PUSH32 0xFFFFFFFFFFFFFFFFFFFFFFFFFFFFFFFF00000000000000000000000000000000 AND PUSH16 0xFFFFFFFFFFFFFFFFFFFFFFFFFFFFFFFF DUP6 AND OR PUSH1 0xD SSTORE NUMBER PUSH2 0x2A74 SWAP1 PUSH2 0x3A46 JUMP JUMPDEST SWAP3 PUSH2 0x2A7E TIMESTAMP PUSH2 0x3A97 JUMP JUMPDEST SWAP3 PUSH1 0x40 MLOAD SWAP3 PUSH2 0x2A8C DUP5 PUSH2 0x3909 JUMP JUMPDEST CALLER DUP5 MSTORE PUSH1 0x20 DUP5 ADD SWAP6 PUSH12 0xFFFFFFFFFFFFFFFFFFFFFFFF AND DUP7 MSTORE PUSH1 0x40 DUP5 ADD SWAP1 PUSH1 0x1 PUSH1 0x1 PUSH1 0xA0 SHL SUB AND SWAP5 DUP6 DUP3 MSTORE PUSH1 0x60 DUP6 ADD PUSH8 0xFFFFFFFFFFFFFFFF DUP1 SWAP3 AND DUP2 MSTORE PUSH1 0x80 DUP7 ADD SWAP4 PUSH16 0xFFFFFFFFFFFFFFFFFFFFFFFFFFFFFFFF AND SWAP8 DUP9 DUP6 MSTORE PUSH1 0xA0 DUP8 ADD SWAP6 CALLVALUE DUP8 MSTORE DUP11 PUSH1 0x80 SHR DUP2 MSTORE PUSH1 0xC PUSH1 0x20 MSTORE PUSH1 0x40 SWAP1 KECCAK256 SWAP7 MLOAD PUSH1 0x1 PUSH1 0x1 PUSH1 0xA0 SHL SUB AND SWAP1 PUSH32 0xFFFFFFFFFFFFFFFFFFFFFFFF0000000000000000000000000000000000000000 SWAP2 DUP3 DUP10 SLOAD AND OR DUP9 SSTORE MLOAD PUSH12 0xFFFFFFFFFFFFFFFFFFFFFFFF AND PUSH2 0x2B7B SWAP1 DUP9 SWAP1 PUSH1 0x1 PUSH1 0x1 PUSH1 0xA0 SHL SUB PUSH32 0xFFFFFFFFFFFFFFFFFFFFFFFF0000000000000000000000000000000000000000 DUP4 SLOAD SWAP3 PUSH1 0xA0 SHL AND SWAP2 AND OR SWAP1 SSTORE JUMP JUMPDEST PUSH1 0x1 DUP8 ADD SWAP4 MLOAD PUSH1 0x1 PUSH1 0x1 PUSH1 0xA0 SHL SUB AND SWAP1 DUP5 SLOAD AND OR DUP4 SSTORE MLOAD AND PUSH2 0x2BE4 SWAP2 SWAP1 PUSH32 0xFFFFFFFF0000000000000000FFFFFFFFFFFFFFFFFFFFFFFFFFFFFFFFFFFFFFFF PUSH28 0xFFFFFFFFFFFFFFFF0000000000000000000000000000000000000000 DUP4 SLOAD SWAP3 PUSH1 0xA0 SHL AND SWAP2 AND OR SWAP1 SSTORE JUMP JUMPDEST PUSH1 0x2 DUP4 ADD SWAP1 MLOAD PUSH16 0xFFFFFFFFFFFFFFFFFFFFFFFFFFFFFFFF AND DUP2 SLOAD PUSH32 0xFFFFFFFFFFFFFFFFFFFFFFFFFFFFFFFF00000000000000000000000000000000 AND OR SWAP1 SSTORE MLOAD SWAP1 PUSH1 0x3 ADD SSTORE PUSH1 0x40 MLOAD SWAP2 DUP3 MSTORE CALLVALUE PUSH1 0x20 DUP4 ADD MSTORE DUP3 PUSH1 0x80 SHR SWAP2 CALLER SWAP1 PUSH1 0x40 PUSH32 0xE797134446A7D08EC8E9C6A521F312297BE6D1E7AA9CD97D8248DF8B39461FF9 SWAP2 LOG4 PUSH1 0x1 PUSH1 0x2 SSTORE PUSH1 0x40 MLOAD SWAP1 PUSH1 0x80 SHR DUP2 MSTORE PUSH1 0x20 SWAP1 RETURN JUMPDEST PUSH2 0x2C7D SWAP1 PUSH2 0x38F5 JUMP JUMPDEST CODESIZE PUSH2 0x2A1B JUMP JUMPDEST POP CALLVALUE PUSH2 0x32B JUMPI PUSH1 0x20 PUSH1 0x3 NOT CALLDATASIZE ADD SLT PUSH2 0x32B JUMPI PUSH1 0x40 PUSH1 0xE0 SWAP2 PUSH16 0xFFFFFFFFFFFFFFFFFFFFFFFFFFFFFFFF PUSH2 0x2CB3 PUSH2 0x376E JUMP JUMPDEST AND DUP2 MSTORE PUSH1 0x8 PUSH1 0x20 MSTORE KECCAK256 PUSH8 0xFFFFFFFFFFFFFFFF DUP2 SLOAD SWAP2 PUSH1 0x1 PUSH1 0x1 PUSH1 0xA0 SHL SUB PUSH1 0x1 DUP3 ADD SLOAD SWAP2 PUSH1 0x3 PUSH1 0x2 DUP3 ADD SLOAD SWAP2 ADD SLOAD SWAP3 PUSH1 0x40 MLOAD SWAP6 DUP4 DUP2 AND DUP8 MSTORE PUSH1 0xA0 SHR PUSH1 0x20 DUP8 ADD MSTORE DUP3 DUP2 AND PUSH1 0x40 DUP8 ADD MSTORE PUSH1 0xA0 SHR PUSH1 0x60 DUP7 ADD MSTORE PUSH1 0x80 DUP6 ADD MSTORE DUP2 AND PUSH1 0xA0 DUP5 ADD MSTORE PUSH1 0xA0 SHR AND PUSH1 0xC0 DUP3 ADD MSTORE RETURN JUMPDEST POP CALLVALUE PUSH2 0x32B JUMPI DUP1 PUSH1 0x3 NOT CALLDATASIZE ADD SLT PUSH2 0x32B JUMPI PUSH1 0x20 PUSH16 0xFFFFFFFFFFFFFFFFFFFFFFFFFFFFFFFF PUSH1 0x11 SLOAD AND PUSH1 0x40 MLOAD SWAP1 DUP2 MSTORE RETURN JUMPDEST POP CALLVALUE PUSH2 0x32B JUMPI DUP1 PUSH1 0x3 NOT CALLDATASIZE ADD SLT PUSH2 0x32B JUMPI PUSH1 0x20 PUSH1 0xD SLOAD PUSH1 0x80 SHR PUSH1 0x40 MLOAD SWAP1 DUP2 MSTORE RETURN JUMPDEST POP PUSH1 0x60 PUSH1 0x3 NOT CALLDATASIZE ADD SLT PUSH2 0x32B JUMPI PUSH2 0x2D7F PUSH2 0x3829 JUMP JUMPDEST SWAP1 PUSH2 0x2D88 PUSH2 0x378D JUMP JUMPDEST SWAP2 PUSH2 0x2D91 PUSH2 0x3870 JUMP JUMPDEST SWAP3 PUSH2 0x2D9A PUSH2 0x3A0D JUMP JUMPDEST PUSH1 0x3 SLOAD DUP1 CALLVALUE LT PUSH2 0x87E JUMPI POP PUSH1 0x1 PUSH1 0x1 PUSH1 0xA0 SHL SUB PUSH1 0x20 SWAP5 PUSH1 0xF SLOAD SWAP5 PUSH32 0xFFFFFFFFFFFFFFFFFFFFFFFFFFFFFFFF00000000000000000000000000000000 PUSH2 0x2DE1 DUP8 PUSH1 0x80 SHR PUSH2 0x39BD JUMP JUMPDEST PUSH1 0x80 SHL AND PUSH16 0xFFFFFFFFFFFFFFFFFFFFFFFFFFFFFFFF DUP8 AND OR PUSH1 0xF SSTORE PUSH1 0x4 PUSH2 0x2E07 NUMBER PUSH2 0x3A46 JUMP JUMPDEST SWAP2 PUSH8 0xFFFFFFFFFFFFFFFF PUSH2 0x2E1A TIMESTAMP PUSH2 0x3A97 JUMP JUMPDEST PUSH12 0xFFFFFFFFFFFFFFFFFFFFFFFF PUSH1 0x40 MLOAD SWAP6 PUSH2 0x2E34 DUP8 PUSH2 0x38AA JUMP JUMPDEST CALLER DUP8 MSTORE AND DUP12 DUP7 ADD MSTORE DUP7 DUP10 AND PUSH1 0x40 DUP7 ADD MSTORE AND PUSH1 0x60 DUP5 ADD MSTORE PUSH16 0xFFFFFFFFFFFFFFFFFFFFFFFFFFFFFFFF DUP7 AND PUSH1 0x80 DUP5 ADD MSTORE DUP5 DUP5 AND PUSH1 0xA0 DUP5 ADD MSTORE PUSH1 0x40 PUSH1 0xC0 DUP5 ADD SWAP2 CALLVALUE DUP4 MSTORE DUP10 PUSH1 0x80 SHR DUP2 MSTORE PUSH1 0xE DUP12 MSTORE KECCAK256 SWAP3 DUP6 DUP2 MLOAD AND PUSH32 0xFFFFFFFFFFFFFFFFFFFFFFFF0000000000000000000000000000000000000000 SWAP1 DUP2 DUP7 SLOAD AND OR DUP6 SSTORE PUSH2 0x2EFB PUSH12 0xFFFFFFFFFFFFFFFFFFFFFFFF DUP13 DUP5 ADD MLOAD AND DUP7 SWAP1 PUSH1 0x1 PUSH1 0x1 PUSH1 0xA0 SHL SUB PUSH32 0xFFFFFFFFFFFFFFFFFFFFFFFF0000000000000000000000000000000000000000 DUP4 SLOAD SWAP3 PUSH1 0xA0 SHL AND SWAP2 AND OR SWAP1 SSTORE JUMP JUMPDEST PUSH2 0x2F6B PUSH1 0x1 DUP7 ADD DUP9 PUSH1 0x40 DUP6 ADD MLOAD AND DUP4 DUP3 SLOAD AND OR DUP2 SSTORE PUSH8 0xFFFFFFFFFFFFFFFF PUSH1 0x60 DUP6 ADD MLOAD AND PUSH32 0xFFFFFFFF0000000000000000FFFFFFFFFFFFFFFFFFFFFFFFFFFFFFFFFFFFFFFF PUSH28 0xFFFFFFFFFFFFFFFF0000000000000000000000000000000000000000 DUP4 SLOAD SWAP3 PUSH1 0xA0 SHL AND SWAP2 AND OR SWAP1 SSTORE JUMP JUMPDEST PUSH1 0x2 DUP6 ADD PUSH16 0xFFFFFFFFFFFFFFFFFFFFFFFFFFFFFFFF PUSH1 0x80 DUP5 ADD MLOAD AND PUSH32 0xFFFFFFFFFFFFFFFFFFFFFFFFFFFFFFFF00000000000000000000000000000000 DUP3 SLOAD AND OR SWAP1 SSTORE DUP7 PUSH1 0xA0 PUSH1 0x3 DUP8 ADD SWAP4 ADD MLOAD AND SWAP1 DUP3 SLOAD AND OR SWAP1 SSTORE MLOAD SWAP2 ADD SSTORE PUSH16 0xFFFFFFFFFFFFFFFFFFFFFFFFFFFFFFFF PUSH1 0x40 MLOAD SWAP4 AND DUP4 MSTORE AND DUP5 DUP3 ADD MSTORE CALLVALUE PUSH1 0x40 DUP3 ADD MSTORE PUSH1 0x1 PUSH1 0x1 PUSH1 0xA0 SHL SUB DUP4 PUSH1 0x80 SHR SWAP3 AND SWAP1 PUSH32 0xDCA15E0F2EE5869292721E579712BF963AC29068EF58BA773767DC9F5B065EEE PUSH1 0x60 CALLER SWAP3 LOG4 PUSH1 0x1 PUSH1 0x2 SSTORE PUSH1 0x40 MLOAD SWAP1 PUSH1 0x80 SHR DUP2 MSTORE RETURN JUMPDEST POP CALLVALUE PUSH2 0x32B JUMPI PUSH1 0x60 PUSH1 0x3 NOT CALLDATASIZE ADD SLT PUSH2 0x32B JUMPI PUSH1 0x4 CALLDATALOAD PUSH4 0xFFFFFFFF SWAP1 DUP2 DUP2 AND DUP1 SWAP2 SUB PUSH2 0x8BA JUMPI PUSH1 0x24 CALLDATALOAD SWAP1 DUP3 DUP3 AND DUP1 DUP4 SUB PUSH2 0x821 JUMPI PUSH1 0x44 CALLDATALOAD SWAP4 DUP5 AND SWAP1 DUP2 DUP6 SUB PUSH2 0x22A6 JUMPI PUSH32 0x5059425A16AA50B8D42BA1B984287F78E50743F3674C64736BE81D875723294D SWAP5 PUSH1 0x60 SWAP5 PUSH2 0x3099 PUSH2 0x3896 JUMP JUMPDEST PUSH8 0xFFFFFFFF00000000 DUP6 PUSH32 0xFFFFFFFFFFFFFFFFFFFFFFFFFFFFFFFFFFFFFFFF000000000000000000000000 PUSH12 0xFFFFFFFF0000000000000000 PUSH1 0x4 SLOAD SWAP6 PUSH1 0x40 SHL AND SWAP5 AND OR SWAP2 PUSH1 0x20 SHL AND OR OR PUSH1 0x4 SSTORE PUSH1 0x40 MLOAD SWAP3 DUP4 MSTORE PUSH1 0x20 DUP4 ADD MSTORE PUSH1 0x40 DUP3 ADD MSTORE LOG1 DUP1 RETURN JUMPDEST POP CALLVALUE PUSH2 0x32B JUMPI DUP1 PUSH1 0x3 NOT CALLDATASIZE ADD SLT PUSH2 0x32B JUMPI PUSH1 0x20 PUSH1 0x9 SLOAD PUSH1 0x80 SHR PUSH1 0x40 MLOAD SWAP1 DUP2 MSTORE RETURN JUMPDEST POP CALLVALUE PUSH2 0x32B JUMPI DUP1 PUSH1 0x3 NOT CALLDATASIZE ADD SLT PUSH2 0x32B JUMPI PUSH1 0x20 PUSH1 0x7 SLOAD PUSH1 0x80 SHR PUSH1 0x40 MLOAD SWAP1 DUP2 MSTORE RETURN JUMPDEST POP CALLVALUE PUSH2 0x32B JUMPI DUP1 PUSH1 0x3 NOT CALLDATASIZE ADD SLT PUSH2 0x32B JUMPI PUSH1 0x20 PUSH16 0xFFFFFFFFFFFFFFFFFFFFFFFFFFFFFFFF PUSH1 0x9 SLOAD AND PUSH1 0x40 MLOAD SWAP1 DUP2 MSTORE RETURN JUMPDEST POP CALLVALUE PUSH2 0x32B JUMPI PUSH1 0x20 PUSH2 0x901 PUSH2 0x3180 CALLDATASIZE PUSH2 0x37EA JUMP JUMPDEST SWAP1 PUSH2 0x3189 PUSH2 0x3A0D JUMP JUMPDEST PUSH2 0x437E JUMP JUMPDEST POP CALLVALUE PUSH2 0x32B JUMPI PUSH1 0x20 PUSH2 0x901 PUSH2 0x31A2 CALLDATASIZE PUSH2 0x37EA JUMP JUMPDEST SWAP1 PUSH2 0x31AB PUSH2 0x3A0D JUMP JUMPDEST PUSH2 0x4253 JUMP JUMPDEST POP CALLVALUE PUSH2 0x32B JUMPI DUP1 PUSH1 0x3 NOT CALLDATASIZE ADD SLT PUSH2 0x32B JUMPI PUSH1 0x20 PUSH1 0x4 SLOAD PUSH4 0xFFFFFFFF PUSH1 0x40 MLOAD SWAP2 DUP4 SHR AND DUP2 MSTORE RETURN JUMPDEST POP CALLVALUE PUSH2 0x32B JUMPI DUP1 PUSH1 0x3 NOT CALLDATASIZE ADD SLT PUSH2 0x32B JUMPI PUSH1 0x20 PUSH1 0x4 SLOAD PUSH1 0x60 SHR PUSH1 0x40 MLOAD SWAP1 DUP2 MSTORE RETURN JUMPDEST POP CALLVALUE PUSH2 0x32B JUMPI DUP1 PUSH1 0x3 NOT CALLDATASIZE ADD SLT PUSH2 0x32B JUMPI PUSH1 0x20 PUSH16 0xFFFFFFFFFFFFFFFFFFFFFFFFFFFFFFFF PUSH1 0xF SLOAD AND PUSH1 0x40 MLOAD SWAP1 DUP2 MSTORE RETURN JUMPDEST POP CALLVALUE PUSH2 0x32B JUMPI PUSH1 0x20 PUSH2 0x901 PUSH2 0x323B CALLDATASIZE PUSH2 0x37EA JUMP JUMPDEST SWAP1 PUSH2 0x3244 PUSH2 0x3A0D JUMP JUMPDEST PUSH2 0x4D49 JUMP JUMPDEST POP CALLVALUE PUSH2 0x32B JUMPI PUSH1 0x20 PUSH2 0x901 PUSH2 0x325D CALLDATASIZE PUSH2 0x37EA JUMP JUMPDEST SWAP1 PUSH2 0x3266 PUSH2 0x3A0D JUMP JUMPDEST PUSH2 0x4A2A JUMP JUMPDEST POP CALLVALUE PUSH2 0x32B JUMPI DUP1 PUSH1 0x3 NOT CALLDATASIZE ADD SLT PUSH2 0x32B JUMPI PUSH1 0x20 PUSH16 0xFFFFFFFFFFFFFFFFFFFFFFFFFFFFFFFF PUSH1 0x13 SLOAD AND PUSH1 0x40 MLOAD SWAP1 DUP2 MSTORE RETURN JUMPDEST POP CALLVALUE PUSH2 0x32B JUMPI PUSH1 0x20 PUSH1 0x3 NOT CALLDATASIZE ADD SLT PUSH2 0x32B JUMPI PUSH2 0x120 SWAP1 PUSH1 0x40 PUSH16 0xFFFFFFFFFFFFFFFFFFFFFFFFFFFFFFFF SWAP2 DUP3 PUSH2 0x32CE PUSH2 0x376E JUMP JUMPDEST AND DUP2 MSTORE PUSH1 0x10 PUSH1 0x20 MSTORE KECCAK256 SWAP1 PUSH1 0xFF DUP3 SLOAD SWAP3 PUSH1 0x1 PUSH1 0x1 PUSH1 0xA0 SHL SUB DUP1 PUSH1 0x1 DUP4 ADD SLOAD AND SWAP4 PUSH1 0x2 DUP4 ADD SLOAD SWAP1 PUSH1 0x4 PUSH1 0x3 DUP6 ADD SLOAD SWAP5 ADD SLOAD SWAP6 PUSH1 0x40 MLOAD SWAP8 DUP5 DUP2 AND DUP10 MSTORE PUSH1 0xA0 SHR PUSH1 0x20 DUP10 ADD MSTORE PUSH1 0x40 DUP9 ADD MSTORE DUP2 AND PUSH1 0x60 DUP8 ADD MSTORE PUSH1 0x80 SHR PUSH1 0x80 DUP7 ADD MSTORE DUP2 AND PUSH1 0xA0 DUP6 ADD MSTORE PUSH8 0xFFFFFFFFFFFFFFFF DUP2 PUSH1 0xA0 SHR AND PUSH1 0xC0 DUP6 ADD MSTORE PUSH1 0xE0 SHR AND PUSH1 0xE0 DUP4 ADD MSTORE PUSH2 0x100 DUP3 ADD MSTORE RETURN JUMPDEST POP CALLVALUE PUSH2 0x32B JUMPI DUP1 PUSH1 0x3 NOT CALLDATASIZE ADD SLT PUSH2 0x32B JUMPI PUSH1 0x20 PUSH16 0xFFFFFFFFFFFFFFFFFFFFFFFFFFFFFFFF PUSH1 0x7 SLOAD AND PUSH1 0x40 MLOAD SWAP1 DUP2 MSTORE RETURN JUMPDEST POP CALLVALUE PUSH2 0x32B JUMPI DUP1 PUSH1 0x3 NOT CALLDATASIZE ADD SLT PUSH2 0x32B JUMPI PUSH1 0x20 PUSH1 0x1 PUSH1 0x1 PUSH1 0xA0 SHL SUB PUSH1 0x1 SLOAD AND PUSH1 0x40 MLOAD SWAP1 DUP2 MSTORE RETURN JUMPDEST POP PUSH1 0x60 PUSH1 0x3 NOT CALLDATASIZE ADD SLT PUSH2 0x32B JUMPI PUSH2 0x33BA PUSH2 0x3829 JUMP JUMPDEST PUSH2 0x33C2 PUSH2 0x3855 JUMP JUMPDEST PUSH2 0x33CA PUSH2 0x3870 JUMP JUMPDEST SWAP2 PUSH2 0x33D3 PUSH2 0x3A0D JUMP JUMPDEST PUSH1 0x3 SLOAD DUP1 CALLVALUE LT PUSH2 0x87E JUMPI POP PUSH1 0x1 PUSH1 0x1 PUSH1 0xA0 SHL SUB AND PUSH12 0xFFFFFFFFFFFFFFFFFFFFFFFF PUSH1 0x40 MLOAD SWAP3 PUSH32 0x5186D6D200000000000000000000000000000000000000000000000000000000 DUP5 MSTORE AND SWAP2 DUP3 PUSH1 0x4 DUP3 ADD MSTORE PUSH1 0x20 DUP2 PUSH1 0x24 DUP2 DUP6 GAS STATICCALL SWAP1 DUP2 ISZERO PUSH2 0x816 JUMPI DUP6 SWAP2 PUSH2 0x36A6 JUMPI JUMPDEST POP PUSH1 0x1 PUSH1 0x1 PUSH1 0xA0 SHL SUB CALLER SWAP2 AND SUB PUSH2 0x825 JUMPI PUSH1 0x20 SWAP4 PUSH2 0x365B PUSH1 0x9 SLOAD SWAP5 PUSH32 0xFFFFFFFFFFFFFFFFFFFFFFFFFFFFFFFF00000000000000000000000000000000 PUSH2 0x3482 DUP8 PUSH1 0x80 SHR PUSH2 0x39BD JUMP JUMPDEST PUSH1 0x80 SHL AND PUSH16 0xFFFFFFFFFFFFFFFFFFFFFFFFFFFFFFFF DUP8 AND OR PUSH1 0x9 SSTORE PUSH8 0xFFFFFFFFFFFFFFFF PUSH1 0xC0 PUSH2 0x34B1 NUMBER PUSH2 0x3A46 JUMP JUMPDEST PUSH1 0x40 PUSH2 0x34BC TIMESTAMP PUSH2 0x3A97 JUMP JUMPDEST SWAP7 PUSH12 0xFFFFFFFFFFFFFFFFFFFFFFFF DUP3 MLOAD SWAP4 PUSH2 0x34D6 DUP6 PUSH2 0x38AA JUMP JUMPDEST CALLER DUP6 MSTORE DUP12 DUP15 DUP7 ADD MSTORE DUP11 DUP5 DUP7 ADD MSTORE AND PUSH1 0x60 DUP5 ADD MSTORE CALLVALUE PUSH1 0x80 DUP5 ADD MSTORE DUP5 PUSH1 0x1 PUSH1 0x1 PUSH1 0xA0 SHL SUB PUSH1 0xA0 DUP6 ADD SWAP8 AND SWAP9 DUP10 DUP9 MSTORE AND DUP5 DUP5 ADD MSTORE DUP11 PUSH1 0x80 SHR DUP2 MSTORE PUSH1 0x8 DUP13 MSTORE KECCAK256 PUSH1 0x1 PUSH1 0x1 PUSH1 0xA0 SHL SUB PUSH1 0x3 DUP2 DUP5 MLOAD AND SWAP3 PUSH32 0xFFFFFFFFFFFFFFFFFFFFFFFF0000000000000000000000000000000000000000 SWAP4 DUP5 DUP3 SLOAD AND OR DUP2 SSTORE PUSH2 0x3598 PUSH12 0xFFFFFFFFFFFFFFFFFFFFFFFF DUP16 DUP8 ADD MLOAD AND DUP3 SWAP1 PUSH1 0x1 PUSH1 0x1 PUSH1 0xA0 SHL SUB PUSH32 0xFFFFFFFFFFFFFFFFFFFFFFFF0000000000000000000000000000000000000000 DUP4 SLOAD SWAP3 PUSH1 0xA0 SHL AND SWAP2 AND OR SWAP1 SSTORE JUMP JUMPDEST PUSH2 0x35F7 PUSH1 0x1 DUP3 ADD DUP5 PUSH1 0x40 DUP9 ADD MLOAD AND DUP7 DUP3 SLOAD AND OR DUP2 SSTORE PUSH12 0xFFFFFFFFFFFFFFFFFFFFFFFF PUSH1 0x60 DUP9 ADD MLOAD AND PUSH1 0x1 PUSH1 0x1 PUSH1 0xA0 SHL SUB PUSH32 0xFFFFFFFFFFFFFFFFFFFFFFFF0000000000000000000000000000000000000000 DUP4 SLOAD SWAP3 PUSH1 0xA0 SHL AND SWAP2 AND OR SWAP1 SSTORE JUMP JUMPDEST PUSH1 0x80 DUP6 ADD MLOAD PUSH1 0x2 DUP3 ADD SSTORE ADD SWAP6 MLOAD AND SWAP1 DUP6 SLOAD AND OR DUP5 SSTORE ADD MLOAD AND PUSH32 0xFFFFFFFF0000000000000000FFFFFFFFFFFFFFFFFFFFFFFFFFFFFFFFFFFFFFFF PUSH28 0xFFFFFFFFFFFFFFFF0000000000000000000000000000000000000000 DUP4 SLOAD SWAP3 PUSH1 0xA0 SHL AND SWAP2 AND OR SWAP1 SSTORE JUMP JUMPDEST PUSH1 0x40 MLOAD SWAP3 DUP4 MSTORE DUP5 DUP4 ADD MSTORE CALLVALUE PUSH1 0x40 DUP4 ADD MSTORE DUP3 PUSH1 0x80 SHR SWAP2 PUSH32 0x7E48316A69792B38BE0BE5BAD34F9658A0AD6590E8A91FBADBEA78F125F4A511 PUSH1 0x60 CALLER SWAP3 LOG4 PUSH1 0x1 PUSH1 0x2 SSTORE PUSH1 0x40 MLOAD SWAP1 PUSH1 0x80 SHR DUP2 MSTORE RETURN JUMPDEST PUSH2 0x36BF SWAP2 POP PUSH1 0x20 RETURNDATASIZE PUSH1 0x20 GT PUSH2 0x877 JUMPI PUSH2 0x869 DUP2 DUP4 PUSH2 0x397C JUMP JUMPDEST CODESIZE PUSH2 0x343A JUMP JUMPDEST POP CALLVALUE PUSH2 0x32B JUMPI DUP1 PUSH1 0x3 NOT CALLDATASIZE ADD SLT PUSH2 0x32B JUMPI PUSH1 0x1 PUSH1 0x1 PUSH1 0xA0 SHL SUB PUSH1 0x20 SWAP2 SLOAD AND PUSH1 0x40 MLOAD SWAP1 DUP2 MSTORE RETURN JUMPDEST POP CALLVALUE PUSH2 0x32B JUMPI PUSH1 0x20 PUSH1 0x3 NOT CALLDATASIZE ADD SLT PUSH2 0x32B JUMPI PUSH2 0x3705 PUSH2 0x3829 JUMP JUMPDEST PUSH2 0x370D PUSH2 0x3896 JUMP JUMPDEST PUSH12 0xFFFFFFFFFFFFFFFFFFFFFFFF PUSH32 0xFFFFFFFFFFFFFFFFFFFFFFFFFFFFFFFFFFFFFFFF000000000000000000000000 PUSH1 0x4 SLOAD SWAP3 PUSH1 0x60 SHL AND SWAP2 AND OR PUSH1 0x4 SSTORE DUP1 RETURN JUMPDEST POP CALLVALUE PUSH2 0x32B JUMPI PUSH1 0x20 PUSH2 0x901 PUSH2 0x3760 CALLDATASIZE PUSH2 0x37EA JUMP JUMPDEST SWAP1 PUSH2 0x3769 PUSH2 0x3A0D JUMP JUMPDEST PUSH2 0x508C JUMP JUMPDEST PUSH1 0x4 CALLDATALOAD SWAP1 PUSH16 0xFFFFFFFFFFFFFFFFFFFFFFFFFFFFFFFF DUP3 AND DUP3 SUB PUSH2 0x8B5 JUMPI JUMP JUMPDEST PUSH1 0x24 CALLDATALOAD SWAP1 PUSH16 0xFFFFFFFFFFFFFFFFFFFFFFFFFFFFFFFF DUP3 AND DUP3 SUB PUSH2 0x8B5 JUMPI JUMP JUMPDEST PUSH1 0x44 CALLDATALOAD SWAP1 PUSH16 0xFFFFFFFFFFFFFFFFFFFFFFFFFFFFFFFF DUP3 AND DUP3 SUB PUSH2 0x8B5 JUMPI JUMP JUMPDEST PUSH1 0x64 CALLDATALOAD SWAP1 PUSH16 0xFFFFFFFFFFFFFFFFFFFFFFFFFFFFFFFF DUP3 AND DUP3 SUB PUSH2 0x8B5 JUMPI JUMP JUMPDEST PUSH1 0x3 NOT PUSH1 0x40 SWAP2 ADD SLT PUSH2 0x8B5 JUMPI PUSH1 0x4 CALLDATALOAD PUSH16 0xFFFFFFFFFFFFFFFFFFFFFFFFFFFFFFFF DUP2 AND DUP2 SUB PUSH2 0x8B5 JUMPI SWAP1 PUSH1 0x24 CALLDATALOAD PUSH1 0x1 PUSH1 0x1 PUSH1 0xA0 SHL SUB DUP2 AND DUP2 SUB PUSH2 0x8B5 JUMPI SWAP1 JUMP JUMPDEST PUSH1 0x4 CALLDATALOAD SWAP1 PUSH1 0x1 PUSH1 0x1 PUSH1 0xA0 SHL SUB DUP3 AND DUP3 SUB PUSH2 0x8B5 JUMPI JUMP JUMPDEST PUSH1 0x84 CALLDATALOAD SWAP1 PUSH1 0x1 PUSH1 0x1 PUSH1 0xA0 SHL SUB DUP3 AND DUP3 SUB PUSH2 0x8B5 JUMPI JUMP JUMPDEST PUSH1 0x24 CALLDATALOAD SWAP1 PUSH12 0xFFFFFFFFFFFFFFFFFFFFFFFF DUP3 AND DUP3 SUB PUSH2 0x8B5 JUMPI JUMP JUMPDEST PUSH1 0x44 CALLDATALOAD SWAP1 PUSH1 0x1 PUSH1 0x1 PUSH1 0xA0 SHL SUB DUP3 AND DUP3 SUB PUSH2 0x8B5 JUMPI JUMP JUMPDEST PUSH1 0x24 CALLDATALOAD SWAP1 PUSH1 0xFF DUP3 AND DUP3 SUB PUSH2 0x8B5 JUMPI JUMP JUMPDEST PUSH1 0x1 PUSH1 0x1 PUSH1 0xA0 SHL SUB PUSH1 0x0 SLOAD AND CALLER SUB PUSH2 0x825 JUMPI JUMP JUMPDEST PUSH1 0xE0 DUP2 ADD SWAP1 DUP2 LT PUSH8 0xFFFFFFFFFFFFFFFF DUP3 GT OR PUSH2 0x38C6 JUMPI PUSH1 0x40 MSTORE JUMP JUMPDEST PUSH32 0x4E487B7100000000000000000000000000000000000000000000000000000000 PUSH1 0x0 MSTORE PUSH1 0x41 PUSH1 0x4 MSTORE PUSH1 0x24 PUSH1 0x0 REVERT JUMPDEST PUSH8 0xFFFFFFFFFFFFFFFF DUP2 GT PUSH2 0x38C6 JUMPI PUSH1 0x40 MSTORE JUMP JUMPDEST PUSH1 0xC0 DUP2 ADD SWAP1 DUP2 LT PUSH8 0xFFFFFFFFFFFFFFFF DUP3 GT OR PUSH2 0x38C6 JUMPI PUSH1 0x40 MSTORE JUMP JUMPDEST PUSH2 0x120 DUP2 ADD SWAP1 DUP2 LT PUSH8 0xFFFFFFFFFFFFFFFF DUP3 GT OR PUSH2 0x38C6 JUMPI PUSH1 0x40 MSTORE JUMP JUMPDEST PUSH2 0x140 DUP2 ADD SWAP1 DUP2 LT PUSH8 0xFFFFFFFFFFFFFFFF DUP3 GT OR PUSH2 0x38C6 JUMPI PUSH1 0x40 MSTORE JUMP JUMPDEST PUSH2 0x100 DUP2 ADD SWAP1 DUP2 LT PUSH8 0xFFFFFFFFFFFFFFFF DUP3 GT OR PUSH2 0x38C6 JUMPI PUSH1 0x40 MSTORE JUMP JUMPDEST SWAP1 PUSH1 0x1F PUSH32 0xFFFFFFFFFFFFFFFFFFFFFFFFFFFFFFFFFFFFFFFFFFFFFFFFFFFFFFFFFFFFFFE0 SWAP2 ADD AND DUP2 ADD SWAP1 DUP2 LT PUSH8 0xFFFFFFFFFFFFFFFF DUP3 GT OR PUSH2 0x38C6 JUMPI PUSH1 0x40 MSTORE JUMP JUMPDEST PUSH16 0xFFFFFFFFFFFFFFFFFFFFFFFFFFFFFFFF DUP1 SWAP2 AND SWAP1 DUP2 EQ PUSH2 0x39DE JUMPI PUSH1 0x1 ADD SWAP1 JUMP JUMPDEST PUSH32 0x4E487B7100000000000000000000000000000000000000000000000000000000 PUSH1 0x0 MSTORE PUSH1 0x11 PUSH1 0x4 MSTORE PUSH1 0x24 PUSH1 0x0 REVERT JUMPDEST PUSH1 0x2 DUP1 SLOAD EQ PUSH2 0x3A1C JUMPI PUSH1 0x2 DUP1 SSTORE JUMP JUMPDEST PUSH1 0x4 PUSH1 0x40 MLOAD PUSH32 0x3EE5AEB500000000000000000000000000000000000000000000000000000000 DUP2 MSTORE REVERT JUMPDEST PUSH12 0xFFFFFFFFFFFFFFFFFFFFFFFF SWAP1 DUP2 DUP2 GT PUSH2 0x3A5F JUMPI AND SWAP1 JUMP JUMPDEST PUSH1 0x44 SWAP1 PUSH1 0x40 MLOAD SWAP1 PUSH32 0x6DFCC65000000000000000000000000000000000000000000000000000000000 DUP3 MSTORE PUSH1 0x60 PUSH1 0x4 DUP4 ADD MSTORE PUSH1 0x24 DUP3 ADD MSTORE REVERT JUMPDEST PUSH8 0xFFFFFFFFFFFFFFFF SWAP1 DUP2 DUP2 GT PUSH2 0x3AAC JUMPI AND SWAP1 JUMP JUMPDEST PUSH1 0x44 SWAP1 PUSH1 0x40 MLOAD SWAP1 PUSH32 0x6DFCC65000000000000000000000000000000000000000000000000000000000 DUP3 MSTORE PUSH1 0x40 PUSH1 0x4 DUP4 ADD MSTORE PUSH1 0x24 DUP3 ADD MSTORE REVERT JUMPDEST SWAP2 SWAP1 PUSH16 0xFFFFFFFFFFFFFFFFFFFFFFFFFFFFFFFF DUP1 SWAP4 AND SWAP1 PUSH1 0x0 SWAP1 DUP3 DUP3 MSTORE PUSH1 0x20 SWAP2 PUSH1 0x6 DUP4 MSTORE PUSH1 0x40 SWAP6 DUP7 DUP3 KECCAK256 SWAP1 DUP8 MLOAD SWAP2 PUSH2 0x3B1B DUP4 PUSH2 0x38AA JUMP JUMPDEST DUP1 SLOAD SWAP2 PUSH1 0x1 PUSH1 0x1 PUSH1 0xA0 SHL SUB SWAP4 DUP5 DUP5 AND SWAP4 DUP5 DUP3 MSTORE PUSH1 0xA0 SHR SWAP4 DUP5 DUP10 DUP4 ADD MSTORE PUSH8 0xFFFFFFFFFFFFFFFF PUSH1 0x1 DUP6 ADD SLOAD DUP14 DUP9 DUP3 AND SWAP1 DUP6 ADD MSTORE PUSH1 0xA0 SHR AND DUP1 PUSH1 0x60 DUP5 ADD MSTORE PUSH1 0x3 PUSH1 0x2 DUP7 ADD SLOAD SWAP6 PUSH1 0x80 DUP6 ADD SWAP7 DUP7 DUP2 AND DUP9 MSTORE PUSH1 0x80 SHR PUSH1 0xA0 DUP7 ADD MSTORE ADD SLOAD SWAP6 PUSH1 0xC0 DUP5 ADD SWAP7 DUP8 MSTORE DUP3 ISZERO PUSH2 0x3D25 JUMPI SWAP1 PUSH2 0x3B8C SWAP3 SWAP2 PUSH2 0x573E JUMP JUMPDEST ISZERO PUSH2 0x3D18 JUMPI MLOAD SWAP2 MLOAD PUSH2 0x3BC3 SWAP3 SWAP2 AND SWAP1 DUP5 AND PUSH32 0x0 PUSH2 0x3D37 JUMP JUMPDEST MLOAD SWAP3 DUP4 SELFBALANCE LT PUSH2 0x3CBB JUMPI DUP3 DUP1 DUP1 SWAP4 DUP2 SWAP4 AND SWAP6 DUP7 GAS CALL PUSH2 0x3BDF PUSH2 0x3E6C JUMP JUMPDEST POP ISZERO PUSH2 0x3C38 JUMPI SWAP5 PUSH2 0x3C2E DUP2 DUP8 DUP7 PUSH32 0xFEE2248811C172BCC1D3D747A65993C75EB11B228C85F537B1118C39432D642F SWAP8 SWAP9 SWAP10 MSTORE PUSH1 0x6 DUP7 MSTORE KECCAK256 PUSH1 0x3 PUSH1 0x0 SWAP2 DUP3 DUP2 SSTORE DUP3 PUSH1 0x1 DUP3 ADD SSTORE DUP3 PUSH1 0x2 DUP3 ADD SSTORE ADD SSTORE JUMP JUMPDEST MLOAD SWAP1 DUP2 MSTORE LOG2 PUSH1 0x1 SWAP1 JUMP JUMPDEST PUSH1 0x84 DUP4 DUP8 MLOAD SWAP1 PUSH32 0x8C379A000000000000000000000000000000000000000000000000000000000 DUP3 MSTORE PUSH1 0x4 DUP3 ADD MSTORE PUSH1 0x3A PUSH1 0x24 DUP3 ADD MSTORE PUSH32 0x416464726573733A20756E61626C6520746F2073656E642076616C75652C2072 PUSH1 0x44 DUP3 ADD MSTORE PUSH32 0x6563697069656E74206D61792068617665207265766572746564000000000000 PUSH1 0x64 DUP3 ADD MSTORE REVERT JUMPDEST PUSH1 0x64 DUP6 DUP10 MLOAD SWAP1 PUSH32 0x8C379A000000000000000000000000000000000000000000000000000000000 DUP3 MSTORE PUSH1 0x4 DUP3 ADD MSTORE PUSH1 0x1D PUSH1 0x24 DUP3 ADD MSTORE PUSH32 0x416464726573733A20696E73756666696369656E742062616C616E6365000000 PUSH1 0x44 DUP3 ADD MSTORE REVERT JUMPDEST POP SWAP4 SWAP9 POP POP POP POP POP POP POP POP JUMP JUMPDEST POP PUSH1 0x1 SWAP13 POP POP POP POP POP POP POP POP POP POP POP POP JUMP JUMPDEST SWAP2 SWAP1 PUSH1 0x40 MLOAD PUSH1 0x20 DUP2 ADD SWAP3 PUSH32 0xA9059CBB00000000000000000000000000000000000000000000000000000000 DUP5 MSTORE PUSH1 0x1 PUSH1 0x1 PUSH1 0xA0 SHL SUB DUP1 SWAP4 AND PUSH1 0x24 DUP4 ADD MSTORE PUSH1 0x44 DUP3 ADD MSTORE PUSH1 0x44 DUP2 MSTORE PUSH1 0x80 DUP2 ADD SWAP2 PUSH8 0xFFFFFFFFFFFFFFFF SWAP5 DUP3 DUP5 LT DUP7 DUP6 GT OR PUSH2 0x38C6 JUMPI AND SWAP4 PUSH1 0xC0 DUP3 ADD SWAP1 DUP2 GT DUP4 DUP3 LT OR PUSH2 0x38C6 JUMPI PUSH1 0x40 MSTORE PUSH1 0x1E DUP3 MSTORE PUSH32 0x416464726573733A206C6F772D6C6576656C2063616C6C206661696C65640000 PUSH1 0xA0 DUP3 ADD MSTORE MLOAD PUSH2 0x3DF2 SWAP3 PUSH1 0x0 SWAP2 DUP3 SWAP2 DUP3 DUP8 GAS CALL PUSH2 0x3DEB PUSH2 0x3E6C JUMP JUMPDEST SWAP1 DUP5 PUSH2 0x3ECA JUMP JUMPDEST DUP1 MLOAD SWAP1 DUP2 ISZERO ISZERO SWAP2 DUP3 PUSH2 0x3E39 JUMPI JUMPDEST POP POP PUSH2 0x3E08 JUMPI POP JUMP JUMPDEST PUSH1 0x24 SWAP1 PUSH1 0x40 MLOAD SWAP1 PUSH32 0x5274AFE700000000000000000000000000000000000000000000000000000000 DUP3 MSTORE PUSH1 0x4 DUP3 ADD MSTORE REVERT JUMPDEST PUSH2 0x3E4C SWAP3 POP PUSH1 0x20 DUP1 SWAP2 DUP4 ADD ADD SWAP2 ADD PUSH2 0x3E54 JUMP JUMPDEST ISZERO CODESIZE DUP1 PUSH2 0x3DFF JUMP JUMPDEST SWAP1 DUP2 PUSH1 0x20 SWAP2 SUB SLT PUSH2 0x8B5 JUMPI MLOAD DUP1 ISZERO ISZERO DUP2 SUB PUSH2 0x8B5 JUMPI SWAP1 JUMP JUMPDEST RETURNDATASIZE ISZERO PUSH2 0x3EC5 JUMPI RETURNDATASIZE SWAP1 PUSH8 0xFFFFFFFFFFFFFFFF DUP3 GT PUSH2 0x38C6 JUMPI PUSH1 0x40 MLOAD SWAP2 PUSH2 0x3EB9 PUSH1 0x20 PUSH32 0xFFFFFFFFFFFFFFFFFFFFFFFFFFFFFFFFFFFFFFFFFFFFFFFFFFFFFFFFFFFFFFE0 PUSH1 0x1F DUP5 ADD AND ADD DUP5 PUSH2 0x397C JUMP JUMPDEST DUP3 MSTORE RETURNDATASIZE PUSH1 0x0 PUSH1 0x20 DUP5 ADD RETURNDATACOPY JUMP JUMPDEST PUSH1 0x60 SWAP1 JUMP JUMPDEST SWAP2 SWAP3 SWAP1 ISZERO PUSH2 0x3F45 JUMPI POP DUP2 MLOAD ISZERO PUSH2 0x3EDE JUMPI POP SWAP1 JUMP JUMPDEST EXTCODESIZE ISZERO PUSH2 0x3EE7 JUMPI SWAP1 JUMP JUMPDEST PUSH1 0x64 PUSH1 0x40 MLOAD PUSH32 0x8C379A000000000000000000000000000000000000000000000000000000000 DUP2 MSTORE PUSH1 0x20 PUSH1 0x4 DUP3 ADD MSTORE PUSH1 0x1D PUSH1 0x24 DUP3 ADD MSTORE PUSH32 0x416464726573733A2063616C6C20746F206E6F6E2D636F6E7472616374000000 PUSH1 0x44 DUP3 ADD MSTORE REVERT JUMPDEST DUP3 MLOAD SWAP1 SWAP2 POP ISZERO PUSH2 0x3F58 JUMPI POP DUP1 MLOAD SWAP1 PUSH1 0x20 ADD REVERT JUMPDEST PUSH1 0x40 MLOAD SWAP1 PUSH32 0x8C379A000000000000000000000000000000000000000000000000000000000 DUP3 MSTORE DUP2 PUSH1 0x20 DUP1 PUSH1 0x4 DUP4 ADD MSTORE DUP3 MLOAD SWAP3 DUP4 PUSH1 0x24 DUP5 ADD MSTORE PUSH1 0x0 JUMPDEST DUP5 DUP2 LT PUSH2 0x3FD5 JUMPI POP POP POP PUSH32 0xFFFFFFFFFFFFFFFFFFFFFFFFFFFFFFFFFFFFFFFFFFFFFFFFFFFFFFFFFFFFFFE0 PUSH1 0x1F DUP4 PUSH1 0x0 PUSH1 0x44 DUP1 SWAP7 DUP7 ADD ADD MSTORE ADD AND DUP2 ADD SUB ADD SWAP1 REVERT JUMPDEST DUP2 DUP2 ADD DUP4 ADD MLOAD DUP7 DUP3 ADD PUSH1 0x44 ADD MSTORE DUP6 SWAP4 POP DUP3 ADD PUSH2 0x3F94 JUMP JUMPDEST SWAP2 SWAP1 PUSH16 0xFFFFFFFFFFFFFFFFFFFFFFFFFFFFFFFF DUP1 SWAP4 AND SWAP1 PUSH1 0x0 SWAP1 DUP3 DUP3 MSTORE PUSH1 0x20 SWAP2 PUSH1 0x6 DUP4 MSTORE PUSH1 0x40 SWAP6 DUP7 DUP3 KECCAK256 SWAP1 DUP8 MLOAD SWAP2 PUSH2 0x4023 DUP4 PUSH2 0x38AA JUMP JUMPDEST DUP1 SLOAD SWAP1 PUSH1 0x1 PUSH1 0x1 PUSH1 0xA0 SHL SUB SWAP4 DUP5 DUP4 AND SWAP3 DUP4 DUP3 MSTORE PUSH1 0xA0 SHR SWAP4 DUP5 DUP10 DUP4 ADD MSTORE PUSH1 0x1 DUP4 ADD SLOAD SWAP1 PUSH8 0xFFFFFFFFFFFFFFFF DUP14 DUP5 ADD SWAP3 DUP9 DUP2 AND DUP5 MSTORE PUSH1 0xA0 SHR AND SWAP5 DUP6 PUSH1 0x60 DUP6 ADD MSTORE PUSH1 0x2 DUP6 ADD SLOAD SWAP6 PUSH1 0x3 PUSH1 0x80 DUP7 ADD SWAP7 DUP5 DUP10 AND DUP9 MSTORE PUSH1 0xA0 DUP8 ADD SWAP9 PUSH1 0x80 SHR DUP10 MSTORE ADD SLOAD SWAP8 PUSH1 0xC0 DUP7 ADD SWAP9 DUP10 MSTORE DUP3 ISZERO PUSH2 0x4220 JUMPI SWAP1 PUSH2 0x4099 SWAP3 SWAP2 PUSH2 0x56DE JUMP JUMPDEST ISZERO PUSH2 0x4211 JUMPI SWAP2 DUP8 DUP3 DUP15 DUP13 SWAP7 SWAP6 PUSH2 0x40D9 DUP12 PUSH1 0x84 SWAP8 MLOAD AND DUP3 DUP10 MLOAD AND SWAP1 PUSH32 0x0 PUSH2 0x3D37 JUMP JUMPDEST DUP1 DUP12 DUP1 PUSH1 0x4 SLOAD PUSH1 0x60 SHR SWAP6 MLOAD AND SWAP7 MLOAD AND SWAP8 MLOAD AND SWAP9 MLOAD AND SWAP1 MLOAD SWAP8 DUP9 SWAP7 DUP8 SWAP6 PUSH32 0xF5D01C5300000000000000000000000000000000000000000000000000000000 DUP8 MSTORE PUSH1 0x4 DUP8 ADD MSTORE PUSH1 0x24 DUP7 ADD MSTORE PUSH1 0x44 DUP6 ADD MSTORE PUSH1 0x64 DUP5 ADD MSTORE DUP9 PUSH32 0x0 AND SWAP1 CALL DUP1 ISZERO PUSH2 0x4207 JUMPI PUSH2 0x41C8 JUMPI JUMPDEST POP MLOAD SWAP3 DUP4 SELFBALANCE LT PUSH2 0x3CBB JUMPI DUP3 DUP1 DUP1 SWAP4 DUP2 SWAP4 AND SWAP6 DUP7 GAS CALL PUSH2 0x4179 PUSH2 0x3E6C JUMP JUMPDEST POP ISZERO PUSH2 0x3C38 JUMPI SWAP5 PUSH2 0x3C2E DUP2 DUP8 DUP7 PUSH32 0x198F63E1D1ED3E5166E09D668C94ADD9F1F6392D6A78A1B901DC892C53E808A5 SWAP8 SWAP9 SWAP10 MSTORE PUSH1 0x6 DUP7 MSTORE KECCAK256 PUSH1 0x3 PUSH1 0x0 SWAP2 DUP3 DUP2 SSTORE DUP3 PUSH1 0x1 DUP3 ADD SSTORE DUP3 PUSH1 0x2 DUP3 ADD SSTORE ADD SSTORE JUMP JUMPDEST DUP6 DUP2 DUP2 RETURNDATASIZE DUP4 GT PUSH2 0x4200 JUMPI JUMPDEST PUSH2 0x41DD DUP2 DUP4 PUSH2 0x397C JUMP JUMPDEST DUP2 ADD SUB SLT PUSH2 0x812 JUMPI MLOAD PUSH12 0xFFFFFFFFFFFFFFFFFFFFFFFF DUP2 AND SUB PUSH2 0x8BA JUMPI CODESIZE PUSH2 0x415C JUMP JUMPDEST POP RETURNDATASIZE PUSH2 0x41D3 JUMP JUMPDEST DUP10 MLOAD RETURNDATASIZE DUP7 DUP3 RETURNDATACOPY RETURNDATASIZE SWAP1 REVERT JUMPDEST POP SWAP6 SWAP11 POP POP POP POP POP POP POP POP POP POP JUMP JUMPDEST POP PUSH1 0x1 SWAP15 POP POP POP POP POP POP POP POP POP POP POP POP POP POP JUMP JUMPDEST SWAP1 DUP2 PUSH1 0x20 SWAP2 SUB SLT PUSH2 0x8B5 JUMPI MLOAD PUSH1 0x1 PUSH1 0x1 PUSH1 0xA0 SHL SUB DUP2 AND DUP2 SUB PUSH2 0x8B5 JUMPI SWAP1 JUMP JUMPDEST PUSH16 0xFFFFFFFFFFFFFFFFFFFFFFFFFFFFFFFF SWAP1 SWAP3 SWAP2 SWAP3 AND PUSH1 0x0 SWAP3 DUP2 DUP5 MSTORE PUSH1 0x20 SWAP1 PUSH1 0x8 DUP3 MSTORE PUSH1 0x40 SWAP5 DUP6 DUP2 KECCAK256 DUP7 MLOAD SWAP1 PUSH2 0x4288 DUP3 PUSH2 0x38AA JUMP JUMPDEST DUP1 SLOAD PUSH1 0xC0 PUSH1 0x1 PUSH1 0x1 PUSH1 0xA0 SHL SUB SWAP4 DUP5 DUP4 AND SWAP3 DUP4 DUP3 MSTORE PUSH1 0xA0 SHR DUP9 DUP3 ADD MSTORE PUSH1 0x1 DUP5 ADD SLOAD DUP6 DUP2 AND DUP13 DUP4 ADD MSTORE PUSH1 0xA0 SHR SWAP1 DUP2 PUSH1 0x60 DUP3 ADD MSTORE PUSH8 0xFFFFFFFFFFFFFFFF PUSH1 0x3 PUSH1 0x2 DUP8 ADD SLOAD SWAP7 PUSH1 0x80 DUP5 ADD SWAP8 DUP9 MSTORE ADD SLOAD DUP8 DUP2 AND PUSH1 0xA0 DUP5 ADD MSTORE PUSH1 0xA0 SHR AND SWAP3 DUP4 SWAP2 ADD MSTORE DUP3 ISZERO PUSH2 0x436F JUMPI SWAP1 PUSH2 0x42F5 SWAP3 SWAP2 PUSH2 0x573E JUMP JUMPDEST ISZERO PUSH2 0x4365 JUMPI MLOAD SWAP3 DUP4 SELFBALANCE LT PUSH2 0x3CBB JUMPI DUP3 DUP1 DUP1 SWAP4 DUP2 SWAP4 AND SWAP6 DUP7 GAS CALL PUSH2 0x4316 PUSH2 0x3E6C JUMP JUMPDEST POP ISZERO PUSH2 0x3C38 JUMPI SWAP5 PUSH2 0x3C2E DUP2 DUP8 DUP7 PUSH32 0xA565D62C821B741407824BD7B75F4C08C3E499F3450D57F78927253E6513968A SWAP8 SWAP9 SWAP10 MSTORE PUSH1 0x8 DUP7 MSTORE KECCAK256 PUSH1 0x3 PUSH1 0x0 SWAP2 DUP3 DUP2 SSTORE DUP3 PUSH1 0x1 DUP3 ADD SSTORE DUP3 PUSH1 0x2 DUP3 ADD SSTORE ADD SSTORE JUMP JUMPDEST POP SWAP1 SWAP6 POP POP POP POP POP JUMP JUMPDEST POP PUSH1 0x1 SWAP10 POP POP POP POP POP POP POP POP POP JUMP JUMPDEST SWAP2 SWAP1 PUSH16 0xFFFFFFFFFFFFFFFFFFFFFFFFFFFFFFFF PUSH1 0x0 SWAP4 AND SWAP1 DUP2 DUP5 MSTORE PUSH1 0x20 SWAP1 PUSH1 0x8 DUP3 MSTORE PUSH1 0x40 SWAP5 DUP6 DUP2 KECCAK256 DUP7 MLOAD SWAP1 PUSH2 0x43B2 DUP3 PUSH2 0x38AA JUMP JUMPDEST DUP1 SLOAD PUSH1 0x1 PUSH1 0x1 PUSH1 0xA0 SHL SUB SWAP3 DUP4 DUP3 AND SWAP2 DUP3 DUP3 MSTORE DUP8 DUP3 ADD SWAP1 PUSH1 0xA0 SHR DUP2 MSTORE PUSH1 0x1 DUP5 ADD SLOAD SWAP3 PUSH1 0xC0 DUP13 DUP5 ADD SWAP5 DUP8 DUP2 AND DUP7 MSTORE PUSH1 0xA0 SHR DUP1 PUSH1 0x60 DUP7 ADD MSTORE PUSH1 0x3 PUSH1 0x2 DUP9 ADD SLOAD SWAP8 PUSH1 0x80 DUP8 ADD SWAP9 DUP10 MSTORE ADD SLOAD SWAP5 PUSH8 0xFFFFFFFFFFFFFFFF PUSH1 0xA0 DUP3 ADD SWAP7 DUP11 DUP2 AND DUP9 MSTORE PUSH1 0xA0 SHR AND SWAP3 DUP4 SWAP2 ADD MSTORE DUP3 ISZERO PUSH2 0x3D25 JUMPI SWAP1 PUSH2 0x4426 SWAP3 SWAP2 PUSH2 0x56DE JUMP JUMPDEST ISZERO PUSH2 0x3D18 JUMPI DUP5 PUSH32 0x0 AND DUP6 PUSH12 0xFFFFFFFFFFFFFFFFFFFFFFFF DUP2 PUSH1 0x4 SLOAD PUSH1 0x60 SHR SWAP7 MLOAD AND SWAP4 MLOAD AND SWAP4 MLOAD AND SWAP4 DUP2 EXTCODESIZE ISZERO PUSH2 0x4540 JUMPI SWAP2 DUP8 PUSH1 0x64 SWAP3 DUP2 SWAP6 SWAP5 DUP16 MLOAD SWAP8 DUP9 SWAP7 DUP8 SWAP6 PUSH32 0xC67F1A3500000000000000000000000000000000000000000000000000000000 DUP8 MSTORE PUSH1 0x4 DUP8 ADD MSTORE PUSH1 0x24 DUP7 ADD MSTORE PUSH1 0x44 DUP6 ADD MSTORE CALL DUP1 ISZERO PUSH2 0x4207 JUMPI PUSH2 0x452D JUMPI JUMPDEST POP MLOAD SWAP3 DUP4 SELFBALANCE LT PUSH2 0x3CBB JUMPI DUP3 DUP1 DUP1 SWAP4 DUP2 SWAP4 AND SWAP6 DUP7 GAS CALL PUSH2 0x44DE PUSH2 0x3E6C JUMP JUMPDEST POP ISZERO PUSH2 0x3C38 JUMPI SWAP5 PUSH2 0x3C2E DUP2 DUP8 DUP7 PUSH32 0x7E9B6633E18CFC37F865E76F44E6D92A23B2137B1935FFAC0EC36C7D682A3EF9 SWAP8 SWAP9 SWAP10 MSTORE PUSH1 0x8 DUP7 MSTORE KECCAK256 PUSH1 0x3 PUSH1 0x0 SWAP2 DUP3 DUP2 SSTORE DUP3 PUSH1 0x1 DUP3 ADD SSTORE DUP3 PUSH1 0x2 DUP3 ADD SSTORE ADD SSTORE JUMP JUMPDEST PUSH2 0x4539 SWAP1 SWAP4 SWAP2 SWAP4 PUSH2 0x38F5 JUMP JUMPDEST SWAP2 CODESIZE PUSH2 0x44C1 JUMP JUMPDEST DUP8 DUP1 REVERT JUMPDEST SWAP2 SWAP1 PUSH16 0xFFFFFFFFFFFFFFFFFFFFFFFFFFFFFFFF DUP1 SWAP4 AND SWAP1 PUSH1 0x0 SWAP1 DUP3 DUP3 MSTORE PUSH1 0x20 SWAP2 PUSH1 0xA DUP4 MSTORE PUSH1 0x40 SWAP6 DUP7 DUP3 KECCAK256 SWAP1 DUP8 MLOAD PUSH2 0x457A DUP2 PUSH2 0x395F JUMP JUMPDEST DUP3 SLOAD SWAP2 PUSH1 0x1 PUSH1 0x1 PUSH1 0xA0 SHL SUB SWAP4 DUP5 DUP5 AND SWAP4 DUP5 DUP5 MSTORE PUSH1 0xA0 SHR DUP9 DUP5 ADD MSTORE PUSH1 0x1 DUP2 ADD SLOAD DUP6 DUP2 AND DUP13 DUP6 ADD MSTORE PUSH1 0xA0 SHR SWAP4 DUP5 PUSH1 0x60 DUP6 ADD MSTORE PUSH1 0x2 DUP3 ADD SLOAD SWAP2 PUSH1 0x4 PUSH8 0xFFFFFFFFFFFFFFFF PUSH1 0x80 DUP8 ADD SWAP5 DUP1 PUSH1 0xF SIGNEXTEND DUP7 MSTORE PUSH1 0x80 SHR AND SWAP2 DUP3 PUSH1 0xA0 DUP9 ADD MSTORE DUP9 PUSH1 0x3 DUP3 ADD SLOAD AND PUSH1 0xC0 DUP9 ADD MSTORE ADD SLOAD SWAP6 PUSH1 0xE0 DUP7 ADD SWAP7 DUP8 MSTORE DUP3 ISZERO PUSH2 0x3D25 JUMPI SWAP1 PUSH2 0x45F8 SWAP3 SWAP2 PUSH2 0x573E JUMP JUMPDEST ISZERO PUSH2 0x3D18 JUMPI MLOAD SWAP1 DUP5 DUP7 DUP4 PUSH1 0xF SIGNEXTEND SGT PUSH2 0x4680 JUMPI JUMPDEST POP POP POP POP MLOAD SWAP3 DUP4 SELFBALANCE LT PUSH2 0x3CBB JUMPI DUP3 DUP1 DUP1 SWAP4 DUP2 SWAP4 AND SWAP6 DUP7 GAS CALL PUSH2 0x462B PUSH2 0x3E6C JUMP JUMPDEST POP ISZERO PUSH2 0x3C38 JUMPI SWAP5 PUSH2 0x3C2E DUP2 DUP8 DUP7 PUSH32 0xABE7A1C3664ECCA5B621221E58BB3929ED234AE77CEF4F7AF0ED4C14243539ED SWAP8 SWAP9 SWAP10 MSTORE PUSH1 0xA DUP7 MSTORE KECCAK256 PUSH1 0x4 PUSH1 0x0 SWAP2 DUP3 DUP2 SSTORE DUP3 PUSH1 0x1 DUP3 ADD SSTORE DUP3 PUSH1 0x2 DUP3 ADD SSTORE DUP3 PUSH1 0x3 DUP3 ADD SSTORE ADD SSTORE JUMP JUMPDEST PUSH2 0x46AF SWAP4 MLOAD AND SWAP2 AND SWAP1 PUSH32 0x0 PUSH2 0x3D37 JUMP JUMPDEST CODESIZE DUP1 DUP1 DUP5 PUSH2 0x460B JUMP JUMPDEST SWAP2 SWAP1 PUSH1 0x0 PUSH16 0xFFFFFFFFFFFFFFFFFFFFFFFFFFFFFFFF DUP1 SWAP5 AND SWAP2 DUP3 DUP3 MSTORE PUSH1 0x20 SWAP2 PUSH1 0xA DUP4 MSTORE PUSH1 0x40 SWAP6 DUP7 DUP3 KECCAK256 DUP8 MLOAD SWAP1 PUSH2 0x46ED DUP3 PUSH2 0x395F JUMP JUMPDEST DUP1 SLOAD SWAP3 PUSH1 0x1 PUSH1 0x1 PUSH1 0xA0 SHL SUB SWAP4 DUP5 DUP2 AND SWAP2 DUP3 DUP6 MSTORE DUP9 DUP6 ADD SWAP2 PUSH1 0xA0 SHR DUP3 MSTORE PUSH1 0x1 DUP5 ADD SLOAD SWAP1 DUP13 DUP7 ADD SWAP2 DUP8 DUP2 AND DUP4 MSTORE PUSH1 0xA0 SHR SWAP4 DUP5 PUSH1 0x60 DUP9 ADD MSTORE PUSH1 0x2 DUP7 ADD SLOAD SWAP5 PUSH8 0xFFFFFFFFFFFFFFFF PUSH1 0x80 DUP10 ADD SWAP7 DUP1 PUSH1 0xF SIGNEXTEND DUP9 MSTORE PUSH1 0x80 SHR AND SWAP1 DUP2 PUSH1 0xA0 DUP11 ADD MSTORE PUSH1 0xE0 PUSH1 0x4 DUP12 PUSH1 0x3 DUP12 ADD SLOAD AND SWAP10 PUSH1 0xC0 DUP13 ADD SWAP11 DUP12 MSTORE ADD SLOAD SWAP10 ADD SWAP9 DUP10 MSTORE DUP3 ISZERO PUSH2 0x4220 JUMPI SWAP1 PUSH2 0x4772 SWAP3 SWAP2 PUSH2 0x56DE JUMP JUMPDEST ISZERO PUSH2 0x4211 JUMPI DUP4 MLOAD DUP9 DUP2 PUSH1 0xF SIGNEXTEND SGT PUSH2 0x48B1 JUMPI JUMPDEST POP POP DUP6 PUSH32 0x0 AND SWAP1 DUP7 PUSH12 0xFFFFFFFFFFFFFFFFFFFFFFFF DUP2 PUSH1 0x4 SLOAD PUSH1 0x60 SHR SWAP4 MLOAD AND SWAP5 MLOAD AND SWAP5 MLOAD PUSH1 0xF SIGNEXTEND SWAP6 MLOAD AND DUP3 EXTCODESIZE ISZERO PUSH2 0x48AD JUMPI PUSH1 0x84 SWAP3 DUP10 SWAP6 SWAP5 SWAP3 DUP16 SWAP3 DUP8 SWAP4 MLOAD SWAP9 DUP10 SWAP8 DUP9 SWAP7 PUSH32 0xAE39E59C00000000000000000000000000000000000000000000000000000000 DUP9 MSTORE PUSH1 0x4 DUP9 ADD MSTORE PUSH1 0x24 DUP8 ADD MSTORE PUSH1 0x44 DUP7 ADD MSTORE PUSH1 0x64 DUP6 ADD MSTORE CALL DUP1 ISZERO PUSH2 0x4207 JUMPI PUSH2 0x489A JUMPI JUMPDEST POP MLOAD SWAP3 DUP4 SELFBALANCE LT PUSH2 0x3CBB JUMPI DUP3 DUP1 DUP1 SWAP4 DUP2 SWAP4 AND SWAP6 DUP7 GAS CALL PUSH2 0x4845 PUSH2 0x3E6C JUMP JUMPDEST POP ISZERO PUSH2 0x3C38 JUMPI SWAP5 PUSH2 0x3C2E DUP2 DUP8 DUP7 PUSH32 0xC6BEEBE7CB845FE82F56B83C4DCBDF0E872B01B4FCADF341CEC2E6D6C3B29204 SWAP8 SWAP9 SWAP10 MSTORE PUSH1 0xA DUP7 MSTORE KECCAK256 PUSH1 0x4 PUSH1 0x0 SWAP2 DUP3 DUP2 SSTORE DUP3 PUSH1 0x1 DUP3 ADD SSTORE DUP3 PUSH1 0x2 DUP3 ADD SSTORE DUP3 PUSH1 0x3 DUP3 ADD SSTORE ADD SSTORE JUMP JUMPDEST PUSH2 0x48A6 SWAP1 SWAP4 SWAP2 SWAP4 PUSH2 0x38F5 JUMP JUMPDEST SWAP2 CODESIZE PUSH2 0x4828 JUMP JUMPDEST DUP9 DUP1 REVERT JUMPDEST PUSH2 0x48E2 SWAP2 DUP9 DUP5 MLOAD AND SWAP2 AND SWAP1 PUSH32 0x0 PUSH2 0x3D37 JUMP JUMPDEST CODESIZE DUP1 PUSH2 0x4784 JUMP JUMPDEST SWAP2 SWAP1 PUSH16 0xFFFFFFFFFFFFFFFFFFFFFFFFFFFFFFFF DUP1 SWAP4 AND SWAP1 PUSH1 0x0 SWAP1 DUP3 DUP3 MSTORE PUSH1 0x20 SWAP2 PUSH1 0xC DUP4 MSTORE PUSH1 0x40 SWAP6 DUP7 DUP3 KECCAK256 SWAP1 DUP8 MLOAD SWAP2 PUSH2 0x4920 DUP4 PUSH2 0x3909 JUMP JUMPDEST DUP1 SLOAD SWAP2 PUSH1 0x1 PUSH1 0x1 PUSH1 0xA0 SHL SUB SWAP4 DUP5 DUP5 AND SWAP4 DUP5 DUP3 MSTORE PUSH1 0xA0 SHR SWAP4 DUP5 DUP10 DUP4 ADD MSTORE PUSH8 0xFFFFFFFFFFFFFFFF PUSH1 0x1 DUP6 ADD SLOAD DUP14 DUP9 DUP3 AND SWAP1 DUP6 ADD MSTORE PUSH1 0xA0 SHR AND DUP1 PUSH1 0x60 DUP5 ADD MSTORE PUSH1 0x3 DUP5 PUSH1 0x2 DUP8 ADD SLOAD AND SWAP6 PUSH1 0x80 DUP6 ADD SWAP7 DUP8 MSTORE ADD SLOAD SWAP6 PUSH1 0xA0 DUP5 ADD SWAP7 DUP8 MSTORE DUP3 ISZERO PUSH2 0x3D25 JUMPI SWAP1 PUSH2 0x4988 SWAP3 SWAP2 PUSH2 0x573E JUMP JUMPDEST ISZERO PUSH2 0x3D18 JUMPI MLOAD SWAP2 MLOAD PUSH2 0x49BF SWAP3 SWAP2 AND SWAP1 DUP5 AND PUSH32 0x0 PUSH2 0x3D37 JUMP JUMPDEST MLOAD SWAP3 DUP4 SELFBALANCE LT PUSH2 0x3CBB JUMPI DUP3 DUP1 DUP1 SWAP4 DUP2 SWAP4 AND SWAP6 DUP7 GAS CALL PUSH2 0x49DB PUSH2 0x3E6C JUMP JUMPDEST POP ISZERO PUSH2 0x3C38 JUMPI SWAP5 PUSH2 0x3C2E DUP2 DUP8 DUP7 PUSH32 0x8AD3C4B0A5FD9052F2A4D44FE5BF4A51281F3C7DAC6854F562EF60C714B22D71 SWAP8 SWAP9 SWAP10 MSTORE PUSH1 0xC DUP7 MSTORE KECCAK256 PUSH1 0x3 PUSH1 0x0 SWAP2 DUP3 DUP2 SSTORE DUP3 PUSH1 0x1 DUP3 ADD SSTORE DUP3 PUSH1 0x2 DUP3 ADD SSTORE ADD SSTORE JUMP JUMPDEST SWAP2 SWAP1 PUSH1 0x0 PUSH16 0xFFFFFFFFFFFFFFFFFFFFFFFFFFFFFFFF DUP1 SWAP5 AND SWAP2 DUP3 DUP3 MSTORE PUSH1 0x20 SWAP2 PUSH1 0xC DUP4 MSTORE PUSH1 0x40 SWAP6 DUP7 DUP3 KECCAK256 SWAP1 DUP8 MLOAD SWAP2 PUSH2 0x4A60 DUP4 PUSH2 0x3909 JUMP JUMPDEST DUP1 SLOAD SWAP1 PUSH1 0x1 PUSH1 0x1 PUSH1 0xA0 SHL SUB SWAP4 DUP5 DUP4 AND SWAP3 DUP4 DUP3 MSTORE PUSH1 0xA0 SHR SWAP4 DUP5 DUP10 DUP4 ADD MSTORE PUSH1 0x1 DUP4 ADD SLOAD SWAP4 PUSH8 0xFFFFFFFFFFFFFFFF DUP14 DUP5 ADD SWAP6 DUP9 DUP2 AND DUP8 MSTORE PUSH1 0xA0 SHR AND DUP1 PUSH1 0x60 DUP6 ADD MSTORE PUSH1 0x3 DUP4 PUSH1 0x2 DUP8 ADD SLOAD AND SWAP6 PUSH1 0x80 DUP7 ADD SWAP7 DUP8 MSTORE ADD SLOAD SWAP7 PUSH1 0xA0 DUP6 ADD SWAP8 DUP9 MSTORE DUP3 ISZERO PUSH2 0x4C18 JUMPI SWAP1 PUSH2 0x4ACA SWAP3 SWAP2 PUSH2 0x56DE JUMP JUMPDEST ISZERO PUSH2 0x4C0A JUMPI PUSH2 0x4B01 DUP7 DUP6 MLOAD AND DUP3 DUP6 MLOAD AND SWAP1 PUSH32 0x0 PUSH2 0x3D37 JUMP JUMPDEST DUP6 PUSH32 0x0 AND SWAP1 DUP7 DUP1 PUSH1 0x4 SLOAD PUSH1 0x60 SHR SWAP7 MLOAD AND SWAP4 MLOAD AND SWAP4 MLOAD AND SWAP4 DUP2 EXTCODESIZE ISZERO PUSH2 0x4540 JUMPI SWAP2 DUP8 PUSH1 0x64 SWAP3 DUP2 SWAP6 SWAP5 DUP16 MLOAD SWAP8 DUP9 SWAP7 DUP8 SWAP6 PUSH32 0x8C96742E00000000000000000000000000000000000000000000000000000000 DUP8 MSTORE PUSH1 0x4 DUP8 ADD MSTORE PUSH1 0x24 DUP7 ADD MSTORE PUSH1 0x44 DUP6 ADD MSTORE CALL DUP1 ISZERO PUSH2 0x4207 JUMPI PUSH2 0x4BF7 JUMPI JUMPDEST POP MLOAD SWAP3 DUP4 SELFBALANCE LT PUSH2 0x3CBB JUMPI DUP3 DUP1 DUP1 SWAP4 DUP2 SWAP4 AND SWAP6 DUP7 GAS CALL PUSH2 0x4BA8 PUSH2 0x3E6C JUMP JUMPDEST POP ISZERO PUSH2 0x3C38 JUMPI SWAP5 PUSH2 0x3C2E DUP2 DUP8 DUP7 PUSH32 0xBA50FD05E76C1C6A567282181DF6B166E9D3A16B581F4B374B5F4C755DA09A32 SWAP8 SWAP9 SWAP10 MSTORE PUSH1 0xC DUP7 MSTORE KECCAK256 PUSH1 0x3 PUSH1 0x0 SWAP2 DUP3 DUP2 SSTORE DUP3 PUSH1 0x1 DUP3 ADD SSTORE DUP3 PUSH1 0x2 DUP3 ADD SSTORE ADD SSTORE JUMP JUMPDEST PUSH2 0x4C03 SWAP1 SWAP4 SWAP2 SWAP4 PUSH2 0x38F5 JUMP JUMPDEST SWAP2 CODESIZE PUSH2 0x4B8B JUMP JUMPDEST POP SWAP5 SWAP10 POP POP POP POP POP POP POP POP POP JUMP JUMPDEST POP PUSH1 0x1 SWAP14 POP POP POP POP POP POP POP POP POP POP POP POP POP JUMP JUMPDEST SWAP2 SWAP1 PUSH16 0xFFFFFFFFFFFFFFFFFFFFFFFFFFFFFFFF DUP1 SWAP4 AND SWAP1 PUSH1 0x0 SWAP1 DUP3 DUP3 MSTORE PUSH1 0x20 SWAP2 PUSH1 0xE DUP4 MSTORE PUSH1 0x40 SWAP6 DUP7 DUP3 KECCAK256 SWAP1 DUP8 MLOAD SWAP1 PUSH2 0x4C62 DUP3 PUSH2 0x38AA JUMP JUMPDEST DUP3 SLOAD SWAP1 DUP10 PUSH1 0xC0 PUSH1 0x4 PUSH1 0x1 PUSH1 0x1 PUSH1 0xA0 SHL SUB SWAP7 PUSH8 0xFFFFFFFFFFFFFFFF DUP9 DUP8 AND SWAP7 DUP8 DUP10 MSTORE PUSH1 0xA0 SHR SWAP5 DUP6 DUP14 DUP11 ADD MSTORE PUSH1 0x1 DUP4 ADD SLOAD SWAP1 DUP11 DUP3 AND SWAP1 DUP11 ADD MSTORE PUSH1 0xA0 SHR AND SWAP5 DUP6 PUSH1 0x60 DUP10 ADD MSTORE PUSH1 0x2 DUP3 ADD SLOAD AND PUSH1 0x80 DUP9 ADD MSTORE DUP8 PUSH1 0x3 DUP3 ADD SLOAD AND PUSH1 0xA0 DUP9 ADD MSTORE ADD SLOAD SWAP5 ADD SWAP4 DUP5 MSTORE DUP3 ISZERO PUSH2 0x436F JUMPI SWAP1 PUSH2 0x4CD3 SWAP3 SWAP2 PUSH2 0x573E JUMP JUMPDEST ISZERO PUSH2 0x4365 JUMPI MLOAD SWAP3 DUP4 SELFBALANCE LT PUSH2 0x3CBB JUMPI DUP3 DUP1 DUP1 SWAP4 DUP2 SWAP4 AND SWAP6 DUP7 GAS CALL PUSH2 0x4CF4 PUSH2 0x3E6C JUMP JUMPDEST POP ISZERO PUSH2 0x3C38 JUMPI SWAP5 PUSH2 0x3C2E DUP2 DUP8 DUP7 PUSH32 0xD757BE4001F228CD845B2085F43BB971A0B40A38FB5303A1D5D5D8BCADDACB1E SWAP8 SWAP9 SWAP10 MSTORE PUSH1 0xE DUP7 MSTORE KECCAK256 PUSH1 0x4 PUSH1 0x0 SWAP2 DUP3 DUP2 SSTORE DUP3 PUSH1 0x1 DUP3 ADD SSTORE DUP3 PUSH1 0x2 DUP3 ADD SSTORE DUP3 PUSH1 0x3 DUP3 ADD SSTORE ADD SSTORE JUMP JUMPDEST SWAP2 SWAP1 PUSH1 0x0 PUSH16 0xFFFFFFFFFFFFFFFFFFFFFFFFFFFFFFFF DUP1 SWAP5 AND SWAP2 DUP3 DUP3 MSTORE PUSH1 0x20 SWAP2 PUSH1 0xE DUP4 MSTORE PUSH1 0x40 SWAP6 DUP7 DUP3 KECCAK256 SWAP1 DUP8 MLOAD SWAP2 PUSH2 0x4D7F DUP4 PUSH2 0x38AA JUMP JUMPDEST DUP1 SLOAD PUSH1 0x1 PUSH1 0x1 PUSH1 0xA0 SHL SUB SWAP4 DUP5 DUP3 AND SWAP2 DUP3 DUP3 MSTORE PUSH1 0xA0 SHR SWAP4 DUP5 DUP10 DUP4 ADD MSTORE PUSH1 0x1 DUP5 ADD SLOAD PUSH8 0xFFFFFFFFFFFFFFFF DUP14 DUP5 ADD SWAP2 DUP9 DUP2 AND DUP4 MSTORE PUSH1 0xA0 SHR AND SWAP4 DUP5 PUSH1 0x60 DUP6 ADD MSTORE DUP3 PUSH1 0x2 DUP8 ADD SLOAD AND SWAP5 PUSH1 0x80 DUP6 ADD SWAP6 DUP7 MSTORE PUSH1 0x4 DUP10 PUSH1 0x3 DUP10 ADD SLOAD AND SWAP8 PUSH1 0xA0 DUP8 ADD SWAP9 DUP10 MSTORE ADD SLOAD SWAP8 PUSH1 0xC0 DUP7 ADD SWAP9 DUP10 MSTORE DUP3 ISZERO PUSH2 0x4220 JUMPI SWAP1 PUSH2 0x4DF7 SWAP3 SWAP2 PUSH2 0x56DE JUMP JUMPDEST ISZERO PUSH2 0x4211 JUMPI DUP7 DUP1 PUSH32 0x0 AND SWAP3 DUP2 DUP1 PUSH1 0x4 SLOAD PUSH1 0x60 SHR SWAP5 MLOAD AND SWAP6 MLOAD AND SWAP6 MLOAD AND SWAP6 MLOAD AND DUP3 EXTCODESIZE ISZERO PUSH2 0x48AD JUMPI PUSH1 0x84 SWAP3 DUP10 SWAP6 SWAP5 SWAP3 DUP16 SWAP3 DUP8 SWAP4 MLOAD SWAP9 DUP10 SWAP8 DUP9 SWAP7 PUSH32 0x10E8667B00000000000000000000000000000000000000000000000000000000 DUP9 MSTORE PUSH1 0x4 DUP9 ADD MSTORE PUSH1 0x24 DUP8 ADD MSTORE PUSH1 0x44 DUP7 ADD MSTORE PUSH1 0x64 DUP6 ADD MSTORE CALL DUP1 ISZERO PUSH2 0x4207 JUMPI PUSH2 0x4F02 JUMPI JUMPDEST POP MLOAD SWAP3 DUP4 SELFBALANCE LT PUSH2 0x3CBB JUMPI DUP3 DUP1 DUP1 SWAP4 DUP2 SWAP4 AND SWAP6 DUP7 GAS CALL PUSH2 0x4EAD PUSH2 0x3E6C JUMP JUMPDEST POP ISZERO PUSH2 0x3C38 JUMPI SWAP5 PUSH2 0x3C2E DUP2 DUP8 DUP7 PUSH32 0x8DE768F9B33756DBBACB995D1363AC577BE55E47B6E92DCA7125572177D19B98 SWAP8 SWAP9 SWAP10 MSTORE PUSH1 0xE DUP7 MSTORE KECCAK256 PUSH1 0x4 PUSH1 0x0 SWAP2 DUP3 DUP2 SSTORE DUP3 PUSH1 0x1 DUP3 ADD SSTORE DUP3 PUSH1 0x2 DUP3 ADD SSTORE DUP3 PUSH1 0x3 DUP3 ADD SSTORE ADD SSTORE JUMP JUMPDEST PUSH2 0x4F0E SWAP1 SWAP4 SWAP2 SWAP4 PUSH2 0x38F5 JUMP JUMPDEST SWAP2 CODESIZE PUSH2 0x4E90 JUMP JUMPDEST SWAP2 SWAP1 PUSH16 0xFFFFFFFFFFFFFFFFFFFFFFFFFFFFFFFF DUP1 SWAP4 AND SWAP1 PUSH1 0x0 SWAP1 DUP3 DUP3 MSTORE PUSH1 0x20 SWAP2 PUSH1 0x10 DUP4 MSTORE PUSH1 0x40 SWAP6 DUP7 DUP3 KECCAK256 SWAP1 DUP8 MLOAD PUSH2 0x4F4B DUP2 PUSH2 0x3925 JUMP JUMPDEST DUP3 SLOAD SWAP2 PUSH1 0x1 PUSH1 0x1 PUSH1 0xA0 SHL SUB SWAP4 DUP5 DUP5 AND SWAP4 DUP5 DUP5 MSTORE PUSH1 0xA0 SHR SWAP4 DUP5 DUP10 DUP6 ADD MSTORE DUP6 PUSH1 0x1 DUP4 ADD SLOAD AND DUP13 DUP6 ADD MSTORE PUSH1 0x2 DUP3 ADD SLOAD SWAP2 PUSH1 0x60 DUP6 ADD SWAP3 DUP5 DUP2 AND DUP5 MSTORE PUSH1 0x80 SHR PUSH1 0x80 DUP7 ADD MSTORE PUSH1 0x4 PUSH1 0x3 DUP3 ADD SLOAD SWAP2 DUP9 DUP4 AND PUSH1 0xA0 DUP9 ADD MSTORE PUSH1 0xFF PUSH8 0xFFFFFFFFFFFFFFFF DUP5 PUSH1 0xA0 SHR AND SWAP4 DUP5 PUSH1 0xC0 DUP11 ADD MSTORE PUSH1 0xE0 SHR AND PUSH1 0xE0 DUP9 ADD MSTORE ADD SLOAD SWAP6 PUSH2 0x100 DUP7 ADD SWAP7 DUP8 MSTORE DUP3 ISZERO PUSH2 0x3D25 JUMPI SWAP1 PUSH2 0x4FD6 SWAP3 SWAP2 PUSH2 0x573E JUMP JUMPDEST ISZERO PUSH2 0x3D18 JUMPI MLOAD AND DUP4 DUP2 PUSH2 0x5058 JUMPI JUMPDEST POP POP POP MLOAD SWAP3 DUP4 SELFBALANCE LT PUSH2 0x3CBB JUMPI DUP3 DUP1 DUP1 SWAP4 DUP2 SWAP4 AND SWAP6 DUP7 GAS CALL PUSH2 0x5003 PUSH2 0x3E6C JUMP JUMPDEST POP ISZERO PUSH2 0x3C38 JUMPI SWAP5 PUSH2 0x3C2E DUP2 DUP8 DUP7 PUSH32 0x1D2411B4FC976D9755A4D5545721E601627259840A9BD777BC54F32A715E9437 SWAP8 SWAP9 SWAP10 MSTORE PUSH1 0x10 DUP7 MSTORE KECCAK256 PUSH1 0x4 PUSH1 0x0 SWAP2 DUP3 DUP2 SSTORE DUP3 PUSH1 0x1 DUP3 ADD SSTORE DUP3 PUSH1 0x2 DUP3 ADD SSTORE DUP3 PUSH1 0x3 DUP3 ADD SSTORE ADD SSTORE JUMP JUMPDEST PUSH2 0x5084 SWAP3 MLOAD AND PUSH32 0x0 PUSH2 0x3D37 JUMP JUMPDEST CODESIZE DUP1 DUP4 PUSH2 0x4FE4 JUMP JUMPDEST SWAP2 SWAP1 PUSH16 0xFFFFFFFFFFFFFFFFFFFFFFFFFFFFFFFF DUP1 SWAP4 AND SWAP1 PUSH1 0x0 SWAP1 DUP3 DUP3 MSTORE PUSH1 0x20 SWAP2 PUSH1 0x10 DUP4 MSTORE PUSH1 0x40 SWAP6 DUP7 DUP3 KECCAK256 SWAP1 DUP8 MLOAD PUSH2 0x50C2 DUP2 PUSH2 0x3925 JUMP JUMPDEST DUP3 SLOAD SWAP1 PUSH1 0x1 PUSH1 0x1 PUSH1 0xA0 SHL SUB SWAP4 DUP5 DUP4 AND SWAP3 DUP4 DUP4 MSTORE PUSH1 0xA0 SHR SWAP4 DUP5 DUP10 DUP5 ADD MSTORE DUP6 PUSH1 0x1 DUP4 ADD SLOAD AND SWAP3 DUP13 DUP2 ADD SWAP4 DUP5 MSTORE PUSH1 0x2 DUP4 ADD SLOAD SWAP4 PUSH1 0x60 DUP3 ADD SWAP5 DUP4 DUP2 AND DUP7 MSTORE PUSH1 0x80 DUP4 ADD SWAP1 PUSH1 0x80 SHR DUP2 MSTORE PUSH1 0x3 DUP6 ADD SLOAD SWAP7 PUSH1 0xA0 DUP5 ADD SWAP6 DUP11 DUP10 AND DUP8 MSTORE PUSH1 0x4 PUSH8 0xFFFFFFFFFFFFFFFF DUP11 PUSH1 0xA0 SHR AND SWAP2 DUP3 PUSH1 0xC0 DUP9 ADD MSTORE PUSH1 0xFF PUSH1 0xE0 DUP9 ADD SWAP12 PUSH1 0xE0 SHR AND DUP12 MSTORE ADD SLOAD SWAP10 PUSH2 0x100 DUP7 ADD SWAP11 DUP12 MSTORE DUP3 ISZERO PUSH2 0x5306 JUMPI SWAP1 PUSH2 0x5156 SWAP3 SWAP2 PUSH2 0x56DE JUMP JUMPDEST ISZERO PUSH2 0x52F5 JUMPI SWAP2 DUP10 DUP16 SWAP3 PUSH1 0xA4 SWAP4 DUP7 SWAP6 DUP16 SWAP8 DUP14 SWAP1 DUP12 MLOAD AND DUP1 PUSH2 0x52C1 JUMPI JUMPDEST POP DUP1 PUSH1 0x4 SLOAD PUSH1 0x60 SHR SWAP5 MLOAD AND SWAP6 MLOAD AND SWAP7 DUP1 PUSH1 0xFF DUP14 MLOAD AND SWAP12 MLOAD AND SWAP2 MLOAD AND SWAP2 MLOAD SWAP10 DUP11 SWAP8 DUP9 SWAP7 PUSH32 0x2A5A2CCA00000000000000000000000000000000000000000000000000000000 DUP9 MSTORE PUSH1 0x4 DUP9 ADD MSTORE PUSH1 0x24 DUP8 ADD MSTORE PUSH1 0x44 DUP7 ADD MSTORE PUSH1 0x64 DUP6 ADD MSTORE PUSH1 0x84 DUP5 ADD MSTORE DUP11 PUSH32 0x0 AND SWAP1 CALL SWAP2 DUP3 ISZERO PUSH2 0x52B7 JUMPI SWAP1 DUP6 SWAP2 DUP8 SWAP4 PUSH2 0x5298 JUMPI JUMPDEST POP MLOAD AND SWAP1 DUP2 PUSH2 0x5283 JUMPI JUMPDEST POP POP POP MLOAD SWAP3 DUP4 SELFBALANCE LT PUSH2 0x3CBB JUMPI DUP3 DUP1 DUP1 SWAP4 DUP2 SWAP4 AND SWAP6 DUP7 GAS CALL PUSH2 0x522E PUSH2 0x3E6C JUMP JUMPDEST POP ISZERO PUSH2 0x3C38 JUMPI SWAP5 PUSH2 0x3C2E DUP2 DUP8 DUP7 PUSH32 0xD823544A6DBEAF74C21AEBAD1E3A3100667FFAA00ED597CADE81B8752F8D8851 SWAP8 SWAP9 SWAP10 MSTORE PUSH1 0x10 DUP7 MSTORE KECCAK256 PUSH1 0x4 PUSH1 0x0 SWAP2 DUP3 DUP2 SSTORE DUP3 PUSH1 0x1 DUP3 ADD SSTORE DUP3 PUSH1 0x2 DUP3 ADD SSTORE DUP3 PUSH1 0x3 DUP3 ADD SSTORE ADD SSTORE JUMP JUMPDEST PUSH1 0xFF PUSH2 0x5290 SWAP4 MLOAD AND PUSH2 0x57E5 JUMP JUMPDEST CODESIZE DUP1 DUP1 PUSH2 0x520F JUMP JUMPDEST PUSH2 0x52B0 SWAP2 SWAP4 POP DUP10 RETURNDATASIZE DUP12 GT PUSH2 0x877 JUMPI PUSH2 0x869 DUP2 DUP4 PUSH2 0x397C JUMP JUMPDEST SWAP2 CODESIZE PUSH2 0x5205 JUMP JUMPDEST DUP12 MLOAD RETURNDATASIZE DUP9 DUP3 RETURNDATACOPY RETURNDATASIZE SWAP1 REVERT JUMPDEST PUSH2 0x52EE SWAP2 DUP6 MLOAD AND PUSH32 0x0 PUSH2 0x3D37 JUMP JUMPDEST DUP13 CODESIZE PUSH2 0x5171 JUMP JUMPDEST POP SWAP8 SWAP13 POP POP POP POP POP POP POP POP POP POP POP POP JUMP JUMPDEST POP POP POP POP POP POP POP POP POP POP POP POP POP POP POP POP SWAP1 POP PUSH1 0x1 SWAP1 JUMP JUMPDEST SWAP2 SWAP1 PUSH16 0xFFFFFFFFFFFFFFFFFFFFFFFFFFFFFFFF DUP1 SWAP4 AND SWAP1 PUSH1 0x0 SWAP1 DUP3 DUP3 MSTORE PUSH1 0x20 SWAP2 PUSH1 0x12 DUP4 MSTORE PUSH1 0x40 SWAP6 DUP7 DUP3 KECCAK256 DUP8 MLOAD SWAP1 PUSH2 0x5353 DUP3 PUSH2 0x3942 JUMP JUMPDEST DUP1 SLOAD SWAP1 PUSH1 0x1 PUSH1 0x1 PUSH1 0xA0 SHL SUB SWAP4 DUP5 DUP4 AND SWAP3 DUP4 DUP6 MSTORE PUSH1 0xA0 SHR SWAP1 DUP2 DUP10 DUP7 ADD MSTORE DUP6 PUSH1 0x1 DUP5 ADD SLOAD AND DUP13 DUP7 ADD MSTORE PUSH1 0x2 DUP4 ADD SLOAD SWAP1 DUP2 AND PUSH1 0x60 DUP7 ADD MSTORE PUSH1 0x80 SHR PUSH1 0x80 DUP6 ADD MSTORE PUSH2 0x120 PUSH1 0x5 PUSH1 0x3 DUP5 ADD SLOAD SWAP4 DUP8 DUP6 AND PUSH1 0xA0 DUP9 ADD MSTORE PUSH1 0xFF PUSH8 0xFFFFFFFFFFFFFFFF DUP7 PUSH1 0xA0 SHR AND SWAP6 DUP7 PUSH1 0xC0 DUP11 ADD MSTORE PUSH1 0xE0 SHR AND PUSH1 0xE0 DUP9 ADD MSTORE DUP8 PUSH1 0x4 DUP3 ADD SLOAD AND PUSH2 0x100 DUP9 ADD MSTORE ADD SLOAD SWAP5 ADD SWAP4 DUP5 MSTORE DUP3 ISZERO PUSH2 0x436F JUMPI SWAP1 PUSH2 0x53E7 SWAP3 SWAP2 PUSH2 0x573E JUMP JUMPDEST ISZERO PUSH2 0x4365 JUMPI MLOAD SWAP3 DUP4 SELFBALANCE LT PUSH2 0x3CBB JUMPI DUP3 DUP1 DUP1 SWAP4 DUP2 SWAP4 AND SWAP6 DUP7 GAS CALL PUSH2 0x5408 PUSH2 0x3E6C JUMP JUMPDEST POP ISZERO PUSH2 0x3C38 JUMPI SWAP5 PUSH2 0x3C2E DUP2 DUP8 DUP7 PUSH32 0x372E16D70372816EE6C454150CBA924501C25EEF247AB095E5122C2FF94B829E SWAP8 SWAP9 SWAP10 MSTORE PUSH1 0x12 DUP7 MSTORE KECCAK256 PUSH1 0x5 PUSH1 0x0 SWAP2 DUP3 DUP2 SSTORE DUP3 PUSH1 0x1 DUP3 ADD SSTORE DUP3 PUSH1 0x2 DUP3 ADD SSTORE DUP3 PUSH1 0x3 DUP3 ADD SSTORE DUP3 PUSH1 0x4 DUP3 ADD SSTORE ADD SSTORE JUMP JUMPDEST SWAP2 SWAP1 PUSH16 0xFFFFFFFFFFFFFFFFFFFFFFFFFFFFFFFF DUP1 SWAP4 AND SWAP1 PUSH1 0x0 SWAP1 DUP3 DUP3 MSTORE PUSH1 0x20 SWAP2 PUSH1 0x12 DUP4 MSTORE PUSH1 0x40 SWAP6 DUP7 DUP3 KECCAK256 SWAP1 DUP8 MLOAD SWAP1 PUSH2 0x549A DUP3 PUSH2 0x3942 JUMP JUMPDEST DUP3 SLOAD SWAP3 PUSH1 0x1 PUSH1 0x1 PUSH1 0xA0 SHL SUB SWAP4 DUP5 DUP2 AND SWAP1 DUP2 DUP6 MSTORE PUSH1 0xA0 SHR SWAP4 DUP5 DUP10 DUP3 ADD MSTORE DUP6 PUSH1 0x1 DUP5 ADD SLOAD AND DUP13 DUP3 ADD SWAP1 DUP2 MSTORE PUSH1 0x2 DUP5 ADD SLOAD SWAP4 PUSH1 0x60 DUP4 ADD SWAP5 DUP7 DUP2 AND DUP7 MSTORE PUSH1 0x80 DUP5 ADD SWAP1 PUSH1 0x80 SHR DUP2 MSTORE PUSH1 0x3 DUP3 ADD SLOAD SWAP7 PUSH1 0xA0 DUP6 ADD SWAP6 DUP11 DUP10 AND DUP8 MSTORE PUSH8 0xFFFFFFFFFFFFFFFF DUP10 PUSH1 0xA0 SHR AND DUP1 PUSH1 0xC0 DUP9 ADD MSTORE PUSH1 0xFF PUSH1 0xE0 DUP9 ADD SWAP11 PUSH1 0xE0 SHR AND DUP11 MSTORE PUSH1 0x5 DUP13 PUSH1 0x4 DUP8 ADD SLOAD AND SWAP6 PUSH2 0x100 DUP10 ADD SWAP7 DUP8 MSTORE ADD SLOAD SWAP11 PUSH2 0x120 DUP9 ADD SWAP12 DUP13 MSTORE DUP3 ISZERO PUSH2 0x56C6 JUMPI SWAP1 PUSH2 0x553C SWAP3 SWAP2 PUSH2 0x56DE JUMP JUMPDEST ISZERO PUSH2 0x56B4 JUMPI DUP16 SWAP4 DUP9 SWAP5 PUSH1 0xC4 SWAP5 DUP16 SWAP8 SWAP5 DUP14 DUP16 SWAP6 DUP1 PUSH1 0xFF DUP4 DUP1 PUSH1 0x4 SLOAD PUSH1 0x60 SHR SWAP10 MLOAD AND SWAP11 MLOAD AND SWAP12 MLOAD AND SWAP14 MLOAD AND SWAP3 MLOAD AND SWAP3 MLOAD AND SWAP3 MLOAD SWAP11 DUP12 SWAP9 DUP10 SWAP8 PUSH32 0xF86786F100000000000000000000000000000000000000000000000000000000 DUP10 MSTORE PUSH1 0x4 DUP10 ADD MSTORE PUSH1 0x24 DUP9 ADD MSTORE PUSH1 0x44 DUP8 ADD MSTORE PUSH1 0x64 DUP7 ADD MSTORE PUSH1 0x84 DUP6 ADD MSTORE PUSH1 0xA4 DUP5 ADD MSTORE DUP11 PUSH32 0x0 AND SWAP1 CALL SWAP2 DUP3 ISZERO PUSH2 0x52B7 JUMPI SWAP1 DUP6 SWAP2 DUP8 SWAP4 PUSH2 0x5695 JUMPI JUMPDEST POP MLOAD AND SWAP1 DUP2 PUSH2 0x566D JUMPI JUMPDEST POP POP POP MLOAD SWAP3 DUP4 SELFBALANCE LT PUSH2 0x3CBB JUMPI DUP3 DUP1 DUP1 SWAP4 DUP2 SWAP4 AND SWAP6 DUP7 GAS CALL PUSH2 0x5612 PUSH2 0x3E6C JUMP JUMPDEST POP ISZERO PUSH2 0x3C38 JUMPI SWAP5 PUSH2 0x3C2E DUP2 DUP8 DUP7 PUSH32 0xAE2F4E8D71EBD4F16A1F64C53CBC445AAFAE176F0052A2DE3B2772BC70E71A73 SWAP8 SWAP9 SWAP10 MSTORE PUSH1 0x12 DUP7 MSTORE KECCAK256 PUSH1 0x5 PUSH1 0x0 SWAP2 DUP3 DUP2 SSTORE DUP3 PUSH1 0x1 DUP3 ADD SSTORE DUP3 PUSH1 0x2 DUP3 ADD SSTORE DUP3 PUSH1 0x3 DUP3 ADD SSTORE DUP3 PUSH1 0x4 DUP3 ADD SSTORE ADD SSTORE JUMP JUMPDEST PUSH1 0x1 PUSH1 0xFF PUSH2 0x5686 SWAP5 MLOAD AND EQ PUSH1 0x0 EQ PUSH2 0x568E JUMPI PUSH1 0x2 PUSH2 0x57E5 JUMP JUMPDEST CODESIZE DUP1 DUP1 PUSH2 0x55F3 JUMP JUMPDEST PUSH1 0x1 PUSH2 0x57E5 JUMP JUMPDEST PUSH2 0x56AD SWAP2 SWAP4 POP DUP10 RETURNDATASIZE DUP12 GT PUSH2 0x877 JUMPI PUSH2 0x869 DUP2 DUP4 PUSH2 0x397C JUMP JUMPDEST SWAP2 CODESIZE PUSH2 0x55E9 JUMP JUMPDEST POP SWAP9 SWAP14 POP POP POP POP POP POP POP POP POP POP POP POP POP JUMP JUMPDEST POP POP POP POP POP POP POP POP POP POP POP POP POP POP POP POP POP SWAP1 POP PUSH1 0x1 SWAP1 JUMP JUMPDEST SWAP3 SWAP2 SWAP1 PUSH4 0xFFFFFFFF PUSH1 0x4 SLOAD PUSH1 0x40 SHR AND DUP2 ADD SWAP4 DUP5 DUP3 GT PUSH2 0x39DE JUMPI TIMESTAMP DUP6 GT ISZERO PUSH2 0x570D JUMPI PUSH2 0x570A SWAP4 SWAP5 POP PUSH2 0x573E JUMP JUMPDEST SWAP1 JUMP JUMPDEST PUSH1 0x24 DUP6 PUSH1 0x40 MLOAD SWAP1 PUSH32 0xF80DBAEA00000000000000000000000000000000000000000000000000000000 DUP3 MSTORE PUSH1 0x4 DUP3 ADD MSTORE REVERT JUMPDEST SWAP2 SWAP1 SWAP2 ADDRESS CALLER EQ DUP1 ISZERO PUSH2 0x57CD JUMPI JUMPDEST PUSH2 0x57B2 JUMPI POP PUSH1 0x1 PUSH1 0x1 PUSH1 0xA0 SHL SUB AND CALLER SUB PUSH2 0x825 JUMPI PUSH4 0xFFFFFFFF PUSH1 0x4 SLOAD PUSH1 0x20 SHR AND DUP2 ADD DUP1 SWAP2 GT PUSH2 0x39DE JUMPI TIMESTAMP DUP2 GT PUSH2 0x5781 JUMPI POP PUSH1 0x1 SWAP1 JUMP JUMPDEST PUSH1 0x24 SWAP1 PUSH1 0x40 MLOAD SWAP1 PUSH32 0x2A35A32400000000000000000000000000000000000000000000000000000000 DUP3 MSTORE PUSH1 0x4 DUP3 ADD MSTORE REVERT JUMPDEST SWAP2 POP POP PUSH4 0xFFFFFFFF PUSH1 0x4 SLOAD AND DUP2 ADD DUP1 SWAP2 GT PUSH2 0x39DE JUMPI NUMBER LT ISZERO SWAP1 JUMP JUMPDEST POP CALLER PUSH1 0x0 MSTORE PUSH1 0x5 PUSH1 0x20 MSTORE PUSH1 0xFF PUSH1 0x40 PUSH1 0x0 KECCAK256 SLOAD AND PUSH2 0x574B JUMP JUMPDEST PUSH1 0xFF AND PUSH1 0x1 DUP2 EQ SWAP1 DUP2 PUSH2 0x586C JUMPI JUMPDEST DUP2 ISZERO PUSH2 0x5846 JUMPI JUMPDEST POP PUSH2 0x5803 JUMPI POP POP JUMP JUMPDEST PUSH1 0x44 SWAP3 POP PUSH1 0x40 MLOAD SWAP2 PUSH32 0x7405791000000000000000000000000000000000000000000000000000000000 DUP4 MSTORE PUSH1 0x1 PUSH1 0x1 PUSH1 0xA0 SHL SUB DUP1 SWAP3 AND PUSH1 0x4 DUP5 ADD MSTORE AND PUSH1 0x24 DUP3 ADD MSTORE REVERT JUMPDEST PUSH1 0x2 SWAP2 POP EQ DUP1 PUSH2 0x5857 JUMPI JUMPDEST CODESIZE PUSH2 0x57FA JUMP JUMPDEST POP PUSH1 0x1 PUSH1 0x1 PUSH1 0xA0 SHL SUB DUP1 DUP4 AND SWAP1 DUP3 AND LT PUSH2 0x5851 JUMP JUMPDEST PUSH1 0x1 PUSH1 0x1 PUSH1 0xA0 SHL SUB DUP5 DUP2 AND SWAP1 DUP5 AND GT SWAP2 POP PUSH2 0x57F3 JUMP JUMPDEST PUSH1 0xFF AND PUSH1 0x1 DUP2 EQ ISZERO DUP1 PUSH2 0x58C8 JUMPI JUMPDEST PUSH2 0x5897 JUMPI POP JUMP JUMPDEST PUSH1 0x24 SWAP1 PUSH1 0x40 MLOAD SWAP1 PUSH32 0x7006E89500000000000000000000000000000000000000000000000000000000 DUP3 MSTORE PUSH1 0x4 DUP3 ADD MSTORE REVERT JUMPDEST POP PUSH1 0x2 DUP2 EQ ISZERO PUSH2 0x5890 JUMP INVALID LOG2 PUSH5 0x6970667358 0x22 SLT KECCAK256 SWAP7 KECCAK256 0xFB DUP2 0xD6 0xAD LT 0xA7 PUSH21 0x2FD8BE9A106F15957B1B3B1305A6E94B05B282BEB9 CHAINID DUP12 PUSH5 0x736F6C6343 STOP ADDMOD ISZERO STOP CALLER "},"methodIdentifiers":{"acceptGov()":"7bc6729b","adjustLiquidityPositionMarginIndex()":"948f9f75","adjustLiquidityPositionMarginIndexNext()":"8abb40ae","adjustLiquidityPositionMarginRequests(uint128)":"e97ec8ad","cancelAdjustLiquidityPositionMargin(uint128,address)":"de8b1109","cancelCloseLiquidityPosition(uint128,address)":"3c0c3698","cancelDecreasePosition(uint128,address)":"d6e9dcb4","cancelDecreaseRiskBufferFundPosition(uint128,address)":"c44fa0fb","cancelIncreasePosition(uint128,address)":"e001ddf5","cancelIncreaseRiskBufferFundPosition(uint128,address)":"c42acadc","cancelOpenLiquidityPosition(uint128,address)":"a8c4aec8","changeGov(address)":"a962ef1e","closeLiquidityPositionIndex()":"468ebcb0","closeLiquidityPositionIndexNext()":"4c3facf3","closeLiquidityPositionRequests(uint128)":"5dfff234","createAdjustLiquidityPositionMargin(address,uint96,int128,address)":"e7b5bd44","createCloseLiquidityPosition(address,uint96,address)":"206c30e8","createDecreasePosition(address,uint8,uint128,uint128,uint160,address)":"cb7ad971","createDecreaseRiskBufferFundPosition(address,uint128,address)":"56609eea","createIncreasePosition(address,uint8,uint128,uint128,uint160)":"79a552a1","createIncreaseRiskBufferFundPosition(address,uint128)":"62d25345","createOpenLiquidityPosition(address,uint128,uint128)":"808e7082","decreasePositionIndex()":"27d95c58","decreasePositionIndexNext()":"e59e4d70","decreasePositionRequests(uint128)":"def66c4e","decreaseRiskBufferFundPositionIndex()":"376fa02e","decreaseRiskBufferFundPositionIndexNext()":"868e45b7","decreaseRiskBufferFundPositionRequests(uint128)":"729e73da","executeAdjustLiquidityPositionMargin(uint128,address)":"b79aac79","executeAdjustLiquidityPositionMargins(uint128,address)":"7b5402c6","executeCloseLiquidityPosition(uint128,address)":"3d5b4799","executeCloseLiquidityPositions(uint128,address)":"784050e1","executeDecreasePosition(uint128,address)":"e54386ea","executeDecreasePositions(uint128,address)":"890143c5","executeDecreaseRiskBufferFundPosition(uint128,address)":"2c8889db","executeDecreaseRiskBufferFundPositions(uint128,address)":"6c525501","executeIncreasePosition(uint128,address)":"01d6b349","executeIncreasePositions(uint128,address)":"e03d62ae","executeIncreaseRiskBufferFundPosition(uint128,address)":"2aafab32","executeIncreaseRiskBufferFundPositions(uint128,address)":"6f707c75","executeOpenLiquidityPosition(uint128,address)":"a11da384","executeOpenLiquidityPositions(uint128,address)":"83011cb6","executionGasLimit()":"39cb1f3e","gov()":"12d43a51","increasePositionIndex()":"5d585edc","increasePositionIndexNext()":"bb11d2d0","increasePositionRequests(uint128)":"26624a41","increaseRiskBufferFundPositionIndex()":"753363bc","increaseRiskBufferFundPositionIndexNext()":"5c845f80","increaseRiskBufferFundPositionRequests(uint128)":"c2b37ccb","maxTimeDelay()":"cb0269c9","minBlockDelayExecutor()":"b5d6bca7","minExecutionFee()":"63ae2103","minTimeDelayPublic()":"3a2a80c7","openLiquidityPositionIndex()":"25d1bcee","openLiquidityPositionIndexNext()":"46b3ef1f","openLiquidityPositionRequests(uint128)":"d3d615bc","pendingGov()":"25240810","positionExecutors(address)":"b6ee0c3a","router()":"f887ea40","updateDelayValues(uint32,uint32,uint32)":"5567c2f7","updateExecutionGasLimit(uint160)":"04cd5387","updateMinExecutionFee(uint256)":"d307f03f","updatePositionExecutor(address,bool)":"cfd8b2e1","usd()":"d63a6ccd"}}}}}