{"contracts/plugins/Router.sol":{"Router":{"abi":[{"inputs":[{"internalType":"contract IEFC","name":"_EFC","type":"address"},{"internalType":"contract IRewardFarm","name":"_rewardFarm","type":"address"},{"internalType":"contract IFeeDistributor","name":"_feeDistributor","type":"address"}],"stateMutability":"nonpayable","type":"constructor"},{"inputs":[],"name":"CallerUnauthorized","type":"error"},{"inputs":[],"name":"Forbidden","type":"error"},{"inputs":[{"internalType":"address","name":"liquidator","type":"address"}],"name":"LiquidatorAlreadyRegistered","type":"error"},{"inputs":[{"internalType":"address","name":"owner","type":"address"},{"internalType":"address","name":"expectedOwner","type":"address"}],"name":"OwnerMismatch","type":"error"},{"inputs":[{"internalType":"address","name":"sender","type":"address"},{"internalType":"address","name":"plugin","type":"address"}],"name":"PluginAlreadyApproved","type":"error"},{"inputs":[{"internalType":"address","name":"plugin","type":"address"}],"name":"PluginAlreadyRegistered","type":"error"},{"inputs":[{"internalType":"address","name":"sender","type":"address"},{"internalType":"address","name":"plugin","type":"address"}],"name":"PluginNotApproved","type":"error"},{"inputs":[{"internalType":"address","name":"plugin","type":"address"}],"name":"PluginNotRegistered","type":"error"},{"inputs":[{"internalType":"address","name":"token","type":"address"}],"name":"SafeERC20FailedOperation","type":"error"},{"anonymous":false,"inputs":[{"indexed":true,"internalType":"address","name":"previousGov","type":"address"},{"indexed":true,"internalType":"address","name":"newGov","type":"address"}],"name":"ChangeGovStarted","type":"event"},{"anonymous":false,"inputs":[{"indexed":true,"internalType":"address","name":"previousGov","type":"address"},{"indexed":true,"internalType":"address","name":"newGov","type":"address"}],"name":"GovChanged","type":"event"},{"anonymous":false,"inputs":[{"indexed":true,"internalType":"address","name":"liquidator","type":"address"}],"name":"LiquidatorRegistered","type":"event"},{"anonymous":false,"inputs":[{"indexed":true,"internalType":"address","name":"account","type":"address"},{"indexed":true,"internalType":"address","name":"plugin","type":"address"}],"name":"PluginApproved","type":"event"},{"anonymous":false,"inputs":[{"indexed":true,"internalType":"address","name":"plugin","type":"address"}],"name":"PluginRegistered","type":"event"},{"anonymous":false,"inputs":[{"indexed":true,"internalType":"address","name":"account","type":"address"},{"indexed":true,"internalType":"address","name":"plugin","type":"address"}],"name":"PluginRevoked","type":"event"},{"inputs":[],"name":"EFC","outputs":[{"internalType":"contract IEFC","name":"","type":"address"}],"stateMutability":"view","type":"function"},{"inputs":[],"name":"acceptGov","outputs":[],"stateMutability":"nonpayable","type":"function"},{"inputs":[{"internalType":"address","name":"_plugin","type":"address"}],"name":"approvePlugin","outputs":[],"stateMutability":"nonpayable","type":"function"},{"inputs":[{"internalType":"address","name":"_newGov","type":"address"}],"name":"changeGov","outputs":[],"stateMutability":"nonpayable","type":"function"},{"inputs":[],"name":"feeDistributor","outputs":[{"internalType":"contract IFeeDistributor","name":"","type":"address"}],"stateMutability":"view","type":"function"},{"inputs":[],"name":"gov","outputs":[{"internalType":"address","name":"","type":"address"}],"stateMutability":"view","type":"function"},{"inputs":[{"internalType":"address","name":"_account","type":"address"},{"internalType":"address","name":"_plugin","type":"address"}],"name":"isPluginApproved","outputs":[{"internalType":"bool","name":"","type":"bool"}],"stateMutability":"view","type":"function"},{"inputs":[{"internalType":"address","name":"_liquidator","type":"address"}],"name":"isRegisteredLiquidator","outputs":[{"internalType":"bool","name":"","type":"bool"}],"stateMutability":"view","type":"function"},{"inputs":[],"name":"pendingGov","outputs":[{"internalType":"address","name":"","type":"address"}],"stateMutability":"view","type":"function"},{"inputs":[{"internalType":"contract IPool","name":"_pool","type":"address"},{"internalType":"uint96","name":"_positionID","type":"uint96"},{"internalType":"int128","name":"_marginDelta","type":"int128"},{"internalType":"address","name":"_receiver","type":"address"}],"name":"pluginAdjustLiquidityPositionMargin","outputs":[],"stateMutability":"nonpayable","type":"function"},{"inputs":[{"internalType":"contract IPool","name":"_pool","type":"address"},{"internalType":"uint96","name":"_positionID","type":"uint96"},{"internalType":"address","name":"_receiver","type":"address"}],"name":"pluginCloseLiquidityPosition","outputs":[],"stateMutability":"nonpayable","type":"function"},{"inputs":[{"internalType":"contract IPool","name":"_pool","type":"address"},{"internalType":"address","name":"_account","type":"address"},{"internalType":"Side","name":"_side","type":"uint8"},{"internalType":"uint128","name":"_sizeDelta","type":"uint128"},{"internalType":"address","name":"_receiver","type":"address"}],"name":"pluginClosePositionByLiquidator","outputs":[],"stateMutability":"nonpayable","type":"function"},{"inputs":[{"internalType":"address","name":"_receiver","type":"address"},{"internalType":"uint256[]","name":"_tokenIDs","type":"uint256[]"}],"name":"pluginCollectArchitectRewardBatch","outputs":[{"internalType":"uint256","name":"rewardDebt","type":"uint256"}],"stateMutability":"nonpayable","type":"function"},{"inputs":[{"internalType":"contract IPool[]","name":"_pools","type":"address[]"},{"internalType":"address","name":"_owner","type":"address"},{"internalType":"address","name":"_receiver","type":"address"}],"name":"pluginCollectFarmLiquidityRewardBatch","outputs":[{"internalType":"uint256","name":"rewardDebt","type":"uint256"}],"stateMutability":"nonpayable","type":"function"},{"inputs":[{"internalType":"contract IPool[]","name":"_pools","type":"address[]"},{"internalType":"uint256[]","name":"_referralTokens","type":"uint256[]"},{"internalType":"address","name":"_receiver","type":"address"}],"name":"pluginCollectFarmReferralRewardBatch","outputs":[{"internalType":"uint256","name":"rewardDebt","type":"uint256"}],"stateMutability":"nonpayable","type":"function"},{"inputs":[{"internalType":"contract IPool[]","name":"_pools","type":"address[]"},{"internalType":"address","name":"_owner","type":"address"},{"internalType":"address","name":"_receiver","type":"address"}],"name":"pluginCollectFarmRiskBufferFundRewardBatch","outputs":[{"internalType":"uint256","name":"rewardDebt","type":"uint256"}],"stateMutability":"nonpayable","type":"function"},{"inputs":[{"internalType":"contract IPool","name":"_pool","type":"address"},{"internalType":"uint256","name":"_referralToken","type":"uint256"},{"internalType":"address","name":"_receiver","type":"address"}],"name":"pluginCollectReferralFee","outputs":[{"internalType":"uint256","name":"","type":"uint256"}],"stateMutability":"nonpayable","type":"function"},{"inputs":[{"internalType":"address","name":"_owner","type":"address"},{"internalType":"address","name":"_receiver","type":"address"},{"internalType":"uint256[]","name":"_ids","type":"uint256[]"}],"name":"pluginCollectStakingRewardBatch","outputs":[{"internalType":"uint256","name":"rewardDebt","type":"uint256"}],"stateMutability":"nonpayable","type":"function"},{"inputs":[{"internalType":"address","name":"_owner","type":"address"},{"internalType":"address","name":"_receiver","type":"address"},{"internalType":"uint256[]","name":"_ids","type":"uint256[]"}],"name":"pluginCollectV3PosStakingRewardBatch","outputs":[{"internalType":"uint256","name":"rewardDebt","type":"uint256"}],"stateMutability":"nonpayable","type":"function"},{"inputs":[{"internalType":"contract IPool","name":"_pool","type":"address"},{"internalType":"address","name":"_account","type":"address"},{"internalType":"Side","name":"_side","type":"uint8"},{"internalType":"uint128","name":"_marginDelta","type":"uint128"},{"internalType":"uint128","name":"_sizeDelta","type":"uint128"},{"internalType":"address","name":"_receiver","type":"address"}],"name":"pluginDecreasePosition","outputs":[{"internalType":"uint160","name":"tradePriceX96","type":"uint160"}],"stateMutability":"nonpayable","type":"function"},{"inputs":[{"internalType":"contract IPool","name":"_pool","type":"address"},{"internalType":"address","name":"_account","type":"address"},{"internalType":"uint128","name":"_liquidityDelta","type":"uint128"},{"internalType":"address","name":"_receiver","type":"address"}],"name":"pluginDecreaseRiskBufferFundPosition","outputs":[],"stateMutability":"nonpayable","type":"function"},{"inputs":[{"internalType":"contract IPool","name":"_pool","type":"address"},{"internalType":"address","name":"_account","type":"address"},{"internalType":"Side","name":"_side","type":"uint8"},{"internalType":"uint128","name":"_marginDelta","type":"uint128"},{"internalType":"uint128","name":"_sizeDelta","type":"uint128"}],"name":"pluginIncreasePosition","outputs":[{"internalType":"uint160","name":"tradePriceX96","type":"uint160"}],"stateMutability":"nonpayable","type":"function"},{"inputs":[{"internalType":"contract IPool","name":"_pool","type":"address"},{"internalType":"address","name":"_account","type":"address"},{"internalType":"uint128","name":"_liquidityDelta","type":"uint128"}],"name":"pluginIncreaseRiskBufferFundPosition","outputs":[],"stateMutability":"nonpayable","type":"function"},{"inputs":[{"internalType":"contract IPool","name":"_pool","type":"address"},{"internalType":"address","name":"_account","type":"address"},{"internalType":"uint128","name":"_margin","type":"uint128"},{"internalType":"uint128","name":"_liquidity","type":"uint128"}],"name":"pluginOpenLiquidityPosition","outputs":[{"internalType":"uint96","name":"positionID","type":"uint96"}],"stateMutability":"nonpayable","type":"function"},{"inputs":[{"internalType":"contract IERC20","name":"_token","type":"address"},{"internalType":"address","name":"_from","type":"address"},{"internalType":"address","name":"_to","type":"address"},{"internalType":"uint256","name":"_amount","type":"uint256"}],"name":"pluginTransfer","outputs":[],"stateMutability":"nonpayable","type":"function"},{"inputs":[{"internalType":"contract IERC721","name":"_token","type":"address"},{"internalType":"address","name":"_from","type":"address"},{"internalType":"address","name":"_to","type":"address"},{"internalType":"uint256","name":"_tokenId","type":"uint256"}],"name":"pluginTransferNFT","outputs":[],"stateMutability":"nonpayable","type":"function"},{"inputs":[{"internalType":"address","name":"_liquidator","type":"address"}],"name":"registerLiquidator","outputs":[],"stateMutability":"nonpayable","type":"function"},{"inputs":[{"internalType":"address","name":"_plugin","type":"address"}],"name":"registerPlugin","outputs":[],"stateMutability":"nonpayable","type":"function"},{"inputs":[{"internalType":"address","name":"","type":"address"}],"name":"registeredPlugins","outputs":[{"internalType":"bool","name":"","type":"bool"}],"stateMutability":"view","type":"function"},{"inputs":[{"internalType":"address","name":"_plugin","type":"address"}],"name":"revokePlugin","outputs":[],"stateMutability":"nonpayable","type":"function"},{"inputs":[],"name":"rewardFarm","outputs":[{"internalType":"contract IRewardFarm","name":"","type":"address"}],"stateMutability":"view","type":"function"}],"evm":{"bytecode":{"linkReferences":{},"object":"60e03461011d57601f6200257038819003918201601f19168301916001600160401b038311848410176101225780849260609460405283398101031261011d5780516001600160a01b0391828216820361011d57602081015190838216820361011d5760400151838116810361011d576000543360018060a01b0319821617600055604051943391167f3d1e4c3a68fed9f4f8315582b7297cf8fa264bc8e6704287603ba8c72bf05ac2600080a360c05260a0526080526124379081620001398239608051818181610b96015281816117c0015281816119ab01528181611b2b01528181611cc70152611d7b015260a051818181610f81015281816110310152611c01015260c051818181610c6c01528181610ea401526119130152f35b600080fd5b634e487b7160e01b600052604160045260246000fdfe608080604052600436101561001357600080fd5b600090813560e01c90816303dbee4d14611a85575080630cfe3642146119375780630d43e8ad146118e657806310e8667b1461181757806312d43a51146117e45780631420f8021461179357806318602c7b1461173c5780631b827878146115355780632524081014611501578063292b33fc146114b75780632a5a2cca146113de57806338c74dd91461128f57806345b274071461118557806351a4b38e146110ac578063525c865614611055578063534593911461100457806360f6f14b14610fba57806364fdd23c14610f10578063724fa77114610e33578063786bccf214610b3a5780637bc6729b14610a835780638c96742e146109d2578063a962ef1e14610943578063ae39e59c1461082e578063afbb3831146107cc578063bb0c5f9514610703578063c171f0b0146105db578063c67f1a35146104ad578063d3d0d999146103d4578063f5d01c53146102a75763f86786f11461017657600080fd5b346102a45760c06003193601126102a45761018f611ef5565b610197611eaf565b906101a0611fd4565b916101a9611f37565b916101b2611f56565b9160a4359073ffffffffffffffffffffffffffffffffffffffff9485831680930361029f5785809460a4948a936020986101eb876123c7565b60ff6040519c8d9a8b997f1844c32c000000000000000000000000000000000000000000000000000000008b521660048a01521660248801526fffffffffffffffffffffffffffffffff80921660448801521660648601526084850152165af19182156102945760209392610265575b5060405191168152f35b610286919250833d811161028d575b61027e8183612093565b8101906121f6565b903861025b565b503d610274565b6040513d85823e3d90fd5b600080fd5b80fd5b50346102a45760806003193601126102a4576102c1611ef5565b60206102cb611eaf565b9160646102d6611f18565b93856102e0611f37565b956102ea836123c7565b6040517f76dc71af00000000000000000000000000000000000000000000000000000000815273ffffffffffffffffffffffffffffffffffffffff93841660048201526fffffffffffffffffffffffffffffffff91821660248201529616604487015285938492165af19081156103c957829161037b575b6020826bffffffffffffffffffffffff60405191168152f35b90506020813d82116103c1575b8161039560209383612093565b810103126103bd57516bffffffffffffffffffffffff811681036103bd576020915038610362565b5080fd5b3d9150610388565b6040513d84823e3d90fd5b50346102a45760206003193601126102a45773ffffffffffffffffffffffffffffffffffffffff610403611ef5565b61040b61205e565b16808252600360205260ff60408320541661047c5780825260036020526040822060017fffffffffffffffffffffffffffffffffffffffffffffffffffffffffffffff008254161790557f147270b607bb55cce19da6ecd1569d5d71e9638c59dc52ae16f6c456a255d5998280a280f35b602490604051907f651e96690000000000000000000000000000000000000000000000000000000082526004820152fd5b50346102a45760606003193601126102a457806104c8611ef5565b6104d0612043565b6104d8611e8c565b73ffffffffffffffffffffffffffffffffffffffff8093166bffffffffffffffffffffffff604051937f5186d6d20000000000000000000000000000000000000000000000000000000085521692836004820152602081602481855afa80156105d05761054c9187916105b2575b506123c7565b803b156105ae5784928360449260405196879586947f2c4d382600000000000000000000000000000000000000000000000000000000865260048601521660248401525af180156103c95761059e5750f35b6105a79061207f565b6102a45780f35b8480fd5b6105ca915060203d811161028d5761027e8183612093565b38610546565b6040513d88823e3d90fd5b50346102a45760a06003193601126102a4576105f5611ef5565b6105fd611eaf565b90610606611fd4565b9161060f611f37565b916084359173ffffffffffffffffffffffffffffffffffffffff9283811680910361029f57338752600360205260ff604088205416156106d9578360a49388926fffffffffffffffffffffffffffffffff60209860ff6040519b8c9a8b997f1844c32c000000000000000000000000000000000000000000000000000000008b521660048a01521660248801528560448801521660648601526084850152165af180156103c9576106be575080f35b6106d59060203d811161028d5761027e8183612093565b5080f35b60046040517f2b6dd476000000000000000000000000000000000000000000000000000000008152fd5b50346102a45760806003193601126102a4578060043573ffffffffffffffffffffffffffffffffffffffff81168091036107c95761073f611eaf565b610747611e8c565b90610751816123c7565b823b156107c4576040517f42842e0e00000000000000000000000000000000000000000000000000000000815273ffffffffffffffffffffffffffffffffffffffff918216600482015291166024820152606480356044830152909183918391829084905af180156103c95761059e5750f35b505050fd5b50fd5b50346102a45760406003193601126102a4576107e6611ef5565b60406107f0611eaf565b9273ffffffffffffffffffffffffffffffffffffffff80931681526004602052209116600052602052602060ff604060002054166040519015158152f35b50346102a45760806003193601126102a45780610849611ef5565b610851612043565b9060443580600f0b8091036107c457610868611ed2565b9273ffffffffffffffffffffffffffffffffffffffff809316906bffffffffffffffffffffffff604051917f5186d6d20000000000000000000000000000000000000000000000000000000083521690816004820152602081602481865afa8015610938576108dd9188916105b257506123c7565b813b156109345785606492819560405197889687957f8584075f000000000000000000000000000000000000000000000000000000008752600487015260248601521660448401525af180156103c95761059e5750f35b8580fd5b6040513d89823e3d90fd5b50346102a45760206003193601126102a45761095d611ef5565b61096561205e565b73ffffffffffffffffffffffffffffffffffffffff80911690817fffffffffffffffffffffffff000000000000000000000000000000000000000060015416176001558254167fb9911e2099e372c216862258dc462bb65da46a2c854536c8b1acae619d0d62ed8380a380f35b50346102a45760606003193601126102a457806109ed611ef5565b6109f5611eaf565b6109fd611f18565b91610a07826123c7565b73ffffffffffffffffffffffffffffffffffffffff809116803b156105ae578492836044926fffffffffffffffffffffffffffffffff60405197889687957f578cb6ca0000000000000000000000000000000000000000000000000000000087521660048601521660248401525af180156103c95761059e5750f35b50346102a457806003193601126102a45760015473ffffffffffffffffffffffffffffffffffffffff8082163303610b10577fffffffffffffffffffffffff0000000000000000000000000000000000000000809216600155825491339083161783553391167f3d1e4c3a68fed9f4f8315582b7297cf8fa264bc8e6704287603ba8c72bf05ac28380a380f35b60046040517fee90c468000000000000000000000000000000000000000000000000000000008152fd5b50346102a45760406003193601126102a457610b54611ef5565b906024803567ffffffffffffffff8111610e2f57610b76903690600401611e5b565b938415610e2b5773ffffffffffffffffffffffffffffffffffffffff91827f000000000000000000000000000000000000000000000000000000000000000016956040517f6352211e000000000000000000000000000000000000000000000000000000008082528335600483015260209889838981845afa928315610e20578993610e01575b509188979593918a979593610c11836123c7565b60015b848110610cdd575050505091610c686040979285948951998a98899788967f53ec31d10000000000000000000000000000000000000000000000000000000088521660048701528501526044840191612352565b03927f0000000000000000000000000000000000000000000000000000000000000000165af1918215610cd15791610ca4575b50604051908152f35b90508181813d8311610cca575b610cbb8183612093565b8101031261029f575138610c9b565b503d610cb1565b604051903d90823e3d90fd5b8481939597999b5086610cf4939597999b506122b7565b356040519084825260048201528b818b81865afa908115610df6578b91610dd9575b5088808616911603610d3b57610d2b906122f6565b918a979593918a99979593610c14565b8a8a938a610d4b8394898b6122b7565b35916040519586938492835260048301525afa928315610cd15792610dbc575b50506040517f4ecf968e00000000000000000000000000000000000000000000000000000000815273ffffffffffffffffffffffffffffffffffffffff918216600482015291166024820152604490fd5b610dd29250803d1061028d5761027e8183612093565b8280610d6b565b610df091508c8d3d1061028d5761027e8183612093565b38610d16565b6040513d8d823e3d90fd5b610e199193508a3d8c1161028d5761027e8183612093565b9138610bfd565b6040513d8b823e3d90fd5b8380fd5b8280fd5b50346102a457610e8a906020610e4836611f75565b610e568493949792976123c7565b60405196879485947f1d56eed00000000000000000000000000000000000000000000000000000000086526004860161238f565b03818473ffffffffffffffffffffffffffffffffffffffff7f0000000000000000000000000000000000000000000000000000000000000000165af1908115610cd15790610ede575b602090604051908152f35b506020813d8211610f08575b81610ef760209383612093565b8101031261029f5760209051610ed3565b3d9150610eea565b50346102a457610f67906020610f2536611fe4565b610f338297929493946123c7565b60405196879485947f563f233300000000000000000000000000000000000000000000000000000000865260048601612279565b03818473ffffffffffffffffffffffffffffffffffffffff7f0000000000000000000000000000000000000000000000000000000000000000165af1908115610cd15790610ede57602090604051908152f35b50346102a45760206003193601126102a45760ff604060209273ffffffffffffffffffffffffffffffffffffffff610ff0611ef5565b168152600384522054166040519015158152f35b50346102a457806003193601126102a457602060405173ffffffffffffffffffffffffffffffffffffffff7f0000000000000000000000000000000000000000000000000000000000000000168152f35b50346102a457610f6790602061106a36611fe4565b6110788297929493946123c7565b60405196879485947f2af44d0400000000000000000000000000000000000000000000000000000000865260048601612279565b50346102a45760206003193601126102a45773ffffffffffffffffffffffffffffffffffffffff6110db611ef5565b6110e361205e565b16808252600260205260ff6040832054166111545780825260026020526040822060017fffffffffffffffffffffffffffffffffffffffffffffffffffffffffffffff008254161790557f03cab74d2fa2a557ffeb0fd712180cfbea66cb894cf67fcf8a25b38b9ec5ad968280a280f35b602490604051907f5a473fa10000000000000000000000000000000000000000000000000000000082526004820152fd5b50346102a45760206003193601126102a45761119f611ef5565b3382526004602052604082209073ffffffffffffffffffffffffffffffffffffffff8116918260005260205260ff604060002054161561124057503382526004602052604082208160005260205260406000207fffffffffffffffffffffffffffffffffffffffffffffffffffffffffffffff008154169055337f15bb2b66587c2cebf2c9db7dc18211188c4c21b135dee66e2e66309c2e696d518380a380f35b6040517ffb96919d00000000000000000000000000000000000000000000000000000000815233600482015273ffffffffffffffffffffffffffffffffffffffff919091166024820152604490fd5b50346102a4576020806003193601126103bd576112aa611ef5565b9033835260048152604083209173ffffffffffffffffffffffffffffffffffffffff81169283600052825260ff6040600020541661138f57508183526002815260ff6040842054161561135e573383526004815260408320908260005252604060002060017fffffffffffffffffffffffffffffffffffffffffffffffffffffffffffffff00825416179055337f66075e2684e8cbbd5dd40f4ecfa3cb7e9903d1b492d8484496b579070dd080b48380a380f35b602482604051907f697116290000000000000000000000000000000000000000000000000000000082526004820152fd5b6040517fa7ed43a100000000000000000000000000000000000000000000000000000000815233600482015273ffffffffffffffffffffffffffffffffffffffff919091166024820152604490fd5b50346102a45760a06003193601126102a4576113f8611ef5565b611400611eaf565b90602061140b611fd4565b926084611416611f37565b9186611420611f56565b611429836123c7565b73ffffffffffffffffffffffffffffffffffffffff968795869260ff6040519b8c998a987f89e10817000000000000000000000000000000000000000000000000000000008a521660048901521660248701526fffffffffffffffffffffffffffffffff8092166044870152166064850152165af19182156102945760209392610265575060405191168152f35b50346102a45760206003193601126102a45760ff604060209273ffffffffffffffffffffffffffffffffffffffff6114ed611ef5565b168152600284522054166040519015158152f35b50346102a457806003193601126102a457602073ffffffffffffffffffffffffffffffffffffffff60015416604051908152f35b50346102a45760806003193601126102a45760043573ffffffffffffffffffffffffffffffffffffffff81168091036103bd57611570611eaf565b611578611e8c565b611581826123c7565b6040517f23b872dd00000000000000000000000000000000000000000000000000000000602080830191825273ffffffffffffffffffffffffffffffffffffffff9485166024840152929093166044820152606480358183015281529091907fffffffffffffffffffffffffffffffffffffffffffffffffffffffffffffffe061160c608483612093565b604051916040830167ffffffffffffffff94848210868311176116ff5788928392604052601e86527f416464726573733a206c6f772d6c6576656c2063616c6c206661696c6564000088870152519082895af13d1561172e573d9384116116ff57611694936116858660405194601f8401160184612093565b82523d878684013e5b856120d4565b80519182151591826116de575b505090506116ad575080f35b602490604051907f5274afe70000000000000000000000000000000000000000000000000000000082526004820152fd5b809250819381010312610e2b570151801590811503610e2f578038806116a1565b7f4e487b7100000000000000000000000000000000000000000000000000000000600052604160045260246000fd5b61169493506060915061168e565b50346102a457610e8a90602061175136611f75565b61175f8493949792976123c7565b60405196879485947f24cf56710000000000000000000000000000000000000000000000000000000086526004860161238f565b50346102a457806003193601126102a457602060405173ffffffffffffffffffffffffffffffffffffffff7f0000000000000000000000000000000000000000000000000000000000000000168152f35b50346102a457806003193601126102a45773ffffffffffffffffffffffffffffffffffffffff6020915416604051908152f35b50346102a45760806003193601126102a457611831611ef5565b8161183a611eaf565b91611843611f18565b9261184c611ed2565b90611856816123c7565b73ffffffffffffffffffffffffffffffffffffffff80931691823b156105ae576064928486926fffffffffffffffffffffffffffffffff604051998a9889977f8abcc9fb0000000000000000000000000000000000000000000000000000000089521660048801521660248601521660448401525af180156103c9576118da575080f35b6118e39061207f565b80f35b50346102a457806003193601126102a457602060405173ffffffffffffffffffffffffffffffffffffffff7f0000000000000000000000000000000000000000000000000000000000000000168152f35b50346102a45760606003193601126102a457611951611ef5565b9060243561195d611e8c565b73ffffffffffffffffffffffffffffffffffffffff91604051947f6352211e0000000000000000000000000000000000000000000000000000000086528160048701526020958681602481887f0000000000000000000000000000000000000000000000000000000000000000165afa9081156105d057856044936119ed8a9796948a948591611a6e57506123c7565b60405197889687957fd125865f0000000000000000000000000000000000000000000000000000000087526004870152166024850152165af1918215610cd1578092611a3e575b5050604051908152f35b9091508282813d8311611a67575b611a568183612093565b810103126102a45750513880611a34565b503d611a4c565b6105ca9150893d8b1161028d5761027e8183612093565b9050346103bd5760606003193601126103bd5767ffffffffffffffff90600435828111610e2b57611aba903690600401611e5b565b9190926024359081116105ae57611ad5903690600401611e5b565b611add611e8c565b928115611e57577f6352211e0000000000000000000000000000000000000000000000000000000081528235600482015260208160248173ffffffffffffffffffffffffffffffffffffffff7f0000000000000000000000000000000000000000000000000000000000000000165afa908115610938578791611e38575b50611b65816123c7565b60015b828110611c725787611bce602089898973ffffffffffffffffffffffffffffffffffffffff611be08b8b60405198899788977f0de759e8000000000000000000000000000000000000000000000000000000008952606060048a01526064890191612222565b91600319878403016024880152612352565b9116604483015203818573ffffffffffffffffffffffffffffffffffffffff7f0000000000000000000000000000000000000000000000000000000000000000165af19081156103c9578291611c3c575b602082604051908152f35b90506020813d602011611c6a575b81611c5760209383612093565b810103126103bd57602091505182611c31565b3d9150611c4a565b611c7d8184866122b7565b35604051907f6352211e000000000000000000000000000000000000000000000000000000008252600482015260208160248173ffffffffffffffffffffffffffffffffffffffff7f0000000000000000000000000000000000000000000000000000000000000000165afa908115610e20578991611e19575b5073ffffffffffffffffffffffffffffffffffffffff808416911603611d2557611d20906122f6565b611b68565b8792611d3192946122b7565b35604051907f6352211e000000000000000000000000000000000000000000000000000000008252600482015260208160248173ffffffffffffffffffffffffffffffffffffffff7f0000000000000000000000000000000000000000000000000000000000000000165afa918215610cd15791611dfa575b506040517f4ecf968e00000000000000000000000000000000000000000000000000000000815273ffffffffffffffffffffffffffffffffffffffff918216600482015291166024820152604490fd5b611e13915060203d60201161028d5761027e8183612093565b82611daa565b611e32915060203d60201161028d5761027e8183612093565b38611cf7565b611e51915060203d60201161028d5761027e8183612093565b38611b5b565b8680fd5b9181601f8401121561029f5782359167ffffffffffffffff831161029f576020808501948460051b01011161029f57565b6044359073ffffffffffffffffffffffffffffffffffffffff8216820361029f57565b6024359073ffffffffffffffffffffffffffffffffffffffff8216820361029f57565b6064359073ffffffffffffffffffffffffffffffffffffffff8216820361029f57565b6004359073ffffffffffffffffffffffffffffffffffffffff8216820361029f57565b604435906fffffffffffffffffffffffffffffffff8216820361029f57565b606435906fffffffffffffffffffffffffffffffff8216820361029f57565b608435906fffffffffffffffffffffffffffffffff8216820361029f57565b606060031982011261029f5773ffffffffffffffffffffffffffffffffffffffff91600435838116810361029f5792602435908116810361029f57916044359067ffffffffffffffff821161029f57611fd091600401611e5b565b9091565b6044359060ff8216820361029f57565b606060031982011261029f576004359067ffffffffffffffff821161029f5761200f91600401611e5b565b909173ffffffffffffffffffffffffffffffffffffffff90602435828116810361029f5791604435908116810361029f5790565b602435906bffffffffffffffffffffffff8216820361029f57565b73ffffffffffffffffffffffffffffffffffffffff600054163303610b1057565b67ffffffffffffffff81116116ff57604052565b90601f7fffffffffffffffffffffffffffffffffffffffffffffffffffffffffffffffe0910116810190811067ffffffffffffffff8211176116ff57604052565b9192901561214f57508151156120e8575090565b3b156120f15790565b60646040517f08c379a000000000000000000000000000000000000000000000000000000000815260206004820152601d60248201527f416464726573733a2063616c6c20746f206e6f6e2d636f6e74726163740000006044820152fd5b8251909150156121625750805190602001fd5b604051907f08c379a000000000000000000000000000000000000000000000000000000000825281602080600483015282519283602484015260005b8481106121df575050507fffffffffffffffffffffffffffffffffffffffffffffffffffffffffffffffe0601f836000604480968601015201168101030190fd5b81810183015186820160440152859350820161219e565b9081602091031261029f575173ffffffffffffffffffffffffffffffffffffffff8116810361029f5790565b9190808252602080920192916000805b83821061224157505050505090565b9091929394853573ffffffffffffffffffffffffffffffffffffffff8116809103610e2f578152830194830193929160010190612232565b929061229390604093969596606086526060860191612222565b9473ffffffffffffffffffffffffffffffffffffffff809216602085015216910152565b91908110156122c75760051b0190565b7f4e487b7100000000000000000000000000000000000000000000000000000000600052603260045260246000fd5b7fffffffffffffffffffffffffffffffffffffffffffffffffffffffffffffffff81146123235760010190565b7f4e487b7100000000000000000000000000000000000000000000000000000000600052601160045260246000fd5b90918281527f07ffffffffffffffffffffffffffffffffffffffffffffffffffffffffffffff831161029f5760209260051b809284830137010190565b6060916123c4959373ffffffffffffffffffffffffffffffffffffffff80921683521660208201528160408201520191612352565b90565b73ffffffffffffffffffffffffffffffffffffffff16600052600460205260406000203360005260205260ff60406000205416156106d95756fea2646970667358221220f5cff65d3a4d365300eb18a80e21d3d6ce28c7b46d6e0af487a77a52eb9b333d64736f6c63430008150033","opcodes":"PUSH1 0xE0 CALLVALUE PUSH2 0x11D JUMPI PUSH1 0x1F PUSH3 0x2570 CODESIZE DUP2 SWAP1 SUB SWAP2 DUP3 ADD PUSH1 0x1F NOT AND DUP4 ADD SWAP2 PUSH1 0x1 PUSH1 0x1 PUSH1 0x40 SHL SUB DUP4 GT DUP5 DUP5 LT OR PUSH2 0x122 JUMPI DUP1 DUP5 SWAP3 PUSH1 0x60 SWAP5 PUSH1 0x40 MSTORE DUP4 CODECOPY DUP2 ADD SUB SLT PUSH2 0x11D JUMPI DUP1 MLOAD PUSH1 0x1 PUSH1 0x1 PUSH1 0xA0 SHL SUB SWAP2 DUP3 DUP3 AND DUP3 SUB PUSH2 0x11D JUMPI PUSH1 0x20 DUP2 ADD MLOAD SWAP1 DUP4 DUP3 AND DUP3 SUB PUSH2 0x11D JUMPI PUSH1 0x40 ADD MLOAD DUP4 DUP2 AND DUP2 SUB PUSH2 0x11D JUMPI PUSH1 0x0 SLOAD CALLER PUSH1 0x1 DUP1 PUSH1 0xA0 SHL SUB NOT DUP3 AND OR PUSH1 0x0 SSTORE PUSH1 0x40 MLOAD SWAP5 CALLER SWAP2 AND PUSH32 0x3D1E4C3A68FED9F4F8315582B7297CF8FA264BC8E6704287603BA8C72BF05AC2 PUSH1 0x0 DUP1 LOG3 PUSH1 0xC0 MSTORE PUSH1 0xA0 MSTORE PUSH1 0x80 MSTORE PUSH2 0x2437 SWAP1 DUP2 PUSH3 0x139 DUP3 CODECOPY PUSH1 0x80 MLOAD DUP2 DUP2 DUP2 PUSH2 0xB96 ADD MSTORE DUP2 DUP2 PUSH2 0x17C0 ADD MSTORE DUP2 DUP2 PUSH2 0x19AB ADD MSTORE DUP2 DUP2 PUSH2 0x1B2B ADD MSTORE DUP2 DUP2 PUSH2 0x1CC7 ADD MSTORE PUSH2 0x1D7B ADD MSTORE PUSH1 0xA0 MLOAD DUP2 DUP2 DUP2 PUSH2 0xF81 ADD MSTORE DUP2 DUP2 PUSH2 0x1031 ADD MSTORE PUSH2 0x1C01 ADD MSTORE PUSH1 0xC0 MLOAD DUP2 DUP2 DUP2 PUSH2 0xC6C ADD MSTORE DUP2 DUP2 PUSH2 0xEA4 ADD MSTORE PUSH2 0x1913 ADD MSTORE RETURN JUMPDEST PUSH1 0x0 DUP1 REVERT JUMPDEST PUSH4 0x4E487B71 PUSH1 0xE0 SHL PUSH1 0x0 MSTORE PUSH1 0x41 PUSH1 0x4 MSTORE PUSH1 0x24 PUSH1 0x0 REVERT INVALID PUSH1 0x80 DUP1 PUSH1 0x40 MSTORE PUSH1 0x4 CALLDATASIZE LT ISZERO PUSH2 0x13 JUMPI PUSH1 0x0 DUP1 REVERT JUMPDEST PUSH1 0x0 SWAP1 DUP2 CALLDATALOAD PUSH1 0xE0 SHR SWAP1 DUP2 PUSH4 0x3DBEE4D EQ PUSH2 0x1A85 JUMPI POP DUP1 PUSH4 0xCFE3642 EQ PUSH2 0x1937 JUMPI DUP1 PUSH4 0xD43E8AD EQ PUSH2 0x18E6 JUMPI DUP1 PUSH4 0x10E8667B EQ PUSH2 0x1817 JUMPI DUP1 PUSH4 0x12D43A51 EQ PUSH2 0x17E4 JUMPI DUP1 PUSH4 0x1420F802 EQ PUSH2 0x1793 JUMPI DUP1 PUSH4 0x18602C7B EQ PUSH2 0x173C JUMPI DUP1 PUSH4 0x1B827878 EQ PUSH2 0x1535 JUMPI DUP1 PUSH4 0x25240810 EQ PUSH2 0x1501 JUMPI DUP1 PUSH4 0x292B33FC EQ PUSH2 0x14B7 JUMPI DUP1 PUSH4 0x2A5A2CCA EQ PUSH2 0x13DE JUMPI DUP1 PUSH4 0x38C74DD9 EQ PUSH2 0x128F JUMPI DUP1 PUSH4 0x45B27407 EQ PUSH2 0x1185 JUMPI DUP1 PUSH4 0x51A4B38E EQ PUSH2 0x10AC JUMPI DUP1 PUSH4 0x525C8656 EQ PUSH2 0x1055 JUMPI DUP1 PUSH4 0x53459391 EQ PUSH2 0x1004 JUMPI DUP1 PUSH4 0x60F6F14B EQ PUSH2 0xFBA JUMPI DUP1 PUSH4 0x64FDD23C EQ PUSH2 0xF10 JUMPI DUP1 PUSH4 0x724FA771 EQ PUSH2 0xE33 JUMPI DUP1 PUSH4 0x786BCCF2 EQ PUSH2 0xB3A JUMPI DUP1 PUSH4 0x7BC6729B EQ PUSH2 0xA83 JUMPI DUP1 PUSH4 0x8C96742E EQ PUSH2 0x9D2 JUMPI DUP1 PUSH4 0xA962EF1E EQ PUSH2 0x943 JUMPI DUP1 PUSH4 0xAE39E59C EQ PUSH2 0x82E JUMPI DUP1 PUSH4 0xAFBB3831 EQ PUSH2 0x7CC JUMPI DUP1 PUSH4 0xBB0C5F95 EQ PUSH2 0x703 JUMPI DUP1 PUSH4 0xC171F0B0 EQ PUSH2 0x5DB JUMPI DUP1 PUSH4 0xC67F1A35 EQ PUSH2 0x4AD JUMPI DUP1 PUSH4 0xD3D0D999 EQ PUSH2 0x3D4 JUMPI DUP1 PUSH4 0xF5D01C53 EQ PUSH2 0x2A7 JUMPI PUSH4 0xF86786F1 EQ PUSH2 0x176 JUMPI PUSH1 0x0 DUP1 REVERT JUMPDEST CALLVALUE PUSH2 0x2A4 JUMPI PUSH1 0xC0 PUSH1 0x3 NOT CALLDATASIZE ADD SLT PUSH2 0x2A4 JUMPI PUSH2 0x18F PUSH2 0x1EF5 JUMP JUMPDEST PUSH2 0x197 PUSH2 0x1EAF JUMP JUMPDEST SWAP1 PUSH2 0x1A0 PUSH2 0x1FD4 JUMP JUMPDEST SWAP2 PUSH2 0x1A9 PUSH2 0x1F37 JUMP JUMPDEST SWAP2 PUSH2 0x1B2 PUSH2 0x1F56 JUMP JUMPDEST SWAP2 PUSH1 0xA4 CALLDATALOAD SWAP1 PUSH20 0xFFFFFFFFFFFFFFFFFFFFFFFFFFFFFFFFFFFFFFFF SWAP5 DUP6 DUP4 AND DUP1 SWAP4 SUB PUSH2 0x29F JUMPI DUP6 DUP1 SWAP5 PUSH1 0xA4 SWAP5 DUP11 SWAP4 PUSH1 0x20 SWAP9 PUSH2 0x1EB DUP8 PUSH2 0x23C7 JUMP JUMPDEST PUSH1 0xFF PUSH1 0x40 MLOAD SWAP13 DUP14 SWAP11 DUP12 SWAP10 PUSH32 0x1844C32C00000000000000000000000000000000000000000000000000000000 DUP12 MSTORE AND PUSH1 0x4 DUP11 ADD MSTORE AND PUSH1 0x24 DUP9 ADD MSTORE PUSH16 0xFFFFFFFFFFFFFFFFFFFFFFFFFFFFFFFF DUP1 SWAP3 AND PUSH1 0x44 DUP9 ADD MSTORE AND PUSH1 0x64 DUP7 ADD MSTORE PUSH1 0x84 DUP6 ADD MSTORE AND GAS CALL SWAP2 DUP3 ISZERO PUSH2 0x294 JUMPI PUSH1 0x20 SWAP4 SWAP3 PUSH2 0x265 JUMPI JUMPDEST POP PUSH1 0x40 MLOAD SWAP2 AND DUP2 MSTORE RETURN JUMPDEST PUSH2 0x286 SWAP2 SWAP3 POP DUP4 RETURNDATASIZE DUP2 GT PUSH2 0x28D JUMPI JUMPDEST PUSH2 0x27E DUP2 DUP4 PUSH2 0x2093 JUMP JUMPDEST DUP2 ADD SWAP1 PUSH2 0x21F6 JUMP JUMPDEST SWAP1 CODESIZE PUSH2 0x25B JUMP JUMPDEST POP RETURNDATASIZE PUSH2 0x274 JUMP JUMPDEST PUSH1 0x40 MLOAD RETURNDATASIZE DUP6 DUP3 RETURNDATACOPY RETURNDATASIZE SWAP1 REVERT JUMPDEST PUSH1 0x0 DUP1 REVERT JUMPDEST DUP1 REVERT JUMPDEST POP CALLVALUE PUSH2 0x2A4 JUMPI PUSH1 0x80 PUSH1 0x3 NOT CALLDATASIZE ADD SLT PUSH2 0x2A4 JUMPI PUSH2 0x2C1 PUSH2 0x1EF5 JUMP JUMPDEST PUSH1 0x20 PUSH2 0x2CB PUSH2 0x1EAF JUMP JUMPDEST SWAP2 PUSH1 0x64 PUSH2 0x2D6 PUSH2 0x1F18 JUMP JUMPDEST SWAP4 DUP6 PUSH2 0x2E0 PUSH2 0x1F37 JUMP JUMPDEST SWAP6 PUSH2 0x2EA DUP4 PUSH2 0x23C7 JUMP JUMPDEST PUSH1 0x40 MLOAD PUSH32 0x76DC71AF00000000000000000000000000000000000000000000000000000000 DUP2 MSTORE PUSH20 0xFFFFFFFFFFFFFFFFFFFFFFFFFFFFFFFFFFFFFFFF SWAP4 DUP5 AND PUSH1 0x4 DUP3 ADD MSTORE PUSH16 0xFFFFFFFFFFFFFFFFFFFFFFFFFFFFFFFF SWAP2 DUP3 AND PUSH1 0x24 DUP3 ADD MSTORE SWAP7 AND PUSH1 0x44 DUP8 ADD MSTORE DUP6 SWAP4 DUP5 SWAP3 AND GAS CALL SWAP1 DUP2 ISZERO PUSH2 0x3C9 JUMPI DUP3 SWAP2 PUSH2 0x37B JUMPI JUMPDEST PUSH1 0x20 DUP3 PUSH12 0xFFFFFFFFFFFFFFFFFFFFFFFF PUSH1 0x40 MLOAD SWAP2 AND DUP2 MSTORE RETURN JUMPDEST SWAP1 POP PUSH1 0x20 DUP2 RETURNDATASIZE DUP3 GT PUSH2 0x3C1 JUMPI JUMPDEST DUP2 PUSH2 0x395 PUSH1 0x20 SWAP4 DUP4 PUSH2 0x2093 JUMP JUMPDEST DUP2 ADD SUB SLT PUSH2 0x3BD JUMPI MLOAD PUSH12 0xFFFFFFFFFFFFFFFFFFFFFFFF DUP2 AND DUP2 SUB PUSH2 0x3BD JUMPI PUSH1 0x20 SWAP2 POP CODESIZE PUSH2 0x362 JUMP JUMPDEST POP DUP1 REVERT JUMPDEST RETURNDATASIZE SWAP2 POP PUSH2 0x388 JUMP JUMPDEST PUSH1 0x40 MLOAD RETURNDATASIZE DUP5 DUP3 RETURNDATACOPY RETURNDATASIZE SWAP1 REVERT JUMPDEST POP CALLVALUE PUSH2 0x2A4 JUMPI PUSH1 0x20 PUSH1 0x3 NOT CALLDATASIZE ADD SLT PUSH2 0x2A4 JUMPI PUSH20 0xFFFFFFFFFFFFFFFFFFFFFFFFFFFFFFFFFFFFFFFF PUSH2 0x403 PUSH2 0x1EF5 JUMP JUMPDEST PUSH2 0x40B PUSH2 0x205E JUMP JUMPDEST AND DUP1 DUP3 MSTORE PUSH1 0x3 PUSH1 0x20 MSTORE PUSH1 0xFF PUSH1 0x40 DUP4 KECCAK256 SLOAD AND PUSH2 0x47C JUMPI DUP1 DUP3 MSTORE PUSH1 0x3 PUSH1 0x20 MSTORE PUSH1 0x40 DUP3 KECCAK256 PUSH1 0x1 PUSH32 0xFFFFFFFFFFFFFFFFFFFFFFFFFFFFFFFFFFFFFFFFFFFFFFFFFFFFFFFFFFFFFF00 DUP3 SLOAD AND OR SWAP1 SSTORE PUSH32 0x147270B607BB55CCE19DA6ECD1569D5D71E9638C59DC52AE16F6C456A255D599 DUP3 DUP1 LOG2 DUP1 RETURN JUMPDEST PUSH1 0x24 SWAP1 PUSH1 0x40 MLOAD SWAP1 PUSH32 0x651E966900000000000000000000000000000000000000000000000000000000 DUP3 MSTORE PUSH1 0x4 DUP3 ADD MSTORE REVERT JUMPDEST POP CALLVALUE PUSH2 0x2A4 JUMPI PUSH1 0x60 PUSH1 0x3 NOT CALLDATASIZE ADD SLT PUSH2 0x2A4 JUMPI DUP1 PUSH2 0x4C8 PUSH2 0x1EF5 JUMP JUMPDEST PUSH2 0x4D0 PUSH2 0x2043 JUMP JUMPDEST PUSH2 0x4D8 PUSH2 0x1E8C JUMP JUMPDEST PUSH20 0xFFFFFFFFFFFFFFFFFFFFFFFFFFFFFFFFFFFFFFFF DUP1 SWAP4 AND PUSH12 0xFFFFFFFFFFFFFFFFFFFFFFFF PUSH1 0x40 MLOAD SWAP4 PUSH32 0x5186D6D200000000000000000000000000000000000000000000000000000000 DUP6 MSTORE AND SWAP3 DUP4 PUSH1 0x4 DUP3 ADD MSTORE PUSH1 0x20 DUP2 PUSH1 0x24 DUP2 DUP6 GAS STATICCALL DUP1 ISZERO PUSH2 0x5D0 JUMPI PUSH2 0x54C SWAP2 DUP8 SWAP2 PUSH2 0x5B2 JUMPI JUMPDEST POP PUSH2 0x23C7 JUMP JUMPDEST DUP1 EXTCODESIZE ISZERO PUSH2 0x5AE JUMPI DUP5 SWAP3 DUP4 PUSH1 0x44 SWAP3 PUSH1 0x40 MLOAD SWAP7 DUP8 SWAP6 DUP7 SWAP5 PUSH32 0x2C4D382600000000000000000000000000000000000000000000000000000000 DUP7 MSTORE PUSH1 0x4 DUP7 ADD MSTORE AND PUSH1 0x24 DUP5 ADD MSTORE GAS CALL DUP1 ISZERO PUSH2 0x3C9 JUMPI PUSH2 0x59E JUMPI POP RETURN JUMPDEST PUSH2 0x5A7 SWAP1 PUSH2 0x207F JUMP JUMPDEST PUSH2 0x2A4 JUMPI DUP1 RETURN JUMPDEST DUP5 DUP1 REVERT JUMPDEST PUSH2 0x5CA SWAP2 POP PUSH1 0x20 RETURNDATASIZE DUP2 GT PUSH2 0x28D JUMPI PUSH2 0x27E DUP2 DUP4 PUSH2 0x2093 JUMP JUMPDEST CODESIZE PUSH2 0x546 JUMP JUMPDEST PUSH1 0x40 MLOAD RETURNDATASIZE DUP9 DUP3 RETURNDATACOPY RETURNDATASIZE SWAP1 REVERT JUMPDEST POP CALLVALUE PUSH2 0x2A4 JUMPI PUSH1 0xA0 PUSH1 0x3 NOT CALLDATASIZE ADD SLT PUSH2 0x2A4 JUMPI PUSH2 0x5F5 PUSH2 0x1EF5 JUMP JUMPDEST PUSH2 0x5FD PUSH2 0x1EAF JUMP JUMPDEST SWAP1 PUSH2 0x606 PUSH2 0x1FD4 JUMP JUMPDEST SWAP2 PUSH2 0x60F PUSH2 0x1F37 JUMP JUMPDEST SWAP2 PUSH1 0x84 CALLDATALOAD SWAP2 PUSH20 0xFFFFFFFFFFFFFFFFFFFFFFFFFFFFFFFFFFFFFFFF SWAP3 DUP4 DUP2 AND DUP1 SWAP2 SUB PUSH2 0x29F JUMPI CALLER DUP8 MSTORE PUSH1 0x3 PUSH1 0x20 MSTORE PUSH1 0xFF PUSH1 0x40 DUP9 KECCAK256 SLOAD AND ISZERO PUSH2 0x6D9 JUMPI DUP4 PUSH1 0xA4 SWAP4 DUP9 SWAP3 PUSH16 0xFFFFFFFFFFFFFFFFFFFFFFFFFFFFFFFF PUSH1 0x20 SWAP9 PUSH1 0xFF PUSH1 0x40 MLOAD SWAP12 DUP13 SWAP11 DUP12 SWAP10 PUSH32 0x1844C32C00000000000000000000000000000000000000000000000000000000 DUP12 MSTORE AND PUSH1 0x4 DUP11 ADD MSTORE AND PUSH1 0x24 DUP9 ADD MSTORE DUP6 PUSH1 0x44 DUP9 ADD MSTORE AND PUSH1 0x64 DUP7 ADD MSTORE PUSH1 0x84 DUP6 ADD MSTORE AND GAS CALL DUP1 ISZERO PUSH2 0x3C9 JUMPI PUSH2 0x6BE JUMPI POP DUP1 RETURN JUMPDEST PUSH2 0x6D5 SWAP1 PUSH1 0x20 RETURNDATASIZE DUP2 GT PUSH2 0x28D JUMPI PUSH2 0x27E DUP2 DUP4 PUSH2 0x2093 JUMP JUMPDEST POP DUP1 RETURN JUMPDEST PUSH1 0x4 PUSH1 0x40 MLOAD PUSH32 0x2B6DD47600000000000000000000000000000000000000000000000000000000 DUP2 MSTORE REVERT JUMPDEST POP CALLVALUE PUSH2 0x2A4 JUMPI PUSH1 0x80 PUSH1 0x3 NOT CALLDATASIZE ADD SLT PUSH2 0x2A4 JUMPI DUP1 PUSH1 0x4 CALLDATALOAD PUSH20 0xFFFFFFFFFFFFFFFFFFFFFFFFFFFFFFFFFFFFFFFF DUP2 AND DUP1 SWAP2 SUB PUSH2 0x7C9 JUMPI PUSH2 0x73F PUSH2 0x1EAF JUMP JUMPDEST PUSH2 0x747 PUSH2 0x1E8C JUMP JUMPDEST SWAP1 PUSH2 0x751 DUP2 PUSH2 0x23C7 JUMP JUMPDEST DUP3 EXTCODESIZE ISZERO PUSH2 0x7C4 JUMPI PUSH1 0x40 MLOAD PUSH32 0x42842E0E00000000000000000000000000000000000000000000000000000000 DUP2 MSTORE PUSH20 0xFFFFFFFFFFFFFFFFFFFFFFFFFFFFFFFFFFFFFFFF SWAP2 DUP3 AND PUSH1 0x4 DUP3 ADD MSTORE SWAP2 AND PUSH1 0x24 DUP3 ADD MSTORE PUSH1 0x64 DUP1 CALLDATALOAD PUSH1 0x44 DUP4 ADD MSTORE SWAP1 SWAP2 DUP4 SWAP2 DUP4 SWAP2 DUP3 SWAP1 DUP5 SWAP1 GAS CALL DUP1 ISZERO PUSH2 0x3C9 JUMPI PUSH2 0x59E JUMPI POP RETURN JUMPDEST POP POP POP REVERT JUMPDEST POP REVERT JUMPDEST POP CALLVALUE PUSH2 0x2A4 JUMPI PUSH1 0x40 PUSH1 0x3 NOT CALLDATASIZE ADD SLT PUSH2 0x2A4 JUMPI PUSH2 0x7E6 PUSH2 0x1EF5 JUMP JUMPDEST PUSH1 0x40 PUSH2 0x7F0 PUSH2 0x1EAF JUMP JUMPDEST SWAP3 PUSH20 0xFFFFFFFFFFFFFFFFFFFFFFFFFFFFFFFFFFFFFFFF DUP1 SWAP4 AND DUP2 MSTORE PUSH1 0x4 PUSH1 0x20 MSTORE KECCAK256 SWAP2 AND PUSH1 0x0 MSTORE PUSH1 0x20 MSTORE PUSH1 0x20 PUSH1 0xFF PUSH1 0x40 PUSH1 0x0 KECCAK256 SLOAD AND PUSH1 0x40 MLOAD SWAP1 ISZERO ISZERO DUP2 MSTORE RETURN JUMPDEST POP CALLVALUE PUSH2 0x2A4 JUMPI PUSH1 0x80 PUSH1 0x3 NOT CALLDATASIZE ADD SLT PUSH2 0x2A4 JUMPI DUP1 PUSH2 0x849 PUSH2 0x1EF5 JUMP JUMPDEST PUSH2 0x851 PUSH2 0x2043 JUMP JUMPDEST SWAP1 PUSH1 0x44 CALLDATALOAD DUP1 PUSH1 0xF SIGNEXTEND DUP1 SWAP2 SUB PUSH2 0x7C4 JUMPI PUSH2 0x868 PUSH2 0x1ED2 JUMP JUMPDEST SWAP3 PUSH20 0xFFFFFFFFFFFFFFFFFFFFFFFFFFFFFFFFFFFFFFFF DUP1 SWAP4 AND SWAP1 PUSH12 0xFFFFFFFFFFFFFFFFFFFFFFFF PUSH1 0x40 MLOAD SWAP2 PUSH32 0x5186D6D200000000000000000000000000000000000000000000000000000000 DUP4 MSTORE AND SWAP1 DUP2 PUSH1 0x4 DUP3 ADD MSTORE PUSH1 0x20 DUP2 PUSH1 0x24 DUP2 DUP7 GAS STATICCALL DUP1 ISZERO PUSH2 0x938 JUMPI PUSH2 0x8DD SWAP2 DUP9 SWAP2 PUSH2 0x5B2 JUMPI POP PUSH2 0x23C7 JUMP JUMPDEST DUP2 EXTCODESIZE ISZERO PUSH2 0x934 JUMPI DUP6 PUSH1 0x64 SWAP3 DUP2 SWAP6 PUSH1 0x40 MLOAD SWAP8 DUP9 SWAP7 DUP8 SWAP6 PUSH32 0x8584075F00000000000000000000000000000000000000000000000000000000 DUP8 MSTORE PUSH1 0x4 DUP8 ADD MSTORE PUSH1 0x24 DUP7 ADD MSTORE AND PUSH1 0x44 DUP5 ADD MSTORE GAS CALL DUP1 ISZERO PUSH2 0x3C9 JUMPI PUSH2 0x59E JUMPI POP RETURN JUMPDEST DUP6 DUP1 REVERT JUMPDEST PUSH1 0x40 MLOAD RETURNDATASIZE DUP10 DUP3 RETURNDATACOPY RETURNDATASIZE SWAP1 REVERT JUMPDEST POP CALLVALUE PUSH2 0x2A4 JUMPI PUSH1 0x20 PUSH1 0x3 NOT CALLDATASIZE ADD SLT PUSH2 0x2A4 JUMPI PUSH2 0x95D PUSH2 0x1EF5 JUMP JUMPDEST PUSH2 0x965 PUSH2 0x205E JUMP JUMPDEST PUSH20 0xFFFFFFFFFFFFFFFFFFFFFFFFFFFFFFFFFFFFFFFF DUP1 SWAP2 AND SWAP1 DUP2 PUSH32 0xFFFFFFFFFFFFFFFFFFFFFFFF0000000000000000000000000000000000000000 PUSH1 0x1 SLOAD AND OR PUSH1 0x1 SSTORE DUP3 SLOAD AND PUSH32 0xB9911E2099E372C216862258DC462BB65DA46A2C854536C8B1ACAE619D0D62ED DUP4 DUP1 LOG3 DUP1 RETURN JUMPDEST POP CALLVALUE PUSH2 0x2A4 JUMPI PUSH1 0x60 PUSH1 0x3 NOT CALLDATASIZE ADD SLT PUSH2 0x2A4 JUMPI DUP1 PUSH2 0x9ED PUSH2 0x1EF5 JUMP JUMPDEST PUSH2 0x9F5 PUSH2 0x1EAF JUMP JUMPDEST PUSH2 0x9FD PUSH2 0x1F18 JUMP JUMPDEST SWAP2 PUSH2 0xA07 DUP3 PUSH2 0x23C7 JUMP JUMPDEST PUSH20 0xFFFFFFFFFFFFFFFFFFFFFFFFFFFFFFFFFFFFFFFF DUP1 SWAP2 AND DUP1 EXTCODESIZE ISZERO PUSH2 0x5AE JUMPI DUP5 SWAP3 DUP4 PUSH1 0x44 SWAP3 PUSH16 0xFFFFFFFFFFFFFFFFFFFFFFFFFFFFFFFF PUSH1 0x40 MLOAD SWAP8 DUP9 SWAP7 DUP8 SWAP6 PUSH32 0x578CB6CA00000000000000000000000000000000000000000000000000000000 DUP8 MSTORE AND PUSH1 0x4 DUP7 ADD MSTORE AND PUSH1 0x24 DUP5 ADD MSTORE GAS CALL DUP1 ISZERO PUSH2 0x3C9 JUMPI PUSH2 0x59E JUMPI POP RETURN JUMPDEST POP CALLVALUE PUSH2 0x2A4 JUMPI DUP1 PUSH1 0x3 NOT CALLDATASIZE ADD SLT PUSH2 0x2A4 JUMPI PUSH1 0x1 SLOAD PUSH20 0xFFFFFFFFFFFFFFFFFFFFFFFFFFFFFFFFFFFFFFFF DUP1 DUP3 AND CALLER SUB PUSH2 0xB10 JUMPI PUSH32 0xFFFFFFFFFFFFFFFFFFFFFFFF0000000000000000000000000000000000000000 DUP1 SWAP3 AND PUSH1 0x1 SSTORE DUP3 SLOAD SWAP2 CALLER SWAP1 DUP4 AND OR DUP4 SSTORE CALLER SWAP2 AND PUSH32 0x3D1E4C3A68FED9F4F8315582B7297CF8FA264BC8E6704287603BA8C72BF05AC2 DUP4 DUP1 LOG3 DUP1 RETURN JUMPDEST PUSH1 0x4 PUSH1 0x40 MLOAD PUSH32 0xEE90C46800000000000000000000000000000000000000000000000000000000 DUP2 MSTORE REVERT JUMPDEST POP CALLVALUE PUSH2 0x2A4 JUMPI PUSH1 0x40 PUSH1 0x3 NOT CALLDATASIZE ADD SLT PUSH2 0x2A4 JUMPI PUSH2 0xB54 PUSH2 0x1EF5 JUMP JUMPDEST SWAP1 PUSH1 0x24 DUP1 CALLDATALOAD PUSH8 0xFFFFFFFFFFFFFFFF DUP2 GT PUSH2 0xE2F JUMPI PUSH2 0xB76 SWAP1 CALLDATASIZE SWAP1 PUSH1 0x4 ADD PUSH2 0x1E5B JUMP JUMPDEST SWAP4 DUP5 ISZERO PUSH2 0xE2B JUMPI PUSH20 0xFFFFFFFFFFFFFFFFFFFFFFFFFFFFFFFFFFFFFFFF SWAP2 DUP3 PUSH32 0x0 AND SWAP6 PUSH1 0x40 MLOAD PUSH32 0x6352211E00000000000000000000000000000000000000000000000000000000 DUP1 DUP3 MSTORE DUP4 CALLDATALOAD PUSH1 0x4 DUP4 ADD MSTORE PUSH1 0x20 SWAP9 DUP10 DUP4 DUP10 DUP2 DUP5 GAS STATICCALL SWAP3 DUP4 ISZERO PUSH2 0xE20 JUMPI DUP10 SWAP4 PUSH2 0xE01 JUMPI JUMPDEST POP SWAP2 DUP9 SWAP8 SWAP6 SWAP4 SWAP2 DUP11 SWAP8 SWAP6 SWAP4 PUSH2 0xC11 DUP4 PUSH2 0x23C7 JUMP JUMPDEST PUSH1 0x1 JUMPDEST DUP5 DUP2 LT PUSH2 0xCDD JUMPI POP POP POP POP SWAP2 PUSH2 0xC68 PUSH1 0x40 SWAP8 SWAP3 DUP6 SWAP5 DUP10 MLOAD SWAP10 DUP11 SWAP9 DUP10 SWAP8 DUP9 SWAP7 PUSH32 0x53EC31D100000000000000000000000000000000000000000000000000000000 DUP9 MSTORE AND PUSH1 0x4 DUP8 ADD MSTORE DUP6 ADD MSTORE PUSH1 0x44 DUP5 ADD SWAP2 PUSH2 0x2352 JUMP JUMPDEST SUB SWAP3 PUSH32 0x0 AND GAS CALL SWAP2 DUP3 ISZERO PUSH2 0xCD1 JUMPI SWAP2 PUSH2 0xCA4 JUMPI JUMPDEST POP PUSH1 0x40 MLOAD SWAP1 DUP2 MSTORE RETURN JUMPDEST SWAP1 POP DUP2 DUP2 DUP2 RETURNDATASIZE DUP4 GT PUSH2 0xCCA JUMPI JUMPDEST PUSH2 0xCBB DUP2 DUP4 PUSH2 0x2093 JUMP JUMPDEST DUP2 ADD SUB SLT PUSH2 0x29F JUMPI MLOAD CODESIZE PUSH2 0xC9B JUMP JUMPDEST POP RETURNDATASIZE PUSH2 0xCB1 JUMP JUMPDEST PUSH1 0x40 MLOAD SWAP1 RETURNDATASIZE SWAP1 DUP3 RETURNDATACOPY RETURNDATASIZE SWAP1 REVERT JUMPDEST DUP5 DUP2 SWAP4 SWAP6 SWAP8 SWAP10 SWAP12 POP DUP7 PUSH2 0xCF4 SWAP4 SWAP6 SWAP8 SWAP10 SWAP12 POP PUSH2 0x22B7 JUMP JUMPDEST CALLDATALOAD PUSH1 0x40 MLOAD SWAP1 DUP5 DUP3 MSTORE PUSH1 0x4 DUP3 ADD MSTORE DUP12 DUP2 DUP12 DUP2 DUP7 GAS STATICCALL SWAP1 DUP2 ISZERO PUSH2 0xDF6 JUMPI DUP12 SWAP2 PUSH2 0xDD9 JUMPI JUMPDEST POP DUP9 DUP1 DUP7 AND SWAP2 AND SUB PUSH2 0xD3B JUMPI PUSH2 0xD2B SWAP1 PUSH2 0x22F6 JUMP JUMPDEST SWAP2 DUP11 SWAP8 SWAP6 SWAP4 SWAP2 DUP11 SWAP10 SWAP8 SWAP6 SWAP4 PUSH2 0xC14 JUMP JUMPDEST DUP11 DUP11 SWAP4 DUP11 PUSH2 0xD4B DUP4 SWAP5 DUP10 DUP12 PUSH2 0x22B7 JUMP JUMPDEST CALLDATALOAD SWAP2 PUSH1 0x40 MLOAD SWAP6 DUP7 SWAP4 DUP5 SWAP3 DUP4 MSTORE PUSH1 0x4 DUP4 ADD MSTORE GAS STATICCALL SWAP3 DUP4 ISZERO PUSH2 0xCD1 JUMPI SWAP3 PUSH2 0xDBC JUMPI JUMPDEST POP POP PUSH1 0x40 MLOAD PUSH32 0x4ECF968E00000000000000000000000000000000000000000000000000000000 DUP2 MSTORE PUSH20 0xFFFFFFFFFFFFFFFFFFFFFFFFFFFFFFFFFFFFFFFF SWAP2 DUP3 AND PUSH1 0x4 DUP3 ADD MSTORE SWAP2 AND PUSH1 0x24 DUP3 ADD MSTORE PUSH1 0x44 SWAP1 REVERT JUMPDEST PUSH2 0xDD2 SWAP3 POP DUP1 RETURNDATASIZE LT PUSH2 0x28D JUMPI PUSH2 0x27E DUP2 DUP4 PUSH2 0x2093 JUMP JUMPDEST DUP3 DUP1 PUSH2 0xD6B JUMP JUMPDEST PUSH2 0xDF0 SWAP2 POP DUP13 DUP14 RETURNDATASIZE LT PUSH2 0x28D JUMPI PUSH2 0x27E DUP2 DUP4 PUSH2 0x2093 JUMP JUMPDEST CODESIZE PUSH2 0xD16 JUMP JUMPDEST PUSH1 0x40 MLOAD RETURNDATASIZE DUP14 DUP3 RETURNDATACOPY RETURNDATASIZE SWAP1 REVERT JUMPDEST PUSH2 0xE19 SWAP2 SWAP4 POP DUP11 RETURNDATASIZE DUP13 GT PUSH2 0x28D JUMPI PUSH2 0x27E DUP2 DUP4 PUSH2 0x2093 JUMP JUMPDEST SWAP2 CODESIZE PUSH2 0xBFD JUMP JUMPDEST PUSH1 0x40 MLOAD RETURNDATASIZE DUP12 DUP3 RETURNDATACOPY RETURNDATASIZE SWAP1 REVERT JUMPDEST DUP4 DUP1 REVERT JUMPDEST DUP3 DUP1 REVERT JUMPDEST POP CALLVALUE PUSH2 0x2A4 JUMPI PUSH2 0xE8A SWAP1 PUSH1 0x20 PUSH2 0xE48 CALLDATASIZE PUSH2 0x1F75 JUMP JUMPDEST PUSH2 0xE56 DUP5 SWAP4 SWAP5 SWAP8 SWAP3 SWAP8 PUSH2 0x23C7 JUMP JUMPDEST PUSH1 0x40 MLOAD SWAP7 DUP8 SWAP5 DUP6 SWAP5 PUSH32 0x1D56EED000000000000000000000000000000000000000000000000000000000 DUP7 MSTORE PUSH1 0x4 DUP7 ADD PUSH2 0x238F JUMP JUMPDEST SUB DUP2 DUP5 PUSH20 0xFFFFFFFFFFFFFFFFFFFFFFFFFFFFFFFFFFFFFFFF PUSH32 0x0 AND GAS CALL SWAP1 DUP2 ISZERO PUSH2 0xCD1 JUMPI SWAP1 PUSH2 0xEDE JUMPI JUMPDEST PUSH1 0x20 SWAP1 PUSH1 0x40 MLOAD SWAP1 DUP2 MSTORE RETURN JUMPDEST POP PUSH1 0x20 DUP2 RETURNDATASIZE DUP3 GT PUSH2 0xF08 JUMPI JUMPDEST DUP2 PUSH2 0xEF7 PUSH1 0x20 SWAP4 DUP4 PUSH2 0x2093 JUMP JUMPDEST DUP2 ADD SUB SLT PUSH2 0x29F JUMPI PUSH1 0x20 SWAP1 MLOAD PUSH2 0xED3 JUMP JUMPDEST RETURNDATASIZE SWAP2 POP PUSH2 0xEEA JUMP JUMPDEST POP CALLVALUE PUSH2 0x2A4 JUMPI PUSH2 0xF67 SWAP1 PUSH1 0x20 PUSH2 0xF25 CALLDATASIZE PUSH2 0x1FE4 JUMP JUMPDEST PUSH2 0xF33 DUP3 SWAP8 SWAP3 SWAP5 SWAP4 SWAP5 PUSH2 0x23C7 JUMP JUMPDEST PUSH1 0x40 MLOAD SWAP7 DUP8 SWAP5 DUP6 SWAP5 PUSH32 0x563F233300000000000000000000000000000000000000000000000000000000 DUP7 MSTORE PUSH1 0x4 DUP7 ADD PUSH2 0x2279 JUMP JUMPDEST SUB DUP2 DUP5 PUSH20 0xFFFFFFFFFFFFFFFFFFFFFFFFFFFFFFFFFFFFFFFF PUSH32 0x0 AND GAS CALL SWAP1 DUP2 ISZERO PUSH2 0xCD1 JUMPI SWAP1 PUSH2 0xEDE JUMPI PUSH1 0x20 SWAP1 PUSH1 0x40 MLOAD SWAP1 DUP2 MSTORE RETURN JUMPDEST POP CALLVALUE PUSH2 0x2A4 JUMPI PUSH1 0x20 PUSH1 0x3 NOT CALLDATASIZE ADD SLT PUSH2 0x2A4 JUMPI PUSH1 0xFF PUSH1 0x40 PUSH1 0x20 SWAP3 PUSH20 0xFFFFFFFFFFFFFFFFFFFFFFFFFFFFFFFFFFFFFFFF PUSH2 0xFF0 PUSH2 0x1EF5 JUMP JUMPDEST AND DUP2 MSTORE PUSH1 0x3 DUP5 MSTORE KECCAK256 SLOAD AND PUSH1 0x40 MLOAD SWAP1 ISZERO ISZERO DUP2 MSTORE RETURN JUMPDEST POP CALLVALUE PUSH2 0x2A4 JUMPI DUP1 PUSH1 0x3 NOT CALLDATASIZE ADD SLT PUSH2 0x2A4 JUMPI PUSH1 0x20 PUSH1 0x40 MLOAD PUSH20 0xFFFFFFFFFFFFFFFFFFFFFFFFFFFFFFFFFFFFFFFF PUSH32 0x0 AND DUP2 MSTORE RETURN JUMPDEST POP CALLVALUE PUSH2 0x2A4 JUMPI PUSH2 0xF67 SWAP1 PUSH1 0x20 PUSH2 0x106A CALLDATASIZE PUSH2 0x1FE4 JUMP JUMPDEST PUSH2 0x1078 DUP3 SWAP8 SWAP3 SWAP5 SWAP4 SWAP5 PUSH2 0x23C7 JUMP JUMPDEST PUSH1 0x40 MLOAD SWAP7 DUP8 SWAP5 DUP6 SWAP5 PUSH32 0x2AF44D0400000000000000000000000000000000000000000000000000000000 DUP7 MSTORE PUSH1 0x4 DUP7 ADD PUSH2 0x2279 JUMP JUMPDEST POP CALLVALUE PUSH2 0x2A4 JUMPI PUSH1 0x20 PUSH1 0x3 NOT CALLDATASIZE ADD SLT PUSH2 0x2A4 JUMPI PUSH20 0xFFFFFFFFFFFFFFFFFFFFFFFFFFFFFFFFFFFFFFFF PUSH2 0x10DB PUSH2 0x1EF5 JUMP JUMPDEST PUSH2 0x10E3 PUSH2 0x205E JUMP JUMPDEST AND DUP1 DUP3 MSTORE PUSH1 0x2 PUSH1 0x20 MSTORE PUSH1 0xFF PUSH1 0x40 DUP4 KECCAK256 SLOAD AND PUSH2 0x1154 JUMPI DUP1 DUP3 MSTORE PUSH1 0x2 PUSH1 0x20 MSTORE PUSH1 0x40 DUP3 KECCAK256 PUSH1 0x1 PUSH32 0xFFFFFFFFFFFFFFFFFFFFFFFFFFFFFFFFFFFFFFFFFFFFFFFFFFFFFFFFFFFFFF00 DUP3 SLOAD AND OR SWAP1 SSTORE PUSH32 0x3CAB74D2FA2A557FFEB0FD712180CFBEA66CB894CF67FCF8A25B38B9EC5AD96 DUP3 DUP1 LOG2 DUP1 RETURN JUMPDEST PUSH1 0x24 SWAP1 PUSH1 0x40 MLOAD SWAP1 PUSH32 0x5A473FA100000000000000000000000000000000000000000000000000000000 DUP3 MSTORE PUSH1 0x4 DUP3 ADD MSTORE REVERT JUMPDEST POP CALLVALUE PUSH2 0x2A4 JUMPI PUSH1 0x20 PUSH1 0x3 NOT CALLDATASIZE ADD SLT PUSH2 0x2A4 JUMPI PUSH2 0x119F PUSH2 0x1EF5 JUMP JUMPDEST CALLER DUP3 MSTORE PUSH1 0x4 PUSH1 0x20 MSTORE PUSH1 0x40 DUP3 KECCAK256 SWAP1 PUSH20 0xFFFFFFFFFFFFFFFFFFFFFFFFFFFFFFFFFFFFFFFF DUP2 AND SWAP2 DUP3 PUSH1 0x0 MSTORE PUSH1 0x20 MSTORE PUSH1 0xFF PUSH1 0x40 PUSH1 0x0 KECCAK256 SLOAD AND ISZERO PUSH2 0x1240 JUMPI POP CALLER DUP3 MSTORE PUSH1 0x4 PUSH1 0x20 MSTORE PUSH1 0x40 DUP3 KECCAK256 DUP2 PUSH1 0x0 MSTORE PUSH1 0x20 MSTORE PUSH1 0x40 PUSH1 0x0 KECCAK256 PUSH32 0xFFFFFFFFFFFFFFFFFFFFFFFFFFFFFFFFFFFFFFFFFFFFFFFFFFFFFFFFFFFFFF00 DUP2 SLOAD AND SWAP1 SSTORE CALLER PUSH32 0x15BB2B66587C2CEBF2C9DB7DC18211188C4C21B135DEE66E2E66309C2E696D51 DUP4 DUP1 LOG3 DUP1 RETURN JUMPDEST PUSH1 0x40 MLOAD PUSH32 0xFB96919D00000000000000000000000000000000000000000000000000000000 DUP2 MSTORE CALLER PUSH1 0x4 DUP3 ADD MSTORE PUSH20 0xFFFFFFFFFFFFFFFFFFFFFFFFFFFFFFFFFFFFFFFF SWAP2 SWAP1 SWAP2 AND PUSH1 0x24 DUP3 ADD MSTORE PUSH1 0x44 SWAP1 REVERT JUMPDEST POP CALLVALUE PUSH2 0x2A4 JUMPI PUSH1 0x20 DUP1 PUSH1 0x3 NOT CALLDATASIZE ADD SLT PUSH2 0x3BD JUMPI PUSH2 0x12AA PUSH2 0x1EF5 JUMP JUMPDEST SWAP1 CALLER DUP4 MSTORE PUSH1 0x4 DUP2 MSTORE PUSH1 0x40 DUP4 KECCAK256 SWAP2 PUSH20 0xFFFFFFFFFFFFFFFFFFFFFFFFFFFFFFFFFFFFFFFF DUP2 AND SWAP3 DUP4 PUSH1 0x0 MSTORE DUP3 MSTORE PUSH1 0xFF PUSH1 0x40 PUSH1 0x0 KECCAK256 SLOAD AND PUSH2 0x138F JUMPI POP DUP2 DUP4 MSTORE PUSH1 0x2 DUP2 MSTORE PUSH1 0xFF PUSH1 0x40 DUP5 KECCAK256 SLOAD AND ISZERO PUSH2 0x135E JUMPI CALLER DUP4 MSTORE PUSH1 0x4 DUP2 MSTORE PUSH1 0x40 DUP4 KECCAK256 SWAP1 DUP3 PUSH1 0x0 MSTORE MSTORE PUSH1 0x40 PUSH1 0x0 KECCAK256 PUSH1 0x1 PUSH32 0xFFFFFFFFFFFFFFFFFFFFFFFFFFFFFFFFFFFFFFFFFFFFFFFFFFFFFFFFFFFFFF00 DUP3 SLOAD AND OR SWAP1 SSTORE CALLER PUSH32 0x66075E2684E8CBBD5DD40F4ECFA3CB7E9903D1B492D8484496B579070DD080B4 DUP4 DUP1 LOG3 DUP1 RETURN JUMPDEST PUSH1 0x24 DUP3 PUSH1 0x40 MLOAD SWAP1 PUSH32 0x6971162900000000000000000000000000000000000000000000000000000000 DUP3 MSTORE PUSH1 0x4 DUP3 ADD MSTORE REVERT JUMPDEST PUSH1 0x40 MLOAD PUSH32 0xA7ED43A100000000000000000000000000000000000000000000000000000000 DUP2 MSTORE CALLER PUSH1 0x4 DUP3 ADD MSTORE PUSH20 0xFFFFFFFFFFFFFFFFFFFFFFFFFFFFFFFFFFFFFFFF SWAP2 SWAP1 SWAP2 AND PUSH1 0x24 DUP3 ADD MSTORE PUSH1 0x44 SWAP1 REVERT JUMPDEST POP CALLVALUE PUSH2 0x2A4 JUMPI PUSH1 0xA0 PUSH1 0x3 NOT CALLDATASIZE ADD SLT PUSH2 0x2A4 JUMPI PUSH2 0x13F8 PUSH2 0x1EF5 JUMP JUMPDEST PUSH2 0x1400 PUSH2 0x1EAF JUMP JUMPDEST SWAP1 PUSH1 0x20 PUSH2 0x140B PUSH2 0x1FD4 JUMP JUMPDEST SWAP3 PUSH1 0x84 PUSH2 0x1416 PUSH2 0x1F37 JUMP JUMPDEST SWAP2 DUP7 PUSH2 0x1420 PUSH2 0x1F56 JUMP JUMPDEST PUSH2 0x1429 DUP4 PUSH2 0x23C7 JUMP JUMPDEST PUSH20 0xFFFFFFFFFFFFFFFFFFFFFFFFFFFFFFFFFFFFFFFF SWAP7 DUP8 SWAP6 DUP7 SWAP3 PUSH1 0xFF PUSH1 0x40 MLOAD SWAP12 DUP13 SWAP10 DUP11 SWAP9 PUSH32 0x89E1081700000000000000000000000000000000000000000000000000000000 DUP11 MSTORE AND PUSH1 0x4 DUP10 ADD MSTORE AND PUSH1 0x24 DUP8 ADD MSTORE PUSH16 0xFFFFFFFFFFFFFFFFFFFFFFFFFFFFFFFF DUP1 SWAP3 AND PUSH1 0x44 DUP8 ADD MSTORE AND PUSH1 0x64 DUP6 ADD MSTORE AND GAS CALL SWAP2 DUP3 ISZERO PUSH2 0x294 JUMPI PUSH1 0x20 SWAP4 SWAP3 PUSH2 0x265 JUMPI POP PUSH1 0x40 MLOAD SWAP2 AND DUP2 MSTORE RETURN JUMPDEST POP CALLVALUE PUSH2 0x2A4 JUMPI PUSH1 0x20 PUSH1 0x3 NOT CALLDATASIZE ADD SLT PUSH2 0x2A4 JUMPI PUSH1 0xFF PUSH1 0x40 PUSH1 0x20 SWAP3 PUSH20 0xFFFFFFFFFFFFFFFFFFFFFFFFFFFFFFFFFFFFFFFF PUSH2 0x14ED PUSH2 0x1EF5 JUMP JUMPDEST AND DUP2 MSTORE PUSH1 0x2 DUP5 MSTORE KECCAK256 SLOAD AND PUSH1 0x40 MLOAD SWAP1 ISZERO ISZERO DUP2 MSTORE RETURN JUMPDEST POP CALLVALUE PUSH2 0x2A4 JUMPI DUP1 PUSH1 0x3 NOT CALLDATASIZE ADD SLT PUSH2 0x2A4 JUMPI PUSH1 0x20 PUSH20 0xFFFFFFFFFFFFFFFFFFFFFFFFFFFFFFFFFFFFFFFF PUSH1 0x1 SLOAD AND PUSH1 0x40 MLOAD SWAP1 DUP2 MSTORE RETURN JUMPDEST POP CALLVALUE PUSH2 0x2A4 JUMPI PUSH1 0x80 PUSH1 0x3 NOT CALLDATASIZE ADD SLT PUSH2 0x2A4 JUMPI PUSH1 0x4 CALLDATALOAD PUSH20 0xFFFFFFFFFFFFFFFFFFFFFFFFFFFFFFFFFFFFFFFF DUP2 AND DUP1 SWAP2 SUB PUSH2 0x3BD JUMPI PUSH2 0x1570 PUSH2 0x1EAF JUMP JUMPDEST PUSH2 0x1578 PUSH2 0x1E8C JUMP JUMPDEST PUSH2 0x1581 DUP3 PUSH2 0x23C7 JUMP JUMPDEST PUSH1 0x40 MLOAD PUSH32 0x23B872DD00000000000000000000000000000000000000000000000000000000 PUSH1 0x20 DUP1 DUP4 ADD SWAP2 DUP3 MSTORE PUSH20 0xFFFFFFFFFFFFFFFFFFFFFFFFFFFFFFFFFFFFFFFF SWAP5 DUP6 AND PUSH1 0x24 DUP5 ADD MSTORE SWAP3 SWAP1 SWAP4 AND PUSH1 0x44 DUP3 ADD MSTORE PUSH1 0x64 DUP1 CALLDATALOAD DUP2 DUP4 ADD MSTORE DUP2 MSTORE SWAP1 SWAP2 SWAP1 PUSH32 0xFFFFFFFFFFFFFFFFFFFFFFFFFFFFFFFFFFFFFFFFFFFFFFFFFFFFFFFFFFFFFFE0 PUSH2 0x160C PUSH1 0x84 DUP4 PUSH2 0x2093 JUMP JUMPDEST PUSH1 0x40 MLOAD SWAP2 PUSH1 0x40 DUP4 ADD PUSH8 0xFFFFFFFFFFFFFFFF SWAP5 DUP5 DUP3 LT DUP7 DUP4 GT OR PUSH2 0x16FF JUMPI DUP9 SWAP3 DUP4 SWAP3 PUSH1 0x40 MSTORE PUSH1 0x1E DUP7 MSTORE PUSH32 0x416464726573733A206C6F772D6C6576656C2063616C6C206661696C65640000 DUP9 DUP8 ADD MSTORE MLOAD SWAP1 DUP3 DUP10 GAS CALL RETURNDATASIZE ISZERO PUSH2 0x172E JUMPI RETURNDATASIZE SWAP4 DUP5 GT PUSH2 0x16FF JUMPI PUSH2 0x1694 SWAP4 PUSH2 0x1685 DUP7 PUSH1 0x40 MLOAD SWAP5 PUSH1 0x1F DUP5 ADD AND ADD DUP5 PUSH2 0x2093 JUMP JUMPDEST DUP3 MSTORE RETURNDATASIZE DUP8 DUP7 DUP5 ADD RETURNDATACOPY JUMPDEST DUP6 PUSH2 0x20D4 JUMP JUMPDEST DUP1 MLOAD SWAP2 DUP3 ISZERO ISZERO SWAP2 DUP3 PUSH2 0x16DE JUMPI JUMPDEST POP POP SWAP1 POP PUSH2 0x16AD JUMPI POP DUP1 RETURN JUMPDEST PUSH1 0x24 SWAP1 PUSH1 0x40 MLOAD SWAP1 PUSH32 0x5274AFE700000000000000000000000000000000000000000000000000000000 DUP3 MSTORE PUSH1 0x4 DUP3 ADD MSTORE REVERT JUMPDEST DUP1 SWAP3 POP DUP2 SWAP4 DUP2 ADD SUB SLT PUSH2 0xE2B JUMPI ADD MLOAD DUP1 ISZERO SWAP1 DUP2 ISZERO SUB PUSH2 0xE2F JUMPI DUP1 CODESIZE DUP1 PUSH2 0x16A1 JUMP JUMPDEST PUSH32 0x4E487B7100000000000000000000000000000000000000000000000000000000 PUSH1 0x0 MSTORE PUSH1 0x41 PUSH1 0x4 MSTORE PUSH1 0x24 PUSH1 0x0 REVERT JUMPDEST PUSH2 0x1694 SWAP4 POP PUSH1 0x60 SWAP2 POP PUSH2 0x168E JUMP JUMPDEST POP CALLVALUE PUSH2 0x2A4 JUMPI PUSH2 0xE8A SWAP1 PUSH1 0x20 PUSH2 0x1751 CALLDATASIZE PUSH2 0x1F75 JUMP JUMPDEST PUSH2 0x175F DUP5 SWAP4 SWAP5 SWAP8 SWAP3 SWAP8 PUSH2 0x23C7 JUMP JUMPDEST PUSH1 0x40 MLOAD SWAP7 DUP8 SWAP5 DUP6 SWAP5 PUSH32 0x24CF567100000000000000000000000000000000000000000000000000000000 DUP7 MSTORE PUSH1 0x4 DUP7 ADD PUSH2 0x238F JUMP JUMPDEST POP CALLVALUE PUSH2 0x2A4 JUMPI DUP1 PUSH1 0x3 NOT CALLDATASIZE ADD SLT PUSH2 0x2A4 JUMPI PUSH1 0x20 PUSH1 0x40 MLOAD PUSH20 0xFFFFFFFFFFFFFFFFFFFFFFFFFFFFFFFFFFFFFFFF PUSH32 0x0 AND DUP2 MSTORE RETURN JUMPDEST POP CALLVALUE PUSH2 0x2A4 JUMPI DUP1 PUSH1 0x3 NOT CALLDATASIZE ADD SLT PUSH2 0x2A4 JUMPI PUSH20 0xFFFFFFFFFFFFFFFFFFFFFFFFFFFFFFFFFFFFFFFF PUSH1 0x20 SWAP2 SLOAD AND PUSH1 0x40 MLOAD SWAP1 DUP2 MSTORE RETURN JUMPDEST POP CALLVALUE PUSH2 0x2A4 JUMPI PUSH1 0x80 PUSH1 0x3 NOT CALLDATASIZE ADD SLT PUSH2 0x2A4 JUMPI PUSH2 0x1831 PUSH2 0x1EF5 JUMP JUMPDEST DUP2 PUSH2 0x183A PUSH2 0x1EAF JUMP JUMPDEST SWAP2 PUSH2 0x1843 PUSH2 0x1F18 JUMP JUMPDEST SWAP3 PUSH2 0x184C PUSH2 0x1ED2 JUMP JUMPDEST SWAP1 PUSH2 0x1856 DUP2 PUSH2 0x23C7 JUMP JUMPDEST PUSH20 0xFFFFFFFFFFFFFFFFFFFFFFFFFFFFFFFFFFFFFFFF DUP1 SWAP4 AND SWAP2 DUP3 EXTCODESIZE ISZERO PUSH2 0x5AE JUMPI PUSH1 0x64 SWAP3 DUP5 DUP7 SWAP3 PUSH16 0xFFFFFFFFFFFFFFFFFFFFFFFFFFFFFFFF PUSH1 0x40 MLOAD SWAP10 DUP11 SWAP9 DUP10 SWAP8 PUSH32 0x8ABCC9FB00000000000000000000000000000000000000000000000000000000 DUP10 MSTORE AND PUSH1 0x4 DUP9 ADD MSTORE AND PUSH1 0x24 DUP7 ADD MSTORE AND PUSH1 0x44 DUP5 ADD MSTORE GAS CALL DUP1 ISZERO PUSH2 0x3C9 JUMPI PUSH2 0x18DA JUMPI POP DUP1 RETURN JUMPDEST PUSH2 0x18E3 SWAP1 PUSH2 0x207F JUMP JUMPDEST DUP1 RETURN JUMPDEST POP CALLVALUE PUSH2 0x2A4 JUMPI DUP1 PUSH1 0x3 NOT CALLDATASIZE ADD SLT PUSH2 0x2A4 JUMPI PUSH1 0x20 PUSH1 0x40 MLOAD PUSH20 0xFFFFFFFFFFFFFFFFFFFFFFFFFFFFFFFFFFFFFFFF PUSH32 0x0 AND DUP2 MSTORE RETURN JUMPDEST POP CALLVALUE PUSH2 0x2A4 JUMPI PUSH1 0x60 PUSH1 0x3 NOT CALLDATASIZE ADD SLT PUSH2 0x2A4 JUMPI PUSH2 0x1951 PUSH2 0x1EF5 JUMP JUMPDEST SWAP1 PUSH1 0x24 CALLDATALOAD PUSH2 0x195D PUSH2 0x1E8C JUMP JUMPDEST PUSH20 0xFFFFFFFFFFFFFFFFFFFFFFFFFFFFFFFFFFFFFFFF SWAP2 PUSH1 0x40 MLOAD SWAP5 PUSH32 0x6352211E00000000000000000000000000000000000000000000000000000000 DUP7 MSTORE DUP2 PUSH1 0x4 DUP8 ADD MSTORE PUSH1 0x20 SWAP6 DUP7 DUP2 PUSH1 0x24 DUP2 DUP9 PUSH32 0x0 AND GAS STATICCALL SWAP1 DUP2 ISZERO PUSH2 0x5D0 JUMPI DUP6 PUSH1 0x44 SWAP4 PUSH2 0x19ED DUP11 SWAP8 SWAP7 SWAP5 DUP11 SWAP5 DUP6 SWAP2 PUSH2 0x1A6E JUMPI POP PUSH2 0x23C7 JUMP JUMPDEST PUSH1 0x40 MLOAD SWAP8 DUP9 SWAP7 DUP8 SWAP6 PUSH32 0xD125865F00000000000000000000000000000000000000000000000000000000 DUP8 MSTORE PUSH1 0x4 DUP8 ADD MSTORE AND PUSH1 0x24 DUP6 ADD MSTORE AND GAS CALL SWAP2 DUP3 ISZERO PUSH2 0xCD1 JUMPI DUP1 SWAP3 PUSH2 0x1A3E JUMPI JUMPDEST POP POP PUSH1 0x40 MLOAD SWAP1 DUP2 MSTORE RETURN JUMPDEST SWAP1 SWAP2 POP DUP3 DUP3 DUP2 RETURNDATASIZE DUP4 GT PUSH2 0x1A67 JUMPI JUMPDEST PUSH2 0x1A56 DUP2 DUP4 PUSH2 0x2093 JUMP JUMPDEST DUP2 ADD SUB SLT PUSH2 0x2A4 JUMPI POP MLOAD CODESIZE DUP1 PUSH2 0x1A34 JUMP JUMPDEST POP RETURNDATASIZE PUSH2 0x1A4C JUMP JUMPDEST PUSH2 0x5CA SWAP2 POP DUP10 RETURNDATASIZE DUP12 GT PUSH2 0x28D JUMPI PUSH2 0x27E DUP2 DUP4 PUSH2 0x2093 JUMP JUMPDEST SWAP1 POP CALLVALUE PUSH2 0x3BD JUMPI PUSH1 0x60 PUSH1 0x3 NOT CALLDATASIZE ADD SLT PUSH2 0x3BD JUMPI PUSH8 0xFFFFFFFFFFFFFFFF SWAP1 PUSH1 0x4 CALLDATALOAD DUP3 DUP2 GT PUSH2 0xE2B JUMPI PUSH2 0x1ABA SWAP1 CALLDATASIZE SWAP1 PUSH1 0x4 ADD PUSH2 0x1E5B JUMP JUMPDEST SWAP2 SWAP1 SWAP3 PUSH1 0x24 CALLDATALOAD SWAP1 DUP2 GT PUSH2 0x5AE JUMPI PUSH2 0x1AD5 SWAP1 CALLDATASIZE SWAP1 PUSH1 0x4 ADD PUSH2 0x1E5B JUMP JUMPDEST PUSH2 0x1ADD PUSH2 0x1E8C JUMP JUMPDEST SWAP3 DUP2 ISZERO PUSH2 0x1E57 JUMPI PUSH32 0x6352211E00000000000000000000000000000000000000000000000000000000 DUP2 MSTORE DUP3 CALLDATALOAD PUSH1 0x4 DUP3 ADD MSTORE PUSH1 0x20 DUP2 PUSH1 0x24 DUP2 PUSH20 0xFFFFFFFFFFFFFFFFFFFFFFFFFFFFFFFFFFFFFFFF PUSH32 0x0 AND GAS STATICCALL SWAP1 DUP2 ISZERO PUSH2 0x938 JUMPI DUP8 SWAP2 PUSH2 0x1E38 JUMPI JUMPDEST POP PUSH2 0x1B65 DUP2 PUSH2 0x23C7 JUMP JUMPDEST PUSH1 0x1 JUMPDEST DUP3 DUP2 LT PUSH2 0x1C72 JUMPI DUP8 PUSH2 0x1BCE PUSH1 0x20 DUP10 DUP10 DUP10 PUSH20 0xFFFFFFFFFFFFFFFFFFFFFFFFFFFFFFFFFFFFFFFF PUSH2 0x1BE0 DUP12 DUP12 PUSH1 0x40 MLOAD SWAP9 DUP10 SWAP8 DUP9 SWAP8 PUSH32 0xDE759E800000000000000000000000000000000000000000000000000000000 DUP10 MSTORE PUSH1 0x60 PUSH1 0x4 DUP11 ADD MSTORE PUSH1 0x64 DUP10 ADD SWAP2 PUSH2 0x2222 JUMP JUMPDEST SWAP2 PUSH1 0x3 NOT DUP8 DUP5 SUB ADD PUSH1 0x24 DUP9 ADD MSTORE PUSH2 0x2352 JUMP JUMPDEST SWAP2 AND PUSH1 0x44 DUP4 ADD MSTORE SUB DUP2 DUP6 PUSH20 0xFFFFFFFFFFFFFFFFFFFFFFFFFFFFFFFFFFFFFFFF PUSH32 0x0 AND GAS CALL SWAP1 DUP2 ISZERO PUSH2 0x3C9 JUMPI DUP3 SWAP2 PUSH2 0x1C3C JUMPI JUMPDEST PUSH1 0x20 DUP3 PUSH1 0x40 MLOAD SWAP1 DUP2 MSTORE RETURN JUMPDEST SWAP1 POP PUSH1 0x20 DUP2 RETURNDATASIZE PUSH1 0x20 GT PUSH2 0x1C6A JUMPI JUMPDEST DUP2 PUSH2 0x1C57 PUSH1 0x20 SWAP4 DUP4 PUSH2 0x2093 JUMP JUMPDEST DUP2 ADD SUB SLT PUSH2 0x3BD JUMPI PUSH1 0x20 SWAP2 POP MLOAD DUP3 PUSH2 0x1C31 JUMP JUMPDEST RETURNDATASIZE SWAP2 POP PUSH2 0x1C4A JUMP JUMPDEST PUSH2 0x1C7D DUP2 DUP5 DUP7 PUSH2 0x22B7 JUMP JUMPDEST CALLDATALOAD PUSH1 0x40 MLOAD SWAP1 PUSH32 0x6352211E00000000000000000000000000000000000000000000000000000000 DUP3 MSTORE PUSH1 0x4 DUP3 ADD MSTORE PUSH1 0x20 DUP2 PUSH1 0x24 DUP2 PUSH20 0xFFFFFFFFFFFFFFFFFFFFFFFFFFFFFFFFFFFFFFFF PUSH32 0x0 AND GAS STATICCALL SWAP1 DUP2 ISZERO PUSH2 0xE20 JUMPI DUP10 SWAP2 PUSH2 0x1E19 JUMPI JUMPDEST POP PUSH20 0xFFFFFFFFFFFFFFFFFFFFFFFFFFFFFFFFFFFFFFFF DUP1 DUP5 AND SWAP2 AND SUB PUSH2 0x1D25 JUMPI PUSH2 0x1D20 SWAP1 PUSH2 0x22F6 JUMP JUMPDEST PUSH2 0x1B68 JUMP JUMPDEST DUP8 SWAP3 PUSH2 0x1D31 SWAP3 SWAP5 PUSH2 0x22B7 JUMP JUMPDEST CALLDATALOAD PUSH1 0x40 MLOAD SWAP1 PUSH32 0x6352211E00000000000000000000000000000000000000000000000000000000 DUP3 MSTORE PUSH1 0x4 DUP3 ADD MSTORE PUSH1 0x20 DUP2 PUSH1 0x24 DUP2 PUSH20 0xFFFFFFFFFFFFFFFFFFFFFFFFFFFFFFFFFFFFFFFF PUSH32 0x0 AND GAS STATICCALL SWAP2 DUP3 ISZERO PUSH2 0xCD1 JUMPI SWAP2 PUSH2 0x1DFA JUMPI JUMPDEST POP PUSH1 0x40 MLOAD PUSH32 0x4ECF968E00000000000000000000000000000000000000000000000000000000 DUP2 MSTORE PUSH20 0xFFFFFFFFFFFFFFFFFFFFFFFFFFFFFFFFFFFFFFFF SWAP2 DUP3 AND PUSH1 0x4 DUP3 ADD MSTORE SWAP2 AND PUSH1 0x24 DUP3 ADD MSTORE PUSH1 0x44 SWAP1 REVERT JUMPDEST PUSH2 0x1E13 SWAP2 POP PUSH1 0x20 RETURNDATASIZE PUSH1 0x20 GT PUSH2 0x28D JUMPI PUSH2 0x27E DUP2 DUP4 PUSH2 0x2093 JUMP JUMPDEST DUP3 PUSH2 0x1DAA JUMP JUMPDEST PUSH2 0x1E32 SWAP2 POP PUSH1 0x20 RETURNDATASIZE PUSH1 0x20 GT PUSH2 0x28D JUMPI PUSH2 0x27E DUP2 DUP4 PUSH2 0x2093 JUMP JUMPDEST CODESIZE PUSH2 0x1CF7 JUMP JUMPDEST PUSH2 0x1E51 SWAP2 POP PUSH1 0x20 RETURNDATASIZE PUSH1 0x20 GT PUSH2 0x28D JUMPI PUSH2 0x27E DUP2 DUP4 PUSH2 0x2093 JUMP JUMPDEST CODESIZE PUSH2 0x1B5B JUMP JUMPDEST DUP7 DUP1 REVERT JUMPDEST SWAP2 DUP2 PUSH1 0x1F DUP5 ADD SLT ISZERO PUSH2 0x29F JUMPI DUP3 CALLDATALOAD SWAP2 PUSH8 0xFFFFFFFFFFFFFFFF DUP4 GT PUSH2 0x29F JUMPI PUSH1 0x20 DUP1 DUP6 ADD SWAP5 DUP5 PUSH1 0x5 SHL ADD ADD GT PUSH2 0x29F JUMPI JUMP JUMPDEST PUSH1 0x44 CALLDATALOAD SWAP1 PUSH20 0xFFFFFFFFFFFFFFFFFFFFFFFFFFFFFFFFFFFFFFFF DUP3 AND DUP3 SUB PUSH2 0x29F JUMPI JUMP JUMPDEST PUSH1 0x24 CALLDATALOAD SWAP1 PUSH20 0xFFFFFFFFFFFFFFFFFFFFFFFFFFFFFFFFFFFFFFFF DUP3 AND DUP3 SUB PUSH2 0x29F JUMPI JUMP JUMPDEST PUSH1 0x64 CALLDATALOAD SWAP1 PUSH20 0xFFFFFFFFFFFFFFFFFFFFFFFFFFFFFFFFFFFFFFFF DUP3 AND DUP3 SUB PUSH2 0x29F JUMPI JUMP JUMPDEST PUSH1 0x4 CALLDATALOAD SWAP1 PUSH20 0xFFFFFFFFFFFFFFFFFFFFFFFFFFFFFFFFFFFFFFFF DUP3 AND DUP3 SUB PUSH2 0x29F JUMPI JUMP JUMPDEST PUSH1 0x44 CALLDATALOAD SWAP1 PUSH16 0xFFFFFFFFFFFFFFFFFFFFFFFFFFFFFFFF DUP3 AND DUP3 SUB PUSH2 0x29F JUMPI JUMP JUMPDEST PUSH1 0x64 CALLDATALOAD SWAP1 PUSH16 0xFFFFFFFFFFFFFFFFFFFFFFFFFFFFFFFF DUP3 AND DUP3 SUB PUSH2 0x29F JUMPI JUMP JUMPDEST PUSH1 0x84 CALLDATALOAD SWAP1 PUSH16 0xFFFFFFFFFFFFFFFFFFFFFFFFFFFFFFFF DUP3 AND DUP3 SUB PUSH2 0x29F JUMPI JUMP JUMPDEST PUSH1 0x60 PUSH1 0x3 NOT DUP3 ADD SLT PUSH2 0x29F JUMPI PUSH20 0xFFFFFFFFFFFFFFFFFFFFFFFFFFFFFFFFFFFFFFFF SWAP2 PUSH1 0x4 CALLDATALOAD DUP4 DUP2 AND DUP2 SUB PUSH2 0x29F JUMPI SWAP3 PUSH1 0x24 CALLDATALOAD SWAP1 DUP2 AND DUP2 SUB PUSH2 0x29F JUMPI SWAP2 PUSH1 0x44 CALLDATALOAD SWAP1 PUSH8 0xFFFFFFFFFFFFFFFF DUP3 GT PUSH2 0x29F JUMPI PUSH2 0x1FD0 SWAP2 PUSH1 0x4 ADD PUSH2 0x1E5B JUMP JUMPDEST SWAP1 SWAP2 JUMP JUMPDEST PUSH1 0x44 CALLDATALOAD SWAP1 PUSH1 0xFF DUP3 AND DUP3 SUB PUSH2 0x29F JUMPI JUMP JUMPDEST PUSH1 0x60 PUSH1 0x3 NOT DUP3 ADD SLT PUSH2 0x29F JUMPI PUSH1 0x4 CALLDATALOAD SWAP1 PUSH8 0xFFFFFFFFFFFFFFFF DUP3 GT PUSH2 0x29F JUMPI PUSH2 0x200F SWAP2 PUSH1 0x4 ADD PUSH2 0x1E5B JUMP JUMPDEST SWAP1 SWAP2 PUSH20 0xFFFFFFFFFFFFFFFFFFFFFFFFFFFFFFFFFFFFFFFF SWAP1 PUSH1 0x24 CALLDATALOAD DUP3 DUP2 AND DUP2 SUB PUSH2 0x29F JUMPI SWAP2 PUSH1 0x44 CALLDATALOAD SWAP1 DUP2 AND DUP2 SUB PUSH2 0x29F JUMPI SWAP1 JUMP JUMPDEST PUSH1 0x24 CALLDATALOAD SWAP1 PUSH12 0xFFFFFFFFFFFFFFFFFFFFFFFF DUP3 AND DUP3 SUB PUSH2 0x29F JUMPI JUMP JUMPDEST PUSH20 0xFFFFFFFFFFFFFFFFFFFFFFFFFFFFFFFFFFFFFFFF PUSH1 0x0 SLOAD AND CALLER SUB PUSH2 0xB10 JUMPI JUMP JUMPDEST PUSH8 0xFFFFFFFFFFFFFFFF DUP2 GT PUSH2 0x16FF JUMPI PUSH1 0x40 MSTORE JUMP JUMPDEST SWAP1 PUSH1 0x1F PUSH32 0xFFFFFFFFFFFFFFFFFFFFFFFFFFFFFFFFFFFFFFFFFFFFFFFFFFFFFFFFFFFFFFE0 SWAP2 ADD AND DUP2 ADD SWAP1 DUP2 LT PUSH8 0xFFFFFFFFFFFFFFFF DUP3 GT OR PUSH2 0x16FF JUMPI PUSH1 0x40 MSTORE JUMP JUMPDEST SWAP2 SWAP3 SWAP1 ISZERO PUSH2 0x214F JUMPI POP DUP2 MLOAD ISZERO PUSH2 0x20E8 JUMPI POP SWAP1 JUMP JUMPDEST EXTCODESIZE ISZERO PUSH2 0x20F1 JUMPI SWAP1 JUMP JUMPDEST PUSH1 0x64 PUSH1 0x40 MLOAD PUSH32 0x8C379A000000000000000000000000000000000000000000000000000000000 DUP2 MSTORE PUSH1 0x20 PUSH1 0x4 DUP3 ADD MSTORE PUSH1 0x1D PUSH1 0x24 DUP3 ADD MSTORE PUSH32 0x416464726573733A2063616C6C20746F206E6F6E2D636F6E7472616374000000 PUSH1 0x44 DUP3 ADD MSTORE REVERT JUMPDEST DUP3 MLOAD SWAP1 SWAP2 POP ISZERO PUSH2 0x2162 JUMPI POP DUP1 MLOAD SWAP1 PUSH1 0x20 ADD REVERT JUMPDEST PUSH1 0x40 MLOAD SWAP1 PUSH32 0x8C379A000000000000000000000000000000000000000000000000000000000 DUP3 MSTORE DUP2 PUSH1 0x20 DUP1 PUSH1 0x4 DUP4 ADD MSTORE DUP3 MLOAD SWAP3 DUP4 PUSH1 0x24 DUP5 ADD MSTORE PUSH1 0x0 JUMPDEST DUP5 DUP2 LT PUSH2 0x21DF JUMPI POP POP POP PUSH32 0xFFFFFFFFFFFFFFFFFFFFFFFFFFFFFFFFFFFFFFFFFFFFFFFFFFFFFFFFFFFFFFE0 PUSH1 0x1F DUP4 PUSH1 0x0 PUSH1 0x44 DUP1 SWAP7 DUP7 ADD ADD MSTORE ADD AND DUP2 ADD SUB ADD SWAP1 REVERT JUMPDEST DUP2 DUP2 ADD DUP4 ADD MLOAD DUP7 DUP3 ADD PUSH1 0x44 ADD MSTORE DUP6 SWAP4 POP DUP3 ADD PUSH2 0x219E JUMP JUMPDEST SWAP1 DUP2 PUSH1 0x20 SWAP2 SUB SLT PUSH2 0x29F JUMPI MLOAD PUSH20 0xFFFFFFFFFFFFFFFFFFFFFFFFFFFFFFFFFFFFFFFF DUP2 AND DUP2 SUB PUSH2 0x29F JUMPI SWAP1 JUMP JUMPDEST SWAP2 SWAP1 DUP1 DUP3 MSTORE PUSH1 0x20 DUP1 SWAP3 ADD SWAP3 SWAP2 PUSH1 0x0 DUP1 JUMPDEST DUP4 DUP3 LT PUSH2 0x2241 JUMPI POP POP POP POP POP SWAP1 JUMP JUMPDEST SWAP1 SWAP2 SWAP3 SWAP4 SWAP5 DUP6 CALLDATALOAD PUSH20 0xFFFFFFFFFFFFFFFFFFFFFFFFFFFFFFFFFFFFFFFF DUP2 AND DUP1 SWAP2 SUB PUSH2 0xE2F JUMPI DUP2 MSTORE DUP4 ADD SWAP5 DUP4 ADD SWAP4 SWAP3 SWAP2 PUSH1 0x1 ADD SWAP1 PUSH2 0x2232 JUMP JUMPDEST SWAP3 SWAP1 PUSH2 0x2293 SWAP1 PUSH1 0x40 SWAP4 SWAP7 SWAP6 SWAP7 PUSH1 0x60 DUP7 MSTORE PUSH1 0x60 DUP7 ADD SWAP2 PUSH2 0x2222 JUMP JUMPDEST SWAP5 PUSH20 0xFFFFFFFFFFFFFFFFFFFFFFFFFFFFFFFFFFFFFFFF DUP1 SWAP3 AND PUSH1 0x20 DUP6 ADD MSTORE AND SWAP2 ADD MSTORE JUMP JUMPDEST SWAP2 SWAP1 DUP2 LT ISZERO PUSH2 0x22C7 JUMPI PUSH1 0x5 SHL ADD SWAP1 JUMP JUMPDEST PUSH32 0x4E487B7100000000000000000000000000000000000000000000000000000000 PUSH1 0x0 MSTORE PUSH1 0x32 PUSH1 0x4 MSTORE PUSH1 0x24 PUSH1 0x0 REVERT JUMPDEST PUSH32 0xFFFFFFFFFFFFFFFFFFFFFFFFFFFFFFFFFFFFFFFFFFFFFFFFFFFFFFFFFFFFFFFF DUP2 EQ PUSH2 0x2323 JUMPI PUSH1 0x1 ADD SWAP1 JUMP JUMPDEST PUSH32 0x4E487B7100000000000000000000000000000000000000000000000000000000 PUSH1 0x0 MSTORE PUSH1 0x11 PUSH1 0x4 MSTORE PUSH1 0x24 PUSH1 0x0 REVERT JUMPDEST SWAP1 SWAP2 DUP3 DUP2 MSTORE PUSH32 0x7FFFFFFFFFFFFFFFFFFFFFFFFFFFFFFFFFFFFFFFFFFFFFFFFFFFFFFFFFFFFFF DUP4 GT PUSH2 0x29F JUMPI PUSH1 0x20 SWAP3 PUSH1 0x5 SHL DUP1 SWAP3 DUP5 DUP4 ADD CALLDATACOPY ADD ADD SWAP1 JUMP JUMPDEST PUSH1 0x60 SWAP2 PUSH2 0x23C4 SWAP6 SWAP4 PUSH20 0xFFFFFFFFFFFFFFFFFFFFFFFFFFFFFFFFFFFFFFFF DUP1 SWAP3 AND DUP4 MSTORE AND PUSH1 0x20 DUP3 ADD MSTORE DUP2 PUSH1 0x40 DUP3 ADD MSTORE ADD SWAP2 PUSH2 0x2352 JUMP JUMPDEST SWAP1 JUMP JUMPDEST PUSH20 0xFFFFFFFFFFFFFFFFFFFFFFFFFFFFFFFFFFFFFFFF AND PUSH1 0x0 MSTORE PUSH1 0x4 PUSH1 0x20 MSTORE PUSH1 0x40 PUSH1 0x0 KECCAK256 CALLER PUSH1 0x0 MSTORE PUSH1 0x20 MSTORE PUSH1 0xFF PUSH1 0x40 PUSH1 0x0 KECCAK256 SLOAD AND ISZERO PUSH2 0x6D9 JUMPI JUMP INVALID LOG2 PUSH5 0x6970667358 0x22 SLT KECCAK256 CREATE2 0xCF 0xF6 0x5D GASPRICE 0x4D CALLDATASIZE MSTORE8 STOP 0xEB XOR 0xA8 0xE 0x21 0xD3 0xD6 0xCE 0x28 0xC7 0xB4 PUSH14 0x6E0AF487A77A52EB9B333D64736F PUSH13 0x63430008150033000000000000 "},"methodIdentifiers":{"EFC()":"1420f802","acceptGov()":"7bc6729b","approvePlugin(address)":"38c74dd9","changeGov(address)":"a962ef1e","feeDistributor()":"0d43e8ad","gov()":"12d43a51","isPluginApproved(address,address)":"afbb3831","isRegisteredLiquidator(address)":"60f6f14b","pendingGov()":"25240810","pluginAdjustLiquidityPositionMargin(address,uint96,int128,address)":"ae39e59c","pluginCloseLiquidityPosition(address,uint96,address)":"c67f1a35","pluginClosePositionByLiquidator(address,address,uint8,uint128,address)":"c171f0b0","pluginCollectArchitectRewardBatch(address,uint256[])":"786bccf2","pluginCollectFarmLiquidityRewardBatch(address[],address,address)":"525c8656","pluginCollectFarmReferralRewardBatch(address[],uint256[],address)":"03dbee4d","pluginCollectFarmRiskBufferFundRewardBatch(address[],address,address)":"64fdd23c","pluginCollectReferralFee(address,uint256,address)":"0cfe3642","pluginCollectStakingRewardBatch(address,address,uint256[])":"724fa771","pluginCollectV3PosStakingRewardBatch(address,address,uint256[])":"18602c7b","pluginDecreasePosition(address,address,uint8,uint128,uint128,address)":"f86786f1","pluginDecreaseRiskBufferFundPosition(address,address,uint128,address)":"10e8667b","pluginIncreasePosition(address,address,uint8,uint128,uint128)":"2a5a2cca","pluginIncreaseRiskBufferFundPosition(address,address,uint128)":"8c96742e","pluginOpenLiquidityPosition(address,address,uint128,uint128)":"f5d01c53","pluginTransfer(address,address,address,uint256)":"1b827878","pluginTransferNFT(address,address,address,uint256)":"bb0c5f95","registerLiquidator(address)":"d3d0d999","registerPlugin(address)":"51a4b38e","registeredPlugins(address)":"292b33fc","revokePlugin(address)":"45b27407","rewardFarm()":"53459391"}}}}}