{
  "_format": "hh-sol-artifact-1",
  "contractName": "RewardCollector",
  "sourceName": "contracts/plugins/RewardCollector.sol",
  "abi": [
    {
      "inputs": [
        {
          "internalType": "contract Router",
          "name": "_router",
          "type": "address"
        },
        {
          "internalType": "contract IERC20",
          "name": "_EQU",
          "type": "address"
        },
        {
          "internalType": "contract IEFC",
          "name": "_EFC",
          "type": "address"
        }
      ],
      "stateMutability": "nonpayable",
      "type": "constructor"
    },
    {
      "inputs": [
        {
          "internalType": "uint256",
          "name": "amount",
          "type": "uint256"
        },
        {
          "internalType": "uint256",
          "name": "requiredAmount",
          "type": "uint256"
        }
      ],
      "name": "InsufficientBalance",
      "type": "error"
    },
    {
      "inputs": [
        {
          "internalType": "address",
          "name": "caller",
          "type": "address"
        },
        {
          "internalType": "address",
          "name": "requiredCaller",
          "type": "address"
        }
      ],
      "name": "InvalidCaller",
      "type": "error"
    },
    {
      "inputs": [
        {
          "internalType": "address",
          "name": "token",
          "type": "address"
        }
      ],
      "name": "SafeERC20FailedOperation",
      "type": "error"
    },
    {
      "inputs": [],
      "name": "EFC",
      "outputs": [
        {
          "internalType": "contract IEFC",
          "name": "",
          "type": "address"
        }
      ],
      "stateMutability": "view",
      "type": "function"
    },
    {
      "inputs": [],
      "name": "EQU",
      "outputs": [
        {
          "internalType": "contract IERC20",
          "name": "",
          "type": "address"
        }
      ],
      "stateMutability": "view",
      "type": "function"
    },
    {
      "inputs": [
        {
          "internalType": "uint256[]",
          "name": "_tokenIDs",
          "type": "uint256[]"
        }
      ],
      "name": "collectArchitectRewardBatch",
      "outputs": [
        {
          "internalType": "uint256",
          "name": "rewardDebt",
          "type": "uint256"
        }
      ],
      "stateMutability": "nonpayable",
      "type": "function"
    },
    {
      "inputs": [
        {
          "internalType": "contract IPool[]",
          "name": "_pools",
          "type": "address[]"
        }
      ],
      "name": "collectFarmLiquidityRewardBatch",
      "outputs": [
        {
          "internalType": "uint256",
          "name": "rewardDebt",
          "type": "uint256"
        }
      ],
      "stateMutability": "nonpayable",
      "type": "function"
    },
    {
      "inputs": [
        {
          "internalType": "contract IPool[]",
          "name": "_pools",
          "type": "address[]"
        },
        {
          "internalType": "uint256[]",
          "name": "_referralTokens",
          "type": "uint256[]"
        }
      ],
      "name": "collectFarmReferralRewardBatch",
      "outputs": [
        {
          "internalType": "uint256",
          "name": "rewardDebt",
          "type": "uint256"
        }
      ],
      "stateMutability": "nonpayable",
      "type": "function"
    },
    {
      "inputs": [
        {
          "internalType": "contract IPool[]",
          "name": "_pools",
          "type": "address[]"
        }
      ],
      "name": "collectFarmRiskBufferFundRewardBatch",
      "outputs": [
        {
          "internalType": "uint256",
          "name": "rewardDebt",
          "type": "uint256"
        }
      ],
      "stateMutability": "nonpayable",
      "type": "function"
    },
    {
      "inputs": [
        {
          "internalType": "contract IPool[]",
          "name": "_pools",
          "type": "address[]"
        },
        {
          "internalType": "uint256[]",
          "name": "_referralTokens",
          "type": "uint256[]"
        }
      ],
      "name": "collectReferralFeeBatch",
      "outputs": [
        {
          "internalType": "uint256",
          "name": "amount",
          "type": "uint256"
        }
      ],
      "stateMutability": "nonpayable",
      "type": "function"
    },
    {
      "inputs": [
        {
          "internalType": "uint256[]",
          "name": "_ids",
          "type": "uint256[]"
        }
      ],
      "name": "collectStakingRewardBatch",
      "outputs": [
        {
          "internalType": "uint256",
          "name": "rewardDebt",
          "type": "uint256"
        }
      ],
      "stateMutability": "nonpayable",
      "type": "function"
    },
    {
      "inputs": [
        {
          "internalType": "uint256[]",
          "name": "_ids",
          "type": "uint256[]"
        }
      ],
      "name": "collectV3PosStakingRewardBatch",
      "outputs": [
        {
          "internalType": "uint256",
          "name": "rewardDebt",
          "type": "uint256"
        }
      ],
      "stateMutability": "nonpayable",
      "type": "function"
    },
    {
      "inputs": [
        {
          "internalType": "bytes[]",
          "name": "data",
          "type": "bytes[]"
        }
      ],
      "name": "multicall",
      "outputs": [
        {
          "internalType": "bytes[]",
          "name": "results",
          "type": "bytes[]"
        }
      ],
      "stateMutability": "nonpayable",
      "type": "function"
    },
    {
      "inputs": [],
      "name": "router",
      "outputs": [
        {
          "internalType": "contract Router",
          "name": "",
          "type": "address"
        }
      ],
      "stateMutability": "view",
      "type": "function"
    },
    {
      "inputs": [
        {
          "internalType": "contract IERC20",
          "name": "_token",
          "type": "address"
        },
        {
          "internalType": "uint256",
          "name": "_amountMinimum",
          "type": "uint256"
        },
        {
          "internalType": "address",
          "name": "_receiver",
          "type": "address"
        }
      ],
      "name": "sweepToken",
      "outputs": [
        {
          "internalType": "uint256",
          "name": "amount",
          "type": "uint256"
        }
      ],
      "stateMutability": "nonpayable",
      "type": "function"
    }
  ],
  "bytecode": "0x60e0346100bc57601f61145038819003918201601f19168301916001600160401b038311848410176100c1578084926060946040528339810103126100bc578051906001600160a01b0380831683036100bc5760208201519181831683036100bc576040015190811681036100bc5760c05260a05260805260405161137890816100d8823960805181818160f2015281816101cb015281816105cc0152610b5f015260a05181610502015260c051818181610cee01526111d20152f35b600080fd5b634e487b7160e01b600052604160045260246000fdfe608060408181526004918236101561001657600080fd5b600092833560e01c9182631420f80214610ca457508163165d961414610b23578163422d241314610a985781635a4c4fa414610a0d5781638bd19a3b1461096d578163aad3131f146108e1578163ac9650d814610645578163bb63478c14610526578163c2aa99a5146104b7578163df2ab5bb1461024a578163e161674b1461011a575063f887ea40146100a957600080fd5b3461011657817ffffffffffffffffffffffffffffffffffffffffffffffffffffffffffffffffc360112610116576020905173ffffffffffffffffffffffffffffffffffffffff7f0000000000000000000000000000000000000000000000000000000000000000168152f35b5080fd5b91905034610234576020606061017b936101ab61013636610d48565b9198909261014483856111b6565b8851998a9788977f03dbee4d0000000000000000000000000000000000000000000000000000000089528801526064870191611080565b917ffffffffffffffffffffffffffffffffffffffffffffffffffffffffffffffffc858403016024860152611115565b30604483015203818673ffffffffffffffffffffffffffffffffffffffff7f0000000000000000000000000000000000000000000000000000000000000000165af1918215610240578392610205575b6020838351908152f35b9091506020813d8211610238575b8161022060209383610e0f565b8101031261023457602092505190386101fb565b8280fd5b3d9150610213565b81513d85823e3d90fd5b919050346102345760607ffffffffffffffffffffffffffffffffffffffffffffffffffffffffffffffffc36011261023457813573ffffffffffffffffffffffffffffffffffffffff928382168092036104b357602491823595604435958616809603610418578451957f70a08231000000000000000000000000000000000000000000000000000000008752308488015260209788888781875afa9788156104a957839861047a575b508088106104465750855190888201907fa9059cbb0000000000000000000000000000000000000000000000000000000082528683015287604483015260448252608082019167ffffffffffffffff8184108185111761041b5760c082019081118482101761041b57846103a8938c959382938c52601e85527f416464726573733a206c6f772d6c6576656c2063616c6c206661696c6564000060a0820152519082895af16103a1610f70565b9086610fa0565b9182519283151592836103f3575b50505090506103c85750505051908152f35b8351917f5274afe7000000000000000000000000000000000000000000000000000000008352820152fd5b91938180945001031261011657870151908115918215036104185750803880896103b6565b80fd5b87856041897f4e487b7100000000000000000000000000000000000000000000000000000000835252fd5b84604491878a8a51937fcf479181000000000000000000000000000000000000000000000000000000008552840152820152fd5b9097508881813d83116104a2575b6104928183610e0f565b81010312610234575196386102f4565b503d610488565b87513d85823e3d90fd5b8480fd5b50503461011657817ffffffffffffffffffffffffffffffffffffffffffffffffffffffffffffffffc360112610116576020905173ffffffffffffffffffffffffffffffffffffffff7f0000000000000000000000000000000000000000000000000000000000000000168152f35b83833461011657602092837ffffffffffffffffffffffffffffffffffffffffffffffffffffffffffffffffc36011261023457803567ffffffffffffffff811161064157610578859136908401610d12565b84517f525c865600000000000000000000000000000000000000000000000000000000815293849283926105b292309233929186016110d7565b03818673ffffffffffffffffffffffffffffffffffffffff7f0000000000000000000000000000000000000000000000000000000000000000165af1928315610636578093610604575b505051908152f35b909192508382813d831161062f575b61061d8183610e0f565b810103126104185750519083806105fc565b503d610613565b8251903d90823e3d90fd5b8380fd5b8391503461011657602091827ffffffffffffffffffffffffffffffffffffffffffffffffffffffffffffffffc3601126104185767ffffffffffffffff918035838111610234576106999036908301610d12565b90936106a482610e7f565b946106b188519687610e0f565b8286527fffffffffffffffffffffffffffffffffffffffffffffffffffffffffffffffe06106de84610e7f565b0187865b8281106108d157505050845b83811061077157505050505083519280840190808552835180925280868601968360051b870101940192955b8287106107275785850386f35b909192938280610761837fffffffffffffffffffffffffffffffffffffffffffffffffffffffffffffffc08a600196030186528851610db1565b960192019601959291909261071a565b8060051b8201357fffffffffffffffffffffffffffffffffffffffffffffffffffffffffffffffe1833603018112156108cd5782018035908482116108c9578981019180360383136108c5576107c681610ef3565b926107d38d519485610e0f565b8184528b8401928c8336920101116108c157818a928d928537840101528a519160608301838110878211176108955789610875936108909695938f8f907f416464726573733a206c6f772d6c6576656c2064656c65676174652063616c6c7f206661696c6564000000000000000000000000000000000000000000000000009286978352602789528801528601525190305af461086e610f70565b9030610fa0565b61087f828a610f2d565b5261088a8189610f2d565b50610e97565b6106ee565b60248a60418b7f4e487b7100000000000000000000000000000000000000000000000000000000835252fd5b8980fd5b8880fd5b8780fd5b8680fd5b606082828b0101520188906106e2565b83833461011657602092837ffffffffffffffffffffffffffffffffffffffffffffffffffffffffffffffffc36011261023457803567ffffffffffffffff811161064157610933859136908401610d12565b84517f64fdd23c00000000000000000000000000000000000000000000000000000000815293849283926105b292309233929186016110d7565b83833461011657602092837ffffffffffffffffffffffffffffffffffffffffffffffffffffffffffffffffc36011261023457803567ffffffffffffffff8111610641576109bf859136908401610d12565b90926109cb82856111b6565b6105b2855194859384937f786bccf200000000000000000000000000000000000000000000000000000000855230908501528760248501526044840191611115565b83833461011657602092837ffffffffffffffffffffffffffffffffffffffffffffffffffffffffffffffffc36011261023457803567ffffffffffffffff811161064157610a5f859136908401610d12565b926105b2855194859384937f724fa771000000000000000000000000000000000000000000000000000000008552309033908601611152565b83833461011657602092837ffffffffffffffffffffffffffffffffffffffffffffffffffffffffffffffffc36011261023457803567ffffffffffffffff811161064157610aea859136908401610d12565b926105b2855194859384937f18602c7b000000000000000000000000000000000000000000000000000000008552309033908601611152565b9190503461023457610b3436610d48565b959091948195610b4488856111b6565b829773ffffffffffffffffffffffffffffffffffffffff91827f000000000000000000000000000000000000000000000000000000000000000016995b818110610b925760208a8a51908152f35b610b9d81838a611070565b358481168091036108cd5786905b8c858310610bc457505050610bbf90610e97565b610b81565b88610bd3849e9394888d611070565b35918d51907f0cfe3642000000000000000000000000000000000000000000000000000000008252858b830152602493848301523060448301528160648160209586945af1918215610c9a578b92610c6c575b50508201809211610c425750610c3c909b610e97565b90610bab565b886011897f4e487b7100000000000000000000000000000000000000000000000000000000835252fd5b90809250813d8311610c93575b610c838183610e0f565b810103126108c157513880610c26565b503d610c79565b8e513d8d823e3d90fd5b84903461011657817ffffffffffffffffffffffffffffffffffffffffffffffffffffffffffffffffc3601126101165760209073ffffffffffffffffffffffffffffffffffffffff7f0000000000000000000000000000000000000000000000000000000000000000168152f35b9181601f84011215610d435782359167ffffffffffffffff8311610d43576020808501948460051b010111610d4357565b600080fd5b60407ffffffffffffffffffffffffffffffffffffffffffffffffffffffffffffffffc820112610d435767ffffffffffffffff91600435838111610d435782610d9391600401610d12565b93909392602435918211610d4357610dad91600401610d12565b9091565b919082519283825260005b848110610dfb5750507fffffffffffffffffffffffffffffffffffffffffffffffffffffffffffffffe0601f8460006020809697860101520116010190565b602081830181015184830182015201610dbc565b90601f7fffffffffffffffffffffffffffffffffffffffffffffffffffffffffffffffe0910116810190811067ffffffffffffffff821117610e5057604052565b7f4e487b7100000000000000000000000000000000000000000000000000000000600052604160045260246000fd5b67ffffffffffffffff8111610e505760051b60200190565b7fffffffffffffffffffffffffffffffffffffffffffffffffffffffffffffffff8114610ec45760010190565b7f4e487b7100000000000000000000000000000000000000000000000000000000600052601160045260246000fd5b67ffffffffffffffff8111610e5057601f017fffffffffffffffffffffffffffffffffffffffffffffffffffffffffffffffe01660200190565b8051821015610f415760209160051b010190565b7f4e487b7100000000000000000000000000000000000000000000000000000000600052603260045260246000fd5b3d15610f9b573d90610f8182610ef3565b91610f8f6040519384610e0f565b82523d6000602084013e565b606090565b9192901561101b5750815115610fb4575090565b3b15610fbd5790565b60646040517f08c379a000000000000000000000000000000000000000000000000000000000815260206004820152601d60248201527f416464726573733a2063616c6c20746f206e6f6e2d636f6e74726163740000006044820152fd5b82519091501561102e5750805190602001fd5b61106c906040519182917f08c379a0000000000000000000000000000000000000000000000000000000008352602060048401526024830190610db1565b0390fd5b9190811015610f415760051b0190565b9190808252602080920192916000805b83821061109f57505050505090565b9091929394853573ffffffffffffffffffffffffffffffffffffffff8116809103610234578152830194830193929160010190611090565b92906110f190604093969596606086526060860191611080565b9473ffffffffffffffffffffffffffffffffffffffff809216602085015216910152565b90918281527f07ffffffffffffffffffffffffffffffffffffffffffffffffffffffffffffff8311610d435760209260051b809284830137010190565b606091611187959373ffffffffffffffffffffffffffffffffffffffff80921683521660208201528160408201520191611115565b90565b90816020910312610d43575173ffffffffffffffffffffffffffffffffffffffff81168103610d435790565b90600073ffffffffffffffffffffffffffffffffffffffff91827f000000000000000000000000000000000000000000000000000000000000000016915b818110611202575050505050565b61120d818387611070565b3560409081517f6352211e000000000000000000000000000000000000000000000000000000009283825260049283830152602093602492858185818c5afa9081156113375760009161131a575b50893391160361127857505050505061127390610e97565b6111f4565b88918589928561128a8a8f8d90611070565b35918451958693849283528a8301525afa91821561130f576044966000936112e0575b505051937f16cece4800000000000000000000000000000000000000000000000000000000855233908501521690820152fd5b611300929350803d10611308575b6112f88183610e0f565b81019061118a565b9086806112ad565b503d6112ee565b50513d6000823e3d90fd5b6113319150863d8811611308576112f88183610e0f565b3861125b565b83513d6000823e3d90fdfea264697066735822122096f203bda24b1d238edbfdebbe45a5b2fd13ccd8cf32d81491ae9ecaddbdb4e864736f6c63430008150033",
  "linkReferences": {},
  "deployedLinkReferences": {}
}