{
  "_format": "hh-sol-artifact-1",
  "contractName": "FundingRateUtilTest",
  "sourceName": "contracts/test/FundingRateUtilTest.sol",
  "abi": [
    {
      "inputs": [
        {
          "internalType": "Side",
          "name": "_side",
          "type": "uint8"
        },
        {
          "internalType": "uint128",
          "name": "_premiumRateX96",
          "type": "uint128"
        },
        {
          "internalType": "uint32",
          "name": "_interestRate",
          "type": "uint32"
        },
        {
          "internalType": "uint64",
          "name": "_maxSamplingTime",
          "type": "uint64"
        },
        {
          "internalType": "uint16",
          "name": "_timeDelta",
          "type": "uint16"
        }
      ],
      "name": "_samplePremiumRate",
      "outputs": [],
      "stateMutability": "nonpayable",
      "type": "function"
    },
    {
      "inputs": [
        {
          "components": [
            {
              "internalType": "uint128",
              "name": "longSize",
              "type": "uint128"
            },
            {
              "internalType": "uint128",
              "name": "shortSize",
              "type": "uint128"
            },
            {
              "internalType": "int192",
              "name": "longFundingRateGrowthX96",
              "type": "int192"
            },
            {
              "internalType": "int192",
              "name": "shortFundingRateGrowthX96",
              "type": "int192"
            }
          ],
          "internalType": "struct IPoolPosition.GlobalPosition",
          "name": "_globalPositionCache",
          "type": "tuple"
        },
        {
          "internalType": "int256",
          "name": "_fundingRateDeltaX96",
          "type": "int256"
        },
        {
          "internalType": "uint32",
          "name": "_maxFundingRate",
          "type": "uint32"
        },
        {
          "internalType": "uint160",
          "name": "_indexPriceX96",
          "type": "uint160"
        }
      ],
      "name": "calculateFundingRateGrowthX96",
      "outputs": [],
      "stateMutability": "nonpayable",
      "type": "function"
    },
    {
      "inputs": [],
      "name": "clampedFundingRateDeltaX96",
      "outputs": [
        {
          "internalType": "int256",
          "name": "",
          "type": "int256"
        }
      ],
      "stateMutability": "view",
      "type": "function"
    },
    {
      "inputs": [],
      "name": "fundingRateDeltaX96",
      "outputs": [
        {
          "internalType": "int256",
          "name": "",
          "type": "int256"
        }
      ],
      "stateMutability": "view",
      "type": "function"
    },
    {
      "inputs": [],
      "name": "gasUsed",
      "outputs": [
        {
          "internalType": "uint256",
          "name": "",
          "type": "uint256"
        }
      ],
      "stateMutability": "view",
      "type": "function"
    },
    {
      "inputs": [],
      "name": "globalRiskBufferFund",
      "outputs": [
        {
          "internalType": "int256",
          "name": "riskBufferFund",
          "type": "int256"
        },
        {
          "internalType": "uint256",
          "name": "liquidity",
          "type": "uint256"
        }
      ],
      "stateMutability": "view",
      "type": "function"
    },
    {
      "inputs": [],
      "name": "longFundingRateGrowthAfterX96",
      "outputs": [
        {
          "internalType": "int192",
          "name": "",
          "type": "int192"
        }
      ],
      "stateMutability": "view",
      "type": "function"
    },
    {
      "inputs": [],
      "name": "position",
      "outputs": [
        {
          "internalType": "uint128",
          "name": "netSize",
          "type": "uint128"
        },
        {
          "internalType": "uint128",
          "name": "liquidationBufferNetSize",
          "type": "uint128"
        },
        {
          "internalType": "uint160",
          "name": "entryPriceX96",
          "type": "uint160"
        },
        {
          "internalType": "Side",
          "name": "side",
          "type": "uint8"
        },
        {
          "internalType": "uint128",
          "name": "liquidity",
          "type": "uint128"
        },
        {
          "internalType": "uint256",
          "name": "realizedProfitGrowthX64",
          "type": "uint256"
        }
      ],
      "stateMutability": "view",
      "type": "function"
    },
    {
      "inputs": [],
      "name": "priceState",
      "outputs": [
        {
          "internalType": "uint128",
          "name": "maxPriceImpactLiquidity",
          "type": "uint128"
        },
        {
          "internalType": "uint128",
          "name": "premiumRateX96",
          "type": "uint128"
        },
        {
          "internalType": "uint8",
          "name": "pendingVertexIndex",
          "type": "uint8"
        },
        {
          "internalType": "uint8",
          "name": "liquidationVertexIndex",
          "type": "uint8"
        },
        {
          "internalType": "uint8",
          "name": "currentVertexIndex",
          "type": "uint8"
        }
      ],
      "stateMutability": "view",
      "type": "function"
    },
    {
      "inputs": [],
      "name": "sample",
      "outputs": [
        {
          "internalType": "uint64",
          "name": "lastAdjustFundingRateTime",
          "type": "uint64"
        },
        {
          "internalType": "uint16",
          "name": "sampleCount",
          "type": "uint16"
        },
        {
          "internalType": "int176",
          "name": "cumulativePremiumRateX96",
          "type": "int176"
        }
      ],
      "stateMutability": "view",
      "type": "function"
    },
    {
      "inputs": [
        {
          "internalType": "uint32",
          "name": "_interestRate",
          "type": "uint32"
        },
        {
          "internalType": "uint64",
          "name": "_currentTimestamp",
          "type": "uint64"
        }
      ],
      "name": "samplePremiumRate",
      "outputs": [],
      "stateMutability": "nonpayable",
      "type": "function"
    },
    {
      "inputs": [],
      "name": "shortFundingRateGrowthAfterX96",
      "outputs": [
        {
          "internalType": "int192",
          "name": "",
          "type": "int192"
        }
      ],
      "stateMutability": "view",
      "type": "function"
    },
    {
      "inputs": [],
      "name": "shouldAdjustFundingRate",
      "outputs": [
        {
          "internalType": "bool",
          "name": "",
          "type": "bool"
        }
      ],
      "stateMutability": "view",
      "type": "function"
    },
    {
      "inputs": [
        {
          "internalType": "int256",
          "name": "_riskBufferFund",
          "type": "int256"
        },
        {
          "internalType": "uint256",
          "name": "_liquidity",
          "type": "uint256"
        }
      ],
      "name": "updateGlobalRiskBufferFund",
      "outputs": [],
      "stateMutability": "nonpayable",
      "type": "function"
    },
    {
      "inputs": [
        {
          "internalType": "Side",
          "name": "_side",
          "type": "uint8"
        },
        {
          "internalType": "uint128",
          "name": "_netSize",
          "type": "uint128"
        },
        {
          "internalType": "uint160",
          "name": "_entryPriceX96",
          "type": "uint160"
        },
        {
          "internalType": "uint128",
          "name": "_liquidity",
          "type": "uint128"
        }
      ],
      "name": "updatePosition",
      "outputs": [],
      "stateMutability": "nonpayable",
      "type": "function"
    },
    {
      "inputs": [
        {
          "internalType": "uint128",
          "name": "_maxPriceImpactLiquidity",
          "type": "uint128"
        },
        {
          "internalType": "uint128",
          "name": "_premiumRateX96",
          "type": "uint128"
        }
      ],
      "name": "updatePriceState",
      "outputs": [],
      "stateMutability": "nonpayable",
      "type": "function"
    },
    {
      "inputs": [
        {
          "internalType": "uint64",
          "name": "_lastAdjustFundingRateTime",
          "type": "uint64"
        },
        {
          "internalType": "uint16",
          "name": "_sampleCount",
          "type": "uint16"
        },
        {
          "internalType": "int176",
          "name": "_cumulativePremiumRateX96",
          "type": "int176"
        }
      ],
      "name": "updateSample",
      "outputs": [],
      "stateMutability": "nonpayable",
      "type": "function"
    }
  ],
  "bytecode": "0x6080806040523461001657610faf908161001c8239f35b600080fdfe608060408181526004908136101561001657600080fd5b600092833560e01c90816304cef5e9146109885750806309218e91146108f45780631df6db86146108415780633bcb9f871461080057806341ae2714146107be5780634fa14c7c1461071e57806350843dc9146106de57806350c4f1ee14610664578063592cdadd146106275780636d713af9146105a95780639347b0541461056c5780639af354741461052f5780639e6e51c2146104ef578063ae062e7d146103ef578063c9482a5d14610390578063cdc6fa52146103515763d39336ab146100df57600080fd5b3461034d577ffffffffffffffffffffffffffffffffffffffffffffffffffffffffffffffffc360160e081126102fb5760801361034d578051906080820182811067ffffffffffffffff82111761032157815261013a610b11565b8252610144610af2565b91602081019283526044358060170b810361031d578282019081526064358060170b8103610319576060830190815260a4359163ffffffff83168093036103155760c4359373ffffffffffffffffffffffffffffffffffffffff8516809503610311575a968651987f3d134a3d000000000000000000000000000000000000000000000000000000008a52808a01526fffffffffffffffffffffffffffffffff8092511660248a0152511660448801525160170b60648701525160170b608486015260843560a486015260c485015260e48401526060836101048173__$d90c0a13b24e7baead22cae208cb363ccb$__5af4918215610307578491859486946102ae575b5050610255905a90610ba0565b6014556017557fffffffffffffffff000000000000000000000000000000000000000000000000806018541677ffffffffffffffffffffffffffffffffffffffffffffffff938416176018556019541691161760195580f35b9250935091506060813d82116102ff575b816102cc60609383610b30565b810103126102fb576102556102f08251946102e960208501610bdc565b9301610bdc565b939193929038610248565b8380fd5b3d91506102bf565b81513d86823e3d90fd5b8880fd5b8780fd5b8680fd5b8580fd5b6024856041867f4e487b7100000000000000000000000000000000000000000000000000000000835252fd5b8280fd5b503461034d577ffffffffffffffffffffffffffffffffffffffffffffffffffffffffffffffffc36011261038c578035905560243560055580f35b5080fd5b83823461038c57817ffffffffffffffffffffffffffffffffffffffffffffffffffffffffffffffffc36011261038c576060906006549080519167ffffffffffffffff8116835261ffff81831c16602084015260501d60150b90820152f35b83346104ec5760807ffffffffffffffffffffffffffffffffffffffffffffffffffffffffffffffffc3601126104ec57610427610add565b61042f610af2565b60443573ffffffffffffffffffffffffffffffffffffffff81168091036102fb57606435926fffffffffffffffffffffffffffffffff9081851680950361031d5774ff00000000000000000000000000000000000000007fffffffffffffffffffffff00000000000000000000000000000000000000000091600154937fffffffffffffffffffffffffffffffff0000000000000000000000000000000096168689541617885560a01b1691161717600155600254161760025580f35b80fd5b83823461038c57817ffffffffffffffffffffffffffffffffffffffffffffffffffffffffffffffffc36011261038c5760209060185460170b9051908152f35b83823461038c57817ffffffffffffffffffffffffffffffffffffffffffffffffffffffffffffffffc36011261038c576020906016549051908152f35b83823461038c57817ffffffffffffffffffffffffffffffffffffffffffffffffffffffffffffffffc36011261038c576020906017549051908152f35b83823461038c577ffffffffffffffffffffffffffffffffffffffffffffffffffffffffffffffffc3601126104ec576105e0610b11565b6fffffffffffffffffffffffffffffffff7fffffffffffffffffffffffffffffffff0000000000000000000000000000000061061a610af2565b60801b1691161760075580f35b83823461038c57817ffffffffffffffffffffffffffffffffffffffffffffffffffffffffffffffffc36011261038c576020906014549051908152f35b83823461038c57817ffffffffffffffffffffffffffffffffffffffffffffffffffffffffffffffffc36011261038c5760a09060ff60075491600f54908051936fffffffffffffffffffffffffffffffff8116855260801c602085015282821690840152818160081c16606084015260101c166080820152f35b83823461038c57817ffffffffffffffffffffffffffffffffffffffffffffffffffffffffffffffffc36011261038c5760209060195460170b9051908152f35b50903461034d5760607ffffffffffffffffffffffffffffffffffffffffffffffffffffffffffffffffc36011261034d573567ffffffffffffffff811680910361034d5760243561ffff811681036102fb57604435908160150b82036107ba577fffffffffffffffffffffffffffffffffffffffffffff0000000000000000000069ffff00000000000000009260501b16931b16171760065580f35b8480fd5b83823461038c57817ffffffffffffffffffffffffffffffffffffffffffffffffffffffffffffffffc36011261038c5760209060ff6015541690519015158152f35b5091346104ec57807ffffffffffffffffffffffffffffffffffffffffffffffffffffffffffffffffc3601126104ec57505460055482519182526020820152f35b83346104ec5760a07ffffffffffffffffffffffffffffffffffffffffffffffffffffffffffffffffc3601126104ec57610879610add565b610881610af2565b60443563ffffffff811681036102fb576064359067ffffffffffffffff821682036107ba576084359261ffff8416840361031d576108be94610c17565b9060ff7fffffffffffffffffffffffffffffffffffffffffffffffffffffffffffffff0060155416911515161760155560165580f35b83823461038c57817ffffffffffffffffffffffffffffffffffffffffffffffffffffffffffffffffc36011261038c5760c091546fffffffffffffffffffffffffffffffff9160ff600154846002541692600354948151968116875260801c602087015273ffffffffffffffffffffffffffffffffffffffff82169086015260a01c166060840152608083015260a0820152f35b929050346102fb57817ffffffffffffffffffffffffffffffffffffffffffffffffffffffffffffffffc3601126102fb57803563ffffffff81168091036107ba576024359067ffffffffffffffff821680920361031d5760065a937fdedc89cf0000000000000000000000000000000000000000000000000000000087528601528560248601526007604486015260648501526084840152818360a48173__$d90c0a13b24e7baead22cae208cb363ccb$__5af4928315610ad35784928594610a91575b5050610a59905a90610ba0565b60145560ff7fffffffffffffffffffffffffffffffffffffffffffffffffffffffffffffff0060155416911515161760155560165580f35b809294508193503d8311610acc575b610aaa8183610b30565b8101031261034d5780519081151582036102fb576020015191610a5938610a4c565b503d610aa0565b82513d86823e3d90fd5b6004359060ff82168203610aed57565b600080fd5b602435906fffffffffffffffffffffffffffffffff82168203610aed57565b600435906fffffffffffffffffffffffffffffffff82168203610aed57565b90601f7fffffffffffffffffffffffffffffffffffffffffffffffffffffffffffffffe0910116810190811067ffffffffffffffff821117610b7157604052565b7f4e487b7100000000000000000000000000000000000000000000000000000000600052604160045260246000fd5b91908203918211610bad57565b7f4e487b7100000000000000000000000000000000000000000000000000000000600052601160045260246000fd5b51908160170b8203610aed57565b7f80000000000000000000000000000000000000000000000000000000000000008114610bad5760000390565b919493916fffffffffffffffffffffffffffffffff919060ff16600103610d77571660150b7fffffffffffffffffffff800000000000000000000000000000000000000000008114610bad57600003905b600561ffff809216049160065490627fffff838360401c16858101948086168097600162ffffff9384921694011601160260011c1660020b0260150b8160501d016102d08160150b9410610d215750610cd79291505060008112610d0257610ccf90610e4a565b935b84610d81565b9260008482019485129112908015821691151617610bad5767ffffffffffffffff1660065560019190565b610d16610d11610d1b92610bea565b610e4a565b610bea565b93610cd1565b69ffff0000000000000000929596507fffffffffffffffffffffffffffffffffffffffffffff0000000000000000000091945067ffffffffffffffff935060501b169360401b1691161717600655600090600090565b1660150b90610c68565b9063ffffffff166305f5e1006c01000000000000000000000000610da483610e83565b9209610e0f575b60008282039212818312811691831390151617610bad576a04189374bc6a7ef9db22d19081811315610ddb575090565b7ffffffffffffffffffffffffffffffffffffffffffffbe76c8b4395810624dd2f915081811215610e0a575090565b905090565b6001810180911115610dab577f4e487b7100000000000000000000000000000000000000000000000000000000600052601160045260246000fd5b80610e555750600090565b621faf407fffffffffffffffffffffffffffffffffffffffffffffffffffffffffffffffff60019201040190565b6c010000000000000000000000007fffffffffffffffffffffffffffffffffffffffffffffffffffffffffffffffff8183098260601b91828083109203918083039214610f6c576305f5e1009082821115610f0e577facbe0e98f503f8881186e60dbb7f727bf36b7213ee9f5a78c767074b22e90e21940990828211900360f81b910360081c170290565b60646040517f08c379a000000000000000000000000000000000000000000000000000000000815260206004820152601560248201527f4d6174683a206d756c446976206f766572666c6f7700000000000000000000006044820152fd5b50506305f5e1009150049056fea26469706673582212205acd61a2a1b3b41b5e32a5b226632d2dc9952badaa58bb3d826503c3fdddac3664736f6c63430008150033",
  "linkReferences": {
    "contracts/libraries/FundingRateUtil.sol": {
      "FundingRateUtil": [
        {
          "length": 20,
          "start": 573
        },
        {
          "length": 20,
          "start": 2627
        }
      ]
    }
  },
  "deployedLinkReferences": {
    "contracts/libraries/FundingRateUtil.sol": {
      "FundingRateUtil": [
        {
          "length": 20,
          "start": 545
        },
        {
          "length": 20,
          "start": 2599
        }
      ]
    }
  }
}