{
  "_format": "hh-sol-artifact-1",
  "contractName": "Liquidator",
  "sourceName": "contracts/plugins/Liquidator.sol",
  "abi": [
    {
      "inputs": [
        {
          "internalType": "contract Router",
          "name": "_router",
          "type": "address"
        },
        {
          "internalType": "contract IPoolFactory",
          "name": "_poolFactory",
          "type": "address"
        },
        {
          "internalType": "contract IERC20",
          "name": "_usd",
          "type": "address"
        },
        {
          "internalType": "contract IEFC",
          "name": "_efc",
          "type": "address"
        }
      ],
      "stateMutability": "nonpayable",
      "type": "constructor"
    },
    {
      "inputs": [],
      "name": "Forbidden",
      "type": "error"
    },
    {
      "inputs": [
        {
          "internalType": "int256",
          "name": "margin",
          "type": "int256"
        },
        {
          "internalType": "int256",
          "name": "unrealizedPnL",
          "type": "int256"
        },
        {
          "internalType": "uint256",
          "name": "maintenanceMargin",
          "type": "uint256"
        }
      ],
      "name": "MarginRateTooLow",
      "type": "error"
    },
    {
      "inputs": [
        {
          "internalType": "uint256",
          "name": "value",
          "type": "uint256"
        }
      ],
      "name": "SafeCastOverflowedUintToInt",
      "type": "error"
    },
    {
      "inputs": [
        {
          "internalType": "address",
          "name": "token",
          "type": "address"
        }
      ],
      "name": "SafeERC20FailedOperation",
      "type": "error"
    },
    {
      "anonymous": false,
      "inputs": [
        {
          "indexed": true,
          "internalType": "address",
          "name": "previousGov",
          "type": "address"
        },
        {
          "indexed": true,
          "internalType": "address",
          "name": "newGov",
          "type": "address"
        }
      ],
      "name": "ChangeGovStarted",
      "type": "event"
    },
    {
      "anonymous": false,
      "inputs": [
        {
          "indexed": false,
          "internalType": "address",
          "name": "account",
          "type": "address"
        },
        {
          "indexed": false,
          "internalType": "bool",
          "name": "active",
          "type": "bool"
        }
      ],
      "name": "ExecutorUpdated",
      "type": "event"
    },
    {
      "anonymous": false,
      "inputs": [
        {
          "indexed": true,
          "internalType": "address",
          "name": "previousGov",
          "type": "address"
        },
        {
          "indexed": true,
          "internalType": "address",
          "name": "newGov",
          "type": "address"
        }
      ],
      "name": "GovChanged",
      "type": "event"
    },
    {
      "anonymous": false,
      "inputs": [
        {
          "indexed": true,
          "internalType": "contract IPool",
          "name": "pool",
          "type": "address"
        },
        {
          "indexed": true,
          "internalType": "address",
          "name": "account",
          "type": "address"
        },
        {
          "indexed": false,
          "internalType": "Side",
          "name": "side",
          "type": "uint8"
        },
        {
          "indexed": false,
          "internalType": "uint64",
          "name": "liquidationExecutionFee",
          "type": "uint64"
        }
      ],
      "name": "PositionClosedByLiquidator",
      "type": "event"
    },
    {
      "inputs": [],
      "name": "EFC",
      "outputs": [
        {
          "internalType": "contract IEFC",
          "name": "",
          "type": "address"
        }
      ],
      "stateMutability": "view",
      "type": "function"
    },
    {
      "inputs": [],
      "name": "acceptGov",
      "outputs": [],
      "stateMutability": "nonpayable",
      "type": "function"
    },
    {
      "inputs": [
        {
          "internalType": "address",
          "name": "_newGov",
          "type": "address"
        }
      ],
      "name": "changeGov",
      "outputs": [],
      "stateMutability": "nonpayable",
      "type": "function"
    },
    {
      "inputs": [
        {
          "internalType": "address",
          "name": "",
          "type": "address"
        }
      ],
      "name": "executors",
      "outputs": [
        {
          "internalType": "bool",
          "name": "",
          "type": "bool"
        }
      ],
      "stateMutability": "view",
      "type": "function"
    },
    {
      "inputs": [],
      "name": "gov",
      "outputs": [
        {
          "internalType": "address",
          "name": "",
          "type": "address"
        }
      ],
      "stateMutability": "view",
      "type": "function"
    },
    {
      "inputs": [
        {
          "internalType": "contract IPool",
          "name": "_pool",
          "type": "address"
        },
        {
          "internalType": "uint96",
          "name": "_positionID",
          "type": "uint96"
        },
        {
          "internalType": "address",
          "name": "_feeReceiver",
          "type": "address"
        }
      ],
      "name": "liquidateLiquidityPosition",
      "outputs": [],
      "stateMutability": "nonpayable",
      "type": "function"
    },
    {
      "inputs": [
        {
          "internalType": "contract IPool",
          "name": "_pool",
          "type": "address"
        },
        {
          "internalType": "address",
          "name": "_account",
          "type": "address"
        },
        {
          "internalType": "Side",
          "name": "_side",
          "type": "uint8"
        },
        {
          "internalType": "address",
          "name": "_feeReceiver",
          "type": "address"
        }
      ],
      "name": "liquidatePosition",
      "outputs": [],
      "stateMutability": "nonpayable",
      "type": "function"
    },
    {
      "inputs": [],
      "name": "pendingGov",
      "outputs": [
        {
          "internalType": "address",
          "name": "",
          "type": "address"
        }
      ],
      "stateMutability": "view",
      "type": "function"
    },
    {
      "inputs": [],
      "name": "poolFactory",
      "outputs": [
        {
          "internalType": "contract IPoolFactory",
          "name": "",
          "type": "address"
        }
      ],
      "stateMutability": "view",
      "type": "function"
    },
    {
      "inputs": [],
      "name": "priceFeed",
      "outputs": [
        {
          "internalType": "contract IPriceFeed",
          "name": "",
          "type": "address"
        }
      ],
      "stateMutability": "view",
      "type": "function"
    },
    {
      "inputs": [],
      "name": "router",
      "outputs": [
        {
          "internalType": "contract Router",
          "name": "",
          "type": "address"
        }
      ],
      "stateMutability": "view",
      "type": "function"
    },
    {
      "inputs": [
        {
          "internalType": "address",
          "name": "_account",
          "type": "address"
        },
        {
          "internalType": "bool",
          "name": "_active",
          "type": "bool"
        }
      ],
      "name": "updateExecutor",
      "outputs": [],
      "stateMutability": "nonpayable",
      "type": "function"
    },
    {
      "inputs": [],
      "name": "updatePriceFeed",
      "outputs": [],
      "stateMutability": "nonpayable",
      "type": "function"
    },
    {
      "inputs": [],
      "name": "usd",
      "outputs": [
        {
          "internalType": "contract IERC20",
          "name": "",
          "type": "address"
        }
      ],
      "stateMutability": "view",
      "type": "function"
    }
  ],
  "bytecode": "0x6101008060405234620001be576080816200227a8038038091620000248285620001c3565b833981010312620001be578051906001600160a01b03908183168303620001be57602081015191808316808403620001be576040830151928284168403620001be5760600151918083168303620001be57600091825492602060018060a01b03199433868216178355600460405180958193883391167f3d1e4c3a68fed9f4f8315582b7297cf8fa264bc8e6704287603ba8c72bf05ac28880a3633a0df78d60e11b82525afa918215620001b157819262000165575b50501690600254161760025560e05260c05260a05260805260405161207c9081620001fe82396080518181816101020152818161101301526110dc015260a0518181816105960152818161080f01528181610e0c0152610f36015260c05181818161017401528181611208015281816112a801526112ee015260e0518181816107200152610e9e0152f35b9091506020813d8211620001a8575b816200018360209383620001c3565b81010312620001a45751908282168203620001a157503880620000da565b80fd5b5080fd5b3d915062000174565b50604051903d90823e3d90fd5b600080fd5b601f909101601f19168101906001600160401b03821190821017620001e757604052565b634e487b7160e01b600052604160045260246000fdfe604060808152600436101561001357600080fd5b600090813560e01c80630dd919d21461079457806312d43a51146107445780631420f802146106d6578063252408101461068457806334b85e74146105ba5780634219dc401461054c578063735625e81461045f578063741bef1a1461040d5780637bc6729b146103365780639ac2a011146102d0578063a962ef1e14610223578063b9e8922214610198578063d63a6ccd1461012a5763f887ea40146100b957600080fd5b3461012657817ffffffffffffffffffffffffffffffffffffffffffffffffffffffffffffffffc360112610126576020905173ffffffffffffffffffffffffffffffffffffffff7f0000000000000000000000000000000000000000000000000000000000000000168152f35b5080fd5b503461012657817ffffffffffffffffffffffffffffffffffffffffffffffffffffffffffffffffc360112610126576020905173ffffffffffffffffffffffffffffffffffffffff7f0000000000000000000000000000000000000000000000000000000000000000168152f35b82346102205760807ffffffffffffffffffffffffffffffffffffffffffffffffffffffffffffffffc360112610220576101d06108b1565b73ffffffffffffffffffffffffffffffffffffffff6024358181168103610217576044359060ff8216820361021c5760643592831683036102175761021493610a3a565b80f35b600080fd5b8480fd5b80fd5b82346102205760207ffffffffffffffffffffffffffffffffffffffffffffffffffffffffffffffffc3601126102205761025b6108b1565b6102636108d4565b73ffffffffffffffffffffffffffffffffffffffff80911690817fffffffffffffffffffffffff000000000000000000000000000000000000000060015416176001558254167fb9911e2099e372c216862258dc462bb65da46a2c854536c8b1acae619d0d62ed8380a380f35b50346101265760207ffffffffffffffffffffffffffffffffffffffffffffffffffffffffffffffffc3601126101265760ff8160209373ffffffffffffffffffffffffffffffffffffffff6103236108b1565b1681526003855220541690519015158152f35b503461012657817ffffffffffffffffffffffffffffffffffffffffffffffffffffffffffffffffc360112610126576001549073ffffffffffffffffffffffffffffffffffffffff9081831633036103e457507fffffffffffffffffffffffff0000000000000000000000000000000000000000809216600155825491339083161783553391167f3d1e4c3a68fed9f4f8315582b7297cf8fa264bc8e6704287603ba8c72bf05ac28380a380f35b600490517fee90c468000000000000000000000000000000000000000000000000000000008152fd5b503461012657817ffffffffffffffffffffffffffffffffffffffffffffffffffffffffffffffffc3601126101265760209073ffffffffffffffffffffffffffffffffffffffff600254169051908152f35b50346101265760607ffffffffffffffffffffffffffffffffffffffffffffffffffffffffffffffffc360112610126576104976108b1565b9082602435926bffffffffffffffffffffffff8416809403610126576044359073ffffffffffffffffffffffffffffffffffffffff90818316809303610548576104df612007565b1693843b156105445760449083855196879485937f458ff684000000000000000000000000000000000000000000000000000000008552600485015260248401525af190811561053b5750610532575080f35b6102149061091f565b513d84823e3d90fd5b8280fd5b8380fd5b503461012657817ffffffffffffffffffffffffffffffffffffffffffffffffffffffffffffffffc360112610126576020905173ffffffffffffffffffffffffffffffffffffffff7f0000000000000000000000000000000000000000000000000000000000000000168152f35b503461012657807ffffffffffffffffffffffffffffffffffffffffffffffffffffffffffffffffc360112610126576105f16108b1565b906024358015158091036105485773ffffffffffffffffffffffffffffffffffffffff7f9fdbc2d48b8a0db2f62663bf9312ad02f5b1f6414ad600b55a247d09aeec3ea29361063e6108d4565b169081855260036020528285207fffffffffffffffffffffffffffffffffffffffffffffffffffffffffffffff0081541660ff831617905582519182526020820152a180f35b503461012657817ffffffffffffffffffffffffffffffffffffffffffffffffffffffffffffffffc3601126101265760209073ffffffffffffffffffffffffffffffffffffffff600154169051908152f35b503461012657817ffffffffffffffffffffffffffffffffffffffffffffffffffffffffffffffffc360112610126576020905173ffffffffffffffffffffffffffffffffffffffff7f0000000000000000000000000000000000000000000000000000000000000000168152f35b503461012657817ffffffffffffffffffffffffffffffffffffffffffffffffffffffffffffffffc3601126101265773ffffffffffffffffffffffffffffffffffffffff60209254169051908152f35b503461012657817ffffffffffffffffffffffffffffffffffffffffffffffffffffffffffffffffc360112610126576107cb6108d4565b73ffffffffffffffffffffffffffffffffffffffff9080517f741bef1a000000000000000000000000000000000000000000000000000000008152602081600481867f0000000000000000000000000000000000000000000000000000000000000000165afa9182156108a85750839161086e575b50167fffffffffffffffffffffffff0000000000000000000000000000000000000000600254161760025580f35b90506020813d82116108a0575b8161088860209383610962565b81010312610544575181811681036105445738610840565b3d915061087b565b513d85823e3d90fd5b6004359073ffffffffffffffffffffffffffffffffffffffff8216820361021757565b73ffffffffffffffffffffffffffffffffffffffff6000541633036108f557565b60046040517fee90c468000000000000000000000000000000000000000000000000000000008152fd5b67ffffffffffffffff811161093357604052565b7f4e487b7100000000000000000000000000000000000000000000000000000000600052604160045260246000fd5b90601f7fffffffffffffffffffffffffffffffffffffffffffffffffffffffffffffffe0910116810190811067ffffffffffffffff82111761093357604052565b51906fffffffffffffffffffffffffffffffff8216820361021757565b519073ffffffffffffffffffffffffffffffffffffffff8216820361021757565b51908160170b820361021757565b91909160008382019384129112908015821691151617610a0b57565b7f4e487b7100000000000000000000000000000000000000000000000000000000600052601160045260246000fd5b909291610a45612007565b604051937ffc0c546a00000000000000000000000000000000000000000000000000000000855260009460208160048173ffffffffffffffffffffffffffffffffffffffff88165afa908115611a6d578691611a1a575b5060ff8316600103611a1057600160ff60025b160361195c576024602073ffffffffffffffffffffffffffffffffffffffff60025416604051928380927f9fae754100000000000000000000000000000000000000000000000000000000825273ffffffffffffffffffffffffffffffffffffffff871660048301525afa908115611951578791611917575b50905b604051907fcfbf15e100000000000000000000000000000000000000000000000000000000825273ffffffffffffffffffffffffffffffffffffffff8416600483015260ff8516602483015260808260448173ffffffffffffffffffffffffffffffffffffffff8a165afa91821561190c578889938a928b916118a3575b506fffffffffffffffffffffffffffffffff851615801561182d575b61177e5773ffffffffffffffffffffffffffffffffffffffff89163b1561177a576040517fd634b8330000000000000000000000000000000000000000000000000000000081528b816004818373ffffffffffffffffffffffffffffffffffffffff8f165af180156114c957611767575b506040517f7d6717ff00000000000000000000000000000000000000000000000000000000815260808160048173ffffffffffffffffffffffffffffffffffffffff8e165afa80156114c9578c918d91611706575b5060ff8a166001036116fe5750905b7fffffffffffffffff800000000000000000000000000000000000000000000000601782810b9084900b03908112777fffffffffffffffffffffffffffffffffffffffffffffff909113176116d157610d3392916fffffffffffffffffffffffffffffffff9160170b9060170b0360170b8c8112156000146116ab57610d26610d2b9183891690611aa5565b611ccc565b915b166109ef565b9160ff87166001036116055773ffffffffffffffffffffffffffffffffffffffff851673ffffffffffffffffffffffffffffffffffffffff8316116000146115cb57610da973ffffffffffffffffffffffffffffffffffffffff868403166fffffffffffffffffffffffffffffffff8616611c9b565b8a03915b6040517fbc27dd4d00000000000000000000000000000000000000000000000000000000815273ffffffffffffffffffffffffffffffffffffffff8316600482015260c08160248173ffffffffffffffffffffffffffffffffffffffff7f0000000000000000000000000000000000000000000000000000000000000000165afa80156114c9578c918d91611558575b50816040517f1e54b2ee00000000000000000000000000000000000000000000000000000000815273ffffffffffffffffffffffffffffffffffffffff8b16600482015260408160248173ffffffffffffffffffffffffffffffffffffffff7f0000000000000000000000000000000000000000000000000000000000000000165afa90811561154b578f91611515575b506114d4575b505073ffffffffffffffffffffffffffffffffffffffff604051937f1b69dc5f0000000000000000000000000000000000000000000000000000000085521660048401526101208360248173ffffffffffffffffffffffffffffffffffffffff7f0000000000000000000000000000000000000000000000000000000000000000165afa9687156114c9578c938d98611405575b509073ffffffffffffffffffffffffffffffffffffffff918263ffffffff809316911602931691160201906f05f5e100000000000000000000000000610fc0836fffffffffffffffffffffffffffffffff8716611bf9565b926fffffffffffffffffffffffffffffffff8616096113f1575b610fe481846109ef565b8a841390816113e7575b816113d1575b506113885750505073ffffffffffffffffffffffffffffffffffffffff7f0000000000000000000000000000000000000000000000000000000000000000163b15611384576fffffffffffffffffffffffffffffffff604051917fc171f0b000000000000000000000000000000000000000000000000000000000835273ffffffffffffffffffffffffffffffffffffffff8716600484015273ffffffffffffffffffffffffffffffffffffffff8516602484015260ff8616604484015216606482015230608482015286808260a4818373ffffffffffffffffffffffffffffffffffffffff7f0000000000000000000000000000000000000000000000000000000000000000165af19182611370575b50506111b8575073ffffffffffffffffffffffffffffffffffffffff83163b1561021c576040517ff42aef7300000000000000000000000000000000000000000000000000000000815273ffffffffffffffffffffffffffffffffffffffff918216600482015260ff9290921660248301529283166044820152918391839160649183918591165af180156111ad5761119c575050565b6111a6829161091f565b6102205750565b6040513d84823e3d90fd5b909294604094929451907f70a0823100000000000000000000000000000000000000000000000000000000825230600483015260208260248173ffffffffffffffffffffffffffffffffffffffff7f0000000000000000000000000000000000000000000000000000000000000000165afa91821561136357819261132e575b509360409373ffffffffffffffffffffffffffffffffffffffff938493877fa1f0cf66b7d6285adf283971995c40d5e80e547e5bbe45362e32a69c56a8bdc8985067ffffffffffffffff8316821015600014611318575067ffffffffffffffff6112cc918184169003925b1680937f0000000000000000000000000000000000000000000000000000000000000000611d27565b806112e7575b5060ff855197168752602087015216941692a3565b61131290837f0000000000000000000000000000000000000000000000000000000000000000611d27565b386112d2565b915067ffffffffffffffff806112cc92166112a3565b9091506020813d60201161135b575b8161134a60209383610962565b810103126101265751906040611238565b3d915061133d565b50604051903d90823e3d90fd5b6113799061091f565b611384578638611105565b8680fd5b606493508467ffffffffffffffff91604051947fae5327920000000000000000000000000000000000000000000000000000000086526004860152602485015216016044820152fd5b905067ffffffffffffffff861683011038610ff4565b8b81139150610fee565b90600181018111610a0b5760010190610fda565b93509650610120833d610120116114c1575b816114256101209383610962565b810103126114bd5773ffffffffffffffffffffffffffffffffffffffff9061144c84612031565b5061145960208501612020565b5061146660408501612020565b5061147360608501612031565b5061148060808501612020565b5061148d60a08501612020565b6114b361010061149f60c08801612031565b966114ac60e08201612020565b5001612020565b5093979091610f68565b8b80fd5b3d9150611417565b6040513d8e823e3d90fd5b63ffffffff90811692506305f5e10091166114ef8184611b6f565b9209611503575b63ffffffff163880610ed4565b600181018111610a0b576001016114f6565b90506040813d604011611543575b8161153060409383610962565b8101031261153f575138610ece565b8e80fd5b3d9150611523565b8f604051903d90823e3d90fd5b91505060c0813d82116115c3575b8161157360c09383610962565b810103126114bd576115bd60a061158983612020565b9261159660208201612020565b506115a360408201612020565b506115b060608201612020565b506114ac60808201612020565b38610e3d565b3d9150611566565b6115ff73ffffffffffffffffffffffffffffffffffffffff838703166fffffffffffffffffffffffffffffffff8616611aa5565b91610dad565b73ffffffffffffffffffffffffffffffffffffffff851673ffffffffffffffffffffffffffffffffffffffff8316106000146116775761166f73ffffffffffffffffffffffffffffffffffffffff838703166fffffffffffffffffffffffffffffffff8616611c9b565b8a0391610dad565b6115ff73ffffffffffffffffffffffffffffffffffffffff868403166fffffffffffffffffffffffffffffffff8616611aa5565b6116c6610d266116cb926116c1858b1691611a78565b611c9b565b611a78565b91610d2d565b60248c7f4e487b710000000000000000000000000000000000000000000000000000000081526011600452fd5b905090610c9a565b9150506080813d60801161175f575b8161172260809383610962565b810103126114bd57611733816109a3565b50611740602082016109a3565b506117596060611752604084016109e1565b92016109e1565b38610c8b565b3d9150611715565b611773909b919b61091f565b9938610c36565b8a80fd5b50505050505073ffffffffffffffffffffffffffffffffffffffff83163b1561021c576040517ff42aef7300000000000000000000000000000000000000000000000000000000815273ffffffffffffffffffffffffffffffffffffffff918216600482015260ff929092166024830152928316604482015292918291849160649183918591165af190811561182157506118165750565b61181f9061091f565b565b604051903d90823e3d90fd5b5060ff881660010361186f5773ffffffffffffffffffffffffffffffffffffffff831673ffffffffffffffffffffffffffffffffffffffff8716115b15610bc5565b73ffffffffffffffffffffffffffffffffffffffff831673ffffffffffffffffffffffffffffffffffffffff871610611869565b94505050506080823d608011611904575b816118c160809383610962565b81010312611900576118d2826109a3565b6118de602084016109a3565b6118f660606118ef604087016109c0565b95016109e1565b9190939138610ba9565b8780fd5b3d91506118b4565b6040513d8a823e3d90fd5b90506020813d602011611949575b8161193260209383610962565b8101031261138457611943906109c0565b38610b28565b3d9150611925565b6040513d89823e3d90fd5b6024602073ffffffffffffffffffffffffffffffffffffffff60025416604051928380927f77c2fdc200000000000000000000000000000000000000000000000000000000825273ffffffffffffffffffffffffffffffffffffffff871660048301525afa9081156119515787916119d6575b5090610b2b565b90506020813d602011611a08575b816119f160209383610962565b8101031261138457611a02906109c0565b386119cf565b3d91506119e4565b600160ff81610aaf565b90506020813d602011611a65575b81611a3560209383610962565b81010312611a61575173ffffffffffffffffffffffffffffffffffffffff81168103611a615738610a9c565b8580fd5b3d9150611a28565b6040513d88823e3d90fd5b7f80000000000000000000000000000000000000000000000000000000000000008114610a0b5760000390565b7fffffffffffffffffffffffffffffffffffffffffffffffffffffffffffffffff8282099082810292838084109303928084039314611b66576c010000000000000000000000009183831115611b08570990828211900360a01b910360601c1790565b60646040517f08c379a000000000000000000000000000000000000000000000000000000000815260206004820152601560248201527f4d6174683a206d756c446976206f766572666c6f7700000000000000000000006044820152fd5b50505060601c90565b907fffffffffffffffffffffffffffffffffffffffffffffffffffffffffffffffff81830981830291828083109203918083039214611bec576305f5e1009082821115611b08577facbe0e98f503f8881186e60dbb7f727bf36b7213ee9f5a78c767074b22e90e21940990828211900360f81b910360081c170290565b50506305f5e10091500490565b907fffffffffffffffffffffffffffffffffffffffffffffffffffffffffffffffff81830981830291828083109203918083039214611c82576f05f5e1000000000000000000000000009082821115611b08577facbe0e98f503f8881186e60dbb7f727bf36b7213ee9f5a78c767074b22e90e21940990828211900360981b910360681c170290565b50506f05f5e10000000000000000000000000091500490565b906c0100000000000000000000000090611cb58184611aa5565b9209611cbe5790565b60018101809111610a0b5790565b7f7fffffffffffffffffffffffffffffffffffffffffffffffffffffffffffffff8111611cf65790565b602490604051907f24775e060000000000000000000000000000000000000000000000000000000082526004820152fd5b91906040519260208401927fa9059cbb00000000000000000000000000000000000000000000000000000000845273ffffffffffffffffffffffffffffffffffffffff8093166024860152604485015260448452608084019167ffffffffffffffff918584108385111761093357169360c081018381108382111761093357604052601e83527f416464726573733a206c6f772d6c6576656c2063616c6c206661696c6564000060a0820152600080948192519082885af13d15611ed7573d918211611eaa5790611e39929160405191611e2960207fffffffffffffffffffffffffffffffffffffffffffffffffffffffffffffffe0601f8401160184610962565b82523d85602084013e5b85611ee5565b908151918215159283611e82575b505050611e515750565b602490604051907f5274afe70000000000000000000000000000000000000000000000000000000082526004820152fd5b8192935090602091810103126101265760200151908115918215036102205750388080611e47565b6024847f4e487b710000000000000000000000000000000000000000000000000000000081526041600452fd5b611e39929150606090611e33565b91929015611f605750815115611ef9575090565b3b15611f025790565b60646040517f08c379a000000000000000000000000000000000000000000000000000000000815260206004820152601d60248201527f416464726573733a2063616c6c20746f206e6f6e2d636f6e74726163740000006044820152fd5b825190915015611f735750805190602001fd5b604051907f08c379a000000000000000000000000000000000000000000000000000000000825281602080600483015282519283602484015260005b848110611ff0575050507fffffffffffffffffffffffffffffffffffffffffffffffffffffffffffffffe0601f836000604480968601015201168101030190fd5b818101830151868201604401528593508201611faf565b33600052600360205260ff60406000205416156108f557565b519063ffffffff8216820361021757565b519067ffffffffffffffff821682036102175756fea26469706673582212200b3bcf35cd924f1008c25b57e31c68483a9b7f96ee800401795f440c08ae4a0864736f6c63430008150033",
  "linkReferences": {},
  "deployedLinkReferences": {}
}