{
  "_format": "hh-sol-artifact-1",
  "contractName": "EFCGovernor",
  "sourceName": "contracts/governance/EFCGovernor.sol",
  "abi": [
    {
      "inputs": [
        {
          "internalType": "contract IVotes",
          "name": "_token",
          "type": "address"
        },
        {
          "internalType": "contract IEQUGovernor",
          "name": "_EQUGovernor",
          "type": "address"
        },
        {
          "internalType": "contract TimelockController",
          "name": "_timelock",
          "type": "address"
        }
      ],
      "stateMutability": "nonpayable",
      "type": "constructor"
    },
    {
      "inputs": [],
      "name": "EQUProposalNotSucceeded",
      "type": "error"
    },
    {
      "inputs": [],
      "name": "Empty",
      "type": "error"
    },
    {
      "inputs": [],
      "name": "HashProposalNotTheSame",
      "type": "error"
    },
    {
      "inputs": [],
      "name": "InvalidShortString",
      "type": "error"
    },
    {
      "inputs": [
        {
          "internalType": "string",
          "name": "str",
          "type": "string"
        }
      ],
      "name": "StringTooLong",
      "type": "error"
    },
    {
      "anonymous": false,
      "inputs": [],
      "name": "EIP712DomainChanged",
      "type": "event"
    },
    {
      "anonymous": false,
      "inputs": [
        {
          "indexed": false,
          "internalType": "uint256",
          "name": "proposalId",
          "type": "uint256"
        }
      ],
      "name": "ProposalCanceled",
      "type": "event"
    },
    {
      "anonymous": false,
      "inputs": [
        {
          "indexed": false,
          "internalType": "uint256",
          "name": "proposalId",
          "type": "uint256"
        },
        {
          "indexed": false,
          "internalType": "address",
          "name": "proposer",
          "type": "address"
        },
        {
          "indexed": false,
          "internalType": "address[]",
          "name": "targets",
          "type": "address[]"
        },
        {
          "indexed": false,
          "internalType": "uint256[]",
          "name": "values",
          "type": "uint256[]"
        },
        {
          "indexed": false,
          "internalType": "string[]",
          "name": "signatures",
          "type": "string[]"
        },
        {
          "indexed": false,
          "internalType": "bytes[]",
          "name": "calldatas",
          "type": "bytes[]"
        },
        {
          "indexed": false,
          "internalType": "uint256",
          "name": "voteStart",
          "type": "uint256"
        },
        {
          "indexed": false,
          "internalType": "uint256",
          "name": "voteEnd",
          "type": "uint256"
        },
        {
          "indexed": false,
          "internalType": "string",
          "name": "description",
          "type": "string"
        }
      ],
      "name": "ProposalCreated",
      "type": "event"
    },
    {
      "anonymous": false,
      "inputs": [
        {
          "indexed": false,
          "internalType": "uint256",
          "name": "proposalId",
          "type": "uint256"
        }
      ],
      "name": "ProposalExecuted",
      "type": "event"
    },
    {
      "anonymous": false,
      "inputs": [
        {
          "indexed": false,
          "internalType": "uint256",
          "name": "proposalId",
          "type": "uint256"
        },
        {
          "indexed": false,
          "internalType": "uint256",
          "name": "eta",
          "type": "uint256"
        }
      ],
      "name": "ProposalQueued",
      "type": "event"
    },
    {
      "anonymous": false,
      "inputs": [
        {
          "indexed": false,
          "internalType": "uint256",
          "name": "oldProposalThreshold",
          "type": "uint256"
        },
        {
          "indexed": false,
          "internalType": "uint256",
          "name": "newProposalThreshold",
          "type": "uint256"
        }
      ],
      "name": "ProposalThresholdSet",
      "type": "event"
    },
    {
      "anonymous": false,
      "inputs": [
        {
          "indexed": false,
          "internalType": "uint256",
          "name": "oldQuorumNumerator",
          "type": "uint256"
        },
        {
          "indexed": false,
          "internalType": "uint256",
          "name": "newQuorumNumerator",
          "type": "uint256"
        }
      ],
      "name": "QuorumNumeratorUpdated",
      "type": "event"
    },
    {
      "anonymous": false,
      "inputs": [
        {
          "indexed": false,
          "internalType": "address",
          "name": "oldTimelock",
          "type": "address"
        },
        {
          "indexed": false,
          "internalType": "address",
          "name": "newTimelock",
          "type": "address"
        }
      ],
      "name": "TimelockChange",
      "type": "event"
    },
    {
      "anonymous": false,
      "inputs": [
        {
          "indexed": true,
          "internalType": "address",
          "name": "voter",
          "type": "address"
        },
        {
          "indexed": false,
          "internalType": "uint256",
          "name": "proposalId",
          "type": "uint256"
        },
        {
          "indexed": false,
          "internalType": "uint8",
          "name": "support",
          "type": "uint8"
        },
        {
          "indexed": false,
          "internalType": "uint256",
          "name": "weight",
          "type": "uint256"
        },
        {
          "indexed": false,
          "internalType": "string",
          "name": "reason",
          "type": "string"
        }
      ],
      "name": "VoteCast",
      "type": "event"
    },
    {
      "anonymous": false,
      "inputs": [
        {
          "indexed": true,
          "internalType": "address",
          "name": "voter",
          "type": "address"
        },
        {
          "indexed": false,
          "internalType": "uint256",
          "name": "proposalId",
          "type": "uint256"
        },
        {
          "indexed": false,
          "internalType": "uint8",
          "name": "support",
          "type": "uint8"
        },
        {
          "indexed": false,
          "internalType": "uint256",
          "name": "weight",
          "type": "uint256"
        },
        {
          "indexed": false,
          "internalType": "string",
          "name": "reason",
          "type": "string"
        },
        {
          "indexed": false,
          "internalType": "bytes",
          "name": "params",
          "type": "bytes"
        }
      ],
      "name": "VoteCastWithParams",
      "type": "event"
    },
    {
      "anonymous": false,
      "inputs": [
        {
          "indexed": false,
          "internalType": "uint256",
          "name": "oldVotingDelay",
          "type": "uint256"
        },
        {
          "indexed": false,
          "internalType": "uint256",
          "name": "newVotingDelay",
          "type": "uint256"
        }
      ],
      "name": "VotingDelaySet",
      "type": "event"
    },
    {
      "anonymous": false,
      "inputs": [
        {
          "indexed": false,
          "internalType": "uint256",
          "name": "oldVotingPeriod",
          "type": "uint256"
        },
        {
          "indexed": false,
          "internalType": "uint256",
          "name": "newVotingPeriod",
          "type": "uint256"
        }
      ],
      "name": "VotingPeriodSet",
      "type": "event"
    },
    {
      "inputs": [],
      "name": "BALLOT_TYPEHASH",
      "outputs": [
        {
          "internalType": "bytes32",
          "name": "",
          "type": "bytes32"
        }
      ],
      "stateMutability": "view",
      "type": "function"
    },
    {
      "inputs": [],
      "name": "CLOCK_MODE",
      "outputs": [
        {
          "internalType": "string",
          "name": "",
          "type": "string"
        }
      ],
      "stateMutability": "view",
      "type": "function"
    },
    {
      "inputs": [],
      "name": "COUNTING_MODE",
      "outputs": [
        {
          "internalType": "string",
          "name": "",
          "type": "string"
        }
      ],
      "stateMutability": "pure",
      "type": "function"
    },
    {
      "inputs": [],
      "name": "EQUGovernor",
      "outputs": [
        {
          "internalType": "contract IEQUGovernor",
          "name": "",
          "type": "address"
        }
      ],
      "stateMutability": "view",
      "type": "function"
    },
    {
      "inputs": [],
      "name": "EXTENDED_BALLOT_TYPEHASH",
      "outputs": [
        {
          "internalType": "bytes32",
          "name": "",
          "type": "bytes32"
        }
      ],
      "stateMutability": "view",
      "type": "function"
    },
    {
      "inputs": [
        {
          "internalType": "address[]",
          "name": "targets",
          "type": "address[]"
        },
        {
          "internalType": "uint256[]",
          "name": "values",
          "type": "uint256[]"
        },
        {
          "internalType": "bytes[]",
          "name": "calldatas",
          "type": "bytes[]"
        },
        {
          "internalType": "bytes32",
          "name": "descriptionHash",
          "type": "bytes32"
        }
      ],
      "name": "cancel",
      "outputs": [
        {
          "internalType": "uint256",
          "name": "",
          "type": "uint256"
        }
      ],
      "stateMutability": "nonpayable",
      "type": "function"
    },
    {
      "inputs": [
        {
          "internalType": "uint256",
          "name": "proposalId",
          "type": "uint256"
        },
        {
          "internalType": "uint8",
          "name": "support",
          "type": "uint8"
        }
      ],
      "name": "castVote",
      "outputs": [
        {
          "internalType": "uint256",
          "name": "",
          "type": "uint256"
        }
      ],
      "stateMutability": "nonpayable",
      "type": "function"
    },
    {
      "inputs": [
        {
          "internalType": "uint256",
          "name": "proposalId",
          "type": "uint256"
        },
        {
          "internalType": "uint8",
          "name": "support",
          "type": "uint8"
        },
        {
          "internalType": "uint8",
          "name": "v",
          "type": "uint8"
        },
        {
          "internalType": "bytes32",
          "name": "r",
          "type": "bytes32"
        },
        {
          "internalType": "bytes32",
          "name": "s",
          "type": "bytes32"
        }
      ],
      "name": "castVoteBySig",
      "outputs": [
        {
          "internalType": "uint256",
          "name": "",
          "type": "uint256"
        }
      ],
      "stateMutability": "nonpayable",
      "type": "function"
    },
    {
      "inputs": [
        {
          "internalType": "uint256",
          "name": "proposalId",
          "type": "uint256"
        },
        {
          "internalType": "uint8",
          "name": "support",
          "type": "uint8"
        },
        {
          "internalType": "string",
          "name": "reason",
          "type": "string"
        }
      ],
      "name": "castVoteWithReason",
      "outputs": [
        {
          "internalType": "uint256",
          "name": "",
          "type": "uint256"
        }
      ],
      "stateMutability": "nonpayable",
      "type": "function"
    },
    {
      "inputs": [
        {
          "internalType": "uint256",
          "name": "proposalId",
          "type": "uint256"
        },
        {
          "internalType": "uint8",
          "name": "support",
          "type": "uint8"
        },
        {
          "internalType": "string",
          "name": "reason",
          "type": "string"
        },
        {
          "internalType": "bytes",
          "name": "params",
          "type": "bytes"
        }
      ],
      "name": "castVoteWithReasonAndParams",
      "outputs": [
        {
          "internalType": "uint256",
          "name": "",
          "type": "uint256"
        }
      ],
      "stateMutability": "nonpayable",
      "type": "function"
    },
    {
      "inputs": [
        {
          "internalType": "uint256",
          "name": "proposalId",
          "type": "uint256"
        },
        {
          "internalType": "uint8",
          "name": "support",
          "type": "uint8"
        },
        {
          "internalType": "string",
          "name": "reason",
          "type": "string"
        },
        {
          "internalType": "bytes",
          "name": "params",
          "type": "bytes"
        },
        {
          "internalType": "uint8",
          "name": "v",
          "type": "uint8"
        },
        {
          "internalType": "bytes32",
          "name": "r",
          "type": "bytes32"
        },
        {
          "internalType": "bytes32",
          "name": "s",
          "type": "bytes32"
        }
      ],
      "name": "castVoteWithReasonAndParamsBySig",
      "outputs": [
        {
          "internalType": "uint256",
          "name": "",
          "type": "uint256"
        }
      ],
      "stateMutability": "nonpayable",
      "type": "function"
    },
    {
      "inputs": [],
      "name": "clock",
      "outputs": [
        {
          "internalType": "uint48",
          "name": "",
          "type": "uint48"
        }
      ],
      "stateMutability": "view",
      "type": "function"
    },
    {
      "inputs": [],
      "name": "eip712Domain",
      "outputs": [
        {
          "internalType": "bytes1",
          "name": "fields",
          "type": "bytes1"
        },
        {
          "internalType": "string",
          "name": "name",
          "type": "string"
        },
        {
          "internalType": "string",
          "name": "version",
          "type": "string"
        },
        {
          "internalType": "uint256",
          "name": "chainId",
          "type": "uint256"
        },
        {
          "internalType": "address",
          "name": "verifyingContract",
          "type": "address"
        },
        {
          "internalType": "bytes32",
          "name": "salt",
          "type": "bytes32"
        },
        {
          "internalType": "uint256[]",
          "name": "extensions",
          "type": "uint256[]"
        }
      ],
      "stateMutability": "view",
      "type": "function"
    },
    {
      "inputs": [
        {
          "internalType": "address[]",
          "name": "targets",
          "type": "address[]"
        },
        {
          "internalType": "uint256[]",
          "name": "values",
          "type": "uint256[]"
        },
        {
          "internalType": "bytes[]",
          "name": "calldatas",
          "type": "bytes[]"
        },
        {
          "internalType": "bytes32",
          "name": "descriptionHash",
          "type": "bytes32"
        }
      ],
      "name": "execute",
      "outputs": [
        {
          "internalType": "uint256",
          "name": "",
          "type": "uint256"
        }
      ],
      "stateMutability": "payable",
      "type": "function"
    },
    {
      "inputs": [],
      "name": "executor",
      "outputs": [
        {
          "internalType": "address",
          "name": "",
          "type": "address"
        }
      ],
      "stateMutability": "view",
      "type": "function"
    },
    {
      "inputs": [
        {
          "internalType": "address",
          "name": "account",
          "type": "address"
        },
        {
          "internalType": "uint256",
          "name": "timepoint",
          "type": "uint256"
        }
      ],
      "name": "getVotes",
      "outputs": [
        {
          "internalType": "uint256",
          "name": "",
          "type": "uint256"
        }
      ],
      "stateMutability": "view",
      "type": "function"
    },
    {
      "inputs": [
        {
          "internalType": "address",
          "name": "account",
          "type": "address"
        },
        {
          "internalType": "uint256",
          "name": "timepoint",
          "type": "uint256"
        },
        {
          "internalType": "bytes",
          "name": "params",
          "type": "bytes"
        }
      ],
      "name": "getVotesWithParams",
      "outputs": [
        {
          "internalType": "uint256",
          "name": "",
          "type": "uint256"
        }
      ],
      "stateMutability": "view",
      "type": "function"
    },
    {
      "inputs": [
        {
          "internalType": "uint256",
          "name": "proposalId",
          "type": "uint256"
        },
        {
          "internalType": "address",
          "name": "account",
          "type": "address"
        }
      ],
      "name": "hasVoted",
      "outputs": [
        {
          "internalType": "bool",
          "name": "",
          "type": "bool"
        }
      ],
      "stateMutability": "view",
      "type": "function"
    },
    {
      "inputs": [
        {
          "internalType": "address[]",
          "name": "targets",
          "type": "address[]"
        },
        {
          "internalType": "uint256[]",
          "name": "values",
          "type": "uint256[]"
        },
        {
          "internalType": "bytes[]",
          "name": "calldatas",
          "type": "bytes[]"
        },
        {
          "internalType": "bytes32",
          "name": "descriptionHash",
          "type": "bytes32"
        }
      ],
      "name": "hashProposal",
      "outputs": [
        {
          "internalType": "uint256",
          "name": "",
          "type": "uint256"
        }
      ],
      "stateMutability": "pure",
      "type": "function"
    },
    {
      "inputs": [],
      "name": "name",
      "outputs": [
        {
          "internalType": "string",
          "name": "",
          "type": "string"
        }
      ],
      "stateMutability": "view",
      "type": "function"
    },
    {
      "inputs": [
        {
          "internalType": "address",
          "name": "",
          "type": "address"
        },
        {
          "internalType": "address",
          "name": "",
          "type": "address"
        },
        {
          "internalType": "uint256[]",
          "name": "",
          "type": "uint256[]"
        },
        {
          "internalType": "uint256[]",
          "name": "",
          "type": "uint256[]"
        },
        {
          "internalType": "bytes",
          "name": "",
          "type": "bytes"
        }
      ],
      "name": "onERC1155BatchReceived",
      "outputs": [
        {
          "internalType": "bytes4",
          "name": "",
          "type": "bytes4"
        }
      ],
      "stateMutability": "nonpayable",
      "type": "function"
    },
    {
      "inputs": [
        {
          "internalType": "address",
          "name": "",
          "type": "address"
        },
        {
          "internalType": "address",
          "name": "",
          "type": "address"
        },
        {
          "internalType": "uint256",
          "name": "",
          "type": "uint256"
        },
        {
          "internalType": "uint256",
          "name": "",
          "type": "uint256"
        },
        {
          "internalType": "bytes",
          "name": "",
          "type": "bytes"
        }
      ],
      "name": "onERC1155Received",
      "outputs": [
        {
          "internalType": "bytes4",
          "name": "",
          "type": "bytes4"
        }
      ],
      "stateMutability": "nonpayable",
      "type": "function"
    },
    {
      "inputs": [
        {
          "internalType": "address",
          "name": "",
          "type": "address"
        },
        {
          "internalType": "address",
          "name": "",
          "type": "address"
        },
        {
          "internalType": "uint256",
          "name": "",
          "type": "uint256"
        },
        {
          "internalType": "bytes",
          "name": "",
          "type": "bytes"
        }
      ],
      "name": "onERC721Received",
      "outputs": [
        {
          "internalType": "bytes4",
          "name": "",
          "type": "bytes4"
        }
      ],
      "stateMutability": "nonpayable",
      "type": "function"
    },
    {
      "inputs": [
        {
          "internalType": "uint256",
          "name": "proposalId",
          "type": "uint256"
        }
      ],
      "name": "proposalDeadline",
      "outputs": [
        {
          "internalType": "uint256",
          "name": "",
          "type": "uint256"
        }
      ],
      "stateMutability": "view",
      "type": "function"
    },
    {
      "inputs": [
        {
          "internalType": "uint256",
          "name": "proposalId",
          "type": "uint256"
        }
      ],
      "name": "proposalEta",
      "outputs": [
        {
          "internalType": "uint256",
          "name": "",
          "type": "uint256"
        }
      ],
      "stateMutability": "view",
      "type": "function"
    },
    {
      "inputs": [
        {
          "internalType": "uint256",
          "name": "proposalId",
          "type": "uint256"
        }
      ],
      "name": "proposalProposer",
      "outputs": [
        {
          "internalType": "address",
          "name": "",
          "type": "address"
        }
      ],
      "stateMutability": "view",
      "type": "function"
    },
    {
      "inputs": [
        {
          "internalType": "uint256",
          "name": "proposalId",
          "type": "uint256"
        }
      ],
      "name": "proposalSnapshot",
      "outputs": [
        {
          "internalType": "uint256",
          "name": "",
          "type": "uint256"
        }
      ],
      "stateMutability": "view",
      "type": "function"
    },
    {
      "inputs": [],
      "name": "proposalThreshold",
      "outputs": [
        {
          "internalType": "uint256",
          "name": "",
          "type": "uint256"
        }
      ],
      "stateMutability": "view",
      "type": "function"
    },
    {
      "inputs": [
        {
          "internalType": "uint256",
          "name": "proposalId",
          "type": "uint256"
        }
      ],
      "name": "proposalVotes",
      "outputs": [
        {
          "internalType": "uint256",
          "name": "againstVotes",
          "type": "uint256"
        },
        {
          "internalType": "uint256",
          "name": "forVotes",
          "type": "uint256"
        },
        {
          "internalType": "uint256",
          "name": "abstainVotes",
          "type": "uint256"
        }
      ],
      "stateMutability": "view",
      "type": "function"
    },
    {
      "inputs": [
        {
          "internalType": "address[]",
          "name": "targets",
          "type": "address[]"
        },
        {
          "internalType": "uint256[]",
          "name": "values",
          "type": "uint256[]"
        },
        {
          "internalType": "bytes[]",
          "name": "calldatas",
          "type": "bytes[]"
        },
        {
          "internalType": "string",
          "name": "description",
          "type": "string"
        }
      ],
      "name": "propose",
      "outputs": [
        {
          "internalType": "uint256",
          "name": "",
          "type": "uint256"
        }
      ],
      "stateMutability": "nonpayable",
      "type": "function"
    },
    {
      "inputs": [
        {
          "internalType": "address[]",
          "name": "targets",
          "type": "address[]"
        },
        {
          "internalType": "uint256[]",
          "name": "values",
          "type": "uint256[]"
        },
        {
          "internalType": "bytes[]",
          "name": "calldatas",
          "type": "bytes[]"
        },
        {
          "internalType": "bytes32",
          "name": "descriptionHash",
          "type": "bytes32"
        }
      ],
      "name": "queue",
      "outputs": [
        {
          "internalType": "uint256",
          "name": "",
          "type": "uint256"
        }
      ],
      "stateMutability": "nonpayable",
      "type": "function"
    },
    {
      "inputs": [
        {
          "internalType": "uint256",
          "name": "blockNumber",
          "type": "uint256"
        }
      ],
      "name": "quorum",
      "outputs": [
        {
          "internalType": "uint256",
          "name": "",
          "type": "uint256"
        }
      ],
      "stateMutability": "view",
      "type": "function"
    },
    {
      "inputs": [],
      "name": "quorumDenominator",
      "outputs": [
        {
          "internalType": "uint256",
          "name": "",
          "type": "uint256"
        }
      ],
      "stateMutability": "view",
      "type": "function"
    },
    {
      "inputs": [
        {
          "internalType": "uint256",
          "name": "timepoint",
          "type": "uint256"
        }
      ],
      "name": "quorumNumerator",
      "outputs": [
        {
          "internalType": "uint256",
          "name": "",
          "type": "uint256"
        }
      ],
      "stateMutability": "view",
      "type": "function"
    },
    {
      "inputs": [],
      "name": "quorumNumerator",
      "outputs": [
        {
          "internalType": "uint256",
          "name": "",
          "type": "uint256"
        }
      ],
      "stateMutability": "view",
      "type": "function"
    },
    {
      "inputs": [
        {
          "internalType": "address",
          "name": "target",
          "type": "address"
        },
        {
          "internalType": "uint256",
          "name": "value",
          "type": "uint256"
        },
        {
          "internalType": "bytes",
          "name": "data",
          "type": "bytes"
        }
      ],
      "name": "relay",
      "outputs": [],
      "stateMutability": "payable",
      "type": "function"
    },
    {
      "inputs": [
        {
          "internalType": "address[]",
          "name": "targets",
          "type": "address[]"
        },
        {
          "internalType": "uint256[]",
          "name": "values",
          "type": "uint256[]"
        },
        {
          "internalType": "bytes[]",
          "name": "calldatas",
          "type": "bytes[]"
        },
        {
          "internalType": "string",
          "name": "description",
          "type": "string"
        }
      ],
      "name": "routinePropose",
      "outputs": [
        {
          "internalType": "uint256",
          "name": "",
          "type": "uint256"
        }
      ],
      "stateMutability": "nonpayable",
      "type": "function"
    },
    {
      "inputs": [
        {
          "internalType": "uint256",
          "name": "newProposalThreshold",
          "type": "uint256"
        }
      ],
      "name": "setProposalThreshold",
      "outputs": [],
      "stateMutability": "nonpayable",
      "type": "function"
    },
    {
      "inputs": [
        {
          "internalType": "uint256",
          "name": "newVotingDelay",
          "type": "uint256"
        }
      ],
      "name": "setVotingDelay",
      "outputs": [],
      "stateMutability": "nonpayable",
      "type": "function"
    },
    {
      "inputs": [
        {
          "internalType": "uint256",
          "name": "newVotingPeriod",
          "type": "uint256"
        }
      ],
      "name": "setVotingPeriod",
      "outputs": [],
      "stateMutability": "nonpayable",
      "type": "function"
    },
    {
      "inputs": [
        {
          "internalType": "uint256",
          "name": "proposalId",
          "type": "uint256"
        }
      ],
      "name": "state",
      "outputs": [
        {
          "internalType": "enum IGovernor.ProposalState",
          "name": "",
          "type": "uint8"
        }
      ],
      "stateMutability": "view",
      "type": "function"
    },
    {
      "inputs": [
        {
          "internalType": "bytes4",
          "name": "interfaceId",
          "type": "bytes4"
        }
      ],
      "name": "supportsInterface",
      "outputs": [
        {
          "internalType": "bool",
          "name": "",
          "type": "bool"
        }
      ],
      "stateMutability": "view",
      "type": "function"
    },
    {
      "inputs": [],
      "name": "timelock",
      "outputs": [
        {
          "internalType": "address",
          "name": "",
          "type": "address"
        }
      ],
      "stateMutability": "view",
      "type": "function"
    },
    {
      "inputs": [],
      "name": "token",
      "outputs": [
        {
          "internalType": "contract IERC5805",
          "name": "",
          "type": "address"
        }
      ],
      "stateMutability": "view",
      "type": "function"
    },
    {
      "inputs": [
        {
          "internalType": "uint256",
          "name": "newQuorumNumerator",
          "type": "uint256"
        }
      ],
      "name": "updateQuorumNumerator",
      "outputs": [],
      "stateMutability": "nonpayable",
      "type": "function"
    },
    {
      "inputs": [
        {
          "internalType": "contract TimelockController",
          "name": "newTimelock",
          "type": "address"
        }
      ],
      "name": "updateTimelock",
      "outputs": [],
      "stateMutability": "nonpayable",
      "type": "function"
    },
    {
      "inputs": [],
      "name": "version",
      "outputs": [
        {
          "internalType": "string",
          "name": "",
          "type": "string"
        }
      ],
      "stateMutability": "view",
      "type": "function"
    },
    {
      "inputs": [],
      "name": "votingDelay",
      "outputs": [
        {
          "internalType": "uint256",
          "name": "",
          "type": "uint256"
        }
      ],
      "stateMutability": "view",
      "type": "function"
    },
    {
      "inputs": [],
      "name": "votingPeriod",
      "outputs": [
        {
          "internalType": "uint256",
          "name": "",
          "type": "uint256"
        }
      ],
      "stateMutability": "view",
      "type": "function"
    },
    {
      "stateMutability": "payable",
      "type": "receive"
    }
  ],
  "bytecode": "0x6101a060405234620000fd5762000020620000196200019d565b9162000224565b604051615c74908162000e67823960805181613d3c015260a05181613df1015260c05181613d0d015260e05181613d8b01526101005181613db101526101205181611b6001526101405181611b8c015261016051818181611d640152818161262a015281816128900152818161295f01528181612c6d0152818161326d01528181613366015281816134780152615379015261018051818181610f4b015281816110e3015281816114fe015281816115af01528181611a400152818161241f01528181615024015281816154720152818161573a01526159e90152f35b600080fd5b634e487b7160e01b600052604160045260246000fd5b604081019081106001600160401b038211176200013457604052565b62000102565b60c081019081106001600160401b038211176200013457604052565b601f909101601f19168101906001600160401b038211908210176200013457604052565b60405190620001898262000118565b565b6001600160a01b03811603620000fd57565b62006afb9060608238039283604051948592620001bb828562000156565b833981010312620000fd57815190620001d4826200018b565b6040602084015193620001e7856200018b565b015191620001f5836200018b565b929190565b60405190620002098262000118565b600b8252565b604051906200021e8262000118565b60018252565b91620003349192620002f962000239620001fa565b602081016a22a321a3b7bb32b93737b960a91b8152620002586200020f565b906020820190603160f81b8252620002708462000a9b565b610120526200027f8362000ba4565b6101405283519020918260e05251902080610100524660a0526040519060208201927f8b73c3c69bb8fe3d512ecc4cf759cc79239f7b179b0ffacaa9a75d522b39400f8452604083015260608201524660808201523060a082015260a08152620002e9816200013a565b5190206080523060c05262000484565b620003036200057f565b6200030d620005b9565b62000317620005f5565b6001600160a01b0316610160526200032e620006ec565b62000639565b61018052565b90600182811c921680156200036c575b60208310146200035657565b634e487b7160e01b600052602260045260246000fd5b91607f16916200034a565b601f811162000384575050565b6000906002825260208220906020601f850160051c83019410620003c5575b601f0160051c01915b828110620003b957505050565b818155600101620003ac565b9092508290620003a3565b601f8111620003dd575050565b60009081805260208220906020601f850160051c830194106200041d575b601f0160051c01915b8281106200041157505050565b81815560010162000404565b9092508290620003fb565b90601f821162000436575050565b60019160009083825260208220906020601f850160051c8301941062000479575b601f0160051c01915b8281106200046e5750505050565b818155830162000460565b909250829062000457565b80519091906001600160401b0381116200013457620004b081620004aa6002546200033a565b62000377565b602080601f8311600114620004f757508190620004e69394600092620004eb575b50508160011b916000199060031b1c19161790565b600255565b015190503880620004d1565b6002600052601f198316949091907f405787fa12a823e0f2b7631cc41b3ba8828b3321ca811111fa75cd3aa3bb5ace926000905b878210620005665750508360019596106200054c575b505050811b01600255565b015160001960f88460031b161c1916905538808062000541565b806001859682949686015181550195019301906200052b565b7fc565b045403dc03c2eea82b81a0465edad9e2e7fc4d97e11421c209da93d7a936040600654815190815260016020820152a16001600655565b6007546040519081527f7e3f7f0708a84de9203036abaa450dccc85ad5ff52f78c170f3edb55cf5e8828604061c4e092836020820152a1600755565b6008546040519081527fccb45da8d5717e6c4544694297c4ba5cf151d455c9bb0ed4fc7a38411bc05461604069021e19e0c9bab240000092836020820152a1600855565b600c547f08f74ea46ef7894f65eabfb5e6e695de773a000b47c529ab559178069b226401604060018060a01b038094169381519084168152846020820152a16001600160a01b03191617600c55565b600b546801000000000000000081101562000134576001810180600b55811015620006d657600b6000526020600020019063ffffffff81511690602063ffffffff1991015160201b16179055565b634e487b7160e01b600052603260045260246000fd5b600b548015906000908215620007bd5750506200077060008051602062006adb83398151915291600a54905b8115159081620007b4575b5062000775575b62000757620007516200074b6200074062000827565b65ffffffffffff1690565b62000e00565b62000965565b5050604080519182526005602083015290918291820190565b0390a1565b620007ae620007848262000d2e565b620007a8620007926200017a565b600081526001600160e01b039092166020830152565b62000688565b6200072a565b90503862000723565b6000199181838101116200081357600b9052017f0175b7a638427703f0dbe7bb9bbf987a2551717b34e79f33b5b1008d1fa01db9015460008051602062006adb83398151915291620007709160201c9062000718565b634e487b7160e01b81526011600452602490fd5b610160516040516324776b7d60e21b815290602090829060049082906001600160a01b03165afa80916000916200086f575b50906200086c57506200086c4362000d98565b90565b6020813d8211620008b4575b816200088a6020938362000156565b81010312620008b057519065ffffffffffff82168203620008ad57503862000859565b80fd5b5080fd5b3d91506200087b565b600019810191908211620008cd57565b634e487b7160e01b600052601160045260246000fd5b604080519192919081016001600160401b038111828210176200013457604052602081935463ffffffff81168352811c910152565b156200092057565b60405162461bcd60e51b815260206004820152601b60248201527f436865636b706f696e743a2064656372656173696e67206b65797300000000006044820152606490fd5b600b54801562000a725762000a3a9181620009ba620009b46200098a602095620008bd565b600b6000527f0175b7a638427703f0dbe7bb9bbf987a2551717b34e79f33b5b1008d1fa01db90190565b620008e3565b91620009ca835163ffffffff1690565b620009e363ffffffff9182841692839116111562000918565b620009ff620009f6855163ffffffff1690565b63ffffffff1690565b0362000a40575062000a196200098a62000a2c92620008bd565b64050000000063ffffffff825416179055565b01516001600160e01b031690565b90600590565b62000a6c915062000a6062000a546200017a565b63ffffffff9092168252565b60058185015262000688565b62000a2c565b5062000a939062000a8662000a546200017a565b6005602082015262000688565b600090600590565b90815160209081811060001462000aba575050906200086c9062000cb1565b6001600160401b038111620001345760009162000ae38262000add85546200033a565b620003d0565b80601f831160011462000b1d5750819083949562000b169492620004eb5750508160011b916000199060031b1c19161790565b905560ff90565b60008052601f198316957f290decd9548b62a8d60345a988386fc84ba6bc95484008f6362f93160ef3e563929185905b88821062000b8b5750508360019596971062000b71575b505050811b01905560ff90565b015160001960f88460031b161c1916905538808062000b64565b8060018596829496860151815501950193019062000b4d565b90815160209081811060001462000bc3575050906200086c9062000cb1565b6001600160401b038111620001345760019162000bec8262000be685546200033a565b62000428565b80601f831160011462000c205750819062000b16939495600092620004eb5750508160011b916000199060031b1c19161790565b6001600052601f198316959091907fb10e2d527612073b26eecdfd717e6a320cf44b4afac2b0732d9fcbe2b7fa0cf6926000905b88821062000c75575050838596971062000b7157505050811b01905560ff90565b80878596829496860151815501950193019062000c54565b60208151910151906020811062000ca2575090565b6000199060200360031b1b1690565b601f81511162000ccc5762000cc68162000c8d565b90511790565b6040519063305a27a960e01b82528160208060048301528251908160248401526000935b82851062000d14575050604492506000838284010152601f80199101168101030190fd5b848101820151868601604401529381019385935062000cf0565b6001600160e01b039081811162000d43571690565b60405162461bcd60e51b815260206004820152602760248201527f53616665436173743a2076616c756520646f65736e27742066697420696e20326044820152663234206269747360c81b6064820152608490fd5b65ffffffffffff9081811162000dac571690565b60405162461bcd60e51b815260206004820152602660248201527f53616665436173743a2076616c756520646f65736e27742066697420696e203460448201526538206269747360d01b6064820152608490fd5b63ffffffff9081811162000e12571690565b60405162461bcd60e51b815260206004820152602660248201527f53616665436173743a2076616c756520646f65736e27742066697420696e203360448201526532206269747360d01b6064820152608490fdfe60806040526004361015610023575b361561001957600080fd5b610021612983565b005b60003560e01c806301ffc9a71461032e57806302a251a314610329578063034201811461032457806306f3f9e61461031f57806306fdde031461031a578063143489d014610315578063150b7a0214610310578063160cbed71461030b5780632656227d146103065780632d63f693146103015780632fe3e261146102fc5780633932abb1146102f75780633bccf4fd146102f25780633e4f49e6146102ed57806343859632146102e8578063452115d6146102e35780634bf5d7e9146102de578063544ffc9c146102d957806354fd4d50146102d457806356781388146102cf5780635f398a14146102ca57806360c4247f146102c557806370b0f660146102c05780637b3c71d3146102bb5780637d5e81e2146102b657806384b0196e146102b157806391ddadf4146102ac57806397c3d334146102a75780639a802a6d146102a2578063a7713a701461029d578063a890c91014610298578063ab58fb8e14610293578063b58131b01461028e578063bc197c8114610289578063c01f9e3714610284578063c28bc2fa1461027f578063c34c08e514610275578063c59057e41461027a578063d33219b414610275578063dd4e2ba514610270578063deaaa7cc1461026b578063e197337f14610266578063ea0217cf14610261578063eb9019d41461025c578063ece40cc114610257578063f23a6e6114610252578063f80276421461024d578063f8ce560a146102485763fc0c546a0361000e57612914565b612814565b6127ba565b61272a565b61266e565b612589565b612443565b6123d4565b61237b565b6122ff565b612291565b6122e3565b612131565b6120da565b612016565b611fdd565b611eef565b611e00565b611dc7565b611cb0565b611c76565b611c2d565b611b29565b611a0d565b6118f6565b61183a565b6117fe565b611770565b611702565b611686565b611625565b6115d7565b611458565b6113d3565b611386565b611282565b611246565b6111ed565b611199565b610fd8565b610e8e565b610c1f565b610b9e565b610a87565b610809565b610762565b6104d0565b346104c05760207ffffffffffffffffffffffffffffffffffffffffffffffffffffffffffffffffc3601126104c0576004357fffffffff0000000000000000000000000000000000000000000000000000000081168091036104c057807f6e665ced000000000000000000000000000000000000000000000000000000006103cc92149081156103d0575b5060405190151581529081906020820190565b0390f35b7fbf26d89700000000000000000000000000000000000000000000000000000000811491508115610496575b811561046c575b8115610442575b8115610418575b50386103b9565b7f01ffc9a70000000000000000000000000000000000000000000000000000000091501438610411565b7f4e2312e0000000000000000000000000000000000000000000000000000000008114915061040a565b7f51159c060000000000000000000000000000000000000000000000000000000081149150610403565b7f79dd796f00000000000000000000000000000000000000000000000000000000811491506103fc565b600080fd5b60009103126104c057565b346104c05760007ffffffffffffffffffffffffffffffffffffffffffffffffffffffffffffffffc3601126104c0576020600754604051908152f35b6024359060ff821682036104c057565b6044359060ff821682036104c057565b9181601f840112156104c05782359167ffffffffffffffff83116104c057602083818601950101116104c057565b7f4e487b7100000000000000000000000000000000000000000000000000000000600052604160045260246000fd5b67ffffffffffffffff811161059d57604052565b61055a565b6040810190811067ffffffffffffffff82111761059d57604052565b6080810190811067ffffffffffffffff82111761059d57604052565b6020810190811067ffffffffffffffff82111761059d57604052565b6060810190811067ffffffffffffffff82111761059d57604052565b60c0810190811067ffffffffffffffff82111761059d57604052565b90601f7fffffffffffffffffffffffffffffffffffffffffffffffffffffffffffffffe0910116810190811067ffffffffffffffff82111761059d57604052565b6040519061067c826105a2565b565b6040519060e0820182811067ffffffffffffffff82111761059d57604052565b67ffffffffffffffff811161059d57601f017fffffffffffffffffffffffffffffffffffffffffffffffffffffffffffffffe01660200190565b9190916106e48161069e565b6106f1604051918261062e565b809382825282116104c057818160009384602080950137010152565b9291926107198261069e565b91610727604051938461062e565b8294818452818301116104c0578281602093846000960137010152565b9080601f830112156104c05781602061075f9335910161070d565b90565b346104c05760e07ffffffffffffffffffffffffffffffffffffffffffffffffffffffffffffffffc3601126104c05761079961050c565b67ffffffffffffffff6044358181116104c0576107ba90369060040161052c565b916064359081116104c0576107d3903690600401610744565b9260843560ff811681036104c0576103cc946107f99460c4359460a43594600435612cb9565b6040519081529081906020820190565b346104c05760207ffffffffffffffffffffffffffffffffffffffffffffffffffffffffffffffffc3601126104c05760043573ffffffffffffffffffffffffffffffffffffffff600c541661085f813314612f5c565b30036109ea575b60648111610940577f0553476bf02ef2726e8ce5ced78d63e26e602e4a2257b1f559418e24b4633997906108986134ac565b80151580610936575b6108ea575b6108d66108c76108c26108b761322a565b65ffffffffffff1690565b6142d1565b6108d08461418d565b90613930565b5050604080519182526020820192909252a1005b6109316108f68261418d565b61092c61090161066f565b600081527bffffffffffffffffffffffffffffffffffffffffffffffffffffffff9092166020830152565b6137ea565b6108a6565b50600b54156108a1565b60a46040517f08c379a000000000000000000000000000000000000000000000000000000000815260206004820152604360248201527f476f7665726e6f72566f74657351756f72756d4672616374696f6e3a2071756f60448201527f72756d4e756d657261746f72206f7665722071756f72756d44656e6f6d696e6160648201527f746f7200000000000000000000000000000000000000000000000000000000006084820152fd5b6109f436366106d8565b602081519101205b80610a05614366565b036109fc5750610866565b60005b838110610a235750506000910152565b8181015183820152602001610a13565b907fffffffffffffffffffffffffffffffffffffffffffffffffffffffffffffffe0601f602093610a6f81518092818752878088019101610a10565b0116010190565b90602061075f928181520190610a33565b346104c0576000807ffffffffffffffffffffffffffffffffffffffffffffffffffffffffffffffffc360112610b9b5760405181600254610ac781612a02565b908184526020926001918281169081600014610b5b5750600114610b02575b6103cc85610af68189038261062e565b60405191829182610a76565b929450600283527f405787fa12a823e0f2b7631cc41b3ba8828b3321ca811111fa75cd3aa3bb5ace5b828410610b4857505050816103cc93610af6928201019338610ae6565b8054858501870152928501928101610b2b565b7fffffffffffffffffffffffffffffffffffffffffffffffffffffffffffffff001686860152505050151560051b8201019150610af6816103cc38610ae6565b80fd5b346104c05760207ffffffffffffffffffffffffffffffffffffffffffffffffffffffffffffffffc3601126104c0576004356000526003602052602073ffffffffffffffffffffffffffffffffffffffff60406000205460401c16604051908152f35b73ffffffffffffffffffffffffffffffffffffffff8116036104c057565b346104c05760807ffffffffffffffffffffffffffffffffffffffffffffffffffffffffffffffffc3601126104c057610c59600435610c01565b610c64602435610c01565b60643567ffffffffffffffff81116104c057610c84903690600401610744565b5060206040517f150b7a02000000000000000000000000000000000000000000000000000000008152f35b67ffffffffffffffff811161059d5760051b60200190565b9080601f830112156104c0576020908235610ce181610caf565b93610cef604051958661062e565b818552838086019260051b8201019283116104c0578301905b828210610d16575050505090565b8380918335610d2481610c01565b815201910190610d08565b9080601f830112156104c0576020908235610d4981610caf565b93610d57604051958661062e565b818552838086019260051b8201019283116104c0578301905b828210610d7e575050505090565b81358152908301908301610d70565b81601f820112156104c057803591602091610da784610caf565b93610db5604051958661062e565b808552838086019160051b830101928084116104c057848301915b848310610de05750505050505090565b823567ffffffffffffffff81116104c0578691610e0284848094890101610744565b815201920191610dd0565b60807ffffffffffffffffffffffffffffffffffffffffffffffffffffffffffffffffc8201126104c05767ffffffffffffffff916004358381116104c05782610e5891600401610cc7565b926024358181116104c05783610e7091600401610d2f565b926044359182116104c057610e8791600401610d8d565b9060643590565b346104c057610e9c36610e0d565b90610eab828285879697612b33565b610ed0610ecc610ec583600052600e602052604060002090565b5460ff1690565b1590565b9081610f13575b50610ee9576103cc936107f993614ca3565b60046040517fcbcc27e3000000000000000000000000000000000000000000000000000000008152fd5b6040517f3e4f49e6000000000000000000000000000000000000000000000000000000008152600481019190915290506020816024817f000000000000000000000000000000000000000000000000000000000000000073ffffffffffffffffffffffffffffffffffffffff165afa8015610fd357600491600091610fa5575b50610f9d8161137c565b141538610ed7565b610fc6915060203d8111610fcc575b610fbe818361062e565b810190614c13565b38610f93565b503d610fb4565b61321e565b610fe136610e0d565b909291610ff082858386612b33565b92610ffa8461506d565b6008811015611194578060046110199214908115611180575b50612b7f565b61105e6002611032866000526003602052604060002090565b0160017fffffffffffffffffffffffffffffffffffffffffffffffffffffffffffffff00825416179055565b7f712ae1383f79ac853f8d882153778e0260ef8f03b504e2866e0593e04d2b291f6020604051868152a16000848152600e60205260ff604082205416156110c8575b50936107f99291856110b5836103cc986155e7565b6110c2848484848a615406565b856156c6565b73ffffffffffffffffffffffffffffffffffffffff939291937f000000000000000000000000000000000000000000000000000000000000000016803b1561117c576040517f688254fd00000000000000000000000000000000000000000000000000000000815296929190879081838161114a8989898d8f60048701615565565b03925af1938415610fd3576103cc966107f99561116d575b5091955091926110a0565b61117690610589565b38611162565b5080fd5b6005915061118d8161137c565b1438611013565b61134d565b346104c05760207ffffffffffffffffffffffffffffffffffffffffffffffffffffffffffffffffc3601126104c0576004356000526003602052602067ffffffffffffffff60406000205416604051908152f35b346104c05760007ffffffffffffffffffffffffffffffffffffffffffffffffffffffffffffffffc3601126104c05760206040517fb3b3f3b703cd84ce352197dcff232b1b5d3cfb2025ce47cf04742d0651f1af888152f35b346104c05760007ffffffffffffffffffffffffffffffffffffffffffffffffffffffffffffffffc3601126104c0576020600654604051908152f35b346104c05760a07ffffffffffffffffffffffffffffffffffffffffffffffffffffffffffffffffc3601126104c0576103cc6107f96004356112c261050c565b61133761132f6112d061051c565b60405160208101917f150214d74d59b7d1e90c73fc22ef3d991dd0a76b046543d4d80ab92d2a50328f835286604083015260ff8616606083015260608252611317826105be565b61132a6084359360643593519020613cb5565b613c26565b919091613a9d565b60405192611344846105da565b60008452612d54565b7f4e487b7100000000000000000000000000000000000000000000000000000000600052602160045260246000fd5b6008111561119457565b346104c05760207ffffffffffffffffffffffffffffffffffffffffffffffffffffffffffffffffc3601126104c0576113c060043561506d565b6040516008821015611194576020918152f35b346104c05760407ffffffffffffffffffffffffffffffffffffffffffffffffffffffffffffffffc3601126104c057602060ff61144c60243561141581610c01565b6004356000526009845260036040600020019073ffffffffffffffffffffffffffffffffffffffff16600052602052604060002090565b54166040519015158152f35b346104c05761146636610e0d565b9261147684838584969596614ec9565b93611491610ecc610ec587600052600e602052604060002090565b80611597575b6114a7575b604051858152602090f35b906114e36020939260405195869485947f452115d600000000000000000000000000000000000000000000000000000000865260048601612af4565b0381600073ffffffffffffffffffffffffffffffffffffffff7f0000000000000000000000000000000000000000000000000000000000000000165af1908115610fd357600091611569575b50810361153f573880808061149c565b60046040517f716a4cbb000000000000000000000000000000000000000000000000000000008152fd5b61158a915060203d8111611590575b611582818361062e565b81019061320f565b3861152f565b503d611578565b5073ffffffffffffffffffffffffffffffffffffffff7f000000000000000000000000000000000000000000000000000000000000000016331415611497565b346104c05760007ffffffffffffffffffffffffffffffffffffffffffffffffffffffffffffffffc3601126104c0576103cc611611613322565b604051918291602083526020830190610a33565b346104c05760207ffffffffffffffffffffffffffffffffffffffffffffffffffffffffffffffffc3601126104c057600435600052600960205260606040600020805490600260018201549101549060405192835260208301526040820152f35b346104c05760007ffffffffffffffffffffffffffffffffffffffffffffffffffffffffffffffffc3601126104c0576103cc6040516116c4816105a2565b600181527f31000000000000000000000000000000000000000000000000000000000000006020820152604051918291602083526020830190610a33565b346104c05760407ffffffffffffffffffffffffffffffffffffffffffffffffffffffffffffffffc3601126104c057602061176861173e61050c565b60405161174a816105da565b600081526040519161175b836105da565b6000835233600435612dd0565b604051908152f35b346104c05760807ffffffffffffffffffffffffffffffffffffffffffffffffffffffffffffffffc3601126104c0576117a761050c565b67ffffffffffffffff906044358281116104c0576117c990369060040161052c565b90916064359384116104c0576117f4611768936117ec6020963690600401610744565b93369161070d565b9033600435612dd0565b346104c05760207ffffffffffffffffffffffffffffffffffffffffffffffffffffffffffffffffc3601126104c05760206117686004356135d1565b346104c05760207ffffffffffffffffffffffffffffffffffffffffffffffffffffffffffffffffc3601126104c05760043573ffffffffffffffffffffffffffffffffffffffff600c5416611890813314612f5c565b30036118d0575b60065460408051918252602082018390527fc565b045403dc03c2eea82b81a0465edad9e2e7fc4d97e11421c209da93d7a9391a1600655005b6118da36366106d8565b602081519101205b806118eb614366565b036118e25750611897565b346104c05760607ffffffffffffffffffffffffffffffffffffffffffffffffffffffffffffffffc3601126104c05761192d61050c565b60443567ffffffffffffffff81116104c05760209161195d61195661176893369060040161052c565b369161070d565b6040519161175b836105da565b60807ffffffffffffffffffffffffffffffffffffffffffffffffffffffffffffffffc8201126104c05767ffffffffffffffff906004358281116104c057816119b591600401610cc7565b926024358381116104c057826119cd91600401610d2f565b926044358181116104c057836119e591600401610d8d565b926064359182116104c057806023830112156104c05781602461075f9360040135910161070d565b346104c057611a1b3661196a565b90611a28828285876149eb565b9273ffffffffffffffffffffffffffffffffffffffff7f00000000000000000000000000000000000000000000000000000000000000001690813303611a7357604051858152602090f35b60006020949596611ab3604051978896879586947f7d5e81e2000000000000000000000000000000000000000000000000000000008652600486016143fc565b03925af18015610fd3578291600091611ad7575b500361153f57803880808061149c565b611aef915060203d811161159057611582818361062e565b38611ac7565b90815180825260208080930193019160005b828110611b15575050505090565b835185529381019392810192600101611b07565b346104c05760007ffffffffffffffffffffffffffffffffffffffffffffffffffffffffffffffffc3601126104c057611bfe611b847f0000000000000000000000000000000000000000000000000000000000000000613e17565b6103cc611bb07f0000000000000000000000000000000000000000000000000000000000000000613f45565b611c0c60405191611bc0836105da565b600083526040519586957f0f00000000000000000000000000000000000000000000000000000000000000875260e0602088015260e0870190610a33565b908582036040870152610a33565b90466060850152306080850152600060a085015283820360c0850152611af5565b346104c05760007ffffffffffffffffffffffffffffffffffffffffffffffffffffffffffffffffc3601126104c0576020611c6661322a565b65ffffffffffff60405191168152f35b346104c05760007ffffffffffffffffffffffffffffffffffffffffffffffffffffffffffffffffc3601126104c057602060405160648152f35b346104c05760607ffffffffffffffffffffffffffffffffffffffffffffffffffffffffffffffffc3601126104c057600435611ceb81610c01565b60443567ffffffffffffffff81116104c057604491611d106020923690600401610744565b5073ffffffffffffffffffffffffffffffffffffffff92839160405194859384927f3a46b1a800000000000000000000000000000000000000000000000000000000845216600483015260243560248301527f0000000000000000000000000000000000000000000000000000000000000000165afa8015610fd3576103cc91600091611da9575b506040519081529081906020820190565b611dc1915060203d811161159057611582818361062e565b38611d98565b346104c05760007ffffffffffffffffffffffffffffffffffffffffffffffffffffffffffffffffc3601126104c05760206117686134ac565b346104c05760207ffffffffffffffffffffffffffffffffffffffffffffffffffffffffffffffffc3601126104c057600435611e3b81610c01565b73ffffffffffffffffffffffffffffffffffffffff9081600c5416611e61813314612f5c565b3003611ec9575b7fffffffffffffffffffffffff0000000000000000000000000000000000000000907f08f74ea46ef7894f65eabfb5e6e695de773a000b47c529ab559178069b226401604084600c5493169481519084168152856020820152a11617600c55005b611ed336366106d8565b602081519101205b80611ee4614366565b03611edb5750611e68565b346104c05760207ffffffffffffffffffffffffffffffffffffffffffffffffffffffffffffffffc3601126104c057611f8d602073ffffffffffffffffffffffffffffffffffffffff600c5416611f52600435600052600d602052604060002090565b549060405180809581947fd45c4435000000000000000000000000000000000000000000000000000000008352600483019190602083019252565b03915afa908115610fd357600091611fbf575b5060018103611fb6575060405160008152602090f35b6103cc906107f9565b611fd7915060203d811161159057611582818361062e565b38611fa0565b346104c05760007ffffffffffffffffffffffffffffffffffffffffffffffffffffffffffffffffc3601126104c057602061176861500d565b346104c05760a07ffffffffffffffffffffffffffffffffffffffffffffffffffffffffffffffffc3601126104c057612050600435610c01565b61205b602435610c01565b67ffffffffffffffff6044358181116104c05761207c903690600401610d2f565b506064358181116104c057612095903690600401610d2f565b506084359081116104c0576120ae903690600401610744565b506040517fbc197c81000000000000000000000000000000000000000000000000000000008152602090f35b346104c05760207ffffffffffffffffffffffffffffffffffffffffffffffffffffffffffffffffc3601126104c0576004356000526003602052602067ffffffffffffffff60016040600020015416604051908152f35b60607ffffffffffffffffffffffffffffffffffffffffffffffffffffffffffffffffc3601126104c05760043561216781610c01565b60443567ffffffffffffffff81116104c05761218790369060040161052c565b919073ffffffffffffffffffffffffffffffffffffffff600c54166121ad813314612f5c565b300361226b575b61226091836040519485938437820190600094859383858095520391602435905af13d15612264573d6121e68161069e565b906121f4604051928361062e565b81523d84602083013e5b6040519161220b836105f6565b602883527f476f7665726e6f723a2072656c617920726576657274656420776974686f757460208401527f206d6573736167650000000000000000000000000000000000000000000000006040840152613871565b5080f35b60606121fe565b61227536366106d8565b602081519101205b80612286614366565b0361227d57506121b4565b346104c05760007ffffffffffffffffffffffffffffffffffffffffffffffffffffffffffffffffc3601126104c057602073ffffffffffffffffffffffffffffffffffffffff600c5416604051908152f35b346104c05760206117686122f636610e0d565b92919091612b33565b346104c05760007ffffffffffffffffffffffffffffffffffffffffffffffffffffffffffffffffc3601126104c0576103cc60405161233d816105a2565b602081527f737570706f72743d627261766f2671756f72756d3d666f722c6162737461696e6020820152604051918291602083526020830190610a33565b346104c05760007ffffffffffffffffffffffffffffffffffffffffffffffffffffffffffffffffc3601126104c05760206040517f150214d74d59b7d1e90c73fc22ef3d991dd0a76b046543d4d80ab92d2a50328f8152f35b346104c05760007ffffffffffffffffffffffffffffffffffffffffffffffffffffffffffffffffc3601126104c057602060405173ffffffffffffffffffffffffffffffffffffffff7f0000000000000000000000000000000000000000000000000000000000000000168152f35b346104c05760207ffffffffffffffffffffffffffffffffffffffffffffffffffffffffffffffffc3601126104c05760043573ffffffffffffffffffffffffffffffffffffffff600c5416612499813314612f5c565b3003612563575b80156124df5760075460408051918252602082018390527f7e3f7f0708a84de9203036abaa450dccc85ad5ff52f78c170f3edb55cf5e882891a1600755005b60846040517f08c379a000000000000000000000000000000000000000000000000000000000815260206004820152602760248201527f476f7665726e6f7253657474696e67733a20766f74696e6720706572696f642060448201527f746f6f206c6f77000000000000000000000000000000000000000000000000006064820152fd5b61256d36366106d8565b602081519101205b8061257e614366565b0361257557506124a0565b346104c05760407ffffffffffffffffffffffffffffffffffffffffffffffffffffffffffffffffc3601126104c057604460206004356125c881610c01565b60006040516125d6816105da565b5273ffffffffffffffffffffffffffffffffffffffff92839160405194859384927f3a46b1a800000000000000000000000000000000000000000000000000000000845216600483015260243560248301527f0000000000000000000000000000000000000000000000000000000000000000165afa8015610fd3576103cc91600091611da957506040519081529081906020820190565b346104c05760207ffffffffffffffffffffffffffffffffffffffffffffffffffffffffffffffffc3601126104c05760043573ffffffffffffffffffffffffffffffffffffffff600c54166126c4813314612f5c565b3003612704575b60085460408051918252602082018390527fccb45da8d5717e6c4544694297c4ba5cf151d455c9bb0ed4fc7a38411bc0546191a1600855005b61270e36366106d8565b602081519101205b8061271f614366565b0361271657506126cb565b346104c05760a07ffffffffffffffffffffffffffffffffffffffffffffffffffffffffffffffffc3601126104c057612764600435610c01565b61276f602435610c01565b60843567ffffffffffffffff81116104c05761278f903690600401610744565b5060206040517ff23a6e61000000000000000000000000000000000000000000000000000000008152f35b346104c05760206127d66127cd3661196a565b929190916149eb565b80600052600e8252604060002060017fffffffffffffffffffffffffffffffffffffffffffffffffffffffffffffff00825416179055604051908152f35b346104c05760207ffffffffffffffffffffffffffffffffffffffffffffffffffffffffffffffffc3601126104c057600435604051907f8e539e8c00000000000000000000000000000000000000000000000000000000825280600483015260208260248173ffffffffffffffffffffffffffffffffffffffff7f0000000000000000000000000000000000000000000000000000000000000000165afa918215610fd3576000926128f0575b506128cb906135d1565b908181029181830414901517156128eb5760405160649091048152602090f35b61304c565b6128cb91925061290d9060203d811161159057611582818361062e565b91906128c1565b346104c05760007ffffffffffffffffffffffffffffffffffffffffffffffffffffffffffffffffc3601126104c057602060405173ffffffffffffffffffffffffffffffffffffffff7f0000000000000000000000000000000000000000000000000000000000000000168152f35b73ffffffffffffffffffffffffffffffffffffffff600c541630036129a457565b60646040517f08c379a000000000000000000000000000000000000000000000000000000000815260206004820152601f60248201527f476f7665726e6f723a206d7573742073656e6420746f206578656375746f72006044820152fd5b90600182811c92168015612a4b575b6020831014612a1c57565b7f4e487b7100000000000000000000000000000000000000000000000000000000600052602260045260246000fd5b91607f1691612a11565b90815180825260208080930193019160005b828110612a75575050505090565b835173ffffffffffffffffffffffffffffffffffffffff1685529381019392810192600101612a67565b90815180825260208092019182818360051b82019501936000915b848310612aca5750505050505090565b9091929394958480612ae483856001950387528a51610a33565b9801930193019194939290612aba565b949392612b20606093612b12612b2e9460808a5260808a0190612a55565b9088820360208a0152611af5565b908682036040880152612a9f565b930152565b9290612b4d612b7992604051948593602085019788612af4565b037fffffffffffffffffffffffffffffffffffffffffffffffffffffffffffffffe0810183528261062e565b51902090565b15612b8657565b60846040517f08c379a000000000000000000000000000000000000000000000000000000000815260206004820152602160248201527f476f7665726e6f723a2070726f706f73616c206e6f742073756363657373667560448201527f6c000000000000000000000000000000000000000000000000000000000000006064820152fd5b6020906000604051612c1b816105da565b52604473ffffffffffffffffffffffffffffffffffffffff918260405195869485937f3a46b1a800000000000000000000000000000000000000000000000000000000855216600484015260248301527f0000000000000000000000000000000000000000000000000000000000000000165afa908115610fd357600091612ca1575090565b61075f915060203d811161159057611582818361062e565b9492612d4661075f98612d4e949396986119569661132a8a8a8d612cde368a8c61070d565b6020815191012090602081519101209060ff6040519360208501957fb3b3f3b703cd84ce352197dcff232b1b5d3cfb2025ce47cf04742d0651f1af8887526040860152166060840152608083015260a082015260a08152612d3e81610612565b519020613cb5565b949094613a9d565b92612dd0565b9161075f939160405193612d67856105da565b60008552612dd0565b93909260ff612d9c9361075f97958752166020860152604085015260a0606085015260a0840190610a33565b916080818403910152610a33565b909260ff60809361075f9695845216602083015260408201528160608201520190610a33565b9290919383600052600360205260406000206001612ded8661506d565b612df68161137c565b03612ed857612e20612e13612e26925467ffffffffffffffff1690565b67ffffffffffffffff1690565b84613424565b948591612e3583838789613096565b8051612e8d575073ffffffffffffffffffffffffffffffffffffffff927fb8e138887d0aa13bab447e82de9d5c1777041ecd21ca36ba824ff1e6c07ddda49492612e8792604051958695169785612daa565b0390a290565b73ffffffffffffffffffffffffffffffffffffffff937fe2babfbac5889a709b63bb7f598b324e08bc5a4fb9ec647fb3cbc9ec07eb87129593612e8793604051968796169886612d70565b60846040517f08c379a000000000000000000000000000000000000000000000000000000000815260206004820152602360248201527f476f7665726e6f723a20766f7465206e6f742063757272656e746c792061637460448201527f69766500000000000000000000000000000000000000000000000000000000006064820152fd5b15612f6357565b60646040517f08c379a000000000000000000000000000000000000000000000000000000000815260206004820152601860248201527f476f7665726e6f723a206f6e6c79476f7665726e616e636500000000000000006044820152fd5b15612fc857565b60846040517f08c379a000000000000000000000000000000000000000000000000000000000815260206004820152602760248201527f476f7665726e6f72566f74696e6753696d706c653a20766f746520616c72656160448201527f64792063617374000000000000000000000000000000000000000000000000006064820152fd5b7f4e487b7100000000000000000000000000000000000000000000000000000000600052601160045260246000fd5b90600182018092116128eb57565b919082018092116128eb57565b916131416131166130b460ff94956000526009602052604060002090565b94600386016130f16130ec610ecc610ec585859073ffffffffffffffffffffffffffffffffffffffff16600052602052604060002090565b612fc1565b9073ffffffffffffffffffffffffffffffffffffffff16600052602052604060002090565b60017fffffffffffffffffffffffffffffffffffffffffffffffffffffffffffffff00825416179055565b1680613158575090613154908254613089565b9055565b60018103613170575060016131549101918254613089565b6002036131865760026131549101918254613089565b6040517f08c379a000000000000000000000000000000000000000000000000000000000815260206004820152603560248201527f476f7665726e6f72566f74696e6753696d706c653a20696e76616c696420766160448201527f6c756520666f7220656e756d20566f74655479706500000000000000000000006064820152608490fd5b0390fd5b908160209103126104c0575190565b6040513d6000823e3d90fd5b6040517f91ddadf400000000000000000000000000000000000000000000000000000000815260208160048173ffffffffffffffffffffffffffffffffffffffff7f0000000000000000000000000000000000000000000000000000000000000000165afa80916000916132a9575b509061075f575061075f4361423a565b6020813d82116132e1575b816132c16020938361062e565b8101031261117c57519065ffffffffffff82168203610b9b575038613299565b3d91506132b4565b604051906132f6826105a2565b601d82527f6d6f64653d626c6f636b6e756d6265722666726f6d3d64656661756c740000006020830152565b6040517f4bf5d7e90000000000000000000000000000000000000000000000000000000081526000808260048173ffffffffffffffffffffffffffffffffffffffff7f0000000000000000000000000000000000000000000000000000000000000000165afa909182826133a0575b505061075f575061075f6132e9565b909192503d8082843e6133b3818461062e565b82019160208184031261117c5780519067ffffffffffffffff8211613420570182601f8201121561117c578051916133ea8361069e565b936133f8604051958661062e565b83855260208484010111610b9b5750906134189160208085019101610a10565b903880613391565b8280fd5b602090604473ffffffffffffffffffffffffffffffffffffffff918260405195869485937f3a46b1a800000000000000000000000000000000000000000000000000000000855216600484015260248301527f0000000000000000000000000000000000000000000000000000000000000000165afa908115610fd357600091612ca1575090565b600b54600090806134bf575050600a5490565b807fffffffffffffffffffffffffffffffffffffffffffffffffffffffffffffffff8101116128eb57600b7f0175b7a638427703f0dbe7bb9bbf987a2551717b34e79f33b5b1008d1fa01db89252015460201c90565b907fffffffffffffffffffffffffffffffffffffffffffffffffffffffffffffffff82019182116128eb57565b907fffffffffffffffffffffffffffffffffffffffffffffffffffffffffffffffd882019182116128eb57565b7f4e487b7100000000000000000000000000000000000000000000000000000000600052603260045260246000fd5b906040516040810181811067ffffffffffffffff82111761059d57604052602081935463ffffffff81168352811c910152565b90600b805480156137e1577fffffffffffffffffffffffffffffffffffffffffffffffffffffffffffffffff81018181116128eb578111156137dc5760009180835261363e7f0175b7a638427703f0dbe7bb9bbf987a2551717b34e79f33b5b1008d1fa01db8830161359e565b9463ffffffff95818782511611156137b2575061365a906142d1565b948084938060058111613750575b50939616905b8387106136ec575050507bffffffffffffffffffffffffffffffffffffffffffffffffffffffff92935080156000146136a657501690565b6136e891506136b76136e191613515565b600b6000527f0175b7a638427703f0dbe7bb9bbf987a2551717b34e79f33b5b1008d1fa01db90190565b5460201c90565b1690565b9091928087169080881860011c82018092116128eb578486528383837f0175b7a638427703f0dbe7bb9bbf987a2551717b34e79f33b5b1008d1fa01db90154161160001461373e5750925b919061366e565b93965061374a9061307b565b95613737565b915061375b8261403b565b82039182116128eb578386527f0175b7a638427703f0dbe7bb9bbf987a2551717b34e79f33b5b1008d1fa01db9820154831688841610156137a0575081905b38613668565b93506137ac829161307b565b9361379a565b602001517bffffffffffffffffffffffffffffffffffffffffffffffffffffffff16955050505050565b61356f565b5050600a549150565b600b54906801000000000000000082101561059d576001820180600b558210156137dc57600b600052805160209182015190911b7fffffffffffffffffffffffffffffffffffffffffffffffffffffffff000000001663ffffffff91909116177f0175b7a638427703f0dbe7bb9bbf987a2551717b34e79f33b5b1008d1fa01db990910155565b9091901561387d575090565b81511561388d5750805190602001fd5b61320b906040519182917f08c379a0000000000000000000000000000000000000000000000000000000008352602060048401526024830190610a33565b156138d257565b60646040517f08c379a000000000000000000000000000000000000000000000000000000000815260206004820152601b60248201527f436865636b706f696e743a2064656372656173696e67206b65797300000000006044820152fd5b600b549192918015613a5457613a059181856139586139536136b7602096613515565b61359e565b92613967845163ffffffff1690565b61397e63ffffffff918284169283911611156138cb565b61399861398f865163ffffffff1690565b63ffffffff1690565b03613a0957506139ad6136b76139e293613515565b9063ffffffff7fffffffffffffffffffffffffffffffffffffffffffffffffffffffff0000000083549260201b169116179055565b01517bffffffffffffffffffffffffffffffffffffffffffffffffffffffff1690565b9190565b9050613a4f9150613a27613a1b61066f565b63ffffffff9092168252565b7bffffffffffffffffffffffffffffffffffffffffffffffffffffffff8716818501526137ea565b6139e2565b50613a8d90613a64613a1b61066f565b7bffffffffffffffffffffffffffffffffffffffffffffffffffffffff841660208201526137ea565b60009190565b6005111561119457565b613aa681613a93565b80613aae5750565b613ab781613a93565b60018103613b1e576040517f08c379a000000000000000000000000000000000000000000000000000000000815260206004820152601860248201527f45434453413a20696e76616c6964207369676e617475726500000000000000006044820152606490fd5b613b2781613a93565b60028103613b8e576040517f08c379a000000000000000000000000000000000000000000000000000000000815260206004820152601f60248201527f45434453413a20696e76616c6964207369676e6174757265206c656e677468006044820152606490fd5b80613b9a600392613a93565b14613ba157565b6040517f08c379a000000000000000000000000000000000000000000000000000000000815260206004820152602260248201527f45434453413a20696e76616c6964207369676e6174757265202773272076616c60448201527f75650000000000000000000000000000000000000000000000000000000000006064820152608490fd5b9291907f7fffffffffffffffffffffffffffffff5d576e7357a4501ddfe92f46681b20a08311613ca95791608094939160ff602094604051948552168484015260408301526060820152600093849182805260015afa15610fd357815173ffffffffffffffffffffffffffffffffffffffff811615613ca3579190565b50600190565b50505050600090600390565b604290613cc0613cf6565b90604051917f19010000000000000000000000000000000000000000000000000000000000008352600283015260228201522090565b73ffffffffffffffffffffffffffffffffffffffff7f000000000000000000000000000000000000000000000000000000000000000016301480613dee575b15613d5e577f000000000000000000000000000000000000000000000000000000000000000090565b60405160208101907f8b73c3c69bb8fe3d512ecc4cf759cc79239f7b179b0ffacaa9a75d522b39400f82527f000000000000000000000000000000000000000000000000000000000000000060408201527f000000000000000000000000000000000000000000000000000000000000000060608201524660808201523060a082015260a08152612b7981610612565b507f00000000000000000000000000000000000000000000000000000000000000004614613d35565b60ff8114613e6d5760ff811690601f8211613e435760405191613e39836105a2565b8252602082015290565b60046040517fb3512b0c000000000000000000000000000000000000000000000000000000008152fd5b50604051600081815491613e8083612a02565b808352602093600190818116908115613f065750600114613eaa575b505061075f9250038261062e565b60008080527f290decd9548b62a8d60345a988386fc84ba6bc95484008f6362f93160ef3e56395935091905b818310613eee57505061075f93508201013880613e9c565b85548784018501529485019486945091830191613ed6565b905061075f9593507fffffffffffffffffffffffffffffffffffffffffffffffffffffffffffffff0091501682840152151560051b8201013880613e9c565b60ff8114613f675760ff811690601f8211613e435760405191613e39836105a2565b50604051600081600191825492613f7d84612a02565b908184526020948181169081600014613f065750600114613fa657505061075f9250038261062e565b60008181527fb10e2d527612073b26eecdfd717e6a320cf44b4afac2b0732d9fcbe2b7fa0cf695935091905b818310613fea57505061075f93508201013880613e9c565b85548784018501529485019486945091830191613fd2565b811561400c570490565b7f4e487b7100000000000000000000000000000000000000000000000000000000600052601260045260246000fd5b8015614175578061410e6141076140fd6140f36140e96140df6140d56140cb600161075f9a6000908b60801c80614169575b508060401c8061415c575b508060201c8061414f575b508060101c80614142575b508060081c80614135575b508060041c80614128575b508060021c8061411b575b50821c614114575b811c1b6140c4818b614002565b0160011c90565b6140c4818a614002565b6140c48189614002565b6140c48188614002565b6140c48187614002565b6140c48186614002565b6140c48185614002565b8092614002565b9061417b565b81016140b7565b60029150910190386140af565b60049150910190386140a4565b6008915091019038614099565b601091509101903861408e565b6020915091019038614083565b6040915091019038614078565b9150506080903861406d565b50600090565b9080821015614188575090565b905090565b7bffffffffffffffffffffffffffffffffffffffffffffffffffffffff908181116141b6571690565b60846040517f08c379a000000000000000000000000000000000000000000000000000000000815260206004820152602760248201527f53616665436173743a2076616c756520646f65736e27742066697420696e203260448201527f32342062697473000000000000000000000000000000000000000000000000006064820152fd5b65ffffffffffff9081811161424d571690565b60846040517f08c379a000000000000000000000000000000000000000000000000000000000815260206004820152602660248201527f53616665436173743a2076616c756520646f65736e27742066697420696e203460448201527f38206269747300000000000000000000000000000000000000000000000000006064820152fd5b63ffffffff908181116142e2571690565b60846040517f08c379a000000000000000000000000000000000000000000000000000000000815260206004820152602660248201527f53616665436173743a2076616c756520646f65736e27742066697420696e203360448201527f32206269747300000000000000000000000000000000000000000000000000006064820152fd5b6004549081600f0b809260801d600f0b13156143d25781600052600560205260406000209160008354935560017fffffffffffffffffffffffffffffffff000000000000000000000000000000006004541691016fffffffffffffffffffffffffffffffff1617600455565b60046040517f3db2a12a000000000000000000000000000000000000000000000000000000008152fd5b9261442861075f959361441a61443694608088526080880190612a55565b908682036020880152611af5565b908482036040860152612a9f565b916060818403910152610a33565b1561444b57565b60646040517f08c379a000000000000000000000000000000000000000000000000000000000815260206004820152601d60248201527f476f7665726e6f723a2070726f706f73657220726573747269637465640000006044820152fd5b156144b057565b60846040517f08c379a000000000000000000000000000000000000000000000000000000000815260206004820152603160248201527f476f7665726e6f723a2070726f706f73657220766f7465732062656c6f77207060448201527f726f706f73616c207468726573686f6c640000000000000000000000000000006064820152fd5b1561453b57565b60846040517f08c379a000000000000000000000000000000000000000000000000000000000815260206004820152602160248201527f476f7665726e6f723a20696e76616c69642070726f706f73616c206c656e677460448201527f68000000000000000000000000000000000000000000000000000000000000006064820152fd5b156145c657565b60646040517f08c379a000000000000000000000000000000000000000000000000000000000815260206004820152601860248201527f476f7665726e6f723a20656d7074792070726f706f73616c00000000000000006044820152fd5b1561462b57565b60846040517f08c379a000000000000000000000000000000000000000000000000000000000815260206004820152602160248201527f476f7665726e6f723a2070726f706f73616c20616c726561647920657869737460448201527f73000000000000000000000000000000000000000000000000000000000000006064820152fd5b9061485760c0600261067c9467ffffffffffffffff61470081875116839067ffffffffffffffff167fffffffffffffffffffffffffffffffffffffffffffffffff0000000000000000825416179055565b6020860151907bffffffffffffffffffffffffffffffffffffffff000000000000000083549260401b1690817fffffffff0000000000000000000000000000000000000000ffffffffffffffff84161784557fffffffff0000000000000000000000000000000000000000000000000000000060408901511692161717815561480d600182016147d361479e606089015167ffffffffffffffff1690565b829067ffffffffffffffff167fffffffffffffffffffffffffffffffffffffffffffffffff0000000000000000825416179055565b6080870151815467ffffffffffffffff167fffffffffffffffffffffffffffffffffffffffffffffffff0000000000000000909116179055565b019261485061481f60a0830151151590565b859060ff7fffffffffffffffffffffffffffffffffffffffffffffffffffffffffffffff0083541691151516179055565b0151151590565b81547fffffffffffffffffffffffffffffffffffffffffffffffffffffffffffff00ff1690151560081b61ff0016179055565b9061489482610caf565b6148a1604051918261062e565b8281527fffffffffffffffffffffffffffffffffffffffffffffffffffffffffffffffe06148cf8294610caf565b019060005b8281106148e057505050565b8060606020809385010152016148d4565b959261493390614941939b9a989996959261012090895273ffffffffffffffffffffffffffffffffffffffff60209d168d8a01528060408a0152880190612a55565b908682036060880152611af5565b9784890360808601528251808a52818a019180808360051b8d01019501926000905b8382106149a057505050505061075f969750906149879184820360a0860152612a9f565b9360c083015260e0820152610100818403910152610a33565b909192939583806149dc8f937fffffffffffffffffffffffffffffffffffffffffffffffffffffffffffffffe060019582030186528a51610a33565b98019201920190939291614963565b614b747f7d84a6263ae0d98d3329bd7b46bb4e8d6f98cd35a7adb45c274c8b7fd5ebd5e09394614a23614a1e82336159d1565b614444565b614a2e6108b761322a565b95614a53614a44614a3e89613515565b33612c0a565b614a4c61500d565b11156144a9565b614ad0614a6883516020850120838888612b33565b97614a768651885114614534565b614a838651845114614534565b614a8f865115156145bf565b614ac767ffffffffffffffff614ac0614ab28c6000526003602052604060002090565b5467ffffffffffffffff1690565b1615614624565b60065490613089565b614adc60075482613089565b91614b5c614ae983614b7a565b614b2e614af586614b7a565b614b10614b0061067e565b67ffffffffffffffff9094168452565b3360208401526000604084015267ffffffffffffffff166060830152565b60006080820152600060a0820152600060c0820152614b578b6000526003602052604060002090565b6146af565b614b66865161488a565b604051978897338c8a6148f1565b0390a190565b67ffffffffffffffff90818111614b8f571690565b60846040517f08c379a000000000000000000000000000000000000000000000000000000000815260206004820152602660248201527f53616665436173743a2076616c756520646f65736e27742066697420696e203660448201527f34206269747300000000000000000000000000000000000000000000000000006064820152fd5b908160209103126104c0575160088110156104c05790565b949392612b20608093612b12614c499460a08a5260a08a0190612a55565b93600060608201520152565b9192614c8460a094614c76614c92949998979960c0875260c0870190612a55565b908582036020870152611af5565b908382036040850152612a9f565b946000606083015260808201520152565b92909192614cb382858584612b33565b93614cd16004614cc28761506d565b614ccb8161137c565b14612b7f565b614d0c614cf3600c5473ffffffffffffffffffffffffffffffffffffffff1690565b73ffffffffffffffffffffffffffffffffffffffff1690565b93604051947ff27a0c920000000000000000000000000000000000000000000000000000000086526020908187600481845afa968715610fd357600097614eaa575b508160405180927fb1c5f4270000000000000000000000000000000000000000000000000000000082528180614d8a8b8a8a8d60048601614c2b565b03915afa918215610fd357600092614e8d575b5050614db387600052600d602052604060002090565b55614dd6614cf3600c5473ffffffffffffffffffffffffffffffffffffffff1690565b90813b156104c05760008094614e1c88604051988997889687957f8f2a0bb000000000000000000000000000000000000000000000000000000000875260048701614c55565b03925af18015610fd3577f9a2e42fd6722813d69113e7d0079d3d940171428df7373df9c7f7617cfda289292614b7492614e5c92614e74575b5042613089565b60408051858152602081019290925290918291820190565b80614e81614e8792610589565b806104c5565b38614e55565b614ea39250803d1061159057611582818361062e565b3880614d9d565b614ec2919750823d841161159057611582818361062e565b9538614d4e565b929190614ed883838387612b33565b614ee18161506d565b600881101561119457614faf57614f1773ffffffffffffffffffffffffffffffffffffffff916000526003602052604060002090565b5460401c163303614f2b5761075f936157cd565b60846040517f08c379a000000000000000000000000000000000000000000000000000000000815260206004820152602260248201527f476f7665726e6f723a206f6e6c792070726f706f7365722063616e2063616e6360448201527f656c0000000000000000000000000000000000000000000000000000000000006064820152fd5b60646040517f08c379a000000000000000000000000000000000000000000000000000000000815260206004820152601c60248201527f476f7665726e6f723a20746f6f206c61746520746f2063616e63656c000000006044820152fd5b73ffffffffffffffffffffffffffffffffffffffff7f00000000000000000000000000000000000000000000000000000000000000001633146150505760085490565b600090565b908160209103126104c0575180151581036104c05790565b615076816151c8565b906150808261137c565b600482036151c45761509c90600052600d602052604060002090565b54806150a6575090565b90506150ca614cf3600c5473ffffffffffffffffffffffffffffffffffffffff1690565b6040517f2ab0f5290000000000000000000000000000000000000000000000000000000081526004810183905260209291908381602481855afa908115610fd3576000916151a7575b501561512157505050600790565b6040517f584b153e00000000000000000000000000000000000000000000000000000000815260048101929092528290829060249082905afa918215610fd35760009261517a575b50501561517557600590565b600290565b6151999250803d106151a0575b615191818361062e565b810190615055565b3880615169565b503d615187565b6151be9150843d86116151a057615191818361062e565b38615113565b5090565b60026151de826000526003602052604060002090565b015460ff81166153055760081c60ff166152ff5761520c612e13614ab2836000526003602052604060002090565b80156152a05761521d6108b761322a565b8091101561529957615250612e136001615241856000526003602052604060002090565b015467ffffffffffffffff1690565b1015613ca35761525f8161530c565b9081615276575b501561527157600490565b600390565b615293915060005260096020526040600020600181015490541090565b38615266565b5050600090565b6040517f08c379a000000000000000000000000000000000000000000000000000000000815260206004820152601d60248201527f476f7665726e6f723a20756e6b6e6f776e2070726f706f73616c2069640000006044820152606490fd5b50600290565b5050600790565b60005260096020526040600020600360205267ffffffffffffffff6040600020541690604051917f8e539e8c00000000000000000000000000000000000000000000000000000000835280600484015260208360248173ffffffffffffffffffffffffffffffffffffffff7f0000000000000000000000000000000000000000000000000000000000000000165afa928315610fd3576000936153e2575b506153b4906135d1565b918281029281840414901517156128eb576153db8160026001606494015491015490613089565b9104111590565b6153b49193506153ff9060203d811161159057611582818361062e565b92906153aa565b9392919093615425610ecc610ec583600052600e602052604060002090565b908161543a575b50610ee95761067c936154ea565b6040517f3e4f49e6000000000000000000000000000000000000000000000000000000008152600481019190915290506020816024817f000000000000000000000000000000000000000000000000000000000000000073ffffffffffffffffffffffffffffffffffffffff165afa8015610fd3576004916000916154cc575b506154c48161137c565b14153861542c565b6154e4915060203d8111610fcc57610fbe818361062e565b386154ba565b919073ffffffffffffffffffffffffffffffffffffffff600c541690813b156104c057600093615549604051968795869485947fe38335e500000000000000000000000000000000000000000000000000000000865260048601614c2b565b039134905af18015610fd35761555c5750565b61067c90610589565b9594939060809361558a612b2e94615598938a5260a060208b015260a08a0190612a55565b9088820360408a0152611af5565b908682036060880152612a9f565b7fffffffffffffffffffffffffffffffffffffffffffffffffffffffffffffffff81146128eb5760010190565b80518210156137dc5760209160051b010190565b919073ffffffffffffffffffffffffffffffffffffffff80600c54163003615610575b50509050565b600090815b85518110156156b85761563a90308361562e838a6155d3565b51161461563f576155a6565b615615565b6156b361564c82876155d3565b516001815160208093012060045460801d906005600f9483860b8b5252604089205501900b6fffffffffffffffffffffffffffffffff7fffffffffffffffffffffffffffffffff000000000000000000000000000000006004549260801b16911617600455565b6155a6565b50505050905080388061560a565b9390600094808652600e60205260ff60408720541615615723575b505050505073ffffffffffffffffffffffffffffffffffffffff600c541630036157085750565b60045480600f0b9060801d600f0b1361571e5750565b600455565b73ffffffffffffffffffffffffffffffffffffffff7f00000000000000000000000000000000000000000000000000000000000000001692833b156157c95786949392916157a28692604051988997889687957feab4926900000000000000000000000000000000000000000000000000000000875260048701615565565b03925af18015610fd3576157ba575b808080806156e1565b6157c390610589565b386157b1565b8680fd5b906157d9939291612b33565b6157e28161506d565b6008811015611194578060026158079214159081615956575b81615941575b5061596c565b61584d6002615820836000526003602052604060002090565b016101007fffffffffffffffffffffffffffffffffffffffffffffffffffffffffffff00ff825416179055565b6040518181527f789cf55be980739dad1d0699b93b58e806b51c9d96619bfa8fe0a28abaa7b30c90602090a161588d81600052600d602052604060002090565b546158955790565b6158b7614cf3600c5473ffffffffffffffffffffffffffffffffffffffff1690565b6158cb82600052600d602052604060002090565b5490803b156104c0576040517fc4d252f500000000000000000000000000000000000000000000000000000000815260048101929092526000908290602490829084905af18015610fd35761592e575b506000818152600d602052604081205590565b80614e8161593b92610589565b3861591b565b6007915061594e8161137c565b141538615801565b90506159618161137c565b6006811415906157fb565b1561597357565b60646040517f08c379a000000000000000000000000000000000000000000000000000000000815260206004820152601d60248201527f476f7665726e6f723a2070726f706f73616c206e6f74206163746976650000006044820152fd5b9073ffffffffffffffffffffffffffffffffffffffff7f0000000000000000000000000000000000000000000000000000000000000000163314615a185761075f91615a30565b5050600190565b9081518110156137dc570160200190565b815160348110615b5e577f2370726f706f7365723d307800000000000000000000000000000000000000007fffffffffffffffffffffffff00000000000000000000000000000000000000007fffffffffffffffffffffffffffffffffffffffffffffffffffffffffffffffec83860101511603615b5e5791600092615ab581613542565b915b818310615adf5750505073ffffffffffffffffffffffffffffffffffffffff80911691161490565b909193615b1d615b18615af28785615a1f565b517fff000000000000000000000000000000000000000000000000000000000000001690565b615b66565b919015615b535773fffffffffffffffffffffffffffffffffffffff060ff615b4c93169160041b1617946155a6565b9190615ab7565b505050505050600190565b505050600190565b60f81c9081602f1080615c34575b15615ba45760ff7fffffffffffffffffffffffffffffffffffffffffffffffffffffffffffffffd0600193011690565b8160401080615c2a575b15615bde5760ff7fffffffffffffffffffffffffffffffffffffffffffffffffffffffffffffffc9600193011690565b8160601080615c20575b15615c185760ff7fffffffffffffffffffffffffffffffffffffffffffffffffffffffffffffffa9600193011690565b600091508190565b5060678210615be8565b5060478210615bae565b50603a8210615b7456fea2646970667358221220b4ccb68922356ffb93866def2e1b0ee43739a71aa6efdab10b6a304aa99ac1d964736f6c634300081500330553476bf02ef2726e8ce5ced78d63e26e602e4a2257b1f559418e24b4633997",
  "linkReferences": {},
  "deployedLinkReferences": {}
}