{
  "_format": "hh-sol-artifact-1",
  "contractName": "PriceUtilTest",
  "sourceName": "contracts/test/PriceUtilTest.sol",
  "abi": [
    {
      "inputs": [
        {
          "internalType": "address",
          "name": "requiredCaller",
          "type": "address"
        }
      ],
      "name": "InvalidCaller",
      "type": "error"
    },
    {
      "inputs": [
        {
          "internalType": "uint8",
          "name": "bits",
          "type": "uint8"
        },
        {
          "internalType": "uint256",
          "name": "value",
          "type": "uint256"
        }
      ],
      "name": "SafeCastOverflowedUintDowncast",
      "type": "error"
    },
    {
      "anonymous": false,
      "inputs": [
        {
          "indexed": false,
          "internalType": "uint8",
          "name": "index",
          "type": "uint8"
        },
        {
          "indexed": false,
          "internalType": "uint128",
          "name": "sizeAfter",
          "type": "uint128"
        },
        {
          "indexed": false,
          "internalType": "uint128",
          "name": "premiumRateAfterX96",
          "type": "uint128"
        }
      ],
      "name": "PriceVertexChanged",
      "type": "event"
    },
    {
      "inputs": [
        {
          "internalType": "Side",
          "name": "_globalSide",
          "type": "uint8"
        },
        {
          "internalType": "Side",
          "name": "_side",
          "type": "uint8"
        },
        {
          "internalType": "uint160",
          "name": "_indexPriceX96",
          "type": "uint160"
        },
        {
          "internalType": "uint128",
          "name": "_premiumRateX96",
          "type": "uint128"
        }
      ],
      "name": "calculateMarketPriceX96",
      "outputs": [
        {
          "internalType": "uint160",
          "name": "marketPriceX96",
          "type": "uint160"
        }
      ],
      "stateMutability": "pure",
      "type": "function"
    },
    {
      "inputs": [
        {
          "internalType": "uint8",
          "name": "startExclusive",
          "type": "uint8"
        },
        {
          "internalType": "uint8",
          "name": "endInclusive",
          "type": "uint8"
        }
      ],
      "name": "changePriceVertex",
      "outputs": [],
      "stateMutability": "nonpayable",
      "type": "function"
    },
    {
      "inputs": [],
      "name": "globalLiquidityPosition",
      "outputs": [
        {
          "internalType": "uint128",
          "name": "netSize",
          "type": "uint128"
        },
        {
          "internalType": "uint128",
          "name": "liquidationBufferNetSize",
          "type": "uint128"
        },
        {
          "internalType": "uint160",
          "name": "entryPriceX96",
          "type": "uint160"
        },
        {
          "internalType": "Side",
          "name": "side",
          "type": "uint8"
        },
        {
          "internalType": "uint128",
          "name": "liquidity",
          "type": "uint128"
        },
        {
          "internalType": "uint256",
          "name": "realizedProfitGrowthX64",
          "type": "uint256"
        }
      ],
      "stateMutability": "view",
      "type": "function"
    },
    {
      "inputs": [],
      "name": "priceState",
      "outputs": [
        {
          "internalType": "uint128",
          "name": "maxPriceImpactLiquidity",
          "type": "uint128"
        },
        {
          "internalType": "uint128",
          "name": "premiumRateX96",
          "type": "uint128"
        },
        {
          "internalType": "uint8",
          "name": "pendingVertexIndex",
          "type": "uint8"
        },
        {
          "internalType": "uint8",
          "name": "liquidationVertexIndex",
          "type": "uint8"
        },
        {
          "internalType": "uint8",
          "name": "currentVertexIndex",
          "type": "uint8"
        }
      ],
      "stateMutability": "view",
      "type": "function"
    },
    {
      "inputs": [
        {
          "components": [
            {
              "internalType": "uint128",
              "name": "netSize",
              "type": "uint128"
            },
            {
              "internalType": "uint128",
              "name": "liquidationBufferNetSize",
              "type": "uint128"
            },
            {
              "internalType": "uint160",
              "name": "entryPriceX96",
              "type": "uint160"
            },
            {
              "internalType": "Side",
              "name": "side",
              "type": "uint8"
            },
            {
              "internalType": "uint128",
              "name": "liquidity",
              "type": "uint128"
            },
            {
              "internalType": "uint256",
              "name": "realizedProfitGrowthX64",
              "type": "uint256"
            }
          ],
          "internalType": "struct IPoolLiquidityPosition.GlobalLiquidityPosition",
          "name": "_globalLiquidityPosition",
          "type": "tuple"
        }
      ],
      "name": "setGlobalLiquidityPosition",
      "outputs": [],
      "stateMutability": "nonpayable",
      "type": "function"
    },
    {
      "inputs": [
        {
          "internalType": "address",
          "name": "_poolFactory",
          "type": "address"
        }
      ],
      "name": "setPoolFactory",
      "outputs": [],
      "stateMutability": "nonpayable",
      "type": "function"
    },
    {
      "inputs": [
        {
          "internalType": "address",
          "name": "_priceFeed",
          "type": "address"
        }
      ],
      "name": "setPriceFeed",
      "outputs": [],
      "stateMutability": "nonpayable",
      "type": "function"
    },
    {
      "inputs": [
        {
          "components": [
            {
              "internalType": "uint128",
              "name": "maxPriceImpactLiquidity",
              "type": "uint128"
            },
            {
              "internalType": "uint128",
              "name": "premiumRateX96",
              "type": "uint128"
            },
            {
              "components": [
                {
                  "internalType": "uint128",
                  "name": "size",
                  "type": "uint128"
                },
                {
                  "internalType": "uint128",
                  "name": "premiumRateX96",
                  "type": "uint128"
                }
              ],
              "internalType": "struct IPool.PriceVertex[7]",
              "name": "priceVertices",
              "type": "tuple[7]"
            },
            {
              "internalType": "uint8",
              "name": "pendingVertexIndex",
              "type": "uint8"
            },
            {
              "internalType": "uint8",
              "name": "liquidationVertexIndex",
              "type": "uint8"
            },
            {
              "internalType": "uint8",
              "name": "currentVertexIndex",
              "type": "uint8"
            },
            {
              "internalType": "uint128[7]",
              "name": "liquidationBufferNetSizes",
              "type": "uint128[7]"
            }
          ],
          "internalType": "struct IPool.PriceState",
          "name": "_priceState",
          "type": "tuple"
        }
      ],
      "name": "setPriceState",
      "outputs": [],
      "stateMutability": "nonpayable",
      "type": "function"
    },
    {
      "inputs": [
        {
          "internalType": "address",
          "name": "_token",
          "type": "address"
        }
      ],
      "name": "setToken",
      "outputs": [],
      "stateMutability": "nonpayable",
      "type": "function"
    },
    {
      "inputs": [],
      "name": "token",
      "outputs": [
        {
          "internalType": "contract IERC20",
          "name": "",
          "type": "address"
        }
      ],
      "stateMutability": "view",
      "type": "function"
    },
    {
      "inputs": [],
      "name": "tradePriceX96",
      "outputs": [
        {
          "internalType": "uint160",
          "name": "",
          "type": "uint160"
        }
      ],
      "stateMutability": "view",
      "type": "function"
    },
    {
      "inputs": [
        {
          "internalType": "Side",
          "name": "_side",
          "type": "uint8"
        },
        {
          "internalType": "uint128",
          "name": "_sizeDelta",
          "type": "uint128"
        },
        {
          "internalType": "uint160",
          "name": "_indexPriceX96",
          "type": "uint160"
        },
        {
          "internalType": "bool",
          "name": "liquidation",
          "type": "bool"
        }
      ],
      "name": "updatePriceState",
      "outputs": [],
      "stateMutability": "nonpayable",
      "type": "function"
    }
  ],
  "bytecode": "0x6080806040523461001657611517908161001c8239f35b600080fdfe608080604052600436101561001357600080fd5b600090813560e01c9081630d5035c014610eb057508063144fa6d714610e335780633b04cd2614610de1578063473597a014610d6657806350c4f1ee14610cee5780635a9d0bbd14610bd85780637153e04414610a70578063724e78da146109ef578063a4683715146102f4578063a85fc2a91461025e578063b1249d64146100f95763fc0c546a146100a557600080fd5b346100f657807ffffffffffffffffffffffffffffffffffffffffffffffffffffffffffffffffc3601126100f657602073ffffffffffffffffffffffffffffffffffffffff60025416604051908152f35b80fd5b50346100f65760807ffffffffffffffffffffffffffffffffffffffffffffffffffffffffffffffffc3601126100f657610131611304565b6101396112c8565b90610142611324565b916064359081151580920361025a576fffffffffffffffffffffffffffffffff9060ff604051947f3cb3b61c000000000000000000000000000000000000000000000000000000008652600360048701526007602487015216604485015216606483015273ffffffffffffffffffffffffffffffffffffffff809316608483015260a482015260208160c48173__$805fb987dad0c1e2a5e4f2ce601198b4d3$__5af490811561024f578391610221575b50167fffffffffffffffffffffffff0000000000000000000000000000000000000000601454161760145580f35b610242915060203d8111610248575b61023a8183611263565b810190611347565b386101f3565b503d610230565b6040513d85823e3d90fd5b8480fd5b50346100f657807ffffffffffffffffffffffffffffffffffffffffffffffffffffffffffffffffc3601126100f65760c06003546fffffffffffffffffffffffffffffffff9060045460ff83600554169160065493604051958116865260801c602086015273ffffffffffffffffffffffffffffffffffffffff8116604086015260a01c166060840152608083015260a0820152f35b50346100f65760407ffffffffffffffffffffffffffffffffffffffffffffffffffffffffffffffffc3601126100f65761032c611304565b90610335611314565b3033036109bf57600660ff8216106108e7575b9073ffffffffffffffffffffffffffffffffffffffff6001541692602073ffffffffffffffffffffffffffffffffffffffff600254166024604051809781937f9fae754100000000000000000000000000000000000000000000000000000000835260048301525afa9384156108dc5782946108bb575b5060ff60016fffffffffffffffffffffffffffffffff600554166fffffffffffffffffffffffffffffffff600754168082106000146108b35750925b01165b60ff841660ff8216116108af5773ffffffffffffffffffffffffffffffffffffffff835416604073ffffffffffffffffffffffffffffffffffffffff6002541660448251809481937fbb2809f0000000000000000000000000000000000000000000000000000000008352600483015260ff871660248301525afa9384156108a35780918195610856575b508061082957506104e09073ffffffffffffffffffffffffffffffffffffffff8716906305f5e1006fffffffff0000000000000000000000006fffffffffffffffffffffffffffffffff87169260601b16046113b2565b6fffffffffffffffffffffffffffffffff81116107f1576000936fffffffffffffffffffffffffffffffff8216916fffffffffffffffffffffffffffffffff6305f5e1006fffffffff0000000000000000000000008460601b16041691600160ff8616116106cb575b5050600783101561069157608081901b7fffffffffffffffffffffffffffffffff00000000000000000000000000000000166fffffffffffffffffffffffffffffffff83161760088401557fcec50807be451eada53d341444630bc10a27787cf8a5c6012b55ce5a227229f3606060405160ff861681526fffffffffffffffffffffffffffffffff851660208201526fffffffffffffffffffffffffffffffff84166040820152a160ff861660ff841614806106be575b610612575b505060010160ff166103fe565b600760ff600185011610156106915761063360ff6001850116600801611373565b916fffffffffffffffffffffffffffffffff808451169116109182159261066c575b5050610663575b3880610605565b6006935061065c565b602001516fffffffffffffffffffffffffffffffff9081169116101590503880610655565b6024857f4e487b710000000000000000000000000000000000000000000000000000000081526032600452fd5b50600660ff871610610600565b600760ff7fffffffffffffffffffffffffffffffffffffffffffffffffffffffffffffffff87011610156107c45761072a60ff7fffffffffffffffffffffffffffffffffffffffffffffffffffffffffffffffff870116600801611373565b906fffffffffffffffffffffffffffffffff808351169316831090811591610775575b50156105495760209193506fffffffffffffffffffffffffffffffff92500151163880610549565b6fffffffffffffffffffffffffffffffff91506fffffffff0000000000000000000000006305f5e1009160601b1604166fffffffffffffffffffffffffffffffff60208301511610153861074d565b6024877f4e487b710000000000000000000000000000000000000000000000000000000081526032600452fd5b604490604051907f6dfcc650000000000000000000000000000000000000000000000000000000008252608060048301526024820152fd5b807f4e487b7100000000000000000000000000000000000000000000000000000000602492526011600452fd5b915093506040813d60401161089b575b8161087360409383611263565b810103126108975783610891602061088a846113a1565b93016113a1565b94610489565b8380fd5b3d9150610866565b604051903d90823e3d90fd5b8280f35b9050926103fb565b6108d591945060203d6020116102485761023a8183611263565b92386103bf565b6040513d84823e3d90fd5b6007811015610992576108fc81600801611373565b60ff600183011660078110156109655761091890600801611373565b6fffffffffffffffffffffffffffffffff8083511681835116119283159361094b575b5050501561034857506006610348565b81929350906020809201511692015116111538808061093b565b6024847f4e487b710000000000000000000000000000000000000000000000000000000081526032600452fd5b6024827f4e487b710000000000000000000000000000000000000000000000000000000081526032600452fd5b60246040517fcbd9d2e0000000000000000000000000000000000000000000000000000000008152306004820152fd5b50346100f65760207ffffffffffffffffffffffffffffffffffffffffffffffffffffffffffffffffc3601126100f65760043573ffffffffffffffffffffffffffffffffffffffff8116809103610a6c577fffffffffffffffffffffffff0000000000000000000000000000000000000000600154161760015580f35b5080fd5b50346100f65760c07ffffffffffffffffffffffffffffffffffffffffffffffffffffffffffffffffc3601126100f65760405160c0810181811067ffffffffffffffff821117610bab576040526020610ac76112a4565b91828152610ad36112c8565b9182910152610ae0611324565b60643560ff8116810361025a57608435936fffffffffffffffffffffffffffffffff808616809603610ba7577fffffffffffffffffffffffffffffffff00000000000000000000000000000000809560801b169116176003557fffffffffffffffffffffff00000000000000000000000000000000000000000073ffffffffffffffffffffffffffffffffffffffff74ff00000000000000000000000000000000000000006004549360a01b16931691161717600455600554161760055560a43560065580f35b8680fd5b6024837f4e487b710000000000000000000000000000000000000000000000000000000081526041600452fd5b50346100f65760807ffffffffffffffffffffffffffffffffffffffffffffffffffffffffffffffffc3601126100f657610c10611304565b610c18611314565b610c20611324565b90606435906fffffffffffffffffffffffffffffffff821680920361025a5760ff9081604051957f5a9d0bbd00000000000000000000000000000000000000000000000000000000875216600486015216602484015273ffffffffffffffffffffffffffffffffffffffff8092166044840152606483015260208260848173__$805fb987dad0c1e2a5e4f2ce601198b4d3$__5af491821561024f5760209392610ccf575b5060405191168152f35b610ce7919250833d81116102485761023a8183611263565b9038610cc5565b50346100f657807ffffffffffffffffffffffffffffffffffffffffffffffffffffffffffffffffc3601126100f65760a060075460ff600f54604051926fffffffffffffffffffffffffffffffff8116845260801c60208401528181166040840152818160081c16606084015260101c166080820152f35b50346100f65760207ffffffffffffffffffffffffffffffffffffffffffffffffffffffffffffffffc3601126100f65760043573ffffffffffffffffffffffffffffffffffffffff8116809103610a6c577fffffffffffffffffffffffff000000000000000000000000000000000000000082541617815580f35b50346100f657807ffffffffffffffffffffffffffffffffffffffffffffffffffffffffffffffffc3601126100f657602073ffffffffffffffffffffffffffffffffffffffff60145416604051908152f35b50346100f65760207ffffffffffffffffffffffffffffffffffffffffffffffffffffffffffffffffc3601126100f65760043573ffffffffffffffffffffffffffffffffffffffff8116809103610a6c577fffffffffffffffffffffffff0000000000000000000000000000000000000000600254161760025580f35b905034610a6c576103407ffffffffffffffffffffffffffffffffffffffffffffffffffffffffffffffffc360112610a6c5760e0810181811067ffffffffffffffff821117610bab57604052610f046112a4565b8152610f0e6112c8565b90602080820192835236606312156108975760405192610f2d84611247565b61020484368211610ba7576044905b8282106111be575050604084019485523560ff811681036111ba5760608401908152610224359060ff82168203610ba75760808501918252610244359560ff871687036111b65760a086019687523661028312156111b65760405193610fa185611247565b610344853682116111b25761026499989799905b828210611194575050508460c08701526fffffffffffffffffffffffffffffffff809651167fffffffffffffffffffffffffffffffff0000000000000000000000000000000080925160801b161791600792835551906008908a925b84841061112457505050505060ff9051169361ff00600f54925160081b169051947fffffffffffffffffffffffffffffffffffffffffffffffffffffffffff00000062ff0000601097881b169316171717600f5591845b600381106110c75750508392845b6001811061108657858560135580f35b90919293826110bc60019286885116908560041b60031b916fffffffffffffffffffffffffffffffff809116831b921b19161790565b950193929101611076565b8594929394865b600281106110e757508282015591939291600101611068565b95908461111b60019288855116908a60041b60031b916fffffffffffffffffffffffffffffffff809116831b921b19161790565b920196016110ce565b60018b826111848c839e9f9d9e85965182815116898b5416178a5501511687906fffffffffffffffffffffffffffffffff7fffffffffffffffffffffffffffffffff0000000000000000000000000000000083549260801b169116179055565b0193019301929199989799611011565b998080999a9b6111a3846112e7565b81520191019099989799610fb5565b8a80fd5b8780fd5b8580fd5b6040823603126111b6578460409182516111d7816111fc565b6111e0856112e7565b81526111ed8386016112e7565b83820152815201910190610f3c565b6040810190811067ffffffffffffffff82111761121857604052565b7f4e487b7100000000000000000000000000000000000000000000000000000000600052604160045260246000fd5b60e0810190811067ffffffffffffffff82111761121857604052565b90601f7fffffffffffffffffffffffffffffffffffffffffffffffffffffffffffffffe0910116810190811067ffffffffffffffff82111761121857604052565b600435906fffffffffffffffffffffffffffffffff821682036112c357565b600080fd5b602435906fffffffffffffffffffffffffffffffff821682036112c357565b35906fffffffffffffffffffffffffffffffff821682036112c357565b6004359060ff821682036112c357565b6024359060ff821682036112c357565b6044359073ffffffffffffffffffffffffffffffffffffffff821682036112c357565b908160209103126112c3575173ffffffffffffffffffffffffffffffffffffffff811681036112c35790565b90604051611380816111fc565b91546fffffffffffffffffffffffffffffffff8116835260801c6020830152565b519063ffffffff821682036112c357565b917fffffffffffffffffffffffffffffffffffffffffffffffffffffffffffffffff82840992828102928380861095039480860395146114a45784831115611446578291096001821901821680920460028082600302188083028203028083028203028083028203028083028203028083028203028092029003029360018380600003040190848311900302920304170290565b60646040517f08c379a000000000000000000000000000000000000000000000000000000000815260206004820152601560248201527f4d6174683a206d756c446976206f766572666c6f7700000000000000000000006044820152fd5b5050809250156114b2570490565b7f4e487b7100000000000000000000000000000000000000000000000000000000600052601260045260246000fdfea2646970667358221220c4a0b1c5327601c1ac28fdcf2d364ba6f17f0ad5b28d2dad16d9894c17fdb06664736f6c63430008150033",
  "linkReferences": {
    "contracts/libraries/PriceUtil.sol": {
      "PriceUtil": [
        {
          "length": 20,
          "start": 492
        },
        {
          "length": 20,
          "start": 3260
        }
      ]
    }
  },
  "deployedLinkReferences": {
    "contracts/libraries/PriceUtil.sol": {
      "PriceUtil": [
        {
          "length": 20,
          "start": 464
        },
        {
          "length": 20,
          "start": 3232
        }
      ]
    }
  }
}