{
  "_format": "hh-sol-artifact-1",
  "contractName": "USD0XX",
  "sourceName": "contracts/tokens/USD0XX.sol",
  "abi": [
    {
      "inputs": [],
      "stateMutability": "nonpayable",
      "type": "constructor"
    },
    {
      "inputs": [],
      "name": "InvalidShortString",
      "type": "error"
    },
    {
      "inputs": [
        {
          "internalType": "string",
          "name": "str",
          "type": "string"
        }
      ],
      "name": "StringTooLong",
      "type": "error"
    },
    {
      "anonymous": false,
      "inputs": [
        {
          "indexed": true,
          "internalType": "address",
          "name": "owner",
          "type": "address"
        },
        {
          "indexed": true,
          "internalType": "address",
          "name": "spender",
          "type": "address"
        },
        {
          "indexed": false,
          "internalType": "uint256",
          "name": "value",
          "type": "uint256"
        }
      ],
      "name": "Approval",
      "type": "event"
    },
    {
      "anonymous": false,
      "inputs": [],
      "name": "EIP712DomainChanged",
      "type": "event"
    },
    {
      "anonymous": false,
      "inputs": [
        {
          "indexed": true,
          "internalType": "address",
          "name": "previousOwner",
          "type": "address"
        },
        {
          "indexed": true,
          "internalType": "address",
          "name": "newOwner",
          "type": "address"
        }
      ],
      "name": "OwnershipTransferred",
      "type": "event"
    },
    {
      "anonymous": false,
      "inputs": [
        {
          "indexed": true,
          "internalType": "address",
          "name": "from",
          "type": "address"
        },
        {
          "indexed": true,
          "internalType": "address",
          "name": "to",
          "type": "address"
        },
        {
          "indexed": false,
          "internalType": "uint256",
          "name": "value",
          "type": "uint256"
        }
      ],
      "name": "Transfer",
      "type": "event"
    },
    {
      "inputs": [],
      "name": "DOMAIN_SEPARATOR",
      "outputs": [
        {
          "internalType": "bytes32",
          "name": "",
          "type": "bytes32"
        }
      ],
      "stateMutability": "view",
      "type": "function"
    },
    {
      "inputs": [
        {
          "internalType": "address",
          "name": "owner",
          "type": "address"
        },
        {
          "internalType": "address",
          "name": "spender",
          "type": "address"
        }
      ],
      "name": "allowance",
      "outputs": [
        {
          "internalType": "uint256",
          "name": "",
          "type": "uint256"
        }
      ],
      "stateMutability": "view",
      "type": "function"
    },
    {
      "inputs": [
        {
          "internalType": "address",
          "name": "spender",
          "type": "address"
        },
        {
          "internalType": "uint256",
          "name": "amount",
          "type": "uint256"
        }
      ],
      "name": "approve",
      "outputs": [
        {
          "internalType": "bool",
          "name": "",
          "type": "bool"
        }
      ],
      "stateMutability": "nonpayable",
      "type": "function"
    },
    {
      "inputs": [
        {
          "internalType": "address",
          "name": "account",
          "type": "address"
        }
      ],
      "name": "balanceOf",
      "outputs": [
        {
          "internalType": "uint256",
          "name": "",
          "type": "uint256"
        }
      ],
      "stateMutability": "view",
      "type": "function"
    },
    {
      "inputs": [],
      "name": "decimals",
      "outputs": [
        {
          "internalType": "uint8",
          "name": "",
          "type": "uint8"
        }
      ],
      "stateMutability": "view",
      "type": "function"
    },
    {
      "inputs": [
        {
          "internalType": "address",
          "name": "spender",
          "type": "address"
        },
        {
          "internalType": "uint256",
          "name": "subtractedValue",
          "type": "uint256"
        }
      ],
      "name": "decreaseAllowance",
      "outputs": [
        {
          "internalType": "bool",
          "name": "",
          "type": "bool"
        }
      ],
      "stateMutability": "nonpayable",
      "type": "function"
    },
    {
      "inputs": [],
      "name": "eip712Domain",
      "outputs": [
        {
          "internalType": "bytes1",
          "name": "fields",
          "type": "bytes1"
        },
        {
          "internalType": "string",
          "name": "name",
          "type": "string"
        },
        {
          "internalType": "string",
          "name": "version",
          "type": "string"
        },
        {
          "internalType": "uint256",
          "name": "chainId",
          "type": "uint256"
        },
        {
          "internalType": "address",
          "name": "verifyingContract",
          "type": "address"
        },
        {
          "internalType": "bytes32",
          "name": "salt",
          "type": "bytes32"
        },
        {
          "internalType": "uint256[]",
          "name": "extensions",
          "type": "uint256[]"
        }
      ],
      "stateMutability": "view",
      "type": "function"
    },
    {
      "inputs": [
        {
          "internalType": "address",
          "name": "spender",
          "type": "address"
        },
        {
          "internalType": "uint256",
          "name": "addedValue",
          "type": "uint256"
        }
      ],
      "name": "increaseAllowance",
      "outputs": [
        {
          "internalType": "bool",
          "name": "",
          "type": "bool"
        }
      ],
      "stateMutability": "nonpayable",
      "type": "function"
    },
    {
      "inputs": [
        {
          "internalType": "address",
          "name": "to",
          "type": "address"
        },
        {
          "internalType": "uint256",
          "name": "amount",
          "type": "uint256"
        }
      ],
      "name": "mint",
      "outputs": [],
      "stateMutability": "nonpayable",
      "type": "function"
    },
    {
      "inputs": [],
      "name": "name",
      "outputs": [
        {
          "internalType": "string",
          "name": "",
          "type": "string"
        }
      ],
      "stateMutability": "view",
      "type": "function"
    },
    {
      "inputs": [
        {
          "internalType": "address",
          "name": "owner",
          "type": "address"
        }
      ],
      "name": "nonces",
      "outputs": [
        {
          "internalType": "uint256",
          "name": "",
          "type": "uint256"
        }
      ],
      "stateMutability": "view",
      "type": "function"
    },
    {
      "inputs": [],
      "name": "owner",
      "outputs": [
        {
          "internalType": "address",
          "name": "",
          "type": "address"
        }
      ],
      "stateMutability": "view",
      "type": "function"
    },
    {
      "inputs": [
        {
          "internalType": "address",
          "name": "owner",
          "type": "address"
        },
        {
          "internalType": "address",
          "name": "spender",
          "type": "address"
        },
        {
          "internalType": "uint256",
          "name": "value",
          "type": "uint256"
        },
        {
          "internalType": "uint256",
          "name": "deadline",
          "type": "uint256"
        },
        {
          "internalType": "uint8",
          "name": "v",
          "type": "uint8"
        },
        {
          "internalType": "bytes32",
          "name": "r",
          "type": "bytes32"
        },
        {
          "internalType": "bytes32",
          "name": "s",
          "type": "bytes32"
        }
      ],
      "name": "permit",
      "outputs": [],
      "stateMutability": "nonpayable",
      "type": "function"
    },
    {
      "inputs": [],
      "name": "renounceOwnership",
      "outputs": [],
      "stateMutability": "nonpayable",
      "type": "function"
    },
    {
      "inputs": [],
      "name": "symbol",
      "outputs": [
        {
          "internalType": "string",
          "name": "",
          "type": "string"
        }
      ],
      "stateMutability": "view",
      "type": "function"
    },
    {
      "inputs": [],
      "name": "totalSupply",
      "outputs": [
        {
          "internalType": "uint256",
          "name": "",
          "type": "uint256"
        }
      ],
      "stateMutability": "view",
      "type": "function"
    },
    {
      "inputs": [
        {
          "internalType": "address",
          "name": "to",
          "type": "address"
        },
        {
          "internalType": "uint256",
          "name": "amount",
          "type": "uint256"
        }
      ],
      "name": "transfer",
      "outputs": [
        {
          "internalType": "bool",
          "name": "",
          "type": "bool"
        }
      ],
      "stateMutability": "nonpayable",
      "type": "function"
    },
    {
      "inputs": [
        {
          "internalType": "address",
          "name": "from",
          "type": "address"
        },
        {
          "internalType": "address",
          "name": "to",
          "type": "address"
        },
        {
          "internalType": "uint256",
          "name": "amount",
          "type": "uint256"
        }
      ],
      "name": "transferFrom",
      "outputs": [
        {
          "internalType": "bool",
          "name": "",
          "type": "bool"
        }
      ],
      "stateMutability": "nonpayable",
      "type": "function"
    },
    {
      "inputs": [
        {
          "internalType": "address",
          "name": "newOwner",
          "type": "address"
        }
      ],
      "name": "transferOwnership",
      "outputs": [],
      "stateMutability": "nonpayable",
      "type": "function"
    }
  ],
  "bytecode": "0x6101606040818152346200051c57620000188262000521565b6006825260209182810191650aaa68860b0b60d31b938484528151946200003f8662000521565b6006865281860152815190620000558262000521565b600491828152630aaa688b60e31b82820152835196620000758862000521565b6001808952603160f81b848a0190815282516001600160401b03949192919085811162000507576003908154958487811c97168015620004fc575b89881014620003fe578190601f97888111620004a6575b5089908883116001146200043f5760009262000433575b505060001982841b1c191690841b1781555b8151918683116200041e5788548481811c9116801562000413575b89821014620003fe57868111620003b3575b50879086841160011462000348579383949184926000956200033c575b50501b92600019911b1c19161785555b60058054336001600160a01b0319821681179092556001600160a01b03167f8be0079c531659141344cd1fd0a4f28419497f9722a3daafe3b4186f6b6457e0600080a3620001988762000553565b97610120988952620001aa8a62000730565b97610140988952519020988960e0525190209061010098828a524660a052865192858401917f8b73c3c69bb8fe3d512ecc4cf759cc79239f7b179b0ffacaa9a75d522b39400f83528885015260608401524660808401523060a084015260a0835260c0830193838510908511176200032757838752825190206080523060c0523315620002e757505050600254655af3107a400092838201809211620002d257506000917fddf252ad1be2c89b69c2b068fc378daa952ba7f163c4a11628f55a4df523b3ef9160025533835282815284832084815401905584519384523393a35191611ab89384620008e985396080518461179f015260a0518461186b015260c05184611770015260e051846117ee01525183611814015251826107fa015251816108240152f35b601190634e487b7160e01b6000525260246000fd5b7f45524332303a206d696e7420746f20746865207a65726f206164647265737300916101049160649562461bcd60e51b865260c483015260e48201520152fd5b604186634e487b7160e01b6000525260246000fd5b0151935038806200013a565b9190601f198416928a600052848a6000209460005b8c898383106200039b575050501062000380575b50505050811b0185556200014a565b01519060f884600019921b161c191690553880808062000371565b8686015189559097019694850194889350016200035d565b89600052886000208780860160051c8201928b8710620003f4575b0160051c019085905b828110620003e75750506200011d565b60008155018590620003d7565b92508192620003ce565b60228a634e487b7160e01b6000525260246000fd5b90607f16906200010b565b604189634e487b7160e01b6000525260246000fd5b015190503880620000de565b90869350601f19831691856000528b6000209260005b8d8282106200048f575050841162000476575b505050811b018155620000f0565b015160001983861b60f8161c1916905538808062000468565b8385015186558a9790950194938401930162000455565b90915083600052896000208880850160051c8201928c8610620004f2575b918891869594930160051c01915b828110620004e2575050620000c7565b60008155859450889101620004d2565b92508192620004c4565b96607f1696620000b0565b604188634e487b7160e01b6000525260246000fd5b600080fd5b604081019081106001600160401b038211176200053d57604052565b634e487b7160e01b600052604160045260246000fd5b805160209081811015620005f05750601f8251116200058f57808251920151908083106200058057501790565b82600019910360031b1b161790565b90604051809263305a27a960e01b82528060048301528251908160248401526000935b828510620005d6575050604492506000838284010152601f80199101168101030190fd5b8481018201518686016044015293810193859350620005b2565b906001600160401b0382116200053d57600654926001938481811c9116801562000725575b838210146200070f57601f8111620006d5575b5081601f84116001146200066957509282939183926000946200065d575b50501b916000199060031b1c19161760065560ff90565b01519250388062000646565b919083601f198116600660005284600020946000905b88838310620006ba5750505010620006a0575b505050811b0160065560ff90565b015160001960f88460031b161c1916905538808062000692565b8587015188559096019594850194879350908101906200067f565b600660005284601f84600020920160051c820191601f860160051c015b8281106200070257505062000628565b60008155018590620006f2565b634e487b7160e01b600052602260045260246000fd5b90607f169062000615565b805160209081811015620007be5750601f8251116200075d57808251920151908083106200058057501790565b90604051809263305a27a960e01b82528060048301528251908160248401526000935b828510620007a4575050604492506000838284010152601f80199101168101030190fd5b848101820151868601604401529381019385935062000780565b906001600160401b0382116200053d57600754926001938481811c91168015620008dd575b838210146200070f57601f8111620008a3575b5081601f84116001146200083757509282939183926000946200082b575b50501b916000199060031b1c19161760075560ff90565b01519250388062000814565b919083601f198116600760005284600020946000905b888383106200088857505050106200086e575b505050811b0160075560ff90565b015160001960f88460031b161c1916905538808062000860565b8587015188559096019594850194879350908101906200084d565b600760005284601f84600020920160051c820191601f860160051c015b828110620008d0575050620007f6565b60008155018590620008c0565b90607f1690620007e356fe6080604081815260048036101561001557600080fd5b600092833560e01c90816306fdde0314610e4a57508063095ea7b314610e0257806318160ddd14610dc557806323b872dd14610c97578063313ce56714610c5d5780633644e51514610c1b5780633950935114610ba157806340c10f1914610a9657806370a0823114610a35578063715018a6146109975780637ecebe001461093557806384b0196e146107c55780638da5cb5b1461077257806395d89b4114610648578063a457c2d714610543578063a9059cbb146104f4578063d505accf146102a7578063dd62ed3e1461022f5763f2fde38b146100f457600080fd5b3461022b5760207ffffffffffffffffffffffffffffffffffffffffffffffffffffffffffffffffc36011261022b5761012b610fbb565b90610134611006565b73ffffffffffffffffffffffffffffffffffffffff8092169283156101a8575050600554827fffffffffffffffffffffffff0000000000000000000000000000000000000000821617600555167f8be0079c531659141344cd1fd0a4f28419497f9722a3daafe3b4186f6b6457e08380a380f35b90602060849251917f08c379a0000000000000000000000000000000000000000000000000000000008352820152602660248201527f4f776e61626c653a206e6577206f776e657220697320746865207a65726f206160448201527f64647265737300000000000000000000000000000000000000000000000000006064820152fd5b8280fd5b5050346102a357807ffffffffffffffffffffffffffffffffffffffffffffffffffffffffffffffffc3601126102a3578060209261026b610fbb565b610273610fe3565b73ffffffffffffffffffffffffffffffffffffffff91821683526001865283832091168252845220549051908152f35b5080fd5b508290346102a35760e07ffffffffffffffffffffffffffffffffffffffffffffffffffffffffffffffffc3601126102a3576102e1610fbb565b6102e9610fe3565b906044359260643560843560ff811681036104f0578142116104935773ffffffffffffffffffffffffffffffffffffffff90818516928389526008602052898920908154916001830190558a519060208201927f6e71edae12b1b97f4d1f60370fef10105fa2faae0126114a169c64845d6126c98452868d840152858a1660608401528a608084015260a083015260c082015260c0815260e0810181811067ffffffffffffffff821117610467578b525190206103f5916103ed916103ac611759565b908c51917f190100000000000000000000000000000000000000000000000000000000000083526002830152602282015260c43591604260a43592206116bd565b919091611524565b160361040a57506104079394506113af565b80f35b60649060208751917f08c379a0000000000000000000000000000000000000000000000000000000008352820152601e60248201527f45524332305065726d69743a20696e76616c6964207369676e617475726500006044820152fd5b60248b6041897f4e487b7100000000000000000000000000000000000000000000000000000000835252fd5b60648360208a51917f08c379a0000000000000000000000000000000000000000000000000000000008352820152601d60248201527f45524332305065726d69743a206578706972656420646561646c696e650000006044820152fd5b8680fd5b5050346102a357807ffffffffffffffffffffffffffffffffffffffffffffffffffffffffffffffffc3601126102a35760209061053c610532610fbb565b60243590336111a0565b5160018152f35b50823461064557827ffffffffffffffffffffffffffffffffffffffffffffffffffffffffffffffffc3601126106455761057b610fbb565b918360243592338152600160205281812073ffffffffffffffffffffffffffffffffffffffff861682526020522054908282106105c25760208561053c85850387336113af565b60849060208651917f08c379a0000000000000000000000000000000000000000000000000000000008352820152602560248201527f45524332303a2064656372656173656420616c6c6f77616e63652062656c6f7760448201527f207a65726f0000000000000000000000000000000000000000000000000000006064820152fd5b80fd5b50903461022b57827ffffffffffffffffffffffffffffffffffffffffffffffffffffffffffffffffc36011261022b57805183819490845461068981611085565b9182855260209660019288848216918260001461072a5750506001146106cf575b85886106cb896106bc848a0385611123565b51928284938452830190610f5d565b0390f35b815286935091907f8a35acfbc15ff81a39ae7d344fd709f28e8600b4aa8c65c6b64bfe7fe36bd19b5b82841061071257505050820101816106bc6106cb386106aa565b8054848a0186015288955087949093019281016106f8565b7fffffffffffffffffffffffffffffffffffffffffffffffffffffffffffffff00168882015294151560051b870190940194508593506106bc92506106cb91503890506106aa565b5050346102a357817ffffffffffffffffffffffffffffffffffffffffffffffffffffffffffffffffc3601126102a35760209073ffffffffffffffffffffffffffffffffffffffff600554169051908152f35b50903461022b57827ffffffffffffffffffffffffffffffffffffffffffffffffffffffffffffffffc36011261022b5761081e7f0000000000000000000000000000000000000000000000000000000000000000611891565b926108487f00000000000000000000000000000000000000000000000000000000000000006119c5565b908251926020928385019585871067ffffffffffffffff881117610909575092806108bf8388966108b2998b9996528686528151998a997f0f000000000000000000000000000000000000000000000000000000000000008b5260e0868c015260e08b0190610f5d565b91898303908a0152610f5d565b924660608801523060808801528460a088015286840360c088015251928381520193925b8281106108f257505050500390f35b8351855286955093810193928101926001016108e3565b8360416024927f4e487b7100000000000000000000000000000000000000000000000000000000835252fd5b5050346102a35760207ffffffffffffffffffffffffffffffffffffffffffffffffffffffffffffffffc3601126102a3578060209273ffffffffffffffffffffffffffffffffffffffff610987610fbb565b1681526008845220549051908152f35b833461064557807ffffffffffffffffffffffffffffffffffffffffffffffffffffffffffffffffc360112610645576109ce611006565b8073ffffffffffffffffffffffffffffffffffffffff6005547fffffffffffffffffffffffff00000000000000000000000000000000000000008116600555167f8be0079c531659141344cd1fd0a4f28419497f9722a3daafe3b4186f6b6457e08280a380f35b5050346102a35760207ffffffffffffffffffffffffffffffffffffffffffffffffffffffffffffffffc3601126102a3578060209273ffffffffffffffffffffffffffffffffffffffff610a87610fbb565b16815280845220549051908152f35b50903461022b57807ffffffffffffffffffffffffffffffffffffffffffffffffffffffffffffffffc36011261022b57610ace610fbb565b9073ffffffffffffffffffffffffffffffffffffffff60243592610af0611006565b16928315610b4557506020827fddf252ad1be2c89b69c2b068fc378daa952ba7f163c4a11628f55a4df523b3ef92610b2b8795600254611164565b60025585855284835280852082815401905551908152a380f35b602060649251917f08c379a0000000000000000000000000000000000000000000000000000000008352820152601f60248201527f45524332303a206d696e7420746f20746865207a65726f2061646472657373006044820152fd5b5050346102a357807ffffffffffffffffffffffffffffffffffffffffffffffffffffffffffffffffc3601126102a35761053c602092610c14610be2610fbb565b913381526001865284812073ffffffffffffffffffffffffffffffffffffffff84168252865284602435912054611164565b90336113af565b5050346102a357817ffffffffffffffffffffffffffffffffffffffffffffffffffffffffffffffffc3601126102a357602090610c56611759565b9051908152f35b5050346102a357817ffffffffffffffffffffffffffffffffffffffffffffffffffffffffffffffffc3601126102a3576020905160068152f35b508290346102a35760607ffffffffffffffffffffffffffffffffffffffffffffffffffffffffffffffffc3601126102a357610cd1610fbb565b610cd9610fe3565b91846044359473ffffffffffffffffffffffffffffffffffffffff8416815260016020528181203382526020522054907fffffffffffffffffffffffffffffffffffffffffffffffffffffffffffffffff8203610d3f575b60208661053c8787876111a0565b848210610d685750918391610d5d6020969561053c950333836113af565b919394819350610d31565b60649060208751917f08c379a0000000000000000000000000000000000000000000000000000000008352820152601d60248201527f45524332303a20696e73756666696369656e7420616c6c6f77616e63650000006044820152fd5b5050346102a357817ffffffffffffffffffffffffffffffffffffffffffffffffffffffffffffffffc3601126102a3576020906002549051908152f35b5050346102a357807ffffffffffffffffffffffffffffffffffffffffffffffffffffffffffffffffc3601126102a35760209061053c610e40610fbb565b60243590336113af565b8484346102a357817ffffffffffffffffffffffffffffffffffffffffffffffffffffffffffffffffc3601126102a3578282600354610e8881611085565b90818452602095600191878382169182600014610f18575050600114610ebc575b5050506106cb92916106bc910385611123565b9190869350600383527fc2575a0e9e593c00f959f8c92f12db2869c3395a3b0502d05e2516446f71f85b5b828410610f0057505050820101816106bc6106cb610ea9565b8054848a018601528895508794909301928101610ee7565b7fffffffffffffffffffffffffffffffffffffffffffffffffffffffffffffff00168782015293151560051b860190930193508492506106bc91506106cb9050610ea9565b919082519283825260005b848110610fa75750507fffffffffffffffffffffffffffffffffffffffffffffffffffffffffffffffe0601f8460006020809697860101520116010190565b602081830181015184830182015201610f68565b6004359073ffffffffffffffffffffffffffffffffffffffff82168203610fde57565b600080fd5b6024359073ffffffffffffffffffffffffffffffffffffffff82168203610fde57565b73ffffffffffffffffffffffffffffffffffffffff60055416330361102757565b60646040517f08c379a000000000000000000000000000000000000000000000000000000000815260206004820152602060248201527f4f776e61626c653a2063616c6c6572206973206e6f7420746865206f776e65726044820152fd5b90600182811c921680156110ce575b602083101461109f57565b7f4e487b7100000000000000000000000000000000000000000000000000000000600052602260045260246000fd5b91607f1691611094565b6040810190811067ffffffffffffffff8211176110f457604052565b7f4e487b7100000000000000000000000000000000000000000000000000000000600052604160045260246000fd5b90601f7fffffffffffffffffffffffffffffffffffffffffffffffffffffffffffffffe0910116810190811067ffffffffffffffff8211176110f457604052565b9190820180921161117157565b7f4e487b7100000000000000000000000000000000000000000000000000000000600052601160045260246000fd5b73ffffffffffffffffffffffffffffffffffffffff80911691821561132b57169182156112a75760008281528060205260408120549180831061122357604082827fddf252ad1be2c89b69c2b068fc378daa952ba7f163c4a11628f55a4df523b3ef958760209652828652038282205586815220818154019055604051908152a3565b60846040517f08c379a000000000000000000000000000000000000000000000000000000000815260206004820152602660248201527f45524332303a207472616e7366657220616d6f756e742065786365656473206260448201527f616c616e636500000000000000000000000000000000000000000000000000006064820152fd5b60846040517f08c379a000000000000000000000000000000000000000000000000000000000815260206004820152602360248201527f45524332303a207472616e7366657220746f20746865207a65726f206164647260448201527f65737300000000000000000000000000000000000000000000000000000000006064820152fd5b60846040517f08c379a000000000000000000000000000000000000000000000000000000000815260206004820152602560248201527f45524332303a207472616e736665722066726f6d20746865207a65726f20616460448201527f64726573730000000000000000000000000000000000000000000000000000006064820152fd5b73ffffffffffffffffffffffffffffffffffffffff8091169182156114a1571691821561141d5760207f8c5be1e5ebec7d5bd14f71427d1e84f3dd0314c0f7b2291e5b200ac8c7c3b925918360005260018252604060002085600052825280604060002055604051908152a3565b60846040517f08c379a000000000000000000000000000000000000000000000000000000000815260206004820152602260248201527f45524332303a20617070726f766520746f20746865207a65726f20616464726560448201527f73730000000000000000000000000000000000000000000000000000000000006064820152fd5b60846040517f08c379a0000000000000000000000000000000000000000000000000000000008152602060048201526024808201527f45524332303a20617070726f76652066726f6d20746865207a65726f2061646460448201527f72657373000000000000000000000000000000000000000000000000000000006064820152fd5b600581101561168e57806115355750565b6001810361159b5760646040517f08c379a000000000000000000000000000000000000000000000000000000000815260206004820152601860248201527f45434453413a20696e76616c6964207369676e617475726500000000000000006044820152fd5b600281036116015760646040517f08c379a000000000000000000000000000000000000000000000000000000000815260206004820152601f60248201527f45434453413a20696e76616c6964207369676e6174757265206c656e677468006044820152fd5b60031461160a57565b60846040517f08c379a000000000000000000000000000000000000000000000000000000000815260206004820152602260248201527f45434453413a20696e76616c6964207369676e6174757265202773272076616c60448201527f75650000000000000000000000000000000000000000000000000000000000006064820152fd5b7f4e487b7100000000000000000000000000000000000000000000000000000000600052602160045260246000fd5b9291907f7fffffffffffffffffffffffffffffff5d576e7357a4501ddfe92f46681b20a0831161174d5791608094939160ff602094604051948552168484015260408301526060820152600093849182805260015afa1561174057815173ffffffffffffffffffffffffffffffffffffffff81161561173a579190565b50600190565b50604051903d90823e3d90fd5b50505050600090600390565b73ffffffffffffffffffffffffffffffffffffffff7f000000000000000000000000000000000000000000000000000000000000000016301480611868575b156117c1577f000000000000000000000000000000000000000000000000000000000000000090565b60405160208101907f8b73c3c69bb8fe3d512ecc4cf759cc79239f7b179b0ffacaa9a75d522b39400f82527f000000000000000000000000000000000000000000000000000000000000000060408201527f000000000000000000000000000000000000000000000000000000000000000060608201524660808201523060a082015260a0815260c0810181811067ffffffffffffffff8211176110f45760405251902090565b507f00000000000000000000000000000000000000000000000000000000000000004614611798565b60ff81146118e75760ff811690601f82116118bd57604051916118b3836110d8565b8252602082015290565b60046040517fb3512b0c000000000000000000000000000000000000000000000000000000008152fd5b506040516006548160006118fa83611085565b8083526020936001908181169081156119865750600114611927575b505061192492500382611123565b90565b9093915060066000527ff652222313e28459528d920b65115c16c04f3efc82aaedc97be59f3f377c0d3f936000915b81831061196e57505061192493508201013880611916565b85548784018501529485019486945091830191611956565b90506119249593507fffffffffffffffffffffffffffffffffffffffffffffffffffffffffffffff0091501682840152151560051b8201013880611916565b60ff81146119e75760ff811690601f82116118bd57604051916118b3836110d8565b506040516007548160006119fa83611085565b8083526020936001908181169081156119865750600114611a2357505061192492500382611123565b9093915060076000527fa66cc928b5edb82af9bd49922954155ab7b0942694bea4ce44661d9a8736c688936000915b818310611a6a57505061192493508201013880611916565b85548784018501529485019486945091830191611a5256fea26469706673582212200bc37745c513a948a17e0d64236c72d573c278d6132dd1967c3ae4d9bece7af564736f6c63430008150033",
  "linkReferences": {},
  "deployedLinkReferences": {}
}