{
  "_format": "hh-sol-artifact-1",
  "contractName": "FeeDistributor",
  "sourceName": "contracts/staking/FeeDistributor.sol",
  "abi": [
    {
      "inputs": [
        {
          "internalType": "contract IEFC",
          "name": "_EFC",
          "type": "address"
        },
        {
          "internalType": "contract IERC20",
          "name": "_EQU",
          "type": "address"
        },
        {
          "internalType": "contract IERC20",
          "name": "_WETH",
          "type": "address"
        },
        {
          "internalType": "contract IERC20",
          "name": "_veEQU",
          "type": "address"
        },
        {
          "internalType": "contract IERC20",
          "name": "_feeToken",
          "type": "address"
        },
        {
          "internalType": "contract Router",
          "name": "_router",
          "type": "address"
        },
        {
          "internalType": "contract IUniswapV3PoolFactoryMinimum",
          "name": "_v3PoolFactory",
          "type": "address"
        },
        {
          "internalType": "contract IPositionManagerMinimum",
          "name": "_v3PositionManager",
          "type": "address"
        },
        {
          "internalType": "uint16",
          "name": "_withdrawalPeriod",
          "type": "uint16"
        }
      ],
      "stateMutability": "nonpayable",
      "type": "constructor"
    },
    {
      "inputs": [
        {
          "internalType": "uint256",
          "name": "depositAmount",
          "type": "uint256"
        },
        {
          "internalType": "uint256",
          "name": "balance",
          "type": "uint256"
        }
      ],
      "name": "DepositAmountIsGreaterThanTheTransfer",
      "type": "error"
    },
    {
      "inputs": [],
      "name": "DepositConditionNotMet",
      "type": "error"
    },
    {
      "inputs": [],
      "name": "ExchangeableEQUAmountIsZero",
      "type": "error"
    },
    {
      "inputs": [],
      "name": "Forbidden",
      "type": "error"
    },
    {
      "inputs": [
        {
          "internalType": "address",
          "name": "caller",
          "type": "address"
        }
      ],
      "name": "InvalidCaller",
      "type": "error"
    },
    {
      "inputs": [
        {
          "internalType": "uint16",
          "name": "period",
          "type": "uint16"
        }
      ],
      "name": "InvalidLockupPeriod",
      "type": "error"
    },
    {
      "inputs": [
        {
          "internalType": "address",
          "name": "owner",
          "type": "address"
        },
        {
          "internalType": "uint256",
          "name": "tokenID",
          "type": "uint256"
        }
      ],
      "name": "InvalidNFTOwner",
      "type": "error"
    },
    {
      "inputs": [
        {
          "internalType": "uint256",
          "name": "id",
          "type": "uint256"
        }
      ],
      "name": "InvalidStakeID",
      "type": "error"
    },
    {
      "inputs": [],
      "name": "InvalidTick",
      "type": "error"
    },
    {
      "inputs": [
        {
          "internalType": "uint24",
          "name": "fee",
          "type": "uint24"
        }
      ],
      "name": "InvalidUniswapV3Fee",
      "type": "error"
    },
    {
      "inputs": [
        {
          "internalType": "address",
          "name": "token0",
          "type": "address"
        },
        {
          "internalType": "address",
          "name": "token1",
          "type": "address"
        }
      ],
      "name": "InvalidUniswapV3PositionNFT",
      "type": "error"
    },
    {
      "inputs": [
        {
          "internalType": "uint256",
          "name": "id",
          "type": "uint256"
        }
      ],
      "name": "NotYetReachedTheUnlockingTime",
      "type": "error"
    },
    {
      "inputs": [],
      "name": "ReentrancyGuardReentrantCall",
      "type": "error"
    },
    {
      "inputs": [
        {
          "internalType": "int24",
          "name": "tickLower",
          "type": "int24"
        },
        {
          "internalType": "int24",
          "name": "tickUpper",
          "type": "int24"
        },
        {
          "internalType": "int24",
          "name": "tickSpacing",
          "type": "int24"
        }
      ],
      "name": "RequireFullRangePosition",
      "type": "error"
    },
    {
      "inputs": [
        {
          "internalType": "uint8",
          "name": "bits",
          "type": "uint8"
        },
        {
          "internalType": "int256",
          "name": "value",
          "type": "int256"
        }
      ],
      "name": "SafeCastOverflowedIntDowncast",
      "type": "error"
    },
    {
      "inputs": [
        {
          "internalType": "uint8",
          "name": "bits",
          "type": "uint8"
        },
        {
          "internalType": "uint256",
          "name": "value",
          "type": "uint256"
        }
      ],
      "name": "SafeCastOverflowedUintDowncast",
      "type": "error"
    },
    {
      "inputs": [
        {
          "internalType": "address",
          "name": "token",
          "type": "address"
        }
      ],
      "name": "SafeERC20FailedOperation",
      "type": "error"
    },
    {
      "anonymous": false,
      "inputs": [
        {
          "indexed": true,
          "internalType": "address",
          "name": "receiver",
          "type": "address"
        },
        {
          "indexed": true,
          "internalType": "uint256",
          "name": "tokenID",
          "type": "uint256"
        },
        {
          "indexed": false,
          "internalType": "uint256",
          "name": "amount",
          "type": "uint256"
        }
      ],
      "name": "ArchitectCollected",
      "type": "event"
    },
    {
      "anonymous": false,
      "inputs": [
        {
          "indexed": true,
          "internalType": "address",
          "name": "previousGov",
          "type": "address"
        },
        {
          "indexed": true,
          "internalType": "address",
          "name": "newGov",
          "type": "address"
        }
      ],
      "name": "ChangeGovStarted",
      "type": "event"
    },
    {
      "anonymous": false,
      "inputs": [
        {
          "indexed": true,
          "internalType": "address",
          "name": "owner",
          "type": "address"
        },
        {
          "indexed": true,
          "internalType": "address",
          "name": "receiver",
          "type": "address"
        },
        {
          "indexed": true,
          "internalType": "uint256",
          "name": "id",
          "type": "uint256"
        },
        {
          "indexed": false,
          "internalType": "uint256",
          "name": "amount",
          "type": "uint256"
        }
      ],
      "name": "Collected",
      "type": "event"
    },
    {
      "anonymous": false,
      "inputs": [
        {
          "indexed": false,
          "internalType": "uint256",
          "name": "amount",
          "type": "uint256"
        },
        {
          "indexed": false,
          "internalType": "uint256",
          "name": "equFeeAmount",
          "type": "uint256"
        },
        {
          "indexed": false,
          "internalType": "uint256",
          "name": "architectFeeAmount",
          "type": "uint256"
        },
        {
          "indexed": false,
          "internalType": "uint160",
          "name": "perShareGrowthAfterX64",
          "type": "uint160"
        },
        {
          "indexed": false,
          "internalType": "uint160",
          "name": "architectPerShareGrowthAfterX64",
          "type": "uint160"
        }
      ],
      "name": "FeeDeposited",
      "type": "event"
    },
    {
      "anonymous": false,
      "inputs": [
        {
          "indexed": true,
          "internalType": "address",
          "name": "previousGov",
          "type": "address"
        },
        {
          "indexed": true,
          "internalType": "address",
          "name": "newGov",
          "type": "address"
        }
      ],
      "name": "GovChanged",
      "type": "event"
    },
    {
      "anonymous": false,
      "inputs": [
        {
          "components": [
            {
              "internalType": "uint16",
              "name": "period",
              "type": "uint16"
            },
            {
              "internalType": "uint16",
              "name": "multiplier",
              "type": "uint16"
            }
          ],
          "indexed": false,
          "internalType": "struct IFeeDistributor.LockupRewardMultiplierParameter[]",
          "name": "lockupRewardMultiplierParameters",
          "type": "tuple[]"
        }
      ],
      "name": "LockupRewardMultipliersSet",
      "type": "event"
    },
    {
      "anonymous": false,
      "inputs": [
        {
          "indexed": true,
          "internalType": "address",
          "name": "sender",
          "type": "address"
        },
        {
          "indexed": true,
          "internalType": "address",
          "name": "account",
          "type": "address"
        },
        {
          "indexed": true,
          "internalType": "uint256",
          "name": "id",
          "type": "uint256"
        },
        {
          "indexed": false,
          "internalType": "uint256",
          "name": "amount",
          "type": "uint256"
        },
        {
          "indexed": false,
          "internalType": "uint16",
          "name": "period",
          "type": "uint16"
        }
      ],
      "name": "Staked",
      "type": "event"
    },
    {
      "anonymous": false,
      "inputs": [
        {
          "indexed": true,
          "internalType": "address",
          "name": "owner",
          "type": "address"
        },
        {
          "indexed": true,
          "internalType": "address",
          "name": "receiver",
          "type": "address"
        },
        {
          "indexed": true,
          "internalType": "uint256",
          "name": "id",
          "type": "uint256"
        },
        {
          "indexed": false,
          "internalType": "uint256",
          "name": "amount0",
          "type": "uint256"
        },
        {
          "indexed": false,
          "internalType": "uint256",
          "name": "amount1",
          "type": "uint256"
        }
      ],
      "name": "Unstaked",
      "type": "event"
    },
    {
      "anonymous": false,
      "inputs": [
        {
          "indexed": true,
          "internalType": "address",
          "name": "owner",
          "type": "address"
        },
        {
          "indexed": true,
          "internalType": "address",
          "name": "receiver",
          "type": "address"
        },
        {
          "indexed": true,
          "internalType": "uint256",
          "name": "id",
          "type": "uint256"
        },
        {
          "indexed": false,
          "internalType": "uint256",
          "name": "amount",
          "type": "uint256"
        }
      ],
      "name": "V3PosCollected",
      "type": "event"
    },
    {
      "anonymous": false,
      "inputs": [
        {
          "indexed": true,
          "internalType": "address",
          "name": "sender",
          "type": "address"
        },
        {
          "indexed": true,
          "internalType": "address",
          "name": "account",
          "type": "address"
        },
        {
          "indexed": true,
          "internalType": "uint256",
          "name": "id",
          "type": "uint256"
        },
        {
          "indexed": false,
          "internalType": "uint256",
          "name": "amount",
          "type": "uint256"
        },
        {
          "indexed": false,
          "internalType": "uint16",
          "name": "period",
          "type": "uint16"
        }
      ],
      "name": "V3PosStaked",
      "type": "event"
    },
    {
      "anonymous": false,
      "inputs": [
        {
          "indexed": true,
          "internalType": "address",
          "name": "owner",
          "type": "address"
        },
        {
          "indexed": true,
          "internalType": "address",
          "name": "receiver",
          "type": "address"
        },
        {
          "indexed": true,
          "internalType": "uint256",
          "name": "id",
          "type": "uint256"
        },
        {
          "indexed": false,
          "internalType": "uint256",
          "name": "amount0",
          "type": "uint256"
        },
        {
          "indexed": false,
          "internalType": "uint256",
          "name": "amount1",
          "type": "uint256"
        }
      ],
      "name": "V3PosUnstaked",
      "type": "event"
    },
    {
      "inputs": [],
      "name": "acceptGov",
      "outputs": [],
      "stateMutability": "nonpayable",
      "type": "function"
    },
    {
      "inputs": [],
      "name": "architectPerShareGrowthX64",
      "outputs": [
        {
          "internalType": "uint160",
          "name": "",
          "type": "uint160"
        }
      ],
      "stateMutability": "view",
      "type": "function"
    },
    {
      "inputs": [
        {
          "internalType": "uint256",
          "name": "",
          "type": "uint256"
        }
      ],
      "name": "architectPerShareGrowthX64s",
      "outputs": [
        {
          "internalType": "uint160",
          "name": "",
          "type": "uint160"
        }
      ],
      "stateMutability": "view",
      "type": "function"
    },
    {
      "inputs": [
        {
          "internalType": "address",
          "name": "_newGov",
          "type": "address"
        }
      ],
      "name": "changeGov",
      "outputs": [],
      "stateMutability": "nonpayable",
      "type": "function"
    },
    {
      "inputs": [
        {
          "internalType": "address",
          "name": "_receiver",
          "type": "address"
        },
        {
          "internalType": "uint256[]",
          "name": "_tokenIDs",
          "type": "uint256[]"
        }
      ],
      "name": "collectArchitectBatch",
      "outputs": [
        {
          "internalType": "uint256",
          "name": "rewardAmount",
          "type": "uint256"
        }
      ],
      "stateMutability": "nonpayable",
      "type": "function"
    },
    {
      "inputs": [
        {
          "internalType": "address",
          "name": "_receiver",
          "type": "address"
        },
        {
          "internalType": "uint256[]",
          "name": "_tokenIDs",
          "type": "uint256[]"
        }
      ],
      "name": "collectArchitectBatchByRouter",
      "outputs": [
        {
          "internalType": "uint256",
          "name": "rewardAmount",
          "type": "uint256"
        }
      ],
      "stateMutability": "nonpayable",
      "type": "function"
    },
    {
      "inputs": [
        {
          "internalType": "address",
          "name": "_receiver",
          "type": "address"
        },
        {
          "internalType": "uint256[]",
          "name": "_ids",
          "type": "uint256[]"
        }
      ],
      "name": "collectBatch",
      "outputs": [
        {
          "internalType": "uint256",
          "name": "rewardAmount",
          "type": "uint256"
        }
      ],
      "stateMutability": "nonpayable",
      "type": "function"
    },
    {
      "inputs": [
        {
          "internalType": "address",
          "name": "_owner",
          "type": "address"
        },
        {
          "internalType": "address",
          "name": "_receiver",
          "type": "address"
        },
        {
          "internalType": "uint256[]",
          "name": "_ids",
          "type": "uint256[]"
        }
      ],
      "name": "collectBatchByRouter",
      "outputs": [
        {
          "internalType": "uint256",
          "name": "rewardAmount",
          "type": "uint256"
        }
      ],
      "stateMutability": "nonpayable",
      "type": "function"
    },
    {
      "inputs": [
        {
          "internalType": "address",
          "name": "_receiver",
          "type": "address"
        },
        {
          "internalType": "uint256[]",
          "name": "_ids",
          "type": "uint256[]"
        }
      ],
      "name": "collectV3PosBatch",
      "outputs": [
        {
          "internalType": "uint256",
          "name": "rewardAmount",
          "type": "uint256"
        }
      ],
      "stateMutability": "nonpayable",
      "type": "function"
    },
    {
      "inputs": [
        {
          "internalType": "address",
          "name": "_owner",
          "type": "address"
        },
        {
          "internalType": "address",
          "name": "_receiver",
          "type": "address"
        },
        {
          "internalType": "uint256[]",
          "name": "_ids",
          "type": "uint256[]"
        }
      ],
      "name": "collectV3PosBatchByRouter",
      "outputs": [
        {
          "internalType": "uint256",
          "name": "rewardAmount",
          "type": "uint256"
        }
      ],
      "stateMutability": "nonpayable",
      "type": "function"
    },
    {
      "inputs": [
        {
          "internalType": "uint256",
          "name": "_amount",
          "type": "uint256"
        }
      ],
      "name": "depositFee",
      "outputs": [],
      "stateMutability": "nonpayable",
      "type": "function"
    },
    {
      "inputs": [],
      "name": "feeBalance",
      "outputs": [
        {
          "internalType": "uint96",
          "name": "",
          "type": "uint96"
        }
      ],
      "stateMutability": "view",
      "type": "function"
    },
    {
      "inputs": [],
      "name": "feeToken",
      "outputs": [
        {
          "internalType": "contract IERC20",
          "name": "",
          "type": "address"
        }
      ],
      "stateMutability": "view",
      "type": "function"
    },
    {
      "inputs": [],
      "name": "gov",
      "outputs": [
        {
          "internalType": "address",
          "name": "",
          "type": "address"
        }
      ],
      "stateMutability": "view",
      "type": "function"
    },
    {
      "inputs": [
        {
          "internalType": "uint16",
          "name": "",
          "type": "uint16"
        }
      ],
      "name": "lockupRewardMultipliers",
      "outputs": [
        {
          "internalType": "uint16",
          "name": "",
          "type": "uint16"
        }
      ],
      "stateMutability": "view",
      "type": "function"
    },
    {
      "inputs": [],
      "name": "mintedArchitects",
      "outputs": [
        {
          "internalType": "uint16",
          "name": "",
          "type": "uint16"
        }
      ],
      "stateMutability": "view",
      "type": "function"
    },
    {
      "inputs": [
        {
          "internalType": "address",
          "name": "",
          "type": "address"
        },
        {
          "internalType": "address",
          "name": "",
          "type": "address"
        },
        {
          "internalType": "uint256",
          "name": "",
          "type": "uint256"
        },
        {
          "internalType": "bytes",
          "name": "",
          "type": "bytes"
        }
      ],
      "name": "onERC721Received",
      "outputs": [
        {
          "internalType": "bytes4",
          "name": "",
          "type": "bytes4"
        }
      ],
      "stateMutability": "nonpayable",
      "type": "function"
    },
    {
      "inputs": [
        {
          "internalType": "uint256",
          "name": "_tokenID",
          "type": "uint256"
        }
      ],
      "name": "onMintArchitect",
      "outputs": [],
      "stateMutability": "nonpayable",
      "type": "function"
    },
    {
      "inputs": [],
      "name": "pendingGov",
      "outputs": [
        {
          "internalType": "address",
          "name": "",
          "type": "address"
        }
      ],
      "stateMutability": "view",
      "type": "function"
    },
    {
      "inputs": [],
      "name": "perShareGrowthX64",
      "outputs": [
        {
          "internalType": "uint160",
          "name": "",
          "type": "uint160"
        }
      ],
      "stateMutability": "view",
      "type": "function"
    },
    {
      "inputs": [
        {
          "components": [
            {
              "internalType": "uint16",
              "name": "period",
              "type": "uint16"
            },
            {
              "internalType": "uint16",
              "name": "multiplier",
              "type": "uint16"
            }
          ],
          "internalType": "struct IFeeDistributor.LockupRewardMultiplierParameter[]",
          "name": "_lockupRewardMultiplierParameters",
          "type": "tuple[]"
        }
      ],
      "name": "setLockupRewardMultipliers",
      "outputs": [],
      "stateMutability": "nonpayable",
      "type": "function"
    },
    {
      "inputs": [
        {
          "internalType": "uint256",
          "name": "_amount",
          "type": "uint256"
        },
        {
          "internalType": "address",
          "name": "_receiver",
          "type": "address"
        },
        {
          "internalType": "uint16",
          "name": "_period",
          "type": "uint16"
        }
      ],
      "name": "stake",
      "outputs": [],
      "stateMutability": "nonpayable",
      "type": "function"
    },
    {
      "inputs": [
        {
          "internalType": "address",
          "name": "",
          "type": "address"
        },
        {
          "internalType": "uint256",
          "name": "",
          "type": "uint256"
        }
      ],
      "name": "stakeInfos",
      "outputs": [
        {
          "internalType": "uint256",
          "name": "amount",
          "type": "uint256"
        },
        {
          "internalType": "uint64",
          "name": "lockupStartTime",
          "type": "uint64"
        },
        {
          "internalType": "uint16",
          "name": "multiplier",
          "type": "uint16"
        },
        {
          "internalType": "uint16",
          "name": "period",
          "type": "uint16"
        },
        {
          "internalType": "uint160",
          "name": "perShareGrowthX64",
          "type": "uint160"
        }
      ],
      "stateMutability": "view",
      "type": "function"
    },
    {
      "inputs": [
        {
          "internalType": "uint256",
          "name": "_id",
          "type": "uint256"
        },
        {
          "internalType": "address",
          "name": "_receiver",
          "type": "address"
        },
        {
          "internalType": "uint16",
          "name": "_period",
          "type": "uint16"
        }
      ],
      "name": "stakeV3Pos",
      "outputs": [],
      "stateMutability": "nonpayable",
      "type": "function"
    },
    {
      "inputs": [],
      "name": "totalStakedWithMultiplier",
      "outputs": [
        {
          "internalType": "uint256",
          "name": "",
          "type": "uint256"
        }
      ],
      "stateMutability": "view",
      "type": "function"
    },
    {
      "inputs": [
        {
          "internalType": "uint256[]",
          "name": "_ids",
          "type": "uint256[]"
        },
        {
          "internalType": "address",
          "name": "_receiver",
          "type": "address"
        }
      ],
      "name": "unstake",
      "outputs": [
        {
          "internalType": "uint256",
          "name": "rewardAmount",
          "type": "uint256"
        }
      ],
      "stateMutability": "nonpayable",
      "type": "function"
    },
    {
      "inputs": [
        {
          "internalType": "uint256[]",
          "name": "_ids",
          "type": "uint256[]"
        },
        {
          "internalType": "address",
          "name": "_receiver",
          "type": "address"
        }
      ],
      "name": "unstakeV3Pos",
      "outputs": [
        {
          "internalType": "uint256",
          "name": "rewardAmount",
          "type": "uint256"
        }
      ],
      "stateMutability": "nonpayable",
      "type": "function"
    },
    {
      "inputs": [
        {
          "internalType": "address",
          "name": "",
          "type": "address"
        },
        {
          "internalType": "uint256",
          "name": "",
          "type": "uint256"
        }
      ],
      "name": "v3PosStakeInfos",
      "outputs": [
        {
          "internalType": "uint256",
          "name": "amount",
          "type": "uint256"
        },
        {
          "internalType": "uint64",
          "name": "lockupStartTime",
          "type": "uint64"
        },
        {
          "internalType": "uint16",
          "name": "multiplier",
          "type": "uint16"
        },
        {
          "internalType": "uint16",
          "name": "period",
          "type": "uint16"
        },
        {
          "internalType": "uint160",
          "name": "perShareGrowthX64",
          "type": "uint160"
        }
      ],
      "stateMutability": "view",
      "type": "function"
    },
    {
      "inputs": [],
      "name": "withdrawalPeriod",
      "outputs": [
        {
          "internalType": "uint16",
          "name": "",
          "type": "uint16"
        }
      ],
      "stateMutability": "view",
      "type": "function"
    }
  ],
  "bytecode": "0x6101c034620002265762003efa38819003601f8101601f191683016001600160401b038111848210176200022b578392829160405283396101209182918101031262000226578151906001600160a01b0380831683036200022657620000686020850162000241565b90620000776040860162000241565b90620000866060870162000241565b93620000956080880162000241565b9360a0880151928084168403620002265760c08901518181168103620002265760e08a01519482861686036200022657610100809b01519861ffff8a168a03620002265760016000556001549a3360018060a01b03198d16176001556040519b853391167f3d1e4c3a68fed9f4f8315582b7297cf8fa264bc8e6704287603ba8c72bf05ac2600080a36080528460a0528760c05260e0526101809788528a5283526101409384526101a09687528061016095169116108352613ca396876200025788396080518781816119fb01526120f2015260a0518781816106c601528181611ea80152613b62015260c05187613bd3015260e05187818161033f0152610928015251868181611b0a01528181612425015261248c015251858181610db40152610eba01525184818161044c015281816104e401528181610cfd01528181610fea0152611051015251838181610d3801528181610f830152818161135401526113b201525182818161194601528181611c370152613c4901525181818161060201528181610a9601526120650152f35b600080fd5b634e487b7160e01b600052604160045260246000fd5b51906001600160a01b0382168203620002265756fe608080604052600436101561001357600080fd5b600090813560e01c90816312d43a51146125a057508063150b7a02146124c95780631d56eed01461246257806324cf5671146123fb57806325240810146123a957806330998bec1461222757806330f7a4f9146120c15780633633152114611df2578063423c485a14611b4757806353ec31d114611ae257806354f80bb1146119b457806360b71d4e1461196a578063647846a5146118fb5780636abae70b1461189d5780637565b8cb146118775780637ad4f8221461181b5780637bc6729b14611744578063859a2f811461170557806390cf87cc14610c9957806398a03efb14610c5a578063a82bfd8914610ba4578063a962ef1e14610af6578063b8118aa714610aba578063bca7093d14610a5d578063c2d0b01314610a1a578063dc8c4ffe1461065e578063e0664cc314610248578063eaf9ad07146102185763fa14a50d1461016057600080fd5b346102155760407ffffffffffffffffffffffffffffffffffffffffffffffffffffffffffffffffc3601126102155760409073ffffffffffffffffffffffffffffffffffffffff6101af6125f0565b168152600660209081528282206024358352815291902080546001909101546040805192835267ffffffffffffffff82169383019390935261ffff81841c811693830193909352605081901c9092166060808301919091529190911c608082015260a090f35b80fd5b503461021557602090600161023e61022f3661279b565b916102386129ae565b33612fa3565b9155604051908152f35b50346102155761025736612806565b6102629391936129ae565b60009260009485608060405161027781612656565b8281528260208201528260408201528260608201520152859186915b80831061036e576020876001886103646102fc6103288e6102bc878e8e60035403600355613bfa565b6040517f9dc29fac000000000000000000000000000000000000000000000000000000008982015233602482015260448101919091529182906064820190565b037fffffffffffffffffffffffffffffffffffffffffffffffffffffffffffffffe08101835282612672565b73ffffffffffffffffffffffffffffffffffffffff7f000000000000000000000000000000000000000000000000000000000000000016612cbe565b5055604051908152f35b909195929661037e878385612ed6565b3533600052600760205260406000208160005260205260406000209860016040519a6103a98c612656565b80548c52015467ffffffffffffffff811660208c015261ffff8160401c1660408c015261ffff8160501c168060608d01528160601c60808d015267ffffffffffffffff82161561062d5762015180809102428167ffffffffffffffff8516011092836105e5575b505050156105b45761ffff60408b518095019b015116830201946104348233613039565b9073ffffffffffffffffffffffffffffffffffffffff7f0000000000000000000000000000000000000000000000000000000000000000163b156105af576040517f42842e0e00000000000000000000000000000000000000000000000000000000815230600482015273ffffffffffffffffffffffffffffffffffffffff891660248201526044810184905292600084806064810103818373ffffffffffffffffffffffffffffffffffffffff7f0000000000000000000000000000000000000000000000000000000000000000165af180156105a35760019561058b958392610594575b5060405190815284602082015273ffffffffffffffffffffffffffffffffffffffff8b16907f4c97217cb109424f1d3aab3b60db383474bc12bcc95bc31b77cb3899069af98360403392a43360005260076020526040600020906000526020526000846040822082815501556129e9565b96019190610293565b61059d90612613565b3861051a565b6040513d6000823e3d90fd5b600080fd5b602482604051907fba9320a60000000000000000000000000000000000000000000000000000000082526004820152fd5b6105fc92935067ffffffffffffffff1642036132db565b9061ffff7f000000000000000000000000000000000000000000000000000000000000000016021015388080610410565b602484604051907fec14d0430000000000000000000000000000000000000000000000000000000082526004820152fd5b50346102155761066d36612883565b90916106776129ae565b6040517f23b872dd000000000000000000000000000000000000000000000000000000006020820152336024820152306044820152606481018290526106ea906106c481608481016102fc565b7f0000000000000000000000000000000000000000000000000000000000000000612c33565b60045469ffffffffffffffffffff808216918183146109ed577fffffffffffffffffffffffffffffffffffffffffffff0000000000000000000082600185011691161760045561ffff84169182600052600960205261ffff6040600020541680156109bc5767ffffffffffffffff42116109855773ffffffffffffffffffffffffffffffffffffffff600193826108c88a848761088b61ffff7f7feea83a010526530fd5783cf6104983a7d4da95200fabede981f185b9305c9d9c61097b9a8f8e67ffffffffffffffff9160055497604051916107c683612656565b825289602083019b8542168d526040840196875260608401978852608084019a60601c8b521660005260066020528d836040600020920116600052602052604060002090518155019751167fffffffffffffffffffffffffffffffffffffffffffff0000000000000000000069ffff00000000000000008954935160401b16921617178655511684907fffffffffffffffffffffffffffffffffffffffff0000ffffffffffffffffffff6bffff0000000000000000000083549260501b169116179055565b5182546bffffffffffffffffffffffff16911660601b7fffffffffffffffffffffffffffffffffffffffff00000000000000000000000016179055565b6040517f40c10f1900000000000000000000000000000000000000000000000000000000602082015273ffffffffffffffffffffffffffffffffffffffff8b1660248201526044810189905261094d9061092581606481016102fc565b847f000000000000000000000000000000000000000000000000000000000000000016612cbe565b50870260035401600355604051948594011697169533958390929161ffff6020916040840195845216910152565b0390a46001815580f35b60446040517f6dfcc65000000000000000000000000000000000000000000000000000000000815260406004820152426024820152fd5b602484604051907f1a497d9d0000000000000000000000000000000000000000000000000000000082526004820152fd5b6024877f4e487b710000000000000000000000000000000000000000000000000000000081526011600452fd5b503461021557807ffffffffffffffffffffffffffffffffffffffffffffffffffffffffffffffffc36011261021557602061ffff60045460501c16604051908152f35b503461021557807ffffffffffffffffffffffffffffffffffffffffffffffffffffffffffffffffc36011261021557602060405161ffff7f0000000000000000000000000000000000000000000000000000000000000000168152f35b503461021557807ffffffffffffffffffffffffffffffffffffffffffffffffffffffffffffffffc360112610215576020600354604051908152f35b50346102155760207ffffffffffffffffffffffffffffffffffffffffffffffffffffffffffffffffc36011261021557610b2e6125f0565b610b366128e3565b73ffffffffffffffffffffffffffffffffffffffff80911690817fffffffffffffffffffffffff00000000000000000000000000000000000000006002541617600255600154167fb9911e2099e372c216862258dc462bb65da46a2c854536c8b1acae619d0d62ed8380a380f35b50346102155760407ffffffffffffffffffffffffffffffffffffffffffffffffffffffffffffffffc3601126102155760409073ffffffffffffffffffffffffffffffffffffffff610bf46125f0565b168152600760209081528282206024358352815291902080546001909101546040805192835267ffffffffffffffff82169383019390935261ffff81841c811693830193909352605081901c9092166060808301919091529190911c608082015260a090f35b503461021557807ffffffffffffffffffffffffffffffffffffffffffffffffffffffffffffffffc36011261021557602060055460601c604051908152f35b503461021557610ca836612883565b90610cb16129ae565b6040517f99fbab8800000000000000000000000000000000000000000000000000000000815283600482015261018090818160248173ffffffffffffffffffffffffffffffffffffffff7f0000000000000000000000000000000000000000000000000000000000000000165afa80156112fe578687889089948a968b9561163f575b50507f00000000000000000000000000000000000000000000000000000000000000001561163057610d668184613b45565b6040517f22afcccb00000000000000000000000000000000000000000000000000000000815262ffffff8316600482015260208160248173ffffffffffffffffffffffffffffffffffffffff7f0000000000000000000000000000000000000000000000000000000000000000165afa908115611625578b916115e7575b508060020b156115b157620d89e88160020b8107900360020b808860020b1290811561159f575b5061155957509073ffffffffffffffffffffffffffffffffffffffff62ffffff9281604051951660208601521660408401521660608201526060815280608081011067ffffffffffffffff60808301111761152c5760e073ffffffffffffffffffffffffffffffffffffffff6055608b84608060049601604052805160208201207fe34f199b19b2b4f47f68442619d555527d244f78a3297ea89325f843f87b8b5460c083015260a0820152837f00000000000000000000000000000000000000000000000000000000000000001660808201520160ff81532016604051928380927f3850c7bd0000000000000000000000000000000000000000000000000000000082525afa9182156115215788918993611460575b506fffffffffffffffffffffffffffffffff168080600f0b03611428577fffffffffffffffffffffffffffffffff8000000000000000000000000000000081600f0b146113fb57600f0b88039160020b8360020b81126000146113405750507f00000000000000000000000000000000000000000000000000000000000000001561133757610fcb92610fc0610fba610fc694613771565b91613771565b9061334c565b61331f565b905b811561130d5773ffffffffffffffffffffffffffffffffffffffff7f0000000000000000000000000000000000000000000000000000000000000000163b15611309576040517f42842e0e000000000000000000000000000000000000000000000000000000008152336004820152306024820152604481018590528581606481837f000000000000000000000000000000000000000000000000000000000000000073ffffffffffffffffffffffffffffffffffffffff165af180156112fe576112eb575b5061ffff831680600052600960205261ffff604060002054169182156112ba5767ffffffffffffffff4211610985577f1dca4fbba1373d979ce5c2cca691dcbb941810336f0d01870865cc4139eb5d579261122f73ffffffffffffffffffffffffffffffffffffffff9360055460601c6040519161111083612656565b88835267ffffffffffffffff421660208401528460408401526060830152608082015284841660005260076020526040600020896000526020528460806001604060002084518155019267ffffffffffffffff6020820151168454907fffffffffffffffffffffffffffffffffffffffffffff0000000000000000000069ffff0000000000000000604085015160401b169216171784556111f161ffff60608301511685907fffffffffffffffffffffffffffffffffffffffff0000ffffffffffffffffffff6bffff0000000000000000000083549260501b169116179055565b015182546bffffffffffffffffffffffff16911660601b7fffffffffffffffffffffffffffffffffffffffff00000000000000000000000016179055565b6040517f40c10f1900000000000000000000000000000000000000000000000000000000602082015273ffffffffffffffffffffffffffffffffffffffff831660248201526044810186905261128c9061092581606481016102fc565b5084026003540160035561097b604051928392169533958390929161ffff6020916040840195845216910152565b602482604051907f1a497d9d0000000000000000000000000000000000000000000000000000000082526004820152fd5b6112f790959195612613565b9338611093565b6040513d88823e3d90fd5b8480fd5b60046040517f56c705df000000000000000000000000000000000000000000000000000000008152fd5b50505083610fcb565b8460029593959492940b136000146113ad577f000000000000000000000000000000000000000000000000000000000000000015611390575091610fc691610fc061138a94613771565b90610fcd565b6113a8939150916113a3610fc693613771565b613643565b61138a565b9150917f00000000000000000000000000000000000000000000000000000000000000006000146113e2575050508390610fcd565b6113a8926113f5610fba610fc694613771565b90613643565b6024897f4e487b710000000000000000000000000000000000000000000000000000000081526011600452fd5b604490604051907f327269a7000000000000000000000000000000000000000000000000000000008252608060048301526024820152fd5b9150915060e0813d60e011611519575b8161147d60e09383612672565b810103126115155780519073ffffffffffffffffffffffffffffffffffffffff82168203611511576114b1602082016132e5565b916114be60408301613310565b506114cb60608301613310565b506114d860808301613310565b5060a082015160ff81160361150d5761150460c06fffffffffffffffffffffffffffffffff9301612c26565b50919290610f22565b8980fd5b8880fd5b8780fd5b3d9150611470565b6040513d8a823e3d90fd5b6024887f4e487b710000000000000000000000000000000000000000000000000000000081526041600452fd5b8560649188604051927f6397c4d000000000000000000000000000000000000000000000000000000000845260020b600484015260020b602483015260020b6044820152fd5b90508b0360020b8660020b1338610e0b565b60248362ffffff604051917fcd38fb71000000000000000000000000000000000000000000000000000000008352166004820152fd5b90506020813d60201161161d575b8161160260209383612672565b8101031261161957611613906132e5565b38610de4565b8a80fd5b3d91506115f5565b6040513d8d823e3d90fd5b61163a8382613b45565b610d66565b955095505050505081813d83116116fe575b61165b8183612672565b810103126113095780516bffffffffffffffffffffffff8116036113095761168560208201612ee6565b5061169260408201612ee6565b61169e60608301612ee6565b60808301519062ffffff82168203611515576116bc60a085016132e5565b6116c860c086016132e5565b936116f06101606116db60e089016132f3565b976116e961014082016132f3565b50016132f3565b509192909394923880610d34565b503d611651565b503461021557807ffffffffffffffffffffffffffffffffffffffffffffffffffffffffffffffffc36011261021557602060045460601c604051908152f35b503461021557807ffffffffffffffffffffffffffffffffffffffffffffffffffffffffffffffffc3601126102155760025473ffffffffffffffffffffffffffffffffffffffff80821633036117f1577fffffffffffffffffffffffff00000000000000000000000000000000000000008092166002556001549133908316176001553391167f3d1e4c3a68fed9f4f8315582b7297cf8fa264bc8e6704287603ba8c72bf05ac28380a380f35b60046040517fee90c468000000000000000000000000000000000000000000000000000000008152fd5b50346102155760207ffffffffffffffffffffffffffffffffffffffffffffffffffffffffffffffffc3601126102155760043561ffff9081811680910361187357826040916020945260098452205416604051908152f35b8280fd5b503461021557602090600161023e61188e3661279b565b916118976129ae565b33612f07565b50346102155760207ffffffffffffffffffffffffffffffffffffffffffffffffffffffffffffffffc3601126102155773ffffffffffffffffffffffffffffffffffffffff6040602092600435815260088452205416604051908152f35b503461021557807ffffffffffffffffffffffffffffffffffffffffffffffffffffffffffffffffc36011261021557602060405173ffffffffffffffffffffffffffffffffffffffff7f0000000000000000000000000000000000000000000000000000000000000000168152f35b503461021557807ffffffffffffffffffffffffffffffffffffffffffffffffffffffffffffffffc3601126102155760206bffffffffffffffffffffffff60055416604051908152f35b50346102155760207ffffffffffffffffffffffffffffffffffffffffffffffffffffffffffffffffc3601126102155773ffffffffffffffffffffffffffffffffffffffff7f0000000000000000000000000000000000000000000000000000000000000000163303611ab257611a296129ae565b60045460601c6004358252600860205260408220907fffffffffffffffffffffffff00000000000000000000000000000000000000008254161790556004547fffffffffffffffffffffffffffffffffffffffff0000ffffffffffffffffffff6bffff00000000000000000000600161ffff8460501c160160501b169116176004556001815580f35b60246040517fcbd9d2e0000000000000000000000000000000000000000000000000000000008152336004820152fd5b503461021557611af13661279b565b929173ffffffffffffffffffffffffffffffffffffffff7f0000000000000000000000000000000000000000000000000000000000000000163303611ab25760209360019261023e92611b426129ae565b6131e3565b5034610215576020807ffffffffffffffffffffffffffffffffffffffffffffffffffffffffffffffffc360112611dee5760043590611b846129ae565b60045461ffff8160501c1680158015611de4575b611dba57600554916bffffffffffffffffffffffff92611bba868583166129e9565b848111611d8257841691827fffffffffffffffffffffffffffffffffffffffff0000000000000000000000008093161794856005556040517f70a08231000000000000000000000000000000000000000000000000000000008152306004820152878160248173ffffffffffffffffffffffffffffffffffffffff7f0000000000000000000000000000000000000000000000000000000000000000165afa908115611d77578a91611d4a575b50848110611d135750918795939160a09795937fe62686e5ad45b0ff019211c4674d902c58195dd244eeb37b86d9fa717e93e7139960011c92611ce6611cde611cc0868c039784611ccf611cc5611cc06003548c612a57565b612bcd565b60609d8e1c6129f6565b8c1b1617988960055588612a57565b84891c6129f6565b871b1691161794856004556040519687528601526040850152811c818401521c6080820152a16001815580f35b84604491604051917f1f388b3700000000000000000000000000000000000000000000000000000000835260048301526024820152fd5b90508781813d8311611d70575b611d618183612672565b8101031261150d575138611c67565b503d611d57565b6040513d8c823e3d90fd5b604490604051907f6dfcc650000000000000000000000000000000000000000000000000000000008252606060048301526024820152fd5b60046040517f3fbb6808000000000000000000000000000000000000000000000000000000008152fd5b5060035415611b98565b5080fd5b503461021557611e0136612806565b611e0c9391936129ae565b81928294836080604051611e1f81612656565b8281528260208201528260408201528260608201520152839184915b808310611ed557602087600188611ecc8c8a8a60035403600355611e5f8682613bfa565b6040517f9dc29fac000000000000000000000000000000000000000000000000000000008882015233602482015260448101839052611ea59061032881606481016102fc565b507f0000000000000000000000000000000000000000000000000000000000000000612e6d565b55604051908152f35b9091959296611ee5878385612ed6565b3593338752600660205260408720858852602052604087209860016040519a611f0d8c612656565b80548c52015467ffffffffffffffff811660208c015261ffff8160401c1660408c015261ffff8160501c168060608d01528160601c60808d015267ffffffffffffffff8216156120905762015180809102428167ffffffffffffffff851601109283612048575b50505015612017579161200e9160019361ffff60408d518095019d0151168302019680611fa18133613121565b9360405190815284602082015273ffffffffffffffffffffffffffffffffffffffff8b16907f9ad65b6c7ddab48c57c60229304ab9d8a7726f680d2319c0704c705eb3f8c63560403392a4338a52600660205260408a20908a5260205288846040822082815501556129e9565b96019190611e3b565b602486604051907fba9320a60000000000000000000000000000000000000000000000000000000082526004820152fd5b61205f92935067ffffffffffffffff1642036132db565b9061ffff7f000000000000000000000000000000000000000000000000000000000000000016021015388080611f74565b602488604051907fec14d0430000000000000000000000000000000000000000000000000000000082526004820152fd5b5034610215576120d03661279b565b916120d96129ae565b8373ffffffffffffffffffffffffffffffffffffffff807f000000000000000000000000000000000000000000000000000000000000000016915b85811061212b57602087600161023e8989896131e3565b612136818787612ed6565b35604051907f6352211e00000000000000000000000000000000000000000000000000000000825260048201526020908181602481885afa90811561221c5784928a926121e4575b50501633036121955761219090612904565b612114565b6121a36121e0918787612ed6565b6040517f848efb8b000000000000000000000000000000000000000000000000000000008152336004820152903560248201529081906044820190565b0390fd5b8193508092503d8311612215575b6121fc8183612672565b810103126115155761220e8391612ee6565b388061217e565b503d6121f2565b6040513d8b823e3d90fd5b5034610215576020807ffffffffffffffffffffffffffffffffffffffffffffffffffffffffffffffffc360112611dee5760043567ffffffffffffffff8082116123a557366023830112156123a55781600401359081116123a5576024820191602436918360061b0101116123a5579161229f6129ae565b6122a76128e3565b835b838110612331575060405192808285018386525260408401929185905b8282106122fb57867f9feca5fd86c6db4660bbded0f398728f61d0e3e159c375d54aad00c89094b4c187870388a16001815580f35b9091929360408060019261ffff806123128a612874565b168252612320868a01612874565b1681860152019501939201906122c6565b8061234d8361234761239d948888999799612960565b0161299f565b61ffff8061236461235f85888a612960565b61299f565b168852600987526040882091167fffffffffffffffffffffffffffffffffffffffffffffffffffffffffffff0000825416179055612904565b9290926122a9565b8380fd5b503461021557807ffffffffffffffffffffffffffffffffffffffffffffffffffffffffffffffffc36011261021557602073ffffffffffffffffffffffffffffffffffffffff60025416604051908152f35b50346102155761240a3661271e565b73ffffffffffffffffffffffffffffffffffffffff949391947f0000000000000000000000000000000000000000000000000000000000000000163303611ab25760209460019361023e9361245d6129ae565b612fa3565b5034610215576124713661271e565b73ffffffffffffffffffffffffffffffffffffffff949391947f0000000000000000000000000000000000000000000000000000000000000000163303611ab25760209460019361023e936124c46129ae565b612f07565b50346102155760807ffffffffffffffffffffffffffffffffffffffffffffffffffffffffffffffffc360112610215576125016125f0565b5060243573ffffffffffffffffffffffffffffffffffffffff8116036102155760643567ffffffffffffffff8111611dee5736602382011215611dee57806004013561254c816126b3565b6125596040519182612672565b81815236602483850101116123a557816024602094018483013701015260206040517f150b7a02000000000000000000000000000000000000000000000000000000008152f35b905034611dee57817ffffffffffffffffffffffffffffffffffffffffffffffffffffffffffffffffc360112611dee5760209073ffffffffffffffffffffffffffffffffffffffff600154168152f35b6004359073ffffffffffffffffffffffffffffffffffffffff821682036105af57565b67ffffffffffffffff811161262757604052565b7f4e487b7100000000000000000000000000000000000000000000000000000000600052604160045260246000fd5b60a0810190811067ffffffffffffffff82111761262757604052565b90601f7fffffffffffffffffffffffffffffffffffffffffffffffffffffffffffffffe0910116810190811067ffffffffffffffff82111761262757604052565b67ffffffffffffffff811161262757601f017fffffffffffffffffffffffffffffffffffffffffffffffffffffffffffffffe01660200190565b9181601f840112156105af5782359167ffffffffffffffff83116105af576020808501948460051b0101116105af57565b60607ffffffffffffffffffffffffffffffffffffffffffffffffffffffffffffffffc8201126105af5773ffffffffffffffffffffffffffffffffffffffff9160043583811681036105af579260243590811681036105af57916044359067ffffffffffffffff82116105af57612797916004016126ed565b9091565b9060407ffffffffffffffffffffffffffffffffffffffffffffffffffffffffffffffffc8301126105af5760043573ffffffffffffffffffffffffffffffffffffffff811681036105af57916024359067ffffffffffffffff82116105af57612797916004016126ed565b60407ffffffffffffffffffffffffffffffffffffffffffffffffffffffffffffffffc8201126105af576004359067ffffffffffffffff82116105af5761284f916004016126ed565b909160243573ffffffffffffffffffffffffffffffffffffffff811681036105af5790565b359061ffff821682036105af57565b7ffffffffffffffffffffffffffffffffffffffffffffffffffffffffffffffffc60609101126105af576004359060243573ffffffffffffffffffffffffffffffffffffffff811681036105af579060443561ffff811681036105af5790565b73ffffffffffffffffffffffffffffffffffffffff6001541633036117f157565b7fffffffffffffffffffffffffffffffffffffffffffffffffffffffffffffffff81146129315760010190565b7f4e487b7100000000000000000000000000000000000000000000000000000000600052601160045260246000fd5b91908110156129705760061b0190565b7f4e487b7100000000000000000000000000000000000000000000000000000000600052603260045260246000fd5b3561ffff811681036105af5790565b6002600054146129bf576002600055565b60046040517f3ee5aeb5000000000000000000000000000000000000000000000000000000008152fd5b9190820180921161293157565b91909173ffffffffffffffffffffffffffffffffffffffff8080941691160191821161293157565b8115612a28570490565b7f4e487b7100000000000000000000000000000000000000000000000000000000600052601260045260246000fd5b9068010000000000000000907fffffffffffffffffffffffffffffffffffffffffffffffffffffffffffffffff828409928060401b92838086109503948086039514612b555784831115612af7578291096001821901821680920460028082600302188083028203028083028203028083028203028083028203028083028203028092029003029360018380600003040190848311900302920304170290565b60646040517f08c379a000000000000000000000000000000000000000000000000000000000815260206004820152601560248201527f4d6174683a206d756c446976206f766572666c6f7700000000000000000000006044820152fd5b505090612b629250612a1e565b90565b7fffffffffffffffffffffffffffffffffffffffffffffffffffffffffffffffff8282099082810292838084109303928084039314612bc457680100000000000000009183831115612af7570990828211900360c01b910360401c1790565b50505060401c90565b73ffffffffffffffffffffffffffffffffffffffff90818111612bee571690565b604490604051907f6dfcc65000000000000000000000000000000000000000000000000000000000825260a060048301526024820152fd5b519081151582036105af57565b73ffffffffffffffffffffffffffffffffffffffff612c5491169182612cbe565b8051908115159182612c9b575b5050612c6a5750565b602490604051907f5274afe70000000000000000000000000000000000000000000000000000000082526004820152fd5b81925090602091810103126105af576020612cb69101612c26565b153880612c61565b60405190604082019282841067ffffffffffffffff8511176126275760008091612b6295604052601e85527f416464726573733a206c6f772d6c6576656c2063616c6c206661696c65640000602086015260208151910182855af13d15612d47573d91612d2a836126b3565b92612d386040519485612672565b83523d6000602085013e612d4b565b6060915b91929015612dc65750815115612d5f575090565b3b15612d685790565b60646040517f08c379a000000000000000000000000000000000000000000000000000000000815260206004820152601d60248201527f416464726573733a2063616c6c20746f206e6f6e2d636f6e74726163740000006044820152fd5b825190915015612dd95750805190602001fd5b604051907f08c379a000000000000000000000000000000000000000000000000000000000825281602080600483015282519283602484015260005b848110612e56575050507fffffffffffffffffffffffffffffffffffffffffffffffffffffffffffffffe0601f836000604480968601015201168101030190fd5b818101830151868201604401528593508201612e15565b6040517fa9059cbb00000000000000000000000000000000000000000000000000000000602082015273ffffffffffffffffffffffffffffffffffffffff929092166024830152604480830193909352918152612ed491612ecf606483612672565b612c33565b565b91908110156129705760051b0190565b519073ffffffffffffffffffffffffffffffffffffffff821682036105af57565b939290916000946000925b808410612f27575050505082612ed491613bfa565b90919295612f95612f9b91612f3d898588612ed6565b3590612f498287613121565b9173ffffffffffffffffffffffffffffffffffffffff6040518481527fdcdcaef5de7ddddb7ef392b97e6b32c1c43fd5f5ed468fd987baaa3c5252f5f56020838d16938b1692a46129e9565b96612904565b929190612f12565b939290916000946000925b808410612fc3575050505082612ed491613bfa565b90919295612f9561303191612fd9898588612ed6565b3590612fe58287613039565b9173ffffffffffffffffffffffffffffffffffffffff6040518481527f9f7e5453b9d8b4e9619738de7cebd5091617fb2b055252f69720cf573aa825316020838d16938b1692a46129e9565b929190612fae565b612ed490929192600173ffffffffffffffffffffffffffffffffffffffff80921694600086815260076020526040918282208183526020526130d1608084842096855161308581612656565b878954998a835201549067ffffffffffffffff8216602082015261ffff9182818a1c1692838a8401528160501c16606083015260601c938491015260055460601c980291880316612b65565b97825260076020528282209082526020522001906bffffffffffffffffffffffff7fffffffffffffffffffffffffffffffffffffffff00000000000000000000000083549260601b169116179055565b612ed490929192600173ffffffffffffffffffffffffffffffffffffffff809216946000868152600660205260409182822081835260205261316d608084842096855161308581612656565b97825260066020528282209082526020522001906bffffffffffffffffffffffff7fffffffffffffffffffffffffffffffffffffffff00000000000000000000000083549260601b169116179055565b73ffffffffffffffffffffffffffffffffffffffff918216908216039190821161293157565b909291600093849160009060045460601c90825b81811061320c575050505050612ed491613bfa565b90919293945061321d818387612ed6565b35808552600860209080825273ffffffffffffffffffffffffffffffffffffffff60409b818d8a20541661325190896131bd565b8d1c6bffffffffffffffffffffffff1692858a528452828d8a208981547fffffffffffffffffffffffff00000000000000000000000000000000000000001617905561329c916129e9565b9b519182528916917f67d2b0656e15e567a194797ee82ae085f2dad6cf0da46e6f1683dded0d1f8ae391a36132d090612904565b9087949392916131f7565b8115612a28570690565b51908160020b82036105af57565b51906fffffffffffffffffffffffffffffffff821682036105af57565b519061ffff821682036105af57565b7f800000000000000000000000000000000000000000000000000000000000000081146129315760000390565b91909160008083600f0b12600014613405575082819373ffffffffffffffffffffffffffffffffffffffff92838216848216116133fa575b50508184169283156105af577bffffffffffffffffffffffffffffffff000000000000000000000000836133cd966133c89585169403169160000360601b166135a7565b612a1e565b7f7fffffffffffffffffffffffffffffffffffffffffffffffffffffffffffffff81116105af5760000390565b915093503880613384565b9273ffffffffffffffffffffffffffffffffffffffff92909190828285821686821611613512575b50507bffffffffffffffffffffffffffffffff0000000000000000000000009060601b1692808083850316921692831561350e57169061346e8282866135a7565b9382156134e157096134af575b8082061515910401907f7fffffffffffffffffffffffffffffffffffffffffffffffffffffffffffffff8211610215575090565b907fffffffffffffffffffffffffffffffffffffffffffffffffffffffffffffffff811015611873576001019061347b565b6024867f4e487b710000000000000000000000000000000000000000000000000000000081526012600452fd5b8580fd5b935091507bffffffffffffffffffffffffffffffff0000000000000000000000003861342d565b90808202917fffffffffffffffffffffffffffffffffffffffffffffffffffffffffffffffff8282099183808410930391838303936c0100000000000000000000000093858511156105af571461359d570990828211900360a01b910360601c1790565b5050505060601c90565b91818302917fffffffffffffffffffffffffffffffffffffffffffffffffffffffffffffffff818509938380861095039480860395868511156105af571461363b579082910981806000031680920460028082600302188083028203028083028203028083028203028083028203028083028203028092029003029360018380600003040190848311900302920304170290565b505091500490565b91909160008083600f0b126000146136b05750613689836133cd94839173ffffffffffffffffffffffffffffffffffffffff94858216868216116136a5575b50506131bd565b16906000036fffffffffffffffffffffffffffffffff16613539565b915091503880613682565b91906137026c01000000000000000000000000926fffffffffffffffffffffffffffffffff169480839173ffffffffffffffffffffffffffffffffffffffff94858216868216116136a55750506131bd565b1661370d8185613539565b930961373f575b7f7fffffffffffffffffffffffffffffffffffffffffffffffffffffffffffffff8211610215575090565b907fffffffffffffffffffffffffffffffffffffffffffffffffffffffffffffffff811015611dee5760010190613714565b60020b6000811215613b3f5780600003905b620d89e88211613b15576001821615613aec5770ffffffffffffffffffffffffffffffffff6ffffcb933bd6fad37aa2d162d1a5940015b169160028116613ad0575b60048116613ab4575b60088116613a98575b60108116613a7c575b60208116613a60575b60408116613a44575b608090818116613a29575b6101008116613a0e575b61020081166139f3575b61040081166139d8575b61080081166139bd575b61100081166139a2575b6120008116613987575b614000811661396c575b6180008116613951575b620100008116613936575b62020000811661391c575b620400008116613902575b62080000166138e7575b506000126138ba575b73ffffffffffffffffffffffffffffffffffffffff9063ffffffff81166138b15760ff60005b169060201c011690565b60ff60016138a7565b8015612a28577fffffffffffffffffffffffffffffffffffffffffffffffffffffffffffffffff04613881565b6b048a170391f7dc42444e8fa26000929302901c9190613878565b6d2216e584f5fa1ea926041bedfe98909302811c9261386e565b926e5d6af8dedb81196699c329225ee60402811c92613863565b926f09aa508b5b7a84e1c677de54f3e99bc902811c92613858565b926f31be135f97d08fd981231505542fcfa602811c9261384d565b926f70d869a156d2a1b890bb3df62baf32f702811c92613843565b926fa9f746462d870fdf8a65dc1f90e061e502811c92613839565b926fd097f3bdfd2022b8845ad8f792aa582502811c9261382f565b926fe7159475a2c29b7443b29c7fa6e889d902811c92613825565b926ff3392b0822b70005940c7a398e4b70f302811c9261381b565b926ff987a7253ac413176f2b074cf7815e5402811c92613811565b926ffcbe86c7900a88aedcffc83b479aa3a402811c92613807565b926ffe5dee046a99a2a811c461f1969c305302811c926137fd565b916fff2ea16466c96a3843ec78b326b528610260801c916137f2565b916fff973b41fa98c081472e6896dfb254c00260801c916137e9565b916fffcb9843d60f6159c9db58835c9266440260801c916137e0565b916fffe5caca7e10e4e61c3624eaa0941cd00260801c916137d7565b916ffff2e50f5f656932ef12357cf3c7fdcc0260801c916137ce565b916ffff97272373d413259a46990580e213a0260801c916137c5565b70ffffffffffffffffffffffffffffffffff7001000000000000000000000000000000006137ba565b60046040517fce8ef7fc000000000000000000000000000000000000000000000000000000008152fd5b80613783565b73ffffffffffffffffffffffffffffffffffffffff8091169182827f00000000000000000000000000000000000000000000000000000000000000001614801590613bcc575b613b9457505050565b60449350604051927f63dfcf920000000000000000000000000000000000000000000000000000000084526004840152166024820152fd5b50818116827f0000000000000000000000000000000000000000000000000000000000000000161415613b8b565b90600554916bffffffffffffffffffffffff9283811683810390811161293157612ed4947fffffffffffffffffffffffffffffffffffffffff00000000000000000000000091169116176005557f0000000000000000000000000000000000000000000000000000000000000000612e6d56fea264697066735822122023ef44e1817aeb3b80ddbcd0d5bca622624895189b50d3502162479a951acd2f64736f6c63430008150033",
  "linkReferences": {},
  "deployedLinkReferences": {}
}