{
  "_format": "hh-sol-artifact-1",
  "contractName": "MixedExecutor",
  "sourceName": "contracts/misc/MixedExecutor.sol",
  "abi": [
    {
      "inputs": [
        {
          "internalType": "contract ILiquidator",
          "name": "_liquidator",
          "type": "address"
        },
        {
          "internalType": "contract IPositionRouter",
          "name": "_router",
          "type": "address"
        },
        {
          "internalType": "contract IPriceFeed",
          "name": "_priceFeed",
          "type": "address"
        },
        {
          "internalType": "contract IOrderBook",
          "name": "_orderBook",
          "type": "address"
        }
      ],
      "stateMutability": "nonpayable",
      "type": "constructor"
    },
    {
      "inputs": [],
      "name": "ExecutionError",
      "type": "error"
    },
    {
      "inputs": [],
      "name": "Forbidden",
      "type": "error"
    },
    {
      "anonymous": false,
      "inputs": [
        {
          "indexed": true,
          "internalType": "address",
          "name": "previousGov",
          "type": "address"
        },
        {
          "indexed": true,
          "internalType": "address",
          "name": "newGov",
          "type": "address"
        }
      ],
      "name": "ChangeGovStarted",
      "type": "event"
    },
    {
      "anonymous": false,
      "inputs": [
        {
          "indexed": true,
          "internalType": "address",
          "name": "previousGov",
          "type": "address"
        },
        {
          "indexed": true,
          "internalType": "address",
          "name": "newGov",
          "type": "address"
        }
      ],
      "name": "GovChanged",
      "type": "event"
    },
    {
      "inputs": [],
      "name": "acceptGov",
      "outputs": [],
      "stateMutability": "nonpayable",
      "type": "function"
    },
    {
      "inputs": [
        {
          "internalType": "address",
          "name": "_newGov",
          "type": "address"
        }
      ],
      "name": "changeGov",
      "outputs": [],
      "stateMutability": "nonpayable",
      "type": "function"
    },
    {
      "inputs": [
        {
          "internalType": "contract IPool",
          "name": "_pool",
          "type": "address"
        }
      ],
      "name": "collectProtocolFee",
      "outputs": [],
      "stateMutability": "nonpayable",
      "type": "function"
    },
    {
      "inputs": [
        {
          "internalType": "uint128",
          "name": "_endIndex",
          "type": "uint128"
        }
      ],
      "name": "executeAdjustLiquidityPositionMargins",
      "outputs": [],
      "stateMutability": "nonpayable",
      "type": "function"
    },
    {
      "inputs": [
        {
          "internalType": "uint128",
          "name": "_endIndex",
          "type": "uint128"
        }
      ],
      "name": "executeCloseLiquidityPositions",
      "outputs": [],
      "stateMutability": "nonpayable",
      "type": "function"
    },
    {
      "inputs": [
        {
          "internalType": "uint256",
          "name": "_orderIndex",
          "type": "uint256"
        },
        {
          "internalType": "bool",
          "name": "_requireSuccess",
          "type": "bool"
        }
      ],
      "name": "executeDecreaseOrder",
      "outputs": [],
      "stateMutability": "nonpayable",
      "type": "function"
    },
    {
      "inputs": [
        {
          "internalType": "uint128",
          "name": "_endIndex",
          "type": "uint128"
        }
      ],
      "name": "executeDecreasePositions",
      "outputs": [],
      "stateMutability": "nonpayable",
      "type": "function"
    },
    {
      "inputs": [
        {
          "internalType": "uint128",
          "name": "_endIndex",
          "type": "uint128"
        }
      ],
      "name": "executeDecreaseRiskBufferFundPositions",
      "outputs": [],
      "stateMutability": "nonpayable",
      "type": "function"
    },
    {
      "inputs": [
        {
          "internalType": "uint256",
          "name": "_orderIndex",
          "type": "uint256"
        },
        {
          "internalType": "bool",
          "name": "_requireSuccess",
          "type": "bool"
        }
      ],
      "name": "executeIncreaseOrder",
      "outputs": [],
      "stateMutability": "nonpayable",
      "type": "function"
    },
    {
      "inputs": [
        {
          "internalType": "uint128",
          "name": "_endIndex",
          "type": "uint128"
        }
      ],
      "name": "executeIncreasePositions",
      "outputs": [],
      "stateMutability": "nonpayable",
      "type": "function"
    },
    {
      "inputs": [
        {
          "internalType": "uint128",
          "name": "_endIndex",
          "type": "uint128"
        }
      ],
      "name": "executeIncreaseRiskBufferFundPositions",
      "outputs": [],
      "stateMutability": "nonpayable",
      "type": "function"
    },
    {
      "inputs": [
        {
          "internalType": "uint128",
          "name": "_endIndex",
          "type": "uint128"
        }
      ],
      "name": "executeOpenLiquidityPositions",
      "outputs": [],
      "stateMutability": "nonpayable",
      "type": "function"
    },
    {
      "inputs": [
        {
          "internalType": "address",
          "name": "",
          "type": "address"
        }
      ],
      "name": "executors",
      "outputs": [
        {
          "internalType": "bool",
          "name": "",
          "type": "bool"
        }
      ],
      "stateMutability": "view",
      "type": "function"
    },
    {
      "inputs": [
        {
          "components": [
            {
              "internalType": "contract IERC20",
              "name": "token",
              "type": "address"
            },
            {
              "internalType": "uint160",
              "name": "priceX96",
              "type": "uint160"
            }
          ],
          "internalType": "struct IPriceFeed.TokenPrice[]",
          "name": "_tokenPrices",
          "type": "tuple[]"
        },
        {
          "internalType": "uint64",
          "name": "_timestamp",
          "type": "uint64"
        }
      ],
      "name": "fastSetPriceX96s",
      "outputs": [],
      "stateMutability": "nonpayable",
      "type": "function"
    },
    {
      "inputs": [],
      "name": "gov",
      "outputs": [
        {
          "internalType": "address",
          "name": "",
          "type": "address"
        }
      ],
      "stateMutability": "view",
      "type": "function"
    },
    {
      "inputs": [
        {
          "internalType": "contract IPool",
          "name": "_pool",
          "type": "address"
        },
        {
          "internalType": "uint96",
          "name": "_positionID",
          "type": "uint96"
        },
        {
          "internalType": "bool",
          "name": "_requireSuccess",
          "type": "bool"
        }
      ],
      "name": "liquidateLiquidityPosition",
      "outputs": [],
      "stateMutability": "nonpayable",
      "type": "function"
    },
    {
      "inputs": [
        {
          "internalType": "contract IPool",
          "name": "_pool",
          "type": "address"
        },
        {
          "internalType": "address",
          "name": "_account",
          "type": "address"
        },
        {
          "internalType": "Side",
          "name": "_side",
          "type": "uint8"
        },
        {
          "internalType": "bool",
          "name": "_requireSuccess",
          "type": "bool"
        }
      ],
      "name": "liquidatePosition",
      "outputs": [],
      "stateMutability": "nonpayable",
      "type": "function"
    },
    {
      "inputs": [],
      "name": "liquidator",
      "outputs": [
        {
          "internalType": "contract ILiquidator",
          "name": "",
          "type": "address"
        }
      ],
      "stateMutability": "view",
      "type": "function"
    },
    {
      "inputs": [
        {
          "internalType": "bytes[]",
          "name": "data",
          "type": "bytes[]"
        }
      ],
      "name": "multicall",
      "outputs": [
        {
          "internalType": "bytes[]",
          "name": "results",
          "type": "bytes[]"
        }
      ],
      "stateMutability": "nonpayable",
      "type": "function"
    },
    {
      "inputs": [],
      "name": "orderBook",
      "outputs": [
        {
          "internalType": "contract IOrderBook",
          "name": "",
          "type": "address"
        }
      ],
      "stateMutability": "view",
      "type": "function"
    },
    {
      "inputs": [],
      "name": "pendingGov",
      "outputs": [
        {
          "internalType": "address",
          "name": "",
          "type": "address"
        }
      ],
      "stateMutability": "view",
      "type": "function"
    },
    {
      "inputs": [],
      "name": "positionRouter",
      "outputs": [
        {
          "internalType": "contract IPositionRouter",
          "name": "",
          "type": "address"
        }
      ],
      "stateMutability": "view",
      "type": "function"
    },
    {
      "inputs": [],
      "name": "priceFeed",
      "outputs": [
        {
          "internalType": "contract IPriceFeed",
          "name": "",
          "type": "address"
        }
      ],
      "stateMutability": "view",
      "type": "function"
    },
    {
      "inputs": [
        {
          "internalType": "contract IPool",
          "name": "_pool",
          "type": "address"
        }
      ],
      "name": "sampleAndAdjustFundingRate",
      "outputs": [],
      "stateMutability": "nonpayable",
      "type": "function"
    },
    {
      "inputs": [
        {
          "internalType": "bool",
          "name": "_cancelOrderIfFailedStatus",
          "type": "bool"
        }
      ],
      "name": "setCancelOrderIfFailedStatus",
      "outputs": [],
      "stateMutability": "nonpayable",
      "type": "function"
    },
    {
      "inputs": [
        {
          "internalType": "address",
          "name": "_executor",
          "type": "address"
        },
        {
          "internalType": "bool",
          "name": "_active",
          "type": "bool"
        }
      ],
      "name": "setExecutor",
      "outputs": [],
      "stateMutability": "nonpayable",
      "type": "function"
    },
    {
      "inputs": [
        {
          "internalType": "address payable",
          "name": "_receiver",
          "type": "address"
        }
      ],
      "name": "setFeeReceiver",
      "outputs": [],
      "stateMutability": "nonpayable",
      "type": "function"
    },
    {
      "inputs": [
        {
          "components": [
            {
              "internalType": "uint160[]",
              "name": "priceX96s",
              "type": "uint160[]"
            },
            {
              "internalType": "uint64",
              "name": "timestamp",
              "type": "uint64"
            }
          ],
          "internalType": "struct MixedExecutor.SetPricesParams",
          "name": "_params",
          "type": "tuple"
        }
      ],
      "name": "setPriceX96s",
      "outputs": [],
      "stateMutability": "nonpayable",
      "type": "function"
    },
    {
      "inputs": [
        {
          "internalType": "contract IERC20[]",
          "name": "_tokens",
          "type": "address[]"
        }
      ],
      "name": "setTokens",
      "outputs": [],
      "stateMutability": "nonpayable",
      "type": "function"
    },
    {
      "inputs": [],
      "name": "slot",
      "outputs": [
        {
          "internalType": "address payable",
          "name": "feeReceiver",
          "type": "address"
        },
        {
          "internalType": "bool",
          "name": "cancelOrderIfFailedStatus",
          "type": "bool"
        }
      ],
      "stateMutability": "view",
      "type": "function"
    },
    {
      "inputs": [
        {
          "internalType": "uint256",
          "name": "",
          "type": "uint256"
        }
      ],
      "name": "tokens",
      "outputs": [
        {
          "internalType": "contract IERC20",
          "name": "",
          "type": "address"
        }
      ],
      "stateMutability": "view",
      "type": "function"
    }
  ],
  "bytecode": "0x610100346200016f57601f620026d438819003918201601f19168301916001600160401b0383118484101762000174578084926080946040528339810103126200016f5780516001600160a01b039182821682036200016f5760208101519083821682036200016f5760408101519084821682036200016f576060015184811681036200016f576000543360018060a01b0319821617600055604051953391167f3d1e4c3a68fed9f4f8315582b7297cf8fa264bc8e6704287603ba8c72bf05ac2600080a360e05260c05260a0526080526003805460ff60a01b1916600160a01b17905561254990816200018b823960805181818161160801528181611b230152611d2a015260a0518181816104d1015281816108e0015281816109f80152818161122a0152818161134201528181611a6a01528181611dc7015261207d015260c051818181610269015281816107690152611863015260e0518181816110020152818161144701526117f50152f35b600080fd5b634e487b7160e01b600052604160045260246000fdfe60806040908082526004918236101561001757600080fd5b600091823560e01c9081630f707f61146120005750806312d43a5114611fb05780631a88bc6614611f515780631e1bff3f14611eb85780632524081014611e665780633f6516a814611d4e5780634046ebae14611ce057806343f59a8214611c495780634f64b2be14611bdd5780635f6494ea14611a8e57806361ef161f14611a20578063625adaf214611887578063741bef1a14611819578063776af5ba146117ab5780637bc6729b146116d45780638afe848f146115795780638e2e3679146113e157806390a54594146112c9578063941bb2ff146111b157806397d9de2214610f895780639ac2a01114610f23578063a440fef914610e83578063a962ef1e14610dd6578063ac9650d814610a97578063bcf7788c1461097f578063be93738614610867578063d4e06a20146106c4578063efdcd97414610640578063f6116bbe146105af578063f65d21d5146104585763fe5e07b51461017a57600080fd5b34610454576020907ffffffffffffffffffffffffffffffffffffffffffffffffffffffffffffffffc82813601126104505784359067ffffffffffffffff80831161044c578383880192843603011261044c573386526002855260ff848720541615610424576101ea8280612499565b90508754926101f882612299565b9361020587519586612258565b8285527fffffffffffffffffffffffffffffffffffffffffffffffffffffffffffffffe061023284612299565b01888a5b82811061040357505050885b838110610348575b5050505073ffffffffffffffffffffffffffffffffffffffff966024887f00000000000000000000000000000000000000000000000000000000000000001694013591821680920361034457833b1561034457948451957f4c6f0df600000000000000000000000000000000000000000000000000000000875285604488019188015283518091528160648801940191885b8281106103235789808a8a82828c8183818f8f602483015203925af190811561031a57506103075750f35b610310906121f9565b6103175780f35b80fd5b513d84823e3d90fd5b835180518c1687528201518b168683015294870194928101926001016102dc565b8680fd5b818110156103fe5761035981612193565b905473ffffffffffffffffffffffffffffffffffffffff61037a8680612499565b8510156103d0578460051b0135918183168093036103cc57906001949392918c51936103a58561223c565b60031b1c1682528b8201526103ba828961236a565b526103c5818861236a565b5001610242565b8d80fd5b505060248c60328f7f4e487b7100000000000000000000000000000000000000000000000000000000835252fd5b61024a565b895161040e8161223c565b8c81528c8382015282828a010152018990610236565b8684517fee90c468000000000000000000000000000000000000000000000000000000008152fd5b8580fd5b8380fd5b5080fd5b50346104545760207ffffffffffffffffffffffffffffffffffffffffffffffffffffffffffffffffc360112610454578235906fffffffffffffffffffffffffffffffff821682036105ab57338352600260205260ff81842054161561058357829373ffffffffffffffffffffffffffffffffffffffff7f0000000000000000000000000000000000000000000000000000000000000000166104f96124ed565b90803b1561044c57610570948680948651978895869485937fe03d62ae000000000000000000000000000000000000000000000000000000008552840190929173ffffffffffffffffffffffffffffffffffffffff6020916fffffffffffffffffffffffffffffffff604085019616845216910152565b03925af190811561031a57506103075750f35b8390517fee90c468000000000000000000000000000000000000000000000000000000008152fd5b8280fd5b8284346104545760207ffffffffffffffffffffffffffffffffffffffffffffffffffffffffffffffffc360112610454573580151580910361063b576105f361244e565b7fffffffffffffffffffffff00ffffffffffffffffffffffffffffffffffffffff74ff00000000000000000000000000000000000000006003549260a01b1691161760035580f35b600080fd5b8284346104545760207ffffffffffffffffffffffffffffffffffffffffffffffffffffffffffffffffc360112610454573573ffffffffffffffffffffffffffffffffffffffff81168091036104545761069861244e565b7fffffffffffffffffffffffff0000000000000000000000000000000000000000600354161760035580f35b50913461045457827ffffffffffffffffffffffffffffffffffffffffffffffffffffffffffffffffc3601126104545767ffffffffffffffff9281358481116104505736602382011215610450578083013594808611610863573660248760061b8401011161086357602435908116809103610863573385526020956002875260ff84872054161561083a5773ffffffffffffffffffffffffffffffffffffffff96877f00000000000000000000000000000000000000000000000000000000000000001697883b15610836579190818651977f4c6f0df60000000000000000000000000000000000000000000000000000000089528760448a01918a01525260246064880195019288915b8383106107fd575050505050849584868181958195602483015203925af190811561031a57506103075750f35b90919293958261080c886122b1565b1681528187013583811680910361083257828201528701958701939260010191906107d0565b8a80fd5b8780fd5b505050517fee90c468000000000000000000000000000000000000000000000000000000008152fd5b8480fd5b50346104545760207ffffffffffffffffffffffffffffffffffffffffffffffffffffffffffffffffc360112610454578235906fffffffffffffffffffffffffffffffff821682036105ab57338352600260205260ff81842054161561058357829373ffffffffffffffffffffffffffffffffffffffff7f0000000000000000000000000000000000000000000000000000000000000000166109086124ed565b90803b1561044c57610570948680948651978895869485937f890143c5000000000000000000000000000000000000000000000000000000008552840190929173ffffffffffffffffffffffffffffffffffffffff6020916fffffffffffffffffffffffffffffffff604085019616845216910152565b50346104545760207ffffffffffffffffffffffffffffffffffffffffffffffffffffffffffffffffc360112610454578235906fffffffffffffffffffffffffffffffff821682036105ab57338352600260205260ff81842054161561058357829373ffffffffffffffffffffffffffffffffffffffff7f000000000000000000000000000000000000000000000000000000000000000016610a206124ed565b90803b1561044c57610570948680948651978895869485937f784050e1000000000000000000000000000000000000000000000000000000008552840190929173ffffffffffffffffffffffffffffffffffffffff6020916fffffffffffffffffffffffffffffffff604085019616845216910152565b503461045457602090817ffffffffffffffffffffffffffffffffffffffffffffffffffffffffffffffffc3601126105ab5783359167ffffffffffffffff94858411610863573660238501121561086357838101359386851161044c576024916005973684888b1b8501011161083657610b1687939798969598612299565b96610b2386519889612258565b8388527fffffffffffffffffffffffffffffffffffffffffffffffffffffffffffffffe0610b5085612299565b01875b818110610dc757505086907fffffffffffffffffffffffffffffffffffffffffffffffffffffffffffffffbd81360301915b858110610c0857505050505050508051938080860192818752855180945283818801981b870101940192955b828710610bbe5785850386f35b909192938280610bf8837fffffffffffffffffffffffffffffffffffffffffffffffffffffffffffffffc08a6001960301865288516122d2565b9601920196019592919092610bb1565b86818d9c999a9c1b8301013583811215610dc357820187810135858111610dbf57604491828101908236038213610dbb57908291610c52610c498f95612330565b94519485612258565b8284528c840194833692010111610dbb57818f928d928637830101528a519160609182840184811089821117610d8e578f80938f938f857f416464726573733a206c6f772d6c6576656c2064656c65676174652063616c6c7f206661696c656400000000000000000000000000000000000000000000000000928697610d139c9b995260278b528a01528801525190305af4903d15610d8757508c3d610d03610cfa82612330565b92519283612258565b815280928d3d92013e5b3061237e565b610d1d828c61236a565b52610d28818b61236a565b507fffffffffffffffffffffffffffffffffffffffffffffffffffffffffffffffff8114610d5c5760010199979699610b85565b868b6011877f4e487b7100000000000000000000000000000000000000000000000000000000835252fd5b9150610d0d565b8b60418b7f4e487b7100000000000000000000000000000000000000000000000000000000600052526000fd5b8e80fd5b8c80fd5b8b80fd5b60608a82018c01528a01610b53565b82346103175760207ffffffffffffffffffffffffffffffffffffffffffffffffffffffffffffffffc36011261031757610e0e612161565b610e1661244e565b73ffffffffffffffffffffffffffffffffffffffff80911690817fffffffffffffffffffffffff000000000000000000000000000000000000000060015416176001558254167fb9911e2099e372c216862258dc462bb65da46a2c854536c8b1acae619d0d62ed8380a380f35b5091819234610f1f5760207ffffffffffffffffffffffffffffffffffffffffffffffffffffffffffffffffc360112610f1f5773ffffffffffffffffffffffffffffffffffffffff610ed3612161565b1691823b15610f1a57839283918351809581937fcaa4b46a0000000000000000000000000000000000000000000000000000000083525af190811561031a57506103075750f35b505050fd5b5050fd5b50346104545760207ffffffffffffffffffffffffffffffffffffffffffffffffffffffffffffffffc3601126104545760ff8160209373ffffffffffffffffffffffffffffffffffffffff610f76612161565b1681526002855220541690519015158152f35b503461045457807ffffffffffffffffffffffffffffffffffffffffffffffffffffffffffffffffc36011261045457823592610fc3612184565b93338452600260205260ff8385205416156111895773ffffffffffffffffffffffffffffffffffffffff9485600354168015600014611183575033955b7f00000000000000000000000000000000000000000000000000000000000000001695863b1561044c5784517fe6467b6900000000000000000000000000000000000000000000000000000000815284810184815273ffffffffffffffffffffffffffffffffffffffff90921660208301529086908190839081906040010381838c5af1918261116f575b50506111665761113e57839460ff60035460a01c166110ad575b505050505080f35b6110b56124ed565b91813b1561044c578580946111199651968795869485937f8ec4ad8b000000000000000000000000000000000000000000000000000000008552840190929173ffffffffffffffffffffffffffffffffffffffff6020916040840195845216910152565b03925af161112a575b8080806110a5565b611133906121f9565b610317578038611122565b5090517f2532cf45000000000000000000000000000000000000000000000000000000008152fd5b50505050905080f35b611178906121f9565b61044c57853861108b565b95611000565b5090517fee90c468000000000000000000000000000000000000000000000000000000008152fd5b50346104545760207ffffffffffffffffffffffffffffffffffffffffffffffffffffffffffffffffc360112610454578235906fffffffffffffffffffffffffffffffff821682036105ab57338352600260205260ff81842054161561058357829373ffffffffffffffffffffffffffffffffffffffff7f0000000000000000000000000000000000000000000000000000000000000000166112526124ed565b90803b1561044c57610570948680948651978895869485937f7b5402c6000000000000000000000000000000000000000000000000000000008552840190929173ffffffffffffffffffffffffffffffffffffffff6020916fffffffffffffffffffffffffffffffff604085019616845216910152565b50346104545760207ffffffffffffffffffffffffffffffffffffffffffffffffffffffffffffffffc360112610454578235906fffffffffffffffffffffffffffffffff821682036105ab57338352600260205260ff81842054161561058357829373ffffffffffffffffffffffffffffffffffffffff7f00000000000000000000000000000000000000000000000000000000000000001661136a6124ed565b90803b1561044c57610570948680948651978895869485937f83011cb6000000000000000000000000000000000000000000000000000000008552840190929173ffffffffffffffffffffffffffffffffffffffff6020916fffffffffffffffffffffffffffffffff604085019616845216910152565b503461045457807ffffffffffffffffffffffffffffffffffffffffffffffffffffffffffffffffc3601126104545782359261141b612184565b93338452600260205260ff8385205416156111895773ffffffffffffffffffffffffffffffffffffffff7f000000000000000000000000000000000000000000000000000000000000000016946114706124ed565b863b1561044c5784517f71b40c9f00000000000000000000000000000000000000000000000000000000815284810184815273ffffffffffffffffffffffffffffffffffffffff90921660208301529086908190839081906040010381838c5af19182611565575b50506111665761113e57839460ff60035460a01c166114f957505050505080f35b6115016124ed565b91813b1561044c578580946111199651968795869485937f7bae8c5a000000000000000000000000000000000000000000000000000000008552840190929173ffffffffffffffffffffffffffffffffffffffff6020916040840195845216910152565b61156e906121f9565b61044c5785386114d8565b508290346105ab5760607ffffffffffffffffffffffffffffffffffffffffffffffffffffffffffffffffc3601126105ab576115b3612161565b602435906bffffffffffffffffffffffff82168092036108635760443591821515830361063b57338652600260205260ff84872054161561083a57859073ffffffffffffffffffffffffffffffffffffffff807f000000000000000000000000000000000000000000000000000000000000000016916116316124ed565b94833b1561086357848094848b986064958c519a8b9889977f735625e8000000000000000000000000000000000000000000000000000000008952169087015260248601521660448401525af191826116c0575b50506116ba5761169457505080f35b517f2532cf45000000000000000000000000000000000000000000000000000000008152fd5b50505080f35b6116c9906121f9565b610863578486611685565b508290346105ab57827ffffffffffffffffffffffffffffffffffffffffffffffffffffffffffffffffc3601126105ab576001549173ffffffffffffffffffffffffffffffffffffffff9182841633036117855750507fffffffffffffffffffffffff0000000000000000000000000000000000000000809216600155825491339083161783553391167f3d1e4c3a68fed9f4f8315582b7297cf8fa264bc8e6704287603ba8c72bf05ac28380a380f35b517fee90c468000000000000000000000000000000000000000000000000000000008152fd5b503461045457817ffffffffffffffffffffffffffffffffffffffffffffffffffffffffffffffffc360112610454576020905173ffffffffffffffffffffffffffffffffffffffff7f0000000000000000000000000000000000000000000000000000000000000000168152f35b503461045457817ffffffffffffffffffffffffffffffffffffffffffffffffffffffffffffffffc360112610454576020905173ffffffffffffffffffffffffffffffffffffffff7f0000000000000000000000000000000000000000000000000000000000000000168152f35b5082346105ab576020807ffffffffffffffffffffffffffffffffffffffffffffffffffffffffffffffffc36011261045057813567ffffffffffffffff9384821161044c573660238301121561044c5781840135916118e8610cfa84612299565b8282528382016024819460051b83010191368311611a1c576024869101915b838310611a04575050505061191a61244e565b519384116119d8576801000000000000000084116119d8578254848455808510611998575b50918452835b838110611950578480f35b825173ffffffffffffffffffffffffffffffffffffffff167f8a35acfbc15ff81a39ae7d344fd709f28e8600b4aa8c65c6b64bfe7fe36bd19b82015591810191600101611945565b847f8a35acfbc15ff81a39ae7d344fd709f28e8600b4aa8c65c6b64bfe7fe36bd19b91820191015b8181106119cd575061193f565b8681556001016119c0565b6024856041857f4e487b7100000000000000000000000000000000000000000000000000000000835252fd5b8190611a0f846122b1565b8152019101908590611907565b8880fd5b503461045457817ffffffffffffffffffffffffffffffffffffffffffffffffffffffffffffffffc360112610454576020905173ffffffffffffffffffffffffffffffffffffffff7f0000000000000000000000000000000000000000000000000000000000000000168152f35b508290346105ab5760807ffffffffffffffffffffffffffffffffffffffffffffffffffffffffffffffffc3601126105ab57611ac8612161565b6024359073ffffffffffffffffffffffffffffffffffffffff9182811680910361063b576044359260ff84168094036103445760643593841515850361063b57338852600260205260ff868920541615611bb55790879291817f00000000000000000000000000000000000000000000000000000000000000001694611b4c6124ed565b91863b1561044c5789968460849488979388948d519b8c998a987fb9e89222000000000000000000000000000000000000000000000000000000008a521690880152602487015260448601521660648401525af191826116c05750506116ba5761169457505080f35b8686517fee90c468000000000000000000000000000000000000000000000000000000008152fd5b5090346103175760207ffffffffffffffffffffffffffffffffffffffffffffffffffffffffffffffffc3601126103175782359254831015610317575073ffffffffffffffffffffffffffffffffffffffff611c3a602093612193565b92905490519260031b1c168152f35b5091819234610f1f5760207ffffffffffffffffffffffffffffffffffffffffffffffffffffffffffffffffc360112610f1f5773ffffffffffffffffffffffffffffffffffffffff611c99612161565b1691823b15610f1a57839283918351809581937fd634b8330000000000000000000000000000000000000000000000000000000083525af190811561031a57506103075750f35b503461045457817ffffffffffffffffffffffffffffffffffffffffffffffffffffffffffffffffc360112610454576020905173ffffffffffffffffffffffffffffffffffffffff7f0000000000000000000000000000000000000000000000000000000000000000168152f35b50346104545760207ffffffffffffffffffffffffffffffffffffffffffffffffffffffffffffffffc360112610454578235906fffffffffffffffffffffffffffffffff821682036105ab57338352600260205260ff81842054161561058357829373ffffffffffffffffffffffffffffffffffffffff7f000000000000000000000000000000000000000000000000000000000000000016611def6124ed565b90803b1561044c57610570948680948651978895869485937f6f707c75000000000000000000000000000000000000000000000000000000008552840190929173ffffffffffffffffffffffffffffffffffffffff6020916fffffffffffffffffffffffffffffffff604085019616845216910152565b503461045457817ffffffffffffffffffffffffffffffffffffffffffffffffffffffffffffffffc3601126104545760209073ffffffffffffffffffffffffffffffffffffffff600154169051908152f35b503461045457807ffffffffffffffffffffffffffffffffffffffffffffffffffffffffffffffffc36011261045457611eef612161565b9073ffffffffffffffffffffffffffffffffffffffff611f0d612184565b92611f1661244e565b168352600260205282209060ff7fffffffffffffffffffffffffffffffffffffffffffffffffffffffffffffff008354169115151617905580f35b50903461031757807ffffffffffffffffffffffffffffffffffffffffffffffffffffffffffffffffc360112610317575060035460ff82519173ffffffffffffffffffffffffffffffffffffffff8116835260a01c1615156020820152f35b503461045457817ffffffffffffffffffffffffffffffffffffffffffffffffffffffffffffffffc3601126104545773ffffffffffffffffffffffffffffffffffffffff60209254169051908152f35b84929150346104505760207ffffffffffffffffffffffffffffffffffffffffffffffffffffffffffffffffc360112610450578235906fffffffffffffffffffffffffffffffff8216820361086357338552600260205260ff83862054161561213a5750839073ffffffffffffffffffffffffffffffffffffffff7f0000000000000000000000000000000000000000000000000000000000000000166120a56124ed565b91813b15610450578361211a968651978895869485937f6c525501000000000000000000000000000000000000000000000000000000008552840190929173ffffffffffffffffffffffffffffffffffffffff6020916fffffffffffffffffffffffffffffffff604085019616845216910152565b03925af190811561031a575061212e575080f35b612137906121f9565b80f35b807fee90c46800000000000000000000000000000000000000000000000000000000859252fd5b6004359073ffffffffffffffffffffffffffffffffffffffff8216820361063b57565b60243590811515820361063b57565b6004548110156121ca5760046000527f8a35acfbc15ff81a39ae7d344fd709f28e8600b4aa8c65c6b64bfe7fe36bd19b0190600090565b7f4e487b7100000000000000000000000000000000000000000000000000000000600052603260045260246000fd5b67ffffffffffffffff811161220d57604052565b7f4e487b7100000000000000000000000000000000000000000000000000000000600052604160045260246000fd5b6040810190811067ffffffffffffffff82111761220d57604052565b90601f7fffffffffffffffffffffffffffffffffffffffffffffffffffffffffffffffe0910116810190811067ffffffffffffffff82111761220d57604052565b67ffffffffffffffff811161220d5760051b60200190565b359073ffffffffffffffffffffffffffffffffffffffff8216820361063b57565b919082519283825260005b84811061231c5750507fffffffffffffffffffffffffffffffffffffffffffffffffffffffffffffffe0601f8460006020809697860101520116010190565b6020818301810151848301820152016122dd565b67ffffffffffffffff811161220d57601f017fffffffffffffffffffffffffffffffffffffffffffffffffffffffffffffffe01660200190565b80518210156121ca5760209160051b010190565b919290156123f95750815115612392575090565b3b1561239b5790565b60646040517f08c379a000000000000000000000000000000000000000000000000000000000815260206004820152601d60248201527f416464726573733a2063616c6c20746f206e6f6e2d636f6e74726163740000006044820152fd5b82519091501561240c5750805190602001fd5b61244a906040519182917f08c379a00000000000000000000000000000000000000000000000000000000083526020600484015260248301906122d2565b0390fd5b73ffffffffffffffffffffffffffffffffffffffff60005416330361246f57565b60046040517fee90c468000000000000000000000000000000000000000000000000000000008152fd5b9035907fffffffffffffffffffffffffffffffffffffffffffffffffffffffffffffffe18136030182121561063b570180359067ffffffffffffffff821161063b57602001918160051b3603831361063b57565b60035473ffffffffffffffffffffffffffffffffffffffff168061251057503390565b9056fea264697066735822122084ad4582d9fa1172fd48e8acf3ddf97f05090e1404848f81cc640127f975c4fd64736f6c63430008150033",
  "linkReferences": {},
  "deployedLinkReferences": {}
}