{
  "_format": "hh-sol-artifact-1",
  "contractName": "RewardCollectorV2",
  "sourceName": "contracts/plugins/RewardCollectorV2.sol",
  "abi": [
    {
      "inputs": [
        {
          "internalType": "contract Router",
          "name": "_router",
          "type": "address"
        },
        {
          "internalType": "contract IERC20",
          "name": "_EQU",
          "type": "address"
        },
        {
          "internalType": "contract IEFC",
          "name": "_EFC",
          "type": "address"
        },
        {
          "internalType": "contract PositionFarmRewardDistributor",
          "name": "_distributor",
          "type": "address"
        }
      ],
      "stateMutability": "nonpayable",
      "type": "constructor"
    },
    {
      "inputs": [
        {
          "internalType": "uint256",
          "name": "amount",
          "type": "uint256"
        },
        {
          "internalType": "uint256",
          "name": "requiredAmount",
          "type": "uint256"
        }
      ],
      "name": "InsufficientBalance",
      "type": "error"
    },
    {
      "inputs": [
        {
          "internalType": "address",
          "name": "caller",
          "type": "address"
        },
        {
          "internalType": "address",
          "name": "requiredCaller",
          "type": "address"
        }
      ],
      "name": "InvalidCaller",
      "type": "error"
    },
    {
      "inputs": [
        {
          "internalType": "address",
          "name": "token",
          "type": "address"
        }
      ],
      "name": "SafeERC20FailedOperation",
      "type": "error"
    },
    {
      "inputs": [],
      "name": "EFC",
      "outputs": [
        {
          "internalType": "contract IEFC",
          "name": "",
          "type": "address"
        }
      ],
      "stateMutability": "view",
      "type": "function"
    },
    {
      "inputs": [],
      "name": "EQU",
      "outputs": [
        {
          "internalType": "contract IERC20",
          "name": "",
          "type": "address"
        }
      ],
      "stateMutability": "view",
      "type": "function"
    },
    {
      "inputs": [
        {
          "internalType": "uint256[]",
          "name": "_tokenIDs",
          "type": "uint256[]"
        }
      ],
      "name": "collectArchitectRewardBatch",
      "outputs": [
        {
          "internalType": "uint256",
          "name": "rewardDebt",
          "type": "uint256"
        }
      ],
      "stateMutability": "nonpayable",
      "type": "function"
    },
    {
      "inputs": [
        {
          "internalType": "contract IPool[]",
          "name": "_pools",
          "type": "address[]"
        }
      ],
      "name": "collectFarmLiquidityRewardBatch",
      "outputs": [
        {
          "internalType": "uint256",
          "name": "rewardDebt",
          "type": "uint256"
        }
      ],
      "stateMutability": "nonpayable",
      "type": "function"
    },
    {
      "inputs": [
        {
          "internalType": "contract IPool[]",
          "name": "_pools",
          "type": "address[]"
        },
        {
          "internalType": "uint256[]",
          "name": "_referralTokens",
          "type": "uint256[]"
        }
      ],
      "name": "collectFarmReferralRewardBatch",
      "outputs": [
        {
          "internalType": "uint256",
          "name": "rewardDebt",
          "type": "uint256"
        }
      ],
      "stateMutability": "nonpayable",
      "type": "function"
    },
    {
      "inputs": [
        {
          "internalType": "contract IPool[]",
          "name": "_pools",
          "type": "address[]"
        }
      ],
      "name": "collectFarmRiskBufferFundRewardBatch",
      "outputs": [
        {
          "internalType": "uint256",
          "name": "rewardDebt",
          "type": "uint256"
        }
      ],
      "stateMutability": "nonpayable",
      "type": "function"
    },
    {
      "inputs": [
        {
          "internalType": "uint32",
          "name": "_nonce",
          "type": "uint32"
        },
        {
          "components": [
            {
              "internalType": "address",
              "name": "pool",
              "type": "address"
            },
            {
              "internalType": "uint256",
              "name": "totalReward",
              "type": "uint256"
            }
          ],
          "internalType": "struct PositionFarmRewardDistributor.PoolTotalReward[]",
          "name": "_poolTotalRewards",
          "type": "tuple[]"
        },
        {
          "internalType": "bytes",
          "name": "_signature",
          "type": "bytes"
        }
      ],
      "name": "collectPositionFarmRewardBatch",
      "outputs": [],
      "stateMutability": "nonpayable",
      "type": "function"
    },
    {
      "inputs": [
        {
          "internalType": "contract IPool[]",
          "name": "_pools",
          "type": "address[]"
        },
        {
          "internalType": "uint256[]",
          "name": "_referralTokens",
          "type": "uint256[]"
        }
      ],
      "name": "collectReferralFeeBatch",
      "outputs": [
        {
          "internalType": "uint256",
          "name": "amount",
          "type": "uint256"
        }
      ],
      "stateMutability": "nonpayable",
      "type": "function"
    },
    {
      "inputs": [
        {
          "internalType": "uint256[]",
          "name": "_ids",
          "type": "uint256[]"
        }
      ],
      "name": "collectStakingRewardBatch",
      "outputs": [
        {
          "internalType": "uint256",
          "name": "rewardDebt",
          "type": "uint256"
        }
      ],
      "stateMutability": "nonpayable",
      "type": "function"
    },
    {
      "inputs": [
        {
          "internalType": "uint256[]",
          "name": "_ids",
          "type": "uint256[]"
        }
      ],
      "name": "collectV3PosStakingRewardBatch",
      "outputs": [
        {
          "internalType": "uint256",
          "name": "rewardDebt",
          "type": "uint256"
        }
      ],
      "stateMutability": "nonpayable",
      "type": "function"
    },
    {
      "inputs": [],
      "name": "distributor",
      "outputs": [
        {
          "internalType": "contract PositionFarmRewardDistributor",
          "name": "",
          "type": "address"
        }
      ],
      "stateMutability": "view",
      "type": "function"
    },
    {
      "inputs": [
        {
          "internalType": "bytes[]",
          "name": "data",
          "type": "bytes[]"
        }
      ],
      "name": "multicall",
      "outputs": [
        {
          "internalType": "bytes[]",
          "name": "results",
          "type": "bytes[]"
        }
      ],
      "stateMutability": "nonpayable",
      "type": "function"
    },
    {
      "inputs": [],
      "name": "router",
      "outputs": [
        {
          "internalType": "contract Router",
          "name": "",
          "type": "address"
        }
      ],
      "stateMutability": "view",
      "type": "function"
    },
    {
      "inputs": [
        {
          "internalType": "contract IERC20",
          "name": "_token",
          "type": "address"
        },
        {
          "internalType": "uint256",
          "name": "_amountMinimum",
          "type": "uint256"
        },
        {
          "internalType": "address",
          "name": "_receiver",
          "type": "address"
        }
      ],
      "name": "sweepToken",
      "outputs": [
        {
          "internalType": "uint256",
          "name": "amount",
          "type": "uint256"
        }
      ],
      "stateMutability": "nonpayable",
      "type": "function"
    }
  ],
  "bytecode": "0x610100346100e057601f61170538819003918201601f19168301916001600160401b038311848410176100e5578084926080946040528339810103126100e05780516001600160a01b039182821682036100e05760208101519083821682036100e05760408101519084821682036100e0576060015193841684036100e05760c05260a05260805260e05260405161160990816100fc8239608051818181610108015281816101e0015281816106540152610dbe015260a0518161051b015260c051818181610f4d0152611463015260e05181818161058a0152610c3a0152f35b600080fd5b634e487b7160e01b600052604160045260246000fdfe608060408181526004918236101561001657600080fd5b600092833560e01c9182631420f80214610f0357508163165d961414610d825781631c99e1b014610b7a578163422d241314610aef5781635a4c4fa414610a645781638bd19a3b146109c4578163aad3131f14610938578163ac9650d8146106c8578163bb63478c146105ae578163bfe109281461053f578163c2aa99a5146104d0578163df2ab5bb1461025d578163e161674b14610130575063f887ea40146100bf57600080fd5b3461012c57817ffffffffffffffffffffffffffffffffffffffffffffffffffffffffffffffffc36011261012c576020905173ffffffffffffffffffffffffffffffffffffffff7f0000000000000000000000000000000000000000000000000000000000000000168152f35b5080fd5b83833461012c5760206060610190946101c061014b36610fa2565b919990926101598385611447565b88519a8b9788977f03dbee4d0000000000000000000000000000000000000000000000000000000089528801526064870191611311565b917ffffffffffffffffffffffffffffffffffffffffffffffffffffffffffffffffc8584030160248601526113a6565b30604483015203818573ffffffffffffffffffffffffffffffffffffffff7f0000000000000000000000000000000000000000000000000000000000000000165af19182156102525791610219575b6020925051908152f35b90506020823d821161024a575b816102336020938361100b565b8101031261024557602091519061020f565b600080fd5b3d9150610226565b9051903d90823e3d90fd5b919050346104cc5760607ffffffffffffffffffffffffffffffffffffffffffffffffffffffffffffffffc3601126104cc57813573ffffffffffffffffffffffffffffffffffffffff928382168092036104c857602491823595604435958616809603610245578451957f70a08231000000000000000000000000000000000000000000000000000000008752308488015260209788888781875afa9788156104be57839861048f575b5080881061045b5750855190888201907fa9059cbb0000000000000000000000000000000000000000000000000000000082528683015287604483015260448252608082019167ffffffffffffffff8184108185111761042e5760c082019081118482101761042e57846103bb938c959382938c52601e85527f416464726573733a206c6f772d6c6576656c2063616c6c206661696c6564000060a0820152519082895af16103b4611201565b9086611231565b918251928315159283610406575b50505090506103db5750505051908152f35b8351917f5274afe7000000000000000000000000000000000000000000000000000000008352820152fd5b91938180945001031261012c578701519081159182150361042b5750803880896103c9565b80fd5b876041887f4e487b7100000000000000000000000000000000000000000000000000000000600052526000fd5b84604491878a8a51937fcf479181000000000000000000000000000000000000000000000000000000008552840152820152fd5b9097508881813d83116104b7575b6104a7818361100b565b8101031261024557519638610307565b503d61049d565b87513d85823e3d90fd5b8480fd5b8280fd5b50503461012c57817ffffffffffffffffffffffffffffffffffffffffffffffffffffffffffffffffc36011261012c576020905173ffffffffffffffffffffffffffffffffffffffff7f0000000000000000000000000000000000000000000000000000000000000000168152f35b50503461012c57817ffffffffffffffffffffffffffffffffffffffffffffffffffffffffffffffffc36011261012c576020905173ffffffffffffffffffffffffffffffffffffffff7f0000000000000000000000000000000000000000000000000000000000000000168152f35b83833461012c57602092837ffffffffffffffffffffffffffffffffffffffffffffffffffffffffffffffffc3601126104cc57803567ffffffffffffffff81116106c457610600859136908401610f71565b84517f525c8656000000000000000000000000000000000000000000000000000000008152938492839261063a9230923392918601611368565b03818673ffffffffffffffffffffffffffffffffffffffff7f0000000000000000000000000000000000000000000000000000000000000000165af19283156106b9579261068a575b5051908152f35b9091508281813d83116106b2575b6106a2818361100b565b8101031261024557519083610683565b503d610698565b8251903d90823e3d90fd5b8380fd5b8391503461012c57602091827ffffffffffffffffffffffffffffffffffffffffffffffffffffffffffffffffc36011261042b5767ffffffffffffffff9180358381116104cc5761071c9036908301610f71565b9190936107288361114a565b946107358851968761100b565b8386527fffffffffffffffffffffffffffffffffffffffffffffffffffffffffffffffe06107628561114a565b0187865b82811061092857505050845b8481106107f557505050505083519280840190808552835180925280868601968360051b870101940192955b8287106107ab5785850386f35b9091929382806107e5837fffffffffffffffffffffffffffffffffffffffffffffffffffffffffffffffc08a6001960301865288516110ec565b960192019601959291909261079e565b8060051b8201357fffffffffffffffffffffffffffffffffffffffffffffffffffffffffffffffe183360301811215610924578201803590848211610920578901908036038213610920579061084c9136916110b5565b89519060608201828110868211176108f2579188806108d2937f206661696c6564000000000000000000000000000000000000000000000000008f8f7f416464726573733a206c6f772d6c6576656c2064656c65676174652063616c6c906108ed9a998352602788528701528501528d81519101305af46108cb611201565b9030611231565b6108dc828a6111be565b526108e781896111be565b50611162565b610772565b6041877f4e487b71000000000000000000000000000000000000000000000000000000006000525260246000fd5b8780fd5b8680fd5b606082828b010152018890610766565b83833461012c57602092837ffffffffffffffffffffffffffffffffffffffffffffffffffffffffffffffffc3601126104cc57803567ffffffffffffffff81116106c45761098a859136908401610f71565b84517f64fdd23c000000000000000000000000000000000000000000000000000000008152938492839261063a9230923392918601611368565b83833461012c57602092837ffffffffffffffffffffffffffffffffffffffffffffffffffffffffffffffffc3601126104cc57803567ffffffffffffffff81116106c457610a16859136908401610f71565b9092610a228285611447565b61063a855194859384937f786bccf2000000000000000000000000000000000000000000000000000000008552309085015287602485015260448401916113a6565b83833461012c57602092837ffffffffffffffffffffffffffffffffffffffffffffffffffffffffffffffffc3601126104cc57803567ffffffffffffffff81116106c457610ab6859136908401610f71565b9261063a855194859384937f724fa7710000000000000000000000000000000000000000000000000000000085523090339086016113e3565b83833461012c57602092837ffffffffffffffffffffffffffffffffffffffffffffffffffffffffffffffffc3601126104cc57803567ffffffffffffffff81116106c457610b41859136908401610f71565b9261063a855194859384937f18602c7b0000000000000000000000000000000000000000000000000000000085523090339086016113e3565b919050346104cc577ffffffffffffffffffffffffffffffffffffffffffffffffffffffffffffffffc6060813601126106c45782359263ffffffff84168094036104c85760249167ffffffffffffffff9083358281116109205736602382011215610920578084013591838311610d7e5736868460061b84010111610d7e57604435848111610d7a5736602382011215610d7a57610c20903690888189013591016110b5565b9073ffffffffffffffffffffffffffffffffffffffff93847f00000000000000000000000000000000000000000000000000000000000000001694853b15610d765791819a94928c9694928b519c8d977f3077c01c00000000000000000000000000000000000000000000000000000000895260a4890190338d8b01528d8a015260a060448a0152528a60c4880195019188905b828210610d355750505050610cd7838793879593868095030160648501526110ec565b30608483015203925af18015610d2b57610cef578580f35b8411610d015750505238808080808580f35b604185917f4e487b7100000000000000000000000000000000000000000000000000000000835252fd5b84513d88823e3d90fd5b92975092949093959750863590828216809203610d72578c816001938293526020808b0135908201520197019201928d9795938d97959392610cb4565b8e80fd5b8b80fd5b8980fd5b8880fd5b919050346104cc57610d9336610fa2565b959091948195610da38885611447565b829773ffffffffffffffffffffffffffffffffffffffff91827f000000000000000000000000000000000000000000000000000000000000000016995b818110610df15760208a8a51908152f35b610dfc81838a611301565b358481168091036109245786905b8c858310610e2357505050610e1e90611162565b610de0565b88610e32849e9394888d611301565b35918d51907f0cfe3642000000000000000000000000000000000000000000000000000000008252858b830152602493848301523060448301528160648160209586945af1918215610ef9578b92610ecb575b50508201809211610ea15750610e9b909b611162565b90610e0a565b886011897f4e487b7100000000000000000000000000000000000000000000000000000000835252fd5b90809250813d8311610ef2575b610ee2818361100b565b81010312610d7a57513880610e85565b503d610ed8565b8e513d8d823e3d90fd5b84903461012c57817ffffffffffffffffffffffffffffffffffffffffffffffffffffffffffffffffc36011261012c5760209073ffffffffffffffffffffffffffffffffffffffff7f0000000000000000000000000000000000000000000000000000000000000000168152f35b9181601f840112156102455782359167ffffffffffffffff8311610245576020808501948460051b01011161024557565b60407ffffffffffffffffffffffffffffffffffffffffffffffffffffffffffffffffc8201126102455767ffffffffffffffff916004358381116102455782610fed91600401610f71565b939093926024359182116102455761100791600401610f71565b9091565b90601f7fffffffffffffffffffffffffffffffffffffffffffffffffffffffffffffffe0910116810190811067ffffffffffffffff82111761104c57604052565b7f4e487b7100000000000000000000000000000000000000000000000000000000600052604160045260246000fd5b67ffffffffffffffff811161104c57601f017fffffffffffffffffffffffffffffffffffffffffffffffffffffffffffffffe01660200190565b9291926110c18261107b565b916110cf604051938461100b565b829481845281830111610245578281602093846000960137010152565b919082519283825260005b8481106111365750507fffffffffffffffffffffffffffffffffffffffffffffffffffffffffffffffe0601f8460006020809697860101520116010190565b6020818301810151848301820152016110f7565b67ffffffffffffffff811161104c5760051b60200190565b7fffffffffffffffffffffffffffffffffffffffffffffffffffffffffffffffff811461118f5760010190565b7f4e487b7100000000000000000000000000000000000000000000000000000000600052601160045260246000fd5b80518210156111d25760209160051b010190565b7f4e487b7100000000000000000000000000000000000000000000000000000000600052603260045260246000fd5b3d1561122c573d906112128261107b565b91611220604051938461100b565b82523d6000602084013e565b606090565b919290156112ac5750815115611245575090565b3b1561124e5790565b60646040517f08c379a000000000000000000000000000000000000000000000000000000000815260206004820152601d60248201527f416464726573733a2063616c6c20746f206e6f6e2d636f6e74726163740000006044820152fd5b8251909150156112bf5750805190602001fd5b6112fd906040519182917f08c379a00000000000000000000000000000000000000000000000000000000083526020600484015260248301906110ec565b0390fd5b91908110156111d25760051b0190565b9190808252602080920192916000805b83821061133057505050505090565b9091929394853573ffffffffffffffffffffffffffffffffffffffff81168091036104cc578152830194830193929160010190611321565b929061138290604093969596606086526060860191611311565b9473ffffffffffffffffffffffffffffffffffffffff809216602085015216910152565b90918281527f07ffffffffffffffffffffffffffffffffffffffffffffffffffffffffffffff83116102455760209260051b809284830137010190565b606091611418959373ffffffffffffffffffffffffffffffffffffffff809216835216602082015281604082015201916113a6565b90565b90816020910312610245575173ffffffffffffffffffffffffffffffffffffffff811681036102455790565b90600073ffffffffffffffffffffffffffffffffffffffff91827f000000000000000000000000000000000000000000000000000000000000000016915b818110611493575050505050565b61149e818387611301565b3560409081517f6352211e000000000000000000000000000000000000000000000000000000009283825260049283830152602093602492858185818c5afa9081156115c8576000916115ab575b50893391160361150957505050505061150490611162565b611485565b88918589928561151b8a8f8d90611301565b35918451958693849283528a8301525afa9182156115a057604496600093611571575b505051937f16cece4800000000000000000000000000000000000000000000000000000000855233908501521690820152fd5b611591929350803d10611599575b611589818361100b565b81019061141b565b90868061153e565b503d61157f565b50513d6000823e3d90fd5b6115c29150863d881161159957611589818361100b565b386114ec565b83513d6000823e3d90fdfea264697066735822122012c7235f00a4f1a76bb07b9c2a012a2df61346ec8182af79821c7b5668c2b2cc64736f6c63430008150033",
  "linkReferences": {},
  "deployedLinkReferences": {}
}