{
  "_format": "hh-sol-artifact-1",
  "contractName": "EquationTimelockController",
  "sourceName": "contracts/governance/EquationTimelockController.sol",
  "abi": [
    {
      "inputs": [
        {
          "internalType": "uint256",
          "name": "minDelay",
          "type": "uint256"
        },
        {
          "internalType": "address[]",
          "name": "proposers",
          "type": "address[]"
        },
        {
          "internalType": "address[]",
          "name": "executors",
          "type": "address[]"
        },
        {
          "internalType": "address",
          "name": "admin",
          "type": "address"
        }
      ],
      "stateMutability": "nonpayable",
      "type": "constructor"
    },
    {
      "anonymous": false,
      "inputs": [
        {
          "indexed": true,
          "internalType": "bytes32",
          "name": "id",
          "type": "bytes32"
        },
        {
          "indexed": true,
          "internalType": "uint256",
          "name": "index",
          "type": "uint256"
        },
        {
          "indexed": false,
          "internalType": "address",
          "name": "target",
          "type": "address"
        },
        {
          "indexed": false,
          "internalType": "uint256",
          "name": "value",
          "type": "uint256"
        },
        {
          "indexed": false,
          "internalType": "bytes",
          "name": "data",
          "type": "bytes"
        }
      ],
      "name": "CallExecuted",
      "type": "event"
    },
    {
      "anonymous": false,
      "inputs": [
        {
          "indexed": true,
          "internalType": "bytes32",
          "name": "id",
          "type": "bytes32"
        },
        {
          "indexed": false,
          "internalType": "bytes32",
          "name": "salt",
          "type": "bytes32"
        }
      ],
      "name": "CallSalt",
      "type": "event"
    },
    {
      "anonymous": false,
      "inputs": [
        {
          "indexed": true,
          "internalType": "bytes32",
          "name": "id",
          "type": "bytes32"
        },
        {
          "indexed": true,
          "internalType": "uint256",
          "name": "index",
          "type": "uint256"
        },
        {
          "indexed": false,
          "internalType": "address",
          "name": "target",
          "type": "address"
        },
        {
          "indexed": false,
          "internalType": "uint256",
          "name": "value",
          "type": "uint256"
        },
        {
          "indexed": false,
          "internalType": "bytes",
          "name": "data",
          "type": "bytes"
        },
        {
          "indexed": false,
          "internalType": "bytes32",
          "name": "predecessor",
          "type": "bytes32"
        },
        {
          "indexed": false,
          "internalType": "uint256",
          "name": "delay",
          "type": "uint256"
        }
      ],
      "name": "CallScheduled",
      "type": "event"
    },
    {
      "anonymous": false,
      "inputs": [
        {
          "indexed": true,
          "internalType": "bytes32",
          "name": "id",
          "type": "bytes32"
        }
      ],
      "name": "Cancelled",
      "type": "event"
    },
    {
      "anonymous": false,
      "inputs": [
        {
          "indexed": false,
          "internalType": "uint256",
          "name": "oldDuration",
          "type": "uint256"
        },
        {
          "indexed": false,
          "internalType": "uint256",
          "name": "newDuration",
          "type": "uint256"
        }
      ],
      "name": "MinDelayChange",
      "type": "event"
    },
    {
      "anonymous": false,
      "inputs": [
        {
          "indexed": true,
          "internalType": "bytes32",
          "name": "role",
          "type": "bytes32"
        },
        {
          "indexed": true,
          "internalType": "bytes32",
          "name": "previousAdminRole",
          "type": "bytes32"
        },
        {
          "indexed": true,
          "internalType": "bytes32",
          "name": "newAdminRole",
          "type": "bytes32"
        }
      ],
      "name": "RoleAdminChanged",
      "type": "event"
    },
    {
      "anonymous": false,
      "inputs": [
        {
          "indexed": true,
          "internalType": "bytes32",
          "name": "role",
          "type": "bytes32"
        },
        {
          "indexed": true,
          "internalType": "address",
          "name": "account",
          "type": "address"
        },
        {
          "indexed": true,
          "internalType": "address",
          "name": "sender",
          "type": "address"
        }
      ],
      "name": "RoleGranted",
      "type": "event"
    },
    {
      "anonymous": false,
      "inputs": [
        {
          "indexed": true,
          "internalType": "bytes32",
          "name": "role",
          "type": "bytes32"
        },
        {
          "indexed": true,
          "internalType": "address",
          "name": "account",
          "type": "address"
        },
        {
          "indexed": true,
          "internalType": "address",
          "name": "sender",
          "type": "address"
        }
      ],
      "name": "RoleRevoked",
      "type": "event"
    },
    {
      "inputs": [],
      "name": "CANCELLER_ROLE",
      "outputs": [
        {
          "internalType": "bytes32",
          "name": "",
          "type": "bytes32"
        }
      ],
      "stateMutability": "view",
      "type": "function"
    },
    {
      "inputs": [],
      "name": "DEFAULT_ADMIN_ROLE",
      "outputs": [
        {
          "internalType": "bytes32",
          "name": "",
          "type": "bytes32"
        }
      ],
      "stateMutability": "view",
      "type": "function"
    },
    {
      "inputs": [],
      "name": "EXECUTOR_ROLE",
      "outputs": [
        {
          "internalType": "bytes32",
          "name": "",
          "type": "bytes32"
        }
      ],
      "stateMutability": "view",
      "type": "function"
    },
    {
      "inputs": [],
      "name": "PROPOSER_ROLE",
      "outputs": [
        {
          "internalType": "bytes32",
          "name": "",
          "type": "bytes32"
        }
      ],
      "stateMutability": "view",
      "type": "function"
    },
    {
      "inputs": [],
      "name": "TIMELOCK_ADMIN_ROLE",
      "outputs": [
        {
          "internalType": "bytes32",
          "name": "",
          "type": "bytes32"
        }
      ],
      "stateMutability": "view",
      "type": "function"
    },
    {
      "inputs": [
        {
          "internalType": "address",
          "name": "target",
          "type": "address"
        }
      ],
      "name": "acceptGov",
      "outputs": [],
      "stateMutability": "nonpayable",
      "type": "function"
    },
    {
      "inputs": [
        {
          "internalType": "bytes32",
          "name": "id",
          "type": "bytes32"
        }
      ],
      "name": "cancel",
      "outputs": [],
      "stateMutability": "nonpayable",
      "type": "function"
    },
    {
      "inputs": [
        {
          "internalType": "address",
          "name": "target",
          "type": "address"
        },
        {
          "internalType": "uint256",
          "name": "value",
          "type": "uint256"
        },
        {
          "internalType": "bytes",
          "name": "payload",
          "type": "bytes"
        },
        {
          "internalType": "bytes32",
          "name": "predecessor",
          "type": "bytes32"
        },
        {
          "internalType": "bytes32",
          "name": "salt",
          "type": "bytes32"
        }
      ],
      "name": "execute",
      "outputs": [],
      "stateMutability": "payable",
      "type": "function"
    },
    {
      "inputs": [
        {
          "internalType": "address[]",
          "name": "targets",
          "type": "address[]"
        },
        {
          "internalType": "uint256[]",
          "name": "values",
          "type": "uint256[]"
        },
        {
          "internalType": "bytes[]",
          "name": "payloads",
          "type": "bytes[]"
        },
        {
          "internalType": "bytes32",
          "name": "predecessor",
          "type": "bytes32"
        },
        {
          "internalType": "bytes32",
          "name": "salt",
          "type": "bytes32"
        }
      ],
      "name": "executeBatch",
      "outputs": [],
      "stateMutability": "payable",
      "type": "function"
    },
    {
      "inputs": [],
      "name": "getMinDelay",
      "outputs": [
        {
          "internalType": "uint256",
          "name": "",
          "type": "uint256"
        }
      ],
      "stateMutability": "view",
      "type": "function"
    },
    {
      "inputs": [
        {
          "internalType": "bytes32",
          "name": "role",
          "type": "bytes32"
        }
      ],
      "name": "getRoleAdmin",
      "outputs": [
        {
          "internalType": "bytes32",
          "name": "",
          "type": "bytes32"
        }
      ],
      "stateMutability": "view",
      "type": "function"
    },
    {
      "inputs": [
        {
          "internalType": "bytes32",
          "name": "id",
          "type": "bytes32"
        }
      ],
      "name": "getTimestamp",
      "outputs": [
        {
          "internalType": "uint256",
          "name": "",
          "type": "uint256"
        }
      ],
      "stateMutability": "view",
      "type": "function"
    },
    {
      "inputs": [
        {
          "internalType": "bytes32",
          "name": "role",
          "type": "bytes32"
        },
        {
          "internalType": "address",
          "name": "account",
          "type": "address"
        }
      ],
      "name": "grantRole",
      "outputs": [],
      "stateMutability": "nonpayable",
      "type": "function"
    },
    {
      "inputs": [
        {
          "internalType": "bytes32",
          "name": "role",
          "type": "bytes32"
        },
        {
          "internalType": "address",
          "name": "account",
          "type": "address"
        }
      ],
      "name": "hasRole",
      "outputs": [
        {
          "internalType": "bool",
          "name": "",
          "type": "bool"
        }
      ],
      "stateMutability": "view",
      "type": "function"
    },
    {
      "inputs": [
        {
          "internalType": "address",
          "name": "target",
          "type": "address"
        },
        {
          "internalType": "uint256",
          "name": "value",
          "type": "uint256"
        },
        {
          "internalType": "bytes",
          "name": "data",
          "type": "bytes"
        },
        {
          "internalType": "bytes32",
          "name": "predecessor",
          "type": "bytes32"
        },
        {
          "internalType": "bytes32",
          "name": "salt",
          "type": "bytes32"
        }
      ],
      "name": "hashOperation",
      "outputs": [
        {
          "internalType": "bytes32",
          "name": "",
          "type": "bytes32"
        }
      ],
      "stateMutability": "pure",
      "type": "function"
    },
    {
      "inputs": [
        {
          "internalType": "address[]",
          "name": "targets",
          "type": "address[]"
        },
        {
          "internalType": "uint256[]",
          "name": "values",
          "type": "uint256[]"
        },
        {
          "internalType": "bytes[]",
          "name": "payloads",
          "type": "bytes[]"
        },
        {
          "internalType": "bytes32",
          "name": "predecessor",
          "type": "bytes32"
        },
        {
          "internalType": "bytes32",
          "name": "salt",
          "type": "bytes32"
        }
      ],
      "name": "hashOperationBatch",
      "outputs": [
        {
          "internalType": "bytes32",
          "name": "",
          "type": "bytes32"
        }
      ],
      "stateMutability": "pure",
      "type": "function"
    },
    {
      "inputs": [
        {
          "internalType": "bytes32",
          "name": "id",
          "type": "bytes32"
        }
      ],
      "name": "isOperation",
      "outputs": [
        {
          "internalType": "bool",
          "name": "",
          "type": "bool"
        }
      ],
      "stateMutability": "view",
      "type": "function"
    },
    {
      "inputs": [
        {
          "internalType": "bytes32",
          "name": "id",
          "type": "bytes32"
        }
      ],
      "name": "isOperationDone",
      "outputs": [
        {
          "internalType": "bool",
          "name": "",
          "type": "bool"
        }
      ],
      "stateMutability": "view",
      "type": "function"
    },
    {
      "inputs": [
        {
          "internalType": "bytes32",
          "name": "id",
          "type": "bytes32"
        }
      ],
      "name": "isOperationPending",
      "outputs": [
        {
          "internalType": "bool",
          "name": "",
          "type": "bool"
        }
      ],
      "stateMutability": "view",
      "type": "function"
    },
    {
      "inputs": [
        {
          "internalType": "bytes32",
          "name": "id",
          "type": "bytes32"
        }
      ],
      "name": "isOperationReady",
      "outputs": [
        {
          "internalType": "bool",
          "name": "",
          "type": "bool"
        }
      ],
      "stateMutability": "view",
      "type": "function"
    },
    {
      "inputs": [
        {
          "internalType": "address",
          "name": "",
          "type": "address"
        },
        {
          "internalType": "address",
          "name": "",
          "type": "address"
        },
        {
          "internalType": "uint256[]",
          "name": "",
          "type": "uint256[]"
        },
        {
          "internalType": "uint256[]",
          "name": "",
          "type": "uint256[]"
        },
        {
          "internalType": "bytes",
          "name": "",
          "type": "bytes"
        }
      ],
      "name": "onERC1155BatchReceived",
      "outputs": [
        {
          "internalType": "bytes4",
          "name": "",
          "type": "bytes4"
        }
      ],
      "stateMutability": "nonpayable",
      "type": "function"
    },
    {
      "inputs": [
        {
          "internalType": "address",
          "name": "",
          "type": "address"
        },
        {
          "internalType": "address",
          "name": "",
          "type": "address"
        },
        {
          "internalType": "uint256",
          "name": "",
          "type": "uint256"
        },
        {
          "internalType": "uint256",
          "name": "",
          "type": "uint256"
        },
        {
          "internalType": "bytes",
          "name": "",
          "type": "bytes"
        }
      ],
      "name": "onERC1155Received",
      "outputs": [
        {
          "internalType": "bytes4",
          "name": "",
          "type": "bytes4"
        }
      ],
      "stateMutability": "nonpayable",
      "type": "function"
    },
    {
      "inputs": [
        {
          "internalType": "address",
          "name": "",
          "type": "address"
        },
        {
          "internalType": "address",
          "name": "",
          "type": "address"
        },
        {
          "internalType": "uint256",
          "name": "",
          "type": "uint256"
        },
        {
          "internalType": "bytes",
          "name": "",
          "type": "bytes"
        }
      ],
      "name": "onERC721Received",
      "outputs": [
        {
          "internalType": "bytes4",
          "name": "",
          "type": "bytes4"
        }
      ],
      "stateMutability": "nonpayable",
      "type": "function"
    },
    {
      "inputs": [
        {
          "internalType": "bytes32",
          "name": "role",
          "type": "bytes32"
        },
        {
          "internalType": "address",
          "name": "account",
          "type": "address"
        }
      ],
      "name": "renounceRole",
      "outputs": [],
      "stateMutability": "nonpayable",
      "type": "function"
    },
    {
      "inputs": [
        {
          "internalType": "bytes32",
          "name": "role",
          "type": "bytes32"
        },
        {
          "internalType": "address",
          "name": "account",
          "type": "address"
        }
      ],
      "name": "revokeRole",
      "outputs": [],
      "stateMutability": "nonpayable",
      "type": "function"
    },
    {
      "inputs": [
        {
          "internalType": "address",
          "name": "target",
          "type": "address"
        },
        {
          "internalType": "uint256",
          "name": "value",
          "type": "uint256"
        },
        {
          "internalType": "bytes",
          "name": "data",
          "type": "bytes"
        },
        {
          "internalType": "bytes32",
          "name": "predecessor",
          "type": "bytes32"
        },
        {
          "internalType": "bytes32",
          "name": "salt",
          "type": "bytes32"
        },
        {
          "internalType": "uint256",
          "name": "delay",
          "type": "uint256"
        }
      ],
      "name": "schedule",
      "outputs": [],
      "stateMutability": "nonpayable",
      "type": "function"
    },
    {
      "inputs": [
        {
          "internalType": "address[]",
          "name": "targets",
          "type": "address[]"
        },
        {
          "internalType": "uint256[]",
          "name": "values",
          "type": "uint256[]"
        },
        {
          "internalType": "bytes[]",
          "name": "payloads",
          "type": "bytes[]"
        },
        {
          "internalType": "bytes32",
          "name": "predecessor",
          "type": "bytes32"
        },
        {
          "internalType": "bytes32",
          "name": "salt",
          "type": "bytes32"
        },
        {
          "internalType": "uint256",
          "name": "delay",
          "type": "uint256"
        }
      ],
      "name": "scheduleBatch",
      "outputs": [],
      "stateMutability": "nonpayable",
      "type": "function"
    },
    {
      "inputs": [
        {
          "internalType": "bytes4",
          "name": "interfaceId",
          "type": "bytes4"
        }
      ],
      "name": "supportsInterface",
      "outputs": [
        {
          "internalType": "bool",
          "name": "",
          "type": "bool"
        }
      ],
      "stateMutability": "view",
      "type": "function"
    },
    {
      "inputs": [
        {
          "internalType": "uint256",
          "name": "newDelay",
          "type": "uint256"
        }
      ],
      "name": "updateDelay",
      "outputs": [],
      "stateMutability": "nonpayable",
      "type": "function"
    },
    {
      "stateMutability": "payable",
      "type": "receive"
    }
  ],
  "bytecode": "0x604060808152346200041b5762002eab90813803806200001f8162000420565b93843982016080838203126200041b578251602080850151919490916001600160401b03908181116200041b57846200005a91840162000471565b93858301519182116200041b576200007b6060916200008393850162000471565b92016200045c565b7f5f58e3a2316349923ce3780f8d587db2d72378aed66a8261c916544fa6846ca56000948186528585526001928388882001918383549355837fbd79b86ffe0ab8e8776151514217cd7cacd52c909f66475c3af44e129f0b00ff9381858b80a4848080868b8d887fb09aa5aeb3702cfd50b6b62bc4532604938f21248a27a1d5ca736082b6819cc194859283855284200192848454945580a4868b8d7fd8aa0f3194971a2a116679f7c2090f6939c8d4e01a2a8d7e41d55e5351469e639889835283868385200181815491558b838680a47ffd643c72710c63c0180259aba6b2d05451e3591a24e58b62239378085726f78395869283855284200192848454945580a4868b528b8b20308c528a528a8c60ff9889828420541615620003e4575b6001600160a01b03978816918d836200038f575b8493509150865b6200029c575b50909550505050505b62000214575b887f11c24f4ead16507c69ac467fbd5e4eed5fb5c699626d2cc6d66421df253886d5818a8d8b816002558351928352820152a1516129559081620005368239f35b85518110156200029657906200025682826200023288958a6200050a565b5116858b528a8a528b8b20818c528a52868c8c205416156200025e575b50620004e4565b9091620001cd565b858b528a8a528b8b20818c528a528b8b20805460ff19168617905533908660008051602062002e8b8339815191528d80a4386200024f565b620001d3565b875184101562000389579083929189620002bb6200030e968b6200050a565b511686845283835281842081855283528c82852054161562000351575b5089620002e6858b6200050a565b51169187845283815281842083855281528c82852054161562000318575b50505050620004e4565b8b8b8e86620001be565b878452838152818420908385525282208760ff198254161790558560008051602062002e8b833981519152339380a48c388f8e62000304565b8684528383528184208185528352818420805460ff19168a17905533908760008051602062002e8b8339815191528680a438620002d8565b620001c4565b8490838252528d81852090848652528d8b8286205416620001b7578285528490528084208385528e528320805460ff191687179055339260008051602062002e8b8339815191529080a48a38808e8d620001b7565b808352828d528183203084528d528183208660ff1982541617905533308260008051602062002e8b8339815191528680a4620001a3565b600080fd5b6040519190601f01601f191682016001600160401b038111838210176200044657604052565b634e487b7160e01b600052604160045260246000fd5b51906001600160a01b03821682036200041b57565b81601f820112156200041b578051916020916001600160401b03841162000446578360051b908380620004a681850162000420565b8097815201928201019283116200041b578301905b828210620004ca575050505090565b838091620004d8846200045c565b815201910190620004bb565b6000198114620004f45760010190565b634e487b7160e01b600052601160045260246000fd5b80518210156200051f5760209160051b010190565b634e487b7160e01b600052603260045260246000fdfe608060405260048036101561001d575b50361561001b57600080fd5b005b600090813560e01c90816301d5062a146113aa57816301ffc9a7146112b857816307bd02651461125f5781630d3cf6fc14611206578163134008d31461115257816313bc9f2014611116578163150b7a0214611089578163248a9ca31461103f5781632ab0f52914610ff45781632f2ff15d14610efd57816331d5075014610eb357816336568abe14610dcf578163524f100814610d0a578163584b153e14610cb557816364d6235314610bbd5781638065657f14610b9d5781638f2a0bb014610a315781638f61f4f5146109d857816391d1485414610965578163a217fddf1461092b578163b08e51c0146108d2578163b1c5f427146108a7578163bc197c81146107e5578163c4d252f514610406578163d45c4435146103be578163d547741f14610361578163e38335e514610238578163f23a6e61146101a3575063f27a0c920361000f57346101a057807ffffffffffffffffffffffffffffffffffffffffffffffffffffffffffffffffc3601126101a0576020600254604051908152f35b80fd5b9050346102345760a07ffffffffffffffffffffffffffffffffffffffffffffffffffffffffffffffffc360112610234576101dc6114a6565b506101e56114ce565b5060843567ffffffffffffffff811161023057610205925036910161167b565b5060206040517ff23a6e61000000000000000000000000000000000000000000000000000000008152f35b8280fd5b5080fd5b826102bd60ff60406102b68461024d366116f3565b92848688849f989c979a9e8f90859f8e899f7fd8aa0f3194971a2a116679f7c2090f6939c8d4e01a2a8d7e41d55e5351469e63909a999a528060205281812081805260205220541615610353575b6102a6848314612155565b6102b1868314612155565b611f4f565b97886125e0565b875b8181106102d357886102d0896126a6565b80f35b8080897fc2617efa69bab66782fa219543714338489c4e9e178271560a91b82c3f612b58898961034661032d868f610326828f928f908f61034e9f61031b916103209361223c565b61227b565b9761223c565b359561229c565b9061033a828287876124a8565b60405194859485612443565b0390a36121e0565b6102bf565b61035c33611ae9565b61029b565b9050346102345760407ffffffffffffffffffffffffffffffffffffffffffffffffffffffffffffffffc360112610234576102d0903561039f6114ce565b90808452836020526103b960016040862001543390611c78565b611dcb565b9050346102345760207ffffffffffffffffffffffffffffffffffffffffffffffffffffffffffffffffc36011261023457602091604091358152600183522054604051908152f35b905034610234576020807ffffffffffffffffffffffffffffffffffffffffffffffffffffffffffffffffc360112610230578135917ffd643c72710c63c0180259aba6b2d05451e3591a24e58b62239378085726f78380855284835260408520338652835260ff6040862054161561054d575061049183600052600160205260016040600020541190565b156104cb5750600190828452528160408120557fbaa1eb22f2a492ba1a5fea61b8df4d27c6c8b5f3971e63bb58fa14ff72eedb708280a280f35b608491604051917f08c379a0000000000000000000000000000000000000000000000000000000008352820152603160248201527f54696d656c6f636b436f6e74726f6c6c65723a206f7065726174696f6e20636160448201527f6e6e6f742062652063616e63656c6c65640000000000000000000000000000006064820152fd5b8490610558336126d5565b60405191610565836115e4565b604283528583019360603686378351156107b9576030855383519060019182101561078d5790607860218601536041915b8183116106c5575050506106695793610632926048926106236105ee9760405198857f416363657373436f6e74726f6c3a206163636f756e74200000000000000000008b9788015282519283916037890191016117da565b8401917f206973206d697373696e6720726f6c65200000000000000000000000000000006037840152518093868401906117da565b01036028810185520183611600565b6106656040519283927f08c379a000000000000000000000000000000000000000000000000000000000845283016117fd565b0390fd5b6064848680604051927f08c379a000000000000000000000000000000000000000000000000000000000845283015260248201527f537472696e67733a20686578206c656e67746820696e73756666696369656e746044820152fd5b909192600f81166010811015610761577f3031323334353637383961626364656600000000000000000000000000000000901a61070285886126c4565b53871c928015610735577fffffffffffffffffffffffffffffffffffffffffffffffffffffffffffffffff019190610596565b60248260118a7f4e487b7100000000000000000000000000000000000000000000000000000000835252fd5b60248360328b7f4e487b7100000000000000000000000000000000000000000000000000000000835252fd5b806032887f4e487b71000000000000000000000000000000000000000000000000000000006024945252fd5b806032877f4e487b71000000000000000000000000000000000000000000000000000000006024945252fd5b9050346102345760a07ffffffffffffffffffffffffffffffffffffffffffffffffffffffffffffffffc3601126102345761081e6114a6565b506108276114ce565b5067ffffffffffffffff6044358181116108a3576108489036908401611773565b506064358181116108a3576108609036908401611773565b5060843590811161023057610878925036910161167b565b5060206040517fbc197c81000000000000000000000000000000000000000000000000000000008152f35b8380fd5b82346101a05760206108ca6108bb366116f3565b96959095949194939293611f4f565b604051908152f35b82346101a057807ffffffffffffffffffffffffffffffffffffffffffffffffffffffffffffffffc3601126101a05760206040517ffd643c72710c63c0180259aba6b2d05451e3591a24e58b62239378085726f7838152f35b82346101a057807ffffffffffffffffffffffffffffffffffffffffffffffffffffffffffffffffc3601126101a057602090604051908152f35b9050346102345760407ffffffffffffffffffffffffffffffffffffffffffffffffffffffffffffffffc36011261023457604060209260ff926109a66114ce565b9035825281855273ffffffffffffffffffffffffffffffffffffffff8383209116825284522054166040519015158152f35b82346101a057807ffffffffffffffffffffffffffffffffffffffffffffffffffffffffffffffffc3601126101a05760206040517fb09aa5aeb3702cfd50b6b62bc4532604938f21248a27a1d5ca736082b6819cc18152f35b9050346102345760c07ffffffffffffffffffffffffffffffffffffffffffffffffffffffffffffffffc3601126102345767ffffffffffffffff9080358281116108a357610a8290369083016116c2565b92602435818111610b9957610a9a90369085016116c2565b919093604435918211610b9557610ab6849186933691016116c2565b60649491943591610ad889848489856084359d8e9560a4359b61029b33611847565b98610ae3858b6122fc565b898b5b828110610b2a578c828c80610af9578280f35b60207f20fda5fd27a1ea7bf5b9567f143ac5470bb059374a27e8f67cb44f946f6d038791604051908152a281808280f35b80610b8e927f4cf4410cc57040e44862ef0f45f3dd5a5e02db8eb8add648d4b0e236f1d07dca8b8b6103468f8c610b818f928e610b7a8f8f90610b7461031b8f809794819561223c565b9961223c565b359761229c565b906040519687968761210f565b8a90610ae6565b8680fd5b8580fd5b82346101a05760206108ca610bb13661151f565b94939093929192611ece565b9050346102345760207ffffffffffffffffffffffffffffffffffffffffffffffffffffffffffffffffc36011261023457803590303303610c3157507f11c24f4ead16507c69ac467fbd5e4eed5fb5c699626d2cc6d66421df253886d560406002548151908152836020820152a160025580f35b6084906020604051917f08c379a0000000000000000000000000000000000000000000000000000000008352820152602b60248201527f54696d656c6f636b436f6e74726f6c6c65723a2063616c6c6572206d7573742060448201527f62652074696d656c6f636b0000000000000000000000000000000000000000006064820152fd5b82346101a05760207ffffffffffffffffffffffffffffffffffffffffffffffffffffffffffffffffc3601126101a0576020610d008335600052600160205260016040600020541190565b6040519015158152f35b9050346102345760207ffffffffffffffffffffffffffffffffffffffffffffffffffffffffffffffffc36011261023457610dcb90610d476114a6565b83806040519360208501907f7bc6729b0000000000000000000000000000000000000000000000000000000082528552610d8085611599565b60405194610d8d86611599565b601e86527f416464726573733a206c6f772d6c6576656c2063616c6c206661696c656400006020870152519082855af1610dc5612478565b9161285b565b5080f35b82346101a05760407ffffffffffffffffffffffffffffffffffffffffffffffffffffffffffffffffc3601126101a057610e076114ce565b3373ffffffffffffffffffffffffffffffffffffffff821603610e2f576102d0919235611dcb565b6084836020604051917f08c379a0000000000000000000000000000000000000000000000000000000008352820152602f60248201527f416363657373436f6e74726f6c3a2063616e206f6e6c792072656e6f756e636560448201527f20726f6c657320666f722073656c6600000000000000000000000000000000006064820152fd5b82346101a05760207ffffffffffffffffffffffffffffffffffffffffffffffffffffffffffffffffc3601126101a0576020610d0083356000526001602052604060002054151590565b9050346102345760407ffffffffffffffffffffffffffffffffffffffffffffffffffffffffffffffffc3601126102345735610f376114ce565b81835282602052610f5060016040852001543390611c78565b8183528260205273ffffffffffffffffffffffffffffffffffffffff6040842091169081845260205260ff60408420541615610f8a578280f35b81835282602052604083208184526020526040832060017fffffffffffffffffffffffffffffffffffffffffffffffffffffffffffffff0082541617905533917f2f8788117e7eff1d82e926ec794901d17c78024a50270940304540a733656f0d8480a438808280f35b82346101a05760207ffffffffffffffffffffffffffffffffffffffffffffffffffffffffffffffffc3601126101a0576020610d008335600052600160205260016040600020541490565b9050346102345760207ffffffffffffffffffffffffffffffffffffffffffffffffffffffffffffffffc360112610234576040602092600192358152808452200154604051908152f35b9050346102345760807ffffffffffffffffffffffffffffffffffffffffffffffffffffffffffffffffc360112610234576110c26114a6565b506110cb6114ce565b5060643567ffffffffffffffff8111610230576110eb925036910161167b565b5060206040517f150b7a02000000000000000000000000000000000000000000000000000000008152f35b82346101a05760207ffffffffffffffffffffffffffffffffffffffffffffffffffffffffffffffffc3601126101a0576020610d008335611e6b565b826102d06111e4826111f07fc2617efa69bab66782fa219543714338489c4e9e178271560a91b82c3f612b586111db61118a3661151f565b7fd8aa0f3194971a2a116679f7c2090f6939c8d4e01a2a8d7e41d55e5351469e638a9995979299949394528960205260408a208a805260205260ff60408b205416156111f8575b8884848989611ece565b988997886125e0565b61033a828287876124a8565b0390a36126a6565b61120133611ae9565b6111d1565b82346101a057807ffffffffffffffffffffffffffffffffffffffffffffffffffffffffffffffffc3601126101a05760206040517f5f58e3a2316349923ce3780f8d587db2d72378aed66a8261c916544fa6846ca58152f35b82346101a057807ffffffffffffffffffffffffffffffffffffffffffffffffffffffffffffffffc3601126101a05760206040517fd8aa0f3194971a2a116679f7c2090f6939c8d4e01a2a8d7e41d55e5351469e638152f35b9050346102345760207ffffffffffffffffffffffffffffffffffffffffffffffffffffffffffffffffc36011261023457357fffffffff00000000000000000000000000000000000000000000000000000000811680910361023457807f4e2312e0000000000000000000000000000000000000000000000000000000006020921490811561134d575b506040519015158152f35b7f7965db0b00000000000000000000000000000000000000000000000000000000811491508115611380575b5082611342565b7f01ffc9a70000000000000000000000000000000000000000000000000000000091501482611379565b9050346102345760c07ffffffffffffffffffffffffffffffffffffffffffffffffffffffffffffffffc360112610234576113e36114a6565b8260243560443567ffffffffffffffff8111610230577f4cf4410cc57040e44862ef0f45f3dd5a5e02db8eb8add648d4b0e236f1d07dca94611427913691016114f1565b949091606435946114696084359660a4359061144233611847565b61145089828c8a8989611ece565b998a9761145d848a6122fc565b6040519687968761210f565b0390a380611475578280f35b60207f20fda5fd27a1ea7bf5b9567f143ac5470bb059374a27e8f67cb44f946f6d038791604051908152a238808280f35b6004359073ffffffffffffffffffffffffffffffffffffffff821682036114c957565b600080fd5b6024359073ffffffffffffffffffffffffffffffffffffffff821682036114c957565b9181601f840112156114c95782359167ffffffffffffffff83116114c957602083818601950101116114c957565b60a07ffffffffffffffffffffffffffffffffffffffffffffffffffffffffffffffffc8201126114c95760043573ffffffffffffffffffffffffffffffffffffffff811681036114c95791602435916044359067ffffffffffffffff82116114c95761158d916004016114f1565b90916064359060843590565b6040810190811067ffffffffffffffff8211176115b557604052565b7f4e487b7100000000000000000000000000000000000000000000000000000000600052604160045260246000fd5b6080810190811067ffffffffffffffff8211176115b557604052565b90601f7fffffffffffffffffffffffffffffffffffffffffffffffffffffffffffffffe0910116810190811067ffffffffffffffff8211176115b557604052565b67ffffffffffffffff81116115b557601f017fffffffffffffffffffffffffffffffffffffffffffffffffffffffffffffffe01660200190565b81601f820112156114c95780359061169282611641565b926116a06040519485611600565b828452602083830101116114c957816000926020809301838601378301015290565b9181601f840112156114c95782359167ffffffffffffffff83116114c9576020808501948460051b0101116114c957565b9060a07ffffffffffffffffffffffffffffffffffffffffffffffffffffffffffffffffc8301126114c95767ffffffffffffffff6004358181116114c9578361173e916004016116c2565b939093926024358381116114c95782611759916004016116c2565b939093926044359182116114c95761158d916004016116c2565b81601f820112156114c95780359160209167ffffffffffffffff84116115b5578360051b90604051946117a885840187611600565b855283808601928201019283116114c9578301905b8282106117cb575050505090565b813581529083019083016117bd565b60005b8381106117ed5750506000910152565b81810151838201526020016117dd565b7fffffffffffffffffffffffffffffffffffffffffffffffffffffffffffffffe0601f6040936020845261184081518092816020880152602088880191016117da565b0116010190565b73ffffffffffffffffffffffffffffffffffffffff1660008181527f3412d5605ac6cd444957cedb533e5dacad6378b4bc819ebe3652188a665066d5602090815260408083205490939192917fb09aa5aeb3702cfd50b6b62bc4532604938f21248a27a1d5ca736082b6819cc19160ff16156118c4575050505050565b6118cd906126d5565b8451916118d9836115e4565b60428352848301936060368637835115611abc5760308553835190600191821015611abc5790607860218601536041915b8183116119f157505050611995576105ee93859361196593610623604894610665995198857f416363657373436f6e74726f6c3a206163636f756e74200000000000000000008b9788015282519283916037890191016117da565b519182917f08c379a0000000000000000000000000000000000000000000000000000000008352600483016117fd565b6064848651907f08c379a000000000000000000000000000000000000000000000000000000000825280600483015260248201527f537472696e67733a20686578206c656e67746820696e73756666696369656e746044820152fd5b909192600f81166010811015611a8f577f3031323334353637383961626364656600000000000000000000000000000000901a611a2e85886126c4565b5360041c928015611a62577fffffffffffffffffffffffffffffffffffffffffffffffffffffffffffffffff01919061190a565b6024827f4e487b710000000000000000000000000000000000000000000000000000000081526011600452fd5b6024837f4e487b710000000000000000000000000000000000000000000000000000000081526032600452fd5b807f4e487b7100000000000000000000000000000000000000000000000000000000602492526032600452fd5b73ffffffffffffffffffffffffffffffffffffffff1660008181527fdae2aa361dfd1ca020a396615627d436107c35eff9fe7738a3512819782d7069602090815260408083205490939192917fd8aa0f3194971a2a116679f7c2090f6939c8d4e01a2a8d7e41d55e5351469e639160ff1615611b66575050505050565b611b6f906126d5565b845191611b7b836115e4565b60428352848301936060368637835115611abc5760308553835190600191821015611abc5790607860218601536041915b818311611c0757505050611995576105ee93859361196593610623604894610665995198857f416363657373436f6e74726f6c3a206163636f756e74200000000000000000008b9788015282519283916037890191016117da565b909192600f81166010811015611a8f577f3031323334353637383961626364656600000000000000000000000000000000901a611c4485886126c4565b5360041c928015611a62577fffffffffffffffffffffffffffffffffffffffffffffffffffffffffffffffff019190611bac565b600081815260209181835260409373ffffffffffffffffffffffffffffffffffffffff858420911690818452845260ff858420541615611cb9575050505050565b611cc2906126d5565b845191611cce836115e4565b60428352848301936060368637835115611abc5760308553835190600191821015611abc5790607860218601536041915b818311611d5a57505050611995576105ee93859361196593610623604894610665995198857f416363657373436f6e74726f6c3a206163636f756e74200000000000000000008b9788015282519283916037890191016117da565b909192600f81166010811015611a8f577f3031323334353637383961626364656600000000000000000000000000000000901a611d9785886126c4565b5360041c928015611a62577fffffffffffffffffffffffffffffffffffffffffffffffffffffffffffffffff019190611cff565b906000918083528260205273ffffffffffffffffffffffffffffffffffffffff6040842092169182845260205260ff604084205416611e0957505050565b8083528260205260408320828452602052604083207fffffffffffffffffffffffffffffffffffffffffffffffffffffffffffffff0081541690557ff6391f5c32d9c69d2a47ea670b442974b53935d1edc7fd64eb21e047a839171b339380a4565b6000526001602052604060002054600181119081611e87575090565b905042101590565b601f82602094937fffffffffffffffffffffffffffffffffffffffffffffffffffffffffffffffe0938186528686013760008582860101520116010190565b94611f12611f499495929360405196879573ffffffffffffffffffffffffffffffffffffffff602088019a168a52604087015260a0606087015260c0860191611e8f565b91608084015260a0830152037fffffffffffffffffffffffffffffffffffffffffffffffffffffffffffffffe08101835282611600565b51902090565b969294909695919560405196602091828901998060c08b0160a08d525260e08a01919060005b8181106120d9575050507fffffffffffffffffffffffffffffffffffffffffffffffffffffffffffffffe097888a83030160408b01528082527f07ffffffffffffffffffffffffffffffffffffffffffffffffffffffffffffff81116114c9579089969495939897929160051b80928a830137019380888601878703606089015252604085019460408260051b82010195836000925b84841061203357505050505050611f499550608084015260a083015203908101835282611600565b91939698509193989994967fffffffffffffffffffffffffffffffffffffffffffffffffffffffffffffffc082820301845289357fffffffffffffffffffffffffffffffffffffffffffffffffffffffffffffffe1843603018112156114c957830186810191903567ffffffffffffffff81116114c95780360383136114c9576120c288928392600195611e8f565b9b0194019401918b98969394919a9997959a61200b565b90919283359073ffffffffffffffffffffffffffffffffffffffff82168092036114c95790815285019285019190600101611f75565b92909361214b9273ffffffffffffffffffffffffffffffffffffffff60809699989799168552602085015260a0604085015260a0840191611e8f565b9460608201520152565b1561215c57565b60846040517f08c379a000000000000000000000000000000000000000000000000000000000815260206004820152602360248201527f54696d656c6f636b436f6e74726f6c6c65723a206c656e677468206d69736d6160448201527f74636800000000000000000000000000000000000000000000000000000000006064820152fd5b7fffffffffffffffffffffffffffffffffffffffffffffffffffffffffffffffff811461220d5760010190565b7f4e487b7100000000000000000000000000000000000000000000000000000000600052601160045260246000fd5b919081101561224c5760051b0190565b7f4e487b7100000000000000000000000000000000000000000000000000000000600052603260045260246000fd5b3573ffffffffffffffffffffffffffffffffffffffff811681036114c95790565b919081101561224c5760051b810135907fffffffffffffffffffffffffffffffffffffffffffffffffffffffffffffffe1813603018212156114c957019081359167ffffffffffffffff83116114c95760200182360381136114c9579190565b90612314826000526001602052604060002054151590565b6123bf57600254811061233b5742019081421161220d576000526001602052604060002055565b60846040517f08c379a000000000000000000000000000000000000000000000000000000000815260206004820152602660248201527f54696d656c6f636b436f6e74726f6c6c65723a20696e73756666696369656e7460448201527f2064656c617900000000000000000000000000000000000000000000000000006064820152fd5b60846040517f08c379a000000000000000000000000000000000000000000000000000000000815260206004820152602f60248201527f54696d656c6f636b436f6e74726f6c6c65723a206f7065726174696f6e20616c60448201527f7265616479207363686564756c656400000000000000000000000000000000006064820152fd5b612475949273ffffffffffffffffffffffffffffffffffffffff60609316825260208201528160408201520191611e8f565b90565b3d156124a3573d9061248982611641565b916124976040519384611600565b82523d6000602084013e565b606090565b90926000938493826040519384928337810185815203925af16124c9612478565b50156124d157565b60846040517f08c379a000000000000000000000000000000000000000000000000000000000815260206004820152603360248201527f54696d656c6f636b436f6e74726f6c6c65723a20756e6465726c79696e67207460448201527f72616e73616374696f6e207265766572746564000000000000000000000000006064820152fd5b1561255c57565b60846040517f08c379a000000000000000000000000000000000000000000000000000000000815260206004820152602a60248201527f54696d656c6f636b436f6e74726f6c6c65723a206f7065726174696f6e20697360448201527f206e6f74207265616479000000000000000000000000000000000000000000006064820152fd5b6125ec6125f191611e6b565b612555565b8015908115612687575b501561260357565b60846040517f08c379a000000000000000000000000000000000000000000000000000000000815260206004820152602660248201527f54696d656c6f636b436f6e74726f6c6c65723a206d697373696e67206465706560448201527f6e64656e637900000000000000000000000000000000000000000000000000006064820152fd5b6126a09150600052600160205260016040600020541490565b386125fb565b6126b26125ec82611e6b565b60005260016020526001604060002055565b90815181101561224c570160200190565b604051906060820182811067ffffffffffffffff8211176115b557604052602a825260208201604036823782511561224c5760309053815160019081101561224c57607860218401536029905b8082116127905750506127325790565b60646040517f08c379a000000000000000000000000000000000000000000000000000000000815260206004820152602060248201527f537472696e67733a20686578206c656e67746820696e73756666696369656e746044820152fd5b9091600f8116601081101561282d577f3031323334353637383961626364656600000000000000000000000000000000901a6127cc84866126c4565b5360041c9180156127ff577fffffffffffffffffffffffffffffffffffffffffffffffffffffffffffffffff0190612722565b602460007f4e487b710000000000000000000000000000000000000000000000000000000081526011600452fd5b602460007f4e487b710000000000000000000000000000000000000000000000000000000081526032600452fd5b919290156128d6575081511561286f575090565b3b156128785790565b60646040517f08c379a000000000000000000000000000000000000000000000000000000000815260206004820152601d60248201527f416464726573733a2063616c6c20746f206e6f6e2d636f6e74726163740000006044820152fd5b8251909150156128e95750805190602001fd5b610665906040519182917f08c379a0000000000000000000000000000000000000000000000000000000008352600483016117fd56fea2646970667358221220746bcd2a01b5c7dbc47af0b64a25c2656ab6882a18208489eb4710692a80f43c64736f6c634300081500332f8788117e7eff1d82e926ec794901d17c78024a50270940304540a733656f0d",
  "linkReferences": {},
  "deployedLinkReferences": {}
}