{
  "_format": "hh-sol-artifact-1",
  "contractName": "TokenVertexUpdaterGovernor",
  "sourceName": "contracts/governance/TokenVertexUpdaterGovernor.sol",
  "abi": [
    {
      "inputs": [
        {
          "internalType": "address",
          "name": "_admin",
          "type": "address"
        },
        {
          "internalType": "address",
          "name": "_tokenVertexUpdater",
          "type": "address"
        },
        {
          "internalType": "contract IPoolFactory",
          "name": "_poolFactory",
          "type": "address"
        }
      ],
      "stateMutability": "nonpayable",
      "type": "constructor"
    },
    {
      "inputs": [
        {
          "internalType": "uint8",
          "name": "bits",
          "type": "uint8"
        },
        {
          "internalType": "uint256",
          "name": "value",
          "type": "uint256"
        }
      ],
      "name": "SafeCastOverflowedUintDowncast",
      "type": "error"
    },
    {
      "inputs": [
        {
          "internalType": "uint64",
          "name": "timestamp",
          "type": "uint64"
        }
      ],
      "name": "StaleConfig",
      "type": "error"
    },
    {
      "anonymous": false,
      "inputs": [
        {
          "indexed": true,
          "internalType": "bytes32",
          "name": "role",
          "type": "bytes32"
        },
        {
          "indexed": true,
          "internalType": "bytes32",
          "name": "previousAdminRole",
          "type": "bytes32"
        },
        {
          "indexed": true,
          "internalType": "bytes32",
          "name": "newAdminRole",
          "type": "bytes32"
        }
      ],
      "name": "RoleAdminChanged",
      "type": "event"
    },
    {
      "anonymous": false,
      "inputs": [
        {
          "indexed": true,
          "internalType": "bytes32",
          "name": "role",
          "type": "bytes32"
        },
        {
          "indexed": true,
          "internalType": "address",
          "name": "account",
          "type": "address"
        },
        {
          "indexed": true,
          "internalType": "address",
          "name": "sender",
          "type": "address"
        }
      ],
      "name": "RoleGranted",
      "type": "event"
    },
    {
      "anonymous": false,
      "inputs": [
        {
          "indexed": true,
          "internalType": "bytes32",
          "name": "role",
          "type": "bytes32"
        },
        {
          "indexed": true,
          "internalType": "address",
          "name": "account",
          "type": "address"
        },
        {
          "indexed": true,
          "internalType": "address",
          "name": "sender",
          "type": "address"
        }
      ],
      "name": "RoleRevoked",
      "type": "event"
    },
    {
      "inputs": [],
      "name": "ADMIN_ROLE",
      "outputs": [
        {
          "internalType": "bytes32",
          "name": "",
          "type": "bytes32"
        }
      ],
      "stateMutability": "view",
      "type": "function"
    },
    {
      "inputs": [],
      "name": "DEFAULT_ADMIN_ROLE",
      "outputs": [
        {
          "internalType": "bytes32",
          "name": "",
          "type": "bytes32"
        }
      ],
      "stateMutability": "view",
      "type": "function"
    },
    {
      "inputs": [],
      "name": "TOKEN_VERTEX_UPDATER_ROLE",
      "outputs": [
        {
          "internalType": "bytes32",
          "name": "",
          "type": "bytes32"
        }
      ],
      "stateMutability": "view",
      "type": "function"
    },
    {
      "inputs": [
        {
          "internalType": "address",
          "name": "_target",
          "type": "address"
        },
        {
          "internalType": "uint256",
          "name": "_value",
          "type": "uint256"
        },
        {
          "internalType": "bytes",
          "name": "_data",
          "type": "bytes"
        }
      ],
      "name": "execute",
      "outputs": [],
      "stateMutability": "nonpayable",
      "type": "function"
    },
    {
      "inputs": [
        {
          "internalType": "bytes32",
          "name": "role",
          "type": "bytes32"
        }
      ],
      "name": "getRoleAdmin",
      "outputs": [
        {
          "internalType": "bytes32",
          "name": "",
          "type": "bytes32"
        }
      ],
      "stateMutability": "view",
      "type": "function"
    },
    {
      "inputs": [
        {
          "internalType": "bytes32",
          "name": "role",
          "type": "bytes32"
        },
        {
          "internalType": "address",
          "name": "account",
          "type": "address"
        }
      ],
      "name": "grantRole",
      "outputs": [],
      "stateMutability": "nonpayable",
      "type": "function"
    },
    {
      "inputs": [
        {
          "internalType": "bytes32",
          "name": "role",
          "type": "bytes32"
        },
        {
          "internalType": "address",
          "name": "account",
          "type": "address"
        }
      ],
      "name": "hasRole",
      "outputs": [
        {
          "internalType": "bool",
          "name": "",
          "type": "bool"
        }
      ],
      "stateMutability": "view",
      "type": "function"
    },
    {
      "inputs": [],
      "name": "maxUpdateTimeDeviation",
      "outputs": [
        {
          "internalType": "uint64",
          "name": "",
          "type": "uint64"
        }
      ],
      "stateMutability": "view",
      "type": "function"
    },
    {
      "inputs": [],
      "name": "poolFactory",
      "outputs": [
        {
          "internalType": "contract IPoolFactory",
          "name": "",
          "type": "address"
        }
      ],
      "stateMutability": "view",
      "type": "function"
    },
    {
      "inputs": [
        {
          "internalType": "bytes32",
          "name": "role",
          "type": "bytes32"
        },
        {
          "internalType": "address",
          "name": "account",
          "type": "address"
        }
      ],
      "name": "renounceRole",
      "outputs": [],
      "stateMutability": "nonpayable",
      "type": "function"
    },
    {
      "inputs": [
        {
          "internalType": "bytes32",
          "name": "role",
          "type": "bytes32"
        },
        {
          "internalType": "address",
          "name": "account",
          "type": "address"
        }
      ],
      "name": "revokeRole",
      "outputs": [],
      "stateMutability": "nonpayable",
      "type": "function"
    },
    {
      "inputs": [
        {
          "internalType": "uint64",
          "name": "_maxUpdateTimeDeviation",
          "type": "uint64"
        }
      ],
      "name": "setMaxUpdateTimeDeviation",
      "outputs": [],
      "stateMutability": "nonpayable",
      "type": "function"
    },
    {
      "inputs": [
        {
          "internalType": "bytes4",
          "name": "interfaceId",
          "type": "bytes4"
        }
      ],
      "name": "supportsInterface",
      "outputs": [
        {
          "internalType": "bool",
          "name": "",
          "type": "bool"
        }
      ],
      "stateMutability": "view",
      "type": "function"
    },
    {
      "inputs": [
        {
          "internalType": "PackedValue",
          "name": "_packedTokenTimestamp",
          "type": "uint256"
        },
        {
          "internalType": "PackedValue",
          "name": "_packedBalanceRates",
          "type": "uint256"
        },
        {
          "internalType": "PackedValue",
          "name": "_packedPremiumRates",
          "type": "uint256"
        }
      ],
      "name": "updateTokenVertexConfig",
      "outputs": [],
      "stateMutability": "nonpayable",
      "type": "function"
    }
  ],
  "bytecode": "0x60a0346200021657601f6200216438819003918201601f191683019291906001600160401b038411838510176200021b5781606092849260409687528339810103126200021657620000518162000231565b90602090836200006383830162000231565b910151926001600160a01b039283851685036200021657600190603c60018060401b03198354161782557fa49807205ce4d355092ef5a8a18f56e8913cf4a201fbe287825b095693c21775946000958087528683528389882001948186549655817fbd79b86ffe0ab8e8776151514217cd7cacd52c909f66475c3af44e129f0b00ff9681888b80a4817f0833596c19f8afe7d32bf2c778d80a2e2b0dcaa54c9ed6c8df6d646a481f4f8996878a5287878d8c20019183835493558b80a4818852828a8920911690818952845260ff8a8920541615620001de575b5050838652858252878620941693848652815260ff878620541615620001a4575b868660805251611efd90816200024782396080518181816102ce015281816103c001528181610549015281816105e1015281816106820152818161084e01526113450152f35b82855284815286852090848652528584209060ff1982541617905560008051602062002144833981519152339380a438808080806200015e565b8188528784528988208189528452898820805460ff1916861790553391600080516020620021448339815191528980a438806200013d565b600080fd5b634e487b7160e01b600052604160045260246000fd5b51906001600160a01b0382168203620002165756fe608080604052600436101561001357600080fd5b600090813560e01c90816301ffc9a71461162d575080630ccc0d0a146115d457806312cb6f2d1461158e578063248a9ca3146115445780632f2ff15d1461144e57806336568abe146113695780634219dc40146112fa57806375b238fc146112a157806391d148541461122f578063a217fddf146111f5578063b30645941461117c578063b61d27f614610f7f578063c1258f0a1461011b5763d547741f146100bb57600080fd5b346101185760407ffffffffffffffffffffffffffffffffffffffffffffffffffffffffffffffffc360112610118576101156004356100f86116ef565b90808452836020526101106001604086200154611929565b611b5c565b80f35b80fd5b50346101185760607ffffffffffffffffffffffffffffffffffffffffffffffffffffffffffffffffc360112610118576004357f0833596c19f8afe7d32bf2c778d80a2e2b0dcaa54c9ed6c8df6d646a481f4f89808352826020526040832033845260205260ff60408420541615610d07575067ffffffffffffffff4211610cd05767ffffffffffffffff80421680828460a01c1611600014610cc257818360a01c1603165b67ffffffffffffffff8060015416911611610c845760405190610120820182811067ffffffffffffffff821117610c57576040528282528260208301528260408301528260608301528260808301528260a08301528260c08301528260e083015282610100830152604051908160c081011067ffffffffffffffff60c084011117610c575760c082016040528382528360208301528360408301528360608301528360808301528360a08301526040517f1b69dc5f00000000000000000000000000000000000000000000000000000000815273ffffffffffffffffffffffffffffffffffffffff821660048201526101208160248173ffffffffffffffffffffffffffffffffffffffff7f0000000000000000000000000000000000000000000000000000000000000000165afa8015610b91578590869087938789928a928b809281928291610b9c575b509467ffffffffffffffff999460a063ffffffff8c9687829c9b9783809c9881809a166101008901521660e08701521660c0850152169101521660808c01521660608a01521660408801521660208601521683526040517fbc27dd4d00000000000000000000000000000000000000000000000000000000815273ffffffffffffffffffffffffffffffffffffffff8216600482015260c08160248173ffffffffffffffffffffffffffffffffffffffff7f0000000000000000000000000000000000000000000000000000000000000000165afa908115610b9157859086928791889189918a91610af8575b509263ffffffff809693818096948180961660a08d01521660808b0152166060890152166040870152166020850152168252604051918261010081011067ffffffffffffffff61010085011117610acb57610100830160405260078352845b60e08110610a635750845b600760ff821610156104b35760018163ffffffff60ff809460051b1681602435821c166104938685168a611e88565b5152604435901c1660206104a985841689611e88565b5101520116610464565b5090926040519283606081011067ffffffffffffffff606086011117610a365760608401604052858452856020850152606060408501526040517f8aecdba300000000000000000000000000000000000000000000000000000000815273ffffffffffffffffffffffffffffffffffffffff8616600482015260408160248173ffffffffffffffffffffffffffffffffffffffff7f0000000000000000000000000000000000000000000000000000000000000000165afa80156109945787906109ef575b60ff91501660208501526040517fa4063dbc00000000000000000000000000000000000000000000000000000000815273ffffffffffffffffffffffffffffffffffffffff8616600482015260208160248173ffffffffffffffffffffffffffffffffffffffff7f0000000000000000000000000000000000000000000000000000000000000000165afa90811561099457879161099f575b5060c073ffffffffffffffffffffffffffffffffffffffff916004604051809481937fa85fc2a9000000000000000000000000000000000000000000000000000000008352165afa80156109945787906108ff575b6fffffffffffffffffffffffffffffffff1685525060408401527f000000000000000000000000000000000000000000000000000000000000000073ffffffffffffffffffffffffffffffffffffffff163b156108fb5763ffffffff918261010060a09373ffffffffffffffffffffffffffffffffffffffff604051987f1788bd17000000000000000000000000000000000000000000000000000000008a5216600489015267ffffffffffffffff815116602489015282602082015116604489015282604082015116606489015267ffffffffffffffff60608201511660848901528260808201511660a489015282858201511660c489015267ffffffffffffffff60c08201511660e48901528260e082015116610104890152015116610124860152828151166101448601528260208201511661016486015282604082015116610184860152826060820151166101a4860152826080820151166101c48601520151166101e4830152610220610204830152828260406102848201936fffffffffffffffffffffffffffffffff81511661022484015260ff60208201511661024484015201516060610264830152805180945260206102a48301910193835b8181106108cb5750508192935003818373ffffffffffffffffffffffffffffffffffffffff7f0000000000000000000000000000000000000000000000000000000000000000165af180156108c05761087e575080f35b67ffffffffffffffff81116108935760405280f35b6024827f4e487b710000000000000000000000000000000000000000000000000000000081526041600452fd5b6040513d84823e3d90fd5b925092506020604060019263ffffffff838851828151168452015116838201520194019101928592859294610827565b8480fd5b5060c0813d60c01161098c575b8161091960c09383611ad1565b810103126109885761092a81611e9c565b5061093760208201611e9c565b50604081015173ffffffffffffffffffffffffffffffffffffffff8116036109885761098360808261097c60606fffffffffffffffffffffffffffffffff9501611eb9565b5001611e9c565b610666565b8680fd5b3d915061090c565b6040513d89823e3d90fd5b90506020813d6020116109e7575b816109ba60209383611ad1565b81010312610988575173ffffffffffffffffffffffffffffffffffffffff811681036109885760c0610611565b3d91506109ad565b506040813d604011610a2e575b81610a0960409383611ad1565b8101031261098857610a29602082610a2260ff94611e9c565b5001611eb9565b610578565b3d91506109fc565b6024867f4e487b710000000000000000000000000000000000000000000000000000000081526041600452fd5b60405180604081011067ffffffffffffffff604083011117610a9e579081604060209301604052878152878382015282828701015201610459565b6024877f4e487b710000000000000000000000000000000000000000000000000000000081526041600452fd5b6024857f4e487b710000000000000000000000000000000000000000000000000000000081526041600452fd5b9550505050505060c0813d60c011610b89575b81610b1860c09383611ad1565b810103126108fb578063ffffffff610b308193611e77565b9181610b3e60208301611e77565b9381610b4c60408501611e77565b9381610b5a60608301611e77565b9381610b7460a0610b6d60808701611e77565b9501611e77565b919997959391959850509450509396506103fa565b3d9150610b0b565b6040513d87823e3d90fd5b9950505050505050505050610120813d61012011610c4f575b81610bc36101209383611ad1565b810103126108fb57610bd481611e62565b84610be160208401611e77565b91610bee60408501611e77565b90610bfb60608601611e62565b610c0760808701611e77565b95610c1460a08201611e77565b96610c2160c08301611e62565b93610c2e60e08401611e77565b9261010001610c3c90611e77565b959890979693959194909290913861030d565b3d9150610bb5565b6024847f4e487b710000000000000000000000000000000000000000000000000000000081526041600452fd5b60249067ffffffffffffffff604051917fcb4a0ea400000000000000000000000000000000000000000000000000000000835260a01c166004820152fd5b818360a01c169003166101c1565b60446040517f6dfcc65000000000000000000000000000000000000000000000000000000000815260406004820152426024820152fd5b9050610d1233611c76565b909160405192610d2184611a86565b6042845260208401916060368437845115610f525760308353845190600191821015610f525790607860218701536041915b818311610e8757505050610e29576048610de492610df392610e25956040519586937f416363657373436f6e74726f6c3a206163636f756e74200000000000000000006020860152610daf815180926020603789019101611a63565b8401917f206973206d697373696e6720726f6c6520000000000000000000000000000000603784015251809386840190611a63565b01036028810184520182611ad1565b6040519182917f08c379a000000000000000000000000000000000000000000000000000000000835260048301611b12565b0390fd5b60646040517f08c379a000000000000000000000000000000000000000000000000000000000815260206004820152602060248201527f537472696e67733a20686578206c656e67746820696e73756666696369656e746044820152fd5b909192600f81166010811015610f25577f3031323334353637383961626364656600000000000000000000000000000000901a610ec48589611c36565b5360041c928015610ef8577fffffffffffffffffffffffffffffffffffffffffffffffffffffffffffffffff019190610d53565b6024827f4e487b710000000000000000000000000000000000000000000000000000000081526011600452fd5b6024837f4e487b710000000000000000000000000000000000000000000000000000000081526032600452fd5b807f4e487b7100000000000000000000000000000000000000000000000000000000602492526032600452fd5b50346101185760607ffffffffffffffffffffffffffffffffffffffffffffffffffffffffffffffffc3601126101185760043573ffffffffffffffffffffffffffffffffffffffff81168103611178576024359067ffffffffffffffff906044358281116108fb57366023820112156108fb57806004013583811161117457366024828401011161117457611012611717565b85602061101e83611bfc565b9261102c6040519485611ad1565b8084528060248386019601863783010152604051936060850190811185821017610a9e57604052602984527f416464726573733a206c6f772d6c6576656c2063616c6c20776974682076616c60208501527f7565206661696c6564000000000000000000000000000000000000000000000060408501528447106110f0576110e494869283925191855af13d156110e8573d916110c883611bfc565b926110d66040519485611ad1565b83523d86602085013e611d9e565b5080f35b606091611d9e565b60846040517f08c379a000000000000000000000000000000000000000000000000000000000815260206004820152602660248201527f416464726573733a20696e73756666696369656e742062616c616e636520666f60448201527f722063616c6c00000000000000000000000000000000000000000000000000006064820152fd5b8580fd5b5080fd5b50346101185760207ffffffffffffffffffffffffffffffffffffffffffffffffffffffffffffffffc3601126101185760043567ffffffffffffffff8116809103611178576111c9611717565b7fffffffffffffffffffffffffffffffffffffffffffffffff0000000000000000600154161760015580f35b503461011857807ffffffffffffffffffffffffffffffffffffffffffffffffffffffffffffffffc36011261011857602090604051908152f35b50346101185760407ffffffffffffffffffffffffffffffffffffffffffffffffffffffffffffffffc3601126101185760ff604060209261126e6116ef565b600435825281855273ffffffffffffffffffffffffffffffffffffffff8383209116825284522054166040519015158152f35b503461011857807ffffffffffffffffffffffffffffffffffffffffffffffffffffffffffffffffc3601126101185760206040517fa49807205ce4d355092ef5a8a18f56e8913cf4a201fbe287825b095693c217758152f35b503461011857807ffffffffffffffffffffffffffffffffffffffffffffffffffffffffffffffffc36011261011857602060405173ffffffffffffffffffffffffffffffffffffffff7f0000000000000000000000000000000000000000000000000000000000000000168152f35b50346101185760407ffffffffffffffffffffffffffffffffffffffffffffffffffffffffffffffffc360112610118576113a16116ef565b3373ffffffffffffffffffffffffffffffffffffffff8216036113ca5761011590600435611b5c565b60846040517f08c379a000000000000000000000000000000000000000000000000000000000815260206004820152602f60248201527f416363657373436f6e74726f6c3a2063616e206f6e6c792072656e6f756e636560448201527f20726f6c657320666f722073656c6600000000000000000000000000000000006064820152fd5b50346101185760407ffffffffffffffffffffffffffffffffffffffffffffffffffffffffffffffffc360112610118576004356114896116ef565b818352826020526114a06001604085200154611929565b8183528260205273ffffffffffffffffffffffffffffffffffffffff6040842091169081845260205260ff604084205416156114da578280f35b81835282602052604083208184526020526040832060017fffffffffffffffffffffffffffffffffffffffffffffffffffffffffffffff0082541617905533917f2f8788117e7eff1d82e926ec794901d17c78024a50270940304540a733656f0d8480a438808280f35b50346101185760207ffffffffffffffffffffffffffffffffffffffffffffffffffffffffffffffffc36011261011857600160406020926004358152808452200154604051908152f35b503461011857807ffffffffffffffffffffffffffffffffffffffffffffffffffffffffffffffffc36011261011857602067ffffffffffffffff60015416604051908152f35b503461011857807ffffffffffffffffffffffffffffffffffffffffffffffffffffffffffffffffc3601126101185760206040517f0833596c19f8afe7d32bf2c778d80a2e2b0dcaa54c9ed6c8df6d646a481f4f898152f35b9050346111785760207ffffffffffffffffffffffffffffffffffffffffffffffffffffffffffffffffc360112611178576004357fffffffff0000000000000000000000000000000000000000000000000000000081168091036116eb57602092507f7965db0b0000000000000000000000000000000000000000000000000000000081149081156116c1575b5015158152f35b7f01ffc9a700000000000000000000000000000000000000000000000000000000915014386116ba565b8280fd5b6024359073ffffffffffffffffffffffffffffffffffffffff8216820361171257565b600080fd5b3360009081527f7d7ffb7a348e1c6a02869081a26547b49160dd3df72d1d75a570eb9b698292ec60209081526040808320549092907fa49807205ce4d355092ef5a8a18f56e8913cf4a201fbe287825b095693c217759060ff161561177c5750505050565b61178533611c76565b84519161179183611a86565b60428352848301936060368637835115610f525760308553835190600191821015610f525790607860218601536041915b8183116118b85750505061185c57610daf93859361182c9361181d604894610e25995198857f416363657373436f6e74726f6c3a206163636f756e74200000000000000000008b978801528251928391603789019101611a63565b01036028810185520183611ad1565b519182917f08c379a000000000000000000000000000000000000000000000000000000000835260048301611b12565b6064848651907f08c379a000000000000000000000000000000000000000000000000000000000825280600483015260248201527f537472696e67733a20686578206c656e67746820696e73756666696369656e746044820152fd5b909192600f81166010811015610f25577f3031323334353637383961626364656600000000000000000000000000000000901a6118f58588611c36565b5360041c928015610ef8577fffffffffffffffffffffffffffffffffffffffffffffffffffffffffffffffff0191906117c2565b6000818152602090808252604092838220338352835260ff8483205416156119515750505050565b61195a33611c76565b84519161196683611a86565b60428352848301936060368637835115610f525760308553835190600191821015610f525790607860218601536041915b8183116119f25750505061185c57610daf93859361182c9361181d604894610e25995198857f416363657373436f6e74726f6c3a206163636f756e74200000000000000000008b978801528251928391603789019101611a63565b909192600f81166010811015610f25577f3031323334353637383961626364656600000000000000000000000000000000901a611a2f8588611c36565b5360041c928015610ef8577fffffffffffffffffffffffffffffffffffffffffffffffffffffffffffffffff019190611997565b60005b838110611a765750506000910152565b8181015183820152602001611a66565b6080810190811067ffffffffffffffff821117611aa257604052565b7f4e487b7100000000000000000000000000000000000000000000000000000000600052604160045260246000fd5b90601f7fffffffffffffffffffffffffffffffffffffffffffffffffffffffffffffffe0910116810190811067ffffffffffffffff821117611aa257604052565b7fffffffffffffffffffffffffffffffffffffffffffffffffffffffffffffffe0601f60409360208452611b558151809281602088015260208888019101611a63565b0116010190565b906000918083528260205273ffffffffffffffffffffffffffffffffffffffff6040842092169182845260205260ff604084205416611b9a57505050565b8083528260205260408320828452602052604083207fffffffffffffffffffffffffffffffffffffffffffffffffffffffffffffff0081541690557ff6391f5c32d9c69d2a47ea670b442974b53935d1edc7fd64eb21e047a839171b339380a4565b67ffffffffffffffff8111611aa257601f017fffffffffffffffffffffffffffffffffffffffffffffffffffffffffffffffe01660200190565b908151811015611c47570160200190565b7f4e487b7100000000000000000000000000000000000000000000000000000000600052603260045260246000fd5b604051906060820182811067ffffffffffffffff821117611aa257604052602a8252602082016040368237825115611c4757603090538151600190811015611c4757607860218401536029905b808211611cd3575050610e295790565b9091600f81166010811015611d70577f3031323334353637383961626364656600000000000000000000000000000000901a611d0f8486611c36565b5360041c918015611d42577fffffffffffffffffffffffffffffffffffffffffffffffffffffffffffffffff0190611cc3565b602460007f4e487b710000000000000000000000000000000000000000000000000000000081526011600452fd5b602460007f4e487b710000000000000000000000000000000000000000000000000000000081526032600452fd5b91929015611e195750815115611db2575090565b3b15611dbb5790565b60646040517f08c379a000000000000000000000000000000000000000000000000000000000815260206004820152601d60248201527f416464726573733a2063616c6c20746f206e6f6e2d636f6e74726163740000006044820152fd5b825190915015611e2c5750805190602001fd5b610e25906040519182917f08c379a000000000000000000000000000000000000000000000000000000000835260048301611b12565b519067ffffffffffffffff8216820361171257565b519063ffffffff8216820361171257565b8051821015611c475760209160051b010190565b51906fffffffffffffffffffffffffffffffff8216820361171257565b519060ff821682036117125756fea264697066735822122026a5a473dc6193bfc0cb2047764f311cb62d315f3680cca1f47e6c0ede7fdee964736f6c634300081500332f8788117e7eff1d82e926ec794901d17c78024a50270940304540a733656f0d",
  "linkReferences": {},
  "deployedLinkReferences": {}
}