{
  "_format": "hh-sol-artifact-1",
  "contractName": "RewardCollectorV3",
  "sourceName": "contracts/plugins/RewardCollectorV3.sol",
  "abi": [
    {
      "inputs": [
        {
          "internalType": "contract Router",
          "name": "_router",
          "type": "address"
        },
        {
          "internalType": "contract IERC20",
          "name": "_EQU",
          "type": "address"
        },
        {
          "internalType": "contract IEFC",
          "name": "_EFC",
          "type": "address"
        },
        {
          "internalType": "contract FarmRewardDistributorV2",
          "name": "_distributorV2",
          "type": "address"
        }
      ],
      "stateMutability": "nonpayable",
      "type": "constructor"
    },
    {
      "inputs": [
        {
          "internalType": "uint256",
          "name": "amount",
          "type": "uint256"
        },
        {
          "internalType": "uint256",
          "name": "requiredAmount",
          "type": "uint256"
        }
      ],
      "name": "InsufficientBalance",
      "type": "error"
    },
    {
      "inputs": [
        {
          "internalType": "address",
          "name": "caller",
          "type": "address"
        },
        {
          "internalType": "address",
          "name": "requiredCaller",
          "type": "address"
        }
      ],
      "name": "InvalidCaller",
      "type": "error"
    },
    {
      "inputs": [
        {
          "internalType": "address",
          "name": "token",
          "type": "address"
        }
      ],
      "name": "SafeERC20FailedOperation",
      "type": "error"
    },
    {
      "inputs": [],
      "name": "EFC",
      "outputs": [
        {
          "internalType": "contract IEFC",
          "name": "",
          "type": "address"
        }
      ],
      "stateMutability": "view",
      "type": "function"
    },
    {
      "inputs": [],
      "name": "EQU",
      "outputs": [
        {
          "internalType": "contract IERC20",
          "name": "",
          "type": "address"
        }
      ],
      "stateMutability": "view",
      "type": "function"
    },
    {
      "inputs": [
        {
          "internalType": "uint256[]",
          "name": "_tokenIDs",
          "type": "uint256[]"
        }
      ],
      "name": "collectArchitectRewardBatch",
      "outputs": [
        {
          "internalType": "uint256",
          "name": "rewardDebt",
          "type": "uint256"
        }
      ],
      "stateMutability": "nonpayable",
      "type": "function"
    },
    {
      "inputs": [
        {
          "internalType": "contract IPool[]",
          "name": "_pools",
          "type": "address[]"
        }
      ],
      "name": "collectFarmLiquidityRewardBatch",
      "outputs": [
        {
          "internalType": "uint256",
          "name": "rewardDebt",
          "type": "uint256"
        }
      ],
      "stateMutability": "nonpayable",
      "type": "function"
    },
    {
      "inputs": [
        {
          "internalType": "contract IPool[]",
          "name": "_pools",
          "type": "address[]"
        },
        {
          "internalType": "uint256[]",
          "name": "_referralTokens",
          "type": "uint256[]"
        }
      ],
      "name": "collectFarmReferralRewardBatch",
      "outputs": [
        {
          "internalType": "uint256",
          "name": "rewardDebt",
          "type": "uint256"
        }
      ],
      "stateMutability": "nonpayable",
      "type": "function"
    },
    {
      "inputs": [
        {
          "internalType": "PackedValue",
          "name": "_nonceAndLockupPeriod",
          "type": "uint256"
        },
        {
          "internalType": "PackedValue[]",
          "name": "_packedPoolRewardValues",
          "type": "uint256[]"
        },
        {
          "internalType": "bytes",
          "name": "_signature",
          "type": "bytes"
        },
        {
          "internalType": "address",
          "name": "_receiver",
          "type": "address"
        }
      ],
      "name": "collectFarmRewardBatch",
      "outputs": [],
      "stateMutability": "nonpayable",
      "type": "function"
    },
    {
      "inputs": [
        {
          "internalType": "contract IPool[]",
          "name": "_pools",
          "type": "address[]"
        }
      ],
      "name": "collectFarmRiskBufferFundRewardBatch",
      "outputs": [
        {
          "internalType": "uint256",
          "name": "rewardDebt",
          "type": "uint256"
        }
      ],
      "stateMutability": "nonpayable",
      "type": "function"
    },
    {
      "inputs": [
        {
          "internalType": "contract IPool[]",
          "name": "_pools",
          "type": "address[]"
        },
        {
          "internalType": "uint256[]",
          "name": "_referralTokens",
          "type": "uint256[]"
        }
      ],
      "name": "collectReferralFeeBatch",
      "outputs": [
        {
          "internalType": "uint256",
          "name": "amount",
          "type": "uint256"
        }
      ],
      "stateMutability": "nonpayable",
      "type": "function"
    },
    {
      "inputs": [
        {
          "internalType": "uint256[]",
          "name": "_ids",
          "type": "uint256[]"
        }
      ],
      "name": "collectStakingRewardBatch",
      "outputs": [
        {
          "internalType": "uint256",
          "name": "rewardDebt",
          "type": "uint256"
        }
      ],
      "stateMutability": "nonpayable",
      "type": "function"
    },
    {
      "inputs": [
        {
          "internalType": "uint256[]",
          "name": "_ids",
          "type": "uint256[]"
        }
      ],
      "name": "collectV3PosStakingRewardBatch",
      "outputs": [
        {
          "internalType": "uint256",
          "name": "rewardDebt",
          "type": "uint256"
        }
      ],
      "stateMutability": "nonpayable",
      "type": "function"
    },
    {
      "inputs": [],
      "name": "distributorV2",
      "outputs": [
        {
          "internalType": "contract FarmRewardDistributorV2",
          "name": "",
          "type": "address"
        }
      ],
      "stateMutability": "view",
      "type": "function"
    },
    {
      "inputs": [
        {
          "internalType": "bytes[]",
          "name": "data",
          "type": "bytes[]"
        }
      ],
      "name": "multicall",
      "outputs": [
        {
          "internalType": "bytes[]",
          "name": "results",
          "type": "bytes[]"
        }
      ],
      "stateMutability": "nonpayable",
      "type": "function"
    },
    {
      "inputs": [],
      "name": "router",
      "outputs": [
        {
          "internalType": "contract Router",
          "name": "",
          "type": "address"
        }
      ],
      "stateMutability": "view",
      "type": "function"
    },
    {
      "inputs": [
        {
          "internalType": "contract IERC20",
          "name": "_token",
          "type": "address"
        },
        {
          "internalType": "uint256",
          "name": "_amountMinimum",
          "type": "uint256"
        },
        {
          "internalType": "address",
          "name": "_receiver",
          "type": "address"
        }
      ],
      "name": "sweepToken",
      "outputs": [
        {
          "internalType": "uint256",
          "name": "amount",
          "type": "uint256"
        }
      ],
      "stateMutability": "nonpayable",
      "type": "function"
    }
  ],
  "bytecode": "0x610100346100e057601f6116ed38819003918201601f19168301916001600160401b038311848410176100e5578084926080946040528339810103126100e05780516001600160a01b039182821682036100e05760208101519083821682036100e05760408101519084821682036100e0576060015193841684036100e05760c05260a05260805260e0526040516115f190816100fc8239608051818181610108015281816101e0015281816105e50152610ddd015260a0518161051b015260c051818181610f6c015261144b015260e051818181610a6f0152610c510152f35b600080fd5b634e487b7160e01b600052604160045260246000fdfe608060408181526004918236101561001657600080fd5b600092833560e01c9182631420f80214610f2257508163165d961414610da15781633a18428614610ba9578163422d241314610b1e5781635a4c4fa414610a935781637d0d9d5f14610a245781638bd19a3b14610984578163aad3131f146108f8578163ac9650d814610659578163bb63478c1461053f578163c2aa99a5146104d0578163df2ab5bb1461025d578163e161674b14610130575063f887ea40146100bf57600080fd5b3461012c57817ffffffffffffffffffffffffffffffffffffffffffffffffffffffffffffffffc36011261012c576020905173ffffffffffffffffffffffffffffffffffffffff7f0000000000000000000000000000000000000000000000000000000000000000168152f35b5080fd5b83833461012c5760206060610190946101c061014b36610fc1565b91999092610159838561142f565b88519a8b9788977f03dbee4d00000000000000000000000000000000000000000000000000000000895288015260648701916112f9565b917ffffffffffffffffffffffffffffffffffffffffffffffffffffffffffffffffc85840301602486015261138e565b30604483015203818573ffffffffffffffffffffffffffffffffffffffff7f0000000000000000000000000000000000000000000000000000000000000000165af19182156102525791610219575b6020925051908152f35b90506020823d821161024a575b8161023360209383611088565b8101031261024557602091519061020f565b600080fd5b3d9150610226565b9051903d90823e3d90fd5b919050346104cc5760607ffffffffffffffffffffffffffffffffffffffffffffffffffffffffffffffffc3601126104cc57813573ffffffffffffffffffffffffffffffffffffffff928382168092036104c857602491823595604435958616809603610245578451957f70a08231000000000000000000000000000000000000000000000000000000008752308488015260209788888781875afa9788156104be57839861048f575b5080881061045b5750855190888201907fa9059cbb0000000000000000000000000000000000000000000000000000000082528683015287604483015260448252608082019167ffffffffffffffff8184108185111761042e5760c082019081118482101761042e57846103bb938c959382938c52601e85527f416464726573733a206c6f772d6c6576656c2063616c6c206661696c6564000060a0820152519082895af16103b46111e9565b9086611219565b918251928315159283610406575b50505090506103db5750505051908152f35b8351917f5274afe7000000000000000000000000000000000000000000000000000000008352820152fd5b91938180945001031261012c578701519081159182150361042b5750803880896103c9565b80fd5b876041887f4e487b7100000000000000000000000000000000000000000000000000000000600052526000fd5b84604491878a8a51937fcf479181000000000000000000000000000000000000000000000000000000008552840152820152fd5b9097508881813d83116104b7575b6104a78183611088565b8101031261024557519638610307565b503d61049d565b87513d85823e3d90fd5b8480fd5b8280fd5b50503461012c57817ffffffffffffffffffffffffffffffffffffffffffffffffffffffffffffffffc36011261012c576020905173ffffffffffffffffffffffffffffffffffffffff7f0000000000000000000000000000000000000000000000000000000000000000168152f35b83833461012c57602092837ffffffffffffffffffffffffffffffffffffffffffffffffffffffffffffffffc3601126104cc57803567ffffffffffffffff811161065557610591859136908401610f90565b84517f525c865600000000000000000000000000000000000000000000000000000000815293849283926105cb9230923392918601611350565b03818673ffffffffffffffffffffffffffffffffffffffff7f0000000000000000000000000000000000000000000000000000000000000000165af192831561064a579261061b575b5051908152f35b9091508281813d8311610643575b6106338183611088565b8101031261024557519083610614565b503d610629565b8251903d90823e3d90fd5b8380fd5b8391503461012c57602091827ffffffffffffffffffffffffffffffffffffffffffffffffffffffffffffffffc36011261042b5767ffffffffffffffff9180358381116104cc576106ad9036908301610f90565b9190936106b9836110f8565b946106c688519687611088565b8386527fffffffffffffffffffffffffffffffffffffffffffffffffffffffffffffffe06106f3856110f8565b0187865b8281106108e857505050845b84811061078657505050505083519280840190808552835180925280868601968360051b870101940192955b82871061073c5785850386f35b909192938280610776837fffffffffffffffffffffffffffffffffffffffffffffffffffffffffffffffc08a60019603018652885161102a565b960192019601959291909261072f565b8060051b8201357fffffffffffffffffffffffffffffffffffffffffffffffffffffffffffffffe1833603018112156108e45782018035908482116108e0578981019180360383136108dc576107db8161116c565b926107e88d519485611088565b8184528b8401928c8336920101116108d857818a928d928537840101528a519160608301838110878211176108aa578961088a936108a59695938f8f907f416464726573733a206c6f772d6c6576656c2064656c65676174652063616c6c7f206661696c6564000000000000000000000000000000000000000000000000009286978352602789528801528601525190305af46108836111e9565b9030611219565b610894828a6111a6565b5261089f81896111a6565b50611110565b610703565b6041887f4e487b71000000000000000000000000000000000000000000000000000000006000525260246000fd5b8980fd5b8880fd5b8780fd5b8680fd5b606082828b0101520188906106f7565b83833461012c57602092837ffffffffffffffffffffffffffffffffffffffffffffffffffffffffffffffffc3601126104cc57803567ffffffffffffffff81116106555761094a859136908401610f90565b84517f64fdd23c00000000000000000000000000000000000000000000000000000000815293849283926105cb9230923392918601611350565b83833461012c57602092837ffffffffffffffffffffffffffffffffffffffffffffffffffffffffffffffffc3601126104cc57803567ffffffffffffffff8111610655576109d6859136908401610f90565b90926109e2828561142f565b6105cb855194859384937f786bccf20000000000000000000000000000000000000000000000000000000085523090850152876024850152604484019161138e565b50503461012c57817ffffffffffffffffffffffffffffffffffffffffffffffffffffffffffffffffc36011261012c576020905173ffffffffffffffffffffffffffffffffffffffff7f0000000000000000000000000000000000000000000000000000000000000000168152f35b83833461012c57602092837ffffffffffffffffffffffffffffffffffffffffffffffffffffffffffffffffc3601126104cc57803567ffffffffffffffff811161065557610ae5859136908401610f90565b926105cb855194859384937f724fa7710000000000000000000000000000000000000000000000000000000085523090339086016113cb565b83833461012c57602092837ffffffffffffffffffffffffffffffffffffffffffffffffffffffffffffffffc3601126104cc57803567ffffffffffffffff811161065557610b70859136908401610f90565b926105cb855194859384937f18602c7b0000000000000000000000000000000000000000000000000000000085523090339086016113cb565b919050346104cc577ffffffffffffffffffffffffffffffffffffffffffffffffffffffffffffffffc916080833601126106555767ffffffffffffffff602435818111610d9d57610bfd9036908401610f90565b94906044358381116108e057366023820112156108e05780850135908482116108dc5736602483830101116108dc576064359073ffffffffffffffffffffffffffffffffffffffff808316809303610d99577f00000000000000000000000000000000000000000000000000000000000000001694853b15610d99579893918a95939189519a8b967f8f1d31ec0000000000000000000000000000000000000000000000000000000088528060a48901338d8b01528c3560248b015260a060448b01525260c488019590895b818110610d7d57505050937fffffffffffffffffffffffffffffffffffffffffffffffffffffffffffffffe0601f856020958b9760248c9a978b988989030160648a015282885201888701378787838701015260848601520116010301925af18015610d7357610d37578480f35b8311610d47575052388080808480f35b8360416024927f4e487b7100000000000000000000000000000000000000000000000000000000835252fd5b83513d87823e3d90fd5b823588528f9a508e995060209788019790920191600101610cc9565b8a80fd5b8580fd5b919050346104cc57610db236610fc1565b959091948195610dc2888561142f565b829773ffffffffffffffffffffffffffffffffffffffff91827f000000000000000000000000000000000000000000000000000000000000000016995b818110610e105760208a8a51908152f35b610e1b81838a6112e9565b358481168091036108e45786905b8c858310610e4257505050610e3d90611110565b610dff565b88610e51849e9394888d6112e9565b35918d51907f0cfe3642000000000000000000000000000000000000000000000000000000008252858b830152602493848301523060448301528160648160209586945af1918215610f18578b92610eea575b50508201809211610ec05750610eba909b611110565b90610e29565b886011897f4e487b7100000000000000000000000000000000000000000000000000000000835252fd5b90809250813d8311610f11575b610f018183611088565b810103126108d857513880610ea4565b503d610ef7565b8e513d8d823e3d90fd5b84903461012c57817ffffffffffffffffffffffffffffffffffffffffffffffffffffffffffffffffc36011261012c5760209073ffffffffffffffffffffffffffffffffffffffff7f0000000000000000000000000000000000000000000000000000000000000000168152f35b9181601f840112156102455782359167ffffffffffffffff8311610245576020808501948460051b01011161024557565b60407ffffffffffffffffffffffffffffffffffffffffffffffffffffffffffffffffc8201126102455767ffffffffffffffff91600435838111610245578261100c91600401610f90565b939093926024359182116102455761102691600401610f90565b9091565b919082519283825260005b8481106110745750507fffffffffffffffffffffffffffffffffffffffffffffffffffffffffffffffe0601f8460006020809697860101520116010190565b602081830181015184830182015201611035565b90601f7fffffffffffffffffffffffffffffffffffffffffffffffffffffffffffffffe0910116810190811067ffffffffffffffff8211176110c957604052565b7f4e487b7100000000000000000000000000000000000000000000000000000000600052604160045260246000fd5b67ffffffffffffffff81116110c95760051b60200190565b7fffffffffffffffffffffffffffffffffffffffffffffffffffffffffffffffff811461113d5760010190565b7f4e487b7100000000000000000000000000000000000000000000000000000000600052601160045260246000fd5b67ffffffffffffffff81116110c957601f017fffffffffffffffffffffffffffffffffffffffffffffffffffffffffffffffe01660200190565b80518210156111ba5760209160051b010190565b7f4e487b7100000000000000000000000000000000000000000000000000000000600052603260045260246000fd5b3d15611214573d906111fa8261116c565b916112086040519384611088565b82523d6000602084013e565b606090565b91929015611294575081511561122d575090565b3b156112365790565b60646040517f08c379a000000000000000000000000000000000000000000000000000000000815260206004820152601d60248201527f416464726573733a2063616c6c20746f206e6f6e2d636f6e74726163740000006044820152fd5b8251909150156112a75750805190602001fd5b6112e5906040519182917f08c379a000000000000000000000000000000000000000000000000000000000835260206004840152602483019061102a565b0390fd5b91908110156111ba5760051b0190565b9190808252602080920192916000805b83821061131857505050505090565b9091929394853573ffffffffffffffffffffffffffffffffffffffff81168091036104cc578152830194830193929160010190611309565b929061136a906040939695966060865260608601916112f9565b9473ffffffffffffffffffffffffffffffffffffffff809216602085015216910152565b90918281527f07ffffffffffffffffffffffffffffffffffffffffffffffffffffffffffffff83116102455760209260051b809284830137010190565b606091611400959373ffffffffffffffffffffffffffffffffffffffff8092168352166020820152816040820152019161138e565b90565b90816020910312610245575173ffffffffffffffffffffffffffffffffffffffff811681036102455790565b90600073ffffffffffffffffffffffffffffffffffffffff91827f000000000000000000000000000000000000000000000000000000000000000016915b81811061147b575050505050565b6114868183876112e9565b3560409081517f6352211e000000000000000000000000000000000000000000000000000000009283825260049283830152602093602492858185818c5afa9081156115b057600091611593575b5089339116036114f15750505050506114ec90611110565b61146d565b8891858992856115038a8f8d906112e9565b35918451958693849283528a8301525afa91821561158857604496600093611559575b505051937f16cece4800000000000000000000000000000000000000000000000000000000855233908501521690820152fd5b611579929350803d10611581575b6115718183611088565b810190611403565b908680611526565b503d611567565b50513d6000823e3d90fd5b6115aa9150863d8811611581576115718183611088565b386114d4565b83513d6000823e3d90fdfea264697066735822122021ab215d5de4a1367f40d0b0d66725ccf8b551634e8b25057f2384c2dae475af64736f6c63430008150033",
  "linkReferences": {},
  "deployedLinkReferences": {}
}